{
	"data": {
		"bytecode": {
			"linkReferences": {},
			"object": "610761610053600b82828239805160001a607314610046577f4e487b7100000000000000000000000000000000000000000000000000000000600052600060045260246000fd5b30600052607381538281f3fe73000000000000000000000000000000000000000030146080604052600436106100405760003560e01c80636022bb7b1461004557806395fc4af514610075575b600080fd5b61005f600480360381019061005a9190610447565b6100a5565b60405161006c91906104a9565b60405180910390f35b61008f600480360381019061008a9190610510565b6100d7565b60405161009c919061060b565b60405180910390f35b600080826040516020016100b991906106e5565b60405160208183030381529060405290506020810151915050919050565b60606000600567ffffffffffffffff8111156100f6576100f56102cb565b5b6040519080825280602002602001820160405280156101245781602001602082028036833780820191505090505b509050600060808473ffffffffffffffffffffffffffffffffffffffff16901c9050808260008151811061015b5761015a6106fc565b5b602002602001019063ffffffff16908163ffffffff1681525050600060608573ffffffffffffffffffffffffffffffffffffffff16901c905080836001815181106101a9576101a86106fc565b5b602002602001019063ffffffff16908163ffffffff1681525050600060408673ffffffffffffffffffffffffffffffffffffffff16901c905080846002815181106101f7576101f66106fc565b5b602002602001019063ffffffff16908163ffffffff1681525050600060208773ffffffffffffffffffffffffffffffffffffffff16901c90508085600381518110610245576102446106fc565b5b602002602001019063ffffffff16908163ffffffff168152505060008790508086600481518110610279576102786106fc565b5b602002602001019063ffffffff16908163ffffffff1681525050859650505050505050919050565b6000604051905090565b600080fd5b600080fd5b600080fd5b6000601f19601f8301169050919050565b7f4e487b7100000000000000000000000000000000000000000000000000000000600052604160045260246000fd5b610303826102ba565b810181811067ffffffffffffffff82111715610322576103216102cb565b5b80604052505050565b60006103356102a1565b905061034182826102fa565b919050565b600067ffffffffffffffff821115610361576103606102cb565b5b602082029050602081019050919050565b600080fd5b60008160060b9050919050565b61038d81610377565b811461039857600080fd5b50565b6000813590506103aa81610384565b92915050565b60006103c36103be84610346565b61032b565b905080838252602082019050602084028301858111156103e6576103e5610372565b5b835b8181101561040f57806103fb888261039b565b8452602084019350506020810190506103e8565b5050509392505050565b600082601f83011261042e5761042d6102b5565b5b813561043e8482602086016103b0565b91505092915050565b60006020828403121561045d5761045c6102ab565b5b600082013567ffffffffffffffff81111561047b5761047a6102b0565b5b61048784828501610419565b91505092915050565b6000819050919050565b6104a381610490565b82525050565b60006020820190506104be600083018461049a565b92915050565b600073ffffffffffffffffffffffffffffffffffffffff82169050919050565b6104ed816104c4565b81146104f857600080fd5b50565b60008135905061050a816104e4565b92915050565b600060208284031215610526576105256102ab565b5b6000610534848285016104fb565b91505092915050565b600081519050919050565b600082825260208201905092915050565b6000819050602082019050919050565b600063ffffffff82169050919050565b61058281610569565b82525050565b60006105948383610579565b60208301905092915050565b6000602082019050919050565b60006105b88261053d565b6105c28185610548565b93506105cd83610559565b8060005b838110156105fe5781516105e58882610588565b97506105f0836105a0565b9250506001810190506105d1565b5085935050505092915050565b6000602082019050818103600083015261062581846105ad565b905092915050565b600081519050919050565b600081905092915050565b6000819050602082019050919050565b61065c81610377565b82525050565b600061066e8383610653565b60208301905092915050565b6000602082019050919050565b60006106928261062d565b61069c8185610638565b93506106a783610643565b8060005b838110156106d85781516106bf8882610662565b97506106ca8361067a565b9250506001810190506106ab565b5085935050505092915050565b60006106f18284610687565b915081905092915050565b7f4e487b7100000000000000000000000000000000000000000000000000000000600052603260045260246000fdfea2646970667358221220fbab1fb9b81669665171fb05bfb9f1b12fc16ab97df33983f71c4a9623d2531264736f6c63430008120033",
			"opcodes": "PUSH2 0x761 PUSH2 0x53 PUSH1 0xB DUP3 DUP3 DUP3 CODECOPY DUP1 MLOAD PUSH1 0x0 BYTE PUSH1 0x73 EQ PUSH2 0x46 JUMPI PUSH32 0x4E487B7100000000000000000000000000000000000000000000000000000000 PUSH1 0x0 MSTORE PUSH1 0x0 PUSH1 0x4 MSTORE PUSH1 0x24 PUSH1 0x0 REVERT JUMPDEST ADDRESS PUSH1 0x0 MSTORE PUSH1 0x73 DUP2 MSTORE8 DUP3 DUP2 RETURN INVALID PUSH20 0x0 ADDRESS EQ PUSH1 0x80 PUSH1 0x40 MSTORE PUSH1 0x4 CALLDATASIZE LT PUSH2 0x40 JUMPI PUSH1 0x0 CALLDATALOAD PUSH1 0xE0 SHR DUP1 PUSH4 0x6022BB7B EQ PUSH2 0x45 JUMPI DUP1 PUSH4 0x95FC4AF5 EQ PUSH2 0x75 JUMPI JUMPDEST PUSH1 0x0 DUP1 REVERT JUMPDEST PUSH2 0x5F PUSH1 0x4 DUP1 CALLDATASIZE SUB DUP2 ADD SWAP1 PUSH2 0x5A SWAP2 SWAP1 PUSH2 0x447 JUMP JUMPDEST PUSH2 0xA5 JUMP JUMPDEST PUSH1 0x40 MLOAD PUSH2 0x6C SWAP2 SWAP1 PUSH2 0x4A9 JUMP JUMPDEST PUSH1 0x40 MLOAD DUP1 SWAP2 SUB SWAP1 RETURN JUMPDEST PUSH2 0x8F PUSH1 0x4 DUP1 CALLDATASIZE SUB DUP2 ADD SWAP1 PUSH2 0x8A SWAP2 SWAP1 PUSH2 0x510 JUMP JUMPDEST PUSH2 0xD7 JUMP JUMPDEST PUSH1 0x40 MLOAD PUSH2 0x9C SWAP2 SWAP1 PUSH2 0x60B JUMP JUMPDEST PUSH1 0x40 MLOAD DUP1 SWAP2 SUB SWAP1 RETURN JUMPDEST PUSH1 0x0 DUP1 DUP3 PUSH1 0x40 MLOAD PUSH1 0x20 ADD PUSH2 0xB9 SWAP2 SWAP1 PUSH2 0x6E5 JUMP JUMPDEST PUSH1 0x40 MLOAD PUSH1 0x20 DUP2 DUP4 SUB SUB DUP2 MSTORE SWAP1 PUSH1 0x40 MSTORE SWAP1 POP PUSH1 0x20 DUP2 ADD MLOAD SWAP2 POP POP SWAP2 SWAP1 POP JUMP JUMPDEST PUSH1 0x60 PUSH1 0x0 PUSH1 0x5 PUSH8 0xFFFFFFFFFFFFFFFF DUP2 GT ISZERO PUSH2 0xF6 JUMPI PUSH2 0xF5 PUSH2 0x2CB JUMP JUMPDEST JUMPDEST PUSH1 0x40 MLOAD SWAP1 DUP1 DUP3 MSTORE DUP1 PUSH1 0x20 MUL PUSH1 0x20 ADD DUP3 ADD PUSH1 0x40 MSTORE DUP1 ISZERO PUSH2 0x124 JUMPI DUP2 PUSH1 0x20 ADD PUSH1 0x20 DUP3 MUL DUP1 CALLDATASIZE DUP4 CALLDATACOPY DUP1 DUP3 ADD SWAP2 POP POP SWAP1 POP JUMPDEST POP SWAP1 POP PUSH1 0x0 PUSH1 0x80 DUP5 PUSH20 0xFFFFFFFFFFFFFFFFFFFFFFFFFFFFFFFFFFFFFFFF AND SWAP1 SHR SWAP1 POP DUP1 DUP3 PUSH1 0x0 DUP2 MLOAD DUP2 LT PUSH2 0x15B JUMPI PUSH2 0x15A PUSH2 0x6FC JUMP JUMPDEST JUMPDEST PUSH1 0x20 MUL PUSH1 0x20 ADD ADD SWAP1 PUSH4 0xFFFFFFFF AND SWAP1 DUP2 PUSH4 0xFFFFFFFF AND DUP2 MSTORE POP POP PUSH1 0x0 PUSH1 0x60 DUP6 PUSH20 0xFFFFFFFFFFFFFFFFFFFFFFFFFFFFFFFFFFFFFFFF AND SWAP1 SHR SWAP1 POP DUP1 DUP4 PUSH1 0x1 DUP2 MLOAD DUP2 LT PUSH2 0x1A9 JUMPI PUSH2 0x1A8 PUSH2 0x6FC JUMP JUMPDEST JUMPDEST PUSH1 0x20 MUL PUSH1 0x20 ADD ADD SWAP1 PUSH4 0xFFFFFFFF AND SWAP1 DUP2 PUSH4 0xFFFFFFFF AND DUP2 MSTORE POP POP PUSH1 0x0 PUSH1 0x40 DUP7 PUSH20 0xFFFFFFFFFFFFFFFFFFFFFFFFFFFFFFFFFFFFFFFF AND SWAP1 SHR SWAP1 POP DUP1 DUP5 PUSH1 0x2 DUP2 MLOAD DUP2 LT PUSH2 0x1F7 JUMPI PUSH2 0x1F6 PUSH2 0x6FC JUMP JUMPDEST JUMPDEST PUSH1 0x20 MUL PUSH1 0x20 ADD ADD SWAP1 PUSH4 0xFFFFFFFF AND SWAP1 DUP2 PUSH4 0xFFFFFFFF AND DUP2 MSTORE POP POP PUSH1 0x0 PUSH1 0x20 DUP8 PUSH20 0xFFFFFFFFFFFFFFFFFFFFFFFFFFFFFFFFFFFFFFFF AND SWAP1 SHR SWAP1 POP DUP1 DUP6 PUSH1 0x3 DUP2 MLOAD DUP2 LT PUSH2 0x245 JUMPI PUSH2 0x244 PUSH2 0x6FC JUMP JUMPDEST JUMPDEST PUSH1 0x20 MUL PUSH1 0x20 ADD ADD SWAP1 PUSH4 0xFFFFFFFF AND SWAP1 DUP2 PUSH4 0xFFFFFFFF AND DUP2 MSTORE POP POP PUSH1 0x0 DUP8 SWAP1 POP DUP1 DUP7 PUSH1 0x4 DUP2 MLOAD DUP2 LT PUSH2 0x279 JUMPI PUSH2 0x278 PUSH2 0x6FC JUMP JUMPDEST JUMPDEST PUSH1 0x20 MUL PUSH1 0x20 ADD ADD SWAP1 PUSH4 0xFFFFFFFF AND SWAP1 DUP2 PUSH4 0xFFFFFFFF AND DUP2 MSTORE POP POP DUP6 SWAP7 POP POP POP POP POP POP POP SWAP2 SWAP1 POP JUMP JUMPDEST PUSH1 0x0 PUSH1 0x40 MLOAD SWAP1 POP SWAP1 JUMP JUMPDEST PUSH1 0x0 DUP1 REVERT JUMPDEST PUSH1 0x0 DUP1 REVERT JUMPDEST PUSH1 0x0 DUP1 REVERT JUMPDEST PUSH1 0x0 PUSH1 0x1F NOT PUSH1 0x1F DUP4 ADD AND SWAP1 POP SWAP2 SWAP1 POP JUMP JUMPDEST PUSH32 0x4E487B7100000000000000000000000000000000000000000000000000000000 PUSH1 0x0 MSTORE PUSH1 0x41 PUSH1 0x4 MSTORE PUSH1 0x24 PUSH1 0x0 REVERT JUMPDEST PUSH2 0x303 DUP3 PUSH2 0x2BA JUMP JUMPDEST DUP2 ADD DUP2 DUP2 LT PUSH8 0xFFFFFFFFFFFFFFFF DUP3 GT OR ISZERO PUSH2 0x322 JUMPI PUSH2 0x321 PUSH2 0x2CB JUMP JUMPDEST JUMPDEST DUP1 PUSH1 0x40 MSTORE POP POP POP JUMP JUMPDEST PUSH1 0x0 PUSH2 0x335 PUSH2 0x2A1 JUMP JUMPDEST SWAP1 POP PUSH2 0x341 DUP3 DUP3 PUSH2 0x2FA JUMP JUMPDEST SWAP2 SWAP1 POP JUMP JUMPDEST PUSH1 0x0 PUSH8 0xFFFFFFFFFFFFFFFF DUP3 GT ISZERO PUSH2 0x361 JUMPI PUSH2 0x360 PUSH2 0x2CB JUMP JUMPDEST JUMPDEST PUSH1 0x20 DUP3 MUL SWAP1 POP PUSH1 0x20 DUP2 ADD SWAP1 POP SWAP2 SWAP1 POP JUMP JUMPDEST PUSH1 0x0 DUP1 REVERT JUMPDEST PUSH1 0x0 DUP2 PUSH1 0x6 SIGNEXTEND SWAP1 POP SWAP2 SWAP1 POP JUMP JUMPDEST PUSH2 0x38D DUP2 PUSH2 0x377 JUMP JUMPDEST DUP2 EQ PUSH2 0x398 JUMPI PUSH1 0x0 DUP1 REVERT JUMPDEST POP JUMP JUMPDEST PUSH1 0x0 DUP2 CALLDATALOAD SWAP1 POP PUSH2 0x3AA DUP2 PUSH2 0x384 JUMP JUMPDEST SWAP3 SWAP2 POP POP JUMP JUMPDEST PUSH1 0x0 PUSH2 0x3C3 PUSH2 0x3BE DUP5 PUSH2 0x346 JUMP JUMPDEST PUSH2 0x32B JUMP JUMPDEST SWAP1 POP DUP1 DUP4 DUP3 MSTORE PUSH1 0x20 DUP3 ADD SWAP1 POP PUSH1 0x20 DUP5 MUL DUP4 ADD DUP6 DUP2 GT ISZERO PUSH2 0x3E6 JUMPI PUSH2 0x3E5 PUSH2 0x372 JUMP JUMPDEST JUMPDEST DUP4 JUMPDEST DUP2 DUP2 LT ISZERO PUSH2 0x40F JUMPI DUP1 PUSH2 0x3FB DUP9 DUP3 PUSH2 0x39B JUMP JUMPDEST DUP5 MSTORE PUSH1 0x20 DUP5 ADD SWAP4 POP POP PUSH1 0x20 DUP2 ADD SWAP1 POP PUSH2 0x3E8 JUMP JUMPDEST POP POP POP SWAP4 SWAP3 POP POP POP JUMP JUMPDEST PUSH1 0x0 DUP3 PUSH1 0x1F DUP4 ADD SLT PUSH2 0x42E JUMPI PUSH2 0x42D PUSH2 0x2B5 JUMP JUMPDEST JUMPDEST DUP2 CALLDATALOAD PUSH2 0x43E DUP5 DUP3 PUSH1 0x20 DUP7 ADD PUSH2 0x3B0 JUMP JUMPDEST SWAP2 POP POP SWAP3 SWAP2 POP POP JUMP JUMPDEST PUSH1 0x0 PUSH1 0x20 DUP3 DUP5 SUB SLT ISZERO PUSH2 0x45D JUMPI PUSH2 0x45C PUSH2 0x2AB JUMP JUMPDEST JUMPDEST PUSH1 0x0 DUP3 ADD CALLDATALOAD PUSH8 0xFFFFFFFFFFFFFFFF DUP2 GT ISZERO PUSH2 0x47B JUMPI PUSH2 0x47A PUSH2 0x2B0 JUMP JUMPDEST JUMPDEST PUSH2 0x487 DUP5 DUP3 DUP6 ADD PUSH2 0x419 JUMP JUMPDEST SWAP2 POP POP SWAP3 SWAP2 POP POP JUMP JUMPDEST PUSH1 0x0 DUP2 SWAP1 POP SWAP2 SWAP1 POP JUMP JUMPDEST PUSH2 0x4A3 DUP2 PUSH2 0x490 JUMP JUMPDEST DUP3 MSTORE POP POP JUMP JUMPDEST PUSH1 0x0 PUSH1 0x20 DUP3 ADD SWAP1 POP PUSH2 0x4BE PUSH1 0x0 DUP4 ADD DUP5 PUSH2 0x49A JUMP JUMPDEST SWAP3 SWAP2 POP POP JUMP JUMPDEST PUSH1 0x0 PUSH20 0xFFFFFFFFFFFFFFFFFFFFFFFFFFFFFFFFFFFFFFFF DUP3 AND SWAP1 POP SWAP2 SWAP1 POP JUMP JUMPDEST PUSH2 0x4ED DUP2 PUSH2 0x4C4 JUMP JUMPDEST DUP2 EQ PUSH2 0x4F8 JUMPI PUSH1 0x0 DUP1 REVERT JUMPDEST POP JUMP JUMPDEST PUSH1 0x0 DUP2 CALLDATALOAD SWAP1 POP PUSH2 0x50A DUP2 PUSH2 0x4E4 JUMP JUMPDEST SWAP3 SWAP2 POP POP JUMP JUMPDEST PUSH1 0x0 PUSH1 0x20 DUP3 DUP5 SUB SLT ISZERO PUSH2 0x526 JUMPI PUSH2 0x525 PUSH2 0x2AB JUMP JUMPDEST JUMPDEST PUSH1 0x0 PUSH2 0x534 DUP5 DUP3 DUP6 ADD PUSH2 0x4FB JUMP JUMPDEST SWAP2 POP POP SWAP3 SWAP2 POP POP JUMP JUMPDEST PUSH1 0x0 DUP2 MLOAD SWAP1 POP SWAP2 SWAP1 POP JUMP JUMPDEST PUSH1 0x0 DUP3 DUP3 MSTORE PUSH1 0x20 DUP3 ADD SWAP1 POP SWAP3 SWAP2 POP POP JUMP JUMPDEST PUSH1 0x0 DUP2 SWAP1 POP PUSH1 0x20 DUP3 ADD SWAP1 POP SWAP2 SWAP1 POP JUMP JUMPDEST PUSH1 0x0 PUSH4 0xFFFFFFFF DUP3 AND SWAP1 POP SWAP2 SWAP1 POP JUMP JUMPDEST PUSH2 0x582 DUP2 PUSH2 0x569 JUMP JUMPDEST DUP3 MSTORE POP POP JUMP JUMPDEST PUSH1 0x0 PUSH2 0x594 DUP4 DUP4 PUSH2 0x579 JUMP JUMPDEST PUSH1 0x20 DUP4 ADD SWAP1 POP SWAP3 SWAP2 POP POP JUMP JUMPDEST PUSH1 0x0 PUSH1 0x20 DUP3 ADD SWAP1 POP SWAP2 SWAP1 POP JUMP JUMPDEST PUSH1 0x0 PUSH2 0x5B8 DUP3 PUSH2 0x53D JUMP JUMPDEST PUSH2 0x5C2 DUP2 DUP6 PUSH2 0x548 JUMP JUMPDEST SWAP4 POP PUSH2 0x5CD DUP4 PUSH2 0x559 JUMP JUMPDEST DUP1 PUSH1 0x0 JUMPDEST DUP4 DUP2 LT ISZERO PUSH2 0x5FE JUMPI DUP2 MLOAD PUSH2 0x5E5 DUP9 DUP3 PUSH2 0x588 JUMP JUMPDEST SWAP8 POP PUSH2 0x5F0 DUP4 PUSH2 0x5A0 JUMP JUMPDEST SWAP3 POP POP PUSH1 0x1 DUP2 ADD SWAP1 POP PUSH2 0x5D1 JUMP JUMPDEST POP DUP6 SWAP4 POP POP POP POP SWAP3 SWAP2 POP POP JUMP JUMPDEST PUSH1 0x0 PUSH1 0x20 DUP3 ADD SWAP1 POP DUP2 DUP2 SUB PUSH1 0x0 DUP4 ADD MSTORE PUSH2 0x625 DUP2 DUP5 PUSH2 0x5AD JUMP JUMPDEST SWAP1 POP SWAP3 SWAP2 POP POP JUMP JUMPDEST PUSH1 0x0 DUP2 MLOAD SWAP1 POP SWAP2 SWAP1 POP JUMP JUMPDEST PUSH1 0x0 DUP2 SWAP1 POP SWAP3 SWAP2 POP POP JUMP JUMPDEST PUSH1 0x0 DUP2 SWAP1 POP PUSH1 0x20 DUP3 ADD SWAP1 POP SWAP2 SWAP1 POP JUMP JUMPDEST PUSH2 0x65C DUP2 PUSH2 0x377 JUMP JUMPDEST DUP3 MSTORE POP POP JUMP JUMPDEST PUSH1 0x0 PUSH2 0x66E DUP4 DUP4 PUSH2 0x653 JUMP JUMPDEST PUSH1 0x20 DUP4 ADD SWAP1 POP SWAP3 SWAP2 POP POP JUMP JUMPDEST PUSH1 0x0 PUSH1 0x20 DUP3 ADD SWAP1 POP SWAP2 SWAP1 POP JUMP JUMPDEST PUSH1 0x0 PUSH2 0x692 DUP3 PUSH2 0x62D JUMP JUMPDEST PUSH2 0x69C DUP2 DUP6 PUSH2 0x638 JUMP JUMPDEST SWAP4 POP PUSH2 0x6A7 DUP4 PUSH2 0x643 JUMP JUMPDEST DUP1 PUSH1 0x0 JUMPDEST DUP4 DUP2 LT ISZERO PUSH2 0x6D8 JUMPI DUP2 MLOAD PUSH2 0x6BF DUP9 DUP3 PUSH2 0x662 JUMP JUMPDEST SWAP8 POP PUSH2 0x6CA DUP4 PUSH2 0x67A JUMP JUMPDEST SWAP3 POP POP PUSH1 0x1 DUP2 ADD SWAP1 POP PUSH2 0x6AB JUMP JUMPDEST POP DUP6 SWAP4 POP POP POP POP SWAP3 SWAP2 POP POP JUMP JUMPDEST PUSH1 0x0 PUSH2 0x6F1 DUP3 DUP5 PUSH2 0x687 JUMP JUMPDEST SWAP2 POP DUP2 SWAP1 POP SWAP3 SWAP2 POP POP JUMP JUMPDEST PUSH32 0x4E487B7100000000000000000000000000000000000000000000000000000000 PUSH1 0x0 MSTORE PUSH1 0x32 PUSH1 0x4 MSTORE PUSH1 0x24 PUSH1 0x0 REVERT INVALID LOG2 PUSH5 0x6970667358 0x22 SLT KECCAK256 0xFB 0xAB 0x1F 0xB9 0xB8 AND PUSH10 0x665171FB05BFB9F1B12F 0xC1 PUSH11 0xB97DF33983F71C4A9623D2 MSTORE8 SLT PUSH5 0x736F6C6343 STOP ADDMOD SLT STOP CALLER "
		},
		"gasEstimates": {
			"creation": {
				"codeDepositCost": "377800",
				"executionCost": "443",
				"totalCost": "378243"
			},
			"external": {
				"convertToInt(int56[])": "infinite",
				"toUint32Array(uint160)": "infinite"
			}
		},
		"methodIdentifiers": {
			"convertToInt(int56[])": "6022bb7b",
			"toUint32Array(uint160)": "95fc4af5"
		}
	},
	"abi": [
		{
			"inputs": [
				{
					"internalType": "int56[]",
					"name": "intArray",
					"type": "int56[]"
				}
			],
			"name": "convertToInt",
			"outputs": [
				{
					"internalType": "uint256",
					"name": "result",
					"type": "uint256"
				}
			],
			"stateMutability": "pure",
			"type": "function"
		},
		{
			"inputs": [
				{
					"internalType": "uint160",
					"name": "value",
					"type": "uint160"
				}
			],
			"name": "toUint32Array",
			"outputs": [
				{
					"internalType": "uint32[]",
					"name": "",
					"type": "uint32[]"
				}
			],
			"stateMutability": "pure",
			"type": "function"
		}
	]
}