{
	"ArbitrageDao-Contract/contracts/swapQuoter.sol": {
		"swapQuoter": {
			"abi": [
				{
					"inputs": [
						{
							"internalType": "bytes",
							"name": "path",
							"type": "bytes"
						},
						{
							"internalType": "uint256",
							"name": "amountIn",
							"type": "uint256"
						}
					],
					"name": "quoteExactInput",
					"outputs": [
						{
							"internalType": "uint256",
							"name": "amountOut",
							"type": "uint256"
						}
					],
					"stateMutability": "nonpayable",
					"type": "function"
				},
				{
					"inputs": [
						{
							"internalType": "address",
							"name": "tokenIn",
							"type": "address"
						},
						{
							"internalType": "address",
							"name": "tokenOut",
							"type": "address"
						},
						{
							"internalType": "uint24",
							"name": "fee",
							"type": "uint24"
						},
						{
							"internalType": "uint256",
							"name": "amountIn",
							"type": "uint256"
						},
						{
							"internalType": "uint160",
							"name": "sqrtPriceLimitX96",
							"type": "uint160"
						}
					],
					"name": "quoteExactInputSingle",
					"outputs": [
						{
							"internalType": "uint256",
							"name": "amountOut",
							"type": "uint256"
						}
					],
					"stateMutability": "nonpayable",
					"type": "function"
				},
				{
					"inputs": [
						{
							"internalType": "bytes",
							"name": "path",
							"type": "bytes"
						},
						{
							"internalType": "uint256",
							"name": "amountOut",
							"type": "uint256"
						}
					],
					"name": "quoteExactOutput",
					"outputs": [
						{
							"internalType": "uint256",
							"name": "amountIn",
							"type": "uint256"
						}
					],
					"stateMutability": "nonpayable",
					"type": "function"
				},
				{
					"inputs": [
						{
							"internalType": "address",
							"name": "tokenIn",
							"type": "address"
						},
						{
							"internalType": "address",
							"name": "tokenOut",
							"type": "address"
						},
						{
							"internalType": "uint24",
							"name": "fee",
							"type": "uint24"
						},
						{
							"internalType": "uint256",
							"name": "amountOut",
							"type": "uint256"
						},
						{
							"internalType": "uint160",
							"name": "sqrtPriceLimitX96",
							"type": "uint160"
						}
					],
					"name": "quoteExactOutputSingle",
					"outputs": [
						{
							"internalType": "uint256",
							"name": "amountIn",
							"type": "uint256"
						}
					],
					"stateMutability": "nonpayable",
					"type": "function"
				}
			],
			"devdoc": {
				"kind": "dev",
				"methods": {
					"quoteExactInput(bytes,uint256)": {
						"params": {
							"amountIn": "The amount of the first token to swap",
							"path": "The path of the swap, i.e. each token pair and the pool fee"
						},
						"returns": {
							"amountOut": "The amount of the last token that would be received"
						}
					},
					"quoteExactInputSingle(address,address,uint24,uint256,uint160)": {
						"params": {
							"amountIn": "The desired input amount",
							"fee": "The fee of the token pool to consider for the pair",
							"sqrtPriceLimitX96": "The price limit of the pool that cannot be exceeded by the swap",
							"tokenIn": "The token being swapped in",
							"tokenOut": "The token being swapped out"
						},
						"returns": {
							"amountOut": "The amount of `tokenOut` that would be received"
						}
					},
					"quoteExactOutput(bytes,uint256)": {
						"params": {
							"amountOut": "The amount of the last token to receive",
							"path": "The path of the swap, i.e. each token pair and the pool fee. Path must be provided in reverse order"
						},
						"returns": {
							"amountIn": "The amount of first token required to be paid"
						}
					},
					"quoteExactOutputSingle(address,address,uint24,uint256,uint160)": {
						"params": {
							"amountOut": "The desired output amount",
							"fee": "The fee of the token pool to consider for the pair",
							"sqrtPriceLimitX96": "The price limit of the pool that cannot be exceeded by the swap",
							"tokenIn": "The token being swapped in",
							"tokenOut": "The token being swapped out"
						},
						"returns": {
							"amountIn": "The amount required as the input for the swap in order to receive `amountOut`"
						}
					}
				},
				"version": 1
			},
			"evm": {
				"assembly": "    /* \"ArbitrageDao-Contract/contracts/swapQuoter.sol\":93:1061  contract swapQuoter is IQuoter{\r... */\n  mstore(0x40, 0x80)\n  callvalue\n  dup1\n  iszero\n  tag_1\n  jumpi\n  0x00\n  dup1\n  revert\ntag_1:\n  pop\n  dataSize(sub_0)\n  dup1\n  dataOffset(sub_0)\n  0x00\n  codecopy\n  0x00\n  return\nstop\n\nsub_0: assembly {\n        /* \"ArbitrageDao-Contract/contracts/swapQuoter.sol\":93:1061  contract swapQuoter is IQuoter{\r... */\n      mstore(0x40, 0x80)\n      callvalue\n      dup1\n      iszero\n      tag_1\n      jumpi\n      0x00\n      dup1\n      revert\n    tag_1:\n      pop\n      jumpi(tag_2, lt(calldatasize, 0x04))\n      shr(0xe0, calldataload(0x00))\n      dup1\n      0x2f80bb1d\n      eq\n      tag_3\n      jumpi\n      dup1\n      0x30d07f21\n      eq\n      tag_4\n      jumpi\n      dup1\n      0xcdca1753\n      eq\n      tag_5\n      jumpi\n      dup1\n      0xf7729d43\n      eq\n      tag_6\n      jumpi\n    tag_2:\n      0x00\n      dup1\n      revert\n        /* \"ArbitrageDao-Contract/contracts/swapQuoter.sol\":308:477  function quoteExactOutput(bytes memory path, uint256 amountOut) override external returns (uint256 amountIn){\r... */\n    tag_3:\n      tag_7\n      0x04\n      dup1\n      calldatasize\n      sub\n      dup2\n      add\n      swap1\n      tag_8\n      swap2\n      swap1\n      tag_9\n      jump\t// in\n    tag_8:\n      tag_10\n      jump\t// in\n    tag_7:\n      mload(0x40)\n      tag_11\n      swap2\n      swap1\n      tag_12\n      jump\t// in\n    tag_11:\n      mload(0x40)\n      dup1\n      swap2\n      sub\n      swap1\n      return\n        /* \"ArbitrageDao-Contract/contracts/swapQuoter.sol\":774:1056  function quoteExactOutputSingle(\r... */\n    tag_4:\n      tag_13\n      0x04\n      dup1\n      calldatasize\n      sub\n      dup2\n      add\n      swap1\n      tag_14\n      swap2\n      swap1\n      tag_15\n      jump\t// in\n    tag_14:\n      tag_16\n      jump\t// in\n    tag_13:\n      mload(0x40)\n      tag_17\n      swap2\n      swap1\n      tag_12\n      jump\t// in\n    tag_17:\n      mload(0x40)\n      dup1\n      swap2\n      sub\n      swap1\n      return\n        /* \"ArbitrageDao-Contract/contracts/swapQuoter.sol\":132:300  function quoteExactInput(bytes memory path, uint256 amountIn) override external returns (uint256 amountOut){\r... */\n    tag_5:\n      tag_18\n      0x04\n      dup1\n      calldatasize\n      sub\n      dup2\n      add\n      swap1\n      tag_19\n      swap2\n      swap1\n      tag_9\n      jump\t// in\n    tag_19:\n      tag_20\n      jump\t// in\n    tag_18:\n      mload(0x40)\n      tag_21\n      swap2\n      swap1\n      tag_12\n      jump\t// in\n    tag_21:\n      mload(0x40)\n      dup1\n      swap2\n      sub\n      swap1\n      return\n        /* \"ArbitrageDao-Contract/contracts/swapQuoter.sol\":485:766  function quoteExactInputSingle(\r... */\n    tag_6:\n      tag_22\n      0x04\n      dup1\n      calldatasize\n      sub\n      dup2\n      add\n      swap1\n      tag_23\n      swap2\n      swap1\n      tag_15\n      jump\t// in\n    tag_23:\n      tag_24\n      jump\t// in\n    tag_22:\n      mload(0x40)\n      tag_25\n      swap2\n      swap1\n      tag_12\n      jump\t// in\n    tag_25:\n      mload(0x40)\n      dup1\n      swap2\n      sub\n      swap1\n      return\n        /* \"ArbitrageDao-Contract/contracts/swapQuoter.sol\":308:477  function quoteExactOutput(bytes memory path, uint256 amountOut) override external returns (uint256 amountIn){\r... */\n    tag_10:\n        /* \"ArbitrageDao-Contract/contracts/swapQuoter.sol\":399:415  uint256 amountIn */\n      0x00\n        /* \"ArbitrageDao-Contract/contracts/swapQuoter.sol\":427:441  uint256 amount */\n      dup1\n        /* \"ArbitrageDao-Contract/contracts/swapQuoter.sol\":444:445  0 */\n      0x00\n        /* \"ArbitrageDao-Contract/contracts/swapQuoter.sol\":427:445  uint256 amount = 0 */\n      swap1\n      pop\n        /* \"ArbitrageDao-Contract/contracts/swapQuoter.sol\":463:469  amount */\n      dup1\n        /* \"ArbitrageDao-Contract/contracts/swapQuoter.sol\":456:469  return amount */\n      swap2\n      pop\n      pop\n        /* \"ArbitrageDao-Contract/contracts/swapQuoter.sol\":308:477  function quoteExactOutput(bytes memory path, uint256 amountOut) override external returns (uint256 amountIn){\r... */\n      swap3\n      swap2\n      pop\n      pop\n      jump\t// out\n        /* \"ArbitrageDao-Contract/contracts/swapQuoter.sol\":774:1056  function quoteExactOutputSingle(\r... */\n    tag_16:\n        /* \"ArbitrageDao-Contract/contracts/swapQuoter.sol\":978:994  uint256 amountIn */\n      0x00\n        /* \"ArbitrageDao-Contract/contracts/swapQuoter.sol\":1006:1020  uint256 amount */\n      dup1\n        /* \"ArbitrageDao-Contract/contracts/swapQuoter.sol\":1023:1024  0 */\n      0x00\n        /* \"ArbitrageDao-Contract/contracts/swapQuoter.sol\":1006:1024  uint256 amount = 0 */\n      swap1\n      pop\n        /* \"ArbitrageDao-Contract/contracts/swapQuoter.sol\":1042:1048  amount */\n      dup1\n        /* \"ArbitrageDao-Contract/contracts/swapQuoter.sol\":1035:1048  return amount */\n      swap2\n      pop\n      pop\n        /* \"ArbitrageDao-Contract/contracts/swapQuoter.sol\":774:1056  function quoteExactOutputSingle(\r... */\n      swap6\n      swap5\n      pop\n      pop\n      pop\n      pop\n      pop\n      jump\t// out\n        /* \"ArbitrageDao-Contract/contracts/swapQuoter.sol\":132:300  function quoteExactInput(bytes memory path, uint256 amountIn) override external returns (uint256 amountOut){\r... */\n    tag_20:\n        /* \"ArbitrageDao-Contract/contracts/swapQuoter.sol\":221:238  uint256 amountOut */\n      0x00\n        /* \"ArbitrageDao-Contract/contracts/swapQuoter.sol\":250:264  uint256 amount */\n      dup1\n        /* \"ArbitrageDao-Contract/contracts/swapQuoter.sol\":267:268  0 */\n      0x00\n        /* \"ArbitrageDao-Contract/contracts/swapQuoter.sol\":250:268  uint256 amount = 0 */\n      swap1\n      pop\n        /* \"ArbitrageDao-Contract/contracts/swapQuoter.sol\":286:292  amount */\n      dup1\n        /* \"ArbitrageDao-Contract/contracts/swapQuoter.sol\":279:292  return amount */\n      swap2\n      pop\n      pop\n        /* \"ArbitrageDao-Contract/contracts/swapQuoter.sol\":132:300  function quoteExactInput(bytes memory path, uint256 amountIn) override external returns (uint256 amountOut){\r... */\n      swap3\n      swap2\n      pop\n      pop\n      jump\t// out\n        /* \"ArbitrageDao-Contract/contracts/swapQuoter.sol\":485:766  function quoteExactInputSingle(\r... */\n    tag_24:\n        /* \"ArbitrageDao-Contract/contracts/swapQuoter.sol\":687:704  uint256 amountOut */\n      0x00\n        /* \"ArbitrageDao-Contract/contracts/swapQuoter.sol\":716:730  uint256 amount */\n      dup1\n        /* \"ArbitrageDao-Contract/contracts/swapQuoter.sol\":733:734  0 */\n      0x00\n        /* \"ArbitrageDao-Contract/contracts/swapQuoter.sol\":716:734  uint256 amount = 0 */\n      swap1\n      pop\n        /* \"ArbitrageDao-Contract/contracts/swapQuoter.sol\":752:758  amount */\n      dup1\n        /* \"ArbitrageDao-Contract/contracts/swapQuoter.sol\":745:758  return amount */\n      swap2\n      pop\n      pop\n        /* \"ArbitrageDao-Contract/contracts/swapQuoter.sol\":485:766  function quoteExactInputSingle(\r... */\n      swap6\n      swap5\n      pop\n      pop\n      pop\n      pop\n      pop\n      jump\t// out\n        /* \"#utility.yul\":7:349   */\n    tag_31:\n      0x00\n        /* \"#utility.yul\":109:173   */\n      tag_33\n        /* \"#utility.yul\":124:172   */\n      tag_34\n        /* \"#utility.yul\":165:171   */\n      dup5\n        /* \"#utility.yul\":124:172   */\n      tag_35\n      jump\t// in\n    tag_34:\n        /* \"#utility.yul\":109:173   */\n      tag_36\n      jump\t// in\n    tag_33:\n        /* \"#utility.yul\":100:173   */\n      swap1\n      pop\n        /* \"#utility.yul\":196:202   */\n      dup3\n        /* \"#utility.yul\":189:194   */\n      dup2\n        /* \"#utility.yul\":182:203   */\n      mstore\n        /* \"#utility.yul\":234:238   */\n      0x20\n        /* \"#utility.yul\":227:232   */\n      dup2\n        /* \"#utility.yul\":223:239   */\n      add\n        /* \"#utility.yul\":272:275   */\n      dup5\n        /* \"#utility.yul\":263:269   */\n      dup5\n        /* \"#utility.yul\":258:261   */\n      dup5\n        /* \"#utility.yul\":254:270   */\n      add\n        /* \"#utility.yul\":251:276   */\n      gt\n        /* \"#utility.yul\":248:250   */\n      iszero\n      tag_37\n      jumpi\n        /* \"#utility.yul\":289:290   */\n      0x00\n        /* \"#utility.yul\":286:287   */\n      dup1\n        /* \"#utility.yul\":279:291   */\n      revert\n        /* \"#utility.yul\":248:250   */\n    tag_37:\n        /* \"#utility.yul\":302:343   */\n      tag_38\n        /* \"#utility.yul\":336:342   */\n      dup5\n        /* \"#utility.yul\":331:334   */\n      dup3\n        /* \"#utility.yul\":326:329   */\n      dup6\n        /* \"#utility.yul\":302:343   */\n      tag_39\n      jump\t// in\n    tag_38:\n        /* \"#utility.yul\":90:349   */\n      pop\n      swap4\n      swap3\n      pop\n      pop\n      pop\n      jump\t// out\n        /* \"#utility.yul\":355:494   */\n    tag_40:\n      0x00\n        /* \"#utility.yul\":439:445   */\n      dup2\n        /* \"#utility.yul\":426:446   */\n      calldataload\n        /* \"#utility.yul\":417:446   */\n      swap1\n      pop\n        /* \"#utility.yul\":455:488   */\n      tag_42\n        /* \"#utility.yul\":482:487   */\n      dup2\n        /* \"#utility.yul\":455:488   */\n      tag_43\n      jump\t// in\n    tag_42:\n        /* \"#utility.yul\":407:494   */\n      swap3\n      swap2\n      pop\n      pop\n      jump\t// out\n        /* \"#utility.yul\":513:784   */\n    tag_44:\n      0x00\n        /* \"#utility.yul\":617:620   */\n      dup3\n        /* \"#utility.yul\":610:614   */\n      0x1f\n        /* \"#utility.yul\":602:608   */\n      dup4\n        /* \"#utility.yul\":598:615   */\n      add\n        /* \"#utility.yul\":594:621   */\n      slt\n        /* \"#utility.yul\":584:586   */\n      tag_46\n      jumpi\n        /* \"#utility.yul\":635:636   */\n      0x00\n        /* \"#utility.yul\":632:633   */\n      dup1\n        /* \"#utility.yul\":625:637   */\n      revert\n        /* \"#utility.yul\":584:586   */\n    tag_46:\n        /* \"#utility.yul\":675:681   */\n      dup2\n        /* \"#utility.yul\":662:682   */\n      calldataload\n        /* \"#utility.yul\":700:778   */\n      tag_47\n        /* \"#utility.yul\":774:777   */\n      dup5\n        /* \"#utility.yul\":766:772   */\n      dup3\n        /* \"#utility.yul\":759:763   */\n      0x20\n        /* \"#utility.yul\":751:757   */\n      dup7\n        /* \"#utility.yul\":747:764   */\n      add\n        /* \"#utility.yul\":700:778   */\n      tag_31\n      jump\t// in\n    tag_47:\n        /* \"#utility.yul\":691:778   */\n      swap2\n      pop\n        /* \"#utility.yul\":574:784   */\n      pop\n      swap3\n      swap2\n      pop\n      pop\n      jump\t// out\n        /* \"#utility.yul\":790:929   */\n    tag_48:\n      0x00\n        /* \"#utility.yul\":874:880   */\n      dup2\n        /* \"#utility.yul\":861:881   */\n      calldataload\n        /* \"#utility.yul\":852:881   */\n      swap1\n      pop\n        /* \"#utility.yul\":890:923   */\n      tag_50\n        /* \"#utility.yul\":917:922   */\n      dup2\n        /* \"#utility.yul\":890:923   */\n      tag_51\n      jump\t// in\n    tag_50:\n        /* \"#utility.yul\":842:929   */\n      swap3\n      swap2\n      pop\n      pop\n      jump\t// out\n        /* \"#utility.yul\":935:1072   */\n    tag_52:\n      0x00\n        /* \"#utility.yul\":1018:1024   */\n      dup2\n        /* \"#utility.yul\":1005:1025   */\n      calldataload\n        /* \"#utility.yul\":996:1025   */\n      swap1\n      pop\n        /* \"#utility.yul\":1034:1066   */\n      tag_54\n        /* \"#utility.yul\":1060:1065   */\n      dup2\n        /* \"#utility.yul\":1034:1066   */\n      tag_55\n      jump\t// in\n    tag_54:\n        /* \"#utility.yul\":986:1072   */\n      swap3\n      swap2\n      pop\n      pop\n      jump\t// out\n        /* \"#utility.yul\":1078:1217   */\n    tag_56:\n      0x00\n        /* \"#utility.yul\":1162:1168   */\n      dup2\n        /* \"#utility.yul\":1149:1169   */\n      calldataload\n        /* \"#utility.yul\":1140:1169   */\n      swap1\n      pop\n        /* \"#utility.yul\":1178:1211   */\n      tag_58\n        /* \"#utility.yul\":1205:1210   */\n      dup2\n        /* \"#utility.yul\":1178:1211   */\n      tag_59\n      jump\t// in\n    tag_58:\n        /* \"#utility.yul\":1130:1217   */\n      swap3\n      swap2\n      pop\n      pop\n      jump\t// out\n        /* \"#utility.yul\":1223:2065   */\n    tag_15:\n      0x00\n      dup1\n      0x00\n      dup1\n      0x00\n        /* \"#utility.yul\":1398:1401   */\n      0xa0\n        /* \"#utility.yul\":1386:1395   */\n      dup7\n        /* \"#utility.yul\":1377:1384   */\n      dup9\n        /* \"#utility.yul\":1373:1396   */\n      sub\n        /* \"#utility.yul\":1369:1402   */\n      slt\n        /* \"#utility.yul\":1366:1368   */\n      iszero\n      tag_61\n      jumpi\n        /* \"#utility.yul\":1415:1416   */\n      0x00\n        /* \"#utility.yul\":1412:1413   */\n      dup1\n        /* \"#utility.yul\":1405:1417   */\n      revert\n        /* \"#utility.yul\":1366:1368   */\n    tag_61:\n        /* \"#utility.yul\":1458:1459   */\n      0x00\n        /* \"#utility.yul\":1483:1536   */\n      tag_62\n        /* \"#utility.yul\":1528:1535   */\n      dup9\n        /* \"#utility.yul\":1519:1525   */\n      dup3\n        /* \"#utility.yul\":1508:1517   */\n      dup10\n        /* \"#utility.yul\":1504:1526   */\n      add\n        /* \"#utility.yul\":1483:1536   */\n      tag_40\n      jump\t// in\n    tag_62:\n        /* \"#utility.yul\":1473:1536   */\n      swap6\n      pop\n        /* \"#utility.yul\":1429:1546   */\n      pop\n        /* \"#utility.yul\":1585:1587   */\n      0x20\n        /* \"#utility.yul\":1611:1664   */\n      tag_63\n        /* \"#utility.yul\":1656:1663   */\n      dup9\n        /* \"#utility.yul\":1647:1653   */\n      dup3\n        /* \"#utility.yul\":1636:1645   */\n      dup10\n        /* \"#utility.yul\":1632:1654   */\n      add\n        /* \"#utility.yul\":1611:1664   */\n      tag_40\n      jump\t// in\n    tag_63:\n        /* \"#utility.yul\":1601:1664   */\n      swap5\n      pop\n        /* \"#utility.yul\":1556:1674   */\n      pop\n        /* \"#utility.yul\":1713:1715   */\n      0x40\n        /* \"#utility.yul\":1739:1791   */\n      tag_64\n        /* \"#utility.yul\":1783:1790   */\n      dup9\n        /* \"#utility.yul\":1774:1780   */\n      dup3\n        /* \"#utility.yul\":1763:1772   */\n      dup10\n        /* \"#utility.yul\":1759:1781   */\n      add\n        /* \"#utility.yul\":1739:1791   */\n      tag_52\n      jump\t// in\n    tag_64:\n        /* \"#utility.yul\":1729:1791   */\n      swap4\n      pop\n        /* \"#utility.yul\":1684:1801   */\n      pop\n        /* \"#utility.yul\":1840:1842   */\n      0x60\n        /* \"#utility.yul\":1866:1919   */\n      tag_65\n        /* \"#utility.yul\":1911:1918   */\n      dup9\n        /* \"#utility.yul\":1902:1908   */\n      dup3\n        /* \"#utility.yul\":1891:1900   */\n      dup10\n        /* \"#utility.yul\":1887:1909   */\n      add\n        /* \"#utility.yul\":1866:1919   */\n      tag_56\n      jump\t// in\n    tag_65:\n        /* \"#utility.yul\":1856:1919   */\n      swap3\n      pop\n        /* \"#utility.yul\":1811:1929   */\n      pop\n        /* \"#utility.yul\":1968:1971   */\n      0x80\n        /* \"#utility.yul\":1995:2048   */\n      tag_66\n        /* \"#utility.yul\":2040:2047   */\n      dup9\n        /* \"#utility.yul\":2031:2037   */\n      dup3\n        /* \"#utility.yul\":2020:2029   */\n      dup10\n        /* \"#utility.yul\":2016:2038   */\n      add\n        /* \"#utility.yul\":1995:2048   */\n      tag_48\n      jump\t// in\n    tag_66:\n        /* \"#utility.yul\":1985:2048   */\n      swap2\n      pop\n        /* \"#utility.yul\":1939:2058   */\n      pop\n        /* \"#utility.yul\":1356:2065   */\n      swap3\n      swap6\n      pop\n      swap3\n      swap6\n      swap1\n      swap4\n      pop\n      jump\t// out\n        /* \"#utility.yul\":2071:2589   */\n    tag_9:\n      0x00\n      dup1\n        /* \"#utility.yul\":2205:2207   */\n      0x40\n        /* \"#utility.yul\":2193:2202   */\n      dup4\n        /* \"#utility.yul\":2184:2191   */\n      dup6\n        /* \"#utility.yul\":2180:2203   */\n      sub\n        /* \"#utility.yul\":2176:2208   */\n      slt\n        /* \"#utility.yul\":2173:2175   */\n      iszero\n      tag_68\n      jumpi\n        /* \"#utility.yul\":2221:2222   */\n      0x00\n        /* \"#utility.yul\":2218:2219   */\n      dup1\n        /* \"#utility.yul\":2211:2223   */\n      revert\n        /* \"#utility.yul\":2173:2175   */\n    tag_68:\n        /* \"#utility.yul\":2292:2293   */\n      0x00\n        /* \"#utility.yul\":2281:2290   */\n      dup4\n        /* \"#utility.yul\":2277:2294   */\n      add\n        /* \"#utility.yul\":2264:2295   */\n      calldataload\n        /* \"#utility.yul\":2322:2340   */\n      0xffffffffffffffff\n        /* \"#utility.yul\":2314:2320   */\n      dup2\n        /* \"#utility.yul\":2311:2341   */\n      gt\n        /* \"#utility.yul\":2308:2310   */\n      iszero\n      tag_69\n      jumpi\n        /* \"#utility.yul\":2354:2355   */\n      0x00\n        /* \"#utility.yul\":2351:2352   */\n      dup1\n        /* \"#utility.yul\":2344:2356   */\n      revert\n        /* \"#utility.yul\":2308:2310   */\n    tag_69:\n        /* \"#utility.yul\":2382:2444   */\n      tag_70\n        /* \"#utility.yul\":2436:2443   */\n      dup6\n        /* \"#utility.yul\":2427:2433   */\n      dup3\n        /* \"#utility.yul\":2416:2425   */\n      dup7\n        /* \"#utility.yul\":2412:2434   */\n      add\n        /* \"#utility.yul\":2382:2444   */\n      tag_44\n      jump\t// in\n    tag_70:\n        /* \"#utility.yul\":2372:2444   */\n      swap3\n      pop\n        /* \"#utility.yul\":2235:2454   */\n      pop\n        /* \"#utility.yul\":2493:2495   */\n      0x20\n        /* \"#utility.yul\":2519:2572   */\n      tag_71\n        /* \"#utility.yul\":2564:2571   */\n      dup6\n        /* \"#utility.yul\":2555:2561   */\n      dup3\n        /* \"#utility.yul\":2544:2553   */\n      dup7\n        /* \"#utility.yul\":2540:2562   */\n      add\n        /* \"#utility.yul\":2519:2572   */\n      tag_56\n      jump\t// in\n    tag_71:\n        /* \"#utility.yul\":2509:2572   */\n      swap2\n      pop\n        /* \"#utility.yul\":2464:2582   */\n      pop\n        /* \"#utility.yul\":2163:2589   */\n      swap3\n      pop\n      swap3\n      swap1\n      pop\n      jump\t// out\n        /* \"#utility.yul\":2595:2713   */\n    tag_72:\n        /* \"#utility.yul\":2682:2706   */\n      tag_74\n        /* \"#utility.yul\":2700:2705   */\n      dup2\n        /* \"#utility.yul\":2682:2706   */\n      tag_75\n      jump\t// in\n    tag_74:\n        /* \"#utility.yul\":2677:2680   */\n      dup3\n        /* \"#utility.yul\":2670:2707   */\n      mstore\n        /* \"#utility.yul\":2660:2713   */\n      pop\n      pop\n      jump\t// out\n        /* \"#utility.yul\":2719:2941   */\n    tag_12:\n      0x00\n        /* \"#utility.yul\":2850:2852   */\n      0x20\n        /* \"#utility.yul\":2839:2848   */\n      dup3\n        /* \"#utility.yul\":2835:2853   */\n      add\n        /* \"#utility.yul\":2827:2853   */\n      swap1\n      pop\n        /* \"#utility.yul\":2863:2934   */\n      tag_77\n        /* \"#utility.yul\":2931:2932   */\n      0x00\n        /* \"#utility.yul\":2920:2929   */\n      dup4\n        /* \"#utility.yul\":2916:2933   */\n      add\n        /* \"#utility.yul\":2907:2913   */\n      dup5\n        /* \"#utility.yul\":2863:2934   */\n      tag_72\n      jump\t// in\n    tag_77:\n        /* \"#utility.yul\":2817:2941   */\n      swap3\n      swap2\n      pop\n      pop\n      jump\t// out\n        /* \"#utility.yul\":2947:3230   */\n    tag_36:\n      0x00\n        /* \"#utility.yul\":3013:3015   */\n      0x40\n        /* \"#utility.yul\":3007:3016   */\n      mload\n        /* \"#utility.yul\":2997:3016   */\n      swap1\n      pop\n        /* \"#utility.yul\":3055:3059   */\n      dup2\n        /* \"#utility.yul\":3047:3053   */\n      dup2\n        /* \"#utility.yul\":3043:3060   */\n      add\n        /* \"#utility.yul\":3162:3168   */\n      dup2\n        /* \"#utility.yul\":3150:3160   */\n      dup2\n        /* \"#utility.yul\":3147:3169   */\n      lt\n        /* \"#utility.yul\":3126:3144   */\n      0xffffffffffffffff\n        /* \"#utility.yul\":3114:3124   */\n      dup3\n        /* \"#utility.yul\":3111:3145   */\n      gt\n        /* \"#utility.yul\":3108:3170   */\n      or\n        /* \"#utility.yul\":3105:3107   */\n      iszero\n      tag_79\n      jumpi\n        /* \"#utility.yul\":3173:3191   */\n      tag_80\n      tag_81\n      jump\t// in\n    tag_80:\n        /* \"#utility.yul\":3105:3107   */\n    tag_79:\n        /* \"#utility.yul\":3213:3223   */\n      dup1\n        /* \"#utility.yul\":3209:3211   */\n      0x40\n        /* \"#utility.yul\":3202:3224   */\n      mstore\n        /* \"#utility.yul\":2987:3230   */\n      pop\n      swap2\n      swap1\n      pop\n      jump\t// out\n        /* \"#utility.yul\":3236:3567   */\n    tag_35:\n      0x00\n        /* \"#utility.yul\":3387:3405   */\n      0xffffffffffffffff\n        /* \"#utility.yul\":3379:3385   */\n      dup3\n        /* \"#utility.yul\":3376:3406   */\n      gt\n        /* \"#utility.yul\":3373:3375   */\n      iszero\n      tag_83\n      jumpi\n        /* \"#utility.yul\":3409:3427   */\n      tag_84\n      tag_81\n      jump\t// in\n    tag_84:\n        /* \"#utility.yul\":3373:3375   */\n    tag_83:\n        /* \"#utility.yul\":3494:3498   */\n      0x1f\n        /* \"#utility.yul\":3490:3499   */\n      not\n        /* \"#utility.yul\":3483:3487   */\n      0x1f\n        /* \"#utility.yul\":3475:3481   */\n      dup4\n        /* \"#utility.yul\":3471:3488   */\n      add\n        /* \"#utility.yul\":3467:3500   */\n      and\n        /* \"#utility.yul\":3459:3500   */\n      swap1\n      pop\n        /* \"#utility.yul\":3555:3559   */\n      0x20\n        /* \"#utility.yul\":3549:3553   */\n      dup2\n        /* \"#utility.yul\":3545:3560   */\n      add\n        /* \"#utility.yul\":3537:3560   */\n      swap1\n      pop\n        /* \"#utility.yul\":3302:3567   */\n      swap2\n      swap1\n      pop\n      jump\t// out\n        /* \"#utility.yul\":3573:3669   */\n    tag_85:\n      0x00\n        /* \"#utility.yul\":3639:3663   */\n      tag_87\n        /* \"#utility.yul\":3657:3662   */\n      dup3\n        /* \"#utility.yul\":3639:3663   */\n      tag_88\n      jump\t// in\n    tag_87:\n        /* \"#utility.yul\":3628:3663   */\n      swap1\n      pop\n        /* \"#utility.yul\":3618:3669   */\n      swap2\n      swap1\n      pop\n      jump\t// out\n        /* \"#utility.yul\":3675:3801   */\n    tag_88:\n      0x00\n        /* \"#utility.yul\":3752:3794   */\n      0xffffffffffffffffffffffffffffffffffffffff\n        /* \"#utility.yul\":3745:3750   */\n      dup3\n        /* \"#utility.yul\":3741:3795   */\n      and\n        /* \"#utility.yul\":3730:3795   */\n      swap1\n      pop\n        /* \"#utility.yul\":3720:3801   */\n      swap2\n      swap1\n      pop\n      jump\t// out\n        /* \"#utility.yul\":3807:3898   */\n    tag_90:\n      0x00\n        /* \"#utility.yul\":3883:3891   */\n      0xffffff\n        /* \"#utility.yul\":3876:3881   */\n      dup3\n        /* \"#utility.yul\":3872:3892   */\n      and\n        /* \"#utility.yul\":3861:3892   */\n      swap1\n      pop\n        /* \"#utility.yul\":3851:3898   */\n      swap2\n      swap1\n      pop\n      jump\t// out\n        /* \"#utility.yul\":3904:3981   */\n    tag_75:\n      0x00\n        /* \"#utility.yul\":3970:3975   */\n      dup2\n        /* \"#utility.yul\":3959:3975   */\n      swap1\n      pop\n        /* \"#utility.yul\":3949:3981   */\n      swap2\n      swap1\n      pop\n      jump\t// out\n        /* \"#utility.yul\":3987:4141   */\n    tag_39:\n        /* \"#utility.yul\":4071:4077   */\n      dup3\n        /* \"#utility.yul\":4066:4069   */\n      dup2\n        /* \"#utility.yul\":4061:4064   */\n      dup4\n        /* \"#utility.yul\":4048:4078   */\n      calldatacopy\n        /* \"#utility.yul\":4133:4134   */\n      0x00\n        /* \"#utility.yul\":4124:4130   */\n      dup4\n        /* \"#utility.yul\":4119:4122   */\n      dup4\n        /* \"#utility.yul\":4115:4131   */\n      add\n        /* \"#utility.yul\":4108:4135   */\n      mstore\n        /* \"#utility.yul\":4038:4141   */\n      pop\n      pop\n      pop\n      jump\t// out\n        /* \"#utility.yul\":4147:4327   */\n    tag_81:\n        /* \"#utility.yul\":4195:4272   */\n      0x4e487b7100000000000000000000000000000000000000000000000000000000\n        /* \"#utility.yul\":4192:4193   */\n      0x00\n        /* \"#utility.yul\":4185:4273   */\n      mstore\n        /* \"#utility.yul\":4292:4296   */\n      0x41\n        /* \"#utility.yul\":4289:4290   */\n      0x04\n        /* \"#utility.yul\":4282:4297   */\n      mstore\n        /* \"#utility.yul\":4316:4320   */\n      0x24\n        /* \"#utility.yul\":4313:4314   */\n      0x00\n        /* \"#utility.yul\":4306:4321   */\n      revert\n        /* \"#utility.yul\":4333:4455   */\n    tag_43:\n        /* \"#utility.yul\":4406:4430   */\n      tag_96\n        /* \"#utility.yul\":4424:4429   */\n      dup2\n        /* \"#utility.yul\":4406:4430   */\n      tag_85\n      jump\t// in\n    tag_96:\n        /* \"#utility.yul\":4399:4404   */\n      dup2\n        /* \"#utility.yul\":4396:4431   */\n      eq\n        /* \"#utility.yul\":4386:4388   */\n      tag_97\n      jumpi\n        /* \"#utility.yul\":4445:4446   */\n      0x00\n        /* \"#utility.yul\":4442:4443   */\n      dup1\n        /* \"#utility.yul\":4435:4447   */\n      revert\n        /* \"#utility.yul\":4386:4388   */\n    tag_97:\n        /* \"#utility.yul\":4376:4455   */\n      pop\n      jump\t// out\n        /* \"#utility.yul\":4461:4583   */\n    tag_51:\n        /* \"#utility.yul\":4534:4558   */\n      tag_99\n        /* \"#utility.yul\":4552:4557   */\n      dup2\n        /* \"#utility.yul\":4534:4558   */\n      tag_88\n      jump\t// in\n    tag_99:\n        /* \"#utility.yul\":4527:4532   */\n      dup2\n        /* \"#utility.yul\":4524:4559   */\n      eq\n        /* \"#utility.yul\":4514:4516   */\n      tag_100\n      jumpi\n        /* \"#utility.yul\":4573:4574   */\n      0x00\n        /* \"#utility.yul\":4570:4571   */\n      dup1\n        /* \"#utility.yul\":4563:4575   */\n      revert\n        /* \"#utility.yul\":4514:4516   */\n    tag_100:\n        /* \"#utility.yul\":4504:4583   */\n      pop\n      jump\t// out\n        /* \"#utility.yul\":4589:4709   */\n    tag_55:\n        /* \"#utility.yul\":4661:4684   */\n      tag_102\n        /* \"#utility.yul\":4678:4683   */\n      dup2\n        /* \"#utility.yul\":4661:4684   */\n      tag_90\n      jump\t// in\n    tag_102:\n        /* \"#utility.yul\":4654:4659   */\n      dup2\n        /* \"#utility.yul\":4651:4685   */\n      eq\n        /* \"#utility.yul\":4641:4643   */\n      tag_103\n      jumpi\n        /* \"#utility.yul\":4699:4700   */\n      0x00\n        /* \"#utility.yul\":4696:4697   */\n      dup1\n        /* \"#utility.yul\":4689:4701   */\n      revert\n        /* \"#utility.yul\":4641:4643   */\n    tag_103:\n        /* \"#utility.yul\":4631:4709   */\n      pop\n      jump\t// out\n        /* \"#utility.yul\":4715:4837   */\n    tag_59:\n        /* \"#utility.yul\":4788:4812   */\n      tag_105\n        /* \"#utility.yul\":4806:4811   */\n      dup2\n        /* \"#utility.yul\":4788:4812   */\n      tag_75\n      jump\t// in\n    tag_105:\n        /* \"#utility.yul\":4781:4786   */\n      dup2\n        /* \"#utility.yul\":4778:4813   */\n      eq\n        /* \"#utility.yul\":4768:4770   */\n      tag_106\n      jumpi\n        /* \"#utility.yul\":4827:4828   */\n      0x00\n        /* \"#utility.yul\":4824:4825   */\n      dup1\n        /* \"#utility.yul\":4817:4829   */\n      revert\n        /* \"#utility.yul\":4768:4770   */\n    tag_106:\n        /* \"#utility.yul\":4758:4837   */\n      pop\n      jump\t// out\n\n    auxdata: 0xa26469706673582212205ad1f4c78d6e244e07ba613a16672c31beca123b8470fe4652cedf030d5a63bf64736f6c63430008000033\n}\n",
				"bytecode": {
					"linkReferences": {},
					"object": "608060405234801561001057600080fd5b50610488806100206000396000f3fe608060405234801561001057600080fd5b506004361061004c5760003560e01c80632f80bb1d1461005157806330d07f2114610081578063cdca1753146100b1578063f7729d43146100e1575b600080fd5b61006b6004803603810190610066919061028e565b610111565b60405161007891906102f1565b60405180910390f35b61009b60048036038101906100969190610217565b610122565b6040516100a891906102f1565b60405180910390f35b6100cb60048036038101906100c6919061028e565b610136565b6040516100d891906102f1565b60405180910390f35b6100fb60048036038101906100f69190610217565b610147565b60405161010891906102f1565b60405180910390f35b600080600090508091505092915050565b600080600090508091505095945050505050565b600080600090508091505092915050565b600080600090508091505095945050505050565b600061016e6101698461033d565b61030c565b90508281526020810184848401111561018657600080fd5b6101918482856103b8565b509392505050565b6000813590506101a8816103f6565b92915050565b600082601f8301126101bf57600080fd5b81356101cf84826020860161015b565b91505092915050565b6000813590506101e78161040d565b92915050565b6000813590506101fc81610424565b92915050565b6000813590506102118161043b565b92915050565b600080600080600060a0868803121561022f57600080fd5b600061023d88828901610199565b955050602061024e88828901610199565b945050604061025f888289016101ed565b935050606061027088828901610202565b9250506080610281888289016101d8565b9150509295509295909350565b600080604083850312156102a157600080fd5b600083013567ffffffffffffffff8111156102bb57600080fd5b6102c7858286016101ae565b92505060206102d885828601610202565b9150509250929050565b6102eb816103ae565b82525050565b600060208201905061030660008301846102e2565b92915050565b6000604051905081810181811067ffffffffffffffff82111715610333576103326103c7565b5b8060405250919050565b600067ffffffffffffffff821115610358576103576103c7565b5b601f19601f8301169050602081019050919050565b60006103788261037f565b9050919050565b600073ffffffffffffffffffffffffffffffffffffffff82169050919050565b600062ffffff82169050919050565b6000819050919050565b82818337600083830152505050565b7f4e487b7100000000000000000000000000000000000000000000000000000000600052604160045260246000fd5b6103ff8161036d565b811461040a57600080fd5b50565b6104168161037f565b811461042157600080fd5b50565b61042d8161039f565b811461043857600080fd5b50565b610444816103ae565b811461044f57600080fd5b5056fea26469706673582212205ad1f4c78d6e244e07ba613a16672c31beca123b8470fe4652cedf030d5a63bf64736f6c63430008000033",
					"opcodes": "PUSH1 0x80 PUSH1 0x40 MSTORE CALLVALUE DUP1 ISZERO PUSH2 0x10 JUMPI PUSH1 0x0 DUP1 REVERT JUMPDEST POP PUSH2 0x488 DUP1 PUSH2 0x20 PUSH1 0x0 CODECOPY PUSH1 0x0 RETURN INVALID PUSH1 0x80 PUSH1 0x40 MSTORE CALLVALUE DUP1 ISZERO PUSH2 0x10 JUMPI PUSH1 0x0 DUP1 REVERT JUMPDEST POP PUSH1 0x4 CALLDATASIZE LT PUSH2 0x4C JUMPI PUSH1 0x0 CALLDATALOAD PUSH1 0xE0 SHR DUP1 PUSH4 0x2F80BB1D EQ PUSH2 0x51 JUMPI DUP1 PUSH4 0x30D07F21 EQ PUSH2 0x81 JUMPI DUP1 PUSH4 0xCDCA1753 EQ PUSH2 0xB1 JUMPI DUP1 PUSH4 0xF7729D43 EQ PUSH2 0xE1 JUMPI JUMPDEST PUSH1 0x0 DUP1 REVERT JUMPDEST PUSH2 0x6B PUSH1 0x4 DUP1 CALLDATASIZE SUB DUP2 ADD SWAP1 PUSH2 0x66 SWAP2 SWAP1 PUSH2 0x28E JUMP JUMPDEST PUSH2 0x111 JUMP JUMPDEST PUSH1 0x40 MLOAD PUSH2 0x78 SWAP2 SWAP1 PUSH2 0x2F1 JUMP JUMPDEST PUSH1 0x40 MLOAD DUP1 SWAP2 SUB SWAP1 RETURN JUMPDEST PUSH2 0x9B PUSH1 0x4 DUP1 CALLDATASIZE SUB DUP2 ADD SWAP1 PUSH2 0x96 SWAP2 SWAP1 PUSH2 0x217 JUMP JUMPDEST PUSH2 0x122 JUMP JUMPDEST PUSH1 0x40 MLOAD PUSH2 0xA8 SWAP2 SWAP1 PUSH2 0x2F1 JUMP JUMPDEST PUSH1 0x40 MLOAD DUP1 SWAP2 SUB SWAP1 RETURN JUMPDEST PUSH2 0xCB PUSH1 0x4 DUP1 CALLDATASIZE SUB DUP2 ADD SWAP1 PUSH2 0xC6 SWAP2 SWAP1 PUSH2 0x28E JUMP JUMPDEST PUSH2 0x136 JUMP JUMPDEST PUSH1 0x40 MLOAD PUSH2 0xD8 SWAP2 SWAP1 PUSH2 0x2F1 JUMP JUMPDEST PUSH1 0x40 MLOAD DUP1 SWAP2 SUB SWAP1 RETURN JUMPDEST PUSH2 0xFB PUSH1 0x4 DUP1 CALLDATASIZE SUB DUP2 ADD SWAP1 PUSH2 0xF6 SWAP2 SWAP1 PUSH2 0x217 JUMP JUMPDEST PUSH2 0x147 JUMP JUMPDEST PUSH1 0x40 MLOAD PUSH2 0x108 SWAP2 SWAP1 PUSH2 0x2F1 JUMP JUMPDEST PUSH1 0x40 MLOAD DUP1 SWAP2 SUB SWAP1 RETURN JUMPDEST PUSH1 0x0 DUP1 PUSH1 0x0 SWAP1 POP DUP1 SWAP2 POP POP SWAP3 SWAP2 POP POP JUMP JUMPDEST PUSH1 0x0 DUP1 PUSH1 0x0 SWAP1 POP DUP1 SWAP2 POP POP SWAP6 SWAP5 POP POP POP POP POP JUMP JUMPDEST PUSH1 0x0 DUP1 PUSH1 0x0 SWAP1 POP DUP1 SWAP2 POP POP SWAP3 SWAP2 POP POP JUMP JUMPDEST PUSH1 0x0 DUP1 PUSH1 0x0 SWAP1 POP DUP1 SWAP2 POP POP SWAP6 SWAP5 POP POP POP POP POP JUMP JUMPDEST PUSH1 0x0 PUSH2 0x16E PUSH2 0x169 DUP5 PUSH2 0x33D JUMP JUMPDEST PUSH2 0x30C JUMP JUMPDEST SWAP1 POP DUP3 DUP2 MSTORE PUSH1 0x20 DUP2 ADD DUP5 DUP5 DUP5 ADD GT ISZERO PUSH2 0x186 JUMPI PUSH1 0x0 DUP1 REVERT JUMPDEST PUSH2 0x191 DUP5 DUP3 DUP6 PUSH2 0x3B8 JUMP JUMPDEST POP SWAP4 SWAP3 POP POP POP JUMP JUMPDEST PUSH1 0x0 DUP2 CALLDATALOAD SWAP1 POP PUSH2 0x1A8 DUP2 PUSH2 0x3F6 JUMP JUMPDEST SWAP3 SWAP2 POP POP JUMP JUMPDEST PUSH1 0x0 DUP3 PUSH1 0x1F DUP4 ADD SLT PUSH2 0x1BF JUMPI PUSH1 0x0 DUP1 REVERT JUMPDEST DUP2 CALLDATALOAD PUSH2 0x1CF DUP5 DUP3 PUSH1 0x20 DUP7 ADD PUSH2 0x15B JUMP JUMPDEST SWAP2 POP POP SWAP3 SWAP2 POP POP JUMP JUMPDEST PUSH1 0x0 DUP2 CALLDATALOAD SWAP1 POP PUSH2 0x1E7 DUP2 PUSH2 0x40D JUMP JUMPDEST SWAP3 SWAP2 POP POP JUMP JUMPDEST PUSH1 0x0 DUP2 CALLDATALOAD SWAP1 POP PUSH2 0x1FC DUP2 PUSH2 0x424 JUMP JUMPDEST SWAP3 SWAP2 POP POP JUMP JUMPDEST PUSH1 0x0 DUP2 CALLDATALOAD SWAP1 POP PUSH2 0x211 DUP2 PUSH2 0x43B JUMP JUMPDEST SWAP3 SWAP2 POP POP JUMP JUMPDEST PUSH1 0x0 DUP1 PUSH1 0x0 DUP1 PUSH1 0x0 PUSH1 0xA0 DUP7 DUP9 SUB SLT ISZERO PUSH2 0x22F JUMPI PUSH1 0x0 DUP1 REVERT JUMPDEST PUSH1 0x0 PUSH2 0x23D DUP9 DUP3 DUP10 ADD PUSH2 0x199 JUMP JUMPDEST SWAP6 POP POP PUSH1 0x20 PUSH2 0x24E DUP9 DUP3 DUP10 ADD PUSH2 0x199 JUMP JUMPDEST SWAP5 POP POP PUSH1 0x40 PUSH2 0x25F DUP9 DUP3 DUP10 ADD PUSH2 0x1ED JUMP JUMPDEST SWAP4 POP POP PUSH1 0x60 PUSH2 0x270 DUP9 DUP3 DUP10 ADD PUSH2 0x202 JUMP JUMPDEST SWAP3 POP POP PUSH1 0x80 PUSH2 0x281 DUP9 DUP3 DUP10 ADD PUSH2 0x1D8 JUMP JUMPDEST SWAP2 POP POP SWAP3 SWAP6 POP SWAP3 SWAP6 SWAP1 SWAP4 POP JUMP JUMPDEST PUSH1 0x0 DUP1 PUSH1 0x40 DUP4 DUP6 SUB SLT ISZERO PUSH2 0x2A1 JUMPI PUSH1 0x0 DUP1 REVERT JUMPDEST PUSH1 0x0 DUP4 ADD CALLDATALOAD PUSH8 0xFFFFFFFFFFFFFFFF DUP2 GT ISZERO PUSH2 0x2BB JUMPI PUSH1 0x0 DUP1 REVERT JUMPDEST PUSH2 0x2C7 DUP6 DUP3 DUP7 ADD PUSH2 0x1AE JUMP JUMPDEST SWAP3 POP POP PUSH1 0x20 PUSH2 0x2D8 DUP6 DUP3 DUP7 ADD PUSH2 0x202 JUMP JUMPDEST SWAP2 POP POP SWAP3 POP SWAP3 SWAP1 POP JUMP JUMPDEST PUSH2 0x2EB DUP2 PUSH2 0x3AE JUMP JUMPDEST DUP3 MSTORE POP POP JUMP JUMPDEST PUSH1 0x0 PUSH1 0x20 DUP3 ADD SWAP1 POP PUSH2 0x306 PUSH1 0x0 DUP4 ADD DUP5 PUSH2 0x2E2 JUMP JUMPDEST SWAP3 SWAP2 POP POP JUMP JUMPDEST PUSH1 0x0 PUSH1 0x40 MLOAD SWAP1 POP DUP2 DUP2 ADD DUP2 DUP2 LT PUSH8 0xFFFFFFFFFFFFFFFF DUP3 GT OR ISZERO PUSH2 0x333 JUMPI PUSH2 0x332 PUSH2 0x3C7 JUMP JUMPDEST JUMPDEST DUP1 PUSH1 0x40 MSTORE POP SWAP2 SWAP1 POP JUMP JUMPDEST PUSH1 0x0 PUSH8 0xFFFFFFFFFFFFFFFF DUP3 GT ISZERO PUSH2 0x358 JUMPI PUSH2 0x357 PUSH2 0x3C7 JUMP JUMPDEST JUMPDEST PUSH1 0x1F NOT PUSH1 0x1F DUP4 ADD AND SWAP1 POP PUSH1 0x20 DUP2 ADD SWAP1 POP SWAP2 SWAP1 POP JUMP JUMPDEST PUSH1 0x0 PUSH2 0x378 DUP3 PUSH2 0x37F JUMP JUMPDEST SWAP1 POP SWAP2 SWAP1 POP JUMP JUMPDEST PUSH1 0x0 PUSH20 0xFFFFFFFFFFFFFFFFFFFFFFFFFFFFFFFFFFFFFFFF DUP3 AND SWAP1 POP SWAP2 SWAP1 POP JUMP JUMPDEST PUSH1 0x0 PUSH3 0xFFFFFF DUP3 AND SWAP1 POP SWAP2 SWAP1 POP JUMP JUMPDEST PUSH1 0x0 DUP2 SWAP1 POP SWAP2 SWAP1 POP JUMP JUMPDEST DUP3 DUP2 DUP4 CALLDATACOPY PUSH1 0x0 DUP4 DUP4 ADD MSTORE POP POP POP JUMP JUMPDEST PUSH32 0x4E487B7100000000000000000000000000000000000000000000000000000000 PUSH1 0x0 MSTORE PUSH1 0x41 PUSH1 0x4 MSTORE PUSH1 0x24 PUSH1 0x0 REVERT JUMPDEST PUSH2 0x3FF DUP2 PUSH2 0x36D JUMP JUMPDEST DUP2 EQ PUSH2 0x40A JUMPI PUSH1 0x0 DUP1 REVERT JUMPDEST POP JUMP JUMPDEST PUSH2 0x416 DUP2 PUSH2 0x37F JUMP JUMPDEST DUP2 EQ PUSH2 0x421 JUMPI PUSH1 0x0 DUP1 REVERT JUMPDEST POP JUMP JUMPDEST PUSH2 0x42D DUP2 PUSH2 0x39F JUMP JUMPDEST DUP2 EQ PUSH2 0x438 JUMPI PUSH1 0x0 DUP1 REVERT JUMPDEST POP JUMP JUMPDEST PUSH2 0x444 DUP2 PUSH2 0x3AE JUMP JUMPDEST DUP2 EQ PUSH2 0x44F JUMPI PUSH1 0x0 DUP1 REVERT JUMPDEST POP JUMP INVALID LOG2 PUSH5 0x6970667358 0x22 SLT KECCAK256 GAS 0xD1 DELEGATECALL 0xC7 DUP14 PUSH15 0x244E07BA613A16672C31BECA123B84 PUSH17 0xFE4652CEDF030D5A63BF64736F6C634300 ADDMOD STOP STOP CALLER "
				},
				"gasEstimates": {
					"creation": {
						"codeDepositCost": "232000",
						"executionCost": "275",
						"totalCost": "232275"
					},
					"external": {
						"quoteExactInput(bytes,uint256)": "infinite",
						"quoteExactInputSingle(address,address,uint24,uint256,uint160)": "infinite",
						"quoteExactOutput(bytes,uint256)": "infinite",
						"quoteExactOutputSingle(address,address,uint24,uint256,uint160)": "infinite"
					}
				},
				"methodIdentifiers": {
					"quoteExactInput(bytes,uint256)": "cdca1753",
					"quoteExactInputSingle(address,address,uint24,uint256,uint160)": "f7729d43",
					"quoteExactOutput(bytes,uint256)": "2f80bb1d",
					"quoteExactOutputSingle(address,address,uint24,uint256,uint160)": "30d07f21"
				}
			},
			"storageLayout": {
				"storage": [],
				"types": null
			},
			"userdoc": {
				"kind": "user",
				"methods": {
					"quoteExactInput(bytes,uint256)": {
						"notice": "Returns the amount out received for a given exact input swap without executing the swap"
					},
					"quoteExactInputSingle(address,address,uint24,uint256,uint160)": {
						"notice": "Returns the amount out received for a given exact input but for a swap of a single pool"
					},
					"quoteExactOutput(bytes,uint256)": {
						"notice": "Returns the amount in required for a given exact output swap without executing the swap"
					},
					"quoteExactOutputSingle(address,address,uint24,uint256,uint160)": {
						"notice": "Returns the amount in required to receive the given exact output amount but for a swap of a single pool"
					}
				},
				"version": 1
			}
		}
	}
}