{
	"contracts/ArbitragePrice.sol": {
		"ArbitragePrice": {
			"abi": [
				{
					"inputs": [
						{
							"internalType": "address",
							"name": "tokenA",
							"type": "address"
						},
						{
							"internalType": "address",
							"name": "tokenB",
							"type": "address"
						}
					],
					"name": "getPrice",
					"outputs": [
						{
							"internalType": "uint256",
							"name": "",
							"type": "uint256"
						},
						{
							"internalType": "uint256",
							"name": "",
							"type": "uint256"
						}
					],
					"stateMutability": "view",
					"type": "function"
				},
				{
					"inputs": [
						{
							"internalType": "address",
							"name": "",
							"type": "address"
						},
						{
							"internalType": "address",
							"name": "",
							"type": "address"
						}
					],
					"name": "prices",
					"outputs": [
						{
							"internalType": "uint256",
							"name": "price",
							"type": "uint256"
						},
						{
							"internalType": "uint256",
							"name": "timestamp",
							"type": "uint256"
						}
					],
					"stateMutability": "view",
					"type": "function"
				},
				{
					"inputs": [
						{
							"internalType": "address",
							"name": "tokenA",
							"type": "address"
						},
						{
							"internalType": "address",
							"name": "tokenB",
							"type": "address"
						},
						{
							"internalType": "address",
							"name": "aggregator",
							"type": "address"
						}
					],
					"name": "setChainlinkPrice",
					"outputs": [],
					"stateMutability": "nonpayable",
					"type": "function"
				},
				{
					"inputs": [
						{
							"internalType": "address",
							"name": "tokenA",
							"type": "address"
						},
						{
							"internalType": "address",
							"name": "tokenB",
							"type": "address"
						},
						{
							"internalType": "address",
							"name": "dexContractAddress",
							"type": "address"
						}
					],
					"name": "setPrice",
					"outputs": [],
					"stateMutability": "nonpayable",
					"type": "function"
				}
			],
			"devdoc": {
				"kind": "dev",
				"methods": {},
				"version": 1
			},
			"evm": {
				"assembly": "    /* \"contracts/ArbitragePrice.sol\":387:2267  contract ArbitragePrice {... */\n  mstore(0x40, 0x80)\n  callvalue\n  dup1\n  iszero\n  tag_1\n  jumpi\n  0x00\n  dup1\n  revert\ntag_1:\n  pop\n  dataSize(sub_0)\n  dup1\n  dataOffset(sub_0)\n  0x00\n  codecopy\n  0x00\n  return\nstop\n\nsub_0: assembly {\n        /* \"contracts/ArbitragePrice.sol\":387:2267  contract ArbitragePrice {... */\n      mstore(0x40, 0x80)\n      callvalue\n      dup1\n      iszero\n      tag_1\n      jumpi\n      0x00\n      dup1\n      revert\n    tag_1:\n      pop\n      jumpi(tag_2, lt(calldatasize, 0x04))\n      shr(0xe0, calldataload(0x00))\n      dup1\n      0x1f312404\n      eq\n      tag_3\n      jumpi\n      dup1\n      0x27e50822\n      eq\n      tag_4\n      jumpi\n      dup1\n      0x4cb5960e\n      eq\n      tag_5\n      jumpi\n      dup1\n      0xac41865a\n      eq\n      tag_6\n      jumpi\n    tag_2:\n      0x00\n      dup1\n      revert\n        /* \"contracts/ArbitragePrice.sol\":662:721  mapping(address => mapping(address => Price)) public prices */\n    tag_3:\n      tag_7\n      0x04\n      dup1\n      calldatasize\n      sub\n      dup2\n      add\n      swap1\n      tag_8\n      swap2\n      swap1\n      tag_9\n      jump\t// in\n    tag_8:\n      tag_10\n      jump\t// in\n    tag_7:\n      mload(0x40)\n      tag_11\n      swap3\n      swap2\n      swap1\n      tag_12\n      jump\t// in\n    tag_11:\n      mload(0x40)\n      dup1\n      swap2\n      sub\n      swap1\n      return\n        /* \"contracts/ArbitragePrice.sol\":786:1425  function setPrice(address tokenA, address tokenB,address dexContractAddress) external {... */\n    tag_4:\n      tag_13\n      0x04\n      dup1\n      calldatasize\n      sub\n      dup2\n      add\n      swap1\n      tag_14\n      swap2\n      swap1\n      tag_15\n      jump\t// in\n    tag_14:\n      tag_16\n      jump\t// in\n    tag_13:\n      stop\n        /* \"contracts/ArbitragePrice.sol\":1463:1907  function setChainlinkPrice(address tokenA, address tokenB, address aggregator) external {... */\n    tag_5:\n      tag_17\n      0x04\n      dup1\n      calldatasize\n      sub\n      dup2\n      add\n      swap1\n      tag_18\n      swap2\n      swap1\n      tag_15\n      jump\t// in\n    tag_18:\n      tag_19\n      jump\t// in\n    tag_17:\n      stop\n        /* \"contracts/ArbitragePrice.sol\":1936:2259  function getPrice(address tokenA, address tokenB) external view returns (uint256, uint256) {... */\n    tag_6:\n      tag_20\n      0x04\n      dup1\n      calldatasize\n      sub\n      dup2\n      add\n      swap1\n      tag_21\n      swap2\n      swap1\n      tag_9\n      jump\t// in\n    tag_21:\n      tag_22\n      jump\t// in\n    tag_20:\n      mload(0x40)\n      tag_23\n      swap3\n      swap2\n      swap1\n      tag_12\n      jump\t// in\n    tag_23:\n      mload(0x40)\n      dup1\n      swap2\n      sub\n      swap1\n      return\n        /* \"contracts/ArbitragePrice.sol\":662:721  mapping(address => mapping(address => Price)) public prices */\n    tag_10:\n      mstore(0x20, 0x00)\n      dup2\n      0x00\n      mstore\n      mstore(0x20, keccak256(0x00, 0x40))\n      dup1\n      0x00\n      mstore\n      keccak256(0x00, 0x40)\n      0x00\n      swap2\n      pop\n      swap2\n      pop\n      pop\n      dup1\n      0x00\n      add\n      sload\n      swap1\n      dup1\n      0x01\n      add\n      sload\n      swap1\n      pop\n      dup3\n      jump\t// out\n        /* \"contracts/ArbitragePrice.sol\":786:1425  function setPrice(address tokenA, address tokenB,address dexContractAddress) external {... */\n    tag_16:\n        /* \"contracts/ArbitragePrice.sol\":883:902  IUniswapV3Pool pool */\n      0x00\n        /* \"contracts/ArbitragePrice.sol\":938:956  dexContractAddress */\n      dup2\n        /* \"contracts/ArbitragePrice.sol\":920:965  IUniswapV3Factory(dexContractAddress).getPool */\n      0xffffffffffffffffffffffffffffffffffffffff\n      and\n      0x1698ee82\n        /* \"contracts/ArbitragePrice.sol\":966:972  tokenA */\n      dup6\n        /* \"contracts/ArbitragePrice.sol\":974:980  tokenB */\n      dup6\n        /* \"contracts/ArbitragePrice.sol\":982:986  3000 */\n      0x0bb8\n        /* \"contracts/ArbitragePrice.sol\":920:987  IUniswapV3Factory(dexContractAddress).getPool(tokenA, tokenB, 3000) */\n      mload(0x40)\n      dup5\n      0xffffffff\n      and\n      0xe0\n      shl\n      dup2\n      mstore\n      0x04\n      add\n      tag_25\n      swap4\n      swap3\n      swap2\n      swap1\n      tag_26\n      jump\t// in\n    tag_25:\n      0x20\n      mload(0x40)\n      dup1\n      dup4\n      sub\n      dup2\n      dup7\n      gas\n      staticcall\n      iszero\n      dup1\n      iszero\n      tag_28\n      jumpi\n      returndatasize\n      0x00\n      dup1\n      returndatacopy\n      revert(0x00, returndatasize)\n    tag_28:\n      pop\n      pop\n      pop\n      pop\n      mload(0x40)\n      returndatasize\n      not(0x1f)\n      0x1f\n      dup3\n      add\n      and\n      dup3\n      add\n      dup1\n      0x40\n      mstore\n      pop\n      dup2\n      add\n      swap1\n      tag_29\n      swap2\n      swap1\n      tag_30\n      jump\t// in\n    tag_29:\n        /* \"contracts/ArbitragePrice.sol\":883:988  IUniswapV3Pool pool = IUniswapV3Pool(IUniswapV3Factory(dexContractAddress).getPool(tokenA, tokenB, 3000)) */\n      swap1\n      pop\n        /* \"contracts/ArbitragePrice.sol\":1000:1020  uint160 sqrtRatioX96 */\n      0x00\n        /* \"contracts/ArbitragePrice.sol\":1036:1040  pool */\n      dup2\n        /* \"contracts/ArbitragePrice.sol\":1036:1046  pool.slot0 */\n      0xffffffffffffffffffffffffffffffffffffffff\n      and\n      0x3850c7bd\n        /* \"contracts/ArbitragePrice.sol\":1036:1048  pool.slot0() */\n      mload(0x40)\n      dup2\n      0xffffffff\n      and\n      0xe0\n      shl\n      dup2\n      mstore\n      0x04\n      add\n      0xe0\n      mload(0x40)\n      dup1\n      dup4\n      sub\n      dup2\n      dup7\n      gas\n      staticcall\n      iszero\n      dup1\n      iszero\n      tag_32\n      jumpi\n      returndatasize\n      0x00\n      dup1\n      returndatacopy\n      revert(0x00, returndatasize)\n    tag_32:\n      pop\n      pop\n      pop\n      pop\n      mload(0x40)\n      returndatasize\n      not(0x1f)\n      0x1f\n      dup3\n      add\n      and\n      dup3\n      add\n      dup1\n      0x40\n      mstore\n      pop\n      dup2\n      add\n      swap1\n      tag_33\n      swap2\n      swap1\n      tag_34\n      jump\t// in\n    tag_33:\n        /* \"contracts/ArbitragePrice.sol\":999:1048  (uint160 sqrtRatioX96, , , , , , ) = pool.slot0() */\n      pop\n      pop\n      pop\n      pop\n      pop\n      pop\n      swap1\n      pop\n        /* \"contracts/ArbitragePrice.sol\":1059:1096  uint32[] memory convertedSqrtRatioX96 */\n      0x00\n        /* \"contracts/ArbitragePrice.sol\":1099:1112  UintConverter */\n      linkerSymbol(\"6b987ef4b450ce1799bf86fcb8b1f4e805a417370195718df85b7ff022c6e12c\")\n        /* \"contracts/ArbitragePrice.sol\":1099:1126  UintConverter.toUint32Array */\n      0x95fc4af5\n        /* \"contracts/ArbitragePrice.sol\":1127:1139  sqrtRatioX96 */\n      dup4\n        /* \"contracts/ArbitragePrice.sol\":1099:1140  UintConverter.toUint32Array(sqrtRatioX96) */\n      mload(0x40)\n      dup3\n      0xffffffff\n      and\n      0xe0\n      shl\n      dup2\n      mstore\n      0x04\n      add\n      tag_35\n      swap2\n      swap1\n      tag_36\n      jump\t// in\n    tag_35:\n      0x00\n      mload(0x40)\n      dup1\n      dup4\n      sub\n      dup2\n      dup7\n      gas\n      delegatecall\n      iszero\n      dup1\n      iszero\n      tag_38\n      jumpi\n      returndatasize\n      0x00\n      dup1\n      returndatacopy\n      revert(0x00, returndatasize)\n    tag_38:\n      pop\n      pop\n      pop\n      pop\n      mload(0x40)\n      returndatasize\n      0x00\n      dup3\n      returndatacopy\n      returndatasize\n      not(0x1f)\n      0x1f\n      dup3\n      add\n      and\n      dup3\n      add\n      dup1\n      0x40\n      mstore\n      pop\n      dup2\n      add\n      swap1\n      tag_39\n      swap2\n      swap1\n      tag_40\n      jump\t// in\n    tag_39:\n        /* \"contracts/ArbitragePrice.sol\":1059:1140  uint32[] memory convertedSqrtRatioX96 = UintConverter.toUint32Array(sqrtRatioX96) */\n      swap1\n      pop\n        /* \"contracts/ArbitragePrice.sol\":1152:1178  int56[] memory originprice */\n      0x00\n        /* \"contracts/ArbitragePrice.sol\":1184:1188  pool */\n      dup4\n        /* \"contracts/ArbitragePrice.sol\":1184:1196  pool.observe */\n      0xffffffffffffffffffffffffffffffffffffffff\n      and\n      0x883bdbfd\n        /* \"contracts/ArbitragePrice.sol\":1197:1218  convertedSqrtRatioX96 */\n      dup4\n        /* \"contracts/ArbitragePrice.sol\":1184:1219  pool.observe(convertedSqrtRatioX96) */\n      mload(0x40)\n      dup3\n      0xffffffff\n      and\n      0xe0\n      shl\n      dup2\n      mstore\n      0x04\n      add\n      tag_41\n      swap2\n      swap1\n      tag_42\n      jump\t// in\n    tag_41:\n      0x00\n      mload(0x40)\n      dup1\n      dup4\n      sub\n      dup2\n      dup7\n      gas\n      staticcall\n      iszero\n      dup1\n      iszero\n      tag_44\n      jumpi\n      returndatasize\n      0x00\n      dup1\n      returndatacopy\n      revert(0x00, returndatasize)\n    tag_44:\n      pop\n      pop\n      pop\n      pop\n      mload(0x40)\n      returndatasize\n      0x00\n      dup3\n      returndatacopy\n      returndatasize\n      not(0x1f)\n      0x1f\n      dup3\n      add\n      and\n      dup3\n      add\n      dup1\n      0x40\n      mstore\n      pop\n      dup2\n      add\n      swap1\n      tag_45\n      swap2\n      swap1\n      tag_46\n      jump\t// in\n    tag_45:\n        /* \"contracts/ArbitragePrice.sol\":1151:1219  (int56[] memory originprice, ) = pool.observe(convertedSqrtRatioX96) */\n      pop\n      swap1\n      pop\n        /* \"contracts/ArbitragePrice.sol\":1230:1243  uint256 price */\n      0x00\n        /* \"contracts/ArbitragePrice.sol\":1246:1259  UintConverter */\n      linkerSymbol(\"6b987ef4b450ce1799bf86fcb8b1f4e805a417370195718df85b7ff022c6e12c\")\n        /* \"contracts/ArbitragePrice.sol\":1246:1272  UintConverter.convertToInt */\n      0x6022bb7b\n        /* \"contracts/ArbitragePrice.sol\":1273:1284  originprice */\n      dup4\n        /* \"contracts/ArbitragePrice.sol\":1246:1285  UintConverter.convertToInt(originprice) */\n      mload(0x40)\n      dup3\n      0xffffffff\n      and\n      0xe0\n      shl\n      dup2\n      mstore\n      0x04\n      add\n      tag_47\n      swap2\n      swap1\n      tag_48\n      jump\t// in\n    tag_47:\n      0x20\n      mload(0x40)\n      dup1\n      dup4\n      sub\n      dup2\n      dup7\n      gas\n      delegatecall\n      iszero\n      dup1\n      iszero\n      tag_50\n      jumpi\n      returndatasize\n      0x00\n      dup1\n      returndatacopy\n      revert(0x00, returndatasize)\n    tag_50:\n      pop\n      pop\n      pop\n      pop\n      mload(0x40)\n      returndatasize\n      not(0x1f)\n      0x1f\n      dup3\n      add\n      and\n      dup3\n      add\n      dup1\n      0x40\n      mstore\n      pop\n      dup2\n      add\n      swap1\n      tag_51\n      swap2\n      swap1\n      tag_52\n      jump\t// in\n    tag_51:\n        /* \"contracts/ArbitragePrice.sol\":1230:1285  uint256 price = UintConverter.convertToInt(originprice) */\n      swap1\n      pop\n        /* \"contracts/ArbitragePrice.sol\":1296:1313  uint256 timestamp */\n      0x00\n        /* \"contracts/ArbitragePrice.sol\":1316:1331  block.timestamp */\n      timestamp\n        /* \"contracts/ArbitragePrice.sol\":1296:1331  uint256 timestamp = block.timestamp */\n      swap1\n      pop\n        /* \"contracts/ArbitragePrice.sol\":1394:1417  Price(price, timestamp) */\n      mload(0x40)\n      dup1\n      0x40\n      add\n      0x40\n      mstore\n      dup1\n        /* \"contracts/ArbitragePrice.sol\":1400:1405  price */\n      dup4\n        /* \"contracts/ArbitragePrice.sol\":1394:1417  Price(price, timestamp) */\n      dup2\n      mstore\n      0x20\n      add\n        /* \"contracts/ArbitragePrice.sol\":1407:1416  timestamp */\n      dup3\n        /* \"contracts/ArbitragePrice.sol\":1394:1417  Price(price, timestamp) */\n      dup2\n      mstore\n      pop\n        /* \"contracts/ArbitragePrice.sol\":1369:1375  prices */\n      0x00\n        /* \"contracts/ArbitragePrice.sol\":1369:1383  prices[tokenA] */\n      dup1\n        /* \"contracts/ArbitragePrice.sol\":1376:1382  tokenA */\n      dup12\n        /* \"contracts/ArbitragePrice.sol\":1369:1383  prices[tokenA] */\n      0xffffffffffffffffffffffffffffffffffffffff\n      and\n      0xffffffffffffffffffffffffffffffffffffffff\n      and\n      dup2\n      mstore\n      0x20\n      add\n      swap1\n      dup2\n      mstore\n      0x20\n      add\n      0x00\n      keccak256\n        /* \"contracts/ArbitragePrice.sol\":1369:1391  prices[tokenA][tokenB] */\n      0x00\n        /* \"contracts/ArbitragePrice.sol\":1384:1390  tokenB */\n      dup11\n        /* \"contracts/ArbitragePrice.sol\":1369:1391  prices[tokenA][tokenB] */\n      0xffffffffffffffffffffffffffffffffffffffff\n      and\n      0xffffffffffffffffffffffffffffffffffffffff\n      and\n      dup2\n      mstore\n      0x20\n      add\n      swap1\n      dup2\n      mstore\n      0x20\n      add\n      0x00\n      keccak256\n        /* \"contracts/ArbitragePrice.sol\":1369:1417  prices[tokenA][tokenB] = Price(price, timestamp) */\n      0x00\n      dup3\n      add\n      mload\n      dup2\n      0x00\n      add\n      sstore\n      0x20\n      dup3\n      add\n      mload\n      dup2\n      0x01\n      add\n      sstore\n      swap1\n      pop\n      pop\n        /* \"contracts/ArbitragePrice.sol\":872:1425  {... */\n      pop\n      pop\n      pop\n      pop\n      pop\n      pop\n        /* \"contracts/ArbitragePrice.sol\":786:1425  function setPrice(address tokenA, address tokenB,address dexContractAddress) external {... */\n      pop\n      pop\n      pop\n      jump\t// out\n        /* \"contracts/ArbitragePrice.sol\":1463:1907  function setChainlinkPrice(address tokenA, address tokenB, address aggregator) external {... */\n    tag_19:\n        /* \"contracts/ArbitragePrice.sol\":1610:1641  AggregatorV3Interface priceFeed */\n      0x00\n        /* \"contracts/ArbitragePrice.sol\":1666:1676  aggregator */\n      dup2\n        /* \"contracts/ArbitragePrice.sol\":1610:1677  AggregatorV3Interface priceFeed = AggregatorV3Interface(aggregator) */\n      swap1\n      pop\n        /* \"contracts/ArbitragePrice.sol\":1728:1740  uint80 price */\n      0x00\n        /* \"contracts/ArbitragePrice.sol\":1742:1758  int256 timestamp */\n      dup1\n        /* \"contracts/ArbitragePrice.sol\":1768:1777  priceFeed */\n      dup3\n        /* \"contracts/ArbitragePrice.sol\":1768:1793  priceFeed.latestRoundData */\n      0xffffffffffffffffffffffffffffffffffffffff\n      and\n      0xfeaf968c\n        /* \"contracts/ArbitragePrice.sol\":1768:1795  priceFeed.latestRoundData() */\n      mload(0x40)\n      dup2\n      0xffffffff\n      and\n      0xe0\n      shl\n      dup2\n      mstore\n      0x04\n      add\n      0xa0\n      mload(0x40)\n      dup1\n      dup4\n      sub\n      dup2\n      dup7\n      gas\n      staticcall\n      iszero\n      dup1\n      iszero\n      tag_55\n      jumpi\n      returndatasize\n      0x00\n      dup1\n      returndatacopy\n      revert(0x00, returndatasize)\n    tag_55:\n      pop\n      pop\n      pop\n      pop\n      mload(0x40)\n      returndatasize\n      not(0x1f)\n      0x1f\n      dup3\n      add\n      and\n      dup3\n      add\n      dup1\n      0x40\n      mstore\n      pop\n      dup2\n      add\n      swap1\n      tag_56\n      swap2\n      swap1\n      tag_57\n      jump\t// in\n    tag_56:\n        /* \"contracts/ArbitragePrice.sol\":1727:1795  (uint80 price, int256 timestamp, , , ) = priceFeed.latestRoundData() */\n      pop\n      pop\n      pop\n      swap2\n      pop\n      swap2\n      pop\n        /* \"contracts/ArbitragePrice.sol\":1858:1899  Price(uint256(price), uint256(timestamp)) */\n      mload(0x40)\n      dup1\n      0x40\n      add\n      0x40\n      mstore\n      dup1\n        /* \"contracts/ArbitragePrice.sol\":1872:1877  price */\n      dup4\n        /* \"contracts/ArbitragePrice.sol\":1864:1878  uint256(price) */\n      0xffffffffffffffffffff\n      and\n        /* \"contracts/ArbitragePrice.sol\":1858:1899  Price(uint256(price), uint256(timestamp)) */\n      dup2\n      mstore\n      0x20\n      add\n        /* \"contracts/ArbitragePrice.sol\":1888:1897  timestamp */\n      dup3\n        /* \"contracts/ArbitragePrice.sol\":1858:1899  Price(uint256(price), uint256(timestamp)) */\n      dup2\n      mstore\n      pop\n        /* \"contracts/ArbitragePrice.sol\":1833:1839  prices */\n      0x00\n        /* \"contracts/ArbitragePrice.sol\":1833:1847  prices[tokenA] */\n      dup1\n        /* \"contracts/ArbitragePrice.sol\":1840:1846  tokenA */\n      dup9\n        /* \"contracts/ArbitragePrice.sol\":1833:1847  prices[tokenA] */\n      0xffffffffffffffffffffffffffffffffffffffff\n      and\n      0xffffffffffffffffffffffffffffffffffffffff\n      and\n      dup2\n      mstore\n      0x20\n      add\n      swap1\n      dup2\n      mstore\n      0x20\n      add\n      0x00\n      keccak256\n        /* \"contracts/ArbitragePrice.sol\":1833:1855  prices[tokenA][tokenB] */\n      0x00\n        /* \"contracts/ArbitragePrice.sol\":1848:1854  tokenB */\n      dup8\n        /* \"contracts/ArbitragePrice.sol\":1833:1855  prices[tokenA][tokenB] */\n      0xffffffffffffffffffffffffffffffffffffffff\n      and\n      0xffffffffffffffffffffffffffffffffffffffff\n      and\n      dup2\n      mstore\n      0x20\n      add\n      swap1\n      dup2\n      mstore\n      0x20\n      add\n      0x00\n      keccak256\n        /* \"contracts/ArbitragePrice.sol\":1833:1899  prices[tokenA][tokenB] = Price(uint256(price), uint256(timestamp)) */\n      0x00\n      dup3\n      add\n      mload\n      dup2\n      0x00\n      add\n      sstore\n      0x20\n      dup3\n      add\n      mload\n      dup2\n      0x01\n      add\n      sstore\n      swap1\n      pop\n      pop\n        /* \"contracts/ArbitragePrice.sol\":1551:1907  {... */\n      pop\n      pop\n      pop\n        /* \"contracts/ArbitragePrice.sol\":1463:1907  function setChainlinkPrice(address tokenA, address tokenB, address aggregator) external {... */\n      pop\n      pop\n      pop\n      jump\t// out\n        /* \"contracts/ArbitragePrice.sol\":1936:2259  function getPrice(address tokenA, address tokenB) external view returns (uint256, uint256) {... */\n    tag_22:\n        /* \"contracts/ArbitragePrice.sol\":2009:2016  uint256 */\n      0x00\n        /* \"contracts/ArbitragePrice.sol\":2018:2025  uint256 */\n      dup1\n        /* \"contracts/ArbitragePrice.sol\":2063:2081  Price memory price */\n      0x00\n        /* \"contracts/ArbitragePrice.sol\":2084:2090  prices */\n      dup1\n        /* \"contracts/ArbitragePrice.sol\":2084:2098  prices[tokenA] */\n      0x00\n        /* \"contracts/ArbitragePrice.sol\":2091:2097  tokenA */\n      dup7\n        /* \"contracts/ArbitragePrice.sol\":2084:2098  prices[tokenA] */\n      0xffffffffffffffffffffffffffffffffffffffff\n      and\n      0xffffffffffffffffffffffffffffffffffffffff\n      and\n      dup2\n      mstore\n      0x20\n      add\n      swap1\n      dup2\n      mstore\n      0x20\n      add\n      0x00\n      keccak256\n        /* \"contracts/ArbitragePrice.sol\":2084:2106  prices[tokenA][tokenB] */\n      0x00\n        /* \"contracts/ArbitragePrice.sol\":2099:2105  tokenB */\n      dup6\n        /* \"contracts/ArbitragePrice.sol\":2084:2106  prices[tokenA][tokenB] */\n      0xffffffffffffffffffffffffffffffffffffffff\n      and\n      0xffffffffffffffffffffffffffffffffffffffff\n      and\n      dup2\n      mstore\n      0x20\n      add\n      swap1\n      dup2\n      mstore\n      0x20\n      add\n      0x00\n      keccak256\n        /* \"contracts/ArbitragePrice.sol\":2063:2106  Price memory price = prices[tokenA][tokenB] */\n      mload(0x40)\n      dup1\n      0x40\n      add\n      0x40\n      mstore\n      swap1\n      dup2\n      0x00\n      dup3\n      add\n      sload\n      dup2\n      mstore\n      0x20\n      add\n      0x01\n      dup3\n      add\n      sload\n      dup2\n      mstore\n      pop\n      pop\n      swap1\n      pop\n        /* \"contracts/ArbitragePrice.sol\":2143:2144  0 */\n      0x00\n        /* \"contracts/ArbitragePrice.sol\":2125:2130  price */\n      dup2\n        /* \"contracts/ArbitragePrice.sol\":2125:2140  price.timestamp */\n      0x20\n      add\n      mload\n        /* \"contracts/ArbitragePrice.sol\":2125:2144  price.timestamp > 0 */\n      gt\n        /* \"contracts/ArbitragePrice.sol\":2117:2164  require(price.timestamp > 0, \"Price not found\") */\n      tag_59\n      jumpi\n      mload(0x40)\n      0x08c379a000000000000000000000000000000000000000000000000000000000\n      dup2\n      mstore\n      0x04\n      add\n      tag_60\n      swap1\n      tag_61\n      jump\t// in\n    tag_60:\n      mload(0x40)\n      dup1\n      swap2\n      sub\n      swap1\n      revert\n    tag_59:\n        /* \"contracts/ArbitragePrice.sol\":2222:2227  price */\n      dup1\n        /* \"contracts/ArbitragePrice.sol\":2222:2233  price.price */\n      0x00\n      add\n      mload\n        /* \"contracts/ArbitragePrice.sol\":2235:2240  price */\n      dup2\n        /* \"contracts/ArbitragePrice.sol\":2235:2250  price.timestamp */\n      0x20\n      add\n      mload\n        /* \"contracts/ArbitragePrice.sol\":2214:2251  return (price.price, price.timestamp) */\n      swap3\n      pop\n      swap3\n      pop\n      pop\n        /* \"contracts/ArbitragePrice.sol\":1936:2259  function getPrice(address tokenA, address tokenB) external view returns (uint256, uint256) {... */\n      swap3\n      pop\n      swap3\n      swap1\n      pop\n      jump\t// out\n        /* \"#utility.yul\":7:82   */\n    tag_62:\n        /* \"#utility.yul\":40:46   */\n      0x00\n        /* \"#utility.yul\":73:75   */\n      0x40\n        /* \"#utility.yul\":67:76   */\n      mload\n        /* \"#utility.yul\":57:76   */\n      swap1\n      pop\n        /* \"#utility.yul\":7:82   */\n      swap1\n      jump\t// out\n        /* \"#utility.yul\":88:205   */\n    tag_63:\n        /* \"#utility.yul\":197:198   */\n      0x00\n        /* \"#utility.yul\":194:195   */\n      dup1\n        /* \"#utility.yul\":187:199   */\n      revert\n        /* \"#utility.yul\":211:328   */\n    tag_64:\n        /* \"#utility.yul\":320:321   */\n      0x00\n        /* \"#utility.yul\":317:318   */\n      dup1\n        /* \"#utility.yul\":310:322   */\n      revert\n        /* \"#utility.yul\":334:460   */\n    tag_65:\n        /* \"#utility.yul\":371:378   */\n      0x00\n        /* \"#utility.yul\":411:453   */\n      0xffffffffffffffffffffffffffffffffffffffff\n        /* \"#utility.yul\":404:409   */\n      dup3\n        /* \"#utility.yul\":400:454   */\n      and\n        /* \"#utility.yul\":389:454   */\n      swap1\n      pop\n        /* \"#utility.yul\":334:460   */\n      swap2\n      swap1\n      pop\n      jump\t// out\n        /* \"#utility.yul\":466:562   */\n    tag_66:\n        /* \"#utility.yul\":503:510   */\n      0x00\n        /* \"#utility.yul\":532:556   */\n      tag_145\n        /* \"#utility.yul\":550:555   */\n      dup3\n        /* \"#utility.yul\":532:556   */\n      tag_65\n      jump\t// in\n    tag_145:\n        /* \"#utility.yul\":521:556   */\n      swap1\n      pop\n        /* \"#utility.yul\":466:562   */\n      swap2\n      swap1\n      pop\n      jump\t// out\n        /* \"#utility.yul\":568:690   */\n    tag_67:\n        /* \"#utility.yul\":641:665   */\n      tag_147\n        /* \"#utility.yul\":659:664   */\n      dup2\n        /* \"#utility.yul\":641:665   */\n      tag_66\n      jump\t// in\n    tag_147:\n        /* \"#utility.yul\":634:639   */\n      dup2\n        /* \"#utility.yul\":631:666   */\n      eq\n        /* \"#utility.yul\":621:684   */\n      tag_148\n      jumpi\n        /* \"#utility.yul\":680:681   */\n      0x00\n        /* \"#utility.yul\":677:678   */\n      dup1\n        /* \"#utility.yul\":670:682   */\n      revert\n        /* \"#utility.yul\":621:684   */\n    tag_148:\n        /* \"#utility.yul\":568:690   */\n      pop\n      jump\t// out\n        /* \"#utility.yul\":696:835   */\n    tag_68:\n        /* \"#utility.yul\":742:747   */\n      0x00\n        /* \"#utility.yul\":780:786   */\n      dup2\n        /* \"#utility.yul\":767:787   */\n      calldataload\n        /* \"#utility.yul\":758:787   */\n      swap1\n      pop\n        /* \"#utility.yul\":796:829   */\n      tag_150\n        /* \"#utility.yul\":823:828   */\n      dup2\n        /* \"#utility.yul\":796:829   */\n      tag_67\n      jump\t// in\n    tag_150:\n        /* \"#utility.yul\":696:835   */\n      swap3\n      swap2\n      pop\n      pop\n      jump\t// out\n        /* \"#utility.yul\":841:1315   */\n    tag_9:\n        /* \"#utility.yul\":909:915   */\n      0x00\n        /* \"#utility.yul\":917:923   */\n      dup1\n        /* \"#utility.yul\":966:968   */\n      0x40\n        /* \"#utility.yul\":954:963   */\n      dup4\n        /* \"#utility.yul\":945:952   */\n      dup6\n        /* \"#utility.yul\":941:964   */\n      sub\n        /* \"#utility.yul\":937:969   */\n      slt\n        /* \"#utility.yul\":934:1053   */\n      iszero\n      tag_152\n      jumpi\n        /* \"#utility.yul\":972:1051   */\n      tag_153\n      tag_63\n      jump\t// in\n    tag_153:\n        /* \"#utility.yul\":934:1053   */\n    tag_152:\n        /* \"#utility.yul\":1092:1093   */\n      0x00\n        /* \"#utility.yul\":1117:1170   */\n      tag_154\n        /* \"#utility.yul\":1162:1169   */\n      dup6\n        /* \"#utility.yul\":1153:1159   */\n      dup3\n        /* \"#utility.yul\":1142:1151   */\n      dup7\n        /* \"#utility.yul\":1138:1160   */\n      add\n        /* \"#utility.yul\":1117:1170   */\n      tag_68\n      jump\t// in\n    tag_154:\n        /* \"#utility.yul\":1107:1170   */\n      swap3\n      pop\n        /* \"#utility.yul\":1063:1180   */\n      pop\n        /* \"#utility.yul\":1219:1221   */\n      0x20\n        /* \"#utility.yul\":1245:1298   */\n      tag_155\n        /* \"#utility.yul\":1290:1297   */\n      dup6\n        /* \"#utility.yul\":1281:1287   */\n      dup3\n        /* \"#utility.yul\":1270:1279   */\n      dup7\n        /* \"#utility.yul\":1266:1288   */\n      add\n        /* \"#utility.yul\":1245:1298   */\n      tag_68\n      jump\t// in\n    tag_155:\n        /* \"#utility.yul\":1235:1298   */\n      swap2\n      pop\n        /* \"#utility.yul\":1190:1308   */\n      pop\n        /* \"#utility.yul\":841:1315   */\n      swap3\n      pop\n      swap3\n      swap1\n      pop\n      jump\t// out\n        /* \"#utility.yul\":1321:1398   */\n    tag_69:\n        /* \"#utility.yul\":1358:1365   */\n      0x00\n        /* \"#utility.yul\":1387:1392   */\n      dup2\n        /* \"#utility.yul\":1376:1392   */\n      swap1\n      pop\n        /* \"#utility.yul\":1321:1398   */\n      swap2\n      swap1\n      pop\n      jump\t// out\n        /* \"#utility.yul\":1404:1522   */\n    tag_70:\n        /* \"#utility.yul\":1491:1515   */\n      tag_158\n        /* \"#utility.yul\":1509:1514   */\n      dup2\n        /* \"#utility.yul\":1491:1515   */\n      tag_69\n      jump\t// in\n    tag_158:\n        /* \"#utility.yul\":1486:1489   */\n      dup3\n        /* \"#utility.yul\":1479:1516   */\n      mstore\n        /* \"#utility.yul\":1404:1522   */\n      pop\n      pop\n      jump\t// out\n        /* \"#utility.yul\":1528:1860   */\n    tag_12:\n        /* \"#utility.yul\":1649:1653   */\n      0x00\n        /* \"#utility.yul\":1687:1689   */\n      0x40\n        /* \"#utility.yul\":1676:1685   */\n      dup3\n        /* \"#utility.yul\":1672:1690   */\n      add\n        /* \"#utility.yul\":1664:1690   */\n      swap1\n      pop\n        /* \"#utility.yul\":1700:1771   */\n      tag_160\n        /* \"#utility.yul\":1768:1769   */\n      0x00\n        /* \"#utility.yul\":1757:1766   */\n      dup4\n        /* \"#utility.yul\":1753:1770   */\n      add\n        /* \"#utility.yul\":1744:1750   */\n      dup6\n        /* \"#utility.yul\":1700:1771   */\n      tag_70\n      jump\t// in\n    tag_160:\n        /* \"#utility.yul\":1781:1853   */\n      tag_161\n        /* \"#utility.yul\":1849:1851   */\n      0x20\n        /* \"#utility.yul\":1838:1847   */\n      dup4\n        /* \"#utility.yul\":1834:1852   */\n      add\n        /* \"#utility.yul\":1825:1831   */\n      dup5\n        /* \"#utility.yul\":1781:1853   */\n      tag_70\n      jump\t// in\n    tag_161:\n        /* \"#utility.yul\":1528:1860   */\n      swap4\n      swap3\n      pop\n      pop\n      pop\n      jump\t// out\n        /* \"#utility.yul\":1866:2485   */\n    tag_15:\n        /* \"#utility.yul\":1943:1949   */\n      0x00\n        /* \"#utility.yul\":1951:1957   */\n      dup1\n        /* \"#utility.yul\":1959:1965   */\n      0x00\n        /* \"#utility.yul\":2008:2010   */\n      0x60\n        /* \"#utility.yul\":1996:2005   */\n      dup5\n        /* \"#utility.yul\":1987:1994   */\n      dup7\n        /* \"#utility.yul\":1983:2006   */\n      sub\n        /* \"#utility.yul\":1979:2011   */\n      slt\n        /* \"#utility.yul\":1976:2095   */\n      iszero\n      tag_163\n      jumpi\n        /* \"#utility.yul\":2014:2093   */\n      tag_164\n      tag_63\n      jump\t// in\n    tag_164:\n        /* \"#utility.yul\":1976:2095   */\n    tag_163:\n        /* \"#utility.yul\":2134:2135   */\n      0x00\n        /* \"#utility.yul\":2159:2212   */\n      tag_165\n        /* \"#utility.yul\":2204:2211   */\n      dup7\n        /* \"#utility.yul\":2195:2201   */\n      dup3\n        /* \"#utility.yul\":2184:2193   */\n      dup8\n        /* \"#utility.yul\":2180:2202   */\n      add\n        /* \"#utility.yul\":2159:2212   */\n      tag_68\n      jump\t// in\n    tag_165:\n        /* \"#utility.yul\":2149:2212   */\n      swap4\n      pop\n        /* \"#utility.yul\":2105:2222   */\n      pop\n        /* \"#utility.yul\":2261:2263   */\n      0x20\n        /* \"#utility.yul\":2287:2340   */\n      tag_166\n        /* \"#utility.yul\":2332:2339   */\n      dup7\n        /* \"#utility.yul\":2323:2329   */\n      dup3\n        /* \"#utility.yul\":2312:2321   */\n      dup8\n        /* \"#utility.yul\":2308:2330   */\n      add\n        /* \"#utility.yul\":2287:2340   */\n      tag_68\n      jump\t// in\n    tag_166:\n        /* \"#utility.yul\":2277:2340   */\n      swap3\n      pop\n        /* \"#utility.yul\":2232:2350   */\n      pop\n        /* \"#utility.yul\":2389:2391   */\n      0x40\n        /* \"#utility.yul\":2415:2468   */\n      tag_167\n        /* \"#utility.yul\":2460:2467   */\n      dup7\n        /* \"#utility.yul\":2451:2457   */\n      dup3\n        /* \"#utility.yul\":2440:2449   */\n      dup8\n        /* \"#utility.yul\":2436:2458   */\n      add\n        /* \"#utility.yul\":2415:2468   */\n      tag_68\n      jump\t// in\n    tag_167:\n        /* \"#utility.yul\":2405:2468   */\n      swap2\n      pop\n        /* \"#utility.yul\":2360:2478   */\n      pop\n        /* \"#utility.yul\":1866:2485   */\n      swap3\n      pop\n      swap3\n      pop\n      swap3\n      jump\t// out\n        /* \"#utility.yul\":2491:2609   */\n    tag_71:\n        /* \"#utility.yul\":2578:2602   */\n      tag_169\n        /* \"#utility.yul\":2596:2601   */\n      dup2\n        /* \"#utility.yul\":2578:2602   */\n      tag_66\n      jump\t// in\n    tag_169:\n        /* \"#utility.yul\":2573:2576   */\n      dup3\n        /* \"#utility.yul\":2566:2603   */\n      mstore\n        /* \"#utility.yul\":2491:2609   */\n      pop\n      pop\n      jump\t// out\n        /* \"#utility.yul\":2615:2703   */\n    tag_72:\n        /* \"#utility.yul\":2663:2670   */\n      0x00\n        /* \"#utility.yul\":2692:2697   */\n      dup2\n        /* \"#utility.yul\":2681:2697   */\n      swap1\n      pop\n        /* \"#utility.yul\":2615:2703   */\n      swap2\n      swap1\n      pop\n      jump\t// out\n        /* \"#utility.yul\":2709:2800   */\n    tag_73:\n        /* \"#utility.yul\":2745:2752   */\n      0x00\n        /* \"#utility.yul\":2785:2793   */\n      0xffffff\n        /* \"#utility.yul\":2778:2783   */\n      dup3\n        /* \"#utility.yul\":2774:2794   */\n      and\n        /* \"#utility.yul\":2763:2794   */\n      swap1\n      pop\n        /* \"#utility.yul\":2709:2800   */\n      swap2\n      swap1\n      pop\n      jump\t// out\n        /* \"#utility.yul\":2806:2866   */\n    tag_74:\n        /* \"#utility.yul\":2834:2837   */\n      0x00\n        /* \"#utility.yul\":2855:2860   */\n      dup2\n        /* \"#utility.yul\":2848:2860   */\n      swap1\n      pop\n        /* \"#utility.yul\":2806:2866   */\n      swap2\n      swap1\n      pop\n      jump\t// out\n        /* \"#utility.yul\":2872:3034   */\n    tag_75:\n        /* \"#utility.yul\":2932:2941   */\n      0x00\n        /* \"#utility.yul\":2965:3028   */\n      tag_174\n        /* \"#utility.yul\":2982:3027   */\n      tag_175\n        /* \"#utility.yul\":2991:3026   */\n      tag_176\n        /* \"#utility.yul\":3020:3025   */\n      dup5\n        /* \"#utility.yul\":2991:3026   */\n      tag_72\n      jump\t// in\n    tag_176:\n        /* \"#utility.yul\":2982:3027   */\n      tag_74\n      jump\t// in\n    tag_175:\n        /* \"#utility.yul\":2965:3028   */\n      tag_73\n      jump\t// in\n    tag_174:\n        /* \"#utility.yul\":2952:3028   */\n      swap1\n      pop\n        /* \"#utility.yul\":2872:3034   */\n      swap2\n      swap1\n      pop\n      jump\t// out\n        /* \"#utility.yul\":3040:3191   */\n    tag_76:\n        /* \"#utility.yul\":3137:3184   */\n      tag_178\n        /* \"#utility.yul\":3178:3183   */\n      dup2\n        /* \"#utility.yul\":3137:3184   */\n      tag_75\n      jump\t// in\n    tag_178:\n        /* \"#utility.yul\":3132:3135   */\n      dup3\n        /* \"#utility.yul\":3125:3185   */\n      mstore\n        /* \"#utility.yul\":3040:3191   */\n      pop\n      pop\n      jump\t// out\n        /* \"#utility.yul\":3197:3659   */\n    tag_26:\n        /* \"#utility.yul\":3356:3360   */\n      0x00\n        /* \"#utility.yul\":3394:3396   */\n      0x60\n        /* \"#utility.yul\":3383:3392   */\n      dup3\n        /* \"#utility.yul\":3379:3397   */\n      add\n        /* \"#utility.yul\":3371:3397   */\n      swap1\n      pop\n        /* \"#utility.yul\":3407:3478   */\n      tag_180\n        /* \"#utility.yul\":3475:3476   */\n      0x00\n        /* \"#utility.yul\":3464:3473   */\n      dup4\n        /* \"#utility.yul\":3460:3477   */\n      add\n        /* \"#utility.yul\":3451:3457   */\n      dup7\n        /* \"#utility.yul\":3407:3478   */\n      tag_71\n      jump\t// in\n    tag_180:\n        /* \"#utility.yul\":3488:3560   */\n      tag_181\n        /* \"#utility.yul\":3556:3558   */\n      0x20\n        /* \"#utility.yul\":3545:3554   */\n      dup4\n        /* \"#utility.yul\":3541:3559   */\n      add\n        /* \"#utility.yul\":3532:3538   */\n      dup6\n        /* \"#utility.yul\":3488:3560   */\n      tag_71\n      jump\t// in\n    tag_181:\n        /* \"#utility.yul\":3570:3652   */\n      tag_182\n        /* \"#utility.yul\":3648:3650   */\n      0x40\n        /* \"#utility.yul\":3637:3646   */\n      dup4\n        /* \"#utility.yul\":3633:3651   */\n      add\n        /* \"#utility.yul\":3624:3630   */\n      dup5\n        /* \"#utility.yul\":3570:3652   */\n      tag_76\n      jump\t// in\n    tag_182:\n        /* \"#utility.yul\":3197:3659   */\n      swap5\n      swap4\n      pop\n      pop\n      pop\n      pop\n      jump\t// out\n        /* \"#utility.yul\":3665:3808   */\n    tag_77:\n        /* \"#utility.yul\":3722:3727   */\n      0x00\n        /* \"#utility.yul\":3753:3759   */\n      dup2\n        /* \"#utility.yul\":3747:3760   */\n      mload\n        /* \"#utility.yul\":3738:3760   */\n      swap1\n      pop\n        /* \"#utility.yul\":3769:3802   */\n      tag_184\n        /* \"#utility.yul\":3796:3801   */\n      dup2\n        /* \"#utility.yul\":3769:3802   */\n      tag_67\n      jump\t// in\n    tag_184:\n        /* \"#utility.yul\":3665:3808   */\n      swap3\n      swap2\n      pop\n      pop\n      jump\t// out\n        /* \"#utility.yul\":3814:4165   */\n    tag_30:\n        /* \"#utility.yul\":3884:3890   */\n      0x00\n        /* \"#utility.yul\":3933:3935   */\n      0x20\n        /* \"#utility.yul\":3921:3930   */\n      dup3\n        /* \"#utility.yul\":3912:3919   */\n      dup5\n        /* \"#utility.yul\":3908:3931   */\n      sub\n        /* \"#utility.yul\":3904:3936   */\n      slt\n        /* \"#utility.yul\":3901:4020   */\n      iszero\n      tag_186\n      jumpi\n        /* \"#utility.yul\":3939:4018   */\n      tag_187\n      tag_63\n      jump\t// in\n    tag_187:\n        /* \"#utility.yul\":3901:4020   */\n    tag_186:\n        /* \"#utility.yul\":4059:4060   */\n      0x00\n        /* \"#utility.yul\":4084:4148   */\n      tag_188\n        /* \"#utility.yul\":4140:4147   */\n      dup5\n        /* \"#utility.yul\":4131:4137   */\n      dup3\n        /* \"#utility.yul\":4120:4129   */\n      dup6\n        /* \"#utility.yul\":4116:4138   */\n      add\n        /* \"#utility.yul\":4084:4148   */\n      tag_77\n      jump\t// in\n    tag_188:\n        /* \"#utility.yul\":4074:4148   */\n      swap2\n      pop\n        /* \"#utility.yul\":4030:4158   */\n      pop\n        /* \"#utility.yul\":3814:4165   */\n      swap3\n      swap2\n      pop\n      pop\n      jump\t// out\n        /* \"#utility.yul\":4171:4293   */\n    tag_78:\n        /* \"#utility.yul\":4244:4268   */\n      tag_190\n        /* \"#utility.yul\":4262:4267   */\n      dup2\n        /* \"#utility.yul\":4244:4268   */\n      tag_65\n      jump\t// in\n    tag_190:\n        /* \"#utility.yul\":4237:4242   */\n      dup2\n        /* \"#utility.yul\":4234:4269   */\n      eq\n        /* \"#utility.yul\":4224:4287   */\n      tag_191\n      jumpi\n        /* \"#utility.yul\":4283:4284   */\n      0x00\n        /* \"#utility.yul\":4280:4281   */\n      dup1\n        /* \"#utility.yul\":4273:4285   */\n      revert\n        /* \"#utility.yul\":4224:4287   */\n    tag_191:\n        /* \"#utility.yul\":4171:4293   */\n      pop\n      jump\t// out\n        /* \"#utility.yul\":4299:4442   */\n    tag_79:\n        /* \"#utility.yul\":4356:4361   */\n      0x00\n        /* \"#utility.yul\":4387:4393   */\n      dup2\n        /* \"#utility.yul\":4381:4394   */\n      mload\n        /* \"#utility.yul\":4372:4394   */\n      swap1\n      pop\n        /* \"#utility.yul\":4403:4436   */\n      tag_193\n        /* \"#utility.yul\":4430:4435   */\n      dup2\n        /* \"#utility.yul\":4403:4436   */\n      tag_78\n      jump\t// in\n    tag_193:\n        /* \"#utility.yul\":4299:4442   */\n      swap3\n      swap2\n      pop\n      pop\n      jump\t// out\n        /* \"#utility.yul\":4448:4538   */\n    tag_80:\n        /* \"#utility.yul\":4483:4490   */\n      0x00\n        /* \"#utility.yul\":4526:4531   */\n      dup2\n        /* \"#utility.yul\":4523:4524   */\n      0x02\n        /* \"#utility.yul\":4512:4532   */\n      signextend\n        /* \"#utility.yul\":4501:4532   */\n      swap1\n      pop\n        /* \"#utility.yul\":4448:4538   */\n      swap2\n      swap1\n      pop\n      jump\t// out\n        /* \"#utility.yul\":4544:4662   */\n    tag_81:\n        /* \"#utility.yul\":4615:4637   */\n      tag_196\n        /* \"#utility.yul\":4631:4636   */\n      dup2\n        /* \"#utility.yul\":4615:4637   */\n      tag_80\n      jump\t// in\n    tag_196:\n        /* \"#utility.yul\":4608:4613   */\n      dup2\n        /* \"#utility.yul\":4605:4638   */\n      eq\n        /* \"#utility.yul\":4595:4656   */\n      tag_197\n      jumpi\n        /* \"#utility.yul\":4652:4653   */\n      0x00\n        /* \"#utility.yul\":4649:4650   */\n      dup1\n        /* \"#utility.yul\":4642:4654   */\n      revert\n        /* \"#utility.yul\":4595:4656   */\n    tag_197:\n        /* \"#utility.yul\":4544:4662   */\n      pop\n      jump\t// out\n        /* \"#utility.yul\":4668:4807   */\n    tag_82:\n        /* \"#utility.yul\":4723:4728   */\n      0x00\n        /* \"#utility.yul\":4754:4760   */\n      dup2\n        /* \"#utility.yul\":4748:4761   */\n      mload\n        /* \"#utility.yul\":4739:4761   */\n      swap1\n      pop\n        /* \"#utility.yul\":4770:4801   */\n      tag_199\n        /* \"#utility.yul\":4795:4800   */\n      dup2\n        /* \"#utility.yul\":4770:4801   */\n      tag_81\n      jump\t// in\n    tag_199:\n        /* \"#utility.yul\":4668:4807   */\n      swap3\n      swap2\n      pop\n      pop\n      jump\t// out\n        /* \"#utility.yul\":4813:4902   */\n    tag_83:\n        /* \"#utility.yul\":4849:4856   */\n      0x00\n        /* \"#utility.yul\":4889:4895   */\n      0xffff\n        /* \"#utility.yul\":4882:4887   */\n      dup3\n        /* \"#utility.yul\":4878:4896   */\n      and\n        /* \"#utility.yul\":4867:4896   */\n      swap1\n      pop\n        /* \"#utility.yul\":4813:4902   */\n      swap2\n      swap1\n      pop\n      jump\t// out\n        /* \"#utility.yul\":4908:5028   */\n    tag_84:\n        /* \"#utility.yul\":4980:5003   */\n      tag_202\n        /* \"#utility.yul\":4997:5002   */\n      dup2\n        /* \"#utility.yul\":4980:5003   */\n      tag_83\n      jump\t// in\n    tag_202:\n        /* \"#utility.yul\":4973:4978   */\n      dup2\n        /* \"#utility.yul\":4970:5004   */\n      eq\n        /* \"#utility.yul\":4960:5022   */\n      tag_203\n      jumpi\n        /* \"#utility.yul\":5018:5019   */\n      0x00\n        /* \"#utility.yul\":5015:5016   */\n      dup1\n        /* \"#utility.yul\":5008:5020   */\n      revert\n        /* \"#utility.yul\":4960:5022   */\n    tag_203:\n        /* \"#utility.yul\":4908:5028   */\n      pop\n      jump\t// out\n        /* \"#utility.yul\":5034:5175   */\n    tag_85:\n        /* \"#utility.yul\":5090:5095   */\n      0x00\n        /* \"#utility.yul\":5121:5127   */\n      dup2\n        /* \"#utility.yul\":5115:5128   */\n      mload\n        /* \"#utility.yul\":5106:5128   */\n      swap1\n      pop\n        /* \"#utility.yul\":5137:5169   */\n      tag_205\n        /* \"#utility.yul\":5163:5168   */\n      dup2\n        /* \"#utility.yul\":5137:5169   */\n      tag_84\n      jump\t// in\n    tag_205:\n        /* \"#utility.yul\":5034:5175   */\n      swap3\n      swap2\n      pop\n      pop\n      jump\t// out\n        /* \"#utility.yul\":5181:5267   */\n    tag_86:\n        /* \"#utility.yul\":5216:5223   */\n      0x00\n        /* \"#utility.yul\":5256:5260   */\n      0xff\n        /* \"#utility.yul\":5249:5254   */\n      dup3\n        /* \"#utility.yul\":5245:5261   */\n      and\n        /* \"#utility.yul\":5234:5261   */\n      swap1\n      pop\n        /* \"#utility.yul\":5181:5267   */\n      swap2\n      swap1\n      pop\n      jump\t// out\n        /* \"#utility.yul\":5273:5391   */\n    tag_87:\n        /* \"#utility.yul\":5344:5366   */\n      tag_208\n        /* \"#utility.yul\":5360:5365   */\n      dup2\n        /* \"#utility.yul\":5344:5366   */\n      tag_86\n      jump\t// in\n    tag_208:\n        /* \"#utility.yul\":5337:5342   */\n      dup2\n        /* \"#utility.yul\":5334:5367   */\n      eq\n        /* \"#utility.yul\":5324:5385   */\n      tag_209\n      jumpi\n        /* \"#utility.yul\":5381:5382   */\n      0x00\n        /* \"#utility.yul\":5378:5379   */\n      dup1\n        /* \"#utility.yul\":5371:5383   */\n      revert\n        /* \"#utility.yul\":5324:5385   */\n    tag_209:\n        /* \"#utility.yul\":5273:5391   */\n      pop\n      jump\t// out\n        /* \"#utility.yul\":5397:5536   */\n    tag_88:\n        /* \"#utility.yul\":5452:5457   */\n      0x00\n        /* \"#utility.yul\":5483:5489   */\n      dup2\n        /* \"#utility.yul\":5477:5490   */\n      mload\n        /* \"#utility.yul\":5468:5490   */\n      swap1\n      pop\n        /* \"#utility.yul\":5499:5530   */\n      tag_211\n        /* \"#utility.yul\":5524:5529   */\n      dup2\n        /* \"#utility.yul\":5499:5530   */\n      tag_87\n      jump\t// in\n    tag_211:\n        /* \"#utility.yul\":5397:5536   */\n      swap3\n      swap2\n      pop\n      pop\n      jump\t// out\n        /* \"#utility.yul\":5542:5632   */\n    tag_89:\n        /* \"#utility.yul\":5576:5583   */\n      0x00\n        /* \"#utility.yul\":5619:5624   */\n      dup2\n        /* \"#utility.yul\":5612:5625   */\n      iszero\n        /* \"#utility.yul\":5605:5626   */\n      iszero\n        /* \"#utility.yul\":5594:5626   */\n      swap1\n      pop\n        /* \"#utility.yul\":5542:5632   */\n      swap2\n      swap1\n      pop\n      jump\t// out\n        /* \"#utility.yul\":5638:5754   */\n    tag_90:\n        /* \"#utility.yul\":5708:5729   */\n      tag_214\n        /* \"#utility.yul\":5723:5728   */\n      dup2\n        /* \"#utility.yul\":5708:5729   */\n      tag_89\n      jump\t// in\n    tag_214:\n        /* \"#utility.yul\":5701:5706   */\n      dup2\n        /* \"#utility.yul\":5698:5730   */\n      eq\n        /* \"#utility.yul\":5688:5748   */\n      tag_215\n      jumpi\n        /* \"#utility.yul\":5744:5745   */\n      0x00\n        /* \"#utility.yul\":5741:5742   */\n      dup1\n        /* \"#utility.yul\":5734:5746   */\n      revert\n        /* \"#utility.yul\":5688:5748   */\n    tag_215:\n        /* \"#utility.yul\":5638:5754   */\n      pop\n      jump\t// out\n        /* \"#utility.yul\":5760:5897   */\n    tag_91:\n        /* \"#utility.yul\":5814:5819   */\n      0x00\n        /* \"#utility.yul\":5845:5851   */\n      dup2\n        /* \"#utility.yul\":5839:5852   */\n      mload\n        /* \"#utility.yul\":5830:5852   */\n      swap1\n      pop\n        /* \"#utility.yul\":5861:5891   */\n      tag_217\n        /* \"#utility.yul\":5885:5890   */\n      dup2\n        /* \"#utility.yul\":5861:5891   */\n      tag_90\n      jump\t// in\n    tag_217:\n        /* \"#utility.yul\":5760:5897   */\n      swap3\n      swap2\n      pop\n      pop\n      jump\t// out\n        /* \"#utility.yul\":5903:7174   */\n    tag_34:\n        /* \"#utility.yul\":6017:6023   */\n      0x00\n        /* \"#utility.yul\":6025:6031   */\n      dup1\n        /* \"#utility.yul\":6033:6039   */\n      0x00\n        /* \"#utility.yul\":6041:6047   */\n      dup1\n        /* \"#utility.yul\":6049:6055   */\n      0x00\n        /* \"#utility.yul\":6057:6063   */\n      dup1\n        /* \"#utility.yul\":6065:6071   */\n      0x00\n        /* \"#utility.yul\":6114:6117   */\n      0xe0\n        /* \"#utility.yul\":6102:6111   */\n      dup9\n        /* \"#utility.yul\":6093:6100   */\n      dup11\n        /* \"#utility.yul\":6089:6112   */\n      sub\n        /* \"#utility.yul\":6085:6118   */\n      slt\n        /* \"#utility.yul\":6082:6202   */\n      iszero\n      tag_219\n      jumpi\n        /* \"#utility.yul\":6121:6200   */\n      tag_220\n      tag_63\n      jump\t// in\n    tag_220:\n        /* \"#utility.yul\":6082:6202   */\n    tag_219:\n        /* \"#utility.yul\":6241:6242   */\n      0x00\n        /* \"#utility.yul\":6266:6330   */\n      tag_221\n        /* \"#utility.yul\":6322:6329   */\n      dup11\n        /* \"#utility.yul\":6313:6319   */\n      dup3\n        /* \"#utility.yul\":6302:6311   */\n      dup12\n        /* \"#utility.yul\":6298:6320   */\n      add\n        /* \"#utility.yul\":6266:6330   */\n      tag_79\n      jump\t// in\n    tag_221:\n        /* \"#utility.yul\":6256:6330   */\n      swap8\n      pop\n        /* \"#utility.yul\":6212:6340   */\n      pop\n        /* \"#utility.yul\":6379:6381   */\n      0x20\n        /* \"#utility.yul\":6405:6467   */\n      tag_222\n        /* \"#utility.yul\":6459:6466   */\n      dup11\n        /* \"#utility.yul\":6450:6456   */\n      dup3\n        /* \"#utility.yul\":6439:6448   */\n      dup12\n        /* \"#utility.yul\":6435:6457   */\n      add\n        /* \"#utility.yul\":6405:6467   */\n      tag_82\n      jump\t// in\n    tag_222:\n        /* \"#utility.yul\":6395:6467   */\n      swap7\n      pop\n        /* \"#utility.yul\":6350:6477   */\n      pop\n        /* \"#utility.yul\":6516:6518   */\n      0x40\n        /* \"#utility.yul\":6542:6605   */\n      tag_223\n        /* \"#utility.yul\":6597:6604   */\n      dup11\n        /* \"#utility.yul\":6588:6594   */\n      dup3\n        /* \"#utility.yul\":6577:6586   */\n      dup12\n        /* \"#utility.yul\":6573:6595   */\n      add\n        /* \"#utility.yul\":6542:6605   */\n      tag_85\n      jump\t// in\n    tag_223:\n        /* \"#utility.yul\":6532:6605   */\n      swap6\n      pop\n        /* \"#utility.yul\":6487:6615   */\n      pop\n        /* \"#utility.yul\":6654:6656   */\n      0x60\n        /* \"#utility.yul\":6680:6743   */\n      tag_224\n        /* \"#utility.yul\":6735:6742   */\n      dup11\n        /* \"#utility.yul\":6726:6732   */\n      dup3\n        /* \"#utility.yul\":6715:6724   */\n      dup12\n        /* \"#utility.yul\":6711:6733   */\n      add\n        /* \"#utility.yul\":6680:6743   */\n      tag_85\n      jump\t// in\n    tag_224:\n        /* \"#utility.yul\":6670:6743   */\n      swap5\n      pop\n        /* \"#utility.yul\":6625:6753   */\n      pop\n        /* \"#utility.yul\":6792:6795   */\n      0x80\n        /* \"#utility.yul\":6819:6882   */\n      tag_225\n        /* \"#utility.yul\":6874:6881   */\n      dup11\n        /* \"#utility.yul\":6865:6871   */\n      dup3\n        /* \"#utility.yul\":6854:6863   */\n      dup12\n        /* \"#utility.yul\":6850:6872   */\n      add\n        /* \"#utility.yul\":6819:6882   */\n      tag_85\n      jump\t// in\n    tag_225:\n        /* \"#utility.yul\":6809:6882   */\n      swap4\n      pop\n        /* \"#utility.yul\":6763:6892   */\n      pop\n        /* \"#utility.yul\":6931:6934   */\n      0xa0\n        /* \"#utility.yul\":6958:7020   */\n      tag_226\n        /* \"#utility.yul\":7012:7019   */\n      dup11\n        /* \"#utility.yul\":7003:7009   */\n      dup3\n        /* \"#utility.yul\":6992:7001   */\n      dup12\n        /* \"#utility.yul\":6988:7010   */\n      add\n        /* \"#utility.yul\":6958:7020   */\n      tag_88\n      jump\t// in\n    tag_226:\n        /* \"#utility.yul\":6948:7020   */\n      swap3\n      pop\n        /* \"#utility.yul\":6902:7030   */\n      pop\n        /* \"#utility.yul\":7069:7072   */\n      0xc0\n        /* \"#utility.yul\":7096:7157   */\n      tag_227\n        /* \"#utility.yul\":7149:7156   */\n      dup11\n        /* \"#utility.yul\":7140:7146   */\n      dup3\n        /* \"#utility.yul\":7129:7138   */\n      dup12\n        /* \"#utility.yul\":7125:7147   */\n      add\n        /* \"#utility.yul\":7096:7157   */\n      tag_91\n      jump\t// in\n    tag_227:\n        /* \"#utility.yul\":7086:7157   */\n      swap2\n      pop\n        /* \"#utility.yul\":7040:7167   */\n      pop\n        /* \"#utility.yul\":5903:7174   */\n      swap3\n      swap6\n      swap9\n      swap2\n      swap5\n      swap8\n      pop\n      swap3\n      swap6\n      pop\n      jump\t// out\n        /* \"#utility.yul\":7180:7306   */\n    tag_92:\n        /* \"#utility.yul\":7275:7299   */\n      tag_229\n        /* \"#utility.yul\":7293:7298   */\n      dup2\n        /* \"#utility.yul\":7275:7299   */\n      tag_65\n      jump\t// in\n    tag_229:\n        /* \"#utility.yul\":7270:7273   */\n      dup3\n        /* \"#utility.yul\":7263:7300   */\n      mstore\n        /* \"#utility.yul\":7180:7306   */\n      pop\n      pop\n      jump\t// out\n        /* \"#utility.yul\":7312:7550   */\n    tag_36:\n        /* \"#utility.yul\":7413:7417   */\n      0x00\n        /* \"#utility.yul\":7451:7453   */\n      0x20\n        /* \"#utility.yul\":7440:7449   */\n      dup3\n        /* \"#utility.yul\":7436:7454   */\n      add\n        /* \"#utility.yul\":7428:7454   */\n      swap1\n      pop\n        /* \"#utility.yul\":7464:7543   */\n      tag_231\n        /* \"#utility.yul\":7540:7541   */\n      0x00\n        /* \"#utility.yul\":7529:7538   */\n      dup4\n        /* \"#utility.yul\":7525:7542   */\n      add\n        /* \"#utility.yul\":7516:7522   */\n      dup5\n        /* \"#utility.yul\":7464:7543   */\n      tag_92\n      jump\t// in\n    tag_231:\n        /* \"#utility.yul\":7312:7550   */\n      swap3\n      swap2\n      pop\n      pop\n      jump\t// out\n        /* \"#utility.yul\":7556:7673   */\n    tag_93:\n        /* \"#utility.yul\":7665:7666   */\n      0x00\n        /* \"#utility.yul\":7662:7663   */\n      dup1\n        /* \"#utility.yul\":7655:7667   */\n      revert\n        /* \"#utility.yul\":7679:7781   */\n    tag_94:\n        /* \"#utility.yul\":7720:7726   */\n      0x00\n        /* \"#utility.yul\":7771:7773   */\n      0x1f\n        /* \"#utility.yul\":7767:7774   */\n      not\n        /* \"#utility.yul\":7762:7764   */\n      0x1f\n        /* \"#utility.yul\":7755:7760   */\n      dup4\n        /* \"#utility.yul\":7751:7765   */\n      add\n        /* \"#utility.yul\":7747:7775   */\n      and\n        /* \"#utility.yul\":7737:7775   */\n      swap1\n      pop\n        /* \"#utility.yul\":7679:7781   */\n      swap2\n      swap1\n      pop\n      jump\t// out\n        /* \"#utility.yul\":7787:7967   */\n    tag_95:\n        /* \"#utility.yul\":7835:7912   */\n      0x4e487b7100000000000000000000000000000000000000000000000000000000\n        /* \"#utility.yul\":7832:7833   */\n      0x00\n        /* \"#utility.yul\":7825:7913   */\n      mstore\n        /* \"#utility.yul\":7932:7936   */\n      0x41\n        /* \"#utility.yul\":7929:7930   */\n      0x04\n        /* \"#utility.yul\":7922:7937   */\n      mstore\n        /* \"#utility.yul\":7956:7960   */\n      0x24\n        /* \"#utility.yul\":7953:7954   */\n      0x00\n        /* \"#utility.yul\":7946:7961   */\n      revert\n        /* \"#utility.yul\":7973:8254   */\n    tag_96:\n        /* \"#utility.yul\":8056:8083   */\n      tag_236\n        /* \"#utility.yul\":8078:8082   */\n      dup3\n        /* \"#utility.yul\":8056:8083   */\n      tag_94\n      jump\t// in\n    tag_236:\n        /* \"#utility.yul\":8048:8054   */\n      dup2\n        /* \"#utility.yul\":8044:8084   */\n      add\n        /* \"#utility.yul\":8186:8192   */\n      dup2\n        /* \"#utility.yul\":8174:8184   */\n      dup2\n        /* \"#utility.yul\":8171:8193   */\n      lt\n        /* \"#utility.yul\":8150:8168   */\n      0xffffffffffffffff\n        /* \"#utility.yul\":8138:8148   */\n      dup3\n        /* \"#utility.yul\":8135:8169   */\n      gt\n        /* \"#utility.yul\":8132:8194   */\n      or\n        /* \"#utility.yul\":8129:8217   */\n      iszero\n      tag_237\n      jumpi\n        /* \"#utility.yul\":8197:8215   */\n      tag_238\n      tag_95\n      jump\t// in\n    tag_238:\n        /* \"#utility.yul\":8129:8217   */\n    tag_237:\n        /* \"#utility.yul\":8237:8247   */\n      dup1\n        /* \"#utility.yul\":8233:8235   */\n      0x40\n        /* \"#utility.yul\":8226:8248   */\n      mstore\n        /* \"#utility.yul\":8016:8254   */\n      pop\n        /* \"#utility.yul\":7973:8254   */\n      pop\n      pop\n      jump\t// out\n        /* \"#utility.yul\":8260:8389   */\n    tag_97:\n        /* \"#utility.yul\":8294:8300   */\n      0x00\n        /* \"#utility.yul\":8321:8341   */\n      tag_240\n      tag_62\n      jump\t// in\n    tag_240:\n        /* \"#utility.yul\":8311:8341   */\n      swap1\n      pop\n        /* \"#utility.yul\":8350:8383   */\n      tag_241\n        /* \"#utility.yul\":8378:8382   */\n      dup3\n        /* \"#utility.yul\":8370:8376   */\n      dup3\n        /* \"#utility.yul\":8350:8383   */\n      tag_96\n      jump\t// in\n    tag_241:\n        /* \"#utility.yul\":8260:8389   */\n      swap2\n      swap1\n      pop\n      jump\t// out\n        /* \"#utility.yul\":8395:8705   */\n    tag_98:\n        /* \"#utility.yul\":8471:8475   */\n      0x00\n        /* \"#utility.yul\":8561:8579   */\n      0xffffffffffffffff\n        /* \"#utility.yul\":8553:8559   */\n      dup3\n        /* \"#utility.yul\":8550:8580   */\n      gt\n        /* \"#utility.yul\":8547:8603   */\n      iszero\n      tag_243\n      jumpi\n        /* \"#utility.yul\":8583:8601   */\n      tag_244\n      tag_95\n      jump\t// in\n    tag_244:\n        /* \"#utility.yul\":8547:8603   */\n    tag_243:\n        /* \"#utility.yul\":8633:8637   */\n      0x20\n        /* \"#utility.yul\":8625:8631   */\n      dup3\n        /* \"#utility.yul\":8621:8638   */\n      mul\n        /* \"#utility.yul\":8613:8638   */\n      swap1\n      pop\n        /* \"#utility.yul\":8693:8697   */\n      0x20\n        /* \"#utility.yul\":8687:8691   */\n      dup2\n        /* \"#utility.yul\":8683:8698   */\n      add\n        /* \"#utility.yul\":8675:8698   */\n      swap1\n      pop\n        /* \"#utility.yul\":8395:8705   */\n      swap2\n      swap1\n      pop\n      jump\t// out\n        /* \"#utility.yul\":8711:8828   */\n    tag_99:\n        /* \"#utility.yul\":8820:8821   */\n      0x00\n        /* \"#utility.yul\":8817:8818   */\n      dup1\n        /* \"#utility.yul\":8810:8822   */\n      revert\n        /* \"#utility.yul\":8834:8927   */\n    tag_100:\n        /* \"#utility.yul\":8870:8877   */\n      0x00\n        /* \"#utility.yul\":8910:8920   */\n      0xffffffff\n        /* \"#utility.yul\":8903:8908   */\n      dup3\n        /* \"#utility.yul\":8899:8921   */\n      and\n        /* \"#utility.yul\":8888:8921   */\n      swap1\n      pop\n        /* \"#utility.yul\":8834:8927   */\n      swap2\n      swap1\n      pop\n      jump\t// out\n        /* \"#utility.yul\":8933:9053   */\n    tag_101:\n        /* \"#utility.yul\":9005:9028   */\n      tag_248\n        /* \"#utility.yul\":9022:9027   */\n      dup2\n        /* \"#utility.yul\":9005:9028   */\n      tag_100\n      jump\t// in\n    tag_248:\n        /* \"#utility.yul\":8998:9003   */\n      dup2\n        /* \"#utility.yul\":8995:9029   */\n      eq\n        /* \"#utility.yul\":8985:9047   */\n      tag_249\n      jumpi\n        /* \"#utility.yul\":9043:9044   */\n      0x00\n        /* \"#utility.yul\":9040:9041   */\n      dup1\n        /* \"#utility.yul\":9033:9045   */\n      revert\n        /* \"#utility.yul\":8985:9047   */\n    tag_249:\n        /* \"#utility.yul\":8933:9053   */\n      pop\n      jump\t// out\n        /* \"#utility.yul\":9059:9200   */\n    tag_102:\n        /* \"#utility.yul\":9115:9120   */\n      0x00\n        /* \"#utility.yul\":9146:9152   */\n      dup2\n        /* \"#utility.yul\":9140:9153   */\n      mload\n        /* \"#utility.yul\":9131:9153   */\n      swap1\n      pop\n        /* \"#utility.yul\":9162:9194   */\n      tag_251\n        /* \"#utility.yul\":9188:9193   */\n      dup2\n        /* \"#utility.yul\":9162:9194   */\n      tag_101\n      jump\t// in\n    tag_251:\n        /* \"#utility.yul\":9059:9200   */\n      swap3\n      swap2\n      pop\n      pop\n      jump\t// out\n        /* \"#utility.yul\":9222:9951   */\n    tag_103:\n        /* \"#utility.yul\":9328:9333   */\n      0x00\n        /* \"#utility.yul\":9353:9433   */\n      tag_253\n        /* \"#utility.yul\":9369:9432   */\n      tag_254\n        /* \"#utility.yul\":9425:9431   */\n      dup5\n        /* \"#utility.yul\":9369:9432   */\n      tag_98\n      jump\t// in\n    tag_254:\n        /* \"#utility.yul\":9353:9433   */\n      tag_97\n      jump\t// in\n    tag_253:\n        /* \"#utility.yul\":9344:9433   */\n      swap1\n      pop\n        /* \"#utility.yul\":9453:9458   */\n      dup1\n        /* \"#utility.yul\":9482:9488   */\n      dup4\n        /* \"#utility.yul\":9475:9480   */\n      dup3\n        /* \"#utility.yul\":9468:9489   */\n      mstore\n        /* \"#utility.yul\":9516:9520   */\n      0x20\n        /* \"#utility.yul\":9509:9514   */\n      dup3\n        /* \"#utility.yul\":9505:9521   */\n      add\n        /* \"#utility.yul\":9498:9521   */\n      swap1\n      pop\n        /* \"#utility.yul\":9569:9573   */\n      0x20\n        /* \"#utility.yul\":9561:9567   */\n      dup5\n        /* \"#utility.yul\":9557:9574   */\n      mul\n        /* \"#utility.yul\":9549:9555   */\n      dup4\n        /* \"#utility.yul\":9545:9575   */\n      add\n        /* \"#utility.yul\":9598:9601   */\n      dup6\n        /* \"#utility.yul\":9590:9596   */\n      dup2\n        /* \"#utility.yul\":9587:9602   */\n      gt\n        /* \"#utility.yul\":9584:9706   */\n      iszero\n      tag_255\n      jumpi\n        /* \"#utility.yul\":9617:9696   */\n      tag_256\n      tag_99\n      jump\t// in\n    tag_256:\n        /* \"#utility.yul\":9584:9706   */\n    tag_255:\n        /* \"#utility.yul\":9732:9738   */\n      dup4\n        /* \"#utility.yul\":9715:9945   */\n    tag_257:\n        /* \"#utility.yul\":9749:9755   */\n      dup2\n        /* \"#utility.yul\":9744:9747   */\n      dup2\n        /* \"#utility.yul\":9741:9756   */\n      lt\n        /* \"#utility.yul\":9715:9945   */\n      iszero\n      tag_259\n      jumpi\n        /* \"#utility.yul\":9824:9827   */\n      dup1\n        /* \"#utility.yul\":9853:9900   */\n      tag_260\n        /* \"#utility.yul\":9896:9899   */\n      dup9\n        /* \"#utility.yul\":9884:9894   */\n      dup3\n        /* \"#utility.yul\":9853:9900   */\n      tag_102\n      jump\t// in\n    tag_260:\n        /* \"#utility.yul\":9848:9851   */\n      dup5\n        /* \"#utility.yul\":9841:9901   */\n      mstore\n        /* \"#utility.yul\":9930:9934   */\n      0x20\n        /* \"#utility.yul\":9925:9928   */\n      dup5\n        /* \"#utility.yul\":9921:9935   */\n      add\n        /* \"#utility.yul\":9914:9935   */\n      swap4\n      pop\n        /* \"#utility.yul\":9791:9945   */\n      pop\n        /* \"#utility.yul\":9775:9779   */\n      0x20\n        /* \"#utility.yul\":9770:9773   */\n      dup2\n        /* \"#utility.yul\":9766:9780   */\n      add\n        /* \"#utility.yul\":9759:9780   */\n      swap1\n      pop\n        /* \"#utility.yul\":9715:9945   */\n      jump(tag_257)\n    tag_259:\n        /* \"#utility.yul\":9719:9740   */\n      pop\n        /* \"#utility.yul\":9334:9951   */\n      pop\n      pop\n        /* \"#utility.yul\":9222:9951   */\n      swap4\n      swap3\n      pop\n      pop\n      pop\n      jump\t// out\n        /* \"#utility.yul\":9973:10356   */\n    tag_104:\n        /* \"#utility.yul\":10054:10059   */\n      0x00\n        /* \"#utility.yul\":10103:10106   */\n      dup3\n        /* \"#utility.yul\":10096:10100   */\n      0x1f\n        /* \"#utility.yul\":10088:10094   */\n      dup4\n        /* \"#utility.yul\":10084:10101   */\n      add\n        /* \"#utility.yul\":10080:10107   */\n      slt\n        /* \"#utility.yul\":10070:10192   */\n      tag_262\n      jumpi\n        /* \"#utility.yul\":10111:10190   */\n      tag_263\n      tag_93\n      jump\t// in\n    tag_263:\n        /* \"#utility.yul\":10070:10192   */\n    tag_262:\n        /* \"#utility.yul\":10221:10227   */\n      dup2\n        /* \"#utility.yul\":10215:10228   */\n      mload\n        /* \"#utility.yul\":10246:10350   */\n      tag_264\n        /* \"#utility.yul\":10346:10349   */\n      dup5\n        /* \"#utility.yul\":10338:10344   */\n      dup3\n        /* \"#utility.yul\":10331:10335   */\n      0x20\n        /* \"#utility.yul\":10323:10329   */\n      dup7\n        /* \"#utility.yul\":10319:10336   */\n      add\n        /* \"#utility.yul\":10246:10350   */\n      tag_103\n      jump\t// in\n    tag_264:\n        /* \"#utility.yul\":10237:10350   */\n      swap2\n      pop\n        /* \"#utility.yul\":10060:10356   */\n      pop\n        /* \"#utility.yul\":9973:10356   */\n      swap3\n      swap2\n      pop\n      pop\n      jump\t// out\n        /* \"#utility.yul\":10362:10914   */\n    tag_40:\n        /* \"#utility.yul\":10456:10462   */\n      0x00\n        /* \"#utility.yul\":10505:10507   */\n      0x20\n        /* \"#utility.yul\":10493:10502   */\n      dup3\n        /* \"#utility.yul\":10484:10491   */\n      dup5\n        /* \"#utility.yul\":10480:10503   */\n      sub\n        /* \"#utility.yul\":10476:10508   */\n      slt\n        /* \"#utility.yul\":10473:10592   */\n      iszero\n      tag_266\n      jumpi\n        /* \"#utility.yul\":10511:10590   */\n      tag_267\n      tag_63\n      jump\t// in\n    tag_267:\n        /* \"#utility.yul\":10473:10592   */\n    tag_266:\n        /* \"#utility.yul\":10652:10653   */\n      0x00\n        /* \"#utility.yul\":10641:10650   */\n      dup3\n        /* \"#utility.yul\":10637:10654   */\n      add\n        /* \"#utility.yul\":10631:10655   */\n      mload\n        /* \"#utility.yul\":10682:10700   */\n      0xffffffffffffffff\n        /* \"#utility.yul\":10674:10680   */\n      dup2\n        /* \"#utility.yul\":10671:10701   */\n      gt\n        /* \"#utility.yul\":10668:10785   */\n      iszero\n      tag_268\n      jumpi\n        /* \"#utility.yul\":10704:10783   */\n      tag_269\n      tag_64\n      jump\t// in\n    tag_269:\n        /* \"#utility.yul\":10668:10785   */\n    tag_268:\n        /* \"#utility.yul\":10809:10897   */\n      tag_270\n        /* \"#utility.yul\":10889:10896   */\n      dup5\n        /* \"#utility.yul\":10880:10886   */\n      dup3\n        /* \"#utility.yul\":10869:10878   */\n      dup6\n        /* \"#utility.yul\":10865:10887   */\n      add\n        /* \"#utility.yul\":10809:10897   */\n      tag_104\n      jump\t// in\n    tag_270:\n        /* \"#utility.yul\":10799:10897   */\n      swap2\n      pop\n        /* \"#utility.yul\":10602:10907   */\n      pop\n        /* \"#utility.yul\":10362:10914   */\n      swap3\n      swap2\n      pop\n      pop\n      jump\t// out\n        /* \"#utility.yul\":10920:11033   */\n    tag_105:\n        /* \"#utility.yul\":10986:10992   */\n      0x00\n        /* \"#utility.yul\":11020:11025   */\n      dup2\n        /* \"#utility.yul\":11014:11026   */\n      mload\n        /* \"#utility.yul\":11004:11026   */\n      swap1\n      pop\n        /* \"#utility.yul\":10920:11033   */\n      swap2\n      swap1\n      pop\n      jump\t// out\n        /* \"#utility.yul\":11039:11222   */\n    tag_106:\n        /* \"#utility.yul\":11137:11148   */\n      0x00\n        /* \"#utility.yul\":11171:11177   */\n      dup3\n        /* \"#utility.yul\":11166:11169   */\n      dup3\n        /* \"#utility.yul\":11159:11178   */\n      mstore\n        /* \"#utility.yul\":11211:11215   */\n      0x20\n        /* \"#utility.yul\":11206:11209   */\n      dup3\n        /* \"#utility.yul\":11202:11216   */\n      add\n        /* \"#utility.yul\":11187:11216   */\n      swap1\n      pop\n        /* \"#utility.yul\":11039:11222   */\n      swap3\n      swap2\n      pop\n      pop\n      jump\t// out\n        /* \"#utility.yul\":11228:11359   */\n    tag_107:\n        /* \"#utility.yul\":11294:11298   */\n      0x00\n        /* \"#utility.yul\":11317:11320   */\n      dup2\n        /* \"#utility.yul\":11309:11320   */\n      swap1\n      pop\n        /* \"#utility.yul\":11347:11351   */\n      0x20\n        /* \"#utility.yul\":11342:11345   */\n      dup3\n        /* \"#utility.yul\":11338:11352   */\n      add\n        /* \"#utility.yul\":11330:11352   */\n      swap1\n      pop\n        /* \"#utility.yul\":11228:11359   */\n      swap2\n      swap1\n      pop\n      jump\t// out\n        /* \"#utility.yul\":11365:11470   */\n    tag_108:\n        /* \"#utility.yul\":11440:11463   */\n      tag_275\n        /* \"#utility.yul\":11457:11462   */\n      dup2\n        /* \"#utility.yul\":11440:11463   */\n      tag_100\n      jump\t// in\n    tag_275:\n        /* \"#utility.yul\":11435:11438   */\n      dup3\n        /* \"#utility.yul\":11428:11464   */\n      mstore\n        /* \"#utility.yul\":11365:11470   */\n      pop\n      pop\n      jump\t// out\n        /* \"#utility.yul\":11476:11651   */\n    tag_109:\n        /* \"#utility.yul\":11543:11553   */\n      0x00\n        /* \"#utility.yul\":11564:11608   */\n      tag_277\n        /* \"#utility.yul\":11604:11607   */\n      dup4\n        /* \"#utility.yul\":11596:11602   */\n      dup4\n        /* \"#utility.yul\":11564:11608   */\n      tag_108\n      jump\t// in\n    tag_277:\n        /* \"#utility.yul\":11640:11644   */\n      0x20\n        /* \"#utility.yul\":11635:11638   */\n      dup4\n        /* \"#utility.yul\":11631:11645   */\n      add\n        /* \"#utility.yul\":11617:11645   */\n      swap1\n      pop\n        /* \"#utility.yul\":11476:11651   */\n      swap3\n      swap2\n      pop\n      pop\n      jump\t// out\n        /* \"#utility.yul\":11657:11769   */\n    tag_110:\n        /* \"#utility.yul\":11726:11730   */\n      0x00\n        /* \"#utility.yul\":11758:11762   */\n      0x20\n        /* \"#utility.yul\":11753:11756   */\n      dup3\n        /* \"#utility.yul\":11749:11763   */\n      add\n        /* \"#utility.yul\":11741:11763   */\n      swap1\n      pop\n        /* \"#utility.yul\":11657:11769   */\n      swap2\n      swap1\n      pop\n      jump\t// out\n        /* \"#utility.yul\":11803:12527   */\n    tag_111:\n        /* \"#utility.yul\":11920:11923   */\n      0x00\n        /* \"#utility.yul\":11949:12002   */\n      tag_280\n        /* \"#utility.yul\":11996:12001   */\n      dup3\n        /* \"#utility.yul\":11949:12002   */\n      tag_105\n      jump\t// in\n    tag_280:\n        /* \"#utility.yul\":12018:12103   */\n      tag_281\n        /* \"#utility.yul\":12096:12102   */\n      dup2\n        /* \"#utility.yul\":12091:12094   */\n      dup6\n        /* \"#utility.yul\":12018:12103   */\n      tag_106\n      jump\t// in\n    tag_281:\n        /* \"#utility.yul\":12011:12103   */\n      swap4\n      pop\n        /* \"#utility.yul\":12127:12182   */\n      tag_282\n        /* \"#utility.yul\":12176:12181   */\n      dup4\n        /* \"#utility.yul\":12127:12182   */\n      tag_107\n      jump\t// in\n    tag_282:\n        /* \"#utility.yul\":12205:12212   */\n      dup1\n        /* \"#utility.yul\":12236:12237   */\n      0x00\n        /* \"#utility.yul\":12221:12502   */\n    tag_283:\n        /* \"#utility.yul\":12246:12252   */\n      dup4\n        /* \"#utility.yul\":12243:12244   */\n      dup2\n        /* \"#utility.yul\":12240:12253   */\n      lt\n        /* \"#utility.yul\":12221:12502   */\n      iszero\n      tag_285\n      jumpi\n        /* \"#utility.yul\":12322:12328   */\n      dup2\n        /* \"#utility.yul\":12316:12329   */\n      mload\n        /* \"#utility.yul\":12349:12410   */\n      tag_286\n        /* \"#utility.yul\":12406:12409   */\n      dup9\n        /* \"#utility.yul\":12391:12404   */\n      dup3\n        /* \"#utility.yul\":12349:12410   */\n      tag_109\n      jump\t// in\n    tag_286:\n        /* \"#utility.yul\":12342:12410   */\n      swap8\n      pop\n        /* \"#utility.yul\":12433:12492   */\n      tag_287\n        /* \"#utility.yul\":12485:12491   */\n      dup4\n        /* \"#utility.yul\":12433:12492   */\n      tag_110\n      jump\t// in\n    tag_287:\n        /* \"#utility.yul\":12423:12492   */\n      swap3\n      pop\n        /* \"#utility.yul\":12281:12502   */\n      pop\n        /* \"#utility.yul\":12268:12269   */\n      0x01\n        /* \"#utility.yul\":12265:12266   */\n      dup2\n        /* \"#utility.yul\":12261:12270   */\n      add\n        /* \"#utility.yul\":12256:12270   */\n      swap1\n      pop\n        /* \"#utility.yul\":12221:12502   */\n      jump(tag_283)\n    tag_285:\n        /* \"#utility.yul\":12225:12239   */\n      pop\n        /* \"#utility.yul\":12518:12521   */\n      dup6\n        /* \"#utility.yul\":12511:12521   */\n      swap4\n      pop\n        /* \"#utility.yul\":11925:12527   */\n      pop\n      pop\n      pop\n        /* \"#utility.yul\":11803:12527   */\n      swap3\n      swap2\n      pop\n      pop\n      jump\t// out\n        /* \"#utility.yul\":12533:12902   */\n    tag_42:\n        /* \"#utility.yul\":12674:12678   */\n      0x00\n        /* \"#utility.yul\":12712:12714   */\n      0x20\n        /* \"#utility.yul\":12701:12710   */\n      dup3\n        /* \"#utility.yul\":12697:12715   */\n      add\n        /* \"#utility.yul\":12689:12715   */\n      swap1\n      pop\n        /* \"#utility.yul\":12761:12770   */\n      dup2\n        /* \"#utility.yul\":12755:12759   */\n      dup2\n        /* \"#utility.yul\":12751:12771   */\n      sub\n        /* \"#utility.yul\":12747:12748   */\n      0x00\n        /* \"#utility.yul\":12736:12745   */\n      dup4\n        /* \"#utility.yul\":12732:12749   */\n      add\n        /* \"#utility.yul\":12725:12772   */\n      mstore\n        /* \"#utility.yul\":12789:12895   */\n      tag_289\n        /* \"#utility.yul\":12890:12894   */\n      dup2\n        /* \"#utility.yul\":12881:12887   */\n      dup5\n        /* \"#utility.yul\":12789:12895   */\n      tag_111\n      jump\t// in\n    tag_289:\n        /* \"#utility.yul\":12781:12895   */\n      swap1\n      pop\n        /* \"#utility.yul\":12533:12902   */\n      swap3\n      swap2\n      pop\n      pop\n      jump\t// out\n        /* \"#utility.yul\":12908:13217   */\n    tag_112:\n        /* \"#utility.yul\":12983:12987   */\n      0x00\n        /* \"#utility.yul\":13073:13091   */\n      0xffffffffffffffff\n        /* \"#utility.yul\":13065:13071   */\n      dup3\n        /* \"#utility.yul\":13062:13092   */\n      gt\n        /* \"#utility.yul\":13059:13115   */\n      iszero\n      tag_291\n      jumpi\n        /* \"#utility.yul\":13095:13113   */\n      tag_292\n      tag_95\n      jump\t// in\n    tag_292:\n        /* \"#utility.yul\":13059:13115   */\n    tag_291:\n        /* \"#utility.yul\":13145:13149   */\n      0x20\n        /* \"#utility.yul\":13137:13143   */\n      dup3\n        /* \"#utility.yul\":13133:13150   */\n      mul\n        /* \"#utility.yul\":13125:13150   */\n      swap1\n      pop\n        /* \"#utility.yul\":13205:13209   */\n      0x20\n        /* \"#utility.yul\":13199:13203   */\n      dup2\n        /* \"#utility.yul\":13195:13210   */\n      add\n        /* \"#utility.yul\":13187:13210   */\n      swap1\n      pop\n        /* \"#utility.yul\":12908:13217   */\n      swap2\n      swap1\n      pop\n      jump\t// out\n        /* \"#utility.yul\":13223:13313   */\n    tag_113:\n        /* \"#utility.yul\":13258:13265   */\n      0x00\n        /* \"#utility.yul\":13301:13306   */\n      dup2\n        /* \"#utility.yul\":13298:13299   */\n      0x06\n        /* \"#utility.yul\":13287:13307   */\n      signextend\n        /* \"#utility.yul\":13276:13307   */\n      swap1\n      pop\n        /* \"#utility.yul\":13223:13313   */\n      swap2\n      swap1\n      pop\n      jump\t// out\n        /* \"#utility.yul\":13319:13437   */\n    tag_114:\n        /* \"#utility.yul\":13390:13412   */\n      tag_295\n        /* \"#utility.yul\":13406:13411   */\n      dup2\n        /* \"#utility.yul\":13390:13412   */\n      tag_113\n      jump\t// in\n    tag_295:\n        /* \"#utility.yul\":13383:13388   */\n      dup2\n        /* \"#utility.yul\":13380:13413   */\n      eq\n        /* \"#utility.yul\":13370:13431   */\n      tag_296\n      jumpi\n        /* \"#utility.yul\":13427:13428   */\n      0x00\n        /* \"#utility.yul\":13424:13425   */\n      dup1\n        /* \"#utility.yul\":13417:13429   */\n      revert\n        /* \"#utility.yul\":13370:13431   */\n    tag_296:\n        /* \"#utility.yul\":13319:13437   */\n      pop\n      jump\t// out\n        /* \"#utility.yul\":13443:13582   */\n    tag_115:\n        /* \"#utility.yul\":13498:13503   */\n      0x00\n        /* \"#utility.yul\":13529:13535   */\n      dup2\n        /* \"#utility.yul\":13523:13536   */\n      mload\n        /* \"#utility.yul\":13514:13536   */\n      swap1\n      pop\n        /* \"#utility.yul\":13545:13576   */\n      tag_298\n        /* \"#utility.yul\":13570:13575   */\n      dup2\n        /* \"#utility.yul\":13545:13576   */\n      tag_114\n      jump\t// in\n    tag_298:\n        /* \"#utility.yul\":13443:13582   */\n      swap3\n      swap2\n      pop\n      pop\n      jump\t// out\n        /* \"#utility.yul\":13603:14329   */\n    tag_116:\n        /* \"#utility.yul\":13708:13713   */\n      0x00\n        /* \"#utility.yul\":13733:13812   */\n      tag_300\n        /* \"#utility.yul\":13749:13811   */\n      tag_301\n        /* \"#utility.yul\":13804:13810   */\n      dup5\n        /* \"#utility.yul\":13749:13811   */\n      tag_112\n      jump\t// in\n    tag_301:\n        /* \"#utility.yul\":13733:13812   */\n      tag_97\n      jump\t// in\n    tag_300:\n        /* \"#utility.yul\":13724:13812   */\n      swap1\n      pop\n        /* \"#utility.yul\":13832:13837   */\n      dup1\n        /* \"#utility.yul\":13861:13867   */\n      dup4\n        /* \"#utility.yul\":13854:13859   */\n      dup3\n        /* \"#utility.yul\":13847:13868   */\n      mstore\n        /* \"#utility.yul\":13895:13899   */\n      0x20\n        /* \"#utility.yul\":13888:13893   */\n      dup3\n        /* \"#utility.yul\":13884:13900   */\n      add\n        /* \"#utility.yul\":13877:13900   */\n      swap1\n      pop\n        /* \"#utility.yul\":13948:13952   */\n      0x20\n        /* \"#utility.yul\":13940:13946   */\n      dup5\n        /* \"#utility.yul\":13936:13953   */\n      mul\n        /* \"#utility.yul\":13928:13934   */\n      dup4\n        /* \"#utility.yul\":13924:13954   */\n      add\n        /* \"#utility.yul\":13977:13980   */\n      dup6\n        /* \"#utility.yul\":13969:13975   */\n      dup2\n        /* \"#utility.yul\":13966:13981   */\n      gt\n        /* \"#utility.yul\":13963:14085   */\n      iszero\n      tag_302\n      jumpi\n        /* \"#utility.yul\":13996:14075   */\n      tag_303\n      tag_99\n      jump\t// in\n    tag_303:\n        /* \"#utility.yul\":13963:14085   */\n    tag_302:\n        /* \"#utility.yul\":14111:14117   */\n      dup4\n        /* \"#utility.yul\":14094:14323   */\n    tag_304:\n        /* \"#utility.yul\":14128:14134   */\n      dup2\n        /* \"#utility.yul\":14123:14126   */\n      dup2\n        /* \"#utility.yul\":14120:14135   */\n      lt\n        /* \"#utility.yul\":14094:14323   */\n      iszero\n      tag_306\n      jumpi\n        /* \"#utility.yul\":14203:14206   */\n      dup1\n        /* \"#utility.yul\":14232:14278   */\n      tag_307\n        /* \"#utility.yul\":14274:14277   */\n      dup9\n        /* \"#utility.yul\":14262:14272   */\n      dup3\n        /* \"#utility.yul\":14232:14278   */\n      tag_115\n      jump\t// in\n    tag_307:\n        /* \"#utility.yul\":14227:14230   */\n      dup5\n        /* \"#utility.yul\":14220:14279   */\n      mstore\n        /* \"#utility.yul\":14308:14312   */\n      0x20\n        /* \"#utility.yul\":14303:14306   */\n      dup5\n        /* \"#utility.yul\":14299:14313   */\n      add\n        /* \"#utility.yul\":14292:14313   */\n      swap4\n      pop\n        /* \"#utility.yul\":14170:14323   */\n      pop\n        /* \"#utility.yul\":14154:14158   */\n      0x20\n        /* \"#utility.yul\":14149:14152   */\n      dup2\n        /* \"#utility.yul\":14145:14159   */\n      add\n        /* \"#utility.yul\":14138:14159   */\n      swap1\n      pop\n        /* \"#utility.yul\":14094:14323   */\n      jump(tag_304)\n    tag_306:\n        /* \"#utility.yul\":14098:14119   */\n      pop\n        /* \"#utility.yul\":13714:14329   */\n      pop\n      pop\n        /* \"#utility.yul\":13603:14329   */\n      swap4\n      swap3\n      pop\n      pop\n      pop\n      jump\t// out\n        /* \"#utility.yul\":14350:14731   */\n    tag_117:\n        /* \"#utility.yul\":14430:14435   */\n      0x00\n        /* \"#utility.yul\":14479:14482   */\n      dup3\n        /* \"#utility.yul\":14472:14476   */\n      0x1f\n        /* \"#utility.yul\":14464:14470   */\n      dup4\n        /* \"#utility.yul\":14460:14477   */\n      add\n        /* \"#utility.yul\":14456:14483   */\n      slt\n        /* \"#utility.yul\":14446:14568   */\n      tag_309\n      jumpi\n        /* \"#utility.yul\":14487:14566   */\n      tag_310\n      tag_93\n      jump\t// in\n    tag_310:\n        /* \"#utility.yul\":14446:14568   */\n    tag_309:\n        /* \"#utility.yul\":14597:14603   */\n      dup2\n        /* \"#utility.yul\":14591:14604   */\n      mload\n        /* \"#utility.yul\":14622:14725   */\n      tag_311\n        /* \"#utility.yul\":14721:14724   */\n      dup5\n        /* \"#utility.yul\":14713:14719   */\n      dup3\n        /* \"#utility.yul\":14706:14710   */\n      0x20\n        /* \"#utility.yul\":14698:14704   */\n      dup7\n        /* \"#utility.yul\":14694:14711   */\n      add\n        /* \"#utility.yul\":14622:14725   */\n      tag_116\n      jump\t// in\n    tag_311:\n        /* \"#utility.yul\":14613:14725   */\n      swap2\n      pop\n        /* \"#utility.yul\":14436:14731   */\n      pop\n        /* \"#utility.yul\":14350:14731   */\n      swap3\n      swap2\n      pop\n      pop\n      jump\t// out\n        /* \"#utility.yul\":14737:15048   */\n    tag_118:\n        /* \"#utility.yul\":14814:14818   */\n      0x00\n        /* \"#utility.yul\":14904:14922   */\n      0xffffffffffffffff\n        /* \"#utility.yul\":14896:14902   */\n      dup3\n        /* \"#utility.yul\":14893:14923   */\n      gt\n        /* \"#utility.yul\":14890:14946   */\n      iszero\n      tag_313\n      jumpi\n        /* \"#utility.yul\":14926:14944   */\n      tag_314\n      tag_95\n      jump\t// in\n    tag_314:\n        /* \"#utility.yul\":14890:14946   */\n    tag_313:\n        /* \"#utility.yul\":14976:14980   */\n      0x20\n        /* \"#utility.yul\":14968:14974   */\n      dup3\n        /* \"#utility.yul\":14964:14981   */\n      mul\n        /* \"#utility.yul\":14956:14981   */\n      swap1\n      pop\n        /* \"#utility.yul\":15036:15040   */\n      0x20\n        /* \"#utility.yul\":15030:15034   */\n      dup2\n        /* \"#utility.yul\":15026:15041   */\n      add\n        /* \"#utility.yul\":15018:15041   */\n      swap1\n      pop\n        /* \"#utility.yul\":14737:15048   */\n      swap2\n      swap1\n      pop\n      jump\t// out\n        /* \"#utility.yul\":15071:15803   */\n    tag_119:\n        /* \"#utility.yul\":15178:15183   */\n      0x00\n        /* \"#utility.yul\":15203:15284   */\n      tag_316\n        /* \"#utility.yul\":15219:15283   */\n      tag_317\n        /* \"#utility.yul\":15276:15282   */\n      dup5\n        /* \"#utility.yul\":15219:15283   */\n      tag_118\n      jump\t// in\n    tag_317:\n        /* \"#utility.yul\":15203:15284   */\n      tag_97\n      jump\t// in\n    tag_316:\n        /* \"#utility.yul\":15194:15284   */\n      swap1\n      pop\n        /* \"#utility.yul\":15304:15309   */\n      dup1\n        /* \"#utility.yul\":15333:15339   */\n      dup4\n        /* \"#utility.yul\":15326:15331   */\n      dup3\n        /* \"#utility.yul\":15319:15340   */\n      mstore\n        /* \"#utility.yul\":15367:15371   */\n      0x20\n        /* \"#utility.yul\":15360:15365   */\n      dup3\n        /* \"#utility.yul\":15356:15372   */\n      add\n        /* \"#utility.yul\":15349:15372   */\n      swap1\n      pop\n        /* \"#utility.yul\":15420:15424   */\n      0x20\n        /* \"#utility.yul\":15412:15418   */\n      dup5\n        /* \"#utility.yul\":15408:15425   */\n      mul\n        /* \"#utility.yul\":15400:15406   */\n      dup4\n        /* \"#utility.yul\":15396:15426   */\n      add\n        /* \"#utility.yul\":15449:15452   */\n      dup6\n        /* \"#utility.yul\":15441:15447   */\n      dup2\n        /* \"#utility.yul\":15438:15453   */\n      gt\n        /* \"#utility.yul\":15435:15557   */\n      iszero\n      tag_318\n      jumpi\n        /* \"#utility.yul\":15468:15547   */\n      tag_319\n      tag_99\n      jump\t// in\n    tag_319:\n        /* \"#utility.yul\":15435:15557   */\n    tag_318:\n        /* \"#utility.yul\":15583:15589   */\n      dup4\n        /* \"#utility.yul\":15566:15797   */\n    tag_320:\n        /* \"#utility.yul\":15600:15606   */\n      dup2\n        /* \"#utility.yul\":15595:15598   */\n      dup2\n        /* \"#utility.yul\":15592:15607   */\n      lt\n        /* \"#utility.yul\":15566:15797   */\n      iszero\n      tag_322\n      jumpi\n        /* \"#utility.yul\":15675:15678   */\n      dup1\n        /* \"#utility.yul\":15704:15752   */\n      tag_323\n        /* \"#utility.yul\":15748:15751   */\n      dup9\n        /* \"#utility.yul\":15736:15746   */\n      dup3\n        /* \"#utility.yul\":15704:15752   */\n      tag_79\n      jump\t// in\n    tag_323:\n        /* \"#utility.yul\":15699:15702   */\n      dup5\n        /* \"#utility.yul\":15692:15753   */\n      mstore\n        /* \"#utility.yul\":15782:15786   */\n      0x20\n        /* \"#utility.yul\":15777:15780   */\n      dup5\n        /* \"#utility.yul\":15773:15787   */\n      add\n        /* \"#utility.yul\":15766:15787   */\n      swap4\n      pop\n        /* \"#utility.yul\":15642:15797   */\n      pop\n        /* \"#utility.yul\":15626:15630   */\n      0x20\n        /* \"#utility.yul\":15621:15624   */\n      dup2\n        /* \"#utility.yul\":15617:15631   */\n      add\n        /* \"#utility.yul\":15610:15631   */\n      swap1\n      pop\n        /* \"#utility.yul\":15566:15797   */\n      jump(tag_320)\n    tag_322:\n        /* \"#utility.yul\":15570:15591   */\n      pop\n        /* \"#utility.yul\":15184:15803   */\n      pop\n      pop\n        /* \"#utility.yul\":15071:15803   */\n      swap4\n      swap3\n      pop\n      pop\n      pop\n      jump\t// out\n        /* \"#utility.yul\":15826:16211   */\n    tag_120:\n        /* \"#utility.yul\":15908:15913   */\n      0x00\n        /* \"#utility.yul\":15957:15960   */\n      dup3\n        /* \"#utility.yul\":15950:15954   */\n      0x1f\n        /* \"#utility.yul\":15942:15948   */\n      dup4\n        /* \"#utility.yul\":15938:15955   */\n      add\n        /* \"#utility.yul\":15934:15961   */\n      slt\n        /* \"#utility.yul\":15924:16046   */\n      tag_325\n      jumpi\n        /* \"#utility.yul\":15965:16044   */\n      tag_326\n      tag_93\n      jump\t// in\n    tag_326:\n        /* \"#utility.yul\":15924:16046   */\n    tag_325:\n        /* \"#utility.yul\":16075:16081   */\n      dup2\n        /* \"#utility.yul\":16069:16082   */\n      mload\n        /* \"#utility.yul\":16100:16205   */\n      tag_327\n        /* \"#utility.yul\":16201:16204   */\n      dup5\n        /* \"#utility.yul\":16193:16199   */\n      dup3\n        /* \"#utility.yul\":16186:16190   */\n      0x20\n        /* \"#utility.yul\":16178:16184   */\n      dup7\n        /* \"#utility.yul\":16174:16191   */\n      add\n        /* \"#utility.yul\":16100:16205   */\n      tag_119\n      jump\t// in\n    tag_327:\n        /* \"#utility.yul\":16091:16205   */\n      swap2\n      pop\n        /* \"#utility.yul\":15914:16211   */\n      pop\n        /* \"#utility.yul\":15826:16211   */\n      swap3\n      swap2\n      pop\n      pop\n      jump\t// out\n        /* \"#utility.yul\":16217:17126   */\n    tag_46:\n        /* \"#utility.yul\":16344:16350   */\n      0x00\n        /* \"#utility.yul\":16352:16358   */\n      dup1\n        /* \"#utility.yul\":16401:16403   */\n      0x40\n        /* \"#utility.yul\":16389:16398   */\n      dup4\n        /* \"#utility.yul\":16380:16387   */\n      dup6\n        /* \"#utility.yul\":16376:16399   */\n      sub\n        /* \"#utility.yul\":16372:16404   */\n      slt\n        /* \"#utility.yul\":16369:16488   */\n      iszero\n      tag_329\n      jumpi\n        /* \"#utility.yul\":16407:16486   */\n      tag_330\n      tag_63\n      jump\t// in\n    tag_330:\n        /* \"#utility.yul\":16369:16488   */\n    tag_329:\n        /* \"#utility.yul\":16548:16549   */\n      0x00\n        /* \"#utility.yul\":16537:16546   */\n      dup4\n        /* \"#utility.yul\":16533:16550   */\n      add\n        /* \"#utility.yul\":16527:16551   */\n      mload\n        /* \"#utility.yul\":16578:16596   */\n      0xffffffffffffffff\n        /* \"#utility.yul\":16570:16576   */\n      dup2\n        /* \"#utility.yul\":16567:16597   */\n      gt\n        /* \"#utility.yul\":16564:16681   */\n      iszero\n      tag_331\n      jumpi\n        /* \"#utility.yul\":16600:16679   */\n      tag_332\n      tag_64\n      jump\t// in\n    tag_332:\n        /* \"#utility.yul\":16564:16681   */\n    tag_331:\n        /* \"#utility.yul\":16705:16792   */\n      tag_333\n        /* \"#utility.yul\":16784:16791   */\n      dup6\n        /* \"#utility.yul\":16775:16781   */\n      dup3\n        /* \"#utility.yul\":16764:16773   */\n      dup7\n        /* \"#utility.yul\":16760:16782   */\n      add\n        /* \"#utility.yul\":16705:16792   */\n      tag_117\n      jump\t// in\n    tag_333:\n        /* \"#utility.yul\":16695:16792   */\n      swap3\n      pop\n        /* \"#utility.yul\":16498:16802   */\n      pop\n        /* \"#utility.yul\":16862:16864   */\n      0x20\n        /* \"#utility.yul\":16851:16860   */\n      dup4\n        /* \"#utility.yul\":16847:16865   */\n      add\n        /* \"#utility.yul\":16841:16866   */\n      mload\n        /* \"#utility.yul\":16893:16911   */\n      0xffffffffffffffff\n        /* \"#utility.yul\":16885:16891   */\n      dup2\n        /* \"#utility.yul\":16882:16912   */\n      gt\n        /* \"#utility.yul\":16879:16996   */\n      iszero\n      tag_334\n      jumpi\n        /* \"#utility.yul\":16915:16994   */\n      tag_335\n      tag_64\n      jump\t// in\n    tag_335:\n        /* \"#utility.yul\":16879:16996   */\n    tag_334:\n        /* \"#utility.yul\":17020:17109   */\n      tag_336\n        /* \"#utility.yul\":17101:17108   */\n      dup6\n        /* \"#utility.yul\":17092:17098   */\n      dup3\n        /* \"#utility.yul\":17081:17090   */\n      dup7\n        /* \"#utility.yul\":17077:17099   */\n      add\n        /* \"#utility.yul\":17020:17109   */\n      tag_120\n      jump\t// in\n    tag_336:\n        /* \"#utility.yul\":17010:17109   */\n      swap2\n      pop\n        /* \"#utility.yul\":16812:17119   */\n      pop\n        /* \"#utility.yul\":16217:17126   */\n      swap3\n      pop\n      swap3\n      swap1\n      pop\n      jump\t// out\n        /* \"#utility.yul\":17132:17244   */\n    tag_121:\n        /* \"#utility.yul\":17197:17203   */\n      0x00\n        /* \"#utility.yul\":17231:17236   */\n      dup2\n        /* \"#utility.yul\":17225:17237   */\n      mload\n        /* \"#utility.yul\":17215:17237   */\n      swap1\n      pop\n        /* \"#utility.yul\":17132:17244   */\n      swap2\n      swap1\n      pop\n      jump\t// out\n        /* \"#utility.yul\":17250:17440   */\n    tag_122:\n        /* \"#utility.yul\":17355:17366   */\n      0x00\n        /* \"#utility.yul\":17389:17395   */\n      dup3\n        /* \"#utility.yul\":17384:17387   */\n      dup3\n        /* \"#utility.yul\":17377:17396   */\n      mstore\n        /* \"#utility.yul\":17429:17433   */\n      0x20\n        /* \"#utility.yul\":17424:17427   */\n      dup3\n        /* \"#utility.yul\":17420:17434   */\n      add\n        /* \"#utility.yul\":17405:17434   */\n      swap1\n      pop\n        /* \"#utility.yul\":17250:17440   */\n      swap3\n      swap2\n      pop\n      pop\n      jump\t// out\n        /* \"#utility.yul\":17446:17576   */\n    tag_123:\n        /* \"#utility.yul\":17511:17515   */\n      0x00\n        /* \"#utility.yul\":17534:17537   */\n      dup2\n        /* \"#utility.yul\":17526:17537   */\n      swap1\n      pop\n        /* \"#utility.yul\":17564:17568   */\n      0x20\n        /* \"#utility.yul\":17559:17562   */\n      dup3\n        /* \"#utility.yul\":17555:17569   */\n      add\n        /* \"#utility.yul\":17547:17569   */\n      swap1\n      pop\n        /* \"#utility.yul\":17446:17576   */\n      swap2\n      swap1\n      pop\n      jump\t// out\n        /* \"#utility.yul\":17582:17692   */\n    tag_124:\n        /* \"#utility.yul\":17663:17685   */\n      tag_341\n        /* \"#utility.yul\":17679:17684   */\n      dup2\n        /* \"#utility.yul\":17663:17685   */\n      tag_113\n      jump\t// in\n    tag_341:\n        /* \"#utility.yul\":17658:17661   */\n      dup3\n        /* \"#utility.yul\":17651:17686   */\n      mstore\n        /* \"#utility.yul\":17582:17692   */\n      pop\n      pop\n      jump\t// out\n        /* \"#utility.yul\":17698:17885   */\n    tag_125:\n        /* \"#utility.yul\":17771:17781   */\n      0x00\n        /* \"#utility.yul\":17792:17842   */\n      tag_343\n        /* \"#utility.yul\":17838:17841   */\n      dup4\n        /* \"#utility.yul\":17830:17836   */\n      dup4\n        /* \"#utility.yul\":17792:17842   */\n      tag_124\n      jump\t// in\n    tag_343:\n        /* \"#utility.yul\":17874:17878   */\n      0x20\n        /* \"#utility.yul\":17869:17872   */\n      dup4\n        /* \"#utility.yul\":17865:17879   */\n      add\n        /* \"#utility.yul\":17851:17879   */\n      swap1\n      pop\n        /* \"#utility.yul\":17698:17885   */\n      swap3\n      swap2\n      pop\n      pop\n      jump\t// out\n        /* \"#utility.yul\":17891:18002   */\n    tag_126:\n        /* \"#utility.yul\":17959:17963   */\n      0x00\n        /* \"#utility.yul\":17991:17995   */\n      0x20\n        /* \"#utility.yul\":17986:17989   */\n      dup3\n        /* \"#utility.yul\":17982:17996   */\n      add\n        /* \"#utility.yul\":17974:17996   */\n      swap1\n      pop\n        /* \"#utility.yul\":17891:18002   */\n      swap2\n      swap1\n      pop\n      jump\t// out\n        /* \"#utility.yul\":18034:18774   */\n    tag_127:\n        /* \"#utility.yul\":18157:18160   */\n      0x00\n        /* \"#utility.yul\":18186:18238   */\n      tag_346\n        /* \"#utility.yul\":18232:18237   */\n      dup3\n        /* \"#utility.yul\":18186:18238   */\n      tag_121\n      jump\t// in\n    tag_346:\n        /* \"#utility.yul\":18254:18346   */\n      tag_347\n        /* \"#utility.yul\":18339:18345   */\n      dup2\n        /* \"#utility.yul\":18334:18337   */\n      dup6\n        /* \"#utility.yul\":18254:18346   */\n      tag_122\n      jump\t// in\n    tag_347:\n        /* \"#utility.yul\":18247:18346   */\n      swap4\n      pop\n        /* \"#utility.yul\":18370:18424   */\n      tag_348\n        /* \"#utility.yul\":18418:18423   */\n      dup4\n        /* \"#utility.yul\":18370:18424   */\n      tag_123\n      jump\t// in\n    tag_348:\n        /* \"#utility.yul\":18447:18454   */\n      dup1\n        /* \"#utility.yul\":18478:18479   */\n      0x00\n        /* \"#utility.yul\":18463:18749   */\n    tag_349:\n        /* \"#utility.yul\":18488:18494   */\n      dup4\n        /* \"#utility.yul\":18485:18486   */\n      dup2\n        /* \"#utility.yul\":18482:18495   */\n      lt\n        /* \"#utility.yul\":18463:18749   */\n      iszero\n      tag_351\n      jumpi\n        /* \"#utility.yul\":18564:18570   */\n      dup2\n        /* \"#utility.yul\":18558:18571   */\n      mload\n        /* \"#utility.yul\":18591:18658   */\n      tag_352\n        /* \"#utility.yul\":18654:18657   */\n      dup9\n        /* \"#utility.yul\":18639:18652   */\n      dup3\n        /* \"#utility.yul\":18591:18658   */\n      tag_125\n      jump\t// in\n    tag_352:\n        /* \"#utility.yul\":18584:18658   */\n      swap8\n      pop\n        /* \"#utility.yul\":18681:18739   */\n      tag_353\n        /* \"#utility.yul\":18732:18738   */\n      dup4\n        /* \"#utility.yul\":18681:18739   */\n      tag_126\n      jump\t// in\n    tag_353:\n        /* \"#utility.yul\":18671:18739   */\n      swap3\n      pop\n        /* \"#utility.yul\":18523:18749   */\n      pop\n        /* \"#utility.yul\":18510:18511   */\n      0x01\n        /* \"#utility.yul\":18507:18508   */\n      dup2\n        /* \"#utility.yul\":18503:18512   */\n      add\n        /* \"#utility.yul\":18498:18512   */\n      swap1\n      pop\n        /* \"#utility.yul\":18463:18749   */\n      jump(tag_349)\n    tag_351:\n        /* \"#utility.yul\":18467:18481   */\n      pop\n        /* \"#utility.yul\":18765:18768   */\n      dup6\n        /* \"#utility.yul\":18758:18768   */\n      swap4\n      pop\n        /* \"#utility.yul\":18162:18774   */\n      pop\n      pop\n      pop\n        /* \"#utility.yul\":18034:18774   */\n      swap3\n      swap2\n      pop\n      pop\n      jump\t// out\n        /* \"#utility.yul\":18780:19161   */\n    tag_48:\n        /* \"#utility.yul\":18927:18931   */\n      0x00\n        /* \"#utility.yul\":18965:18967   */\n      0x20\n        /* \"#utility.yul\":18954:18963   */\n      dup3\n        /* \"#utility.yul\":18950:18968   */\n      add\n        /* \"#utility.yul\":18942:18968   */\n      swap1\n      pop\n        /* \"#utility.yul\":19014:19023   */\n      dup2\n        /* \"#utility.yul\":19008:19012   */\n      dup2\n        /* \"#utility.yul\":19004:19024   */\n      sub\n        /* \"#utility.yul\":19000:19001   */\n      0x00\n        /* \"#utility.yul\":18989:18998   */\n      dup4\n        /* \"#utility.yul\":18985:19002   */\n      add\n        /* \"#utility.yul\":18978:19025   */\n      mstore\n        /* \"#utility.yul\":19042:19154   */\n      tag_355\n        /* \"#utility.yul\":19149:19153   */\n      dup2\n        /* \"#utility.yul\":19140:19146   */\n      dup5\n        /* \"#utility.yul\":19042:19154   */\n      tag_127\n      jump\t// in\n    tag_355:\n        /* \"#utility.yul\":19034:19154   */\n      swap1\n      pop\n        /* \"#utility.yul\":18780:19161   */\n      swap3\n      swap2\n      pop\n      pop\n      jump\t// out\n        /* \"#utility.yul\":19167:19289   */\n    tag_128:\n        /* \"#utility.yul\":19240:19264   */\n      tag_357\n        /* \"#utility.yul\":19258:19263   */\n      dup2\n        /* \"#utility.yul\":19240:19264   */\n      tag_69\n      jump\t// in\n    tag_357:\n        /* \"#utility.yul\":19233:19238   */\n      dup2\n        /* \"#utility.yul\":19230:19265   */\n      eq\n        /* \"#utility.yul\":19220:19283   */\n      tag_358\n      jumpi\n        /* \"#utility.yul\":19279:19280   */\n      0x00\n        /* \"#utility.yul\":19276:19277   */\n      dup1\n        /* \"#utility.yul\":19269:19281   */\n      revert\n        /* \"#utility.yul\":19220:19283   */\n    tag_358:\n        /* \"#utility.yul\":19167:19289   */\n      pop\n      jump\t// out\n        /* \"#utility.yul\":19295:19438   */\n    tag_129:\n        /* \"#utility.yul\":19352:19357   */\n      0x00\n        /* \"#utility.yul\":19383:19389   */\n      dup2\n        /* \"#utility.yul\":19377:19390   */\n      mload\n        /* \"#utility.yul\":19368:19390   */\n      swap1\n      pop\n        /* \"#utility.yul\":19399:19432   */\n      tag_360\n        /* \"#utility.yul\":19426:19431   */\n      dup2\n        /* \"#utility.yul\":19399:19432   */\n      tag_128\n      jump\t// in\n    tag_360:\n        /* \"#utility.yul\":19295:19438   */\n      swap3\n      swap2\n      pop\n      pop\n      jump\t// out\n        /* \"#utility.yul\":19444:19795   */\n    tag_52:\n        /* \"#utility.yul\":19514:19520   */\n      0x00\n        /* \"#utility.yul\":19563:19565   */\n      0x20\n        /* \"#utility.yul\":19551:19560   */\n      dup3\n        /* \"#utility.yul\":19542:19549   */\n      dup5\n        /* \"#utility.yul\":19538:19561   */\n      sub\n        /* \"#utility.yul\":19534:19566   */\n      slt\n        /* \"#utility.yul\":19531:19650   */\n      iszero\n      tag_362\n      jumpi\n        /* \"#utility.yul\":19569:19648   */\n      tag_363\n      tag_63\n      jump\t// in\n    tag_363:\n        /* \"#utility.yul\":19531:19650   */\n    tag_362:\n        /* \"#utility.yul\":19689:19690   */\n      0x00\n        /* \"#utility.yul\":19714:19778   */\n      tag_364\n        /* \"#utility.yul\":19770:19777   */\n      dup5\n        /* \"#utility.yul\":19761:19767   */\n      dup3\n        /* \"#utility.yul\":19750:19759   */\n      dup6\n        /* \"#utility.yul\":19746:19768   */\n      add\n        /* \"#utility.yul\":19714:19778   */\n      tag_129\n      jump\t// in\n    tag_364:\n        /* \"#utility.yul\":19704:19778   */\n      swap2\n      pop\n        /* \"#utility.yul\":19660:19788   */\n      pop\n        /* \"#utility.yul\":19444:19795   */\n      swap3\n      swap2\n      pop\n      pop\n      jump\t// out\n        /* \"#utility.yul\":19801:19906   */\n    tag_130:\n        /* \"#utility.yul\":19837:19844   */\n      0x00\n        /* \"#utility.yul\":19877:19899   */\n      0xffffffffffffffffffff\n        /* \"#utility.yul\":19870:19875   */\n      dup3\n        /* \"#utility.yul\":19866:19900   */\n      and\n        /* \"#utility.yul\":19855:19900   */\n      swap1\n      pop\n        /* \"#utility.yul\":19801:19906   */\n      swap2\n      swap1\n      pop\n      jump\t// out\n        /* \"#utility.yul\":19912:20032   */\n    tag_131:\n        /* \"#utility.yul\":19984:20007   */\n      tag_367\n        /* \"#utility.yul\":20001:20006   */\n      dup2\n        /* \"#utility.yul\":19984:20007   */\n      tag_130\n      jump\t// in\n    tag_367:\n        /* \"#utility.yul\":19977:19982   */\n      dup2\n        /* \"#utility.yul\":19974:20008   */\n      eq\n        /* \"#utility.yul\":19964:20026   */\n      tag_368\n      jumpi\n        /* \"#utility.yul\":20022:20023   */\n      0x00\n        /* \"#utility.yul\":20019:20020   */\n      dup1\n        /* \"#utility.yul\":20012:20024   */\n      revert\n        /* \"#utility.yul\":19964:20026   */\n    tag_368:\n        /* \"#utility.yul\":19912:20032   */\n      pop\n      jump\t// out\n        /* \"#utility.yul\":20038:20179   */\n    tag_132:\n        /* \"#utility.yul\":20094:20099   */\n      0x00\n        /* \"#utility.yul\":20125:20131   */\n      dup2\n        /* \"#utility.yul\":20119:20132   */\n      mload\n        /* \"#utility.yul\":20110:20132   */\n      swap1\n      pop\n        /* \"#utility.yul\":20141:20173   */\n      tag_370\n        /* \"#utility.yul\":20167:20172   */\n      dup2\n        /* \"#utility.yul\":20141:20173   */\n      tag_131\n      jump\t// in\n    tag_370:\n        /* \"#utility.yul\":20038:20179   */\n      swap3\n      swap2\n      pop\n      pop\n      jump\t// out\n        /* \"#utility.yul\":20185:20261   */\n    tag_133:\n        /* \"#utility.yul\":20221:20228   */\n      0x00\n        /* \"#utility.yul\":20250:20255   */\n      dup2\n        /* \"#utility.yul\":20239:20255   */\n      swap1\n      pop\n        /* \"#utility.yul\":20185:20261   */\n      swap2\n      swap1\n      pop\n      jump\t// out\n        /* \"#utility.yul\":20267:20387   */\n    tag_134:\n        /* \"#utility.yul\":20339:20362   */\n      tag_373\n        /* \"#utility.yul\":20356:20361   */\n      dup2\n        /* \"#utility.yul\":20339:20362   */\n      tag_133\n      jump\t// in\n    tag_373:\n        /* \"#utility.yul\":20332:20337   */\n      dup2\n        /* \"#utility.yul\":20329:20363   */\n      eq\n        /* \"#utility.yul\":20319:20381   */\n      tag_374\n      jumpi\n        /* \"#utility.yul\":20377:20378   */\n      0x00\n        /* \"#utility.yul\":20374:20375   */\n      dup1\n        /* \"#utility.yul\":20367:20379   */\n      revert\n        /* \"#utility.yul\":20319:20381   */\n    tag_374:\n        /* \"#utility.yul\":20267:20387   */\n      pop\n      jump\t// out\n        /* \"#utility.yul\":20393:20534   */\n    tag_135:\n        /* \"#utility.yul\":20449:20454   */\n      0x00\n        /* \"#utility.yul\":20480:20486   */\n      dup2\n        /* \"#utility.yul\":20474:20487   */\n      mload\n        /* \"#utility.yul\":20465:20487   */\n      swap1\n      pop\n        /* \"#utility.yul\":20496:20528   */\n      tag_376\n        /* \"#utility.yul\":20522:20527   */\n      dup2\n        /* \"#utility.yul\":20496:20528   */\n      tag_134\n      jump\t// in\n    tag_376:\n        /* \"#utility.yul\":20393:20534   */\n      swap3\n      swap2\n      pop\n      pop\n      jump\t// out\n        /* \"#utility.yul\":20540:21511   */\n    tag_57:\n        /* \"#utility.yul\":20643:20649   */\n      0x00\n        /* \"#utility.yul\":20651:20657   */\n      dup1\n        /* \"#utility.yul\":20659:20665   */\n      0x00\n        /* \"#utility.yul\":20667:20673   */\n      dup1\n        /* \"#utility.yul\":20675:20681   */\n      0x00\n        /* \"#utility.yul\":20724:20727   */\n      0xa0\n        /* \"#utility.yul\":20712:20721   */\n      dup7\n        /* \"#utility.yul\":20703:20710   */\n      dup9\n        /* \"#utility.yul\":20699:20722   */\n      sub\n        /* \"#utility.yul\":20695:20728   */\n      slt\n        /* \"#utility.yul\":20692:20812   */\n      iszero\n      tag_378\n      jumpi\n        /* \"#utility.yul\":20731:20810   */\n      tag_379\n      tag_63\n      jump\t// in\n    tag_379:\n        /* \"#utility.yul\":20692:20812   */\n    tag_378:\n        /* \"#utility.yul\":20851:20852   */\n      0x00\n        /* \"#utility.yul\":20876:20939   */\n      tag_380\n        /* \"#utility.yul\":20931:20938   */\n      dup9\n        /* \"#utility.yul\":20922:20928   */\n      dup3\n        /* \"#utility.yul\":20911:20920   */\n      dup10\n        /* \"#utility.yul\":20907:20929   */\n      add\n        /* \"#utility.yul\":20876:20939   */\n      tag_132\n      jump\t// in\n    tag_380:\n        /* \"#utility.yul\":20866:20939   */\n      swap6\n      pop\n        /* \"#utility.yul\":20822:20949   */\n      pop\n        /* \"#utility.yul\":20988:20990   */\n      0x20\n        /* \"#utility.yul\":21014:21077   */\n      tag_381\n        /* \"#utility.yul\":21069:21076   */\n      dup9\n        /* \"#utility.yul\":21060:21066   */\n      dup3\n        /* \"#utility.yul\":21049:21058   */\n      dup10\n        /* \"#utility.yul\":21045:21067   */\n      add\n        /* \"#utility.yul\":21014:21077   */\n      tag_135\n      jump\t// in\n    tag_381:\n        /* \"#utility.yul\":21004:21077   */\n      swap5\n      pop\n        /* \"#utility.yul\":20959:21087   */\n      pop\n        /* \"#utility.yul\":21126:21128   */\n      0x40\n        /* \"#utility.yul\":21152:21216   */\n      tag_382\n        /* \"#utility.yul\":21208:21215   */\n      dup9\n        /* \"#utility.yul\":21199:21205   */\n      dup3\n        /* \"#utility.yul\":21188:21197   */\n      dup10\n        /* \"#utility.yul\":21184:21206   */\n      add\n        /* \"#utility.yul\":21152:21216   */\n      tag_129\n      jump\t// in\n    tag_382:\n        /* \"#utility.yul\":21142:21216   */\n      swap4\n      pop\n        /* \"#utility.yul\":21097:21226   */\n      pop\n        /* \"#utility.yul\":21265:21267   */\n      0x60\n        /* \"#utility.yul\":21291:21355   */\n      tag_383\n        /* \"#utility.yul\":21347:21354   */\n      dup9\n        /* \"#utility.yul\":21338:21344   */\n      dup3\n        /* \"#utility.yul\":21327:21336   */\n      dup10\n        /* \"#utility.yul\":21323:21345   */\n      add\n        /* \"#utility.yul\":21291:21355   */\n      tag_129\n      jump\t// in\n    tag_383:\n        /* \"#utility.yul\":21281:21355   */\n      swap3\n      pop\n        /* \"#utility.yul\":21236:21365   */\n      pop\n        /* \"#utility.yul\":21404:21407   */\n      0x80\n        /* \"#utility.yul\":21431:21494   */\n      tag_384\n        /* \"#utility.yul\":21486:21493   */\n      dup9\n        /* \"#utility.yul\":21477:21483   */\n      dup3\n        /* \"#utility.yul\":21466:21475   */\n      dup10\n        /* \"#utility.yul\":21462:21484   */\n      add\n        /* \"#utility.yul\":21431:21494   */\n      tag_132\n      jump\t// in\n    tag_384:\n        /* \"#utility.yul\":21421:21494   */\n      swap2\n      pop\n        /* \"#utility.yul\":21375:21504   */\n      pop\n        /* \"#utility.yul\":20540:21511   */\n      swap3\n      swap6\n      pop\n      swap3\n      swap6\n      swap1\n      swap4\n      pop\n      jump\t// out\n        /* \"#utility.yul\":21517:21686   */\n    tag_136:\n        /* \"#utility.yul\":21601:21612   */\n      0x00\n        /* \"#utility.yul\":21635:21641   */\n      dup3\n        /* \"#utility.yul\":21630:21633   */\n      dup3\n        /* \"#utility.yul\":21623:21642   */\n      mstore\n        /* \"#utility.yul\":21675:21679   */\n      0x20\n        /* \"#utility.yul\":21670:21673   */\n      dup3\n        /* \"#utility.yul\":21666:21680   */\n      add\n        /* \"#utility.yul\":21651:21680   */\n      swap1\n      pop\n        /* \"#utility.yul\":21517:21686   */\n      swap3\n      swap2\n      pop\n      pop\n      jump\t// out\n        /* \"#utility.yul\":21692:21857   */\n    tag_137:\n        /* \"#utility.yul\":21832:21849   */\n      0x5072696365206e6f7420666f756e640000000000000000000000000000000000\n        /* \"#utility.yul\":21828:21829   */\n      0x00\n        /* \"#utility.yul\":21820:21826   */\n      dup3\n        /* \"#utility.yul\":21816:21830   */\n      add\n        /* \"#utility.yul\":21809:21850   */\n      mstore\n        /* \"#utility.yul\":21692:21857   */\n      pop\n      jump\t// out\n        /* \"#utility.yul\":21863:22229   */\n    tag_138:\n        /* \"#utility.yul\":22005:22008   */\n      0x00\n        /* \"#utility.yul\":22026:22093   */\n      tag_388\n        /* \"#utility.yul\":22090:22092   */\n      0x0f\n        /* \"#utility.yul\":22085:22088   */\n      dup4\n        /* \"#utility.yul\":22026:22093   */\n      tag_136\n      jump\t// in\n    tag_388:\n        /* \"#utility.yul\":22019:22093   */\n      swap2\n      pop\n        /* \"#utility.yul\":22102:22195   */\n      tag_389\n        /* \"#utility.yul\":22191:22194   */\n      dup3\n        /* \"#utility.yul\":22102:22195   */\n      tag_137\n      jump\t// in\n    tag_389:\n        /* \"#utility.yul\":22220:22222   */\n      0x20\n        /* \"#utility.yul\":22215:22218   */\n      dup3\n        /* \"#utility.yul\":22211:22223   */\n      add\n        /* \"#utility.yul\":22204:22223   */\n      swap1\n      pop\n        /* \"#utility.yul\":21863:22229   */\n      swap2\n      swap1\n      pop\n      jump\t// out\n        /* \"#utility.yul\":22235:22654   */\n    tag_61:\n        /* \"#utility.yul\":22401:22405   */\n      0x00\n        /* \"#utility.yul\":22439:22441   */\n      0x20\n        /* \"#utility.yul\":22428:22437   */\n      dup3\n        /* \"#utility.yul\":22424:22442   */\n      add\n        /* \"#utility.yul\":22416:22442   */\n      swap1\n      pop\n        /* \"#utility.yul\":22488:22497   */\n      dup2\n        /* \"#utility.yul\":22482:22486   */\n      dup2\n        /* \"#utility.yul\":22478:22498   */\n      sub\n        /* \"#utility.yul\":22474:22475   */\n      0x00\n        /* \"#utility.yul\":22463:22472   */\n      dup4\n        /* \"#utility.yul\":22459:22476   */\n      add\n        /* \"#utility.yul\":22452:22499   */\n      mstore\n        /* \"#utility.yul\":22516:22647   */\n      tag_391\n        /* \"#utility.yul\":22642:22646   */\n      dup2\n        /* \"#utility.yul\":22516:22647   */\n      tag_138\n      jump\t// in\n    tag_391:\n        /* \"#utility.yul\":22508:22647   */\n      swap1\n      pop\n        /* \"#utility.yul\":22235:22654   */\n      swap2\n      swap1\n      pop\n      jump\t// out\n\n    auxdata: 0xa26469706673582212203e33059898e1add3cc31d491d55f501614c9cdbf691467867c8003addf33912f64736f6c63430008120033\n}\n",
				"bytecode": {
					"linkReferences": {
						"contracts/extern/UintConverter.sol": {
							"UintConverter": [
								{
									"length": 20,
									"start": 573
								},
								{
									"length": 20,
									"start": 834
								}
							]
						}
					},
					"object": "608060405234801561001057600080fd5b5061125b806100206000396000f3fe608060405234801561001057600080fd5b506004361061004c5760003560e01c80631f3124041461005157806327e50822146100825780634cb5960e1461009e578063ac41865a146100ba575b600080fd5b61006b600480360381019061006691906106fa565b6100eb565b604051610079929190610753565b60405180910390f35b61009c6004803603810190610097919061077c565b61011c565b005b6100b860048036038101906100b3919061077c565b610451565b005b6100d460048036038101906100cf91906106fa565b61058a565b6040516100e2929190610753565b60405180910390f35b6000602052816000526040600020602052806000526040600020600091509150508060000154908060010154905082565b60008173ffffffffffffffffffffffffffffffffffffffff16631698ee828585610bb86040518463ffffffff1660e01b815260040161015d93929190610832565b602060405180830381865afa15801561017a573d6000803e3d6000fd5b505050506040513d601f19601f8201168201806040525081019061019e919061087e565b905060008173ffffffffffffffffffffffffffffffffffffffff16633850c7bd6040518163ffffffff1660e01b815260040160e060405180830381865afa1580156101ed573d6000803e3d6000fd5b505050506040513d601f19601f8201168201806040525081019061021191906109bb565b5050505050509050600073__$6b987ef4b450ce1799bf86fcb8b1f4e805$__6395fc4af5836040518263ffffffff1660e01b81526004016102529190610a6c565b600060405180830381865af415801561026f573d6000803e3d6000fd5b505050506040513d6000823e3d601f19601f820116820180604052508101906102989190610c1c565b905060008373ffffffffffffffffffffffffffffffffffffffff1663883bdbfd836040518263ffffffff1660e01b81526004016102d59190610d23565b600060405180830381865afa1580156102f2573d6000803e3d6000fd5b505050506040513d6000823e3d601f19601f8201168201806040525081019061031b9190610f04565b509050600073__$6b987ef4b450ce1799bf86fcb8b1f4e805$__636022bb7b836040518263ffffffff1660e01b8152600401610357919061103a565b602060405180830381865af4158015610374573d6000803e3d6000fd5b505050506040513d601f19601f820116820180604052508101906103989190611088565b905060004290506040518060400160405280838152602001828152506000808b73ffffffffffffffffffffffffffffffffffffffff1673ffffffffffffffffffffffffffffffffffffffff16815260200190815260200160002060008a73ffffffffffffffffffffffffffffffffffffffff1673ffffffffffffffffffffffffffffffffffffffff1681526020019081526020016000206000820151816000015560208201518160010155905050505050505050505050565b60008190506000808273ffffffffffffffffffffffffffffffffffffffff1663feaf968c6040518163ffffffff1660e01b815260040160a060405180830381865afa1580156104a4573d6000803e3d6000fd5b505050506040513d601f19601f820116820180604052508101906104c8919061112d565b5050509150915060405180604001604052808369ffffffffffffffffffff168152602001828152506000808873ffffffffffffffffffffffffffffffffffffffff1673ffffffffffffffffffffffffffffffffffffffff16815260200190815260200160002060008773ffffffffffffffffffffffffffffffffffffffff1673ffffffffffffffffffffffffffffffffffffffff1681526020019081526020016000206000820151816000015560208201518160010155905050505050505050565b60008060008060008673ffffffffffffffffffffffffffffffffffffffff1673ffffffffffffffffffffffffffffffffffffffff16815260200190815260200160002060008573ffffffffffffffffffffffffffffffffffffffff1673ffffffffffffffffffffffffffffffffffffffff1681526020019081526020016000206040518060400160405290816000820154815260200160018201548152505090506000816020015111610672576040517f08c379a000000000000000000000000000000000000000000000000000000000815260040161066990611205565b60405180910390fd5b8060000151816020015192509250509250929050565b6000604051905090565b600080fd5b600080fd5b600073ffffffffffffffffffffffffffffffffffffffff82169050919050565b60006106c78261069c565b9050919050565b6106d7816106bc565b81146106e257600080fd5b50565b6000813590506106f4816106ce565b92915050565b6000806040838503121561071157610710610692565b5b600061071f858286016106e5565b9250506020610730858286016106e5565b9150509250929050565b6000819050919050565b61074d8161073a565b82525050565b60006040820190506107686000830185610744565b6107756020830184610744565b9392505050565b60008060006060848603121561079557610794610692565b5b60006107a3868287016106e5565b93505060206107b4868287016106e5565b92505060406107c5868287016106e5565b9150509250925092565b6107d8816106bc565b82525050565b6000819050919050565b600062ffffff82169050919050565b6000819050919050565b600061081c610817610812846107de565b6107f7565b6107e8565b9050919050565b61082c81610801565b82525050565b600060608201905061084760008301866107cf565b61085460208301856107cf565b6108616040830184610823565b949350505050565b600081519050610878816106ce565b92915050565b60006020828403121561089457610893610692565b5b60006108a284828501610869565b91505092915050565b6108b48161069c565b81146108bf57600080fd5b50565b6000815190506108d1816108ab565b92915050565b60008160020b9050919050565b6108ed816108d7565b81146108f857600080fd5b50565b60008151905061090a816108e4565b92915050565b600061ffff82169050919050565b61092781610910565b811461093257600080fd5b50565b6000815190506109448161091e565b92915050565b600060ff82169050919050565b6109608161094a565b811461096b57600080fd5b50565b60008151905061097d81610957565b92915050565b60008115159050919050565b61099881610983565b81146109a357600080fd5b50565b6000815190506109b58161098f565b92915050565b600080600080600080600060e0888a0312156109da576109d9610692565b5b60006109e88a828b016108c2565b97505060206109f98a828b016108fb565b9650506040610a0a8a828b01610935565b9550506060610a1b8a828b01610935565b9450506080610a2c8a828b01610935565b93505060a0610a3d8a828b0161096e565b92505060c0610a4e8a828b016109a6565b91505092959891949750929550565b610a668161069c565b82525050565b6000602082019050610a816000830184610a5d565b92915050565b600080fd5b6000601f19601f8301169050919050565b7f4e487b7100000000000000000000000000000000000000000000000000000000600052604160045260246000fd5b610ad582610a8c565b810181811067ffffffffffffffff82111715610af457610af3610a9d565b5b80604052505050565b6000610b07610688565b9050610b138282610acc565b919050565b600067ffffffffffffffff821115610b3357610b32610a9d565b5b602082029050602081019050919050565b600080fd5b600063ffffffff82169050919050565b610b6281610b49565b8114610b6d57600080fd5b50565b600081519050610b7f81610b59565b92915050565b6000610b98610b9384610b18565b610afd565b90508083825260208201905060208402830185811115610bbb57610bba610b44565b5b835b81811015610be45780610bd08882610b70565b845260208401935050602081019050610bbd565b5050509392505050565b600082601f830112610c0357610c02610a87565b5b8151610c13848260208601610b85565b91505092915050565b600060208284031215610c3257610c31610692565b5b600082015167ffffffffffffffff811115610c5057610c4f610697565b5b610c5c84828501610bee565b91505092915050565b600081519050919050565b600082825260208201905092915050565b6000819050602082019050919050565b610c9a81610b49565b82525050565b6000610cac8383610c91565b60208301905092915050565b6000602082019050919050565b6000610cd082610c65565b610cda8185610c70565b9350610ce583610c81565b8060005b83811015610d16578151610cfd8882610ca0565b9750610d0883610cb8565b925050600181019050610ce9565b5085935050505092915050565b60006020820190508181036000830152610d3d8184610cc5565b905092915050565b600067ffffffffffffffff821115610d6057610d5f610a9d565b5b602082029050602081019050919050565b60008160060b9050919050565b610d8781610d71565b8114610d9257600080fd5b50565b600081519050610da481610d7e565b92915050565b6000610dbd610db884610d45565b610afd565b90508083825260208201905060208402830185811115610de057610ddf610b44565b5b835b81811015610e095780610df58882610d95565b845260208401935050602081019050610de2565b5050509392505050565b600082601f830112610e2857610e27610a87565b5b8151610e38848260208601610daa565b91505092915050565b600067ffffffffffffffff821115610e5c57610e5b610a9d565b5b602082029050602081019050919050565b6000610e80610e7b84610e41565b610afd565b90508083825260208201905060208402830185811115610ea357610ea2610b44565b5b835b81811015610ecc5780610eb888826108c2565b845260208401935050602081019050610ea5565b5050509392505050565b600082601f830112610eeb57610eea610a87565b5b8151610efb848260208601610e6d565b91505092915050565b60008060408385031215610f1b57610f1a610692565b5b600083015167ffffffffffffffff811115610f3957610f38610697565b5b610f4585828601610e13565b925050602083015167ffffffffffffffff811115610f6657610f65610697565b5b610f7285828601610ed6565b9150509250929050565b600081519050919050565b600082825260208201905092915050565b6000819050602082019050919050565b610fb181610d71565b82525050565b6000610fc38383610fa8565b60208301905092915050565b6000602082019050919050565b6000610fe782610f7c565b610ff18185610f87565b9350610ffc83610f98565b8060005b8381101561102d5781516110148882610fb7565b975061101f83610fcf565b925050600181019050611000565b5085935050505092915050565b600060208201905081810360008301526110548184610fdc565b905092915050565b6110658161073a565b811461107057600080fd5b50565b6000815190506110828161105c565b92915050565b60006020828403121561109e5761109d610692565b5b60006110ac84828501611073565b91505092915050565b600069ffffffffffffffffffff82169050919050565b6110d4816110b5565b81146110df57600080fd5b50565b6000815190506110f1816110cb565b92915050565b6000819050919050565b61110a816110f7565b811461111557600080fd5b50565b60008151905061112781611101565b92915050565b600080600080600060a0868803121561114957611148610692565b5b6000611157888289016110e2565b955050602061116888828901611118565b945050604061117988828901611073565b935050606061118a88828901611073565b925050608061119b888289016110e2565b9150509295509295909350565b600082825260208201905092915050565b7f5072696365206e6f7420666f756e640000000000000000000000000000000000600082015250565b60006111ef600f836111a8565b91506111fa826111b9565b602082019050919050565b6000602082019050818103600083015261121e816111e2565b905091905056fea26469706673582212203e33059898e1add3cc31d491d55f501614c9cdbf691467867c8003addf33912f64736f6c63430008120033",
					"opcodes": "PUSH1 0x80 PUSH1 0x40 MSTORE CALLVALUE DUP1 ISZERO PUSH2 0x10 JUMPI PUSH1 0x0 DUP1 REVERT JUMPDEST POP PUSH2 0x125B DUP1 PUSH2 0x20 PUSH1 0x0 CODECOPY PUSH1 0x0 RETURN INVALID PUSH1 0x80 PUSH1 0x40 MSTORE CALLVALUE DUP1 ISZERO PUSH2 0x10 JUMPI PUSH1 0x0 DUP1 REVERT JUMPDEST POP PUSH1 0x4 CALLDATASIZE LT PUSH2 0x4C JUMPI PUSH1 0x0 CALLDATALOAD PUSH1 0xE0 SHR DUP1 PUSH4 0x1F312404 EQ PUSH2 0x51 JUMPI DUP1 PUSH4 0x27E50822 EQ PUSH2 0x82 JUMPI DUP1 PUSH4 0x4CB5960E EQ PUSH2 0x9E JUMPI DUP1 PUSH4 0xAC41865A EQ PUSH2 0xBA JUMPI JUMPDEST PUSH1 0x0 DUP1 REVERT JUMPDEST PUSH2 0x6B PUSH1 0x4 DUP1 CALLDATASIZE SUB DUP2 ADD SWAP1 PUSH2 0x66 SWAP2 SWAP1 PUSH2 0x6FA JUMP JUMPDEST PUSH2 0xEB JUMP JUMPDEST PUSH1 0x40 MLOAD PUSH2 0x79 SWAP3 SWAP2 SWAP1 PUSH2 0x753 JUMP JUMPDEST PUSH1 0x40 MLOAD DUP1 SWAP2 SUB SWAP1 RETURN JUMPDEST PUSH2 0x9C PUSH1 0x4 DUP1 CALLDATASIZE SUB DUP2 ADD SWAP1 PUSH2 0x97 SWAP2 SWAP1 PUSH2 0x77C JUMP JUMPDEST PUSH2 0x11C JUMP JUMPDEST STOP JUMPDEST PUSH2 0xB8 PUSH1 0x4 DUP1 CALLDATASIZE SUB DUP2 ADD SWAP1 PUSH2 0xB3 SWAP2 SWAP1 PUSH2 0x77C JUMP JUMPDEST PUSH2 0x451 JUMP JUMPDEST STOP JUMPDEST PUSH2 0xD4 PUSH1 0x4 DUP1 CALLDATASIZE SUB DUP2 ADD SWAP1 PUSH2 0xCF SWAP2 SWAP1 PUSH2 0x6FA JUMP JUMPDEST PUSH2 0x58A JUMP JUMPDEST PUSH1 0x40 MLOAD PUSH2 0xE2 SWAP3 SWAP2 SWAP1 PUSH2 0x753 JUMP JUMPDEST PUSH1 0x40 MLOAD DUP1 SWAP2 SUB SWAP1 RETURN JUMPDEST PUSH1 0x0 PUSH1 0x20 MSTORE DUP2 PUSH1 0x0 MSTORE PUSH1 0x40 PUSH1 0x0 KECCAK256 PUSH1 0x20 MSTORE DUP1 PUSH1 0x0 MSTORE PUSH1 0x40 PUSH1 0x0 KECCAK256 PUSH1 0x0 SWAP2 POP SWAP2 POP POP DUP1 PUSH1 0x0 ADD SLOAD SWAP1 DUP1 PUSH1 0x1 ADD SLOAD SWAP1 POP DUP3 JUMP JUMPDEST PUSH1 0x0 DUP2 PUSH20 0xFFFFFFFFFFFFFFFFFFFFFFFFFFFFFFFFFFFFFFFF AND PUSH4 0x1698EE82 DUP6 DUP6 PUSH2 0xBB8 PUSH1 0x40 MLOAD DUP5 PUSH4 0xFFFFFFFF AND PUSH1 0xE0 SHL DUP2 MSTORE PUSH1 0x4 ADD PUSH2 0x15D SWAP4 SWAP3 SWAP2 SWAP1 PUSH2 0x832 JUMP JUMPDEST PUSH1 0x20 PUSH1 0x40 MLOAD DUP1 DUP4 SUB DUP2 DUP7 GAS STATICCALL ISZERO DUP1 ISZERO PUSH2 0x17A JUMPI RETURNDATASIZE PUSH1 0x0 DUP1 RETURNDATACOPY RETURNDATASIZE PUSH1 0x0 REVERT JUMPDEST POP POP POP POP PUSH1 0x40 MLOAD RETURNDATASIZE PUSH1 0x1F NOT PUSH1 0x1F DUP3 ADD AND DUP3 ADD DUP1 PUSH1 0x40 MSTORE POP DUP2 ADD SWAP1 PUSH2 0x19E SWAP2 SWAP1 PUSH2 0x87E JUMP JUMPDEST SWAP1 POP PUSH1 0x0 DUP2 PUSH20 0xFFFFFFFFFFFFFFFFFFFFFFFFFFFFFFFFFFFFFFFF AND PUSH4 0x3850C7BD PUSH1 0x40 MLOAD DUP2 PUSH4 0xFFFFFFFF AND PUSH1 0xE0 SHL DUP2 MSTORE PUSH1 0x4 ADD PUSH1 0xE0 PUSH1 0x40 MLOAD DUP1 DUP4 SUB DUP2 DUP7 GAS STATICCALL ISZERO DUP1 ISZERO PUSH2 0x1ED JUMPI RETURNDATASIZE PUSH1 0x0 DUP1 RETURNDATACOPY RETURNDATASIZE PUSH1 0x0 REVERT JUMPDEST POP POP POP POP PUSH1 0x40 MLOAD RETURNDATASIZE PUSH1 0x1F NOT PUSH1 0x1F DUP3 ADD AND DUP3 ADD DUP1 PUSH1 0x40 MSTORE POP DUP2 ADD SWAP1 PUSH2 0x211 SWAP2 SWAP1 PUSH2 0x9BB JUMP JUMPDEST POP POP POP POP POP POP SWAP1 POP PUSH1 0x0 PUSH20 0x0 PUSH4 0x95FC4AF5 DUP4 PUSH1 0x40 MLOAD DUP3 PUSH4 0xFFFFFFFF AND PUSH1 0xE0 SHL DUP2 MSTORE PUSH1 0x4 ADD PUSH2 0x252 SWAP2 SWAP1 PUSH2 0xA6C JUMP JUMPDEST PUSH1 0x0 PUSH1 0x40 MLOAD DUP1 DUP4 SUB DUP2 DUP7 GAS DELEGATECALL ISZERO DUP1 ISZERO PUSH2 0x26F JUMPI RETURNDATASIZE PUSH1 0x0 DUP1 RETURNDATACOPY RETURNDATASIZE PUSH1 0x0 REVERT JUMPDEST POP POP POP POP PUSH1 0x40 MLOAD RETURNDATASIZE PUSH1 0x0 DUP3 RETURNDATACOPY RETURNDATASIZE PUSH1 0x1F NOT PUSH1 0x1F DUP3 ADD AND DUP3 ADD DUP1 PUSH1 0x40 MSTORE POP DUP2 ADD SWAP1 PUSH2 0x298 SWAP2 SWAP1 PUSH2 0xC1C JUMP JUMPDEST SWAP1 POP PUSH1 0x0 DUP4 PUSH20 0xFFFFFFFFFFFFFFFFFFFFFFFFFFFFFFFFFFFFFFFF AND PUSH4 0x883BDBFD DUP4 PUSH1 0x40 MLOAD DUP3 PUSH4 0xFFFFFFFF AND PUSH1 0xE0 SHL DUP2 MSTORE PUSH1 0x4 ADD PUSH2 0x2D5 SWAP2 SWAP1 PUSH2 0xD23 JUMP JUMPDEST PUSH1 0x0 PUSH1 0x40 MLOAD DUP1 DUP4 SUB DUP2 DUP7 GAS STATICCALL ISZERO DUP1 ISZERO PUSH2 0x2F2 JUMPI RETURNDATASIZE PUSH1 0x0 DUP1 RETURNDATACOPY RETURNDATASIZE PUSH1 0x0 REVERT JUMPDEST POP POP POP POP PUSH1 0x40 MLOAD RETURNDATASIZE PUSH1 0x0 DUP3 RETURNDATACOPY RETURNDATASIZE PUSH1 0x1F NOT PUSH1 0x1F DUP3 ADD AND DUP3 ADD DUP1 PUSH1 0x40 MSTORE POP DUP2 ADD SWAP1 PUSH2 0x31B SWAP2 SWAP1 PUSH2 0xF04 JUMP JUMPDEST POP SWAP1 POP PUSH1 0x0 PUSH20 0x0 PUSH4 0x6022BB7B DUP4 PUSH1 0x40 MLOAD DUP3 PUSH4 0xFFFFFFFF AND PUSH1 0xE0 SHL DUP2 MSTORE PUSH1 0x4 ADD PUSH2 0x357 SWAP2 SWAP1 PUSH2 0x103A JUMP JUMPDEST PUSH1 0x20 PUSH1 0x40 MLOAD DUP1 DUP4 SUB DUP2 DUP7 GAS DELEGATECALL ISZERO DUP1 ISZERO PUSH2 0x374 JUMPI RETURNDATASIZE PUSH1 0x0 DUP1 RETURNDATACOPY RETURNDATASIZE PUSH1 0x0 REVERT JUMPDEST POP POP POP POP PUSH1 0x40 MLOAD RETURNDATASIZE PUSH1 0x1F NOT PUSH1 0x1F DUP3 ADD AND DUP3 ADD DUP1 PUSH1 0x40 MSTORE POP DUP2 ADD SWAP1 PUSH2 0x398 SWAP2 SWAP1 PUSH2 0x1088 JUMP JUMPDEST SWAP1 POP PUSH1 0x0 TIMESTAMP SWAP1 POP PUSH1 0x40 MLOAD DUP1 PUSH1 0x40 ADD PUSH1 0x40 MSTORE DUP1 DUP4 DUP2 MSTORE PUSH1 0x20 ADD DUP3 DUP2 MSTORE POP PUSH1 0x0 DUP1 DUP12 PUSH20 0xFFFFFFFFFFFFFFFFFFFFFFFFFFFFFFFFFFFFFFFF AND PUSH20 0xFFFFFFFFFFFFFFFFFFFFFFFFFFFFFFFFFFFFFFFF AND DUP2 MSTORE PUSH1 0x20 ADD SWAP1 DUP2 MSTORE PUSH1 0x20 ADD PUSH1 0x0 KECCAK256 PUSH1 0x0 DUP11 PUSH20 0xFFFFFFFFFFFFFFFFFFFFFFFFFFFFFFFFFFFFFFFF AND PUSH20 0xFFFFFFFFFFFFFFFFFFFFFFFFFFFFFFFFFFFFFFFF AND DUP2 MSTORE PUSH1 0x20 ADD SWAP1 DUP2 MSTORE PUSH1 0x20 ADD PUSH1 0x0 KECCAK256 PUSH1 0x0 DUP3 ADD MLOAD DUP2 PUSH1 0x0 ADD SSTORE PUSH1 0x20 DUP3 ADD MLOAD DUP2 PUSH1 0x1 ADD SSTORE SWAP1 POP POP POP POP POP POP POP POP POP POP POP JUMP JUMPDEST PUSH1 0x0 DUP2 SWAP1 POP PUSH1 0x0 DUP1 DUP3 PUSH20 0xFFFFFFFFFFFFFFFFFFFFFFFFFFFFFFFFFFFFFFFF AND PUSH4 0xFEAF968C PUSH1 0x40 MLOAD DUP2 PUSH4 0xFFFFFFFF AND PUSH1 0xE0 SHL DUP2 MSTORE PUSH1 0x4 ADD PUSH1 0xA0 PUSH1 0x40 MLOAD DUP1 DUP4 SUB DUP2 DUP7 GAS STATICCALL ISZERO DUP1 ISZERO PUSH2 0x4A4 JUMPI RETURNDATASIZE PUSH1 0x0 DUP1 RETURNDATACOPY RETURNDATASIZE PUSH1 0x0 REVERT JUMPDEST POP POP POP POP PUSH1 0x40 MLOAD RETURNDATASIZE PUSH1 0x1F NOT PUSH1 0x1F DUP3 ADD AND DUP3 ADD DUP1 PUSH1 0x40 MSTORE POP DUP2 ADD SWAP1 PUSH2 0x4C8 SWAP2 SWAP1 PUSH2 0x112D JUMP JUMPDEST POP POP POP SWAP2 POP SWAP2 POP PUSH1 0x40 MLOAD DUP1 PUSH1 0x40 ADD PUSH1 0x40 MSTORE DUP1 DUP4 PUSH10 0xFFFFFFFFFFFFFFFFFFFF AND DUP2 MSTORE PUSH1 0x20 ADD DUP3 DUP2 MSTORE POP PUSH1 0x0 DUP1 DUP9 PUSH20 0xFFFFFFFFFFFFFFFFFFFFFFFFFFFFFFFFFFFFFFFF AND PUSH20 0xFFFFFFFFFFFFFFFFFFFFFFFFFFFFFFFFFFFFFFFF AND DUP2 MSTORE PUSH1 0x20 ADD SWAP1 DUP2 MSTORE PUSH1 0x20 ADD PUSH1 0x0 KECCAK256 PUSH1 0x0 DUP8 PUSH20 0xFFFFFFFFFFFFFFFFFFFFFFFFFFFFFFFFFFFFFFFF AND PUSH20 0xFFFFFFFFFFFFFFFFFFFFFFFFFFFFFFFFFFFFFFFF AND DUP2 MSTORE PUSH1 0x20 ADD SWAP1 DUP2 MSTORE PUSH1 0x20 ADD PUSH1 0x0 KECCAK256 PUSH1 0x0 DUP3 ADD MLOAD DUP2 PUSH1 0x0 ADD SSTORE PUSH1 0x20 DUP3 ADD MLOAD DUP2 PUSH1 0x1 ADD SSTORE SWAP1 POP POP POP POP POP POP POP POP JUMP JUMPDEST PUSH1 0x0 DUP1 PUSH1 0x0 DUP1 PUSH1 0x0 DUP7 PUSH20 0xFFFFFFFFFFFFFFFFFFFFFFFFFFFFFFFFFFFFFFFF AND PUSH20 0xFFFFFFFFFFFFFFFFFFFFFFFFFFFFFFFFFFFFFFFF AND DUP2 MSTORE PUSH1 0x20 ADD SWAP1 DUP2 MSTORE PUSH1 0x20 ADD PUSH1 0x0 KECCAK256 PUSH1 0x0 DUP6 PUSH20 0xFFFFFFFFFFFFFFFFFFFFFFFFFFFFFFFFFFFFFFFF AND PUSH20 0xFFFFFFFFFFFFFFFFFFFFFFFFFFFFFFFFFFFFFFFF AND DUP2 MSTORE PUSH1 0x20 ADD SWAP1 DUP2 MSTORE PUSH1 0x20 ADD PUSH1 0x0 KECCAK256 PUSH1 0x40 MLOAD DUP1 PUSH1 0x40 ADD PUSH1 0x40 MSTORE SWAP1 DUP2 PUSH1 0x0 DUP3 ADD SLOAD DUP2 MSTORE PUSH1 0x20 ADD PUSH1 0x1 DUP3 ADD SLOAD DUP2 MSTORE POP POP SWAP1 POP PUSH1 0x0 DUP2 PUSH1 0x20 ADD MLOAD GT PUSH2 0x672 JUMPI PUSH1 0x40 MLOAD PUSH32 0x8C379A000000000000000000000000000000000000000000000000000000000 DUP2 MSTORE PUSH1 0x4 ADD PUSH2 0x669 SWAP1 PUSH2 0x1205 JUMP JUMPDEST PUSH1 0x40 MLOAD DUP1 SWAP2 SUB SWAP1 REVERT JUMPDEST DUP1 PUSH1 0x0 ADD MLOAD DUP2 PUSH1 0x20 ADD MLOAD SWAP3 POP SWAP3 POP POP SWAP3 POP SWAP3 SWAP1 POP JUMP JUMPDEST PUSH1 0x0 PUSH1 0x40 MLOAD SWAP1 POP SWAP1 JUMP JUMPDEST PUSH1 0x0 DUP1 REVERT JUMPDEST PUSH1 0x0 DUP1 REVERT JUMPDEST PUSH1 0x0 PUSH20 0xFFFFFFFFFFFFFFFFFFFFFFFFFFFFFFFFFFFFFFFF DUP3 AND SWAP1 POP SWAP2 SWAP1 POP JUMP JUMPDEST PUSH1 0x0 PUSH2 0x6C7 DUP3 PUSH2 0x69C JUMP JUMPDEST SWAP1 POP SWAP2 SWAP1 POP JUMP JUMPDEST PUSH2 0x6D7 DUP2 PUSH2 0x6BC JUMP JUMPDEST DUP2 EQ PUSH2 0x6E2 JUMPI PUSH1 0x0 DUP1 REVERT JUMPDEST POP JUMP JUMPDEST PUSH1 0x0 DUP2 CALLDATALOAD SWAP1 POP PUSH2 0x6F4 DUP2 PUSH2 0x6CE JUMP JUMPDEST SWAP3 SWAP2 POP POP JUMP JUMPDEST PUSH1 0x0 DUP1 PUSH1 0x40 DUP4 DUP6 SUB SLT ISZERO PUSH2 0x711 JUMPI PUSH2 0x710 PUSH2 0x692 JUMP JUMPDEST JUMPDEST PUSH1 0x0 PUSH2 0x71F DUP6 DUP3 DUP7 ADD PUSH2 0x6E5 JUMP JUMPDEST SWAP3 POP POP PUSH1 0x20 PUSH2 0x730 DUP6 DUP3 DUP7 ADD PUSH2 0x6E5 JUMP JUMPDEST SWAP2 POP POP SWAP3 POP SWAP3 SWAP1 POP JUMP JUMPDEST PUSH1 0x0 DUP2 SWAP1 POP SWAP2 SWAP1 POP JUMP JUMPDEST PUSH2 0x74D DUP2 PUSH2 0x73A JUMP JUMPDEST DUP3 MSTORE POP POP JUMP JUMPDEST PUSH1 0x0 PUSH1 0x40 DUP3 ADD SWAP1 POP PUSH2 0x768 PUSH1 0x0 DUP4 ADD DUP6 PUSH2 0x744 JUMP JUMPDEST PUSH2 0x775 PUSH1 0x20 DUP4 ADD DUP5 PUSH2 0x744 JUMP JUMPDEST SWAP4 SWAP3 POP POP POP JUMP JUMPDEST PUSH1 0x0 DUP1 PUSH1 0x0 PUSH1 0x60 DUP5 DUP7 SUB SLT ISZERO PUSH2 0x795 JUMPI PUSH2 0x794 PUSH2 0x692 JUMP JUMPDEST JUMPDEST PUSH1 0x0 PUSH2 0x7A3 DUP7 DUP3 DUP8 ADD PUSH2 0x6E5 JUMP JUMPDEST SWAP4 POP POP PUSH1 0x20 PUSH2 0x7B4 DUP7 DUP3 DUP8 ADD PUSH2 0x6E5 JUMP JUMPDEST SWAP3 POP POP PUSH1 0x40 PUSH2 0x7C5 DUP7 DUP3 DUP8 ADD PUSH2 0x6E5 JUMP JUMPDEST SWAP2 POP POP SWAP3 POP SWAP3 POP SWAP3 JUMP JUMPDEST PUSH2 0x7D8 DUP2 PUSH2 0x6BC JUMP JUMPDEST DUP3 MSTORE POP POP JUMP JUMPDEST PUSH1 0x0 DUP2 SWAP1 POP SWAP2 SWAP1 POP JUMP JUMPDEST PUSH1 0x0 PUSH3 0xFFFFFF DUP3 AND SWAP1 POP SWAP2 SWAP1 POP JUMP JUMPDEST PUSH1 0x0 DUP2 SWAP1 POP SWAP2 SWAP1 POP JUMP JUMPDEST PUSH1 0x0 PUSH2 0x81C PUSH2 0x817 PUSH2 0x812 DUP5 PUSH2 0x7DE JUMP JUMPDEST PUSH2 0x7F7 JUMP JUMPDEST PUSH2 0x7E8 JUMP JUMPDEST SWAP1 POP SWAP2 SWAP1 POP JUMP JUMPDEST PUSH2 0x82C DUP2 PUSH2 0x801 JUMP JUMPDEST DUP3 MSTORE POP POP JUMP JUMPDEST PUSH1 0x0 PUSH1 0x60 DUP3 ADD SWAP1 POP PUSH2 0x847 PUSH1 0x0 DUP4 ADD DUP7 PUSH2 0x7CF JUMP JUMPDEST PUSH2 0x854 PUSH1 0x20 DUP4 ADD DUP6 PUSH2 0x7CF JUMP JUMPDEST PUSH2 0x861 PUSH1 0x40 DUP4 ADD DUP5 PUSH2 0x823 JUMP JUMPDEST SWAP5 SWAP4 POP POP POP POP JUMP JUMPDEST PUSH1 0x0 DUP2 MLOAD SWAP1 POP PUSH2 0x878 DUP2 PUSH2 0x6CE JUMP JUMPDEST SWAP3 SWAP2 POP POP JUMP JUMPDEST PUSH1 0x0 PUSH1 0x20 DUP3 DUP5 SUB SLT ISZERO PUSH2 0x894 JUMPI PUSH2 0x893 PUSH2 0x692 JUMP JUMPDEST JUMPDEST PUSH1 0x0 PUSH2 0x8A2 DUP5 DUP3 DUP6 ADD PUSH2 0x869 JUMP JUMPDEST SWAP2 POP POP SWAP3 SWAP2 POP POP JUMP JUMPDEST PUSH2 0x8B4 DUP2 PUSH2 0x69C JUMP JUMPDEST DUP2 EQ PUSH2 0x8BF JUMPI PUSH1 0x0 DUP1 REVERT JUMPDEST POP JUMP JUMPDEST PUSH1 0x0 DUP2 MLOAD SWAP1 POP PUSH2 0x8D1 DUP2 PUSH2 0x8AB JUMP JUMPDEST SWAP3 SWAP2 POP POP JUMP JUMPDEST PUSH1 0x0 DUP2 PUSH1 0x2 SIGNEXTEND SWAP1 POP SWAP2 SWAP1 POP JUMP JUMPDEST PUSH2 0x8ED DUP2 PUSH2 0x8D7 JUMP JUMPDEST DUP2 EQ PUSH2 0x8F8 JUMPI PUSH1 0x0 DUP1 REVERT JUMPDEST POP JUMP JUMPDEST PUSH1 0x0 DUP2 MLOAD SWAP1 POP PUSH2 0x90A DUP2 PUSH2 0x8E4 JUMP JUMPDEST SWAP3 SWAP2 POP POP JUMP JUMPDEST PUSH1 0x0 PUSH2 0xFFFF DUP3 AND SWAP1 POP SWAP2 SWAP1 POP JUMP JUMPDEST PUSH2 0x927 DUP2 PUSH2 0x910 JUMP JUMPDEST DUP2 EQ PUSH2 0x932 JUMPI PUSH1 0x0 DUP1 REVERT JUMPDEST POP JUMP JUMPDEST PUSH1 0x0 DUP2 MLOAD SWAP1 POP PUSH2 0x944 DUP2 PUSH2 0x91E JUMP JUMPDEST SWAP3 SWAP2 POP POP JUMP JUMPDEST PUSH1 0x0 PUSH1 0xFF DUP3 AND SWAP1 POP SWAP2 SWAP1 POP JUMP JUMPDEST PUSH2 0x960 DUP2 PUSH2 0x94A JUMP JUMPDEST DUP2 EQ PUSH2 0x96B JUMPI PUSH1 0x0 DUP1 REVERT JUMPDEST POP JUMP JUMPDEST PUSH1 0x0 DUP2 MLOAD SWAP1 POP PUSH2 0x97D DUP2 PUSH2 0x957 JUMP JUMPDEST SWAP3 SWAP2 POP POP JUMP JUMPDEST PUSH1 0x0 DUP2 ISZERO ISZERO SWAP1 POP SWAP2 SWAP1 POP JUMP JUMPDEST PUSH2 0x998 DUP2 PUSH2 0x983 JUMP JUMPDEST DUP2 EQ PUSH2 0x9A3 JUMPI PUSH1 0x0 DUP1 REVERT JUMPDEST POP JUMP JUMPDEST PUSH1 0x0 DUP2 MLOAD SWAP1 POP PUSH2 0x9B5 DUP2 PUSH2 0x98F JUMP JUMPDEST SWAP3 SWAP2 POP POP JUMP JUMPDEST PUSH1 0x0 DUP1 PUSH1 0x0 DUP1 PUSH1 0x0 DUP1 PUSH1 0x0 PUSH1 0xE0 DUP9 DUP11 SUB SLT ISZERO PUSH2 0x9DA JUMPI PUSH2 0x9D9 PUSH2 0x692 JUMP JUMPDEST JUMPDEST PUSH1 0x0 PUSH2 0x9E8 DUP11 DUP3 DUP12 ADD PUSH2 0x8C2 JUMP JUMPDEST SWAP8 POP POP PUSH1 0x20 PUSH2 0x9F9 DUP11 DUP3 DUP12 ADD PUSH2 0x8FB JUMP JUMPDEST SWAP7 POP POP PUSH1 0x40 PUSH2 0xA0A DUP11 DUP3 DUP12 ADD PUSH2 0x935 JUMP JUMPDEST SWAP6 POP POP PUSH1 0x60 PUSH2 0xA1B DUP11 DUP3 DUP12 ADD PUSH2 0x935 JUMP JUMPDEST SWAP5 POP POP PUSH1 0x80 PUSH2 0xA2C DUP11 DUP3 DUP12 ADD PUSH2 0x935 JUMP JUMPDEST SWAP4 POP POP PUSH1 0xA0 PUSH2 0xA3D DUP11 DUP3 DUP12 ADD PUSH2 0x96E JUMP JUMPDEST SWAP3 POP POP PUSH1 0xC0 PUSH2 0xA4E DUP11 DUP3 DUP12 ADD PUSH2 0x9A6 JUMP JUMPDEST SWAP2 POP POP SWAP3 SWAP6 SWAP9 SWAP2 SWAP5 SWAP8 POP SWAP3 SWAP6 POP JUMP JUMPDEST PUSH2 0xA66 DUP2 PUSH2 0x69C JUMP JUMPDEST DUP3 MSTORE POP POP JUMP JUMPDEST PUSH1 0x0 PUSH1 0x20 DUP3 ADD SWAP1 POP PUSH2 0xA81 PUSH1 0x0 DUP4 ADD DUP5 PUSH2 0xA5D JUMP JUMPDEST SWAP3 SWAP2 POP POP JUMP JUMPDEST PUSH1 0x0 DUP1 REVERT JUMPDEST PUSH1 0x0 PUSH1 0x1F NOT PUSH1 0x1F DUP4 ADD AND SWAP1 POP SWAP2 SWAP1 POP JUMP JUMPDEST PUSH32 0x4E487B7100000000000000000000000000000000000000000000000000000000 PUSH1 0x0 MSTORE PUSH1 0x41 PUSH1 0x4 MSTORE PUSH1 0x24 PUSH1 0x0 REVERT JUMPDEST PUSH2 0xAD5 DUP3 PUSH2 0xA8C JUMP JUMPDEST DUP2 ADD DUP2 DUP2 LT PUSH8 0xFFFFFFFFFFFFFFFF DUP3 GT OR ISZERO PUSH2 0xAF4 JUMPI PUSH2 0xAF3 PUSH2 0xA9D JUMP JUMPDEST JUMPDEST DUP1 PUSH1 0x40 MSTORE POP POP POP JUMP JUMPDEST PUSH1 0x0 PUSH2 0xB07 PUSH2 0x688 JUMP JUMPDEST SWAP1 POP PUSH2 0xB13 DUP3 DUP3 PUSH2 0xACC JUMP JUMPDEST SWAP2 SWAP1 POP JUMP JUMPDEST PUSH1 0x0 PUSH8 0xFFFFFFFFFFFFFFFF DUP3 GT ISZERO PUSH2 0xB33 JUMPI PUSH2 0xB32 PUSH2 0xA9D JUMP JUMPDEST JUMPDEST PUSH1 0x20 DUP3 MUL SWAP1 POP PUSH1 0x20 DUP2 ADD SWAP1 POP SWAP2 SWAP1 POP JUMP JUMPDEST PUSH1 0x0 DUP1 REVERT JUMPDEST PUSH1 0x0 PUSH4 0xFFFFFFFF DUP3 AND SWAP1 POP SWAP2 SWAP1 POP JUMP JUMPDEST PUSH2 0xB62 DUP2 PUSH2 0xB49 JUMP JUMPDEST DUP2 EQ PUSH2 0xB6D JUMPI PUSH1 0x0 DUP1 REVERT JUMPDEST POP JUMP JUMPDEST PUSH1 0x0 DUP2 MLOAD SWAP1 POP PUSH2 0xB7F DUP2 PUSH2 0xB59 JUMP JUMPDEST SWAP3 SWAP2 POP POP JUMP JUMPDEST PUSH1 0x0 PUSH2 0xB98 PUSH2 0xB93 DUP5 PUSH2 0xB18 JUMP JUMPDEST PUSH2 0xAFD JUMP JUMPDEST SWAP1 POP DUP1 DUP4 DUP3 MSTORE PUSH1 0x20 DUP3 ADD SWAP1 POP PUSH1 0x20 DUP5 MUL DUP4 ADD DUP6 DUP2 GT ISZERO PUSH2 0xBBB JUMPI PUSH2 0xBBA PUSH2 0xB44 JUMP JUMPDEST JUMPDEST DUP4 JUMPDEST DUP2 DUP2 LT ISZERO PUSH2 0xBE4 JUMPI DUP1 PUSH2 0xBD0 DUP9 DUP3 PUSH2 0xB70 JUMP JUMPDEST DUP5 MSTORE PUSH1 0x20 DUP5 ADD SWAP4 POP POP PUSH1 0x20 DUP2 ADD SWAP1 POP PUSH2 0xBBD JUMP JUMPDEST POP POP POP SWAP4 SWAP3 POP POP POP JUMP JUMPDEST PUSH1 0x0 DUP3 PUSH1 0x1F DUP4 ADD SLT PUSH2 0xC03 JUMPI PUSH2 0xC02 PUSH2 0xA87 JUMP JUMPDEST JUMPDEST DUP2 MLOAD PUSH2 0xC13 DUP5 DUP3 PUSH1 0x20 DUP7 ADD PUSH2 0xB85 JUMP JUMPDEST SWAP2 POP POP SWAP3 SWAP2 POP POP JUMP JUMPDEST PUSH1 0x0 PUSH1 0x20 DUP3 DUP5 SUB SLT ISZERO PUSH2 0xC32 JUMPI PUSH2 0xC31 PUSH2 0x692 JUMP JUMPDEST JUMPDEST PUSH1 0x0 DUP3 ADD MLOAD PUSH8 0xFFFFFFFFFFFFFFFF DUP2 GT ISZERO PUSH2 0xC50 JUMPI PUSH2 0xC4F PUSH2 0x697 JUMP JUMPDEST JUMPDEST PUSH2 0xC5C DUP5 DUP3 DUP6 ADD PUSH2 0xBEE JUMP JUMPDEST SWAP2 POP POP SWAP3 SWAP2 POP POP JUMP JUMPDEST PUSH1 0x0 DUP2 MLOAD SWAP1 POP SWAP2 SWAP1 POP JUMP JUMPDEST PUSH1 0x0 DUP3 DUP3 MSTORE PUSH1 0x20 DUP3 ADD SWAP1 POP SWAP3 SWAP2 POP POP JUMP JUMPDEST PUSH1 0x0 DUP2 SWAP1 POP PUSH1 0x20 DUP3 ADD SWAP1 POP SWAP2 SWAP1 POP JUMP JUMPDEST PUSH2 0xC9A DUP2 PUSH2 0xB49 JUMP JUMPDEST DUP3 MSTORE POP POP JUMP JUMPDEST PUSH1 0x0 PUSH2 0xCAC DUP4 DUP4 PUSH2 0xC91 JUMP JUMPDEST PUSH1 0x20 DUP4 ADD SWAP1 POP SWAP3 SWAP2 POP POP JUMP JUMPDEST PUSH1 0x0 PUSH1 0x20 DUP3 ADD SWAP1 POP SWAP2 SWAP1 POP JUMP JUMPDEST PUSH1 0x0 PUSH2 0xCD0 DUP3 PUSH2 0xC65 JUMP JUMPDEST PUSH2 0xCDA DUP2 DUP6 PUSH2 0xC70 JUMP JUMPDEST SWAP4 POP PUSH2 0xCE5 DUP4 PUSH2 0xC81 JUMP JUMPDEST DUP1 PUSH1 0x0 JUMPDEST DUP4 DUP2 LT ISZERO PUSH2 0xD16 JUMPI DUP2 MLOAD PUSH2 0xCFD DUP9 DUP3 PUSH2 0xCA0 JUMP JUMPDEST SWAP8 POP PUSH2 0xD08 DUP4 PUSH2 0xCB8 JUMP JUMPDEST SWAP3 POP POP PUSH1 0x1 DUP2 ADD SWAP1 POP PUSH2 0xCE9 JUMP JUMPDEST POP DUP6 SWAP4 POP POP POP POP SWAP3 SWAP2 POP POP JUMP JUMPDEST PUSH1 0x0 PUSH1 0x20 DUP3 ADD SWAP1 POP DUP2 DUP2 SUB PUSH1 0x0 DUP4 ADD MSTORE PUSH2 0xD3D DUP2 DUP5 PUSH2 0xCC5 JUMP JUMPDEST SWAP1 POP SWAP3 SWAP2 POP POP JUMP JUMPDEST PUSH1 0x0 PUSH8 0xFFFFFFFFFFFFFFFF DUP3 GT ISZERO PUSH2 0xD60 JUMPI PUSH2 0xD5F PUSH2 0xA9D JUMP JUMPDEST JUMPDEST PUSH1 0x20 DUP3 MUL SWAP1 POP PUSH1 0x20 DUP2 ADD SWAP1 POP SWAP2 SWAP1 POP JUMP JUMPDEST PUSH1 0x0 DUP2 PUSH1 0x6 SIGNEXTEND SWAP1 POP SWAP2 SWAP1 POP JUMP JUMPDEST PUSH2 0xD87 DUP2 PUSH2 0xD71 JUMP JUMPDEST DUP2 EQ PUSH2 0xD92 JUMPI PUSH1 0x0 DUP1 REVERT JUMPDEST POP JUMP JUMPDEST PUSH1 0x0 DUP2 MLOAD SWAP1 POP PUSH2 0xDA4 DUP2 PUSH2 0xD7E JUMP JUMPDEST SWAP3 SWAP2 POP POP JUMP JUMPDEST PUSH1 0x0 PUSH2 0xDBD PUSH2 0xDB8 DUP5 PUSH2 0xD45 JUMP JUMPDEST PUSH2 0xAFD JUMP JUMPDEST SWAP1 POP DUP1 DUP4 DUP3 MSTORE PUSH1 0x20 DUP3 ADD SWAP1 POP PUSH1 0x20 DUP5 MUL DUP4 ADD DUP6 DUP2 GT ISZERO PUSH2 0xDE0 JUMPI PUSH2 0xDDF PUSH2 0xB44 JUMP JUMPDEST JUMPDEST DUP4 JUMPDEST DUP2 DUP2 LT ISZERO PUSH2 0xE09 JUMPI DUP1 PUSH2 0xDF5 DUP9 DUP3 PUSH2 0xD95 JUMP JUMPDEST DUP5 MSTORE PUSH1 0x20 DUP5 ADD SWAP4 POP POP PUSH1 0x20 DUP2 ADD SWAP1 POP PUSH2 0xDE2 JUMP JUMPDEST POP POP POP SWAP4 SWAP3 POP POP POP JUMP JUMPDEST PUSH1 0x0 DUP3 PUSH1 0x1F DUP4 ADD SLT PUSH2 0xE28 JUMPI PUSH2 0xE27 PUSH2 0xA87 JUMP JUMPDEST JUMPDEST DUP2 MLOAD PUSH2 0xE38 DUP5 DUP3 PUSH1 0x20 DUP7 ADD PUSH2 0xDAA JUMP JUMPDEST SWAP2 POP POP SWAP3 SWAP2 POP POP JUMP JUMPDEST PUSH1 0x0 PUSH8 0xFFFFFFFFFFFFFFFF DUP3 GT ISZERO PUSH2 0xE5C JUMPI PUSH2 0xE5B PUSH2 0xA9D JUMP JUMPDEST JUMPDEST PUSH1 0x20 DUP3 MUL SWAP1 POP PUSH1 0x20 DUP2 ADD SWAP1 POP SWAP2 SWAP1 POP JUMP JUMPDEST PUSH1 0x0 PUSH2 0xE80 PUSH2 0xE7B DUP5 PUSH2 0xE41 JUMP JUMPDEST PUSH2 0xAFD JUMP JUMPDEST SWAP1 POP DUP1 DUP4 DUP3 MSTORE PUSH1 0x20 DUP3 ADD SWAP1 POP PUSH1 0x20 DUP5 MUL DUP4 ADD DUP6 DUP2 GT ISZERO PUSH2 0xEA3 JUMPI PUSH2 0xEA2 PUSH2 0xB44 JUMP JUMPDEST JUMPDEST DUP4 JUMPDEST DUP2 DUP2 LT ISZERO PUSH2 0xECC JUMPI DUP1 PUSH2 0xEB8 DUP9 DUP3 PUSH2 0x8C2 JUMP JUMPDEST DUP5 MSTORE PUSH1 0x20 DUP5 ADD SWAP4 POP POP PUSH1 0x20 DUP2 ADD SWAP1 POP PUSH2 0xEA5 JUMP JUMPDEST POP POP POP SWAP4 SWAP3 POP POP POP JUMP JUMPDEST PUSH1 0x0 DUP3 PUSH1 0x1F DUP4 ADD SLT PUSH2 0xEEB JUMPI PUSH2 0xEEA PUSH2 0xA87 JUMP JUMPDEST JUMPDEST DUP2 MLOAD PUSH2 0xEFB DUP5 DUP3 PUSH1 0x20 DUP7 ADD PUSH2 0xE6D JUMP JUMPDEST SWAP2 POP POP SWAP3 SWAP2 POP POP JUMP JUMPDEST PUSH1 0x0 DUP1 PUSH1 0x40 DUP4 DUP6 SUB SLT ISZERO PUSH2 0xF1B JUMPI PUSH2 0xF1A PUSH2 0x692 JUMP JUMPDEST JUMPDEST PUSH1 0x0 DUP4 ADD MLOAD PUSH8 0xFFFFFFFFFFFFFFFF DUP2 GT ISZERO PUSH2 0xF39 JUMPI PUSH2 0xF38 PUSH2 0x697 JUMP JUMPDEST JUMPDEST PUSH2 0xF45 DUP6 DUP3 DUP7 ADD PUSH2 0xE13 JUMP JUMPDEST SWAP3 POP POP PUSH1 0x20 DUP4 ADD MLOAD PUSH8 0xFFFFFFFFFFFFFFFF DUP2 GT ISZERO PUSH2 0xF66 JUMPI PUSH2 0xF65 PUSH2 0x697 JUMP JUMPDEST JUMPDEST PUSH2 0xF72 DUP6 DUP3 DUP7 ADD PUSH2 0xED6 JUMP JUMPDEST SWAP2 POP POP SWAP3 POP SWAP3 SWAP1 POP JUMP JUMPDEST PUSH1 0x0 DUP2 MLOAD SWAP1 POP SWAP2 SWAP1 POP JUMP JUMPDEST PUSH1 0x0 DUP3 DUP3 MSTORE PUSH1 0x20 DUP3 ADD SWAP1 POP SWAP3 SWAP2 POP POP JUMP JUMPDEST PUSH1 0x0 DUP2 SWAP1 POP PUSH1 0x20 DUP3 ADD SWAP1 POP SWAP2 SWAP1 POP JUMP JUMPDEST PUSH2 0xFB1 DUP2 PUSH2 0xD71 JUMP JUMPDEST DUP3 MSTORE POP POP JUMP JUMPDEST PUSH1 0x0 PUSH2 0xFC3 DUP4 DUP4 PUSH2 0xFA8 JUMP JUMPDEST PUSH1 0x20 DUP4 ADD SWAP1 POP SWAP3 SWAP2 POP POP JUMP JUMPDEST PUSH1 0x0 PUSH1 0x20 DUP3 ADD SWAP1 POP SWAP2 SWAP1 POP JUMP JUMPDEST PUSH1 0x0 PUSH2 0xFE7 DUP3 PUSH2 0xF7C JUMP JUMPDEST PUSH2 0xFF1 DUP2 DUP6 PUSH2 0xF87 JUMP JUMPDEST SWAP4 POP PUSH2 0xFFC DUP4 PUSH2 0xF98 JUMP JUMPDEST DUP1 PUSH1 0x0 JUMPDEST DUP4 DUP2 LT ISZERO PUSH2 0x102D JUMPI DUP2 MLOAD PUSH2 0x1014 DUP9 DUP3 PUSH2 0xFB7 JUMP JUMPDEST SWAP8 POP PUSH2 0x101F DUP4 PUSH2 0xFCF JUMP JUMPDEST SWAP3 POP POP PUSH1 0x1 DUP2 ADD SWAP1 POP PUSH2 0x1000 JUMP JUMPDEST POP DUP6 SWAP4 POP POP POP POP SWAP3 SWAP2 POP POP JUMP JUMPDEST PUSH1 0x0 PUSH1 0x20 DUP3 ADD SWAP1 POP DUP2 DUP2 SUB PUSH1 0x0 DUP4 ADD MSTORE PUSH2 0x1054 DUP2 DUP5 PUSH2 0xFDC JUMP JUMPDEST SWAP1 POP SWAP3 SWAP2 POP POP JUMP JUMPDEST PUSH2 0x1065 DUP2 PUSH2 0x73A JUMP JUMPDEST DUP2 EQ PUSH2 0x1070 JUMPI PUSH1 0x0 DUP1 REVERT JUMPDEST POP JUMP JUMPDEST PUSH1 0x0 DUP2 MLOAD SWAP1 POP PUSH2 0x1082 DUP2 PUSH2 0x105C JUMP JUMPDEST SWAP3 SWAP2 POP POP JUMP JUMPDEST PUSH1 0x0 PUSH1 0x20 DUP3 DUP5 SUB SLT ISZERO PUSH2 0x109E JUMPI PUSH2 0x109D PUSH2 0x692 JUMP JUMPDEST JUMPDEST PUSH1 0x0 PUSH2 0x10AC DUP5 DUP3 DUP6 ADD PUSH2 0x1073 JUMP JUMPDEST SWAP2 POP POP SWAP3 SWAP2 POP POP JUMP JUMPDEST PUSH1 0x0 PUSH10 0xFFFFFFFFFFFFFFFFFFFF DUP3 AND SWAP1 POP SWAP2 SWAP1 POP JUMP JUMPDEST PUSH2 0x10D4 DUP2 PUSH2 0x10B5 JUMP JUMPDEST DUP2 EQ PUSH2 0x10DF JUMPI PUSH1 0x0 DUP1 REVERT JUMPDEST POP JUMP JUMPDEST PUSH1 0x0 DUP2 MLOAD SWAP1 POP PUSH2 0x10F1 DUP2 PUSH2 0x10CB JUMP JUMPDEST SWAP3 SWAP2 POP POP JUMP JUMPDEST PUSH1 0x0 DUP2 SWAP1 POP SWAP2 SWAP1 POP JUMP JUMPDEST PUSH2 0x110A DUP2 PUSH2 0x10F7 JUMP JUMPDEST DUP2 EQ PUSH2 0x1115 JUMPI PUSH1 0x0 DUP1 REVERT JUMPDEST POP JUMP JUMPDEST PUSH1 0x0 DUP2 MLOAD SWAP1 POP PUSH2 0x1127 DUP2 PUSH2 0x1101 JUMP JUMPDEST SWAP3 SWAP2 POP POP JUMP JUMPDEST PUSH1 0x0 DUP1 PUSH1 0x0 DUP1 PUSH1 0x0 PUSH1 0xA0 DUP7 DUP9 SUB SLT ISZERO PUSH2 0x1149 JUMPI PUSH2 0x1148 PUSH2 0x692 JUMP JUMPDEST JUMPDEST PUSH1 0x0 PUSH2 0x1157 DUP9 DUP3 DUP10 ADD PUSH2 0x10E2 JUMP JUMPDEST SWAP6 POP POP PUSH1 0x20 PUSH2 0x1168 DUP9 DUP3 DUP10 ADD PUSH2 0x1118 JUMP JUMPDEST SWAP5 POP POP PUSH1 0x40 PUSH2 0x1179 DUP9 DUP3 DUP10 ADD PUSH2 0x1073 JUMP JUMPDEST SWAP4 POP POP PUSH1 0x60 PUSH2 0x118A DUP9 DUP3 DUP10 ADD PUSH2 0x1073 JUMP JUMPDEST SWAP3 POP POP PUSH1 0x80 PUSH2 0x119B DUP9 DUP3 DUP10 ADD PUSH2 0x10E2 JUMP JUMPDEST SWAP2 POP POP SWAP3 SWAP6 POP SWAP3 SWAP6 SWAP1 SWAP4 POP JUMP JUMPDEST PUSH1 0x0 DUP3 DUP3 MSTORE PUSH1 0x20 DUP3 ADD SWAP1 POP SWAP3 SWAP2 POP POP JUMP JUMPDEST PUSH32 0x5072696365206E6F7420666F756E640000000000000000000000000000000000 PUSH1 0x0 DUP3 ADD MSTORE POP JUMP JUMPDEST PUSH1 0x0 PUSH2 0x11EF PUSH1 0xF DUP4 PUSH2 0x11A8 JUMP JUMPDEST SWAP2 POP PUSH2 0x11FA DUP3 PUSH2 0x11B9 JUMP JUMPDEST PUSH1 0x20 DUP3 ADD SWAP1 POP SWAP2 SWAP1 POP JUMP JUMPDEST PUSH1 0x0 PUSH1 0x20 DUP3 ADD SWAP1 POP DUP2 DUP2 SUB PUSH1 0x0 DUP4 ADD MSTORE PUSH2 0x121E DUP2 PUSH2 0x11E2 JUMP JUMPDEST SWAP1 POP SWAP2 SWAP1 POP JUMP INVALID LOG2 PUSH5 0x6970667358 0x22 SLT KECCAK256 RETURNDATACOPY CALLER SDIV SWAP9 SWAP9 0xE1 0xAD 0xD3 0xCC BALANCE 0xD4 SWAP2 0xD5 0x5F POP AND EQ 0xC9 0xCD 0xBF PUSH10 0x1467867C8003ADDF3391 0x2F PUSH5 0x736F6C6343 STOP ADDMOD SLT STOP CALLER "
				},
				"gasEstimates": {
					"creation": {
						"codeDepositCost": "939800",
						"executionCost": "975",
						"totalCost": "940775"
					},
					"external": {
						"getPrice(address,address)": "infinite",
						"prices(address,address)": "infinite",
						"setChainlinkPrice(address,address,address)": "infinite",
						"setPrice(address,address,address)": "infinite"
					}
				},
				"methodIdentifiers": {
					"getPrice(address,address)": "ac41865a",
					"prices(address,address)": "1f312404",
					"setChainlinkPrice(address,address,address)": "4cb5960e",
					"setPrice(address,address,address)": "27e50822"
				}
			},
			"storageLayout": {
				"storage": [
					{
						"astId": 711,
						"contract": "contracts/ArbitragePrice.sol:ArbitragePrice",
						"label": "prices",
						"offset": 0,
						"slot": "0",
						"type": "t_mapping(t_address,t_mapping(t_address,t_struct(Price)704_storage))"
					}
				],
				"types": {
					"t_address": {
						"encoding": "inplace",
						"label": "address",
						"numberOfBytes": "20"
					},
					"t_mapping(t_address,t_mapping(t_address,t_struct(Price)704_storage))": {
						"encoding": "mapping",
						"key": "t_address",
						"label": "mapping(address => mapping(address => struct ArbitragePrice.Price))",
						"numberOfBytes": "32",
						"value": "t_mapping(t_address,t_struct(Price)704_storage)"
					},
					"t_mapping(t_address,t_struct(Price)704_storage)": {
						"encoding": "mapping",
						"key": "t_address",
						"label": "mapping(address => struct ArbitragePrice.Price)",
						"numberOfBytes": "32",
						"value": "t_struct(Price)704_storage"
					},
					"t_struct(Price)704_storage": {
						"encoding": "inplace",
						"label": "struct ArbitragePrice.Price",
						"members": [
							{
								"astId": 701,
								"contract": "contracts/ArbitragePrice.sol:ArbitragePrice",
								"label": "price",
								"offset": 0,
								"slot": "0",
								"type": "t_uint256"
							},
							{
								"astId": 703,
								"contract": "contracts/ArbitragePrice.sol:ArbitragePrice",
								"label": "timestamp",
								"offset": 0,
								"slot": "1",
								"type": "t_uint256"
							}
						],
						"numberOfBytes": "64"
					},
					"t_uint256": {
						"encoding": "inplace",
						"label": "uint256",
						"numberOfBytes": "32"
					}
				}
			},
			"userdoc": {
				"kind": "user",
				"methods": {},
				"version": 1
			}
		}
	}
}