{
	"contracts/extern/UintConverter.sol": {
		"UintConverter": {
			"abi": [
				{
					"inputs": [
						{
							"internalType": "int56[]",
							"name": "intArray",
							"type": "int56[]"
						}
					],
					"name": "convertToInt",
					"outputs": [
						{
							"internalType": "uint256",
							"name": "result",
							"type": "uint256"
						}
					],
					"stateMutability": "pure",
					"type": "function"
				},
				{
					"inputs": [
						{
							"internalType": "uint160",
							"name": "value",
							"type": "uint160"
						}
					],
					"name": "toUint32Array",
					"outputs": [
						{
							"internalType": "uint32[]",
							"name": "",
							"type": "uint32[]"
						}
					],
					"stateMutability": "pure",
					"type": "function"
				}
			],
			"devdoc": {
				"kind": "dev",
				"methods": {},
				"version": 1
			},
			"evm": {
				"assembly": "    /* \"contracts/extern/UintConverter.sol\":27:1220  library UintConverter {... */\n  dataSize(sub_0)\n  dataOffset(sub_0)\n  0x0b\n  dup3\n  dup3\n  dup3\n  codecopy\n  dup1\n  mload\n  0x00\n  byte\n  0x73\n  eq\n  tag_1\n  jumpi\n  mstore(0x00, 0x4e487b7100000000000000000000000000000000000000000000000000000000)\n  mstore(0x04, 0x00)\n  revert(0x00, 0x24)\ntag_1:\n  mstore(0x00, address)\n  0x73\n  dup2\n  mstore8\n  dup3\n  dup2\n  return\nstop\n\nsub_0: assembly {\n        /* \"contracts/extern/UintConverter.sol\":27:1220  library UintConverter {... */\n      eq(address, deployTimeAddress())\n      mstore(0x40, 0x80)\n      jumpi(tag_1, lt(calldatasize, 0x04))\n      shr(0xe0, calldataload(0x00))\n      dup1\n      0x6022bb7b\n      eq\n      tag_2\n      jumpi\n      dup1\n      0x95fc4af5\n      eq\n      tag_3\n      jumpi\n    tag_1:\n      0x00\n      dup1\n      revert\n        /* \"contracts/extern/UintConverter.sol\":975:1211  function convertToInt(int56[] memory intArray) public pure returns (uint256 result) {... */\n    tag_2:\n      tag_4\n      0x04\n      dup1\n      calldatasize\n      sub\n      dup2\n      add\n      swap1\n      tag_5\n      swap2\n      swap1\n      tag_6\n      jump\t// in\n    tag_5:\n      tag_7\n      jump\t// in\n    tag_4:\n      mload(0x40)\n      tag_8\n      swap2\n      swap1\n      tag_9\n      jump\t// in\n    tag_8:\n      mload(0x40)\n      dup1\n      swap2\n      sub\n      swap1\n      return\n        /* \"contracts/extern/UintConverter.sol\":96:928  function toUint32Array(uint160 value) public pure returns (uint32[] memory) {... */\n    tag_3:\n      tag_10\n      0x04\n      dup1\n      calldatasize\n      sub\n      dup2\n      add\n      swap1\n      tag_11\n      swap2\n      swap1\n      tag_12\n      jump\t// in\n    tag_11:\n      tag_13\n      jump\t// in\n    tag_10:\n      mload(0x40)\n      tag_14\n      swap2\n      swap1\n      tag_15\n      jump\t// in\n    tag_14:\n      mload(0x40)\n      dup1\n      swap2\n      sub\n      swap1\n      return\n        /* \"contracts/extern/UintConverter.sol\":975:1211  function convertToInt(int56[] memory intArray) public pure returns (uint256 result) {... */\n    tag_7:\n        /* \"contracts/extern/UintConverter.sol\":1043:1057  uint256 result */\n      0x00\n        /* \"contracts/extern/UintConverter.sol\":1070:1094  bytes memory encodedInts */\n      dup1\n        /* \"contracts/extern/UintConverter.sol\":1114:1122  intArray */\n      dup3\n        /* \"contracts/extern/UintConverter.sol\":1097:1123  abi.encodePacked(intArray) */\n      add(0x20, mload(0x40))\n      tag_17\n      swap2\n      swap1\n      tag_18\n      jump\t// in\n    tag_17:\n      mload(0x40)\n      0x20\n      dup2\n      dup4\n      sub\n      sub\n      dup2\n      mstore\n      swap1\n      0x40\n      mstore\n        /* \"contracts/extern/UintConverter.sol\":1070:1123  bytes memory encodedInts = abi.encodePacked(intArray) */\n      swap1\n      pop\n        /* \"contracts/extern/UintConverter.sol\":1189:1191  32 */\n      0x20\n        /* \"contracts/extern/UintConverter.sol\":1176:1187  encodedInts */\n      dup2\n        /* \"contracts/extern/UintConverter.sol\":1172:1192  add(encodedInts, 32) */\n      add\n        /* \"contracts/extern/UintConverter.sol\":1166:1193  mload(add(encodedInts, 32)) */\n      mload\n        /* \"contracts/extern/UintConverter.sol\":1156:1193  result := mload(add(encodedInts, 32)) */\n      swap2\n      pop\n        /* \"contracts/extern/UintConverter.sol\":1143:1204  {... */\n      pop\n        /* \"contracts/extern/UintConverter.sol\":975:1211  function convertToInt(int56[] memory intArray) public pure returns (uint256 result) {... */\n      swap2\n      swap1\n      pop\n      jump\t// out\n        /* \"contracts/extern/UintConverter.sol\":96:928  function toUint32Array(uint160 value) public pure returns (uint32[] memory) {... */\n    tag_13:\n        /* \"contracts/extern/UintConverter.sol\":155:170  uint32[] memory */\n      0x60\n        /* \"contracts/extern/UintConverter.sol\":183:205  uint32[] memory result */\n      0x00\n        /* \"contracts/extern/UintConverter.sol\":221:222  5 */\n      0x05\n        /* \"contracts/extern/UintConverter.sol\":208:223  new uint32[](5) */\n      0xffffffffffffffff\n      dup2\n      gt\n      iszero\n      tag_20\n      jumpi\n      tag_21\n      tag_22\n      jump\t// in\n    tag_21:\n    tag_20:\n      mload(0x40)\n      swap1\n      dup1\n      dup3\n      mstore\n      dup1\n      0x20\n      mul\n      0x20\n      add\n      dup3\n      add\n      0x40\n      mstore\n      dup1\n      iszero\n      tag_23\n      jumpi\n      dup2\n      0x20\n      add\n      0x20\n      dup3\n      mul\n      dup1\n      calldatasize\n      dup4\n      calldatacopy\n      dup1\n      dup3\n      add\n      swap2\n      pop\n      pop\n      swap1\n      pop\n    tag_23:\n      pop\n        /* \"contracts/extern/UintConverter.sol\":183:223  uint32[] memory result = new uint32[](5) */\n      swap1\n      pop\n        /* \"contracts/extern/UintConverter.sol\":293:305  uint32 first */\n      0x00\n        /* \"contracts/extern/UintConverter.sol\":324:327  128 */\n      0x80\n        /* \"contracts/extern/UintConverter.sol\":315:320  value */\n      dup5\n        /* \"contracts/extern/UintConverter.sol\":315:327  value >> 128 */\n      0xffffffffffffffffffffffffffffffffffffffff\n      and\n      swap1\n      shr\n        /* \"contracts/extern/UintConverter.sol\":293:328  uint32 first = uint32(value >> 128) */\n      swap1\n      pop\n        /* \"contracts/extern/UintConverter.sol\":351:356  first */\n      dup1\n        /* \"contracts/extern/UintConverter.sol\":339:345  result */\n      dup3\n        /* \"contracts/extern/UintConverter.sol\":346:347  0 */\n      0x00\n        /* \"contracts/extern/UintConverter.sol\":339:348  result[0] */\n      dup2\n      mload\n      dup2\n      lt\n      tag_24\n      jumpi\n      tag_25\n      tag_26\n      jump\t// in\n    tag_25:\n    tag_24:\n      0x20\n      mul\n      0x20\n      add\n      add\n        /* \"contracts/extern/UintConverter.sol\":339:356  result[0] = first */\n      swap1\n      0xffffffff\n      and\n      swap1\n      dup2\n      0xffffffff\n      and\n      dup2\n      mstore\n      pop\n      pop\n        /* \"contracts/extern/UintConverter.sol\":428:441  uint32 second */\n      0x00\n        /* \"contracts/extern/UintConverter.sol\":460:462  96 */\n      0x60\n        /* \"contracts/extern/UintConverter.sol\":451:456  value */\n      dup6\n        /* \"contracts/extern/UintConverter.sol\":451:462  value >> 96 */\n      0xffffffffffffffffffffffffffffffffffffffff\n      and\n      swap1\n      shr\n        /* \"contracts/extern/UintConverter.sol\":428:463  uint32 second = uint32(value >> 96) */\n      swap1\n      pop\n        /* \"contracts/extern/UintConverter.sol\":486:492  second */\n      dup1\n        /* \"contracts/extern/UintConverter.sol\":474:480  result */\n      dup4\n        /* \"contracts/extern/UintConverter.sol\":481:482  1 */\n      0x01\n        /* \"contracts/extern/UintConverter.sol\":474:483  result[1] */\n      dup2\n      mload\n      dup2\n      lt\n      tag_27\n      jumpi\n      tag_28\n      tag_26\n      jump\t// in\n    tag_28:\n    tag_27:\n      0x20\n      mul\n      0x20\n      add\n      add\n        /* \"contracts/extern/UintConverter.sol\":474:492  result[1] = second */\n      swap1\n      0xffffffff\n      and\n      swap1\n      dup2\n      0xffffffff\n      and\n      dup2\n      mstore\n      pop\n      pop\n        /* \"contracts/extern/UintConverter.sol\":565:577  uint32 third */\n      0x00\n        /* \"contracts/extern/UintConverter.sol\":596:598  64 */\n      0x40\n        /* \"contracts/extern/UintConverter.sol\":587:592  value */\n      dup7\n        /* \"contracts/extern/UintConverter.sol\":587:598  value >> 64 */\n      0xffffffffffffffffffffffffffffffffffffffff\n      and\n      swap1\n      shr\n        /* \"contracts/extern/UintConverter.sol\":565:599  uint32 third = uint32(value >> 64) */\n      swap1\n      pop\n        /* \"contracts/extern/UintConverter.sol\":622:627  third */\n      dup1\n        /* \"contracts/extern/UintConverter.sol\":610:616  result */\n      dup5\n        /* \"contracts/extern/UintConverter.sol\":617:618  2 */\n      0x02\n        /* \"contracts/extern/UintConverter.sol\":610:619  result[2] */\n      dup2\n      mload\n      dup2\n      lt\n      tag_29\n      jumpi\n      tag_30\n      tag_26\n      jump\t// in\n    tag_30:\n    tag_29:\n      0x20\n      mul\n      0x20\n      add\n      add\n        /* \"contracts/extern/UintConverter.sol\":610:627  result[2] = third */\n      swap1\n      0xffffffff\n      and\n      swap1\n      dup2\n      0xffffffff\n      and\n      dup2\n      mstore\n      pop\n      pop\n        /* \"contracts/extern/UintConverter.sol\":701:714  uint32 fourth */\n      0x00\n        /* \"contracts/extern/UintConverter.sol\":733:735  32 */\n      0x20\n        /* \"contracts/extern/UintConverter.sol\":724:729  value */\n      dup8\n        /* \"contracts/extern/UintConverter.sol\":724:735  value >> 32 */\n      0xffffffffffffffffffffffffffffffffffffffff\n      and\n      swap1\n      shr\n        /* \"contracts/extern/UintConverter.sol\":701:736  uint32 fourth = uint32(value >> 32) */\n      swap1\n      pop\n        /* \"contracts/extern/UintConverter.sol\":759:765  fourth */\n      dup1\n        /* \"contracts/extern/UintConverter.sol\":747:753  result */\n      dup6\n        /* \"contracts/extern/UintConverter.sol\":754:755  3 */\n      0x03\n        /* \"contracts/extern/UintConverter.sol\":747:756  result[3] */\n      dup2\n      mload\n      dup2\n      lt\n      tag_31\n      jumpi\n      tag_32\n      tag_26\n      jump\t// in\n    tag_32:\n    tag_31:\n      0x20\n      mul\n      0x20\n      add\n      add\n        /* \"contracts/extern/UintConverter.sol\":747:765  result[3] = fourth */\n      swap1\n      0xffffffff\n      and\n      swap1\n      dup2\n      0xffffffff\n      and\n      dup2\n      mstore\n      pop\n      pop\n        /* \"contracts/extern/UintConverter.sol\":838:850  uint32 fifth */\n      0x00\n        /* \"contracts/extern/UintConverter.sol\":860:865  value */\n      dup8\n        /* \"contracts/extern/UintConverter.sol\":838:866  uint32 fifth = uint32(value) */\n      swap1\n      pop\n        /* \"contracts/extern/UintConverter.sol\":889:894  fifth */\n      dup1\n        /* \"contracts/extern/UintConverter.sol\":877:883  result */\n      dup7\n        /* \"contracts/extern/UintConverter.sol\":884:885  4 */\n      0x04\n        /* \"contracts/extern/UintConverter.sol\":877:886  result[4] */\n      dup2\n      mload\n      dup2\n      lt\n      tag_33\n      jumpi\n      tag_34\n      tag_26\n      jump\t// in\n    tag_34:\n    tag_33:\n      0x20\n      mul\n      0x20\n      add\n      add\n        /* \"contracts/extern/UintConverter.sol\":877:894  result[4] = fifth */\n      swap1\n      0xffffffff\n      and\n      swap1\n      dup2\n      0xffffffff\n      and\n      dup2\n      mstore\n      pop\n      pop\n        /* \"contracts/extern/UintConverter.sol\":914:920  result */\n      dup6\n        /* \"contracts/extern/UintConverter.sol\":907:920  return result */\n      swap7\n      pop\n      pop\n      pop\n      pop\n      pop\n      pop\n      pop\n        /* \"contracts/extern/UintConverter.sol\":96:928  function toUint32Array(uint160 value) public pure returns (uint32[] memory) {... */\n      swap2\n      swap1\n      pop\n      jump\t// out\n        /* \"#utility.yul\":7:82   */\n    tag_35:\n        /* \"#utility.yul\":40:46   */\n      0x00\n        /* \"#utility.yul\":73:75   */\n      0x40\n        /* \"#utility.yul\":67:76   */\n      mload\n        /* \"#utility.yul\":57:76   */\n      swap1\n      pop\n        /* \"#utility.yul\":7:82   */\n      swap1\n      jump\t// out\n        /* \"#utility.yul\":88:205   */\n    tag_36:\n        /* \"#utility.yul\":197:198   */\n      0x00\n        /* \"#utility.yul\":194:195   */\n      dup1\n        /* \"#utility.yul\":187:199   */\n      revert\n        /* \"#utility.yul\":211:328   */\n    tag_37:\n        /* \"#utility.yul\":320:321   */\n      0x00\n        /* \"#utility.yul\":317:318   */\n      dup1\n        /* \"#utility.yul\":310:322   */\n      revert\n        /* \"#utility.yul\":334:451   */\n    tag_38:\n        /* \"#utility.yul\":443:444   */\n      0x00\n        /* \"#utility.yul\":440:441   */\n      dup1\n        /* \"#utility.yul\":433:445   */\n      revert\n        /* \"#utility.yul\":457:559   */\n    tag_39:\n        /* \"#utility.yul\":498:504   */\n      0x00\n        /* \"#utility.yul\":549:551   */\n      0x1f\n        /* \"#utility.yul\":545:552   */\n      not\n        /* \"#utility.yul\":540:542   */\n      0x1f\n        /* \"#utility.yul\":533:538   */\n      dup4\n        /* \"#utility.yul\":529:543   */\n      add\n        /* \"#utility.yul\":525:553   */\n      and\n        /* \"#utility.yul\":515:553   */\n      swap1\n      pop\n        /* \"#utility.yul\":457:559   */\n      swap2\n      swap1\n      pop\n      jump\t// out\n        /* \"#utility.yul\":565:745   */\n    tag_22:\n        /* \"#utility.yul\":613:690   */\n      0x4e487b7100000000000000000000000000000000000000000000000000000000\n        /* \"#utility.yul\":610:611   */\n      0x00\n        /* \"#utility.yul\":603:691   */\n      mstore\n        /* \"#utility.yul\":710:714   */\n      0x41\n        /* \"#utility.yul\":707:708   */\n      0x04\n        /* \"#utility.yul\":700:715   */\n      mstore\n        /* \"#utility.yul\":734:738   */\n      0x24\n        /* \"#utility.yul\":731:732   */\n      0x00\n        /* \"#utility.yul\":724:739   */\n      revert\n        /* \"#utility.yul\":751:1032   */\n    tag_40:\n        /* \"#utility.yul\":834:861   */\n      tag_77\n        /* \"#utility.yul\":856:860   */\n      dup3\n        /* \"#utility.yul\":834:861   */\n      tag_39\n      jump\t// in\n    tag_77:\n        /* \"#utility.yul\":826:832   */\n      dup2\n        /* \"#utility.yul\":822:862   */\n      add\n        /* \"#utility.yul\":964:970   */\n      dup2\n        /* \"#utility.yul\":952:962   */\n      dup2\n        /* \"#utility.yul\":949:971   */\n      lt\n        /* \"#utility.yul\":928:946   */\n      0xffffffffffffffff\n        /* \"#utility.yul\":916:926   */\n      dup3\n        /* \"#utility.yul\":913:947   */\n      gt\n        /* \"#utility.yul\":910:972   */\n      or\n        /* \"#utility.yul\":907:995   */\n      iszero\n      tag_78\n      jumpi\n        /* \"#utility.yul\":975:993   */\n      tag_79\n      tag_22\n      jump\t// in\n    tag_79:\n        /* \"#utility.yul\":907:995   */\n    tag_78:\n        /* \"#utility.yul\":1015:1025   */\n      dup1\n        /* \"#utility.yul\":1011:1013   */\n      0x40\n        /* \"#utility.yul\":1004:1026   */\n      mstore\n        /* \"#utility.yul\":794:1032   */\n      pop\n        /* \"#utility.yul\":751:1032   */\n      pop\n      pop\n      jump\t// out\n        /* \"#utility.yul\":1038:1167   */\n    tag_41:\n        /* \"#utility.yul\":1072:1078   */\n      0x00\n        /* \"#utility.yul\":1099:1119   */\n      tag_81\n      tag_35\n      jump\t// in\n    tag_81:\n        /* \"#utility.yul\":1089:1119   */\n      swap1\n      pop\n        /* \"#utility.yul\":1128:1161   */\n      tag_82\n        /* \"#utility.yul\":1156:1160   */\n      dup3\n        /* \"#utility.yul\":1148:1154   */\n      dup3\n        /* \"#utility.yul\":1128:1161   */\n      tag_40\n      jump\t// in\n    tag_82:\n        /* \"#utility.yul\":1038:1167   */\n      swap2\n      swap1\n      pop\n      jump\t// out\n        /* \"#utility.yul\":1173:1482   */\n    tag_42:\n        /* \"#utility.yul\":1248:1252   */\n      0x00\n        /* \"#utility.yul\":1338:1356   */\n      0xffffffffffffffff\n        /* \"#utility.yul\":1330:1336   */\n      dup3\n        /* \"#utility.yul\":1327:1357   */\n      gt\n        /* \"#utility.yul\":1324:1380   */\n      iszero\n      tag_84\n      jumpi\n        /* \"#utility.yul\":1360:1378   */\n      tag_85\n      tag_22\n      jump\t// in\n    tag_85:\n        /* \"#utility.yul\":1324:1380   */\n    tag_84:\n        /* \"#utility.yul\":1410:1414   */\n      0x20\n        /* \"#utility.yul\":1402:1408   */\n      dup3\n        /* \"#utility.yul\":1398:1415   */\n      mul\n        /* \"#utility.yul\":1390:1415   */\n      swap1\n      pop\n        /* \"#utility.yul\":1470:1474   */\n      0x20\n        /* \"#utility.yul\":1464:1468   */\n      dup2\n        /* \"#utility.yul\":1460:1475   */\n      add\n        /* \"#utility.yul\":1452:1475   */\n      swap1\n      pop\n        /* \"#utility.yul\":1173:1482   */\n      swap2\n      swap1\n      pop\n      jump\t// out\n        /* \"#utility.yul\":1488:1605   */\n    tag_43:\n        /* \"#utility.yul\":1597:1598   */\n      0x00\n        /* \"#utility.yul\":1594:1595   */\n      dup1\n        /* \"#utility.yul\":1587:1599   */\n      revert\n        /* \"#utility.yul\":1611:1701   */\n    tag_44:\n        /* \"#utility.yul\":1646:1653   */\n      0x00\n        /* \"#utility.yul\":1689:1694   */\n      dup2\n        /* \"#utility.yul\":1686:1687   */\n      0x06\n        /* \"#utility.yul\":1675:1695   */\n      signextend\n        /* \"#utility.yul\":1664:1695   */\n      swap1\n      pop\n        /* \"#utility.yul\":1611:1701   */\n      swap2\n      swap1\n      pop\n      jump\t// out\n        /* \"#utility.yul\":1707:1825   */\n    tag_45:\n        /* \"#utility.yul\":1778:1800   */\n      tag_89\n        /* \"#utility.yul\":1794:1799   */\n      dup2\n        /* \"#utility.yul\":1778:1800   */\n      tag_44\n      jump\t// in\n    tag_89:\n        /* \"#utility.yul\":1771:1776   */\n      dup2\n        /* \"#utility.yul\":1768:1801   */\n      eq\n        /* \"#utility.yul\":1758:1819   */\n      tag_90\n      jumpi\n        /* \"#utility.yul\":1815:1816   */\n      0x00\n        /* \"#utility.yul\":1812:1813   */\n      dup1\n        /* \"#utility.yul\":1805:1817   */\n      revert\n        /* \"#utility.yul\":1758:1819   */\n    tag_90:\n        /* \"#utility.yul\":1707:1825   */\n      pop\n      jump\t// out\n        /* \"#utility.yul\":1831:1966   */\n    tag_46:\n        /* \"#utility.yul\":1875:1880   */\n      0x00\n        /* \"#utility.yul\":1913:1919   */\n      dup2\n        /* \"#utility.yul\":1900:1920   */\n      calldataload\n        /* \"#utility.yul\":1891:1920   */\n      swap1\n      pop\n        /* \"#utility.yul\":1929:1960   */\n      tag_92\n        /* \"#utility.yul\":1954:1959   */\n      dup2\n        /* \"#utility.yul\":1929:1960   */\n      tag_45\n      jump\t// in\n    tag_92:\n        /* \"#utility.yul\":1831:1966   */\n      swap3\n      swap2\n      pop\n      pop\n      jump\t// out\n        /* \"#utility.yul\":1987:2691   */\n    tag_47:\n        /* \"#utility.yul\":2081:2086   */\n      0x00\n        /* \"#utility.yul\":2106:2185   */\n      tag_94\n        /* \"#utility.yul\":2122:2184   */\n      tag_95\n        /* \"#utility.yul\":2177:2183   */\n      dup5\n        /* \"#utility.yul\":2122:2184   */\n      tag_42\n      jump\t// in\n    tag_95:\n        /* \"#utility.yul\":2106:2185   */\n      tag_41\n      jump\t// in\n    tag_94:\n        /* \"#utility.yul\":2097:2185   */\n      swap1\n      pop\n        /* \"#utility.yul\":2205:2210   */\n      dup1\n        /* \"#utility.yul\":2234:2240   */\n      dup4\n        /* \"#utility.yul\":2227:2232   */\n      dup3\n        /* \"#utility.yul\":2220:2241   */\n      mstore\n        /* \"#utility.yul\":2268:2272   */\n      0x20\n        /* \"#utility.yul\":2261:2266   */\n      dup3\n        /* \"#utility.yul\":2257:2273   */\n      add\n        /* \"#utility.yul\":2250:2273   */\n      swap1\n      pop\n        /* \"#utility.yul\":2321:2325   */\n      0x20\n        /* \"#utility.yul\":2313:2319   */\n      dup5\n        /* \"#utility.yul\":2309:2326   */\n      mul\n        /* \"#utility.yul\":2301:2307   */\n      dup4\n        /* \"#utility.yul\":2297:2327   */\n      add\n        /* \"#utility.yul\":2350:2353   */\n      dup6\n        /* \"#utility.yul\":2342:2348   */\n      dup2\n        /* \"#utility.yul\":2339:2354   */\n      gt\n        /* \"#utility.yul\":2336:2458   */\n      iszero\n      tag_96\n      jumpi\n        /* \"#utility.yul\":2369:2448   */\n      tag_97\n      tag_43\n      jump\t// in\n    tag_97:\n        /* \"#utility.yul\":2336:2458   */\n    tag_96:\n        /* \"#utility.yul\":2484:2490   */\n      dup4\n        /* \"#utility.yul\":2467:2685   */\n    tag_98:\n        /* \"#utility.yul\":2501:2507   */\n      dup2\n        /* \"#utility.yul\":2496:2499   */\n      dup2\n        /* \"#utility.yul\":2493:2508   */\n      lt\n        /* \"#utility.yul\":2467:2685   */\n      iszero\n      tag_100\n      jumpi\n        /* \"#utility.yul\":2576:2579   */\n      dup1\n        /* \"#utility.yul\":2605:2640   */\n      tag_101\n        /* \"#utility.yul\":2636:2639   */\n      dup9\n        /* \"#utility.yul\":2624:2634   */\n      dup3\n        /* \"#utility.yul\":2605:2640   */\n      tag_46\n      jump\t// in\n    tag_101:\n        /* \"#utility.yul\":2600:2603   */\n      dup5\n        /* \"#utility.yul\":2593:2641   */\n      mstore\n        /* \"#utility.yul\":2670:2674   */\n      0x20\n        /* \"#utility.yul\":2665:2668   */\n      dup5\n        /* \"#utility.yul\":2661:2675   */\n      add\n        /* \"#utility.yul\":2654:2675   */\n      swap4\n      pop\n        /* \"#utility.yul\":2543:2685   */\n      pop\n        /* \"#utility.yul\":2527:2531   */\n      0x20\n        /* \"#utility.yul\":2522:2525   */\n      dup2\n        /* \"#utility.yul\":2518:2532   */\n      add\n        /* \"#utility.yul\":2511:2532   */\n      swap1\n      pop\n        /* \"#utility.yul\":2467:2685   */\n      jump(tag_98)\n    tag_100:\n        /* \"#utility.yul\":2471:2492   */\n      pop\n        /* \"#utility.yul\":2087:2691   */\n      pop\n      pop\n        /* \"#utility.yul\":1987:2691   */\n      swap4\n      swap3\n      pop\n      pop\n      pop\n      jump\t// out\n        /* \"#utility.yul\":2712:3078   */\n    tag_48:\n        /* \"#utility.yul\":2781:2786   */\n      0x00\n        /* \"#utility.yul\":2830:2833   */\n      dup3\n        /* \"#utility.yul\":2823:2827   */\n      0x1f\n        /* \"#utility.yul\":2815:2821   */\n      dup4\n        /* \"#utility.yul\":2811:2828   */\n      add\n        /* \"#utility.yul\":2807:2834   */\n      slt\n        /* \"#utility.yul\":2797:2919   */\n      tag_103\n      jumpi\n        /* \"#utility.yul\":2838:2917   */\n      tag_104\n      tag_38\n      jump\t// in\n    tag_104:\n        /* \"#utility.yul\":2797:2919   */\n    tag_103:\n        /* \"#utility.yul\":2955:2961   */\n      dup2\n        /* \"#utility.yul\":2942:2962   */\n      calldataload\n        /* \"#utility.yul\":2980:3072   */\n      tag_105\n        /* \"#utility.yul\":3068:3071   */\n      dup5\n        /* \"#utility.yul\":3060:3066   */\n      dup3\n        /* \"#utility.yul\":3053:3057   */\n      0x20\n        /* \"#utility.yul\":3045:3051   */\n      dup7\n        /* \"#utility.yul\":3041:3058   */\n      add\n        /* \"#utility.yul\":2980:3072   */\n      tag_47\n      jump\t// in\n    tag_105:\n        /* \"#utility.yul\":2971:3072   */\n      swap2\n      pop\n        /* \"#utility.yul\":2787:3078   */\n      pop\n        /* \"#utility.yul\":2712:3078   */\n      swap3\n      swap2\n      pop\n      pop\n      jump\t// out\n        /* \"#utility.yul\":3084:3619   */\n    tag_6:\n        /* \"#utility.yul\":3166:3172   */\n      0x00\n        /* \"#utility.yul\":3215:3217   */\n      0x20\n        /* \"#utility.yul\":3203:3212   */\n      dup3\n        /* \"#utility.yul\":3194:3201   */\n      dup5\n        /* \"#utility.yul\":3190:3213   */\n      sub\n        /* \"#utility.yul\":3186:3218   */\n      slt\n        /* \"#utility.yul\":3183:3302   */\n      iszero\n      tag_107\n      jumpi\n        /* \"#utility.yul\":3221:3300   */\n      tag_108\n      tag_36\n      jump\t// in\n    tag_108:\n        /* \"#utility.yul\":3183:3302   */\n    tag_107:\n        /* \"#utility.yul\":3369:3370   */\n      0x00\n        /* \"#utility.yul\":3358:3367   */\n      dup3\n        /* \"#utility.yul\":3354:3371   */\n      add\n        /* \"#utility.yul\":3341:3372   */\n      calldataload\n        /* \"#utility.yul\":3399:3417   */\n      0xffffffffffffffff\n        /* \"#utility.yul\":3391:3397   */\n      dup2\n        /* \"#utility.yul\":3388:3418   */\n      gt\n        /* \"#utility.yul\":3385:3502   */\n      iszero\n      tag_109\n      jumpi\n        /* \"#utility.yul\":3421:3500   */\n      tag_110\n      tag_37\n      jump\t// in\n    tag_110:\n        /* \"#utility.yul\":3385:3502   */\n    tag_109:\n        /* \"#utility.yul\":3526:3602   */\n      tag_111\n        /* \"#utility.yul\":3594:3601   */\n      dup5\n        /* \"#utility.yul\":3585:3591   */\n      dup3\n        /* \"#utility.yul\":3574:3583   */\n      dup6\n        /* \"#utility.yul\":3570:3592   */\n      add\n        /* \"#utility.yul\":3526:3602   */\n      tag_48\n      jump\t// in\n    tag_111:\n        /* \"#utility.yul\":3516:3602   */\n      swap2\n      pop\n        /* \"#utility.yul\":3312:3612   */\n      pop\n        /* \"#utility.yul\":3084:3619   */\n      swap3\n      swap2\n      pop\n      pop\n      jump\t// out\n        /* \"#utility.yul\":3625:3702   */\n    tag_49:\n        /* \"#utility.yul\":3662:3669   */\n      0x00\n        /* \"#utility.yul\":3691:3696   */\n      dup2\n        /* \"#utility.yul\":3680:3696   */\n      swap1\n      pop\n        /* \"#utility.yul\":3625:3702   */\n      swap2\n      swap1\n      pop\n      jump\t// out\n        /* \"#utility.yul\":3708:3834   */\n    tag_50:\n        /* \"#utility.yul\":3803:3827   */\n      tag_114\n        /* \"#utility.yul\":3821:3826   */\n      dup2\n        /* \"#utility.yul\":3803:3827   */\n      tag_49\n      jump\t// in\n    tag_114:\n        /* \"#utility.yul\":3798:3801   */\n      dup3\n        /* \"#utility.yul\":3791:3828   */\n      mstore\n        /* \"#utility.yul\":3708:3834   */\n      pop\n      pop\n      jump\t// out\n        /* \"#utility.yul\":3840:4078   */\n    tag_9:\n        /* \"#utility.yul\":3941:3945   */\n      0x00\n        /* \"#utility.yul\":3979:3981   */\n      0x20\n        /* \"#utility.yul\":3968:3977   */\n      dup3\n        /* \"#utility.yul\":3964:3982   */\n      add\n        /* \"#utility.yul\":3956:3982   */\n      swap1\n      pop\n        /* \"#utility.yul\":3992:4071   */\n      tag_116\n        /* \"#utility.yul\":4068:4069   */\n      0x00\n        /* \"#utility.yul\":4057:4066   */\n      dup4\n        /* \"#utility.yul\":4053:4070   */\n      add\n        /* \"#utility.yul\":4044:4050   */\n      dup5\n        /* \"#utility.yul\":3992:4071   */\n      tag_50\n      jump\t// in\n    tag_116:\n        /* \"#utility.yul\":3840:4078   */\n      swap3\n      swap2\n      pop\n      pop\n      jump\t// out\n        /* \"#utility.yul\":4084:4210   */\n    tag_51:\n        /* \"#utility.yul\":4121:4128   */\n      0x00\n        /* \"#utility.yul\":4161:4203   */\n      0xffffffffffffffffffffffffffffffffffffffff\n        /* \"#utility.yul\":4154:4159   */\n      dup3\n        /* \"#utility.yul\":4150:4204   */\n      and\n        /* \"#utility.yul\":4139:4204   */\n      swap1\n      pop\n        /* \"#utility.yul\":4084:4210   */\n      swap2\n      swap1\n      pop\n      jump\t// out\n        /* \"#utility.yul\":4216:4338   */\n    tag_52:\n        /* \"#utility.yul\":4289:4313   */\n      tag_119\n        /* \"#utility.yul\":4307:4312   */\n      dup2\n        /* \"#utility.yul\":4289:4313   */\n      tag_51\n      jump\t// in\n    tag_119:\n        /* \"#utility.yul\":4282:4287   */\n      dup2\n        /* \"#utility.yul\":4279:4314   */\n      eq\n        /* \"#utility.yul\":4269:4332   */\n      tag_120\n      jumpi\n        /* \"#utility.yul\":4328:4329   */\n      0x00\n        /* \"#utility.yul\":4325:4326   */\n      dup1\n        /* \"#utility.yul\":4318:4330   */\n      revert\n        /* \"#utility.yul\":4269:4332   */\n    tag_120:\n        /* \"#utility.yul\":4216:4338   */\n      pop\n      jump\t// out\n        /* \"#utility.yul\":4344:4483   */\n    tag_53:\n        /* \"#utility.yul\":4390:4395   */\n      0x00\n        /* \"#utility.yul\":4428:4434   */\n      dup2\n        /* \"#utility.yul\":4415:4435   */\n      calldataload\n        /* \"#utility.yul\":4406:4435   */\n      swap1\n      pop\n        /* \"#utility.yul\":4444:4477   */\n      tag_122\n        /* \"#utility.yul\":4471:4476   */\n      dup2\n        /* \"#utility.yul\":4444:4477   */\n      tag_52\n      jump\t// in\n    tag_122:\n        /* \"#utility.yul\":4344:4483   */\n      swap3\n      swap2\n      pop\n      pop\n      jump\t// out\n        /* \"#utility.yul\":4489:4818   */\n    tag_12:\n        /* \"#utility.yul\":4548:4554   */\n      0x00\n        /* \"#utility.yul\":4597:4599   */\n      0x20\n        /* \"#utility.yul\":4585:4594   */\n      dup3\n        /* \"#utility.yul\":4576:4583   */\n      dup5\n        /* \"#utility.yul\":4572:4595   */\n      sub\n        /* \"#utility.yul\":4568:4600   */\n      slt\n        /* \"#utility.yul\":4565:4684   */\n      iszero\n      tag_124\n      jumpi\n        /* \"#utility.yul\":4603:4682   */\n      tag_125\n      tag_36\n      jump\t// in\n    tag_125:\n        /* \"#utility.yul\":4565:4684   */\n    tag_124:\n        /* \"#utility.yul\":4723:4724   */\n      0x00\n        /* \"#utility.yul\":4748:4801   */\n      tag_126\n        /* \"#utility.yul\":4793:4800   */\n      dup5\n        /* \"#utility.yul\":4784:4790   */\n      dup3\n        /* \"#utility.yul\":4773:4782   */\n      dup6\n        /* \"#utility.yul\":4769:4791   */\n      add\n        /* \"#utility.yul\":4748:4801   */\n      tag_53\n      jump\t// in\n    tag_126:\n        /* \"#utility.yul\":4738:4801   */\n      swap2\n      pop\n        /* \"#utility.yul\":4694:4811   */\n      pop\n        /* \"#utility.yul\":4489:4818   */\n      swap3\n      swap2\n      pop\n      pop\n      jump\t// out\n        /* \"#utility.yul\":4824:4937   */\n    tag_54:\n        /* \"#utility.yul\":4890:4896   */\n      0x00\n        /* \"#utility.yul\":4924:4929   */\n      dup2\n        /* \"#utility.yul\":4918:4930   */\n      mload\n        /* \"#utility.yul\":4908:4930   */\n      swap1\n      pop\n        /* \"#utility.yul\":4824:4937   */\n      swap2\n      swap1\n      pop\n      jump\t// out\n        /* \"#utility.yul\":4943:5134   */\n    tag_55:\n        /* \"#utility.yul\":5049:5060   */\n      0x00\n        /* \"#utility.yul\":5083:5089   */\n      dup3\n        /* \"#utility.yul\":5078:5081   */\n      dup3\n        /* \"#utility.yul\":5071:5090   */\n      mstore\n        /* \"#utility.yul\":5123:5127   */\n      0x20\n        /* \"#utility.yul\":5118:5121   */\n      dup3\n        /* \"#utility.yul\":5114:5128   */\n      add\n        /* \"#utility.yul\":5099:5128   */\n      swap1\n      pop\n        /* \"#utility.yul\":4943:5134   */\n      swap3\n      swap2\n      pop\n      pop\n      jump\t// out\n        /* \"#utility.yul\":5140:5271   */\n    tag_56:\n        /* \"#utility.yul\":5206:5210   */\n      0x00\n        /* \"#utility.yul\":5229:5232   */\n      dup2\n        /* \"#utility.yul\":5221:5232   */\n      swap1\n      pop\n        /* \"#utility.yul\":5259:5263   */\n      0x20\n        /* \"#utility.yul\":5254:5257   */\n      dup3\n        /* \"#utility.yul\":5250:5264   */\n      add\n        /* \"#utility.yul\":5242:5264   */\n      swap1\n      pop\n        /* \"#utility.yul\":5140:5271   */\n      swap2\n      swap1\n      pop\n      jump\t// out\n        /* \"#utility.yul\":5277:5370   */\n    tag_57:\n        /* \"#utility.yul\":5313:5320   */\n      0x00\n        /* \"#utility.yul\":5353:5363   */\n      0xffffffff\n        /* \"#utility.yul\":5346:5351   */\n      dup3\n        /* \"#utility.yul\":5342:5364   */\n      and\n        /* \"#utility.yul\":5331:5364   */\n      swap1\n      pop\n        /* \"#utility.yul\":5277:5370   */\n      swap2\n      swap1\n      pop\n      jump\t// out\n        /* \"#utility.yul\":5376:5489   */\n    tag_58:\n        /* \"#utility.yul\":5459:5482   */\n      tag_132\n        /* \"#utility.yul\":5476:5481   */\n      dup2\n        /* \"#utility.yul\":5459:5482   */\n      tag_57\n      jump\t// in\n    tag_132:\n        /* \"#utility.yul\":5454:5457   */\n      dup3\n        /* \"#utility.yul\":5447:5483   */\n      mstore\n        /* \"#utility.yul\":5376:5489   */\n      pop\n      pop\n      jump\t// out\n        /* \"#utility.yul\":5495:5686   */\n    tag_59:\n        /* \"#utility.yul\":5570:5580   */\n      0x00\n        /* \"#utility.yul\":5591:5643   */\n      tag_134\n        /* \"#utility.yul\":5639:5642   */\n      dup4\n        /* \"#utility.yul\":5631:5637   */\n      dup4\n        /* \"#utility.yul\":5591:5643   */\n      tag_58\n      jump\t// in\n    tag_134:\n        /* \"#utility.yul\":5675:5679   */\n      0x20\n        /* \"#utility.yul\":5670:5673   */\n      dup4\n        /* \"#utility.yul\":5666:5680   */\n      add\n        /* \"#utility.yul\":5652:5680   */\n      swap1\n      pop\n        /* \"#utility.yul\":5495:5686   */\n      swap3\n      swap2\n      pop\n      pop\n      jump\t// out\n        /* \"#utility.yul\":5692:5804   */\n    tag_60:\n        /* \"#utility.yul\":5761:5765   */\n      0x00\n        /* \"#utility.yul\":5793:5797   */\n      0x20\n        /* \"#utility.yul\":5788:5791   */\n      dup3\n        /* \"#utility.yul\":5784:5798   */\n      add\n        /* \"#utility.yul\":5776:5798   */\n      swap1\n      pop\n        /* \"#utility.yul\":5692:5804   */\n      swap2\n      swap1\n      pop\n      jump\t// out\n        /* \"#utility.yul\":5838:6586   */\n    tag_61:\n        /* \"#utility.yul\":5963:5966   */\n      0x00\n        /* \"#utility.yul\":5992:6045   */\n      tag_137\n        /* \"#utility.yul\":6039:6044   */\n      dup3\n        /* \"#utility.yul\":5992:6045   */\n      tag_54\n      jump\t// in\n    tag_137:\n        /* \"#utility.yul\":6061:6154   */\n      tag_138\n        /* \"#utility.yul\":6147:6153   */\n      dup2\n        /* \"#utility.yul\":6142:6145   */\n      dup6\n        /* \"#utility.yul\":6061:6154   */\n      tag_55\n      jump\t// in\n    tag_138:\n        /* \"#utility.yul\":6054:6154   */\n      swap4\n      pop\n        /* \"#utility.yul\":6178:6233   */\n      tag_139\n        /* \"#utility.yul\":6227:6232   */\n      dup4\n        /* \"#utility.yul\":6178:6233   */\n      tag_56\n      jump\t// in\n    tag_139:\n        /* \"#utility.yul\":6256:6263   */\n      dup1\n        /* \"#utility.yul\":6287:6288   */\n      0x00\n        /* \"#utility.yul\":6272:6561   */\n    tag_140:\n        /* \"#utility.yul\":6297:6303   */\n      dup4\n        /* \"#utility.yul\":6294:6295   */\n      dup2\n        /* \"#utility.yul\":6291:6304   */\n      lt\n        /* \"#utility.yul\":6272:6561   */\n      iszero\n      tag_142\n      jumpi\n        /* \"#utility.yul\":6373:6379   */\n      dup2\n        /* \"#utility.yul\":6367:6380   */\n      mload\n        /* \"#utility.yul\":6400:6469   */\n      tag_143\n        /* \"#utility.yul\":6465:6468   */\n      dup9\n        /* \"#utility.yul\":6450:6463   */\n      dup3\n        /* \"#utility.yul\":6400:6469   */\n      tag_59\n      jump\t// in\n    tag_143:\n        /* \"#utility.yul\":6393:6469   */\n      swap8\n      pop\n        /* \"#utility.yul\":6492:6551   */\n      tag_144\n        /* \"#utility.yul\":6544:6550   */\n      dup4\n        /* \"#utility.yul\":6492:6551   */\n      tag_60\n      jump\t// in\n    tag_144:\n        /* \"#utility.yul\":6482:6551   */\n      swap3\n      pop\n        /* \"#utility.yul\":6332:6561   */\n      pop\n        /* \"#utility.yul\":6319:6320   */\n      0x01\n        /* \"#utility.yul\":6316:6317   */\n      dup2\n        /* \"#utility.yul\":6312:6321   */\n      add\n        /* \"#utility.yul\":6307:6321   */\n      swap1\n      pop\n        /* \"#utility.yul\":6272:6561   */\n      jump(tag_140)\n    tag_142:\n        /* \"#utility.yul\":6276:6290   */\n      pop\n        /* \"#utility.yul\":6577:6580   */\n      dup6\n        /* \"#utility.yul\":6570:6580   */\n      swap4\n      pop\n        /* \"#utility.yul\":5968:6586   */\n      pop\n      pop\n      pop\n        /* \"#utility.yul\":5838:6586   */\n      swap3\n      swap2\n      pop\n      pop\n      jump\t// out\n        /* \"#utility.yul\":6592:6977   */\n    tag_15:\n        /* \"#utility.yul\":6741:6745   */\n      0x00\n        /* \"#utility.yul\":6779:6781   */\n      0x20\n        /* \"#utility.yul\":6768:6777   */\n      dup3\n        /* \"#utility.yul\":6764:6782   */\n      add\n        /* \"#utility.yul\":6756:6782   */\n      swap1\n      pop\n        /* \"#utility.yul\":6828:6837   */\n      dup2\n        /* \"#utility.yul\":6822:6826   */\n      dup2\n        /* \"#utility.yul\":6818:6838   */\n      sub\n        /* \"#utility.yul\":6814:6815   */\n      0x00\n        /* \"#utility.yul\":6803:6812   */\n      dup4\n        /* \"#utility.yul\":6799:6816   */\n      add\n        /* \"#utility.yul\":6792:6839   */\n      mstore\n        /* \"#utility.yul\":6856:6970   */\n      tag_146\n        /* \"#utility.yul\":6965:6969   */\n      dup2\n        /* \"#utility.yul\":6956:6962   */\n      dup5\n        /* \"#utility.yul\":6856:6970   */\n      tag_61\n      jump\t// in\n    tag_146:\n        /* \"#utility.yul\":6848:6970   */\n      swap1\n      pop\n        /* \"#utility.yul\":6592:6977   */\n      swap3\n      swap2\n      pop\n      pop\n      jump\t// out\n        /* \"#utility.yul\":6983:7095   */\n    tag_62:\n        /* \"#utility.yul\":7048:7054   */\n      0x00\n        /* \"#utility.yul\":7082:7087   */\n      dup2\n        /* \"#utility.yul\":7076:7088   */\n      mload\n        /* \"#utility.yul\":7066:7088   */\n      swap1\n      pop\n        /* \"#utility.yul\":6983:7095   */\n      swap2\n      swap1\n      pop\n      jump\t// out\n        /* \"#utility.yul\":7101:7262   */\n    tag_63:\n        /* \"#utility.yul\":7216:7227   */\n      0x00\n        /* \"#utility.yul\":7253:7256   */\n      dup2\n        /* \"#utility.yul\":7238:7256   */\n      swap1\n      pop\n        /* \"#utility.yul\":7101:7262   */\n      swap3\n      swap2\n      pop\n      pop\n      jump\t// out\n        /* \"#utility.yul\":7268:7398   */\n    tag_64:\n        /* \"#utility.yul\":7333:7337   */\n      0x00\n        /* \"#utility.yul\":7356:7359   */\n      dup2\n        /* \"#utility.yul\":7348:7359   */\n      swap1\n      pop\n        /* \"#utility.yul\":7386:7390   */\n      0x20\n        /* \"#utility.yul\":7381:7384   */\n      dup3\n        /* \"#utility.yul\":7377:7391   */\n      add\n        /* \"#utility.yul\":7369:7391   */\n      swap1\n      pop\n        /* \"#utility.yul\":7268:7398   */\n      swap2\n      swap1\n      pop\n      jump\t// out\n        /* \"#utility.yul\":7404:7514   */\n    tag_65:\n        /* \"#utility.yul\":7485:7507   */\n      tag_151\n        /* \"#utility.yul\":7501:7506   */\n      dup2\n        /* \"#utility.yul\":7485:7507   */\n      tag_44\n      jump\t// in\n    tag_151:\n        /* \"#utility.yul\":7480:7483   */\n      dup3\n        /* \"#utility.yul\":7473:7508   */\n      mstore\n        /* \"#utility.yul\":7404:7514   */\n      pop\n      pop\n      jump\t// out\n        /* \"#utility.yul\":7520:7707   */\n    tag_66:\n        /* \"#utility.yul\":7593:7603   */\n      0x00\n        /* \"#utility.yul\":7614:7664   */\n      tag_153\n        /* \"#utility.yul\":7660:7663   */\n      dup4\n        /* \"#utility.yul\":7652:7658   */\n      dup4\n        /* \"#utility.yul\":7614:7664   */\n      tag_65\n      jump\t// in\n    tag_153:\n        /* \"#utility.yul\":7696:7700   */\n      0x20\n        /* \"#utility.yul\":7691:7694   */\n      dup4\n        /* \"#utility.yul\":7687:7701   */\n      add\n        /* \"#utility.yul\":7673:7701   */\n      swap1\n      pop\n        /* \"#utility.yul\":7520:7707   */\n      swap3\n      swap2\n      pop\n      pop\n      jump\t// out\n        /* \"#utility.yul\":7713:7824   */\n    tag_67:\n        /* \"#utility.yul\":7781:7785   */\n      0x00\n        /* \"#utility.yul\":7813:7817   */\n      0x20\n        /* \"#utility.yul\":7808:7811   */\n      dup3\n        /* \"#utility.yul\":7804:7818   */\n      add\n        /* \"#utility.yul\":7796:7818   */\n      swap1\n      pop\n        /* \"#utility.yul\":7713:7824   */\n      swap2\n      swap1\n      pop\n      jump\t// out\n        /* \"#utility.yul\":7856:8616   */\n    tag_68:\n        /* \"#utility.yul\":7989:7992   */\n      0x00\n        /* \"#utility.yul\":8018:8070   */\n      tag_156\n        /* \"#utility.yul\":8064:8069   */\n      dup3\n        /* \"#utility.yul\":8018:8070   */\n      tag_62\n      jump\t// in\n    tag_156:\n        /* \"#utility.yul\":8086:8188   */\n      tag_157\n        /* \"#utility.yul\":8181:8187   */\n      dup2\n        /* \"#utility.yul\":8176:8179   */\n      dup6\n        /* \"#utility.yul\":8086:8188   */\n      tag_63\n      jump\t// in\n    tag_157:\n        /* \"#utility.yul\":8079:8188   */\n      swap4\n      pop\n        /* \"#utility.yul\":8212:8266   */\n      tag_158\n        /* \"#utility.yul\":8260:8265   */\n      dup4\n        /* \"#utility.yul\":8212:8266   */\n      tag_64\n      jump\t// in\n    tag_158:\n        /* \"#utility.yul\":8289:8296   */\n      dup1\n        /* \"#utility.yul\":8320:8321   */\n      0x00\n        /* \"#utility.yul\":8305:8591   */\n    tag_159:\n        /* \"#utility.yul\":8330:8336   */\n      dup4\n        /* \"#utility.yul\":8327:8328   */\n      dup2\n        /* \"#utility.yul\":8324:8337   */\n      lt\n        /* \"#utility.yul\":8305:8591   */\n      iszero\n      tag_161\n      jumpi\n        /* \"#utility.yul\":8406:8412   */\n      dup2\n        /* \"#utility.yul\":8400:8413   */\n      mload\n        /* \"#utility.yul\":8433:8500   */\n      tag_162\n        /* \"#utility.yul\":8496:8499   */\n      dup9\n        /* \"#utility.yul\":8481:8494   */\n      dup3\n        /* \"#utility.yul\":8433:8500   */\n      tag_66\n      jump\t// in\n    tag_162:\n        /* \"#utility.yul\":8426:8500   */\n      swap8\n      pop\n        /* \"#utility.yul\":8523:8581   */\n      tag_163\n        /* \"#utility.yul\":8574:8580   */\n      dup4\n        /* \"#utility.yul\":8523:8581   */\n      tag_67\n      jump\t// in\n    tag_163:\n        /* \"#utility.yul\":8513:8581   */\n      swap3\n      pop\n        /* \"#utility.yul\":8365:8591   */\n      pop\n        /* \"#utility.yul\":8352:8353   */\n      0x01\n        /* \"#utility.yul\":8349:8350   */\n      dup2\n        /* \"#utility.yul\":8345:8354   */\n      add\n        /* \"#utility.yul\":8340:8354   */\n      swap1\n      pop\n        /* \"#utility.yul\":8305:8591   */\n      jump(tag_159)\n    tag_161:\n        /* \"#utility.yul\":8309:8323   */\n      pop\n        /* \"#utility.yul\":8607:8610   */\n      dup6\n        /* \"#utility.yul\":8600:8610   */\n      swap4\n      pop\n        /* \"#utility.yul\":7994:8616   */\n      pop\n      pop\n      pop\n        /* \"#utility.yul\":7856:8616   */\n      swap3\n      swap2\n      pop\n      pop\n      jump\t// out\n        /* \"#utility.yul\":8622:8949   */\n    tag_18:\n        /* \"#utility.yul\":8780:8783   */\n      0x00\n        /* \"#utility.yul\":8802:8923   */\n      tag_165\n        /* \"#utility.yul\":8919:8922   */\n      dup3\n        /* \"#utility.yul\":8910:8916   */\n      dup5\n        /* \"#utility.yul\":8802:8923   */\n      tag_68\n      jump\t// in\n    tag_165:\n        /* \"#utility.yul\":8795:8923   */\n      swap2\n      pop\n        /* \"#utility.yul\":8940:8943   */\n      dup2\n        /* \"#utility.yul\":8933:8943   */\n      swap1\n      pop\n        /* \"#utility.yul\":8622:8949   */\n      swap3\n      swap2\n      pop\n      pop\n      jump\t// out\n        /* \"#utility.yul\":8955:9135   */\n    tag_26:\n        /* \"#utility.yul\":9003:9080   */\n      0x4e487b7100000000000000000000000000000000000000000000000000000000\n        /* \"#utility.yul\":9000:9001   */\n      0x00\n        /* \"#utility.yul\":8993:9081   */\n      mstore\n        /* \"#utility.yul\":9100:9104   */\n      0x32\n        /* \"#utility.yul\":9097:9098   */\n      0x04\n        /* \"#utility.yul\":9090:9105   */\n      mstore\n        /* \"#utility.yul\":9124:9128   */\n      0x24\n        /* \"#utility.yul\":9121:9122   */\n      0x00\n        /* \"#utility.yul\":9114:9129   */\n      revert\n\n    auxdata: 0xa2646970667358221220c63da5c12caadc729b4f37c5486971049e3c95cfd9ed45acbda5c7c3a416543064736f6c63430008120033\n}\n",
				"bytecode": {
					"linkReferences": {},
					"object": "610761610053600b82828239805160001a607314610046577f4e487b7100000000000000000000000000000000000000000000000000000000600052600060045260246000fd5b30600052607381538281f3fe73000000000000000000000000000000000000000030146080604052600436106100405760003560e01c80636022bb7b1461004557806395fc4af514610075575b600080fd5b61005f600480360381019061005a9190610447565b6100a5565b60405161006c91906104a9565b60405180910390f35b61008f600480360381019061008a9190610510565b6100d7565b60405161009c919061060b565b60405180910390f35b600080826040516020016100b991906106e5565b60405160208183030381529060405290506020810151915050919050565b60606000600567ffffffffffffffff8111156100f6576100f56102cb565b5b6040519080825280602002602001820160405280156101245781602001602082028036833780820191505090505b509050600060808473ffffffffffffffffffffffffffffffffffffffff16901c9050808260008151811061015b5761015a6106fc565b5b602002602001019063ffffffff16908163ffffffff1681525050600060608573ffffffffffffffffffffffffffffffffffffffff16901c905080836001815181106101a9576101a86106fc565b5b602002602001019063ffffffff16908163ffffffff1681525050600060408673ffffffffffffffffffffffffffffffffffffffff16901c905080846002815181106101f7576101f66106fc565b5b602002602001019063ffffffff16908163ffffffff1681525050600060208773ffffffffffffffffffffffffffffffffffffffff16901c90508085600381518110610245576102446106fc565b5b602002602001019063ffffffff16908163ffffffff168152505060008790508086600481518110610279576102786106fc565b5b602002602001019063ffffffff16908163ffffffff1681525050859650505050505050919050565b6000604051905090565b600080fd5b600080fd5b600080fd5b6000601f19601f8301169050919050565b7f4e487b7100000000000000000000000000000000000000000000000000000000600052604160045260246000fd5b610303826102ba565b810181811067ffffffffffffffff82111715610322576103216102cb565b5b80604052505050565b60006103356102a1565b905061034182826102fa565b919050565b600067ffffffffffffffff821115610361576103606102cb565b5b602082029050602081019050919050565b600080fd5b60008160060b9050919050565b61038d81610377565b811461039857600080fd5b50565b6000813590506103aa81610384565b92915050565b60006103c36103be84610346565b61032b565b905080838252602082019050602084028301858111156103e6576103e5610372565b5b835b8181101561040f57806103fb888261039b565b8452602084019350506020810190506103e8565b5050509392505050565b600082601f83011261042e5761042d6102b5565b5b813561043e8482602086016103b0565b91505092915050565b60006020828403121561045d5761045c6102ab565b5b600082013567ffffffffffffffff81111561047b5761047a6102b0565b5b61048784828501610419565b91505092915050565b6000819050919050565b6104a381610490565b82525050565b60006020820190506104be600083018461049a565b92915050565b600073ffffffffffffffffffffffffffffffffffffffff82169050919050565b6104ed816104c4565b81146104f857600080fd5b50565b60008135905061050a816104e4565b92915050565b600060208284031215610526576105256102ab565b5b6000610534848285016104fb565b91505092915050565b600081519050919050565b600082825260208201905092915050565b6000819050602082019050919050565b600063ffffffff82169050919050565b61058281610569565b82525050565b60006105948383610579565b60208301905092915050565b6000602082019050919050565b60006105b88261053d565b6105c28185610548565b93506105cd83610559565b8060005b838110156105fe5781516105e58882610588565b97506105f0836105a0565b9250506001810190506105d1565b5085935050505092915050565b6000602082019050818103600083015261062581846105ad565b905092915050565b600081519050919050565b600081905092915050565b6000819050602082019050919050565b61065c81610377565b82525050565b600061066e8383610653565b60208301905092915050565b6000602082019050919050565b60006106928261062d565b61069c8185610638565b93506106a783610643565b8060005b838110156106d85781516106bf8882610662565b97506106ca8361067a565b9250506001810190506106ab565b5085935050505092915050565b60006106f18284610687565b915081905092915050565b7f4e487b7100000000000000000000000000000000000000000000000000000000600052603260045260246000fdfea2646970667358221220c63da5c12caadc729b4f37c5486971049e3c95cfd9ed45acbda5c7c3a416543064736f6c63430008120033",
					"opcodes": "PUSH2 0x761 PUSH2 0x53 PUSH1 0xB DUP3 DUP3 DUP3 CODECOPY DUP1 MLOAD PUSH1 0x0 BYTE PUSH1 0x73 EQ PUSH2 0x46 JUMPI PUSH32 0x4E487B7100000000000000000000000000000000000000000000000000000000 PUSH1 0x0 MSTORE PUSH1 0x0 PUSH1 0x4 MSTORE PUSH1 0x24 PUSH1 0x0 REVERT JUMPDEST ADDRESS PUSH1 0x0 MSTORE PUSH1 0x73 DUP2 MSTORE8 DUP3 DUP2 RETURN INVALID PUSH20 0x0 ADDRESS EQ PUSH1 0x80 PUSH1 0x40 MSTORE PUSH1 0x4 CALLDATASIZE LT PUSH2 0x40 JUMPI PUSH1 0x0 CALLDATALOAD PUSH1 0xE0 SHR DUP1 PUSH4 0x6022BB7B EQ PUSH2 0x45 JUMPI DUP1 PUSH4 0x95FC4AF5 EQ PUSH2 0x75 JUMPI JUMPDEST PUSH1 0x0 DUP1 REVERT JUMPDEST PUSH2 0x5F PUSH1 0x4 DUP1 CALLDATASIZE SUB DUP2 ADD SWAP1 PUSH2 0x5A SWAP2 SWAP1 PUSH2 0x447 JUMP JUMPDEST PUSH2 0xA5 JUMP JUMPDEST PUSH1 0x40 MLOAD PUSH2 0x6C SWAP2 SWAP1 PUSH2 0x4A9 JUMP JUMPDEST PUSH1 0x40 MLOAD DUP1 SWAP2 SUB SWAP1 RETURN JUMPDEST PUSH2 0x8F PUSH1 0x4 DUP1 CALLDATASIZE SUB DUP2 ADD SWAP1 PUSH2 0x8A SWAP2 SWAP1 PUSH2 0x510 JUMP JUMPDEST PUSH2 0xD7 JUMP JUMPDEST PUSH1 0x40 MLOAD PUSH2 0x9C SWAP2 SWAP1 PUSH2 0x60B JUMP JUMPDEST PUSH1 0x40 MLOAD DUP1 SWAP2 SUB SWAP1 RETURN JUMPDEST PUSH1 0x0 DUP1 DUP3 PUSH1 0x40 MLOAD PUSH1 0x20 ADD PUSH2 0xB9 SWAP2 SWAP1 PUSH2 0x6E5 JUMP JUMPDEST PUSH1 0x40 MLOAD PUSH1 0x20 DUP2 DUP4 SUB SUB DUP2 MSTORE SWAP1 PUSH1 0x40 MSTORE SWAP1 POP PUSH1 0x20 DUP2 ADD MLOAD SWAP2 POP POP SWAP2 SWAP1 POP JUMP JUMPDEST PUSH1 0x60 PUSH1 0x0 PUSH1 0x5 PUSH8 0xFFFFFFFFFFFFFFFF DUP2 GT ISZERO PUSH2 0xF6 JUMPI PUSH2 0xF5 PUSH2 0x2CB JUMP JUMPDEST JUMPDEST PUSH1 0x40 MLOAD SWAP1 DUP1 DUP3 MSTORE DUP1 PUSH1 0x20 MUL PUSH1 0x20 ADD DUP3 ADD PUSH1 0x40 MSTORE DUP1 ISZERO PUSH2 0x124 JUMPI DUP2 PUSH1 0x20 ADD PUSH1 0x20 DUP3 MUL DUP1 CALLDATASIZE DUP4 CALLDATACOPY DUP1 DUP3 ADD SWAP2 POP POP SWAP1 POP JUMPDEST POP SWAP1 POP PUSH1 0x0 PUSH1 0x80 DUP5 PUSH20 0xFFFFFFFFFFFFFFFFFFFFFFFFFFFFFFFFFFFFFFFF AND SWAP1 SHR SWAP1 POP DUP1 DUP3 PUSH1 0x0 DUP2 MLOAD DUP2 LT PUSH2 0x15B JUMPI PUSH2 0x15A PUSH2 0x6FC JUMP JUMPDEST JUMPDEST PUSH1 0x20 MUL PUSH1 0x20 ADD ADD SWAP1 PUSH4 0xFFFFFFFF AND SWAP1 DUP2 PUSH4 0xFFFFFFFF AND DUP2 MSTORE POP POP PUSH1 0x0 PUSH1 0x60 DUP6 PUSH20 0xFFFFFFFFFFFFFFFFFFFFFFFFFFFFFFFFFFFFFFFF AND SWAP1 SHR SWAP1 POP DUP1 DUP4 PUSH1 0x1 DUP2 MLOAD DUP2 LT PUSH2 0x1A9 JUMPI PUSH2 0x1A8 PUSH2 0x6FC JUMP JUMPDEST JUMPDEST PUSH1 0x20 MUL PUSH1 0x20 ADD ADD SWAP1 PUSH4 0xFFFFFFFF AND SWAP1 DUP2 PUSH4 0xFFFFFFFF AND DUP2 MSTORE POP POP PUSH1 0x0 PUSH1 0x40 DUP7 PUSH20 0xFFFFFFFFFFFFFFFFFFFFFFFFFFFFFFFFFFFFFFFF AND SWAP1 SHR SWAP1 POP DUP1 DUP5 PUSH1 0x2 DUP2 MLOAD DUP2 LT PUSH2 0x1F7 JUMPI PUSH2 0x1F6 PUSH2 0x6FC JUMP JUMPDEST JUMPDEST PUSH1 0x20 MUL PUSH1 0x20 ADD ADD SWAP1 PUSH4 0xFFFFFFFF AND SWAP1 DUP2 PUSH4 0xFFFFFFFF AND DUP2 MSTORE POP POP PUSH1 0x0 PUSH1 0x20 DUP8 PUSH20 0xFFFFFFFFFFFFFFFFFFFFFFFFFFFFFFFFFFFFFFFF AND SWAP1 SHR SWAP1 POP DUP1 DUP6 PUSH1 0x3 DUP2 MLOAD DUP2 LT PUSH2 0x245 JUMPI PUSH2 0x244 PUSH2 0x6FC JUMP JUMPDEST JUMPDEST PUSH1 0x20 MUL PUSH1 0x20 ADD ADD SWAP1 PUSH4 0xFFFFFFFF AND SWAP1 DUP2 PUSH4 0xFFFFFFFF AND DUP2 MSTORE POP POP PUSH1 0x0 DUP8 SWAP1 POP DUP1 DUP7 PUSH1 0x4 DUP2 MLOAD DUP2 LT PUSH2 0x279 JUMPI PUSH2 0x278 PUSH2 0x6FC JUMP JUMPDEST JUMPDEST PUSH1 0x20 MUL PUSH1 0x20 ADD ADD SWAP1 PUSH4 0xFFFFFFFF AND SWAP1 DUP2 PUSH4 0xFFFFFFFF AND DUP2 MSTORE POP POP DUP6 SWAP7 POP POP POP POP POP POP POP SWAP2 SWAP1 POP JUMP JUMPDEST PUSH1 0x0 PUSH1 0x40 MLOAD SWAP1 POP SWAP1 JUMP JUMPDEST PUSH1 0x0 DUP1 REVERT JUMPDEST PUSH1 0x0 DUP1 REVERT JUMPDEST PUSH1 0x0 DUP1 REVERT JUMPDEST PUSH1 0x0 PUSH1 0x1F NOT PUSH1 0x1F DUP4 ADD AND SWAP1 POP SWAP2 SWAP1 POP JUMP JUMPDEST PUSH32 0x4E487B7100000000000000000000000000000000000000000000000000000000 PUSH1 0x0 MSTORE PUSH1 0x41 PUSH1 0x4 MSTORE PUSH1 0x24 PUSH1 0x0 REVERT JUMPDEST PUSH2 0x303 DUP3 PUSH2 0x2BA JUMP JUMPDEST DUP2 ADD DUP2 DUP2 LT PUSH8 0xFFFFFFFFFFFFFFFF DUP3 GT OR ISZERO PUSH2 0x322 JUMPI PUSH2 0x321 PUSH2 0x2CB JUMP JUMPDEST JUMPDEST DUP1 PUSH1 0x40 MSTORE POP POP POP JUMP JUMPDEST PUSH1 0x0 PUSH2 0x335 PUSH2 0x2A1 JUMP JUMPDEST SWAP1 POP PUSH2 0x341 DUP3 DUP3 PUSH2 0x2FA JUMP JUMPDEST SWAP2 SWAP1 POP JUMP JUMPDEST PUSH1 0x0 PUSH8 0xFFFFFFFFFFFFFFFF DUP3 GT ISZERO PUSH2 0x361 JUMPI PUSH2 0x360 PUSH2 0x2CB JUMP JUMPDEST JUMPDEST PUSH1 0x20 DUP3 MUL SWAP1 POP PUSH1 0x20 DUP2 ADD SWAP1 POP SWAP2 SWAP1 POP JUMP JUMPDEST PUSH1 0x0 DUP1 REVERT JUMPDEST PUSH1 0x0 DUP2 PUSH1 0x6 SIGNEXTEND SWAP1 POP SWAP2 SWAP1 POP JUMP JUMPDEST PUSH2 0x38D DUP2 PUSH2 0x377 JUMP JUMPDEST DUP2 EQ PUSH2 0x398 JUMPI PUSH1 0x0 DUP1 REVERT JUMPDEST POP JUMP JUMPDEST PUSH1 0x0 DUP2 CALLDATALOAD SWAP1 POP PUSH2 0x3AA DUP2 PUSH2 0x384 JUMP JUMPDEST SWAP3 SWAP2 POP POP JUMP JUMPDEST PUSH1 0x0 PUSH2 0x3C3 PUSH2 0x3BE DUP5 PUSH2 0x346 JUMP JUMPDEST PUSH2 0x32B JUMP JUMPDEST SWAP1 POP DUP1 DUP4 DUP3 MSTORE PUSH1 0x20 DUP3 ADD SWAP1 POP PUSH1 0x20 DUP5 MUL DUP4 ADD DUP6 DUP2 GT ISZERO PUSH2 0x3E6 JUMPI PUSH2 0x3E5 PUSH2 0x372 JUMP JUMPDEST JUMPDEST DUP4 JUMPDEST DUP2 DUP2 LT ISZERO PUSH2 0x40F JUMPI DUP1 PUSH2 0x3FB DUP9 DUP3 PUSH2 0x39B JUMP JUMPDEST DUP5 MSTORE PUSH1 0x20 DUP5 ADD SWAP4 POP POP PUSH1 0x20 DUP2 ADD SWAP1 POP PUSH2 0x3E8 JUMP JUMPDEST POP POP POP SWAP4 SWAP3 POP POP POP JUMP JUMPDEST PUSH1 0x0 DUP3 PUSH1 0x1F DUP4 ADD SLT PUSH2 0x42E JUMPI PUSH2 0x42D PUSH2 0x2B5 JUMP JUMPDEST JUMPDEST DUP2 CALLDATALOAD PUSH2 0x43E DUP5 DUP3 PUSH1 0x20 DUP7 ADD PUSH2 0x3B0 JUMP JUMPDEST SWAP2 POP POP SWAP3 SWAP2 POP POP JUMP JUMPDEST PUSH1 0x0 PUSH1 0x20 DUP3 DUP5 SUB SLT ISZERO PUSH2 0x45D JUMPI PUSH2 0x45C PUSH2 0x2AB JUMP JUMPDEST JUMPDEST PUSH1 0x0 DUP3 ADD CALLDATALOAD PUSH8 0xFFFFFFFFFFFFFFFF DUP2 GT ISZERO PUSH2 0x47B JUMPI PUSH2 0x47A PUSH2 0x2B0 JUMP JUMPDEST JUMPDEST PUSH2 0x487 DUP5 DUP3 DUP6 ADD PUSH2 0x419 JUMP JUMPDEST SWAP2 POP POP SWAP3 SWAP2 POP POP JUMP JUMPDEST PUSH1 0x0 DUP2 SWAP1 POP SWAP2 SWAP1 POP JUMP JUMPDEST PUSH2 0x4A3 DUP2 PUSH2 0x490 JUMP JUMPDEST DUP3 MSTORE POP POP JUMP JUMPDEST PUSH1 0x0 PUSH1 0x20 DUP3 ADD SWAP1 POP PUSH2 0x4BE PUSH1 0x0 DUP4 ADD DUP5 PUSH2 0x49A JUMP JUMPDEST SWAP3 SWAP2 POP POP JUMP JUMPDEST PUSH1 0x0 PUSH20 0xFFFFFFFFFFFFFFFFFFFFFFFFFFFFFFFFFFFFFFFF DUP3 AND SWAP1 POP SWAP2 SWAP1 POP JUMP JUMPDEST PUSH2 0x4ED DUP2 PUSH2 0x4C4 JUMP JUMPDEST DUP2 EQ PUSH2 0x4F8 JUMPI PUSH1 0x0 DUP1 REVERT JUMPDEST POP JUMP JUMPDEST PUSH1 0x0 DUP2 CALLDATALOAD SWAP1 POP PUSH2 0x50A DUP2 PUSH2 0x4E4 JUMP JUMPDEST SWAP3 SWAP2 POP POP JUMP JUMPDEST PUSH1 0x0 PUSH1 0x20 DUP3 DUP5 SUB SLT ISZERO PUSH2 0x526 JUMPI PUSH2 0x525 PUSH2 0x2AB JUMP JUMPDEST JUMPDEST PUSH1 0x0 PUSH2 0x534 DUP5 DUP3 DUP6 ADD PUSH2 0x4FB JUMP JUMPDEST SWAP2 POP POP SWAP3 SWAP2 POP POP JUMP JUMPDEST PUSH1 0x0 DUP2 MLOAD SWAP1 POP SWAP2 SWAP1 POP JUMP JUMPDEST PUSH1 0x0 DUP3 DUP3 MSTORE PUSH1 0x20 DUP3 ADD SWAP1 POP SWAP3 SWAP2 POP POP JUMP JUMPDEST PUSH1 0x0 DUP2 SWAP1 POP PUSH1 0x20 DUP3 ADD SWAP1 POP SWAP2 SWAP1 POP JUMP JUMPDEST PUSH1 0x0 PUSH4 0xFFFFFFFF DUP3 AND SWAP1 POP SWAP2 SWAP1 POP JUMP JUMPDEST PUSH2 0x582 DUP2 PUSH2 0x569 JUMP JUMPDEST DUP3 MSTORE POP POP JUMP JUMPDEST PUSH1 0x0 PUSH2 0x594 DUP4 DUP4 PUSH2 0x579 JUMP JUMPDEST PUSH1 0x20 DUP4 ADD SWAP1 POP SWAP3 SWAP2 POP POP JUMP JUMPDEST PUSH1 0x0 PUSH1 0x20 DUP3 ADD SWAP1 POP SWAP2 SWAP1 POP JUMP JUMPDEST PUSH1 0x0 PUSH2 0x5B8 DUP3 PUSH2 0x53D JUMP JUMPDEST PUSH2 0x5C2 DUP2 DUP6 PUSH2 0x548 JUMP JUMPDEST SWAP4 POP PUSH2 0x5CD DUP4 PUSH2 0x559 JUMP JUMPDEST DUP1 PUSH1 0x0 JUMPDEST DUP4 DUP2 LT ISZERO PUSH2 0x5FE JUMPI DUP2 MLOAD PUSH2 0x5E5 DUP9 DUP3 PUSH2 0x588 JUMP JUMPDEST SWAP8 POP PUSH2 0x5F0 DUP4 PUSH2 0x5A0 JUMP JUMPDEST SWAP3 POP POP PUSH1 0x1 DUP2 ADD SWAP1 POP PUSH2 0x5D1 JUMP JUMPDEST POP DUP6 SWAP4 POP POP POP POP SWAP3 SWAP2 POP POP JUMP JUMPDEST PUSH1 0x0 PUSH1 0x20 DUP3 ADD SWAP1 POP DUP2 DUP2 SUB PUSH1 0x0 DUP4 ADD MSTORE PUSH2 0x625 DUP2 DUP5 PUSH2 0x5AD JUMP JUMPDEST SWAP1 POP SWAP3 SWAP2 POP POP JUMP JUMPDEST PUSH1 0x0 DUP2 MLOAD SWAP1 POP SWAP2 SWAP1 POP JUMP JUMPDEST PUSH1 0x0 DUP2 SWAP1 POP SWAP3 SWAP2 POP POP JUMP JUMPDEST PUSH1 0x0 DUP2 SWAP1 POP PUSH1 0x20 DUP3 ADD SWAP1 POP SWAP2 SWAP1 POP JUMP JUMPDEST PUSH2 0x65C DUP2 PUSH2 0x377 JUMP JUMPDEST DUP3 MSTORE POP POP JUMP JUMPDEST PUSH1 0x0 PUSH2 0x66E DUP4 DUP4 PUSH2 0x653 JUMP JUMPDEST PUSH1 0x20 DUP4 ADD SWAP1 POP SWAP3 SWAP2 POP POP JUMP JUMPDEST PUSH1 0x0 PUSH1 0x20 DUP3 ADD SWAP1 POP SWAP2 SWAP1 POP JUMP JUMPDEST PUSH1 0x0 PUSH2 0x692 DUP3 PUSH2 0x62D JUMP JUMPDEST PUSH2 0x69C DUP2 DUP6 PUSH2 0x638 JUMP JUMPDEST SWAP4 POP PUSH2 0x6A7 DUP4 PUSH2 0x643 JUMP JUMPDEST DUP1 PUSH1 0x0 JUMPDEST DUP4 DUP2 LT ISZERO PUSH2 0x6D8 JUMPI DUP2 MLOAD PUSH2 0x6BF DUP9 DUP3 PUSH2 0x662 JUMP JUMPDEST SWAP8 POP PUSH2 0x6CA DUP4 PUSH2 0x67A JUMP JUMPDEST SWAP3 POP POP PUSH1 0x1 DUP2 ADD SWAP1 POP PUSH2 0x6AB JUMP JUMPDEST POP DUP6 SWAP4 POP POP POP POP SWAP3 SWAP2 POP POP JUMP JUMPDEST PUSH1 0x0 PUSH2 0x6F1 DUP3 DUP5 PUSH2 0x687 JUMP JUMPDEST SWAP2 POP DUP2 SWAP1 POP SWAP3 SWAP2 POP POP JUMP JUMPDEST PUSH32 0x4E487B7100000000000000000000000000000000000000000000000000000000 PUSH1 0x0 MSTORE PUSH1 0x32 PUSH1 0x4 MSTORE PUSH1 0x24 PUSH1 0x0 REVERT INVALID LOG2 PUSH5 0x6970667358 0x22 SLT KECCAK256 0xC6 RETURNDATASIZE 0xA5 0xC1 0x2C 0xAA 0xDC PUSH19 0x9B4F37C5486971049E3C95CFD9ED45ACBDA5C7 0xC3 LOG4 AND SLOAD ADDRESS PUSH5 0x736F6C6343 STOP ADDMOD SLT STOP CALLER "
				},
				"gasEstimates": {
					"creation": {
						"codeDepositCost": "377800",
						"executionCost": "443",
						"totalCost": "378243"
					},
					"external": {
						"convertToInt(int56[])": "infinite",
						"toUint32Array(uint160)": "infinite"
					}
				},
				"methodIdentifiers": {
					"convertToInt(int56[])": "6022bb7b",
					"toUint32Array(uint160)": "95fc4af5"
				}
			},
			"storageLayout": {
				"storage": [],
				"types": null
			},
			"userdoc": {
				"kind": "user",
				"methods": {},
				"version": 1
			}
		}
	}
}