{
	"contracts/ArbitrageUniV3.sol": {
		"ArbitrageUniV3": {
			"abi": [
				{
					"inputs": [
						{
							"internalType": "address",
							"name": "_manager",
							"type": "address"
						},
						{
							"internalType": "address",
							"name": "_router",
							"type": "address"
						},
						{
							"internalType": "address",
							"name": "_pool",
							"type": "address"
						},
						{
							"internalType": "uint256",
							"name": "_stock_index",
							"type": "uint256"
						}
					],
					"stateMutability": "nonpayable",
					"type": "constructor"
				},
				{
					"anonymous": false,
					"inputs": [
						{
							"indexed": true,
							"internalType": "address",
							"name": "user",
							"type": "address"
						},
						{
							"indexed": false,
							"internalType": "uint256",
							"name": "amount",
							"type": "uint256"
						}
					],
					"name": "Deposit",
					"type": "event"
				},
				{
					"anonymous": false,
					"inputs": [
						{
							"indexed": true,
							"internalType": "address",
							"name": "previousManager",
							"type": "address"
						},
						{
							"indexed": true,
							"internalType": "address",
							"name": "newManager",
							"type": "address"
						}
					],
					"name": "ManagerTransferred",
					"type": "event"
				},
				{
					"anonymous": false,
					"inputs": [
						{
							"indexed": true,
							"internalType": "address",
							"name": "pendingOwner",
							"type": "address"
						}
					],
					"name": "OwnershipOffered",
					"type": "event"
				},
				{
					"anonymous": false,
					"inputs": [
						{
							"indexed": true,
							"internalType": "address",
							"name": "previousOwner",
							"type": "address"
						},
						{
							"indexed": true,
							"internalType": "address",
							"name": "newOwner",
							"type": "address"
						}
					],
					"name": "OwnershipTransferred",
					"type": "event"
				},
				{
					"anonymous": false,
					"inputs": [
						{
							"indexed": true,
							"internalType": "address",
							"name": "user",
							"type": "address"
						},
						{
							"indexed": true,
							"internalType": "address",
							"name": "fromToken",
							"type": "address"
						},
						{
							"indexed": true,
							"internalType": "address",
							"name": "toToken",
							"type": "address"
						},
						{
							"indexed": false,
							"internalType": "uint256",
							"name": "amountIn",
							"type": "uint256"
						},
						{
							"indexed": false,
							"internalType": "uint256",
							"name": "amountOut",
							"type": "uint256"
						}
					],
					"name": "Swap",
					"type": "event"
				},
				{
					"anonymous": false,
					"inputs": [
						{
							"indexed": true,
							"internalType": "address",
							"name": "user",
							"type": "address"
						},
						{
							"indexed": false,
							"internalType": "uint256",
							"name": "amount",
							"type": "uint256"
						}
					],
					"name": "Withdraw",
					"type": "event"
				},
				{
					"inputs": [],
					"name": "claimOwnership",
					"outputs": [],
					"stateMutability": "nonpayable",
					"type": "function"
				},
				{
					"inputs": [
						{
							"internalType": "uint256",
							"name": "amountOutMinimum",
							"type": "uint256"
						},
						{
							"internalType": "uint160",
							"name": "sqrtPriceLimitX96",
							"type": "uint160"
						}
					],
					"name": "closePostion",
					"outputs": [
						{
							"internalType": "uint256",
							"name": "amount",
							"type": "uint256"
						}
					],
					"stateMutability": "nonpayable",
					"type": "function"
				},
				{
					"inputs": [],
					"name": "close_stock",
					"outputs": [
						{
							"internalType": "uint256",
							"name": "",
							"type": "uint256"
						}
					],
					"stateMutability": "view",
					"type": "function"
				},
				{
					"inputs": [
						{
							"internalType": "uint256",
							"name": "amount",
							"type": "uint256"
						}
					],
					"name": "deposit",
					"outputs": [
						{
							"internalType": "uint256",
							"name": "depositAmount",
							"type": "uint256"
						}
					],
					"stateMutability": "payable",
					"type": "function"
				},
				{
					"inputs": [],
					"name": "manager",
					"outputs": [
						{
							"internalType": "address",
							"name": "",
							"type": "address"
						}
					],
					"stateMutability": "view",
					"type": "function"
				},
				{
					"inputs": [
						{
							"internalType": "uint256",
							"name": "amountOutMinimum",
							"type": "uint256"
						},
						{
							"internalType": "uint160",
							"name": "sqrtPriceLimitX96",
							"type": "uint160"
						}
					],
					"name": "openPostion",
					"outputs": [
						{
							"internalType": "uint256",
							"name": "amount",
							"type": "uint256"
						}
					],
					"stateMutability": "nonpayable",
					"type": "function"
				},
				{
					"inputs": [],
					"name": "org_stock",
					"outputs": [
						{
							"internalType": "uint256",
							"name": "",
							"type": "uint256"
						}
					],
					"stateMutability": "view",
					"type": "function"
				},
				{
					"inputs": [],
					"name": "owner",
					"outputs": [
						{
							"internalType": "address",
							"name": "",
							"type": "address"
						}
					],
					"stateMutability": "view",
					"type": "function"
				},
				{
					"inputs": [],
					"name": "pendingOwner",
					"outputs": [
						{
							"internalType": "address",
							"name": "",
							"type": "address"
						}
					],
					"stateMutability": "view",
					"type": "function"
				},
				{
					"inputs": [],
					"name": "pool",
					"outputs": [
						{
							"internalType": "address",
							"name": "",
							"type": "address"
						}
					],
					"stateMutability": "view",
					"type": "function"
				},
				{
					"inputs": [],
					"name": "renounceOwnership",
					"outputs": [],
					"stateMutability": "nonpayable",
					"type": "function"
				},
				{
					"inputs": [],
					"name": "router",
					"outputs": [
						{
							"internalType": "address",
							"name": "",
							"type": "address"
						}
					],
					"stateMutability": "view",
					"type": "function"
				},
				{
					"inputs": [
						{
							"internalType": "address",
							"name": "",
							"type": "address"
						}
					],
					"name": "shares",
					"outputs": [
						{
							"internalType": "uint256",
							"name": "",
							"type": "uint256"
						}
					],
					"stateMutability": "view",
					"type": "function"
				},
				{
					"inputs": [],
					"name": "stock_index",
					"outputs": [
						{
							"internalType": "uint256",
							"name": "",
							"type": "uint256"
						}
					],
					"stateMutability": "view",
					"type": "function"
				},
				{
					"inputs": [
						{
							"internalType": "address",
							"name": "_newOwner",
							"type": "address"
						}
					],
					"name": "transferOwnership",
					"outputs": [],
					"stateMutability": "nonpayable",
					"type": "function"
				},
				{
					"inputs": [],
					"name": "withdraw",
					"outputs": [
						{
							"internalType": "uint256",
							"name": "withdrawAmount",
							"type": "uint256"
						}
					],
					"stateMutability": "nonpayable",
					"type": "function"
				}
			],
			"devdoc": {
				"events": {
					"ManagerTransferred(address,address)": {
						"details": "Emitted when `_manager` has been changed.",
						"params": {
							"newManager": "new `_manager` address.",
							"previousManager": "previous `_manager` address."
						}
					},
					"OwnershipOffered(address)": {
						"details": "Emitted when `_pendingOwner` has been changed.",
						"params": {
							"pendingOwner": "new `_pendingOwner` address."
						}
					},
					"OwnershipTransferred(address,address)": {
						"details": "Emitted when `_owner` has been changed.",
						"params": {
							"newOwner": "new `_owner` address.",
							"previousOwner": "previous `_owner` address."
						}
					}
				},
				"kind": "dev",
				"methods": {
					"claimOwnership()": {
						"details": "This function is only callable by the `_pendingOwner`."
					},
					"manager()": {
						"returns": {
							"_0": "Current `_manager` address."
						}
					},
					"pendingOwner()": {
						"returns": {
							"_0": "Current `_pendingOwner` address."
						}
					},
					"renounceOwnership()": {
						"details": "Leaves the contract without owner. It will not be possible to call `onlyOwner` functions anymore. Can only be called by the current owner. NOTE: Renouncing ownership will leave the contract without an owner, thereby removing any functionality that is only available to the owner."
					},
					"transferOwnership(address)": {
						"params": {
							"_newOwner": "Address to transfer ownership to."
						}
					}
				},
				"version": 1
			},
			"evm": {
				"assembly": "    /* \"contracts/ArbitrageUniV3.sol\":378:4455  contract ArbitrageUniV3 is IArbitrage, Manageable{... */\n  mstore(0x40, 0x80)\n    /* \"contracts/ArbitrageUniV3.sol\":949:1530  constructor(... */\n  callvalue\n  dup1\n  iszero\n  tag_1\n  jumpi\n  0x00\n  dup1\n  revert\ntag_1:\n  pop\n  mload(0x40)\n  sub(codesize, bytecodeSize)\n  dup1\n  bytecodeSize\n  dup4\n  codecopy\n  dup2\n  dup2\n  add\n  0x40\n  mstore\n  dup2\n  add\n  swap1\n  tag_2\n  swap2\n  swap1\n  tag_3\n  jump\t// in\ntag_2:\n    /* \"contracts/ArbitrageUniV3.sol\":1113:1121  _manager */\n  dup4\n    /* \"contracts/ArbitrageUniV3.sol\":1083:1093  msg.sender */\n  caller\n    /* \"contracts/extern/Manageable.sol\":2581:2605  _setOwner(_initialOwner) */\n  tag_8\n    /* \"contracts/extern/Manageable.sol\":2591:2604  _initialOwner */\n  dup2\n    /* \"contracts/extern/Manageable.sol\":2581:2590  _setOwner */\n  shl(0x20, tag_9)\n    /* \"contracts/extern/Manageable.sol\":2581:2605  _setOwner(_initialOwner) */\n  0x20\n  shr\n  jump\t// in\ntag_8:\n    /* \"contracts/extern/Manageable.sol\":2535:2613  constructor(address _initialOwner) {... */\n  pop\n    /* \"contracts/extern/Manageable.sol\":5277:5292  manager_address */\n  dup1\n    /* \"contracts/extern/Manageable.sol\":5266:5274  _manager */\n  0x02\n  0x00\n    /* \"contracts/extern/Manageable.sol\":5266:5292  _manager = manager_address */\n  0x0100\n  exp\n  dup2\n  sload\n  dup2\n  0xffffffffffffffffffffffffffffffffffffffff\n  mul\n  not\n  and\n  swap1\n  dup4\n  0xffffffffffffffffffffffffffffffffffffffff\n  and\n  mul\n  or\n  swap1\n  sstore\n  pop\n    /* \"contracts/extern/Manageable.sol\":5218:5300  constructor(address manager_address) {... */\n  pop\n    /* \"contracts/ArbitrageUniV3.sol\":1163:1164  0 */\n  0x00\n    /* \"contracts/ArbitrageUniV3.sol\":1147:1159  _stock_index */\n  dup2\n    /* \"contracts/ArbitrageUniV3.sol\":1147:1164  _stock_index == 0 */\n  eq\n    /* \"contracts/ArbitrageUniV3.sol\":1147:1185  _stock_index == 0 || _stock_index == 0 */\n  dup1\n  tag_12\n  jumpi\n  pop\n    /* \"contracts/ArbitrageUniV3.sol\":1184:1185  0 */\n  0x00\n    /* \"contracts/ArbitrageUniV3.sol\":1168:1180  _stock_index */\n  dup2\n    /* \"contracts/ArbitrageUniV3.sol\":1168:1185  _stock_index == 0 */\n  eq\n    /* \"contracts/ArbitrageUniV3.sol\":1147:1185  _stock_index == 0 || _stock_index == 0 */\ntag_12:\n    /* \"contracts/ArbitrageUniV3.sol\":1139:1224  require(_stock_index == 0 || _stock_index == 0, \"stock in pool must be zero or one.\") */\n  tag_13\n  jumpi\n  mload(0x40)\n  0x08c379a000000000000000000000000000000000000000000000000000000000\n  dup2\n  mstore\n  0x04\n  add\n  tag_14\n  swap1\n  tag_15\n  jump\t// in\ntag_14:\n  mload(0x40)\n  dup1\n  swap2\n  sub\n  swap1\n  revert\ntag_13:\n    /* \"contracts/ArbitrageUniV3.sol\":1244:1251  _router */\n  dup3\n    /* \"contracts/ArbitrageUniV3.sol\":1235:1241  router */\n  0x03\n  0x00\n    /* \"contracts/ArbitrageUniV3.sol\":1235:1251  router = _router */\n  0x0100\n  exp\n  dup2\n  sload\n  dup2\n  0xffffffffffffffffffffffffffffffffffffffff\n  mul\n  not\n  and\n  swap1\n  dup4\n  0xffffffffffffffffffffffffffffffffffffffff\n  and\n  mul\n  or\n  swap1\n  sstore\n  pop\n    /* \"contracts/ArbitrageUniV3.sol\":1269:1274  _pool */\n  dup2\n    /* \"contracts/ArbitrageUniV3.sol\":1262:1266  pool */\n  0x04\n  0x00\n    /* \"contracts/ArbitrageUniV3.sol\":1262:1274  pool = _pool */\n  0x0100\n  exp\n  dup2\n  sload\n  dup2\n  0xffffffffffffffffffffffffffffffffffffffff\n  mul\n  not\n  and\n  swap1\n  dup4\n  0xffffffffffffffffffffffffffffffffffffffff\n  and\n  mul\n  or\n  swap1\n  sstore\n  pop\n    /* \"contracts/ArbitrageUniV3.sol\":1299:1311  _stock_index */\n  dup1\n    /* \"contracts/ArbitrageUniV3.sol\":1285:1296  stock_index */\n  0x08\n    /* \"contracts/ArbitrageUniV3.sol\":1285:1311  stock_index = _stock_index */\n  dup2\n  swap1\n  sstore\n  pop\n    /* \"contracts/ArbitrageUniV3.sol\":949:1530  constructor(... */\n  pop\n  pop\n  pop\n  pop\n    /* \"contracts/ArbitrageUniV3.sol\":378:4455  contract ArbitrageUniV3 is IArbitrage, Manageable{... */\n  jump(tag_16)\n    /* \"contracts/extern/Manageable.sol\":4462:4640  function _setOwner(address _newOwner) private {... */\ntag_9:\n    /* \"contracts/extern/Manageable.sol\":4519:4536  address _oldOwner */\n  0x00\n    /* \"contracts/extern/Manageable.sol\":4539:4545  _owner */\n  dup1\n  0x00\n  swap1\n  sload\n  swap1\n  0x0100\n  exp\n  swap1\n  div\n  0xffffffffffffffffffffffffffffffffffffffff\n  and\n    /* \"contracts/extern/Manageable.sol\":4519:4545  address _oldOwner = _owner */\n  swap1\n  pop\n    /* \"contracts/extern/Manageable.sol\":4565:4574  _newOwner */\n  dup2\n    /* \"contracts/extern/Manageable.sol\":4556:4562  _owner */\n  0x00\n  dup1\n    /* \"contracts/extern/Manageable.sol\":4556:4574  _owner = _newOwner */\n  0x0100\n  exp\n  dup2\n  sload\n  dup2\n  0xffffffffffffffffffffffffffffffffffffffff\n  mul\n  not\n  and\n  swap1\n  dup4\n  0xffffffffffffffffffffffffffffffffffffffff\n  and\n  mul\n  or\n  swap1\n  sstore\n  pop\n    /* \"contracts/extern/Manageable.sol\":4622:4631  _newOwner */\n  dup2\n    /* \"contracts/extern/Manageable.sol\":4590:4632  OwnershipTransferred(_oldOwner, _newOwner) */\n  0xffffffffffffffffffffffffffffffffffffffff\n  and\n    /* \"contracts/extern/Manageable.sol\":4611:4620  _oldOwner */\n  dup2\n    /* \"contracts/extern/Manageable.sol\":4590:4632  OwnershipTransferred(_oldOwner, _newOwner) */\n  0xffffffffffffffffffffffffffffffffffffffff\n  and\n  0x8be0079c531659141344cd1fd0a4f28419497f9722a3daafe3b4186f6b6457e0\n  mload(0x40)\n  mload(0x40)\n  dup1\n  swap2\n  sub\n  swap1\n  log3\n    /* \"contracts/extern/Manageable.sol\":4508:4640  {... */\n  pop\n    /* \"contracts/extern/Manageable.sol\":4462:4640  function _setOwner(address _newOwner) private {... */\n  pop\n  jump\t// out\n    /* \"#utility.yul\":88:205   */\ntag_19:\n    /* \"#utility.yul\":197:198   */\n  0x00\n    /* \"#utility.yul\":194:195   */\n  dup1\n    /* \"#utility.yul\":187:199   */\n  revert\n    /* \"#utility.yul\":334:460   */\ntag_21:\n    /* \"#utility.yul\":371:378   */\n  0x00\n    /* \"#utility.yul\":411:453   */\n  0xffffffffffffffffffffffffffffffffffffffff\n    /* \"#utility.yul\":404:409   */\n  dup3\n    /* \"#utility.yul\":400:454   */\n  and\n    /* \"#utility.yul\":389:454   */\n  swap1\n  pop\n    /* \"#utility.yul\":334:460   */\n  swap2\n  swap1\n  pop\n  jump\t// out\n    /* \"#utility.yul\":466:562   */\ntag_22:\n    /* \"#utility.yul\":503:510   */\n  0x00\n    /* \"#utility.yul\":532:556   */\n  tag_37\n    /* \"#utility.yul\":550:555   */\n  dup3\n    /* \"#utility.yul\":532:556   */\n  tag_21\n  jump\t// in\ntag_37:\n    /* \"#utility.yul\":521:556   */\n  swap1\n  pop\n    /* \"#utility.yul\":466:562   */\n  swap2\n  swap1\n  pop\n  jump\t// out\n    /* \"#utility.yul\":568:690   */\ntag_23:\n    /* \"#utility.yul\":641:665   */\n  tag_39\n    /* \"#utility.yul\":659:664   */\n  dup2\n    /* \"#utility.yul\":641:665   */\n  tag_22\n  jump\t// in\ntag_39:\n    /* \"#utility.yul\":634:639   */\n  dup2\n    /* \"#utility.yul\":631:666   */\n  eq\n    /* \"#utility.yul\":621:684   */\n  tag_40\n  jumpi\n    /* \"#utility.yul\":680:681   */\n  0x00\n    /* \"#utility.yul\":677:678   */\n  dup1\n    /* \"#utility.yul\":670:682   */\n  revert\n    /* \"#utility.yul\":621:684   */\ntag_40:\n    /* \"#utility.yul\":568:690   */\n  pop\n  jump\t// out\n    /* \"#utility.yul\":696:839   */\ntag_24:\n    /* \"#utility.yul\":753:758   */\n  0x00\n    /* \"#utility.yul\":784:790   */\n  dup2\n    /* \"#utility.yul\":778:791   */\n  mload\n    /* \"#utility.yul\":769:791   */\n  swap1\n  pop\n    /* \"#utility.yul\":800:833   */\n  tag_42\n    /* \"#utility.yul\":827:832   */\n  dup2\n    /* \"#utility.yul\":800:833   */\n  tag_23\n  jump\t// in\ntag_42:\n    /* \"#utility.yul\":696:839   */\n  swap3\n  swap2\n  pop\n  pop\n  jump\t// out\n    /* \"#utility.yul\":845:922   */\ntag_25:\n    /* \"#utility.yul\":882:889   */\n  0x00\n    /* \"#utility.yul\":911:916   */\n  dup2\n    /* \"#utility.yul\":900:916   */\n  swap1\n  pop\n    /* \"#utility.yul\":845:922   */\n  swap2\n  swap1\n  pop\n  jump\t// out\n    /* \"#utility.yul\":928:1050   */\ntag_26:\n    /* \"#utility.yul\":1001:1025   */\n  tag_45\n    /* \"#utility.yul\":1019:1024   */\n  dup2\n    /* \"#utility.yul\":1001:1025   */\n  tag_25\n  jump\t// in\ntag_45:\n    /* \"#utility.yul\":994:999   */\n  dup2\n    /* \"#utility.yul\":991:1026   */\n  eq\n    /* \"#utility.yul\":981:1044   */\n  tag_46\n  jumpi\n    /* \"#utility.yul\":1040:1041   */\n  0x00\n    /* \"#utility.yul\":1037:1038   */\n  dup1\n    /* \"#utility.yul\":1030:1042   */\n  revert\n    /* \"#utility.yul\":981:1044   */\ntag_46:\n    /* \"#utility.yul\":928:1050   */\n  pop\n  jump\t// out\n    /* \"#utility.yul\":1056:1199   */\ntag_27:\n    /* \"#utility.yul\":1113:1118   */\n  0x00\n    /* \"#utility.yul\":1144:1150   */\n  dup2\n    /* \"#utility.yul\":1138:1151   */\n  mload\n    /* \"#utility.yul\":1129:1151   */\n  swap1\n  pop\n    /* \"#utility.yul\":1160:1193   */\n  tag_48\n    /* \"#utility.yul\":1187:1192   */\n  dup2\n    /* \"#utility.yul\":1160:1193   */\n  tag_26\n  jump\t// in\ntag_48:\n    /* \"#utility.yul\":1056:1199   */\n  swap3\n  swap2\n  pop\n  pop\n  jump\t// out\n    /* \"#utility.yul\":1205:2025   */\ntag_3:\n    /* \"#utility.yul\":1302:1308   */\n  0x00\n    /* \"#utility.yul\":1310:1316   */\n  dup1\n    /* \"#utility.yul\":1318:1324   */\n  0x00\n    /* \"#utility.yul\":1326:1332   */\n  dup1\n    /* \"#utility.yul\":1375:1378   */\n  0x80\n    /* \"#utility.yul\":1363:1372   */\n  dup6\n    /* \"#utility.yul\":1354:1361   */\n  dup8\n    /* \"#utility.yul\":1350:1373   */\n  sub\n    /* \"#utility.yul\":1346:1379   */\n  slt\n    /* \"#utility.yul\":1343:1463   */\n  iszero\n  tag_50\n  jumpi\n    /* \"#utility.yul\":1382:1461   */\n  tag_51\n  tag_19\n  jump\t// in\ntag_51:\n    /* \"#utility.yul\":1343:1463   */\ntag_50:\n    /* \"#utility.yul\":1502:1503   */\n  0x00\n    /* \"#utility.yul\":1527:1591   */\n  tag_52\n    /* \"#utility.yul\":1583:1590   */\n  dup8\n    /* \"#utility.yul\":1574:1580   */\n  dup3\n    /* \"#utility.yul\":1563:1572   */\n  dup9\n    /* \"#utility.yul\":1559:1581   */\n  add\n    /* \"#utility.yul\":1527:1591   */\n  tag_24\n  jump\t// in\ntag_52:\n    /* \"#utility.yul\":1517:1591   */\n  swap5\n  pop\n    /* \"#utility.yul\":1473:1601   */\n  pop\n    /* \"#utility.yul\":1640:1642   */\n  0x20\n    /* \"#utility.yul\":1666:1730   */\n  tag_53\n    /* \"#utility.yul\":1722:1729   */\n  dup8\n    /* \"#utility.yul\":1713:1719   */\n  dup3\n    /* \"#utility.yul\":1702:1711   */\n  dup9\n    /* \"#utility.yul\":1698:1720   */\n  add\n    /* \"#utility.yul\":1666:1730   */\n  tag_24\n  jump\t// in\ntag_53:\n    /* \"#utility.yul\":1656:1730   */\n  swap4\n  pop\n    /* \"#utility.yul\":1611:1740   */\n  pop\n    /* \"#utility.yul\":1779:1781   */\n  0x40\n    /* \"#utility.yul\":1805:1869   */\n  tag_54\n    /* \"#utility.yul\":1861:1868   */\n  dup8\n    /* \"#utility.yul\":1852:1858   */\n  dup3\n    /* \"#utility.yul\":1841:1850   */\n  dup9\n    /* \"#utility.yul\":1837:1859   */\n  add\n    /* \"#utility.yul\":1805:1869   */\n  tag_24\n  jump\t// in\ntag_54:\n    /* \"#utility.yul\":1795:1869   */\n  swap3\n  pop\n    /* \"#utility.yul\":1750:1879   */\n  pop\n    /* \"#utility.yul\":1918:1920   */\n  0x60\n    /* \"#utility.yul\":1944:2008   */\n  tag_55\n    /* \"#utility.yul\":2000:2007   */\n  dup8\n    /* \"#utility.yul\":1991:1997   */\n  dup3\n    /* \"#utility.yul\":1980:1989   */\n  dup9\n    /* \"#utility.yul\":1976:1998   */\n  add\n    /* \"#utility.yul\":1944:2008   */\n  tag_27\n  jump\t// in\ntag_55:\n    /* \"#utility.yul\":1934:2008   */\n  swap2\n  pop\n    /* \"#utility.yul\":1889:2018   */\n  pop\n    /* \"#utility.yul\":1205:2025   */\n  swap3\n  swap6\n  swap2\n  swap5\n  pop\n  swap3\n  pop\n  jump\t// out\n    /* \"#utility.yul\":2031:2200   */\ntag_28:\n    /* \"#utility.yul\":2115:2126   */\n  0x00\n    /* \"#utility.yul\":2149:2155   */\n  dup3\n    /* \"#utility.yul\":2144:2147   */\n  dup3\n    /* \"#utility.yul\":2137:2156   */\n  mstore\n    /* \"#utility.yul\":2189:2193   */\n  0x20\n    /* \"#utility.yul\":2184:2187   */\n  dup3\n    /* \"#utility.yul\":2180:2194   */\n  add\n    /* \"#utility.yul\":2165:2194   */\n  swap1\n  pop\n    /* \"#utility.yul\":2031:2200   */\n  swap3\n  swap2\n  pop\n  pop\n  jump\t// out\n    /* \"#utility.yul\":2206:2427   */\ntag_29:\n    /* \"#utility.yul\":2346:2380   */\n  0x73746f636b20696e20706f6f6c206d757374206265207a65726f206f72206f6e\n    /* \"#utility.yul\":2342:2343   */\n  0x00\n    /* \"#utility.yul\":2334:2340   */\n  dup3\n    /* \"#utility.yul\":2330:2344   */\n  add\n    /* \"#utility.yul\":2323:2381   */\n  mstore\n    /* \"#utility.yul\":2415:2419   */\n  0x652e000000000000000000000000000000000000000000000000000000000000\n    /* \"#utility.yul\":2410:2412   */\n  0x20\n    /* \"#utility.yul\":2402:2408   */\n  dup3\n    /* \"#utility.yul\":2398:2413   */\n  add\n    /* \"#utility.yul\":2391:2420   */\n  mstore\n    /* \"#utility.yul\":2206:2427   */\n  pop\n  jump\t// out\n    /* \"#utility.yul\":2433:2799   */\ntag_30:\n    /* \"#utility.yul\":2575:2578   */\n  0x00\n    /* \"#utility.yul\":2596:2663   */\n  tag_59\n    /* \"#utility.yul\":2660:2662   */\n  0x22\n    /* \"#utility.yul\":2655:2658   */\n  dup4\n    /* \"#utility.yul\":2596:2663   */\n  tag_28\n  jump\t// in\ntag_59:\n    /* \"#utility.yul\":2589:2663   */\n  swap2\n  pop\n    /* \"#utility.yul\":2672:2765   */\n  tag_60\n    /* \"#utility.yul\":2761:2764   */\n  dup3\n    /* \"#utility.yul\":2672:2765   */\n  tag_29\n  jump\t// in\ntag_60:\n    /* \"#utility.yul\":2790:2792   */\n  0x40\n    /* \"#utility.yul\":2785:2788   */\n  dup3\n    /* \"#utility.yul\":2781:2793   */\n  add\n    /* \"#utility.yul\":2774:2793   */\n  swap1\n  pop\n    /* \"#utility.yul\":2433:2799   */\n  swap2\n  swap1\n  pop\n  jump\t// out\n    /* \"#utility.yul\":2805:3224   */\ntag_15:\n    /* \"#utility.yul\":2971:2975   */\n  0x00\n    /* \"#utility.yul\":3009:3011   */\n  0x20\n    /* \"#utility.yul\":2998:3007   */\n  dup3\n    /* \"#utility.yul\":2994:3012   */\n  add\n    /* \"#utility.yul\":2986:3012   */\n  swap1\n  pop\n    /* \"#utility.yul\":3058:3067   */\n  dup2\n    /* \"#utility.yul\":3052:3056   */\n  dup2\n    /* \"#utility.yul\":3048:3068   */\n  sub\n    /* \"#utility.yul\":3044:3045   */\n  0x00\n    /* \"#utility.yul\":3033:3042   */\n  dup4\n    /* \"#utility.yul\":3029:3046   */\n  add\n    /* \"#utility.yul\":3022:3069   */\n  mstore\n    /* \"#utility.yul\":3086:3217   */\n  tag_62\n    /* \"#utility.yul\":3212:3216   */\n  dup2\n    /* \"#utility.yul\":3086:3217   */\n  tag_30\n  jump\t// in\ntag_62:\n    /* \"#utility.yul\":3078:3217   */\n  swap1\n  pop\n    /* \"#utility.yul\":2805:3224   */\n  swap2\n  swap1\n  pop\n  jump\t// out\n    /* \"contracts/ArbitrageUniV3.sol\":378:4455  contract ArbitrageUniV3 is IArbitrage, Manageable{... */\ntag_16:\n  dataSize(sub_0)\n  dup1\n  dataOffset(sub_0)\n  0x00\n  codecopy\n  0x00\n  return\nstop\n\nsub_0: assembly {\n        /* \"contracts/ArbitrageUniV3.sol\":378:4455  contract ArbitrageUniV3 is IArbitrage, Manageable{... */\n      mstore(0x40, 0x80)\n      jumpi(tag_1, lt(calldatasize, 0x04))\n      shr(0xe0, calldataload(0x00))\n      dup1\n      0x7ef45fde\n      gt\n      tag_18\n      jumpi\n      dup1\n      0xe30c3978\n      gt\n      tag_19\n      jumpi\n      dup1\n      0xe30c3978\n      eq\n      tag_14\n      jumpi\n      dup1\n      0xf2fde38b\n      eq\n      tag_15\n      jumpi\n      dup1\n      0xf887ea40\n      eq\n      tag_16\n      jumpi\n      dup1\n      0xf92966e1\n      eq\n      tag_17\n      jumpi\n      jump(tag_1)\n    tag_19:\n      dup1\n      0x7ef45fde\n      eq\n      tag_10\n      jumpi\n      dup1\n      0x8da5cb5b\n      eq\n      tag_11\n      jumpi\n      dup1\n      0xb6b55f25\n      eq\n      tag_12\n      jumpi\n      dup1\n      0xce7c2ac2\n      eq\n      tag_13\n      jumpi\n      jump(tag_1)\n    tag_18:\n      dup1\n      0x44c2b6d0\n      gt\n      tag_20\n      jumpi\n      dup1\n      0x44c2b6d0\n      eq\n      tag_6\n      jumpi\n      dup1\n      0x481c6a75\n      eq\n      tag_7\n      jumpi\n      dup1\n      0x4e71e0c8\n      eq\n      tag_8\n      jumpi\n      dup1\n      0x715018a6\n      eq\n      tag_9\n      jumpi\n      jump(tag_1)\n    tag_20:\n      dup1\n      0x02c1b274\n      eq\n      tag_2\n      jumpi\n      dup1\n      0x16f0115b\n      eq\n      tag_3\n      jumpi\n      dup1\n      0x3ccfd60b\n      eq\n      tag_4\n      jumpi\n      dup1\n      0x4230adc9\n      eq\n      tag_5\n      jumpi\n    tag_1:\n      0x00\n      dup1\n      revert\n        /* \"contracts/ArbitrageUniV3.sol\":667:693  uint256 public stock_index */\n    tag_2:\n      callvalue\n      dup1\n      iszero\n      tag_21\n      jumpi\n      0x00\n      dup1\n      revert\n    tag_21:\n      pop\n      tag_22\n      tag_23\n      jump\t// in\n    tag_22:\n      mload(0x40)\n      tag_24\n      swap2\n      swap1\n      tag_25\n      jump\t// in\n    tag_24:\n      mload(0x40)\n      dup1\n      swap2\n      sub\n      swap1\n      return\n        /* \"contracts/ArbitrageUniV3.sol\":529:548  address public pool */\n    tag_3:\n      callvalue\n      dup1\n      iszero\n      tag_26\n      jumpi\n      0x00\n      dup1\n      revert\n    tag_26:\n      pop\n      tag_27\n      tag_28\n      jump\t// in\n    tag_27:\n      mload(0x40)\n      tag_29\n      swap2\n      swap1\n      tag_30\n      jump\t// in\n    tag_29:\n      mload(0x40)\n      dup1\n      swap2\n      sub\n      swap1\n      return\n        /* \"contracts/ArbitrageUniV3.sol\":2472:2888  function withdraw() external override returns (uint256 withdrawAmount){... */\n    tag_4:\n      callvalue\n      dup1\n      iszero\n      tag_31\n      jumpi\n      0x00\n      dup1\n      revert\n    tag_31:\n      pop\n      tag_32\n      tag_33\n      jump\t// in\n    tag_32:\n      mload(0x40)\n      tag_34\n      swap2\n      swap1\n      tag_25\n      jump\t// in\n    tag_34:\n      mload(0x40)\n      dup1\n      swap2\n      sub\n      swap1\n      return\n        /* \"contracts/ArbitrageUniV3.sol\":603:629  uint256 public close_stock */\n    tag_5:\n      callvalue\n      dup1\n      iszero\n      tag_35\n      jumpi\n      0x00\n      dup1\n      revert\n    tag_35:\n      pop\n      tag_36\n      tag_37\n      jump\t// in\n    tag_36:\n      mload(0x40)\n      tag_38\n      swap2\n      swap1\n      tag_25\n      jump\t// in\n    tag_38:\n      mload(0x40)\n      dup1\n      swap2\n      sub\n      swap1\n      return\n        /* \"contracts/ArbitrageUniV3.sol\":2896:3655  function openPostion(... */\n    tag_6:\n      callvalue\n      dup1\n      iszero\n      tag_39\n      jumpi\n      0x00\n      dup1\n      revert\n    tag_39:\n      pop\n      tag_40\n      0x04\n      dup1\n      calldatasize\n      sub\n      dup2\n      add\n      swap1\n      tag_41\n      swap2\n      swap1\n      tag_42\n      jump\t// in\n    tag_41:\n      tag_43\n      jump\t// in\n    tag_40:\n      mload(0x40)\n      tag_44\n      swap2\n      swap1\n      tag_25\n      jump\t// in\n    tag_44:\n      mload(0x40)\n      dup1\n      swap2\n      sub\n      swap1\n      return\n        /* \"contracts/extern/Manageable.sol\":5746:5837  function manager() public view virtual returns (address) {... */\n    tag_7:\n      callvalue\n      dup1\n      iszero\n      tag_45\n      jumpi\n      0x00\n      dup1\n      revert\n    tag_45:\n      pop\n      tag_46\n      tag_47\n      jump\t// in\n    tag_46:\n      mload(0x40)\n      tag_48\n      swap2\n      swap1\n      tag_30\n      jump\t// in\n    tag_48:\n      mload(0x40)\n      dup1\n      swap2\n      sub\n      swap1\n      return\n        /* \"contracts/extern/Manageable.sol\":4128:4260  function claimOwnership() external onlyPendingOwner {... */\n    tag_8:\n      callvalue\n      dup1\n      iszero\n      tag_49\n      jumpi\n      0x00\n      dup1\n      revert\n    tag_49:\n      pop\n      tag_50\n      tag_51\n      jump\t// in\n    tag_50:\n      stop\n        /* \"contracts/extern/Manageable.sol\":3469:3565  function renounceOwnership() external virtual onlyOwner {... */\n    tag_9:\n      callvalue\n      dup1\n      iszero\n      tag_52\n      jumpi\n      0x00\n      dup1\n      revert\n    tag_52:\n      pop\n      tag_53\n      tag_54\n      jump\t// in\n    tag_53:\n      stop\n        /* \"contracts/ArbitrageUniV3.sol\":3663:4450  function closePostion(... */\n    tag_10:\n      callvalue\n      dup1\n      iszero\n      tag_55\n      jumpi\n      0x00\n      dup1\n      revert\n    tag_55:\n      pop\n      tag_56\n      0x04\n      dup1\n      calldatasize\n      sub\n      dup2\n      add\n      swap1\n      tag_57\n      swap2\n      swap1\n      tag_42\n      jump\t// in\n    tag_57:\n      tag_58\n      jump\t// in\n    tag_56:\n      mload(0x40)\n      tag_59\n      swap2\n      swap1\n      tag_25\n      jump\t// in\n    tag_59:\n      mload(0x40)\n      dup1\n      swap2\n      sub\n      swap1\n      return\n        /* \"contracts/extern/Manageable.sol\":2755:2842  function owner() public view virtual returns (address) {... */\n    tag_11:\n      callvalue\n      dup1\n      iszero\n      tag_60\n      jumpi\n      0x00\n      dup1\n      revert\n    tag_60:\n      pop\n      tag_61\n      tag_62\n      jump\t// in\n    tag_61:\n      mload(0x40)\n      tag_63\n      swap2\n      swap1\n      tag_30\n      jump\t// in\n    tag_63:\n      mload(0x40)\n      dup1\n      swap2\n      sub\n      swap1\n      return\n        /* \"contracts/ArbitrageUniV3.sol\":2058:2464  function deposit(uint256 amount) external override payable returns (uint256 depositAmount) {... */\n    tag_12:\n      tag_64\n      0x04\n      dup1\n      calldatasize\n      sub\n      dup2\n      add\n      swap1\n      tag_65\n      swap2\n      swap1\n      tag_66\n      jump\t// in\n    tag_65:\n      tag_67\n      jump\t// in\n    tag_64:\n      mload(0x40)\n      tag_68\n      swap2\n      swap1\n      tag_25\n      jump\t// in\n    tag_68:\n      mload(0x40)\n      dup1\n      swap2\n      sub\n      swap1\n      return\n        /* \"contracts/ArbitrageUniV3.sol\":555:596  mapping(address => uint256) public shares */\n    tag_13:\n      callvalue\n      dup1\n      iszero\n      tag_69\n      jumpi\n      0x00\n      dup1\n      revert\n    tag_69:\n      pop\n      tag_70\n      0x04\n      dup1\n      calldatasize\n      sub\n      dup2\n      add\n      swap1\n      tag_71\n      swap2\n      swap1\n      tag_72\n      jump\t// in\n    tag_71:\n      tag_73\n      jump\t// in\n    tag_70:\n      mload(0x40)\n      tag_74\n      swap2\n      swap1\n      tag_25\n      jump\t// in\n    tag_74:\n      mload(0x40)\n      dup1\n      swap2\n      sub\n      swap1\n      return\n        /* \"contracts/extern/Manageable.sol\":2963:3066  function pendingOwner() external view virtual returns (address) {... */\n    tag_14:\n      callvalue\n      dup1\n      iszero\n      tag_75\n      jumpi\n      0x00\n      dup1\n      revert\n    tag_75:\n      pop\n      tag_76\n      tag_77\n      jump\t// in\n    tag_76:\n      mload(0x40)\n      tag_78\n      swap2\n      swap1\n      tag_30\n      jump\t// in\n    tag_78:\n      mload(0x40)\n      dup1\n      swap2\n      sub\n      swap1\n      return\n        /* \"contracts/extern/Manageable.sol\":3720:3960  function transferOwnership(address _newOwner) external onlyOwner {... */\n    tag_15:\n      callvalue\n      dup1\n      iszero\n      tag_79\n      jumpi\n      0x00\n      dup1\n      revert\n    tag_79:\n      pop\n      tag_80\n      0x04\n      dup1\n      calldatasize\n      sub\n      dup2\n      add\n      swap1\n      tag_81\n      swap2\n      swap1\n      tag_72\n      jump\t// in\n    tag_81:\n      tag_82\n      jump\t// in\n    tag_80:\n      stop\n        /* \"contracts/ArbitrageUniV3.sol\":500:522  address public  router */\n    tag_16:\n      callvalue\n      dup1\n      iszero\n      tag_83\n      jumpi\n      0x00\n      dup1\n      revert\n    tag_83:\n      pop\n      tag_84\n      tag_85\n      jump\t// in\n    tag_84:\n      mload(0x40)\n      tag_86\n      swap2\n      swap1\n      tag_30\n      jump\t// in\n    tag_86:\n      mload(0x40)\n      dup1\n      swap2\n      sub\n      swap1\n      return\n        /* \"contracts/ArbitrageUniV3.sol\":636:660  uint256 public org_stock */\n    tag_17:\n      callvalue\n      dup1\n      iszero\n      tag_87\n      jumpi\n      0x00\n      dup1\n      revert\n    tag_87:\n      pop\n      tag_88\n      tag_89\n      jump\t// in\n    tag_88:\n      mload(0x40)\n      tag_90\n      swap2\n      swap1\n      tag_25\n      jump\t// in\n    tag_90:\n      mload(0x40)\n      dup1\n      swap2\n      sub\n      swap1\n      return\n        /* \"contracts/ArbitrageUniV3.sol\":667:693  uint256 public stock_index */\n    tag_23:\n      sload(0x08)\n      dup2\n      jump\t// out\n        /* \"contracts/ArbitrageUniV3.sol\":529:548  address public pool */\n    tag_28:\n      0x04\n      0x00\n      swap1\n      sload\n      swap1\n      0x0100\n      exp\n      swap1\n      div\n      0xffffffffffffffffffffffffffffffffffffffff\n      and\n      dup2\n      jump\t// out\n        /* \"contracts/ArbitrageUniV3.sol\":2472:2888  function withdraw() external override returns (uint256 withdrawAmount){... */\n    tag_33:\n        /* \"contracts/ArbitrageUniV3.sol\":2519:2541  uint256 withdrawAmount */\n      0x00\n        /* \"contracts/ArbitrageUniV3.sol\":2553:2566  uint256 share */\n      dup1\n        /* \"contracts/ArbitrageUniV3.sol\":2569:2575  shares */\n      0x05\n        /* \"contracts/ArbitrageUniV3.sol\":2569:2587  shares[msg.sender] */\n      0x00\n        /* \"contracts/ArbitrageUniV3.sol\":2576:2586  msg.sender */\n      caller\n        /* \"contracts/ArbitrageUniV3.sol\":2569:2587  shares[msg.sender] */\n      0xffffffffffffffffffffffffffffffffffffffff\n      and\n      0xffffffffffffffffffffffffffffffffffffffff\n      and\n      dup2\n      mstore\n      0x20\n      add\n      swap1\n      dup2\n      mstore\n      0x20\n      add\n      0x00\n      keccak256\n      sload\n        /* \"contracts/ArbitrageUniV3.sol\":2553:2587  uint256 share = shares[msg.sender] */\n      swap1\n      pop\n        /* \"contracts/ArbitrageUniV3.sol\":2614:2615  0 */\n      0x00\n        /* \"contracts/ArbitrageUniV3.sol\":2606:2611  share */\n      dup2\n        /* \"contracts/ArbitrageUniV3.sol\":2606:2615  share > 0 */\n      gt\n        /* \"contracts/ArbitrageUniV3.sol\":2598:2651  require(share > 0, 'Arbitrage: insufficient balance') */\n      tag_92\n      jumpi\n      mload(0x40)\n      0x08c379a000000000000000000000000000000000000000000000000000000000\n      dup2\n      mstore\n      0x04\n      add\n      tag_93\n      swap1\n      tag_94\n      jump\t// in\n    tag_93:\n      mload(0x40)\n      dup1\n      swap2\n      sub\n      swap1\n      revert\n    tag_92:\n        /* \"contracts/ArbitrageUniV3.sol\":2662:2676  uint256 amount */\n      0x00\n        /* \"contracts/ArbitrageUniV3.sol\":2679:2716  share.mul(close_stock).div(org_stock) */\n      tag_95\n        /* \"contracts/ArbitrageUniV3.sol\":2706:2715  org_stock */\n      sload(0x07)\n        /* \"contracts/ArbitrageUniV3.sol\":2679:2701  share.mul(close_stock) */\n      tag_96\n        /* \"contracts/ArbitrageUniV3.sol\":2689:2700  close_stock */\n      sload(0x06)\n        /* \"contracts/ArbitrageUniV3.sol\":2679:2684  share */\n      dup6\n        /* \"contracts/ArbitrageUniV3.sol\":2679:2688  share.mul */\n      tag_97\n      swap1\n        /* \"contracts/ArbitrageUniV3.sol\":2679:2701  share.mul(close_stock) */\n      swap2\n      swap1\n      0xffffffff\n      and\n      jump\t// in\n    tag_96:\n        /* \"contracts/ArbitrageUniV3.sol\":2679:2705  share.mul(close_stock).div */\n      tag_98\n      swap1\n        /* \"contracts/ArbitrageUniV3.sol\":2679:2716  share.mul(close_stock).div(org_stock) */\n      swap2\n      swap1\n      0xffffffff\n      and\n      jump\t// in\n    tag_95:\n        /* \"contracts/ArbitrageUniV3.sol\":2662:2716  uint256 amount = share.mul(close_stock).div(org_stock) */\n      swap1\n      pop\n        /* \"contracts/ArbitrageUniV3.sol\":2727:2740  address stock */\n      0x00\n        /* \"contracts/ArbitrageUniV3.sol\":2743:2753  getStock() */\n      tag_99\n        /* \"contracts/ArbitrageUniV3.sol\":2743:2751  getStock */\n      tag_100\n        /* \"contracts/ArbitrageUniV3.sol\":2743:2753  getStock() */\n      jump\t// in\n    tag_99:\n        /* \"contracts/ArbitrageUniV3.sol\":2727:2753  address stock = getStock() */\n      swap1\n      pop\n        /* \"contracts/ArbitrageUniV3.sol\":2764:2810  IERC20(stock).safeTransfer(msg.sender, amount) */\n      tag_101\n        /* \"contracts/ArbitrageUniV3.sol\":2791:2801  msg.sender */\n      caller\n        /* \"contracts/ArbitrageUniV3.sol\":2803:2809  amount */\n      dup4\n        /* \"contracts/ArbitrageUniV3.sol\":2771:2776  stock */\n      dup4\n        /* \"contracts/ArbitrageUniV3.sol\":2764:2790  IERC20(stock).safeTransfer */\n      0xffffffffffffffffffffffffffffffffffffffff\n      and\n      tag_102\n      swap1\n        /* \"contracts/ArbitrageUniV3.sol\":2764:2810  IERC20(stock).safeTransfer(msg.sender, amount) */\n      swap3\n      swap2\n      swap1\n      0xffffffff\n      and\n      jump\t// in\n    tag_101:\n        /* \"contracts/ArbitrageUniV3.sol\":2835:2845  msg.sender */\n      caller\n        /* \"contracts/ArbitrageUniV3.sol\":2826:2854  Withdraw(msg.sender, amount) */\n      0xffffffffffffffffffffffffffffffffffffffff\n      and\n      0x884edad9ce6fa2440d8a54cc123490eb96d2768479d49ff9c7366125a9424364\n        /* \"contracts/ArbitrageUniV3.sol\":2847:2853  amount */\n      dup4\n        /* \"contracts/ArbitrageUniV3.sol\":2826:2854  Withdraw(msg.sender, amount) */\n      mload(0x40)\n      tag_103\n      swap2\n      swap1\n      tag_25\n      jump\t// in\n    tag_103:\n      mload(0x40)\n      dup1\n      swap2\n      sub\n      swap1\n      log2\n        /* \"contracts/ArbitrageUniV3.sol\":2874:2880  amount */\n      dup2\n        /* \"contracts/ArbitrageUniV3.sol\":2867:2880  return amount */\n      swap4\n      pop\n      pop\n      pop\n      pop\n        /* \"contracts/ArbitrageUniV3.sol\":2472:2888  function withdraw() external override returns (uint256 withdrawAmount){... */\n      swap1\n      jump\t// out\n        /* \"contracts/ArbitrageUniV3.sol\":603:629  uint256 public close_stock */\n    tag_37:\n      sload(0x06)\n      dup2\n      jump\t// out\n        /* \"contracts/ArbitrageUniV3.sol\":2896:3655  function openPostion(... */\n    tag_43:\n        /* \"contracts/ArbitrageUniV3.sol\":3022:3036  uint256 amount */\n      0x00\n        /* \"contracts/ArbitrageUniV3.sol\":3086:3087  0 */\n      dup1\n        /* \"contracts/ArbitrageUniV3.sol\":3067:3083  amountOutMinimum */\n      dup4\n        /* \"contracts/ArbitrageUniV3.sol\":3067:3087  amountOutMinimum > 0 */\n      gt\n        /* \"contracts/ArbitrageUniV3.sol\":3059:3121  require(amountOutMinimum > 0, \"Invalid minimum output amount\") */\n      tag_105\n      jumpi\n      mload(0x40)\n      0x08c379a000000000000000000000000000000000000000000000000000000000\n      dup2\n      mstore\n      0x04\n      add\n      tag_106\n      swap1\n      tag_107\n      jump\t// in\n    tag_106:\n      mload(0x40)\n      dup1\n      swap2\n      sub\n      swap1\n      revert\n    tag_105:\n        /* \"contracts/ArbitrageUniV3.sol\":3132:3145  address stock */\n      0x00\n        /* \"contracts/ArbitrageUniV3.sol\":3148:3158  getStock() */\n      tag_108\n        /* \"contracts/ArbitrageUniV3.sol\":3148:3156  getStock */\n      tag_100\n        /* \"contracts/ArbitrageUniV3.sol\":3148:3158  getStock() */\n      jump\t// in\n    tag_108:\n        /* \"contracts/ArbitrageUniV3.sol\":3132:3158  address stock = getStock() */\n      swap1\n      pop\n        /* \"contracts/ArbitrageUniV3.sol\":3169:3182  address money */\n      0x00\n        /* \"contracts/ArbitrageUniV3.sol\":3185:3195  getStock() */\n      tag_109\n        /* \"contracts/ArbitrageUniV3.sol\":3185:3193  getStock */\n      tag_100\n        /* \"contracts/ArbitrageUniV3.sol\":3185:3195  getStock() */\n      jump\t// in\n    tag_109:\n        /* \"contracts/ArbitrageUniV3.sol\":3169:3195  address money = getStock() */\n      swap1\n      pop\n        /* \"contracts/ArbitrageUniV3.sol\":3206:3216  uint24 fee */\n      0x00\n        /* \"contracts/ArbitrageUniV3.sol\":3234:3238  pool */\n      0x04\n      0x00\n      swap1\n      sload\n      swap1\n      0x0100\n      exp\n      swap1\n      div\n      0xffffffffffffffffffffffffffffffffffffffff\n      and\n        /* \"contracts/ArbitrageUniV3.sol\":3219:3243  IUniswapV3Pool(pool).fee */\n      0xffffffffffffffffffffffffffffffffffffffff\n      and\n      0xddca3f43\n        /* \"contracts/ArbitrageUniV3.sol\":3219:3245  IUniswapV3Pool(pool).fee() */\n      mload(0x40)\n      dup2\n      0xffffffff\n      and\n      0xe0\n      shl\n      dup2\n      mstore\n      0x04\n      add\n      0x20\n      mload(0x40)\n      dup1\n      dup4\n      sub\n      dup2\n      dup7\n      gas\n      staticcall\n      iszero\n      dup1\n      iszero\n      tag_111\n      jumpi\n      returndatasize\n      0x00\n      dup1\n      returndatacopy\n      revert(0x00, returndatasize)\n    tag_111:\n      pop\n      pop\n      pop\n      pop\n      mload(0x40)\n      returndatasize\n      not(0x1f)\n      0x1f\n      dup3\n      add\n      and\n      dup3\n      add\n      dup1\n      0x40\n      mstore\n      pop\n      dup2\n      add\n      swap1\n      tag_112\n      swap2\n      swap1\n      tag_113\n      jump\t// in\n    tag_112:\n        /* \"contracts/ArbitrageUniV3.sol\":3206:3245  uint24 fee = IUniswapV3Pool(pool).fee() */\n      swap1\n      pop\n        /* \"contracts/ArbitrageUniV3.sol\":3295:3301  router */\n      0x03\n      0x00\n      swap1\n      sload\n      swap1\n      0x0100\n      exp\n      swap1\n      div\n      0xffffffffffffffffffffffffffffffffffffffff\n      and\n        /* \"contracts/ArbitrageUniV3.sol\":3283:3319  ISwapRouter(router).exactInputSingle */\n      0xffffffffffffffffffffffffffffffffffffffff\n      and\n      0x414bf389\n        /* \"contracts/ArbitrageUniV3.sol\":3334:3636  ISwapRouter.ExactInputSingleParams(... */\n      mload(0x40)\n      dup1\n      0x0100\n      add\n      0x40\n      mstore\n      dup1\n        /* \"contracts/ArbitrageUniV3.sol\":3387:3392  stock */\n      dup7\n        /* \"contracts/ArbitrageUniV3.sol\":3334:3636  ISwapRouter.ExactInputSingleParams(... */\n      0xffffffffffffffffffffffffffffffffffffffff\n      and\n      dup2\n      mstore\n      0x20\n      add\n        /* \"contracts/ArbitrageUniV3.sol\":3411:3416  money */\n      dup6\n        /* \"contracts/ArbitrageUniV3.sol\":3334:3636  ISwapRouter.ExactInputSingleParams(... */\n      0xffffffffffffffffffffffffffffffffffffffff\n      and\n      dup2\n      mstore\n      0x20\n      add\n        /* \"contracts/ArbitrageUniV3.sol\":3435:3438  fee */\n      dup5\n        /* \"contracts/ArbitrageUniV3.sol\":3334:3636  ISwapRouter.ExactInputSingleParams(... */\n      0xffffff\n      and\n      dup2\n      mstore\n      0x20\n      add\n        /* \"contracts/ArbitrageUniV3.sol\":3465:3469  this */\n      address\n        /* \"contracts/ArbitrageUniV3.sol\":3334:3636  ISwapRouter.ExactInputSingleParams(... */\n      0xffffffffffffffffffffffffffffffffffffffff\n      and\n      dup2\n      mstore\n      0x20\n      add\n        /* \"contracts/ArbitrageUniV3.sol\":3489:3504  block.timestamp */\n      timestamp\n        /* \"contracts/ArbitrageUniV3.sol\":3334:3636  ISwapRouter.ExactInputSingleParams(... */\n      dup2\n      mstore\n      0x20\n      add\n        /* \"contracts/ArbitrageUniV3.sol\":3531:3540  org_stock */\n      sload(0x07)\n        /* \"contracts/ArbitrageUniV3.sol\":3334:3636  ISwapRouter.ExactInputSingleParams(... */\n      dup2\n      mstore\n      0x20\n      add\n        /* \"contracts/ArbitrageUniV3.sol\":3568:3584  amountOutMinimum */\n      dup10\n        /* \"contracts/ArbitrageUniV3.sol\":3334:3636  ISwapRouter.ExactInputSingleParams(... */\n      dup2\n      mstore\n      0x20\n      add\n        /* \"contracts/ArbitrageUniV3.sol\":3604:3621  sqrtPriceLimitX96 */\n      dup9\n        /* \"contracts/ArbitrageUniV3.sol\":3334:3636  ISwapRouter.ExactInputSingleParams(... */\n      0xffffffffffffffffffffffffffffffffffffffff\n      and\n      dup2\n      mstore\n      pop\n        /* \"contracts/ArbitrageUniV3.sol\":3283:3647  ISwapRouter(router).exactInputSingle(... */\n      mload(0x40)\n      dup3\n      0xffffffff\n      and\n      0xe0\n      shl\n      dup2\n      mstore\n      0x04\n      add\n      tag_114\n      swap2\n      swap1\n      tag_115\n      jump\t// in\n    tag_114:\n      0x20\n      mload(0x40)\n      dup1\n      dup4\n      sub\n      dup2\n      0x00\n      dup8\n      gas\n      call\n      iszero\n      dup1\n      iszero\n      tag_117\n      jumpi\n      returndatasize\n      0x00\n      dup1\n      returndatacopy\n      revert(0x00, returndatasize)\n    tag_117:\n      pop\n      pop\n      pop\n      pop\n      mload(0x40)\n      returndatasize\n      not(0x1f)\n      0x1f\n      dup3\n      add\n      and\n      dup3\n      add\n      dup1\n      0x40\n      mstore\n      pop\n      dup2\n      add\n      swap1\n      tag_118\n      swap2\n      swap1\n      tag_119\n      jump\t// in\n    tag_118:\n      pop\n        /* \"contracts/ArbitrageUniV3.sol\":3038:3655  {... */\n      pop\n      pop\n      pop\n        /* \"contracts/ArbitrageUniV3.sol\":2896:3655  function openPostion(... */\n      swap3\n      swap2\n      pop\n      pop\n      jump\t// out\n        /* \"contracts/extern/Manageable.sol\":5746:5837  function manager() public view virtual returns (address) {... */\n    tag_47:\n        /* \"contracts/extern/Manageable.sol\":5794:5801  address */\n      0x00\n        /* \"contracts/extern/Manageable.sol\":5821:5829  _manager */\n      0x02\n      0x00\n      swap1\n      sload\n      swap1\n      0x0100\n      exp\n      swap1\n      div\n      0xffffffffffffffffffffffffffffffffffffffff\n      and\n        /* \"contracts/extern/Manageable.sol\":5814:5829  return _manager */\n      swap1\n      pop\n        /* \"contracts/extern/Manageable.sol\":5746:5837  function manager() public view virtual returns (address) {... */\n      swap1\n      jump\t// out\n        /* \"contracts/extern/Manageable.sol\":4128:4260  function claimOwnership() external onlyPendingOwner {... */\n    tag_51:\n        /* \"contracts/extern/Manageable.sol\":5062:5075  _pendingOwner */\n      0x01\n      0x00\n      swap1\n      sload\n      swap1\n      0x0100\n      exp\n      swap1\n      div\n      0xffffffffffffffffffffffffffffffffffffffff\n      and\n        /* \"contracts/extern/Manageable.sol\":5048:5075  msg.sender == _pendingOwner */\n      0xffffffffffffffffffffffffffffffffffffffff\n      and\n        /* \"contracts/extern/Manageable.sol\":5048:5058  msg.sender */\n      caller\n        /* \"contracts/extern/Manageable.sol\":5048:5075  msg.sender == _pendingOwner */\n      0xffffffffffffffffffffffffffffffffffffffff\n      and\n      eq\n        /* \"contracts/extern/Manageable.sol\":5040:5111  require(msg.sender == _pendingOwner, \"Ownable/caller-not-pendingOwner\") */\n      tag_122\n      jumpi\n      mload(0x40)\n      0x08c379a000000000000000000000000000000000000000000000000000000000\n      dup2\n      mstore\n      0x04\n      add\n      tag_123\n      swap1\n      tag_124\n      jump\t// in\n    tag_123:\n      mload(0x40)\n      dup1\n      swap2\n      sub\n      swap1\n      revert\n    tag_122:\n        /* \"contracts/extern/Manageable.sol\":4191:4215  _setOwner(_pendingOwner) */\n      tag_126\n        /* \"contracts/extern/Manageable.sol\":4201:4214  _pendingOwner */\n      0x01\n      0x00\n      swap1\n      sload\n      swap1\n      0x0100\n      exp\n      swap1\n      div\n      0xffffffffffffffffffffffffffffffffffffffff\n      and\n        /* \"contracts/extern/Manageable.sol\":4191:4200  _setOwner */\n      tag_127\n        /* \"contracts/extern/Manageable.sol\":4191:4215  _setOwner(_pendingOwner) */\n      jump\t// in\n    tag_126:\n        /* \"contracts/extern/Manageable.sol\":4250:4251  0 */\n      0x00\n        /* \"contracts/extern/Manageable.sol\":4226:4239  _pendingOwner */\n      0x01\n      0x00\n        /* \"contracts/extern/Manageable.sol\":4226:4252  _pendingOwner = address(0) */\n      0x0100\n      exp\n      dup2\n      sload\n      dup2\n      0xffffffffffffffffffffffffffffffffffffffff\n      mul\n      not\n      and\n      swap1\n      dup4\n      0xffffffffffffffffffffffffffffffffffffffff\n      and\n      mul\n      or\n      swap1\n      sstore\n      pop\n        /* \"contracts/extern/Manageable.sol\":4128:4260  function claimOwnership() external onlyPendingOwner {... */\n      jump\t// out\n        /* \"contracts/extern/Manageable.sol\":3469:3565  function renounceOwnership() external virtual onlyOwner {... */\n    tag_54:\n        /* \"contracts/extern/Manageable.sol\":4842:4852  msg.sender */\n      caller\n        /* \"contracts/extern/Manageable.sol\":4831:4852  owner() == msg.sender */\n      0xffffffffffffffffffffffffffffffffffffffff\n      and\n        /* \"contracts/extern/Manageable.sol\":4831:4838  owner() */\n      tag_129\n        /* \"contracts/extern/Manageable.sol\":4831:4836  owner */\n      tag_62\n        /* \"contracts/extern/Manageable.sol\":4831:4838  owner() */\n      jump\t// in\n    tag_129:\n        /* \"contracts/extern/Manageable.sol\":4831:4852  owner() == msg.sender */\n      0xffffffffffffffffffffffffffffffffffffffff\n      and\n      eq\n        /* \"contracts/extern/Manageable.sol\":4823:4881  require(owner() == msg.sender, \"Ownable/caller-not-owner\") */\n      tag_130\n      jumpi\n      mload(0x40)\n      0x08c379a000000000000000000000000000000000000000000000000000000000\n      dup2\n      mstore\n      0x04\n      add\n      tag_131\n      swap1\n      tag_132\n      jump\t// in\n    tag_131:\n      mload(0x40)\n      dup1\n      swap2\n      sub\n      swap1\n      revert\n    tag_130:\n        /* \"contracts/extern/Manageable.sol\":3536:3557  _setOwner(address(0)) */\n      tag_134\n        /* \"contracts/extern/Manageable.sol\":3554:3555  0 */\n      0x00\n        /* \"contracts/extern/Manageable.sol\":3536:3545  _setOwner */\n      tag_127\n        /* \"contracts/extern/Manageable.sol\":3536:3557  _setOwner(address(0)) */\n      jump\t// in\n    tag_134:\n        /* \"contracts/extern/Manageable.sol\":3469:3565  function renounceOwnership() external virtual onlyOwner {... */\n      jump\t// out\n        /* \"contracts/ArbitrageUniV3.sol\":3663:4450  function closePostion(... */\n    tag_58:\n        /* \"contracts/ArbitrageUniV3.sol\":3790:3804  uint256 amount */\n      0x00\n        /* \"contracts/ArbitrageUniV3.sol\":3854:3855  0 */\n      dup1\n        /* \"contracts/ArbitrageUniV3.sol\":3835:3851  amountOutMinimum */\n      dup4\n        /* \"contracts/ArbitrageUniV3.sol\":3835:3855  amountOutMinimum > 0 */\n      gt\n        /* \"contracts/ArbitrageUniV3.sol\":3827:3889  require(amountOutMinimum > 0, \"Invalid minimum output amount\") */\n      tag_136\n      jumpi\n      mload(0x40)\n      0x08c379a000000000000000000000000000000000000000000000000000000000\n      dup2\n      mstore\n      0x04\n      add\n      tag_137\n      swap1\n      tag_107\n      jump\t// in\n    tag_137:\n      mload(0x40)\n      dup1\n      swap2\n      sub\n      swap1\n      revert\n    tag_136:\n        /* \"contracts/ArbitrageUniV3.sol\":3900:3913  address stock */\n      0x00\n        /* \"contracts/ArbitrageUniV3.sol\":3916:3926  getStock() */\n      tag_138\n        /* \"contracts/ArbitrageUniV3.sol\":3916:3924  getStock */\n      tag_100\n        /* \"contracts/ArbitrageUniV3.sol\":3916:3926  getStock() */\n      jump\t// in\n    tag_138:\n        /* \"contracts/ArbitrageUniV3.sol\":3900:3926  address stock = getStock() */\n      swap1\n      pop\n        /* \"contracts/ArbitrageUniV3.sol\":3937:3950  address money */\n      0x00\n        /* \"contracts/ArbitrageUniV3.sol\":3953:3963  getStock() */\n      tag_139\n        /* \"contracts/ArbitrageUniV3.sol\":3953:3961  getStock */\n      tag_100\n        /* \"contracts/ArbitrageUniV3.sol\":3953:3963  getStock() */\n      jump\t// in\n    tag_139:\n        /* \"contracts/ArbitrageUniV3.sol\":3937:3963  address money = getStock() */\n      swap1\n      pop\n        /* \"contracts/ArbitrageUniV3.sol\":3974:3984  uint24 fee */\n      0x00\n        /* \"contracts/ArbitrageUniV3.sol\":4002:4006  pool */\n      0x04\n      0x00\n      swap1\n      sload\n      swap1\n      0x0100\n      exp\n      swap1\n      div\n      0xffffffffffffffffffffffffffffffffffffffff\n      and\n        /* \"contracts/ArbitrageUniV3.sol\":3987:4011  IUniswapV3Pool(pool).fee */\n      0xffffffffffffffffffffffffffffffffffffffff\n      and\n      0xddca3f43\n        /* \"contracts/ArbitrageUniV3.sol\":3987:4013  IUniswapV3Pool(pool).fee() */\n      mload(0x40)\n      dup2\n      0xffffffff\n      and\n      0xe0\n      shl\n      dup2\n      mstore\n      0x04\n      add\n      0x20\n      mload(0x40)\n      dup1\n      dup4\n      sub\n      dup2\n      dup7\n      gas\n      staticcall\n      iszero\n      dup1\n      iszero\n      tag_141\n      jumpi\n      returndatasize\n      0x00\n      dup1\n      returndatacopy\n      revert(0x00, returndatasize)\n    tag_141:\n      pop\n      pop\n      pop\n      pop\n      mload(0x40)\n      returndatasize\n      not(0x1f)\n      0x1f\n      dup3\n      add\n      and\n      dup3\n      add\n      dup1\n      0x40\n      mstore\n      pop\n      dup2\n      add\n      swap1\n      tag_142\n      swap2\n      swap1\n      tag_113\n      jump\t// in\n    tag_142:\n        /* \"contracts/ArbitrageUniV3.sol\":3974:4013  uint24 fee = IUniswapV3Pool(pool).fee() */\n      swap1\n      pop\n        /* \"contracts/ArbitrageUniV3.sol\":4061:4067  router */\n      0x03\n      0x00\n      swap1\n      sload\n      swap1\n      0x0100\n      exp\n      swap1\n      div\n      0xffffffffffffffffffffffffffffffffffffffff\n      and\n        /* \"contracts/ArbitrageUniV3.sol\":4049:4085  ISwapRouter(router).exactInputSingle */\n      0xffffffffffffffffffffffffffffffffffffffff\n      and\n      0x414bf389\n        /* \"contracts/ArbitrageUniV3.sol\":4100:4431  ISwapRouter.ExactInputSingleParams(... */\n      mload(0x40)\n      dup1\n      0x0100\n      add\n      0x40\n      mstore\n      dup1\n        /* \"contracts/ArbitrageUniV3.sol\":4153:4158  money */\n      dup6\n        /* \"contracts/ArbitrageUniV3.sol\":4100:4431  ISwapRouter.ExactInputSingleParams(... */\n      0xffffffffffffffffffffffffffffffffffffffff\n      and\n      dup2\n      mstore\n      0x20\n      add\n        /* \"contracts/ArbitrageUniV3.sol\":4177:4182  stock */\n      dup7\n        /* \"contracts/ArbitrageUniV3.sol\":4100:4431  ISwapRouter.ExactInputSingleParams(... */\n      0xffffffffffffffffffffffffffffffffffffffff\n      and\n      dup2\n      mstore\n      0x20\n      add\n        /* \"contracts/ArbitrageUniV3.sol\":4201:4204  fee */\n      dup5\n        /* \"contracts/ArbitrageUniV3.sol\":4100:4431  ISwapRouter.ExactInputSingleParams(... */\n      0xffffff\n      and\n      dup2\n      mstore\n      0x20\n      add\n        /* \"contracts/ArbitrageUniV3.sol\":4231:4235  this */\n      address\n        /* \"contracts/ArbitrageUniV3.sol\":4100:4431  ISwapRouter.ExactInputSingleParams(... */\n      0xffffffffffffffffffffffffffffffffffffffff\n      and\n      dup2\n      mstore\n      0x20\n      add\n        /* \"contracts/ArbitrageUniV3.sol\":4255:4270  block.timestamp */\n      timestamp\n        /* \"contracts/ArbitrageUniV3.sol\":4100:4431  ISwapRouter.ExactInputSingleParams(... */\n      dup2\n      mstore\n      0x20\n      add\n        /* \"contracts/ArbitrageUniV3.sol\":4304:4309  money */\n      dup6\n        /* \"contracts/ArbitrageUniV3.sol\":4297:4320  IERC20(money).balanceOf */\n      0xffffffffffffffffffffffffffffffffffffffff\n      and\n      0x70a08231\n        /* \"contracts/ArbitrageUniV3.sol\":4329:4333  this */\n      address\n        /* \"contracts/ArbitrageUniV3.sol\":4297:4335  IERC20(money).balanceOf(address(this)) */\n      mload(0x40)\n      dup3\n      0xffffffff\n      and\n      0xe0\n      shl\n      dup2\n      mstore\n      0x04\n      add\n      tag_143\n      swap2\n      swap1\n      tag_30\n      jump\t// in\n    tag_143:\n      0x20\n      mload(0x40)\n      dup1\n      dup4\n      sub\n      dup2\n      dup7\n      gas\n      staticcall\n      iszero\n      dup1\n      iszero\n      tag_145\n      jumpi\n      returndatasize\n      0x00\n      dup1\n      returndatacopy\n      revert(0x00, returndatasize)\n    tag_145:\n      pop\n      pop\n      pop\n      pop\n      mload(0x40)\n      returndatasize\n      not(0x1f)\n      0x1f\n      dup3\n      add\n      and\n      dup3\n      add\n      dup1\n      0x40\n      mstore\n      pop\n      dup2\n      add\n      swap1\n      tag_146\n      swap2\n      swap1\n      tag_119\n      jump\t// in\n    tag_146:\n        /* \"contracts/ArbitrageUniV3.sol\":4100:4431  ISwapRouter.ExactInputSingleParams(... */\n      dup2\n      mstore\n      0x20\n      add\n        /* \"contracts/ArbitrageUniV3.sol\":4363:4379  amountOutMinimum */\n      dup10\n        /* \"contracts/ArbitrageUniV3.sol\":4100:4431  ISwapRouter.ExactInputSingleParams(... */\n      dup2\n      mstore\n      0x20\n      add\n        /* \"contracts/ArbitrageUniV3.sol\":4399:4416  sqrtPriceLimitX96 */\n      dup9\n        /* \"contracts/ArbitrageUniV3.sol\":4100:4431  ISwapRouter.ExactInputSingleParams(... */\n      0xffffffffffffffffffffffffffffffffffffffff\n      and\n      dup2\n      mstore\n      pop\n        /* \"contracts/ArbitrageUniV3.sol\":4049:4442  ISwapRouter(router).exactInputSingle(... */\n      mload(0x40)\n      dup3\n      0xffffffff\n      and\n      0xe0\n      shl\n      dup2\n      mstore\n      0x04\n      add\n      tag_147\n      swap2\n      swap1\n      tag_115\n      jump\t// in\n    tag_147:\n      0x20\n      mload(0x40)\n      dup1\n      dup4\n      sub\n      dup2\n      0x00\n      dup8\n      gas\n      call\n      iszero\n      dup1\n      iszero\n      tag_149\n      jumpi\n      returndatasize\n      0x00\n      dup1\n      returndatacopy\n      revert(0x00, returndatasize)\n    tag_149:\n      pop\n      pop\n      pop\n      pop\n      mload(0x40)\n      returndatasize\n      not(0x1f)\n      0x1f\n      dup3\n      add\n      and\n      dup3\n      add\n      dup1\n      0x40\n      mstore\n      pop\n      dup2\n      add\n      swap1\n      tag_150\n      swap2\n      swap1\n      tag_119\n      jump\t// in\n    tag_150:\n      pop\n        /* \"contracts/ArbitrageUniV3.sol\":3806:4450  {... */\n      pop\n      pop\n      pop\n        /* \"contracts/ArbitrageUniV3.sol\":3663:4450  function closePostion(... */\n      swap3\n      swap2\n      pop\n      pop\n      jump\t// out\n        /* \"contracts/extern/Manageable.sol\":2755:2842  function owner() public view virtual returns (address) {... */\n    tag_62:\n        /* \"contracts/extern/Manageable.sol\":2801:2808  address */\n      0x00\n        /* \"contracts/extern/Manageable.sol\":2828:2834  _owner */\n      dup1\n      0x00\n      swap1\n      sload\n      swap1\n      0x0100\n      exp\n      swap1\n      div\n      0xffffffffffffffffffffffffffffffffffffffff\n      and\n        /* \"contracts/extern/Manageable.sol\":2821:2834  return _owner */\n      swap1\n      pop\n        /* \"contracts/extern/Manageable.sol\":2755:2842  function owner() public view virtual returns (address) {... */\n      swap1\n      jump\t// out\n        /* \"contracts/ArbitrageUniV3.sol\":2058:2464  function deposit(uint256 amount) external override payable returns (uint256 depositAmount) {... */\n    tag_67:\n        /* \"contracts/ArbitrageUniV3.sol\":2126:2147  uint256 depositAmount */\n      0x00\n        /* \"contracts/ArbitrageUniV3.sol\":2182:2188  amount */\n      dup2\n        /* \"contracts/ArbitrageUniV3.sol\":2160:2166  shares */\n      0x05\n        /* \"contracts/ArbitrageUniV3.sol\":2160:2178  shares[msg.sender] */\n      0x00\n        /* \"contracts/ArbitrageUniV3.sol\":2167:2177  msg.sender */\n      caller\n        /* \"contracts/ArbitrageUniV3.sol\":2160:2178  shares[msg.sender] */\n      0xffffffffffffffffffffffffffffffffffffffff\n      and\n      0xffffffffffffffffffffffffffffffffffffffff\n      and\n      dup2\n      mstore\n      0x20\n      add\n      swap1\n      dup2\n      mstore\n      0x20\n      add\n      0x00\n      keccak256\n      0x00\n        /* \"contracts/ArbitrageUniV3.sol\":2160:2188  shares[msg.sender] += amount */\n      dup3\n      dup3\n      sload\n      tag_153\n      swap2\n      swap1\n      tag_154\n      jump\t// in\n    tag_153:\n      swap3\n      pop\n      pop\n      dup2\n      swap1\n      sstore\n      pop\n        /* \"contracts/ArbitrageUniV3.sol\":2212:2221  msg.value */\n      callvalue\n        /* \"contracts/ArbitrageUniV3.sol\":2199:2208  org_stock */\n      0x07\n      0x00\n        /* \"contracts/ArbitrageUniV3.sol\":2199:2221  org_stock += msg.value */\n      dup3\n      dup3\n      sload\n      tag_155\n      swap2\n      swap1\n      tag_154\n      jump\t// in\n    tag_155:\n      swap3\n      pop\n      pop\n      dup2\n      swap1\n      sstore\n      pop\n        /* \"contracts/ArbitrageUniV3.sol\":2232:2245  address stock */\n      0x00\n        /* \"contracts/ArbitrageUniV3.sol\":2248:2258  getStock() */\n      tag_156\n        /* \"contracts/ArbitrageUniV3.sol\":2248:2256  getStock */\n      tag_100\n        /* \"contracts/ArbitrageUniV3.sol\":2248:2258  getStock() */\n      jump\t// in\n    tag_156:\n        /* \"contracts/ArbitrageUniV3.sol\":2232:2258  address stock = getStock() */\n      swap1\n      pop\n        /* \"contracts/ArbitrageUniV3.sol\":2276:2281  stock */\n      dup1\n        /* \"contracts/ArbitrageUniV3.sol\":2269:2290  IERC20(stock).approve */\n      0xffffffffffffffffffffffffffffffffffffffff\n      and\n      0x095ea7b3\n        /* \"contracts/ArbitrageUniV3.sol\":2299:2303  this */\n      address\n        /* \"contracts/ArbitrageUniV3.sol\":2306:2312  amount */\n      dup6\n        /* \"contracts/ArbitrageUniV3.sol\":2269:2313  IERC20(stock).approve(address(this), amount) */\n      mload(0x40)\n      dup4\n      0xffffffff\n      and\n      0xe0\n      shl\n      dup2\n      mstore\n      0x04\n      add\n      tag_157\n      swap3\n      swap2\n      swap1\n      tag_158\n      jump\t// in\n    tag_157:\n      0x20\n      mload(0x40)\n      dup1\n      dup4\n      sub\n      dup2\n      0x00\n      dup8\n      gas\n      call\n      iszero\n      dup1\n      iszero\n      tag_160\n      jumpi\n      returndatasize\n      0x00\n      dup1\n      returndatacopy\n      revert(0x00, returndatasize)\n    tag_160:\n      pop\n      pop\n      pop\n      pop\n      mload(0x40)\n      returndatasize\n      not(0x1f)\n      0x1f\n      dup3\n      add\n      and\n      dup3\n      add\n      dup1\n      0x40\n      mstore\n      pop\n      dup2\n      add\n      swap1\n      tag_161\n      swap2\n      swap1\n      tag_162\n      jump\t// in\n    tag_161:\n      pop\n        /* \"contracts/ArbitrageUniV3.sol\":2324:2389  IERC20(stock).safeTransferFrom(msg.sender, address(this), amount) */\n      tag_163\n        /* \"contracts/ArbitrageUniV3.sol\":2355:2365  msg.sender */\n      caller\n        /* \"contracts/ArbitrageUniV3.sol\":2375:2379  this */\n      address\n        /* \"contracts/ArbitrageUniV3.sol\":2382:2388  amount */\n      dup6\n        /* \"contracts/ArbitrageUniV3.sol\":2331:2336  stock */\n      dup5\n        /* \"contracts/ArbitrageUniV3.sol\":2324:2354  IERC20(stock).safeTransferFrom */\n      0xffffffffffffffffffffffffffffffffffffffff\n      and\n      tag_164\n      swap1\n        /* \"contracts/ArbitrageUniV3.sol\":2324:2389  IERC20(stock).safeTransferFrom(msg.sender, address(this), amount) */\n      swap4\n      swap3\n      swap2\n      swap1\n      0xffffffff\n      and\n      jump\t// in\n    tag_163:\n        /* \"contracts/ArbitrageUniV3.sol\":2413:2423  msg.sender */\n      caller\n        /* \"contracts/ArbitrageUniV3.sol\":2405:2432  Deposit(msg.sender, amount) */\n      0xffffffffffffffffffffffffffffffffffffffff\n      and\n      0xe1fffcc4923d04b559f4d29a8bfc6cda04eb5b0d3c460751c2402c5c5cc9109c\n        /* \"contracts/ArbitrageUniV3.sol\":2425:2431  amount */\n      dup5\n        /* \"contracts/ArbitrageUniV3.sol\":2405:2432  Deposit(msg.sender, amount) */\n      mload(0x40)\n      tag_165\n      swap2\n      swap1\n      tag_25\n      jump\t// in\n    tag_165:\n      mload(0x40)\n      dup1\n      swap2\n      sub\n      swap1\n      log2\n        /* \"contracts/ArbitrageUniV3.sol\":2450:2456  amount */\n      dup3\n        /* \"contracts/ArbitrageUniV3.sol\":2443:2456  return amount */\n      swap2\n      pop\n      pop\n        /* \"contracts/ArbitrageUniV3.sol\":2058:2464  function deposit(uint256 amount) external override payable returns (uint256 depositAmount) {... */\n      swap2\n      swap1\n      pop\n      jump\t// out\n        /* \"contracts/ArbitrageUniV3.sol\":555:596  mapping(address => uint256) public shares */\n    tag_73:\n      mstore(0x20, 0x05)\n      dup1\n      0x00\n      mstore\n      keccak256(0x00, 0x40)\n      0x00\n      swap2\n      pop\n      swap1\n      pop\n      sload\n      dup2\n      jump\t// out\n        /* \"contracts/extern/Manageable.sol\":2963:3066  function pendingOwner() external view virtual returns (address) {... */\n    tag_77:\n        /* \"contracts/extern/Manageable.sol\":3018:3025  address */\n      0x00\n        /* \"contracts/extern/Manageable.sol\":3045:3058  _pendingOwner */\n      0x01\n      0x00\n      swap1\n      sload\n      swap1\n      0x0100\n      exp\n      swap1\n      div\n      0xffffffffffffffffffffffffffffffffffffffff\n      and\n        /* \"contracts/extern/Manageable.sol\":3038:3058  return _pendingOwner */\n      swap1\n      pop\n        /* \"contracts/extern/Manageable.sol\":2963:3066  function pendingOwner() external view virtual returns (address) {... */\n      swap1\n      jump\t// out\n        /* \"contracts/extern/Manageable.sol\":3720:3960  function transferOwnership(address _newOwner) external onlyOwner {... */\n    tag_82:\n        /* \"contracts/extern/Manageable.sol\":4842:4852  msg.sender */\n      caller\n        /* \"contracts/extern/Manageable.sol\":4831:4852  owner() == msg.sender */\n      0xffffffffffffffffffffffffffffffffffffffff\n      and\n        /* \"contracts/extern/Manageable.sol\":4831:4838  owner() */\n      tag_168\n        /* \"contracts/extern/Manageable.sol\":4831:4836  owner */\n      tag_62\n        /* \"contracts/extern/Manageable.sol\":4831:4838  owner() */\n      jump\t// in\n    tag_168:\n        /* \"contracts/extern/Manageable.sol\":4831:4852  owner() == msg.sender */\n      0xffffffffffffffffffffffffffffffffffffffff\n      and\n      eq\n        /* \"contracts/extern/Manageable.sol\":4823:4881  require(owner() == msg.sender, \"Ownable/caller-not-owner\") */\n      tag_169\n      jumpi\n      mload(0x40)\n      0x08c379a000000000000000000000000000000000000000000000000000000000\n      dup2\n      mstore\n      0x04\n      add\n      tag_170\n      swap1\n      tag_132\n      jump\t// in\n    tag_170:\n      mload(0x40)\n      dup1\n      swap2\n      sub\n      swap1\n      revert\n    tag_169:\n        /* \"contracts/extern/Manageable.sol\":3825:3826  0 */\n      0x00\n        /* \"contracts/extern/Manageable.sol\":3804:3827  _newOwner != address(0) */\n      0xffffffffffffffffffffffffffffffffffffffff\n      and\n        /* \"contracts/extern/Manageable.sol\":3804:3813  _newOwner */\n      dup2\n        /* \"contracts/extern/Manageable.sol\":3804:3827  _newOwner != address(0) */\n      0xffffffffffffffffffffffffffffffffffffffff\n      and\n      sub\n        /* \"contracts/extern/Manageable.sol\":3796:3869  require(_newOwner != address(0), \"Ownable/pendingOwner-not-zero-address\") */\n      tag_172\n      jumpi\n      mload(0x40)\n      0x08c379a000000000000000000000000000000000000000000000000000000000\n      dup2\n      mstore\n      0x04\n      add\n      tag_173\n      swap1\n      tag_174\n      jump\t// in\n    tag_173:\n      mload(0x40)\n      dup1\n      swap2\n      sub\n      swap1\n      revert\n    tag_172:\n        /* \"contracts/extern/Manageable.sol\":3898:3907  _newOwner */\n      dup1\n        /* \"contracts/extern/Manageable.sol\":3882:3895  _pendingOwner */\n      0x01\n      0x00\n        /* \"contracts/extern/Manageable.sol\":3882:3907  _pendingOwner = _newOwner */\n      0x0100\n      exp\n      dup2\n      sload\n      dup2\n      0xffffffffffffffffffffffffffffffffffffffff\n      mul\n      not\n      and\n      swap1\n      dup4\n      0xffffffffffffffffffffffffffffffffffffffff\n      and\n      mul\n      or\n      swap1\n      sstore\n      pop\n        /* \"contracts/extern/Manageable.sol\":3942:3951  _newOwner */\n      dup1\n        /* \"contracts/extern/Manageable.sol\":3925:3952  OwnershipOffered(_newOwner) */\n      0xffffffffffffffffffffffffffffffffffffffff\n      and\n      0x239a2ddded15777fa246aed5f7e1a9bc69a39d4eb4a397034d1d85766cca7d4c\n      mload(0x40)\n      mload(0x40)\n      dup1\n      swap2\n      sub\n      swap1\n      log2\n        /* \"contracts/extern/Manageable.sol\":3720:3960  function transferOwnership(address _newOwner) external onlyOwner {... */\n      pop\n      jump\t// out\n        /* \"contracts/ArbitrageUniV3.sol\":500:522  address public  router */\n    tag_85:\n      0x03\n      0x00\n      swap1\n      sload\n      swap1\n      0x0100\n      exp\n      swap1\n      div\n      0xffffffffffffffffffffffffffffffffffffffff\n      and\n      dup2\n      jump\t// out\n        /* \"contracts/ArbitrageUniV3.sol\":636:660  uint256 public org_stock */\n    tag_89:\n      sload(0x07)\n      dup2\n      jump\t// out\n        /* \"contracts/extern/SafeMath.sol\":3435:3533  function mul(uint256 a, uint256 b) internal pure returns (uint256) {... */\n    tag_97:\n        /* \"contracts/extern/SafeMath.sol\":3493:3500  uint256 */\n      0x00\n        /* \"contracts/extern/SafeMath.sol\":3524:3525  b */\n      dup2\n        /* \"contracts/extern/SafeMath.sol\":3520:3521  a */\n      dup4\n        /* \"contracts/extern/SafeMath.sol\":3520:3525  a * b */\n      tag_176\n      swap2\n      swap1\n      tag_177\n      jump\t// in\n    tag_176:\n        /* \"contracts/extern/SafeMath.sol\":3513:3525  return a * b */\n      swap1\n      pop\n        /* \"contracts/extern/SafeMath.sol\":3435:3533  function mul(uint256 a, uint256 b) internal pure returns (uint256) {... */\n      swap3\n      swap2\n      pop\n      pop\n      jump\t// out\n        /* \"contracts/extern/SafeMath.sol\":3834:3932  function div(uint256 a, uint256 b) internal pure returns (uint256) {... */\n    tag_98:\n        /* \"contracts/extern/SafeMath.sol\":3892:3899  uint256 */\n      0x00\n        /* \"contracts/extern/SafeMath.sol\":3923:3924  b */\n      dup2\n        /* \"contracts/extern/SafeMath.sol\":3919:3920  a */\n      dup4\n        /* \"contracts/extern/SafeMath.sol\":3919:3924  a / b */\n      tag_179\n      swap2\n      swap1\n      tag_180\n      jump\t// in\n    tag_179:\n        /* \"contracts/extern/SafeMath.sol\":3912:3924  return a / b */\n      swap1\n      pop\n        /* \"contracts/extern/SafeMath.sol\":3834:3932  function div(uint256 a, uint256 b) internal pure returns (uint256) {... */\n      swap3\n      swap2\n      pop\n      pop\n      jump\t// out\n        /* \"contracts/ArbitrageUniV3.sol\":1538:1789  function getStock() private view returns(address stock){... */\n    tag_100:\n        /* \"contracts/ArbitrageUniV3.sol\":1579:1592  address stock */\n      0x00\n        /* \"contracts/ArbitrageUniV3.sol\":1604:1617  address stock */\n      dup1\n        /* \"contracts/ArbitrageUniV3.sol\":1635:1639  pool */\n      0x04\n      0x00\n      swap1\n      sload\n      swap1\n      0x0100\n      exp\n      swap1\n      div\n      0xffffffffffffffffffffffffffffffffffffffff\n      and\n        /* \"contracts/ArbitrageUniV3.sol\":1620:1647  IUniswapV3Pool(pool).token0 */\n      0xffffffffffffffffffffffffffffffffffffffff\n      and\n      0x0dfe1681\n        /* \"contracts/ArbitrageUniV3.sol\":1620:1649  IUniswapV3Pool(pool).token0() */\n      mload(0x40)\n      dup2\n      0xffffffff\n      and\n      0xe0\n      shl\n      dup2\n      mstore\n      0x04\n      add\n      0x20\n      mload(0x40)\n      dup1\n      dup4\n      sub\n      dup2\n      dup7\n      gas\n      staticcall\n      iszero\n      dup1\n      iszero\n      tag_183\n      jumpi\n      returndatasize\n      0x00\n      dup1\n      returndatacopy\n      revert(0x00, returndatasize)\n    tag_183:\n      pop\n      pop\n      pop\n      pop\n      mload(0x40)\n      returndatasize\n      not(0x1f)\n      0x1f\n      dup3\n      add\n      and\n      dup3\n      add\n      dup1\n      0x40\n      mstore\n      pop\n      dup2\n      add\n      swap1\n      tag_184\n      swap2\n      swap1\n      tag_185\n      jump\t// in\n    tag_184:\n        /* \"contracts/ArbitrageUniV3.sol\":1604:1649  address stock = IUniswapV3Pool(pool).token0() */\n      swap1\n      pop\n        /* \"contracts/ArbitrageUniV3.sol\":1679:1680  1 */\n      0x01\n        /* \"contracts/ArbitrageUniV3.sol\":1664:1675  stock_index */\n      sload(0x08)\n        /* \"contracts/ArbitrageUniV3.sol\":1664:1680  stock_index == 1 */\n      sub\n        /* \"contracts/ArbitrageUniV3.sol\":1660:1756  if (stock_index == 1 )... */\n      tag_186\n      jumpi\n        /* \"contracts/ArbitrageUniV3.sol\":1730:1734  pool */\n      0x04\n      0x00\n      swap1\n      sload\n      swap1\n      0x0100\n      exp\n      swap1\n      div\n      0xffffffffffffffffffffffffffffffffffffffff\n      and\n        /* \"contracts/ArbitrageUniV3.sol\":1715:1742  IUniswapV3Pool(pool).token1 */\n      0xffffffffffffffffffffffffffffffffffffffff\n      and\n      0xd21220a7\n        /* \"contracts/ArbitrageUniV3.sol\":1715:1744  IUniswapV3Pool(pool).token1() */\n      mload(0x40)\n      dup2\n      0xffffffff\n      and\n      0xe0\n      shl\n      dup2\n      mstore\n      0x04\n      add\n      0x20\n      mload(0x40)\n      dup1\n      dup4\n      sub\n      dup2\n      dup7\n      gas\n      staticcall\n      iszero\n      dup1\n      iszero\n      tag_188\n      jumpi\n      returndatasize\n      0x00\n      dup1\n      returndatacopy\n      revert(0x00, returndatasize)\n    tag_188:\n      pop\n      pop\n      pop\n      pop\n      mload(0x40)\n      returndatasize\n      not(0x1f)\n      0x1f\n      dup3\n      add\n      and\n      dup3\n      add\n      dup1\n      0x40\n      mstore\n      pop\n      dup2\n      add\n      swap1\n      tag_189\n      swap2\n      swap1\n      tag_185\n      jump\t// in\n    tag_189:\n        /* \"contracts/ArbitrageUniV3.sol\":1707:1744  stock = IUniswapV3Pool(pool).token1() */\n      swap1\n      pop\n        /* \"contracts/ArbitrageUniV3.sol\":1660:1756  if (stock_index == 1 )... */\n    tag_186:\n        /* \"contracts/ArbitrageUniV3.sol\":1776:1781  stock */\n      dup1\n        /* \"contracts/ArbitrageUniV3.sol\":1769:1781  return stock */\n      swap2\n      pop\n      pop\n        /* \"contracts/ArbitrageUniV3.sol\":1538:1789  function getStock() private view returns(address stock){... */\n      swap1\n      jump\t// out\n        /* \"contracts/extern/SafeERC20.sol\":664:841  function safeTransfer(IERC20 token, address to, uint256 value) internal {... */\n    tag_102:\n        /* \"contracts/extern/SafeERC20.sol\":747:833  _callOptionalReturn(token, abi.encodeWithSelector(token.transfer.selector, to, value)) */\n      tag_191\n        /* \"contracts/extern/SafeERC20.sol\":767:772  token */\n      dup4\n        /* \"contracts/extern/SafeERC20.sol\":797:820  token.transfer.selector */\n      shl(0xe0, 0xa9059cbb)\n        /* \"contracts/extern/SafeERC20.sol\":822:824  to */\n      dup5\n        /* \"contracts/extern/SafeERC20.sol\":826:831  value */\n      dup5\n        /* \"contracts/extern/SafeERC20.sol\":774:832  abi.encodeWithSelector(token.transfer.selector, to, value) */\n      add(0x24, mload(0x40))\n      tag_192\n      swap3\n      swap2\n      swap1\n      tag_158\n      jump\t// in\n    tag_192:\n      mload(0x40)\n      0x20\n      dup2\n      dup4\n      sub\n      sub\n      dup2\n      mstore\n      swap1\n      0x40\n      mstore\n      swap1\n      not(0xffffffffffffffffffffffffffffffffffffffffffffffffffffffff)\n      and\n      0x20\n      dup3\n      add\n      dup1\n      mload\n      0xffffffffffffffffffffffffffffffffffffffffffffffffffffffff\n      dup4\n      dup2\n      dup4\n      and\n      or\n      dup4\n      mstore\n      pop\n      pop\n      pop\n      pop\n        /* \"contracts/extern/SafeERC20.sol\":747:766  _callOptionalReturn */\n      tag_193\n        /* \"contracts/extern/SafeERC20.sol\":747:833  _callOptionalReturn(token, abi.encodeWithSelector(token.transfer.selector, to, value)) */\n      jump\t// in\n    tag_191:\n        /* \"contracts/extern/SafeERC20.sol\":664:841  function safeTransfer(IERC20 token, address to, uint256 value) internal {... */\n      pop\n      pop\n      pop\n      jump\t// out\n        /* \"contracts/extern/Manageable.sol\":4462:4640  function _setOwner(address _newOwner) private {... */\n    tag_127:\n        /* \"contracts/extern/Manageable.sol\":4519:4536  address _oldOwner */\n      0x00\n        /* \"contracts/extern/Manageable.sol\":4539:4545  _owner */\n      dup1\n      0x00\n      swap1\n      sload\n      swap1\n      0x0100\n      exp\n      swap1\n      div\n      0xffffffffffffffffffffffffffffffffffffffff\n      and\n        /* \"contracts/extern/Manageable.sol\":4519:4545  address _oldOwner = _owner */\n      swap1\n      pop\n        /* \"contracts/extern/Manageable.sol\":4565:4574  _newOwner */\n      dup2\n        /* \"contracts/extern/Manageable.sol\":4556:4562  _owner */\n      0x00\n      dup1\n        /* \"contracts/extern/Manageable.sol\":4556:4574  _owner = _newOwner */\n      0x0100\n      exp\n      dup2\n      sload\n      dup2\n      0xffffffffffffffffffffffffffffffffffffffff\n      mul\n      not\n      and\n      swap1\n      dup4\n      0xffffffffffffffffffffffffffffffffffffffff\n      and\n      mul\n      or\n      swap1\n      sstore\n      pop\n        /* \"contracts/extern/Manageable.sol\":4622:4631  _newOwner */\n      dup2\n        /* \"contracts/extern/Manageable.sol\":4590:4632  OwnershipTransferred(_oldOwner, _newOwner) */\n      0xffffffffffffffffffffffffffffffffffffffff\n      and\n        /* \"contracts/extern/Manageable.sol\":4611:4620  _oldOwner */\n      dup2\n        /* \"contracts/extern/Manageable.sol\":4590:4632  OwnershipTransferred(_oldOwner, _newOwner) */\n      0xffffffffffffffffffffffffffffffffffffffff\n      and\n      0x8be0079c531659141344cd1fd0a4f28419497f9722a3daafe3b4186f6b6457e0\n      mload(0x40)\n      mload(0x40)\n      dup1\n      swap2\n      sub\n      swap1\n      log3\n        /* \"contracts/extern/Manageable.sol\":4508:4640  {... */\n      pop\n        /* \"contracts/extern/Manageable.sol\":4462:4640  function _setOwner(address _newOwner) private {... */\n      pop\n      jump\t// out\n        /* \"contracts/extern/SafeERC20.sol\":849:1054  function safeTransferFrom(IERC20 token, address from, address to, uint256 value) internal {... */\n    tag_164:\n        /* \"contracts/extern/SafeERC20.sol\":950:1046  _callOptionalReturn(token, abi.encodeWithSelector(token.transferFrom.selector, from, to, value)) */\n      tag_196\n        /* \"contracts/extern/SafeERC20.sol\":970:975  token */\n      dup5\n        /* \"contracts/extern/SafeERC20.sol\":1000:1027  token.transferFrom.selector */\n      shl(0xe0, 0x23b872dd)\n        /* \"contracts/extern/SafeERC20.sol\":1029:1033  from */\n      dup6\n        /* \"contracts/extern/SafeERC20.sol\":1035:1037  to */\n      dup6\n        /* \"contracts/extern/SafeERC20.sol\":1039:1044  value */\n      dup6\n        /* \"contracts/extern/SafeERC20.sol\":977:1045  abi.encodeWithSelector(token.transferFrom.selector, from, to, value) */\n      add(0x24, mload(0x40))\n      tag_197\n      swap4\n      swap3\n      swap2\n      swap1\n      tag_198\n      jump\t// in\n    tag_197:\n      mload(0x40)\n      0x20\n      dup2\n      dup4\n      sub\n      sub\n      dup2\n      mstore\n      swap1\n      0x40\n      mstore\n      swap1\n      not(0xffffffffffffffffffffffffffffffffffffffffffffffffffffffff)\n      and\n      0x20\n      dup3\n      add\n      dup1\n      mload\n      0xffffffffffffffffffffffffffffffffffffffffffffffffffffffff\n      dup4\n      dup2\n      dup4\n      and\n      or\n      dup4\n      mstore\n      pop\n      pop\n      pop\n      pop\n        /* \"contracts/extern/SafeERC20.sol\":950:969  _callOptionalReturn */\n      tag_193\n        /* \"contracts/extern/SafeERC20.sol\":950:1046  _callOptionalReturn(token, abi.encodeWithSelector(token.transferFrom.selector, from, to, value)) */\n      jump\t// in\n    tag_196:\n        /* \"contracts/extern/SafeERC20.sol\":849:1054  function safeTransferFrom(IERC20 token, address from, address to, uint256 value) internal {... */\n      pop\n      pop\n      pop\n      pop\n      jump\t// out\n        /* \"contracts/extern/SafeERC20.sol\":3544:4260  function _callOptionalReturn(IERC20 token, bytes memory data) private {... */\n    tag_193:\n        /* \"contracts/extern/SafeERC20.sol\":3968:3991  bytes memory returndata */\n      0x00\n        /* \"contracts/extern/SafeERC20.sol\":3994:4063  address(token).functionCall(data, \"SafeERC20: low-level call failed\") */\n      tag_200\n        /* \"contracts/extern/SafeERC20.sol\":4022:4026  data */\n      dup3\n        /* \"contracts/extern/SafeERC20.sol\":3994:4063  address(token).functionCall(data, \"SafeERC20: low-level call failed\") */\n      mload(0x40)\n      dup1\n      0x40\n      add\n      0x40\n      mstore\n      dup1\n      0x20\n      dup2\n      mstore\n      0x20\n      add\n      0x5361666545524332303a206c6f772d6c6576656c2063616c6c206661696c6564\n      dup2\n      mstore\n      pop\n        /* \"contracts/extern/SafeERC20.sol\":4002:4007  token */\n      dup6\n        /* \"contracts/extern/SafeERC20.sol\":3994:4021  address(token).functionCall */\n      0xffffffffffffffffffffffffffffffffffffffff\n      and\n      tag_201\n      swap1\n        /* \"contracts/extern/SafeERC20.sol\":3994:4063  address(token).functionCall(data, \"SafeERC20: low-level call failed\") */\n      swap3\n      swap2\n      swap1\n      0xffffffff\n      and\n      jump\t// in\n    tag_200:\n        /* \"contracts/extern/SafeERC20.sol\":3968:4063  bytes memory returndata = address(token).functionCall(data, \"SafeERC20: low-level call failed\") */\n      swap1\n      pop\n        /* \"contracts/extern/SafeERC20.sol\":4098:4099  0 */\n      0x00\n        /* \"contracts/extern/SafeERC20.sol\":4078:4088  returndata */\n      dup2\n        /* \"contracts/extern/SafeERC20.sol\":4078:4095  returndata.length */\n      mload\n        /* \"contracts/extern/SafeERC20.sol\":4078:4099  returndata.length > 0 */\n      gt\n        /* \"contracts/extern/SafeERC20.sol\":4074:4253  if (returndata.length > 0) {... */\n      iszero\n      tag_202\n      jumpi\n        /* \"contracts/extern/SafeERC20.sol\":4175:4185  returndata */\n      dup1\n        /* \"contracts/extern/SafeERC20.sol\":4164:4194  abi.decode(returndata, (bool)) */\n      dup1\n      0x20\n      add\n      swap1\n      mload\n      dup2\n      add\n      swap1\n      tag_203\n      swap2\n      swap1\n      tag_162\n      jump\t// in\n    tag_203:\n        /* \"contracts/extern/SafeERC20.sol\":4156:4241  require(abi.decode(returndata, (bool)), \"SafeERC20: ERC20 operation did not succeed\") */\n      tag_204\n      jumpi\n      mload(0x40)\n      0x08c379a000000000000000000000000000000000000000000000000000000000\n      dup2\n      mstore\n      0x04\n      add\n      tag_205\n      swap1\n      tag_206\n      jump\t// in\n    tag_205:\n      mload(0x40)\n      dup1\n      swap2\n      sub\n      swap1\n      revert\n    tag_204:\n        /* \"contracts/extern/SafeERC20.sol\":4074:4253  if (returndata.length > 0) {... */\n    tag_202:\n        /* \"contracts/extern/SafeERC20.sol\":3614:4260  {... */\n      pop\n        /* \"contracts/extern/SafeERC20.sol\":3544:4260  function _callOptionalReturn(IERC20 token, bytes memory data) private {... */\n      pop\n      pop\n      jump\t// out\n        /* \"contracts/extern/Address.sol\":4184:4413  function functionCall(... */\n    tag_201:\n        /* \"contracts/extern/Address.sol\":4321:4333  bytes memory */\n      0x60\n        /* \"contracts/extern/Address.sol\":4353:4405  functionCallWithValue(target, data, 0, errorMessage) */\n      tag_208\n        /* \"contracts/extern/Address.sol\":4375:4381  target */\n      dup5\n        /* \"contracts/extern/Address.sol\":4383:4387  data */\n      dup5\n        /* \"contracts/extern/Address.sol\":4389:4390  0 */\n      0x00\n        /* \"contracts/extern/Address.sol\":4392:4404  errorMessage */\n      dup6\n        /* \"contracts/extern/Address.sol\":4353:4374  functionCallWithValue */\n      tag_209\n        /* \"contracts/extern/Address.sol\":4353:4405  functionCallWithValue(target, data, 0, errorMessage) */\n      jump\t// in\n    tag_208:\n        /* \"contracts/extern/Address.sol\":4346:4405  return functionCallWithValue(target, data, 0, errorMessage) */\n      swap1\n      pop\n        /* \"contracts/extern/Address.sol\":4184:4413  function functionCall(... */\n      swap4\n      swap3\n      pop\n      pop\n      pop\n      jump\t// out\n        /* \"contracts/extern/Address.sol\":5270:5725  function functionCallWithValue(... */\n    tag_209:\n        /* \"contracts/extern/Address.sol\":5440:5452  bytes memory */\n      0x60\n        /* \"contracts/extern/Address.sol\":5498:5503  value */\n      dup3\n        /* \"contracts/extern/Address.sol\":5473:5494  address(this).balance */\n      selfbalance\n        /* \"contracts/extern/Address.sol\":5473:5503  address(this).balance >= value */\n      lt\n      iszero\n        /* \"contracts/extern/Address.sol\":5465:5546  require(address(this).balance >= value, \"Address: insufficient balance for call\") */\n      tag_211\n      jumpi\n      mload(0x40)\n      0x08c379a000000000000000000000000000000000000000000000000000000000\n      dup2\n      mstore\n      0x04\n      add\n      tag_212\n      swap1\n      tag_213\n      jump\t// in\n    tag_212:\n      mload(0x40)\n      dup1\n      swap2\n      sub\n      swap1\n      revert\n    tag_211:\n        /* \"contracts/extern/Address.sol\":5558:5570  bool success */\n      0x00\n        /* \"contracts/extern/Address.sol\":5572:5595  bytes memory returndata */\n      dup1\n        /* \"contracts/extern/Address.sol\":5599:5605  target */\n      dup7\n        /* \"contracts/extern/Address.sol\":5599:5610  target.call */\n      0xffffffffffffffffffffffffffffffffffffffff\n      and\n        /* \"contracts/extern/Address.sol\":5618:5623  value */\n      dup6\n        /* \"contracts/extern/Address.sol\":5625:5629  data */\n      dup8\n        /* \"contracts/extern/Address.sol\":5599:5630  target.call{value: value}(data) */\n      mload(0x40)\n      tag_214\n      swap2\n      swap1\n      tag_215\n      jump\t// in\n    tag_214:\n      0x00\n      mload(0x40)\n      dup1\n      dup4\n      sub\n      dup2\n      dup6\n      dup8\n      gas\n      call\n      swap3\n      pop\n      pop\n      pop\n      returndatasize\n      dup1\n      0x00\n      dup2\n      eq\n      tag_218\n      jumpi\n      mload(0x40)\n      swap2\n      pop\n      and(add(returndatasize, 0x3f), not(0x1f))\n      dup3\n      add\n      0x40\n      mstore\n      returndatasize\n      dup3\n      mstore\n      returndatasize\n      0x00\n      0x20\n      dup5\n      add\n      returndatacopy\n      jump(tag_217)\n    tag_218:\n      0x60\n      swap2\n      pop\n    tag_217:\n      pop\n        /* \"contracts/extern/Address.sol\":5557:5630  (bool success, bytes memory returndata) = target.call{value: value}(data) */\n      swap2\n      pop\n      swap2\n      pop\n        /* \"contracts/extern/Address.sol\":5648:5717  verifyCallResultFromTarget(target, success, returndata, errorMessage) */\n      tag_219\n        /* \"contracts/extern/Address.sol\":5675:5681  target */\n      dup8\n        /* \"contracts/extern/Address.sol\":5683:5690  success */\n      dup4\n        /* \"contracts/extern/Address.sol\":5692:5702  returndata */\n      dup4\n        /* \"contracts/extern/Address.sol\":5704:5716  errorMessage */\n      dup8\n        /* \"contracts/extern/Address.sol\":5648:5674  verifyCallResultFromTarget */\n      tag_220\n        /* \"contracts/extern/Address.sol\":5648:5717  verifyCallResultFromTarget(target, success, returndata, errorMessage) */\n      jump\t// in\n    tag_219:\n        /* \"contracts/extern/Address.sol\":5641:5717  return verifyCallResultFromTarget(target, success, returndata, errorMessage) */\n      swap3\n      pop\n      pop\n      pop\n        /* \"contracts/extern/Address.sol\":5270:5725  function functionCallWithValue(... */\n      swap5\n      swap4\n      pop\n      pop\n      pop\n      pop\n      jump\t// out\n        /* \"contracts/extern/Address.sol\":7843:8487  function verifyCallResultFromTarget(... */\n    tag_220:\n        /* \"contracts/extern/Address.sol\":8028:8040  bytes memory */\n      0x60\n        /* \"contracts/extern/Address.sol\":8057:8064  success */\n      dup4\n        /* \"contracts/extern/Address.sol\":8053:8480  if (success) {... */\n      iszero\n      tag_222\n      jumpi\n        /* \"contracts/extern/Address.sol\":8106:8107  0 */\n      0x00\n        /* \"contracts/extern/Address.sol\":8085:8095  returndata */\n      dup4\n        /* \"contracts/extern/Address.sol\":8085:8102  returndata.length */\n      mload\n        /* \"contracts/extern/Address.sol\":8085:8107  returndata.length == 0 */\n      sub\n        /* \"contracts/extern/Address.sol\":8081:8371  if (returndata.length == 0) {... */\n      tag_223\n      jumpi\n        /* \"contracts/extern/Address.sol\":8303:8321  isContract(target) */\n      tag_224\n        /* \"contracts/extern/Address.sol\":8314:8320  target */\n      dup6\n        /* \"contracts/extern/Address.sol\":8303:8313  isContract */\n      tag_225\n        /* \"contracts/extern/Address.sol\":8303:8321  isContract(target) */\n      jump\t// in\n    tag_224:\n        /* \"contracts/extern/Address.sol\":8295:8355  require(isContract(target), \"Address: call to non-contract\") */\n      tag_226\n      jumpi\n      mload(0x40)\n      0x08c379a000000000000000000000000000000000000000000000000000000000\n      dup2\n      mstore\n      0x04\n      add\n      tag_227\n      swap1\n      tag_228\n      jump\t// in\n    tag_227:\n      mload(0x40)\n      dup1\n      swap2\n      sub\n      swap1\n      revert\n    tag_226:\n        /* \"contracts/extern/Address.sol\":8081:8371  if (returndata.length == 0) {... */\n    tag_223:\n        /* \"contracts/extern/Address.sol\":8392:8402  returndata */\n      dup3\n        /* \"contracts/extern/Address.sol\":8385:8402  return returndata */\n      swap1\n      pop\n      jump(tag_221)\n        /* \"contracts/extern/Address.sol\":8053:8480  if (success) {... */\n    tag_222:\n        /* \"contracts/extern/Address.sol\":8435:8468  _revert(returndata, errorMessage) */\n      tag_230\n        /* \"contracts/extern/Address.sol\":8443:8453  returndata */\n      dup4\n        /* \"contracts/extern/Address.sol\":8455:8467  errorMessage */\n      dup4\n        /* \"contracts/extern/Address.sol\":8435:8442  _revert */\n      tag_231\n        /* \"contracts/extern/Address.sol\":8435:8468  _revert(returndata, errorMessage) */\n      jump\t// in\n    tag_230:\n        /* \"contracts/extern/Address.sol\":7843:8487  function verifyCallResultFromTarget(... */\n    tag_221:\n      swap5\n      swap4\n      pop\n      pop\n      pop\n      pop\n      jump\t// out\n        /* \"contracts/extern/Address.sol\":1347:1754  function isContract(address account) internal view returns (bool) {... */\n    tag_225:\n        /* \"contracts/extern/Address.sol\":1407:1411  bool */\n      0x00\n        /* \"contracts/extern/Address.sol\":1635:1647  uint256 size */\n      dup1\n        /* \"contracts/extern/Address.sol\":1702:1709  account */\n      dup3\n        /* \"contracts/extern/Address.sol\":1690:1710  extcodesize(account) */\n      extcodesize\n        /* \"contracts/extern/Address.sol\":1682:1710  size := extcodesize(account) */\n      swap1\n      pop\n        /* \"contracts/extern/Address.sol\":1745:1746  0 */\n      0x00\n        /* \"contracts/extern/Address.sol\":1738:1742  size */\n      dup2\n        /* \"contracts/extern/Address.sol\":1738:1746  size > 0 */\n      gt\n        /* \"contracts/extern/Address.sol\":1731:1746  return size > 0 */\n      swap2\n      pop\n      pop\n        /* \"contracts/extern/Address.sol\":1347:1754  function isContract(address account) internal view returns (bool) {... */\n      swap2\n      swap1\n      pop\n      jump\t// out\n        /* \"contracts/extern/Address.sol\":9029:9581  function _revert(bytes memory returndata, string memory errorMessage) private pure {... */\n    tag_231:\n        /* \"contracts/extern/Address.sol\":9210:9211  0 */\n      0x00\n        /* \"contracts/extern/Address.sol\":9190:9200  returndata */\n      dup3\n        /* \"contracts/extern/Address.sol\":9190:9207  returndata.length */\n      mload\n        /* \"contracts/extern/Address.sol\":9190:9211  returndata.length > 0 */\n      gt\n        /* \"contracts/extern/Address.sol\":9186:9574  if (returndata.length > 0) {... */\n      iszero\n      tag_234\n      jumpi\n        /* \"contracts/extern/Address.sol\":9422:9432  returndata */\n      dup2\n        /* \"contracts/extern/Address.sol\":9416:9433  mload(returndata) */\n      mload\n        /* \"contracts/extern/Address.sol\":9479:9494  returndata_size */\n      dup1\n        /* \"contracts/extern/Address.sol\":9466:9476  returndata */\n      dup4\n        /* \"contracts/extern/Address.sol\":9462:9464  32 */\n      0x20\n        /* \"contracts/extern/Address.sol\":9458:9477  add(32, returndata) */\n      add\n        /* \"contracts/extern/Address.sol\":9451:9495  revert(add(32, returndata), returndata_size) */\n      revert\n        /* \"contracts/extern/Address.sol\":9186:9574  if (returndata.length > 0) {... */\n    tag_234:\n        /* \"contracts/extern/Address.sol\":9549:9561  errorMessage */\n      dup1\n        /* \"contracts/extern/Address.sol\":9542:9562  revert(errorMessage) */\n      mload(0x40)\n      0x08c379a000000000000000000000000000000000000000000000000000000000\n      dup2\n      mstore\n      0x04\n      add\n      tag_236\n      swap2\n      swap1\n      tag_237\n      jump\t// in\n    tag_236:\n      mload(0x40)\n      dup1\n      swap2\n      sub\n      swap1\n      revert\n        /* \"#utility.yul\":7:84   */\n    tag_238:\n        /* \"#utility.yul\":44:51   */\n      0x00\n        /* \"#utility.yul\":73:78   */\n      dup2\n        /* \"#utility.yul\":62:78   */\n      swap1\n      pop\n        /* \"#utility.yul\":7:84   */\n      swap2\n      swap1\n      pop\n      jump\t// out\n        /* \"#utility.yul\":90:208   */\n    tag_239:\n        /* \"#utility.yul\":177:201   */\n      tag_294\n        /* \"#utility.yul\":195:200   */\n      dup2\n        /* \"#utility.yul\":177:201   */\n      tag_238\n      jump\t// in\n    tag_294:\n        /* \"#utility.yul\":172:175   */\n      dup3\n        /* \"#utility.yul\":165:202   */\n      mstore\n        /* \"#utility.yul\":90:208   */\n      pop\n      pop\n      jump\t// out\n        /* \"#utility.yul\":214:436   */\n    tag_25:\n        /* \"#utility.yul\":307:311   */\n      0x00\n        /* \"#utility.yul\":345:347   */\n      0x20\n        /* \"#utility.yul\":334:343   */\n      dup3\n        /* \"#utility.yul\":330:348   */\n      add\n        /* \"#utility.yul\":322:348   */\n      swap1\n      pop\n        /* \"#utility.yul\":358:429   */\n      tag_296\n        /* \"#utility.yul\":426:427   */\n      0x00\n        /* \"#utility.yul\":415:424   */\n      dup4\n        /* \"#utility.yul\":411:428   */\n      add\n        /* \"#utility.yul\":402:408   */\n      dup5\n        /* \"#utility.yul\":358:429   */\n      tag_239\n      jump\t// in\n    tag_296:\n        /* \"#utility.yul\":214:436   */\n      swap3\n      swap2\n      pop\n      pop\n      jump\t// out\n        /* \"#utility.yul\":442:568   */\n    tag_240:\n        /* \"#utility.yul\":479:486   */\n      0x00\n        /* \"#utility.yul\":519:561   */\n      0xffffffffffffffffffffffffffffffffffffffff\n        /* \"#utility.yul\":512:517   */\n      dup3\n        /* \"#utility.yul\":508:562   */\n      and\n        /* \"#utility.yul\":497:562   */\n      swap1\n      pop\n        /* \"#utility.yul\":442:568   */\n      swap2\n      swap1\n      pop\n      jump\t// out\n        /* \"#utility.yul\":574:670   */\n    tag_241:\n        /* \"#utility.yul\":611:618   */\n      0x00\n        /* \"#utility.yul\":640:664   */\n      tag_299\n        /* \"#utility.yul\":658:663   */\n      dup3\n        /* \"#utility.yul\":640:664   */\n      tag_240\n      jump\t// in\n    tag_299:\n        /* \"#utility.yul\":629:664   */\n      swap1\n      pop\n        /* \"#utility.yul\":574:670   */\n      swap2\n      swap1\n      pop\n      jump\t// out\n        /* \"#utility.yul\":676:794   */\n    tag_242:\n        /* \"#utility.yul\":763:787   */\n      tag_301\n        /* \"#utility.yul\":781:786   */\n      dup2\n        /* \"#utility.yul\":763:787   */\n      tag_241\n      jump\t// in\n    tag_301:\n        /* \"#utility.yul\":758:761   */\n      dup3\n        /* \"#utility.yul\":751:788   */\n      mstore\n        /* \"#utility.yul\":676:794   */\n      pop\n      pop\n      jump\t// out\n        /* \"#utility.yul\":800:1022   */\n    tag_30:\n        /* \"#utility.yul\":893:897   */\n      0x00\n        /* \"#utility.yul\":931:933   */\n      0x20\n        /* \"#utility.yul\":920:929   */\n      dup3\n        /* \"#utility.yul\":916:934   */\n      add\n        /* \"#utility.yul\":908:934   */\n      swap1\n      pop\n        /* \"#utility.yul\":944:1015   */\n      tag_303\n        /* \"#utility.yul\":1012:1013   */\n      0x00\n        /* \"#utility.yul\":1001:1010   */\n      dup4\n        /* \"#utility.yul\":997:1014   */\n      add\n        /* \"#utility.yul\":988:994   */\n      dup5\n        /* \"#utility.yul\":944:1015   */\n      tag_242\n      jump\t// in\n    tag_303:\n        /* \"#utility.yul\":800:1022   */\n      swap3\n      swap2\n      pop\n      pop\n      jump\t// out\n        /* \"#utility.yul\":1109:1226   */\n    tag_244:\n        /* \"#utility.yul\":1218:1219   */\n      0x00\n        /* \"#utility.yul\":1215:1216   */\n      dup1\n        /* \"#utility.yul\":1208:1220   */\n      revert\n        /* \"#utility.yul\":1355:1477   */\n    tag_246:\n        /* \"#utility.yul\":1428:1452   */\n      tag_308\n        /* \"#utility.yul\":1446:1451   */\n      dup2\n        /* \"#utility.yul\":1428:1452   */\n      tag_238\n      jump\t// in\n    tag_308:\n        /* \"#utility.yul\":1421:1426   */\n      dup2\n        /* \"#utility.yul\":1418:1453   */\n      eq\n        /* \"#utility.yul\":1408:1471   */\n      tag_309\n      jumpi\n        /* \"#utility.yul\":1467:1468   */\n      0x00\n        /* \"#utility.yul\":1464:1465   */\n      dup1\n        /* \"#utility.yul\":1457:1469   */\n      revert\n        /* \"#utility.yul\":1408:1471   */\n    tag_309:\n        /* \"#utility.yul\":1355:1477   */\n      pop\n      jump\t// out\n        /* \"#utility.yul\":1483:1622   */\n    tag_247:\n        /* \"#utility.yul\":1529:1534   */\n      0x00\n        /* \"#utility.yul\":1567:1573   */\n      dup2\n        /* \"#utility.yul\":1554:1574   */\n      calldataload\n        /* \"#utility.yul\":1545:1574   */\n      swap1\n      pop\n        /* \"#utility.yul\":1583:1616   */\n      tag_311\n        /* \"#utility.yul\":1610:1615   */\n      dup2\n        /* \"#utility.yul\":1583:1616   */\n      tag_246\n      jump\t// in\n    tag_311:\n        /* \"#utility.yul\":1483:1622   */\n      swap3\n      swap2\n      pop\n      pop\n      jump\t// out\n        /* \"#utility.yul\":1628:1750   */\n    tag_248:\n        /* \"#utility.yul\":1701:1725   */\n      tag_313\n        /* \"#utility.yul\":1719:1724   */\n      dup2\n        /* \"#utility.yul\":1701:1725   */\n      tag_240\n      jump\t// in\n    tag_313:\n        /* \"#utility.yul\":1694:1699   */\n      dup2\n        /* \"#utility.yul\":1691:1726   */\n      eq\n        /* \"#utility.yul\":1681:1744   */\n      tag_314\n      jumpi\n        /* \"#utility.yul\":1740:1741   */\n      0x00\n        /* \"#utility.yul\":1737:1738   */\n      dup1\n        /* \"#utility.yul\":1730:1742   */\n      revert\n        /* \"#utility.yul\":1681:1744   */\n    tag_314:\n        /* \"#utility.yul\":1628:1750   */\n      pop\n      jump\t// out\n        /* \"#utility.yul\":1756:1895   */\n    tag_249:\n        /* \"#utility.yul\":1802:1807   */\n      0x00\n        /* \"#utility.yul\":1840:1846   */\n      dup2\n        /* \"#utility.yul\":1827:1847   */\n      calldataload\n        /* \"#utility.yul\":1818:1847   */\n      swap1\n      pop\n        /* \"#utility.yul\":1856:1889   */\n      tag_316\n        /* \"#utility.yul\":1883:1888   */\n      dup2\n        /* \"#utility.yul\":1856:1889   */\n      tag_248\n      jump\t// in\n    tag_316:\n        /* \"#utility.yul\":1756:1895   */\n      swap3\n      swap2\n      pop\n      pop\n      jump\t// out\n        /* \"#utility.yul\":1901:2375   */\n    tag_42:\n        /* \"#utility.yul\":1969:1975   */\n      0x00\n        /* \"#utility.yul\":1977:1983   */\n      dup1\n        /* \"#utility.yul\":2026:2028   */\n      0x40\n        /* \"#utility.yul\":2014:2023   */\n      dup4\n        /* \"#utility.yul\":2005:2012   */\n      dup6\n        /* \"#utility.yul\":2001:2024   */\n      sub\n        /* \"#utility.yul\":1997:2029   */\n      slt\n        /* \"#utility.yul\":1994:2113   */\n      iszero\n      tag_318\n      jumpi\n        /* \"#utility.yul\":2032:2111   */\n      tag_319\n      tag_244\n      jump\t// in\n    tag_319:\n        /* \"#utility.yul\":1994:2113   */\n    tag_318:\n        /* \"#utility.yul\":2152:2153   */\n      0x00\n        /* \"#utility.yul\":2177:2230   */\n      tag_320\n        /* \"#utility.yul\":2222:2229   */\n      dup6\n        /* \"#utility.yul\":2213:2219   */\n      dup3\n        /* \"#utility.yul\":2202:2211   */\n      dup7\n        /* \"#utility.yul\":2198:2220   */\n      add\n        /* \"#utility.yul\":2177:2230   */\n      tag_247\n      jump\t// in\n    tag_320:\n        /* \"#utility.yul\":2167:2230   */\n      swap3\n      pop\n        /* \"#utility.yul\":2123:2240   */\n      pop\n        /* \"#utility.yul\":2279:2281   */\n      0x20\n        /* \"#utility.yul\":2305:2358   */\n      tag_321\n        /* \"#utility.yul\":2350:2357   */\n      dup6\n        /* \"#utility.yul\":2341:2347   */\n      dup3\n        /* \"#utility.yul\":2330:2339   */\n      dup7\n        /* \"#utility.yul\":2326:2348   */\n      add\n        /* \"#utility.yul\":2305:2358   */\n      tag_249\n      jump\t// in\n    tag_321:\n        /* \"#utility.yul\":2295:2358   */\n      swap2\n      pop\n        /* \"#utility.yul\":2250:2368   */\n      pop\n        /* \"#utility.yul\":1901:2375   */\n      swap3\n      pop\n      swap3\n      swap1\n      pop\n      jump\t// out\n        /* \"#utility.yul\":2381:2710   */\n    tag_66:\n        /* \"#utility.yul\":2440:2446   */\n      0x00\n        /* \"#utility.yul\":2489:2491   */\n      0x20\n        /* \"#utility.yul\":2477:2486   */\n      dup3\n        /* \"#utility.yul\":2468:2475   */\n      dup5\n        /* \"#utility.yul\":2464:2487   */\n      sub\n        /* \"#utility.yul\":2460:2492   */\n      slt\n        /* \"#utility.yul\":2457:2576   */\n      iszero\n      tag_323\n      jumpi\n        /* \"#utility.yul\":2495:2574   */\n      tag_324\n      tag_244\n      jump\t// in\n    tag_324:\n        /* \"#utility.yul\":2457:2576   */\n    tag_323:\n        /* \"#utility.yul\":2615:2616   */\n      0x00\n        /* \"#utility.yul\":2640:2693   */\n      tag_325\n        /* \"#utility.yul\":2685:2692   */\n      dup5\n        /* \"#utility.yul\":2676:2682   */\n      dup3\n        /* \"#utility.yul\":2665:2674   */\n      dup6\n        /* \"#utility.yul\":2661:2683   */\n      add\n        /* \"#utility.yul\":2640:2693   */\n      tag_247\n      jump\t// in\n    tag_325:\n        /* \"#utility.yul\":2630:2693   */\n      swap2\n      pop\n        /* \"#utility.yul\":2586:2703   */\n      pop\n        /* \"#utility.yul\":2381:2710   */\n      swap3\n      swap2\n      pop\n      pop\n      jump\t// out\n        /* \"#utility.yul\":2716:2838   */\n    tag_250:\n        /* \"#utility.yul\":2789:2813   */\n      tag_327\n        /* \"#utility.yul\":2807:2812   */\n      dup2\n        /* \"#utility.yul\":2789:2813   */\n      tag_241\n      jump\t// in\n    tag_327:\n        /* \"#utility.yul\":2782:2787   */\n      dup2\n        /* \"#utility.yul\":2779:2814   */\n      eq\n        /* \"#utility.yul\":2769:2832   */\n      tag_328\n      jumpi\n        /* \"#utility.yul\":2828:2829   */\n      0x00\n        /* \"#utility.yul\":2825:2826   */\n      dup1\n        /* \"#utility.yul\":2818:2830   */\n      revert\n        /* \"#utility.yul\":2769:2832   */\n    tag_328:\n        /* \"#utility.yul\":2716:2838   */\n      pop\n      jump\t// out\n        /* \"#utility.yul\":2844:2983   */\n    tag_251:\n        /* \"#utility.yul\":2890:2895   */\n      0x00\n        /* \"#utility.yul\":2928:2934   */\n      dup2\n        /* \"#utility.yul\":2915:2935   */\n      calldataload\n        /* \"#utility.yul\":2906:2935   */\n      swap1\n      pop\n        /* \"#utility.yul\":2944:2977   */\n      tag_330\n        /* \"#utility.yul\":2971:2976   */\n      dup2\n        /* \"#utility.yul\":2944:2977   */\n      tag_250\n      jump\t// in\n    tag_330:\n        /* \"#utility.yul\":2844:2983   */\n      swap3\n      swap2\n      pop\n      pop\n      jump\t// out\n        /* \"#utility.yul\":2989:3318   */\n    tag_72:\n        /* \"#utility.yul\":3048:3054   */\n      0x00\n        /* \"#utility.yul\":3097:3099   */\n      0x20\n        /* \"#utility.yul\":3085:3094   */\n      dup3\n        /* \"#utility.yul\":3076:3083   */\n      dup5\n        /* \"#utility.yul\":3072:3095   */\n      sub\n        /* \"#utility.yul\":3068:3100   */\n      slt\n        /* \"#utility.yul\":3065:3184   */\n      iszero\n      tag_332\n      jumpi\n        /* \"#utility.yul\":3103:3182   */\n      tag_333\n      tag_244\n      jump\t// in\n    tag_333:\n        /* \"#utility.yul\":3065:3184   */\n    tag_332:\n        /* \"#utility.yul\":3223:3224   */\n      0x00\n        /* \"#utility.yul\":3248:3301   */\n      tag_334\n        /* \"#utility.yul\":3293:3300   */\n      dup5\n        /* \"#utility.yul\":3284:3290   */\n      dup3\n        /* \"#utility.yul\":3273:3282   */\n      dup6\n        /* \"#utility.yul\":3269:3291   */\n      add\n        /* \"#utility.yul\":3248:3301   */\n      tag_251\n      jump\t// in\n    tag_334:\n        /* \"#utility.yul\":3238:3301   */\n      swap2\n      pop\n        /* \"#utility.yul\":3194:3311   */\n      pop\n        /* \"#utility.yul\":2989:3318   */\n      swap3\n      swap2\n      pop\n      pop\n      jump\t// out\n        /* \"#utility.yul\":3324:3493   */\n    tag_252:\n        /* \"#utility.yul\":3408:3419   */\n      0x00\n        /* \"#utility.yul\":3442:3448   */\n      dup3\n        /* \"#utility.yul\":3437:3440   */\n      dup3\n        /* \"#utility.yul\":3430:3449   */\n      mstore\n        /* \"#utility.yul\":3482:3486   */\n      0x20\n        /* \"#utility.yul\":3477:3480   */\n      dup3\n        /* \"#utility.yul\":3473:3487   */\n      add\n        /* \"#utility.yul\":3458:3487   */\n      swap1\n      pop\n        /* \"#utility.yul\":3324:3493   */\n      swap3\n      swap2\n      pop\n      pop\n      jump\t// out\n        /* \"#utility.yul\":3499:3680   */\n    tag_253:\n        /* \"#utility.yul\":3639:3672   */\n      0x4172626974726167653a20696e73756666696369656e742062616c616e636500\n        /* \"#utility.yul\":3635:3636   */\n      0x00\n        /* \"#utility.yul\":3627:3633   */\n      dup3\n        /* \"#utility.yul\":3623:3637   */\n      add\n        /* \"#utility.yul\":3616:3673   */\n      mstore\n        /* \"#utility.yul\":3499:3680   */\n      pop\n      jump\t// out\n        /* \"#utility.yul\":3686:4052   */\n    tag_254:\n        /* \"#utility.yul\":3828:3831   */\n      0x00\n        /* \"#utility.yul\":3849:3916   */\n      tag_338\n        /* \"#utility.yul\":3913:3915   */\n      0x1f\n        /* \"#utility.yul\":3908:3911   */\n      dup4\n        /* \"#utility.yul\":3849:3916   */\n      tag_252\n      jump\t// in\n    tag_338:\n        /* \"#utility.yul\":3842:3916   */\n      swap2\n      pop\n        /* \"#utility.yul\":3925:4018   */\n      tag_339\n        /* \"#utility.yul\":4014:4017   */\n      dup3\n        /* \"#utility.yul\":3925:4018   */\n      tag_253\n      jump\t// in\n    tag_339:\n        /* \"#utility.yul\":4043:4045   */\n      0x20\n        /* \"#utility.yul\":4038:4041   */\n      dup3\n        /* \"#utility.yul\":4034:4046   */\n      add\n        /* \"#utility.yul\":4027:4046   */\n      swap1\n      pop\n        /* \"#utility.yul\":3686:4052   */\n      swap2\n      swap1\n      pop\n      jump\t// out\n        /* \"#utility.yul\":4058:4477   */\n    tag_94:\n        /* \"#utility.yul\":4224:4228   */\n      0x00\n        /* \"#utility.yul\":4262:4264   */\n      0x20\n        /* \"#utility.yul\":4251:4260   */\n      dup3\n        /* \"#utility.yul\":4247:4265   */\n      add\n        /* \"#utility.yul\":4239:4265   */\n      swap1\n      pop\n        /* \"#utility.yul\":4311:4320   */\n      dup2\n        /* \"#utility.yul\":4305:4309   */\n      dup2\n        /* \"#utility.yul\":4301:4321   */\n      sub\n        /* \"#utility.yul\":4297:4298   */\n      0x00\n        /* \"#utility.yul\":4286:4295   */\n      dup4\n        /* \"#utility.yul\":4282:4299   */\n      add\n        /* \"#utility.yul\":4275:4322   */\n      mstore\n        /* \"#utility.yul\":4339:4470   */\n      tag_341\n        /* \"#utility.yul\":4465:4469   */\n      dup2\n        /* \"#utility.yul\":4339:4470   */\n      tag_254\n      jump\t// in\n    tag_341:\n        /* \"#utility.yul\":4331:4470   */\n      swap1\n      pop\n        /* \"#utility.yul\":4058:4477   */\n      swap2\n      swap1\n      pop\n      jump\t// out\n        /* \"#utility.yul\":4483:4662   */\n    tag_255:\n        /* \"#utility.yul\":4623:4654   */\n      0x496e76616c6964206d696e696d756d206f757470757420616d6f756e74000000\n        /* \"#utility.yul\":4619:4620   */\n      0x00\n        /* \"#utility.yul\":4611:4617   */\n      dup3\n        /* \"#utility.yul\":4607:4621   */\n      add\n        /* \"#utility.yul\":4600:4655   */\n      mstore\n        /* \"#utility.yul\":4483:4662   */\n      pop\n      jump\t// out\n        /* \"#utility.yul\":4668:5034   */\n    tag_256:\n        /* \"#utility.yul\":4810:4813   */\n      0x00\n        /* \"#utility.yul\":4831:4898   */\n      tag_344\n        /* \"#utility.yul\":4895:4897   */\n      0x1d\n        /* \"#utility.yul\":4890:4893   */\n      dup4\n        /* \"#utility.yul\":4831:4898   */\n      tag_252\n      jump\t// in\n    tag_344:\n        /* \"#utility.yul\":4824:4898   */\n      swap2\n      pop\n        /* \"#utility.yul\":4907:5000   */\n      tag_345\n        /* \"#utility.yul\":4996:4999   */\n      dup3\n        /* \"#utility.yul\":4907:5000   */\n      tag_255\n      jump\t// in\n    tag_345:\n        /* \"#utility.yul\":5025:5027   */\n      0x20\n        /* \"#utility.yul\":5020:5023   */\n      dup3\n        /* \"#utility.yul\":5016:5028   */\n      add\n        /* \"#utility.yul\":5009:5028   */\n      swap1\n      pop\n        /* \"#utility.yul\":4668:5034   */\n      swap2\n      swap1\n      pop\n      jump\t// out\n        /* \"#utility.yul\":5040:5459   */\n    tag_107:\n        /* \"#utility.yul\":5206:5210   */\n      0x00\n        /* \"#utility.yul\":5244:5246   */\n      0x20\n        /* \"#utility.yul\":5233:5242   */\n      dup3\n        /* \"#utility.yul\":5229:5247   */\n      add\n        /* \"#utility.yul\":5221:5247   */\n      swap1\n      pop\n        /* \"#utility.yul\":5293:5302   */\n      dup2\n        /* \"#utility.yul\":5287:5291   */\n      dup2\n        /* \"#utility.yul\":5283:5303   */\n      sub\n        /* \"#utility.yul\":5279:5280   */\n      0x00\n        /* \"#utility.yul\":5268:5277   */\n      dup4\n        /* \"#utility.yul\":5264:5281   */\n      add\n        /* \"#utility.yul\":5257:5304   */\n      mstore\n        /* \"#utility.yul\":5321:5452   */\n      tag_347\n        /* \"#utility.yul\":5447:5451   */\n      dup2\n        /* \"#utility.yul\":5321:5452   */\n      tag_256\n      jump\t// in\n    tag_347:\n        /* \"#utility.yul\":5313:5452   */\n      swap1\n      pop\n        /* \"#utility.yul\":5040:5459   */\n      swap2\n      swap1\n      pop\n      jump\t// out\n        /* \"#utility.yul\":5465:5556   */\n    tag_257:\n        /* \"#utility.yul\":5501:5508   */\n      0x00\n        /* \"#utility.yul\":5541:5549   */\n      0xffffff\n        /* \"#utility.yul\":5534:5539   */\n      dup3\n        /* \"#utility.yul\":5530:5550   */\n      and\n        /* \"#utility.yul\":5519:5550   */\n      swap1\n      pop\n        /* \"#utility.yul\":5465:5556   */\n      swap2\n      swap1\n      pop\n      jump\t// out\n        /* \"#utility.yul\":5562:5682   */\n    tag_258:\n        /* \"#utility.yul\":5634:5657   */\n      tag_350\n        /* \"#utility.yul\":5651:5656   */\n      dup2\n        /* \"#utility.yul\":5634:5657   */\n      tag_257\n      jump\t// in\n    tag_350:\n        /* \"#utility.yul\":5627:5632   */\n      dup2\n        /* \"#utility.yul\":5624:5658   */\n      eq\n        /* \"#utility.yul\":5614:5676   */\n      tag_351\n      jumpi\n        /* \"#utility.yul\":5672:5673   */\n      0x00\n        /* \"#utility.yul\":5669:5670   */\n      dup1\n        /* \"#utility.yul\":5662:5674   */\n      revert\n        /* \"#utility.yul\":5614:5676   */\n    tag_351:\n        /* \"#utility.yul\":5562:5682   */\n      pop\n      jump\t// out\n        /* \"#utility.yul\":5688:5829   */\n    tag_259:\n        /* \"#utility.yul\":5744:5749   */\n      0x00\n        /* \"#utility.yul\":5775:5781   */\n      dup2\n        /* \"#utility.yul\":5769:5782   */\n      mload\n        /* \"#utility.yul\":5760:5782   */\n      swap1\n      pop\n        /* \"#utility.yul\":5791:5823   */\n      tag_353\n        /* \"#utility.yul\":5817:5822   */\n      dup2\n        /* \"#utility.yul\":5791:5823   */\n      tag_258\n      jump\t// in\n    tag_353:\n        /* \"#utility.yul\":5688:5829   */\n      swap3\n      swap2\n      pop\n      pop\n      jump\t// out\n        /* \"#utility.yul\":5835:6184   */\n    tag_113:\n        /* \"#utility.yul\":5904:5910   */\n      0x00\n        /* \"#utility.yul\":5953:5955   */\n      0x20\n        /* \"#utility.yul\":5941:5950   */\n      dup3\n        /* \"#utility.yul\":5932:5939   */\n      dup5\n        /* \"#utility.yul\":5928:5951   */\n      sub\n        /* \"#utility.yul\":5924:5956   */\n      slt\n        /* \"#utility.yul\":5921:6040   */\n      iszero\n      tag_355\n      jumpi\n        /* \"#utility.yul\":5959:6038   */\n      tag_356\n      tag_244\n      jump\t// in\n    tag_356:\n        /* \"#utility.yul\":5921:6040   */\n    tag_355:\n        /* \"#utility.yul\":6079:6080   */\n      0x00\n        /* \"#utility.yul\":6104:6167   */\n      tag_357\n        /* \"#utility.yul\":6159:6166   */\n      dup5\n        /* \"#utility.yul\":6150:6156   */\n      dup3\n        /* \"#utility.yul\":6139:6148   */\n      dup6\n        /* \"#utility.yul\":6135:6157   */\n      add\n        /* \"#utility.yul\":6104:6167   */\n      tag_259\n      jump\t// in\n    tag_357:\n        /* \"#utility.yul\":6094:6167   */\n      swap2\n      pop\n        /* \"#utility.yul\":6050:6177   */\n      pop\n        /* \"#utility.yul\":5835:6184   */\n      swap3\n      swap2\n      pop\n      pop\n      jump\t// out\n        /* \"#utility.yul\":6190:6298   */\n    tag_260:\n        /* \"#utility.yul\":6267:6291   */\n      tag_359\n        /* \"#utility.yul\":6285:6290   */\n      dup2\n        /* \"#utility.yul\":6267:6291   */\n      tag_241\n      jump\t// in\n    tag_359:\n        /* \"#utility.yul\":6262:6265   */\n      dup3\n        /* \"#utility.yul\":6255:6292   */\n      mstore\n        /* \"#utility.yul\":6190:6298   */\n      pop\n      pop\n      jump\t// out\n        /* \"#utility.yul\":6304:6409   */\n    tag_261:\n        /* \"#utility.yul\":6379:6402   */\n      tag_361\n        /* \"#utility.yul\":6396:6401   */\n      dup2\n        /* \"#utility.yul\":6379:6402   */\n      tag_257\n      jump\t// in\n    tag_361:\n        /* \"#utility.yul\":6374:6377   */\n      dup3\n        /* \"#utility.yul\":6367:6403   */\n      mstore\n        /* \"#utility.yul\":6304:6409   */\n      pop\n      pop\n      jump\t// out\n        /* \"#utility.yul\":6415:6523   */\n    tag_262:\n        /* \"#utility.yul\":6492:6516   */\n      tag_363\n        /* \"#utility.yul\":6510:6515   */\n      dup2\n        /* \"#utility.yul\":6492:6516   */\n      tag_238\n      jump\t// in\n    tag_363:\n        /* \"#utility.yul\":6487:6490   */\n      dup3\n        /* \"#utility.yul\":6480:6517   */\n      mstore\n        /* \"#utility.yul\":6415:6523   */\n      pop\n      pop\n      jump\t// out\n        /* \"#utility.yul\":6529:6637   */\n    tag_263:\n        /* \"#utility.yul\":6606:6630   */\n      tag_365\n        /* \"#utility.yul\":6624:6629   */\n      dup2\n        /* \"#utility.yul\":6606:6630   */\n      tag_240\n      jump\t// in\n    tag_365:\n        /* \"#utility.yul\":6601:6604   */\n      dup3\n        /* \"#utility.yul\":6594:6631   */\n      mstore\n        /* \"#utility.yul\":6529:6637   */\n      pop\n      pop\n      jump\t// out\n        /* \"#utility.yul\":6737:8360   */\n    tag_264:\n        /* \"#utility.yul\":6912:6918   */\n      0x0100\n        /* \"#utility.yul\":6907:6910   */\n      dup3\n        /* \"#utility.yul\":6903:6919   */\n      add\n        /* \"#utility.yul\":7004:7008   */\n      0x00\n        /* \"#utility.yul\":6997:7002   */\n      dup3\n        /* \"#utility.yul\":6993:7009   */\n      add\n        /* \"#utility.yul\":6987:7010   */\n      mload\n        /* \"#utility.yul\":7023:7086   */\n      tag_367\n        /* \"#utility.yul\":7080:7084   */\n      0x00\n        /* \"#utility.yul\":7075:7078   */\n      dup6\n        /* \"#utility.yul\":7071:7085   */\n      add\n        /* \"#utility.yul\":7057:7069   */\n      dup3\n        /* \"#utility.yul\":7023:7086   */\n      tag_260\n      jump\t// in\n    tag_367:\n        /* \"#utility.yul\":6929:7096   */\n      pop\n        /* \"#utility.yul\":7182:7186   */\n      0x20\n        /* \"#utility.yul\":7175:7180   */\n      dup3\n        /* \"#utility.yul\":7171:7187   */\n      add\n        /* \"#utility.yul\":7165:7188   */\n      mload\n        /* \"#utility.yul\":7201:7264   */\n      tag_368\n        /* \"#utility.yul\":7258:7262   */\n      0x20\n        /* \"#utility.yul\":7253:7256   */\n      dup6\n        /* \"#utility.yul\":7249:7263   */\n      add\n        /* \"#utility.yul\":7235:7247   */\n      dup3\n        /* \"#utility.yul\":7201:7264   */\n      tag_260\n      jump\t// in\n    tag_368:\n        /* \"#utility.yul\":7106:7274   */\n      pop\n        /* \"#utility.yul\":7355:7359   */\n      0x40\n        /* \"#utility.yul\":7348:7353   */\n      dup3\n        /* \"#utility.yul\":7344:7360   */\n      add\n        /* \"#utility.yul\":7338:7361   */\n      mload\n        /* \"#utility.yul\":7374:7435   */\n      tag_369\n        /* \"#utility.yul\":7429:7433   */\n      0x40\n        /* \"#utility.yul\":7424:7427   */\n      dup6\n        /* \"#utility.yul\":7420:7434   */\n      add\n        /* \"#utility.yul\":7406:7418   */\n      dup3\n        /* \"#utility.yul\":7374:7435   */\n      tag_261\n      jump\t// in\n    tag_369:\n        /* \"#utility.yul\":7284:7445   */\n      pop\n        /* \"#utility.yul\":7532:7536   */\n      0x60\n        /* \"#utility.yul\":7525:7530   */\n      dup3\n        /* \"#utility.yul\":7521:7537   */\n      add\n        /* \"#utility.yul\":7515:7538   */\n      mload\n        /* \"#utility.yul\":7551:7614   */\n      tag_370\n        /* \"#utility.yul\":7608:7612   */\n      0x60\n        /* \"#utility.yul\":7603:7606   */\n      dup6\n        /* \"#utility.yul\":7599:7613   */\n      add\n        /* \"#utility.yul\":7585:7597   */\n      dup3\n        /* \"#utility.yul\":7551:7614   */\n      tag_260\n      jump\t// in\n    tag_370:\n        /* \"#utility.yul\":7455:7624   */\n      pop\n        /* \"#utility.yul\":7710:7714   */\n      0x80\n        /* \"#utility.yul\":7703:7708   */\n      dup3\n        /* \"#utility.yul\":7699:7715   */\n      add\n        /* \"#utility.yul\":7693:7716   */\n      mload\n        /* \"#utility.yul\":7729:7792   */\n      tag_371\n        /* \"#utility.yul\":7786:7790   */\n      0x80\n        /* \"#utility.yul\":7781:7784   */\n      dup6\n        /* \"#utility.yul\":7777:7791   */\n      add\n        /* \"#utility.yul\":7763:7775   */\n      dup3\n        /* \"#utility.yul\":7729:7792   */\n      tag_262\n      jump\t// in\n    tag_371:\n        /* \"#utility.yul\":7634:7802   */\n      pop\n        /* \"#utility.yul\":7888:7892   */\n      0xa0\n        /* \"#utility.yul\":7881:7886   */\n      dup3\n        /* \"#utility.yul\":7877:7893   */\n      add\n        /* \"#utility.yul\":7871:7894   */\n      mload\n        /* \"#utility.yul\":7907:7970   */\n      tag_372\n        /* \"#utility.yul\":7964:7968   */\n      0xa0\n        /* \"#utility.yul\":7959:7962   */\n      dup6\n        /* \"#utility.yul\":7955:7969   */\n      add\n        /* \"#utility.yul\":7941:7953   */\n      dup3\n        /* \"#utility.yul\":7907:7970   */\n      tag_262\n      jump\t// in\n    tag_372:\n        /* \"#utility.yul\":7812:7980   */\n      pop\n        /* \"#utility.yul\":8074:8078   */\n      0xc0\n        /* \"#utility.yul\":8067:8072   */\n      dup3\n        /* \"#utility.yul\":8063:8079   */\n      add\n        /* \"#utility.yul\":8057:8080   */\n      mload\n        /* \"#utility.yul\":8093:8156   */\n      tag_373\n        /* \"#utility.yul\":8150:8154   */\n      0xc0\n        /* \"#utility.yul\":8145:8148   */\n      dup6\n        /* \"#utility.yul\":8141:8155   */\n      add\n        /* \"#utility.yul\":8127:8139   */\n      dup3\n        /* \"#utility.yul\":8093:8156   */\n      tag_262\n      jump\t// in\n    tag_373:\n        /* \"#utility.yul\":7990:8166   */\n      pop\n        /* \"#utility.yul\":8261:8265   */\n      0xe0\n        /* \"#utility.yul\":8254:8259   */\n      dup3\n        /* \"#utility.yul\":8250:8266   */\n      add\n        /* \"#utility.yul\":8244:8267   */\n      mload\n        /* \"#utility.yul\":8280:8343   */\n      tag_374\n        /* \"#utility.yul\":8337:8341   */\n      0xe0\n        /* \"#utility.yul\":8332:8335   */\n      dup6\n        /* \"#utility.yul\":8328:8342   */\n      add\n        /* \"#utility.yul\":8314:8326   */\n      dup3\n        /* \"#utility.yul\":8280:8343   */\n      tag_263\n      jump\t// in\n    tag_374:\n        /* \"#utility.yul\":8176:8353   */\n      pop\n        /* \"#utility.yul\":6881:8360   */\n      pop\n        /* \"#utility.yul\":6737:8360   */\n      pop\n      pop\n      jump\t// out\n        /* \"#utility.yul\":8366:8745   */\n    tag_115:\n        /* \"#utility.yul\":8537:8541   */\n      0x00\n        /* \"#utility.yul\":8575:8578   */\n      0x0100\n        /* \"#utility.yul\":8564:8573   */\n      dup3\n        /* \"#utility.yul\":8560:8579   */\n      add\n        /* \"#utility.yul\":8552:8579   */\n      swap1\n      pop\n        /* \"#utility.yul\":8589:8738   */\n      tag_376\n        /* \"#utility.yul\":8735:8736   */\n      0x00\n        /* \"#utility.yul\":8724:8733   */\n      dup4\n        /* \"#utility.yul\":8720:8737   */\n      add\n        /* \"#utility.yul\":8711:8717   */\n      dup5\n        /* \"#utility.yul\":8589:8738   */\n      tag_264\n      jump\t// in\n    tag_376:\n        /* \"#utility.yul\":8366:8745   */\n      swap3\n      swap2\n      pop\n      pop\n      jump\t// out\n        /* \"#utility.yul\":8751:8894   */\n    tag_265:\n        /* \"#utility.yul\":8808:8813   */\n      0x00\n        /* \"#utility.yul\":8839:8845   */\n      dup2\n        /* \"#utility.yul\":8833:8846   */\n      mload\n        /* \"#utility.yul\":8824:8846   */\n      swap1\n      pop\n        /* \"#utility.yul\":8855:8888   */\n      tag_378\n        /* \"#utility.yul\":8882:8887   */\n      dup2\n        /* \"#utility.yul\":8855:8888   */\n      tag_246\n      jump\t// in\n    tag_378:\n        /* \"#utility.yul\":8751:8894   */\n      swap3\n      swap2\n      pop\n      pop\n      jump\t// out\n        /* \"#utility.yul\":8900:9251   */\n    tag_119:\n        /* \"#utility.yul\":8970:8976   */\n      0x00\n        /* \"#utility.yul\":9019:9021   */\n      0x20\n        /* \"#utility.yul\":9007:9016   */\n      dup3\n        /* \"#utility.yul\":8998:9005   */\n      dup5\n        /* \"#utility.yul\":8994:9017   */\n      sub\n        /* \"#utility.yul\":8990:9022   */\n      slt\n        /* \"#utility.yul\":8987:9106   */\n      iszero\n      tag_380\n      jumpi\n        /* \"#utility.yul\":9025:9104   */\n      tag_381\n      tag_244\n      jump\t// in\n    tag_381:\n        /* \"#utility.yul\":8987:9106   */\n    tag_380:\n        /* \"#utility.yul\":9145:9146   */\n      0x00\n        /* \"#utility.yul\":9170:9234   */\n      tag_382\n        /* \"#utility.yul\":9226:9233   */\n      dup5\n        /* \"#utility.yul\":9217:9223   */\n      dup3\n        /* \"#utility.yul\":9206:9215   */\n      dup6\n        /* \"#utility.yul\":9202:9224   */\n      add\n        /* \"#utility.yul\":9170:9234   */\n      tag_265\n      jump\t// in\n    tag_382:\n        /* \"#utility.yul\":9160:9234   */\n      swap2\n      pop\n        /* \"#utility.yul\":9116:9244   */\n      pop\n        /* \"#utility.yul\":8900:9251   */\n      swap3\n      swap2\n      pop\n      pop\n      jump\t// out\n        /* \"#utility.yul\":9257:9438   */\n    tag_266:\n        /* \"#utility.yul\":9397:9430   */\n      0x4f776e61626c652f63616c6c65722d6e6f742d70656e64696e674f776e657200\n        /* \"#utility.yul\":9393:9394   */\n      0x00\n        /* \"#utility.yul\":9385:9391   */\n      dup3\n        /* \"#utility.yul\":9381:9395   */\n      add\n        /* \"#utility.yul\":9374:9431   */\n      mstore\n        /* \"#utility.yul\":9257:9438   */\n      pop\n      jump\t// out\n        /* \"#utility.yul\":9444:9810   */\n    tag_267:\n        /* \"#utility.yul\":9586:9589   */\n      0x00\n        /* \"#utility.yul\":9607:9674   */\n      tag_385\n        /* \"#utility.yul\":9671:9673   */\n      0x1f\n        /* \"#utility.yul\":9666:9669   */\n      dup4\n        /* \"#utility.yul\":9607:9674   */\n      tag_252\n      jump\t// in\n    tag_385:\n        /* \"#utility.yul\":9600:9674   */\n      swap2\n      pop\n        /* \"#utility.yul\":9683:9776   */\n      tag_386\n        /* \"#utility.yul\":9772:9775   */\n      dup3\n        /* \"#utility.yul\":9683:9776   */\n      tag_266\n      jump\t// in\n    tag_386:\n        /* \"#utility.yul\":9801:9803   */\n      0x20\n        /* \"#utility.yul\":9796:9799   */\n      dup3\n        /* \"#utility.yul\":9792:9804   */\n      add\n        /* \"#utility.yul\":9785:9804   */\n      swap1\n      pop\n        /* \"#utility.yul\":9444:9810   */\n      swap2\n      swap1\n      pop\n      jump\t// out\n        /* \"#utility.yul\":9816:10235   */\n    tag_124:\n        /* \"#utility.yul\":9982:9986   */\n      0x00\n        /* \"#utility.yul\":10020:10022   */\n      0x20\n        /* \"#utility.yul\":10009:10018   */\n      dup3\n        /* \"#utility.yul\":10005:10023   */\n      add\n        /* \"#utility.yul\":9997:10023   */\n      swap1\n      pop\n        /* \"#utility.yul\":10069:10078   */\n      dup2\n        /* \"#utility.yul\":10063:10067   */\n      dup2\n        /* \"#utility.yul\":10059:10079   */\n      sub\n        /* \"#utility.yul\":10055:10056   */\n      0x00\n        /* \"#utility.yul\":10044:10053   */\n      dup4\n        /* \"#utility.yul\":10040:10057   */\n      add\n        /* \"#utility.yul\":10033:10080   */\n      mstore\n        /* \"#utility.yul\":10097:10228   */\n      tag_388\n        /* \"#utility.yul\":10223:10227   */\n      dup2\n        /* \"#utility.yul\":10097:10228   */\n      tag_267\n      jump\t// in\n    tag_388:\n        /* \"#utility.yul\":10089:10228   */\n      swap1\n      pop\n        /* \"#utility.yul\":9816:10235   */\n      swap2\n      swap1\n      pop\n      jump\t// out\n        /* \"#utility.yul\":10241:10415   */\n    tag_268:\n        /* \"#utility.yul\":10381:10407   */\n      0x4f776e61626c652f63616c6c65722d6e6f742d6f776e65720000000000000000\n        /* \"#utility.yul\":10377:10378   */\n      0x00\n        /* \"#utility.yul\":10369:10375   */\n      dup3\n        /* \"#utility.yul\":10365:10379   */\n      add\n        /* \"#utility.yul\":10358:10408   */\n      mstore\n        /* \"#utility.yul\":10241:10415   */\n      pop\n      jump\t// out\n        /* \"#utility.yul\":10421:10787   */\n    tag_269:\n        /* \"#utility.yul\":10563:10566   */\n      0x00\n        /* \"#utility.yul\":10584:10651   */\n      tag_391\n        /* \"#utility.yul\":10648:10650   */\n      0x18\n        /* \"#utility.yul\":10643:10646   */\n      dup4\n        /* \"#utility.yul\":10584:10651   */\n      tag_252\n      jump\t// in\n    tag_391:\n        /* \"#utility.yul\":10577:10651   */\n      swap2\n      pop\n        /* \"#utility.yul\":10660:10753   */\n      tag_392\n        /* \"#utility.yul\":10749:10752   */\n      dup3\n        /* \"#utility.yul\":10660:10753   */\n      tag_268\n      jump\t// in\n    tag_392:\n        /* \"#utility.yul\":10778:10780   */\n      0x20\n        /* \"#utility.yul\":10773:10776   */\n      dup3\n        /* \"#utility.yul\":10769:10781   */\n      add\n        /* \"#utility.yul\":10762:10781   */\n      swap1\n      pop\n        /* \"#utility.yul\":10421:10787   */\n      swap2\n      swap1\n      pop\n      jump\t// out\n        /* \"#utility.yul\":10793:11212   */\n    tag_132:\n        /* \"#utility.yul\":10959:10963   */\n      0x00\n        /* \"#utility.yul\":10997:10999   */\n      0x20\n        /* \"#utility.yul\":10986:10995   */\n      dup3\n        /* \"#utility.yul\":10982:11000   */\n      add\n        /* \"#utility.yul\":10974:11000   */\n      swap1\n      pop\n        /* \"#utility.yul\":11046:11055   */\n      dup2\n        /* \"#utility.yul\":11040:11044   */\n      dup2\n        /* \"#utility.yul\":11036:11056   */\n      sub\n        /* \"#utility.yul\":11032:11033   */\n      0x00\n        /* \"#utility.yul\":11021:11030   */\n      dup4\n        /* \"#utility.yul\":11017:11034   */\n      add\n        /* \"#utility.yul\":11010:11057   */\n      mstore\n        /* \"#utility.yul\":11074:11205   */\n      tag_394\n        /* \"#utility.yul\":11200:11204   */\n      dup2\n        /* \"#utility.yul\":11074:11205   */\n      tag_269\n      jump\t// in\n    tag_394:\n        /* \"#utility.yul\":11066:11205   */\n      swap1\n      pop\n        /* \"#utility.yul\":10793:11212   */\n      swap2\n      swap1\n      pop\n      jump\t// out\n        /* \"#utility.yul\":11218:11398   */\n    tag_270:\n        /* \"#utility.yul\":11266:11343   */\n      0x4e487b7100000000000000000000000000000000000000000000000000000000\n        /* \"#utility.yul\":11263:11264   */\n      0x00\n        /* \"#utility.yul\":11256:11344   */\n      mstore\n        /* \"#utility.yul\":11363:11367   */\n      0x11\n        /* \"#utility.yul\":11360:11361   */\n      0x04\n        /* \"#utility.yul\":11353:11368   */\n      mstore\n        /* \"#utility.yul\":11387:11391   */\n      0x24\n        /* \"#utility.yul\":11384:11385   */\n      0x00\n        /* \"#utility.yul\":11377:11392   */\n      revert\n        /* \"#utility.yul\":11404:11595   */\n    tag_154:\n        /* \"#utility.yul\":11444:11447   */\n      0x00\n        /* \"#utility.yul\":11463:11483   */\n      tag_397\n        /* \"#utility.yul\":11481:11482   */\n      dup3\n        /* \"#utility.yul\":11463:11483   */\n      tag_238\n      jump\t// in\n    tag_397:\n        /* \"#utility.yul\":11458:11483   */\n      swap2\n      pop\n        /* \"#utility.yul\":11497:11517   */\n      tag_398\n        /* \"#utility.yul\":11515:11516   */\n      dup4\n        /* \"#utility.yul\":11497:11517   */\n      tag_238\n      jump\t// in\n    tag_398:\n        /* \"#utility.yul\":11492:11517   */\n      swap3\n      pop\n        /* \"#utility.yul\":11540:11541   */\n      dup3\n        /* \"#utility.yul\":11537:11538   */\n      dup3\n        /* \"#utility.yul\":11533:11542   */\n      add\n        /* \"#utility.yul\":11526:11542   */\n      swap1\n      pop\n        /* \"#utility.yul\":11561:11564   */\n      dup1\n        /* \"#utility.yul\":11558:11559   */\n      dup3\n        /* \"#utility.yul\":11555:11565   */\n      gt\n        /* \"#utility.yul\":11552:11588   */\n      iszero\n      tag_399\n      jumpi\n        /* \"#utility.yul\":11568:11586   */\n      tag_400\n      tag_270\n      jump\t// in\n    tag_400:\n        /* \"#utility.yul\":11552:11588   */\n    tag_399:\n        /* \"#utility.yul\":11404:11595   */\n      swap3\n      swap2\n      pop\n      pop\n      jump\t// out\n        /* \"#utility.yul\":11601:11933   */\n    tag_158:\n        /* \"#utility.yul\":11722:11726   */\n      0x00\n        /* \"#utility.yul\":11760:11762   */\n      0x40\n        /* \"#utility.yul\":11749:11758   */\n      dup3\n        /* \"#utility.yul\":11745:11763   */\n      add\n        /* \"#utility.yul\":11737:11763   */\n      swap1\n      pop\n        /* \"#utility.yul\":11773:11844   */\n      tag_402\n        /* \"#utility.yul\":11841:11842   */\n      0x00\n        /* \"#utility.yul\":11830:11839   */\n      dup4\n        /* \"#utility.yul\":11826:11843   */\n      add\n        /* \"#utility.yul\":11817:11823   */\n      dup6\n        /* \"#utility.yul\":11773:11844   */\n      tag_242\n      jump\t// in\n    tag_402:\n        /* \"#utility.yul\":11854:11926   */\n      tag_403\n        /* \"#utility.yul\":11922:11924   */\n      0x20\n        /* \"#utility.yul\":11911:11920   */\n      dup4\n        /* \"#utility.yul\":11907:11925   */\n      add\n        /* \"#utility.yul\":11898:11904   */\n      dup5\n        /* \"#utility.yul\":11854:11926   */\n      tag_239\n      jump\t// in\n    tag_403:\n        /* \"#utility.yul\":11601:11933   */\n      swap4\n      swap3\n      pop\n      pop\n      pop\n      jump\t// out\n        /* \"#utility.yul\":11939:12029   */\n    tag_271:\n        /* \"#utility.yul\":11973:11980   */\n      0x00\n        /* \"#utility.yul\":12016:12021   */\n      dup2\n        /* \"#utility.yul\":12009:12022   */\n      iszero\n        /* \"#utility.yul\":12002:12023   */\n      iszero\n        /* \"#utility.yul\":11991:12023   */\n      swap1\n      pop\n        /* \"#utility.yul\":11939:12029   */\n      swap2\n      swap1\n      pop\n      jump\t// out\n        /* \"#utility.yul\":12035:12151   */\n    tag_272:\n        /* \"#utility.yul\":12105:12126   */\n      tag_406\n        /* \"#utility.yul\":12120:12125   */\n      dup2\n        /* \"#utility.yul\":12105:12126   */\n      tag_271\n      jump\t// in\n    tag_406:\n        /* \"#utility.yul\":12098:12103   */\n      dup2\n        /* \"#utility.yul\":12095:12127   */\n      eq\n        /* \"#utility.yul\":12085:12145   */\n      tag_407\n      jumpi\n        /* \"#utility.yul\":12141:12142   */\n      0x00\n        /* \"#utility.yul\":12138:12139   */\n      dup1\n        /* \"#utility.yul\":12131:12143   */\n      revert\n        /* \"#utility.yul\":12085:12145   */\n    tag_407:\n        /* \"#utility.yul\":12035:12151   */\n      pop\n      jump\t// out\n        /* \"#utility.yul\":12157:12294   */\n    tag_273:\n        /* \"#utility.yul\":12211:12216   */\n      0x00\n        /* \"#utility.yul\":12242:12248   */\n      dup2\n        /* \"#utility.yul\":12236:12249   */\n      mload\n        /* \"#utility.yul\":12227:12249   */\n      swap1\n      pop\n        /* \"#utility.yul\":12258:12288   */\n      tag_409\n        /* \"#utility.yul\":12282:12287   */\n      dup2\n        /* \"#utility.yul\":12258:12288   */\n      tag_272\n      jump\t// in\n    tag_409:\n        /* \"#utility.yul\":12157:12294   */\n      swap3\n      swap2\n      pop\n      pop\n      jump\t// out\n        /* \"#utility.yul\":12300:12645   */\n    tag_162:\n        /* \"#utility.yul\":12367:12373   */\n      0x00\n        /* \"#utility.yul\":12416:12418   */\n      0x20\n        /* \"#utility.yul\":12404:12413   */\n      dup3\n        /* \"#utility.yul\":12395:12402   */\n      dup5\n        /* \"#utility.yul\":12391:12414   */\n      sub\n        /* \"#utility.yul\":12387:12419   */\n      slt\n        /* \"#utility.yul\":12384:12503   */\n      iszero\n      tag_411\n      jumpi\n        /* \"#utility.yul\":12422:12501   */\n      tag_412\n      tag_244\n      jump\t// in\n    tag_412:\n        /* \"#utility.yul\":12384:12503   */\n    tag_411:\n        /* \"#utility.yul\":12542:12543   */\n      0x00\n        /* \"#utility.yul\":12567:12628   */\n      tag_413\n        /* \"#utility.yul\":12620:12627   */\n      dup5\n        /* \"#utility.yul\":12611:12617   */\n      dup3\n        /* \"#utility.yul\":12600:12609   */\n      dup6\n        /* \"#utility.yul\":12596:12618   */\n      add\n        /* \"#utility.yul\":12567:12628   */\n      tag_273\n      jump\t// in\n    tag_413:\n        /* \"#utility.yul\":12557:12628   */\n      swap2\n      pop\n        /* \"#utility.yul\":12513:12638   */\n      pop\n        /* \"#utility.yul\":12300:12645   */\n      swap3\n      swap2\n      pop\n      pop\n      jump\t// out\n        /* \"#utility.yul\":12651:12875   */\n    tag_274:\n        /* \"#utility.yul\":12791:12825   */\n      0x4f776e61626c652f70656e64696e674f776e65722d6e6f742d7a65726f2d6164\n        /* \"#utility.yul\":12787:12788   */\n      0x00\n        /* \"#utility.yul\":12779:12785   */\n      dup3\n        /* \"#utility.yul\":12775:12789   */\n      add\n        /* \"#utility.yul\":12768:12826   */\n      mstore\n        /* \"#utility.yul\":12860:12867   */\n      0x6472657373000000000000000000000000000000000000000000000000000000\n        /* \"#utility.yul\":12855:12857   */\n      0x20\n        /* \"#utility.yul\":12847:12853   */\n      dup3\n        /* \"#utility.yul\":12843:12858   */\n      add\n        /* \"#utility.yul\":12836:12868   */\n      mstore\n        /* \"#utility.yul\":12651:12875   */\n      pop\n      jump\t// out\n        /* \"#utility.yul\":12881:13247   */\n    tag_275:\n        /* \"#utility.yul\":13023:13026   */\n      0x00\n        /* \"#utility.yul\":13044:13111   */\n      tag_416\n        /* \"#utility.yul\":13108:13110   */\n      0x25\n        /* \"#utility.yul\":13103:13106   */\n      dup4\n        /* \"#utility.yul\":13044:13111   */\n      tag_252\n      jump\t// in\n    tag_416:\n        /* \"#utility.yul\":13037:13111   */\n      swap2\n      pop\n        /* \"#utility.yul\":13120:13213   */\n      tag_417\n        /* \"#utility.yul\":13209:13212   */\n      dup3\n        /* \"#utility.yul\":13120:13213   */\n      tag_274\n      jump\t// in\n    tag_417:\n        /* \"#utility.yul\":13238:13240   */\n      0x40\n        /* \"#utility.yul\":13233:13236   */\n      dup3\n        /* \"#utility.yul\":13229:13241   */\n      add\n        /* \"#utility.yul\":13222:13241   */\n      swap1\n      pop\n        /* \"#utility.yul\":12881:13247   */\n      swap2\n      swap1\n      pop\n      jump\t// out\n        /* \"#utility.yul\":13253:13672   */\n    tag_174:\n        /* \"#utility.yul\":13419:13423   */\n      0x00\n        /* \"#utility.yul\":13457:13459   */\n      0x20\n        /* \"#utility.yul\":13446:13455   */\n      dup3\n        /* \"#utility.yul\":13442:13460   */\n      add\n        /* \"#utility.yul\":13434:13460   */\n      swap1\n      pop\n        /* \"#utility.yul\":13506:13515   */\n      dup2\n        /* \"#utility.yul\":13500:13504   */\n      dup2\n        /* \"#utility.yul\":13496:13516   */\n      sub\n        /* \"#utility.yul\":13492:13493   */\n      0x00\n        /* \"#utility.yul\":13481:13490   */\n      dup4\n        /* \"#utility.yul\":13477:13494   */\n      add\n        /* \"#utility.yul\":13470:13517   */\n      mstore\n        /* \"#utility.yul\":13534:13665   */\n      tag_419\n        /* \"#utility.yul\":13660:13664   */\n      dup2\n        /* \"#utility.yul\":13534:13665   */\n      tag_275\n      jump\t// in\n    tag_419:\n        /* \"#utility.yul\":13526:13665   */\n      swap1\n      pop\n        /* \"#utility.yul\":13253:13672   */\n      swap2\n      swap1\n      pop\n      jump\t// out\n        /* \"#utility.yul\":13678:14088   */\n    tag_177:\n        /* \"#utility.yul\":13718:13725   */\n      0x00\n        /* \"#utility.yul\":13741:13761   */\n      tag_421\n        /* \"#utility.yul\":13759:13760   */\n      dup3\n        /* \"#utility.yul\":13741:13761   */\n      tag_238\n      jump\t// in\n    tag_421:\n        /* \"#utility.yul\":13736:13761   */\n      swap2\n      pop\n        /* \"#utility.yul\":13775:13795   */\n      tag_422\n        /* \"#utility.yul\":13793:13794   */\n      dup4\n        /* \"#utility.yul\":13775:13795   */\n      tag_238\n      jump\t// in\n    tag_422:\n        /* \"#utility.yul\":13770:13795   */\n      swap3\n      pop\n        /* \"#utility.yul\":13830:13831   */\n      dup3\n        /* \"#utility.yul\":13827:13828   */\n      dup3\n        /* \"#utility.yul\":13823:13832   */\n      mul\n        /* \"#utility.yul\":13852:13882   */\n      tag_423\n        /* \"#utility.yul\":13870:13881   */\n      dup2\n        /* \"#utility.yul\":13852:13882   */\n      tag_238\n      jump\t// in\n    tag_423:\n        /* \"#utility.yul\":13841:13882   */\n      swap2\n      pop\n        /* \"#utility.yul\":14031:14032   */\n      dup3\n        /* \"#utility.yul\":14022:14029   */\n      dup3\n        /* \"#utility.yul\":14018:14033   */\n      div\n        /* \"#utility.yul\":14015:14016   */\n      dup5\n        /* \"#utility.yul\":14012:14034   */\n      eq\n        /* \"#utility.yul\":13992:13993   */\n      dup4\n        /* \"#utility.yul\":13985:13994   */\n      iszero\n        /* \"#utility.yul\":13965:14048   */\n      or\n        /* \"#utility.yul\":13942:14081   */\n      tag_424\n      jumpi\n        /* \"#utility.yul\":14061:14079   */\n      tag_425\n      tag_270\n      jump\t// in\n    tag_425:\n        /* \"#utility.yul\":13942:14081   */\n    tag_424:\n        /* \"#utility.yul\":13726:14088   */\n      pop\n        /* \"#utility.yul\":13678:14088   */\n      swap3\n      swap2\n      pop\n      pop\n      jump\t// out\n        /* \"#utility.yul\":14094:14274   */\n    tag_276:\n        /* \"#utility.yul\":14142:14219   */\n      0x4e487b7100000000000000000000000000000000000000000000000000000000\n        /* \"#utility.yul\":14139:14140   */\n      0x00\n        /* \"#utility.yul\":14132:14220   */\n      mstore\n        /* \"#utility.yul\":14239:14243   */\n      0x12\n        /* \"#utility.yul\":14236:14237   */\n      0x04\n        /* \"#utility.yul\":14229:14244   */\n      mstore\n        /* \"#utility.yul\":14263:14267   */\n      0x24\n        /* \"#utility.yul\":14260:14261   */\n      0x00\n        /* \"#utility.yul\":14253:14268   */\n      revert\n        /* \"#utility.yul\":14280:14465   */\n    tag_180:\n        /* \"#utility.yul\":14320:14321   */\n      0x00\n        /* \"#utility.yul\":14337:14357   */\n      tag_428\n        /* \"#utility.yul\":14355:14356   */\n      dup3\n        /* \"#utility.yul\":14337:14357   */\n      tag_238\n      jump\t// in\n    tag_428:\n        /* \"#utility.yul\":14332:14357   */\n      swap2\n      pop\n        /* \"#utility.yul\":14371:14391   */\n      tag_429\n        /* \"#utility.yul\":14389:14390   */\n      dup4\n        /* \"#utility.yul\":14371:14391   */\n      tag_238\n      jump\t// in\n    tag_429:\n        /* \"#utility.yul\":14366:14391   */\n      swap3\n      pop\n        /* \"#utility.yul\":14410:14411   */\n      dup3\n        /* \"#utility.yul\":14400:14435   */\n      tag_430\n      jumpi\n        /* \"#utility.yul\":14415:14433   */\n      tag_431\n      tag_276\n      jump\t// in\n    tag_431:\n        /* \"#utility.yul\":14400:14435   */\n    tag_430:\n        /* \"#utility.yul\":14457:14458   */\n      dup3\n        /* \"#utility.yul\":14454:14455   */\n      dup3\n        /* \"#utility.yul\":14450:14459   */\n      div\n        /* \"#utility.yul\":14445:14459   */\n      swap1\n      pop\n        /* \"#utility.yul\":14280:14465   */\n      swap3\n      swap2\n      pop\n      pop\n      jump\t// out\n        /* \"#utility.yul\":14471:14614   */\n    tag_277:\n        /* \"#utility.yul\":14528:14533   */\n      0x00\n        /* \"#utility.yul\":14559:14565   */\n      dup2\n        /* \"#utility.yul\":14553:14566   */\n      mload\n        /* \"#utility.yul\":14544:14566   */\n      swap1\n      pop\n        /* \"#utility.yul\":14575:14608   */\n      tag_433\n        /* \"#utility.yul\":14602:14607   */\n      dup2\n        /* \"#utility.yul\":14575:14608   */\n      tag_250\n      jump\t// in\n    tag_433:\n        /* \"#utility.yul\":14471:14614   */\n      swap3\n      swap2\n      pop\n      pop\n      jump\t// out\n        /* \"#utility.yul\":14620:14971   */\n    tag_185:\n        /* \"#utility.yul\":14690:14696   */\n      0x00\n        /* \"#utility.yul\":14739:14741   */\n      0x20\n        /* \"#utility.yul\":14727:14736   */\n      dup3\n        /* \"#utility.yul\":14718:14725   */\n      dup5\n        /* \"#utility.yul\":14714:14737   */\n      sub\n        /* \"#utility.yul\":14710:14742   */\n      slt\n        /* \"#utility.yul\":14707:14826   */\n      iszero\n      tag_435\n      jumpi\n        /* \"#utility.yul\":14745:14824   */\n      tag_436\n      tag_244\n      jump\t// in\n    tag_436:\n        /* \"#utility.yul\":14707:14826   */\n    tag_435:\n        /* \"#utility.yul\":14865:14866   */\n      0x00\n        /* \"#utility.yul\":14890:14954   */\n      tag_437\n        /* \"#utility.yul\":14946:14953   */\n      dup5\n        /* \"#utility.yul\":14937:14943   */\n      dup3\n        /* \"#utility.yul\":14926:14935   */\n      dup6\n        /* \"#utility.yul\":14922:14944   */\n      add\n        /* \"#utility.yul\":14890:14954   */\n      tag_277\n      jump\t// in\n    tag_437:\n        /* \"#utility.yul\":14880:14954   */\n      swap2\n      pop\n        /* \"#utility.yul\":14836:14964   */\n      pop\n        /* \"#utility.yul\":14620:14971   */\n      swap3\n      swap2\n      pop\n      pop\n      jump\t// out\n        /* \"#utility.yul\":14977:15419   */\n    tag_198:\n        /* \"#utility.yul\":15126:15130   */\n      0x00\n        /* \"#utility.yul\":15164:15166   */\n      0x60\n        /* \"#utility.yul\":15153:15162   */\n      dup3\n        /* \"#utility.yul\":15149:15167   */\n      add\n        /* \"#utility.yul\":15141:15167   */\n      swap1\n      pop\n        /* \"#utility.yul\":15177:15248   */\n      tag_439\n        /* \"#utility.yul\":15245:15246   */\n      0x00\n        /* \"#utility.yul\":15234:15243   */\n      dup4\n        /* \"#utility.yul\":15230:15247   */\n      add\n        /* \"#utility.yul\":15221:15227   */\n      dup7\n        /* \"#utility.yul\":15177:15248   */\n      tag_242\n      jump\t// in\n    tag_439:\n        /* \"#utility.yul\":15258:15330   */\n      tag_440\n        /* \"#utility.yul\":15326:15328   */\n      0x20\n        /* \"#utility.yul\":15315:15324   */\n      dup4\n        /* \"#utility.yul\":15311:15329   */\n      add\n        /* \"#utility.yul\":15302:15308   */\n      dup6\n        /* \"#utility.yul\":15258:15330   */\n      tag_242\n      jump\t// in\n    tag_440:\n        /* \"#utility.yul\":15340:15412   */\n      tag_441\n        /* \"#utility.yul\":15408:15410   */\n      0x40\n        /* \"#utility.yul\":15397:15406   */\n      dup4\n        /* \"#utility.yul\":15393:15411   */\n      add\n        /* \"#utility.yul\":15384:15390   */\n      dup5\n        /* \"#utility.yul\":15340:15412   */\n      tag_239\n      jump\t// in\n    tag_441:\n        /* \"#utility.yul\":14977:15419   */\n      swap5\n      swap4\n      pop\n      pop\n      pop\n      pop\n      jump\t// out\n        /* \"#utility.yul\":15425:15654   */\n    tag_278:\n        /* \"#utility.yul\":15565:15599   */\n      0x5361666545524332303a204552433230206f7065726174696f6e20646964206e\n        /* \"#utility.yul\":15561:15562   */\n      0x00\n        /* \"#utility.yul\":15553:15559   */\n      dup3\n        /* \"#utility.yul\":15549:15563   */\n      add\n        /* \"#utility.yul\":15542:15600   */\n      mstore\n        /* \"#utility.yul\":15634:15646   */\n      0x6f74207375636365656400000000000000000000000000000000000000000000\n        /* \"#utility.yul\":15629:15631   */\n      0x20\n        /* \"#utility.yul\":15621:15627   */\n      dup3\n        /* \"#utility.yul\":15617:15632   */\n      add\n        /* \"#utility.yul\":15610:15647   */\n      mstore\n        /* \"#utility.yul\":15425:15654   */\n      pop\n      jump\t// out\n        /* \"#utility.yul\":15660:16026   */\n    tag_279:\n        /* \"#utility.yul\":15802:15805   */\n      0x00\n        /* \"#utility.yul\":15823:15890   */\n      tag_444\n        /* \"#utility.yul\":15887:15889   */\n      0x2a\n        /* \"#utility.yul\":15882:15885   */\n      dup4\n        /* \"#utility.yul\":15823:15890   */\n      tag_252\n      jump\t// in\n    tag_444:\n        /* \"#utility.yul\":15816:15890   */\n      swap2\n      pop\n        /* \"#utility.yul\":15899:15992   */\n      tag_445\n        /* \"#utility.yul\":15988:15991   */\n      dup3\n        /* \"#utility.yul\":15899:15992   */\n      tag_278\n      jump\t// in\n    tag_445:\n        /* \"#utility.yul\":16017:16019   */\n      0x40\n        /* \"#utility.yul\":16012:16015   */\n      dup3\n        /* \"#utility.yul\":16008:16020   */\n      add\n        /* \"#utility.yul\":16001:16020   */\n      swap1\n      pop\n        /* \"#utility.yul\":15660:16026   */\n      swap2\n      swap1\n      pop\n      jump\t// out\n        /* \"#utility.yul\":16032:16451   */\n    tag_206:\n        /* \"#utility.yul\":16198:16202   */\n      0x00\n        /* \"#utility.yul\":16236:16238   */\n      0x20\n        /* \"#utility.yul\":16225:16234   */\n      dup3\n        /* \"#utility.yul\":16221:16239   */\n      add\n        /* \"#utility.yul\":16213:16239   */\n      swap1\n      pop\n        /* \"#utility.yul\":16285:16294   */\n      dup2\n        /* \"#utility.yul\":16279:16283   */\n      dup2\n        /* \"#utility.yul\":16275:16295   */\n      sub\n        /* \"#utility.yul\":16271:16272   */\n      0x00\n        /* \"#utility.yul\":16260:16269   */\n      dup4\n        /* \"#utility.yul\":16256:16273   */\n      add\n        /* \"#utility.yul\":16249:16296   */\n      mstore\n        /* \"#utility.yul\":16313:16444   */\n      tag_447\n        /* \"#utility.yul\":16439:16443   */\n      dup2\n        /* \"#utility.yul\":16313:16444   */\n      tag_279\n      jump\t// in\n    tag_447:\n        /* \"#utility.yul\":16305:16444   */\n      swap1\n      pop\n        /* \"#utility.yul\":16032:16451   */\n      swap2\n      swap1\n      pop\n      jump\t// out\n        /* \"#utility.yul\":16457:16682   */\n    tag_280:\n        /* \"#utility.yul\":16597:16631   */\n      0x416464726573733a20696e73756666696369656e742062616c616e636520666f\n        /* \"#utility.yul\":16593:16594   */\n      0x00\n        /* \"#utility.yul\":16585:16591   */\n      dup3\n        /* \"#utility.yul\":16581:16595   */\n      add\n        /* \"#utility.yul\":16574:16632   */\n      mstore\n        /* \"#utility.yul\":16666:16674   */\n      0x722063616c6c0000000000000000000000000000000000000000000000000000\n        /* \"#utility.yul\":16661:16663   */\n      0x20\n        /* \"#utility.yul\":16653:16659   */\n      dup3\n        /* \"#utility.yul\":16649:16664   */\n      add\n        /* \"#utility.yul\":16642:16675   */\n      mstore\n        /* \"#utility.yul\":16457:16682   */\n      pop\n      jump\t// out\n        /* \"#utility.yul\":16688:17054   */\n    tag_281:\n        /* \"#utility.yul\":16830:16833   */\n      0x00\n        /* \"#utility.yul\":16851:16918   */\n      tag_450\n        /* \"#utility.yul\":16915:16917   */\n      0x26\n        /* \"#utility.yul\":16910:16913   */\n      dup4\n        /* \"#utility.yul\":16851:16918   */\n      tag_252\n      jump\t// in\n    tag_450:\n        /* \"#utility.yul\":16844:16918   */\n      swap2\n      pop\n        /* \"#utility.yul\":16927:17020   */\n      tag_451\n        /* \"#utility.yul\":17016:17019   */\n      dup3\n        /* \"#utility.yul\":16927:17020   */\n      tag_280\n      jump\t// in\n    tag_451:\n        /* \"#utility.yul\":17045:17047   */\n      0x40\n        /* \"#utility.yul\":17040:17043   */\n      dup3\n        /* \"#utility.yul\":17036:17048   */\n      add\n        /* \"#utility.yul\":17029:17048   */\n      swap1\n      pop\n        /* \"#utility.yul\":16688:17054   */\n      swap2\n      swap1\n      pop\n      jump\t// out\n        /* \"#utility.yul\":17060:17479   */\n    tag_213:\n        /* \"#utility.yul\":17226:17230   */\n      0x00\n        /* \"#utility.yul\":17264:17266   */\n      0x20\n        /* \"#utility.yul\":17253:17262   */\n      dup3\n        /* \"#utility.yul\":17249:17267   */\n      add\n        /* \"#utility.yul\":17241:17267   */\n      swap1\n      pop\n        /* \"#utility.yul\":17313:17322   */\n      dup2\n        /* \"#utility.yul\":17307:17311   */\n      dup2\n        /* \"#utility.yul\":17303:17323   */\n      sub\n        /* \"#utility.yul\":17299:17300   */\n      0x00\n        /* \"#utility.yul\":17288:17297   */\n      dup4\n        /* \"#utility.yul\":17284:17301   */\n      add\n        /* \"#utility.yul\":17277:17324   */\n      mstore\n        /* \"#utility.yul\":17341:17472   */\n      tag_453\n        /* \"#utility.yul\":17467:17471   */\n      dup2\n        /* \"#utility.yul\":17341:17472   */\n      tag_281\n      jump\t// in\n    tag_453:\n        /* \"#utility.yul\":17333:17472   */\n      swap1\n      pop\n        /* \"#utility.yul\":17060:17479   */\n      swap2\n      swap1\n      pop\n      jump\t// out\n        /* \"#utility.yul\":17485:17583   */\n    tag_282:\n        /* \"#utility.yul\":17536:17542   */\n      0x00\n        /* \"#utility.yul\":17570:17575   */\n      dup2\n        /* \"#utility.yul\":17564:17576   */\n      mload\n        /* \"#utility.yul\":17554:17576   */\n      swap1\n      pop\n        /* \"#utility.yul\":17485:17583   */\n      swap2\n      swap1\n      pop\n      jump\t// out\n        /* \"#utility.yul\":17589:17736   */\n    tag_283:\n        /* \"#utility.yul\":17690:17701   */\n      0x00\n        /* \"#utility.yul\":17727:17730   */\n      dup2\n        /* \"#utility.yul\":17712:17730   */\n      swap1\n      pop\n        /* \"#utility.yul\":17589:17736   */\n      swap3\n      swap2\n      pop\n      pop\n      jump\t// out\n        /* \"#utility.yul\":17742:17988   */\n    tag_284:\n        /* \"#utility.yul\":17823:17824   */\n      0x00\n        /* \"#utility.yul\":17833:17946   */\n    tag_457:\n        /* \"#utility.yul\":17847:17853   */\n      dup4\n        /* \"#utility.yul\":17844:17845   */\n      dup2\n        /* \"#utility.yul\":17841:17854   */\n      lt\n        /* \"#utility.yul\":17833:17946   */\n      iszero\n      tag_459\n      jumpi\n        /* \"#utility.yul\":17932:17933   */\n      dup1\n        /* \"#utility.yul\":17927:17930   */\n      dup3\n        /* \"#utility.yul\":17923:17934   */\n      add\n        /* \"#utility.yul\":17917:17935   */\n      mload\n        /* \"#utility.yul\":17913:17914   */\n      dup2\n        /* \"#utility.yul\":17908:17911   */\n      dup5\n        /* \"#utility.yul\":17904:17915   */\n      add\n        /* \"#utility.yul\":17897:17936   */\n      mstore\n        /* \"#utility.yul\":17869:17871   */\n      0x20\n        /* \"#utility.yul\":17866:17867   */\n      dup2\n        /* \"#utility.yul\":17862:17872   */\n      add\n        /* \"#utility.yul\":17857:17872   */\n      swap1\n      pop\n        /* \"#utility.yul\":17833:17946   */\n      jump(tag_457)\n    tag_459:\n        /* \"#utility.yul\":17980:17981   */\n      0x00\n        /* \"#utility.yul\":17971:17977   */\n      dup5\n        /* \"#utility.yul\":17966:17969   */\n      dup5\n        /* \"#utility.yul\":17962:17978   */\n      add\n        /* \"#utility.yul\":17955:17982   */\n      mstore\n        /* \"#utility.yul\":17804:17988   */\n      pop\n        /* \"#utility.yul\":17742:17988   */\n      pop\n      pop\n      pop\n      jump\t// out\n        /* \"#utility.yul\":17994:18380   */\n    tag_285:\n        /* \"#utility.yul\":18098:18101   */\n      0x00\n        /* \"#utility.yul\":18126:18164   */\n      tag_461\n        /* \"#utility.yul\":18158:18163   */\n      dup3\n        /* \"#utility.yul\":18126:18164   */\n      tag_282\n      jump\t// in\n    tag_461:\n        /* \"#utility.yul\":18180:18268   */\n      tag_462\n        /* \"#utility.yul\":18261:18267   */\n      dup2\n        /* \"#utility.yul\":18256:18259   */\n      dup6\n        /* \"#utility.yul\":18180:18268   */\n      tag_283\n      jump\t// in\n    tag_462:\n        /* \"#utility.yul\":18173:18268   */\n      swap4\n      pop\n        /* \"#utility.yul\":18277:18342   */\n      tag_463\n        /* \"#utility.yul\":18335:18341   */\n      dup2\n        /* \"#utility.yul\":18330:18333   */\n      dup6\n        /* \"#utility.yul\":18323:18327   */\n      0x20\n        /* \"#utility.yul\":18316:18321   */\n      dup7\n        /* \"#utility.yul\":18312:18328   */\n      add\n        /* \"#utility.yul\":18277:18342   */\n      tag_284\n      jump\t// in\n    tag_463:\n        /* \"#utility.yul\":18367:18373   */\n      dup1\n        /* \"#utility.yul\":18362:18365   */\n      dup5\n        /* \"#utility.yul\":18358:18374   */\n      add\n        /* \"#utility.yul\":18351:18374   */\n      swap2\n      pop\n        /* \"#utility.yul\":18102:18380   */\n      pop\n        /* \"#utility.yul\":17994:18380   */\n      swap3\n      swap2\n      pop\n      pop\n      jump\t// out\n        /* \"#utility.yul\":18386:18657   */\n    tag_215:\n        /* \"#utility.yul\":18516:18519   */\n      0x00\n        /* \"#utility.yul\":18538:18631   */\n      tag_465\n        /* \"#utility.yul\":18627:18630   */\n      dup3\n        /* \"#utility.yul\":18618:18624   */\n      dup5\n        /* \"#utility.yul\":18538:18631   */\n      tag_285\n      jump\t// in\n    tag_465:\n        /* \"#utility.yul\":18531:18631   */\n      swap2\n      pop\n        /* \"#utility.yul\":18648:18651   */\n      dup2\n        /* \"#utility.yul\":18641:18651   */\n      swap1\n      pop\n        /* \"#utility.yul\":18386:18657   */\n      swap3\n      swap2\n      pop\n      pop\n      jump\t// out\n        /* \"#utility.yul\":18663:18842   */\n    tag_286:\n        /* \"#utility.yul\":18803:18834   */\n      0x416464726573733a2063616c6c20746f206e6f6e2d636f6e7472616374000000\n        /* \"#utility.yul\":18799:18800   */\n      0x00\n        /* \"#utility.yul\":18791:18797   */\n      dup3\n        /* \"#utility.yul\":18787:18801   */\n      add\n        /* \"#utility.yul\":18780:18835   */\n      mstore\n        /* \"#utility.yul\":18663:18842   */\n      pop\n      jump\t// out\n        /* \"#utility.yul\":18848:19214   */\n    tag_287:\n        /* \"#utility.yul\":18990:18993   */\n      0x00\n        /* \"#utility.yul\":19011:19078   */\n      tag_468\n        /* \"#utility.yul\":19075:19077   */\n      0x1d\n        /* \"#utility.yul\":19070:19073   */\n      dup4\n        /* \"#utility.yul\":19011:19078   */\n      tag_252\n      jump\t// in\n    tag_468:\n        /* \"#utility.yul\":19004:19078   */\n      swap2\n      pop\n        /* \"#utility.yul\":19087:19180   */\n      tag_469\n        /* \"#utility.yul\":19176:19179   */\n      dup3\n        /* \"#utility.yul\":19087:19180   */\n      tag_286\n      jump\t// in\n    tag_469:\n        /* \"#utility.yul\":19205:19207   */\n      0x20\n        /* \"#utility.yul\":19200:19203   */\n      dup3\n        /* \"#utility.yul\":19196:19208   */\n      add\n        /* \"#utility.yul\":19189:19208   */\n      swap1\n      pop\n        /* \"#utility.yul\":18848:19214   */\n      swap2\n      swap1\n      pop\n      jump\t// out\n        /* \"#utility.yul\":19220:19639   */\n    tag_228:\n        /* \"#utility.yul\":19386:19390   */\n      0x00\n        /* \"#utility.yul\":19424:19426   */\n      0x20\n        /* \"#utility.yul\":19413:19422   */\n      dup3\n        /* \"#utility.yul\":19409:19427   */\n      add\n        /* \"#utility.yul\":19401:19427   */\n      swap1\n      pop\n        /* \"#utility.yul\":19473:19482   */\n      dup2\n        /* \"#utility.yul\":19467:19471   */\n      dup2\n        /* \"#utility.yul\":19463:19483   */\n      sub\n        /* \"#utility.yul\":19459:19460   */\n      0x00\n        /* \"#utility.yul\":19448:19457   */\n      dup4\n        /* \"#utility.yul\":19444:19461   */\n      add\n        /* \"#utility.yul\":19437:19484   */\n      mstore\n        /* \"#utility.yul\":19501:19632   */\n      tag_471\n        /* \"#utility.yul\":19627:19631   */\n      dup2\n        /* \"#utility.yul\":19501:19632   */\n      tag_287\n      jump\t// in\n    tag_471:\n        /* \"#utility.yul\":19493:19632   */\n      swap1\n      pop\n        /* \"#utility.yul\":19220:19639   */\n      swap2\n      swap1\n      pop\n      jump\t// out\n        /* \"#utility.yul\":19645:19744   */\n    tag_288:\n        /* \"#utility.yul\":19697:19703   */\n      0x00\n        /* \"#utility.yul\":19731:19736   */\n      dup2\n        /* \"#utility.yul\":19725:19737   */\n      mload\n        /* \"#utility.yul\":19715:19737   */\n      swap1\n      pop\n        /* \"#utility.yul\":19645:19744   */\n      swap2\n      swap1\n      pop\n      jump\t// out\n        /* \"#utility.yul\":19750:19852   */\n    tag_289:\n        /* \"#utility.yul\":19791:19797   */\n      0x00\n        /* \"#utility.yul\":19842:19844   */\n      0x1f\n        /* \"#utility.yul\":19838:19845   */\n      not\n        /* \"#utility.yul\":19833:19835   */\n      0x1f\n        /* \"#utility.yul\":19826:19831   */\n      dup4\n        /* \"#utility.yul\":19822:19836   */\n      add\n        /* \"#utility.yul\":19818:19846   */\n      and\n        /* \"#utility.yul\":19808:19846   */\n      swap1\n      pop\n        /* \"#utility.yul\":19750:19852   */\n      swap2\n      swap1\n      pop\n      jump\t// out\n        /* \"#utility.yul\":19858:20235   */\n    tag_290:\n        /* \"#utility.yul\":19946:19949   */\n      0x00\n        /* \"#utility.yul\":19974:20013   */\n      tag_475\n        /* \"#utility.yul\":20007:20012   */\n      dup3\n        /* \"#utility.yul\":19974:20013   */\n      tag_288\n      jump\t// in\n    tag_475:\n        /* \"#utility.yul\":20029:20100   */\n      tag_476\n        /* \"#utility.yul\":20093:20099   */\n      dup2\n        /* \"#utility.yul\":20088:20091   */\n      dup6\n        /* \"#utility.yul\":20029:20100   */\n      tag_252\n      jump\t// in\n    tag_476:\n        /* \"#utility.yul\":20022:20100   */\n      swap4\n      pop\n        /* \"#utility.yul\":20109:20174   */\n      tag_477\n        /* \"#utility.yul\":20167:20173   */\n      dup2\n        /* \"#utility.yul\":20162:20165   */\n      dup6\n        /* \"#utility.yul\":20155:20159   */\n      0x20\n        /* \"#utility.yul\":20148:20153   */\n      dup7\n        /* \"#utility.yul\":20144:20160   */\n      add\n        /* \"#utility.yul\":20109:20174   */\n      tag_284\n      jump\t// in\n    tag_477:\n        /* \"#utility.yul\":20199:20228   */\n      tag_478\n        /* \"#utility.yul\":20221:20227   */\n      dup2\n        /* \"#utility.yul\":20199:20228   */\n      tag_289\n      jump\t// in\n    tag_478:\n        /* \"#utility.yul\":20194:20197   */\n      dup5\n        /* \"#utility.yul\":20190:20229   */\n      add\n        /* \"#utility.yul\":20183:20229   */\n      swap2\n      pop\n        /* \"#utility.yul\":19950:20235   */\n      pop\n        /* \"#utility.yul\":19858:20235   */\n      swap3\n      swap2\n      pop\n      pop\n      jump\t// out\n        /* \"#utility.yul\":20241:20554   */\n    tag_237:\n        /* \"#utility.yul\":20354:20358   */\n      0x00\n        /* \"#utility.yul\":20392:20394   */\n      0x20\n        /* \"#utility.yul\":20381:20390   */\n      dup3\n        /* \"#utility.yul\":20377:20395   */\n      add\n        /* \"#utility.yul\":20369:20395   */\n      swap1\n      pop\n        /* \"#utility.yul\":20441:20450   */\n      dup2\n        /* \"#utility.yul\":20435:20439   */\n      dup2\n        /* \"#utility.yul\":20431:20451   */\n      sub\n        /* \"#utility.yul\":20427:20428   */\n      0x00\n        /* \"#utility.yul\":20416:20425   */\n      dup4\n        /* \"#utility.yul\":20412:20429   */\n      add\n        /* \"#utility.yul\":20405:20452   */\n      mstore\n        /* \"#utility.yul\":20469:20547   */\n      tag_480\n        /* \"#utility.yul\":20542:20546   */\n      dup2\n        /* \"#utility.yul\":20533:20539   */\n      dup5\n        /* \"#utility.yul\":20469:20547   */\n      tag_290\n      jump\t// in\n    tag_480:\n        /* \"#utility.yul\":20461:20547   */\n      swap1\n      pop\n        /* \"#utility.yul\":20241:20554   */\n      swap3\n      swap2\n      pop\n      pop\n      jump\t// out\n\n    auxdata: 0xa26469706673582212201f00ac6a92038ae313682fd2da47b3dc811f3bc2118424eccd1bd7dd27c4899464736f6c63430008120033\n}\n",
				"bytecode": {
					"linkReferences": {},
					"object": "60806040523480156200001157600080fd5b5060405162002372380380620023728339818101604052810190620000379190620002db565b83336200004a816200017260201b60201c565b5080600260006101000a81548173ffffffffffffffffffffffffffffffffffffffff021916908373ffffffffffffffffffffffffffffffffffffffff1602179055505060008114806200009d5750600081145b620000df576040517f08c379a0000000000000000000000000000000000000000000000000000000008152600401620000d690620003d4565b60405180910390fd5b82600360006101000a81548173ffffffffffffffffffffffffffffffffffffffff021916908373ffffffffffffffffffffffffffffffffffffffff16021790555081600460006101000a81548173ffffffffffffffffffffffffffffffffffffffff021916908373ffffffffffffffffffffffffffffffffffffffff1602179055508060088190555050505050620003f6565b60008060009054906101000a900473ffffffffffffffffffffffffffffffffffffffff169050816000806101000a81548173ffffffffffffffffffffffffffffffffffffffff021916908373ffffffffffffffffffffffffffffffffffffffff1602179055508173ffffffffffffffffffffffffffffffffffffffff168173ffffffffffffffffffffffffffffffffffffffff167f8be0079c531659141344cd1fd0a4f28419497f9722a3daafe3b4186f6b6457e060405160405180910390a35050565b600080fd5b600073ffffffffffffffffffffffffffffffffffffffff82169050919050565b600062000268826200023b565b9050919050565b6200027a816200025b565b81146200028657600080fd5b50565b6000815190506200029a816200026f565b92915050565b6000819050919050565b620002b581620002a0565b8114620002c157600080fd5b50565b600081519050620002d581620002aa565b92915050565b60008060008060808587031215620002f857620002f762000236565b5b6000620003088782880162000289565b94505060206200031b8782880162000289565b93505060406200032e8782880162000289565b92505060606200034187828801620002c4565b91505092959194509250565b600082825260208201905092915050565b7f73746f636b20696e20706f6f6c206d757374206265207a65726f206f72206f6e60008201527f652e000000000000000000000000000000000000000000000000000000000000602082015250565b6000620003bc6022836200034d565b9150620003c9826200035e565b604082019050919050565b60006020820190508181036000830152620003ef81620003ad565b9050919050565b611f6c80620004066000396000f3fe6080604052600436106100f35760003560e01c80637ef45fde1161008a578063e30c397811610059578063e30c39781461030f578063f2fde38b1461033a578063f887ea4014610363578063f92966e11461038e576100f3565b80637ef45fde1461023a5780638da5cb5b14610277578063b6b55f25146102a2578063ce7c2ac2146102d2576100f3565b806344c2b6d0116100c657806344c2b6d0146101a4578063481c6a75146101e15780634e71e0c81461020c578063715018a614610223576100f3565b806302c1b274146100f857806316f0115b146101235780633ccfd60b1461014e5780634230adc914610179575b600080fd5b34801561010457600080fd5b5061010d6103b9565b60405161011a919061150a565b60405180910390f35b34801561012f57600080fd5b506101386103bf565b6040516101459190611566565b60405180910390f35b34801561015a57600080fd5b506101636103e5565b604051610170919061150a565b60405180910390f35b34801561018557600080fd5b5061018e610528565b60405161019b919061150a565b60405180910390f35b3480156101b057600080fd5b506101cb60048036038101906101c691906115de565b61052e565b6040516101d8919061150a565b60405180910390f35b3480156101ed57600080fd5b506101f661075f565b6040516102039190611566565b60405180910390f35b34801561021857600080fd5b50610221610789565b005b34801561022f57600080fd5b50610238610888565b005b34801561024657600080fd5b50610261600480360381019061025c91906115de565b610909565b60405161026e919061150a565b60405180910390f35b34801561028357600080fd5b5061028c610bb1565b6040516102999190611566565b60405180910390f35b6102bc60048036038101906102b7919061161e565b610bda565b6040516102c9919061150a565b60405180910390f35b3480156102de57600080fd5b506102f960048036038101906102f49190611677565b610d5a565b604051610306919061150a565b60405180910390f35b34801561031b57600080fd5b50610324610d72565b6040516103319190611566565b60405180910390f35b34801561034657600080fd5b50610361600480360381019061035c9190611677565b610d9c565b005b34801561036f57600080fd5b50610378610f07565b6040516103859190611566565b60405180910390f35b34801561039a57600080fd5b506103a3610f2d565b6040516103b0919061150a565b60405180910390f35b60085481565b600460009054906101000a900473ffffffffffffffffffffffffffffffffffffffff1681565b600080600560003373ffffffffffffffffffffffffffffffffffffffff1673ffffffffffffffffffffffffffffffffffffffff1681526020019081526020016000205490506000811161046d576040517f08c379a000000000000000000000000000000000000000000000000000000000815260040161046490611701565b60405180910390fd5b600061049860075461048a60065485610f3390919063ffffffff16565b610f4990919063ffffffff16565b905060006104a4610f5f565b90506104d133838373ffffffffffffffffffffffffffffffffffffffff1661109a9092919063ffffffff16565b3373ffffffffffffffffffffffffffffffffffffffff167f884edad9ce6fa2440d8a54cc123490eb96d2768479d49ff9c7366125a942436483604051610517919061150a565b60405180910390a281935050505090565b60065481565b6000808311610572576040517f08c379a00000000000000000000000000000000000000000000000000000000081526004016105699061176d565b60405180910390fd5b600061057c610f5f565b90506000610588610f5f565b90506000600460009054906101000a900473ffffffffffffffffffffffffffffffffffffffff1673ffffffffffffffffffffffffffffffffffffffff1663ddca3f436040518163ffffffff1660e01b8152600401602060405180830381865afa1580156105f9573d6000803e3d6000fd5b505050506040513d601f19601f8201168201806040525081019061061d91906117c8565b9050600360009054906101000a900473ffffffffffffffffffffffffffffffffffffffff1673ffffffffffffffffffffffffffffffffffffffff1663414bf3896040518061010001604052808673ffffffffffffffffffffffffffffffffffffffff1681526020018573ffffffffffffffffffffffffffffffffffffffff1681526020018462ffffff1681526020013073ffffffffffffffffffffffffffffffffffffffff16815260200142815260200160075481526020018981526020018873ffffffffffffffffffffffffffffffffffffffff168152506040518263ffffffff1660e01b815260040161071291906118d3565b6020604051808303816000875af1158015610731573d6000803e3d6000fd5b505050506040513d601f19601f820116820180604052508101906107559190611904565b5050505092915050565b6000600260009054906101000a900473ffffffffffffffffffffffffffffffffffffffff16905090565b600160009054906101000a900473ffffffffffffffffffffffffffffffffffffffff1673ffffffffffffffffffffffffffffffffffffffff163373ffffffffffffffffffffffffffffffffffffffff1614610819576040517f08c379a00000000000000000000000000000000000000000000000000000000081526004016108109061197d565b60405180910390fd5b610844600160009054906101000a900473ffffffffffffffffffffffffffffffffffffffff16611120565b6000600160006101000a81548173ffffffffffffffffffffffffffffffffffffffff021916908373ffffffffffffffffffffffffffffffffffffffff160217905550565b3373ffffffffffffffffffffffffffffffffffffffff166108a7610bb1565b73ffffffffffffffffffffffffffffffffffffffff16146108fd576040517f08c379a00000000000000000000000000000000000000000000000000000000081526004016108f4906119e9565b60405180910390fd5b6109076000611120565b565b600080831161094d576040517f08c379a00000000000000000000000000000000000000000000000000000000081526004016109449061176d565b60405180910390fd5b6000610957610f5f565b90506000610963610f5f565b90506000600460009054906101000a900473ffffffffffffffffffffffffffffffffffffffff1673ffffffffffffffffffffffffffffffffffffffff1663ddca3f436040518163ffffffff1660e01b8152600401602060405180830381865afa1580156109d4573d6000803e3d6000fd5b505050506040513d601f19601f820116820180604052508101906109f891906117c8565b9050600360009054906101000a900473ffffffffffffffffffffffffffffffffffffffff1673ffffffffffffffffffffffffffffffffffffffff1663414bf3896040518061010001604052808573ffffffffffffffffffffffffffffffffffffffff1681526020018673ffffffffffffffffffffffffffffffffffffffff1681526020018462ffffff1681526020013073ffffffffffffffffffffffffffffffffffffffff1681526020014281526020018573ffffffffffffffffffffffffffffffffffffffff166370a08231306040518263ffffffff1660e01b8152600401610ae29190611566565b602060405180830381865afa158015610aff573d6000803e3d6000fd5b505050506040513d601f19601f82011682018060405250810190610b239190611904565b81526020018981526020018873ffffffffffffffffffffffffffffffffffffffff168152506040518263ffffffff1660e01b8152600401610b6491906118d3565b6020604051808303816000875af1158015610b83573d6000803e3d6000fd5b505050506040513d601f19601f82011682018060405250810190610ba79190611904565b5050505092915050565b60008060009054906101000a900473ffffffffffffffffffffffffffffffffffffffff16905090565b600081600560003373ffffffffffffffffffffffffffffffffffffffff1673ffffffffffffffffffffffffffffffffffffffff1681526020019081526020016000206000828254610c2b9190611a38565b925050819055503460076000828254610c449190611a38565b925050819055506000610c55610f5f565b90508073ffffffffffffffffffffffffffffffffffffffff1663095ea7b330856040518363ffffffff1660e01b8152600401610c92929190611a6c565b6020604051808303816000875af1158015610cb1573d6000803e3d6000fd5b505050506040513d601f19601f82011682018060405250810190610cd59190611acd565b50610d033330858473ffffffffffffffffffffffffffffffffffffffff166111e4909392919063ffffffff16565b3373ffffffffffffffffffffffffffffffffffffffff167fe1fffcc4923d04b559f4d29a8bfc6cda04eb5b0d3c460751c2402c5c5cc9109c84604051610d49919061150a565b60405180910390a282915050919050565b60056020528060005260406000206000915090505481565b6000600160009054906101000a900473ffffffffffffffffffffffffffffffffffffffff16905090565b3373ffffffffffffffffffffffffffffffffffffffff16610dbb610bb1565b73ffffffffffffffffffffffffffffffffffffffff1614610e11576040517f08c379a0000000000000000000000000000000000000000000000000000000008152600401610e08906119e9565b60405180910390fd5b600073ffffffffffffffffffffffffffffffffffffffff168173ffffffffffffffffffffffffffffffffffffffff1603610e80576040517f08c379a0000000000000000000000000000000000000000000000000000000008152600401610e7790611b6c565b60405180910390fd5b80600160006101000a81548173ffffffffffffffffffffffffffffffffffffffff021916908373ffffffffffffffffffffffffffffffffffffffff1602179055508073ffffffffffffffffffffffffffffffffffffffff167f239a2ddded15777fa246aed5f7e1a9bc69a39d4eb4a397034d1d85766cca7d4c60405160405180910390a250565b600360009054906101000a900473ffffffffffffffffffffffffffffffffffffffff1681565b60075481565b60008183610f419190611b8c565b905092915050565b60008183610f579190611bfd565b905092915050565b600080600460009054906101000a900473ffffffffffffffffffffffffffffffffffffffff1673ffffffffffffffffffffffffffffffffffffffff16630dfe16816040518163ffffffff1660e01b8152600401602060405180830381865afa158015610fcf573d6000803e3d6000fd5b505050506040513d601f19601f82011682018060405250810190610ff39190611c43565b905060016008540361109357600460009054906101000a900473ffffffffffffffffffffffffffffffffffffffff1673ffffffffffffffffffffffffffffffffffffffff1663d21220a76040518163ffffffff1660e01b8152600401602060405180830381865afa15801561106c573d6000803e3d6000fd5b505050506040513d601f19601f820116820180604052508101906110909190611c43565b90505b8091505090565b61111b8363a9059cbb60e01b84846040516024016110b9929190611a6c565b604051602081830303815290604052907bffffffffffffffffffffffffffffffffffffffffffffffffffffffff19166020820180517bffffffffffffffffffffffffffffffffffffffffffffffffffffffff838183161783525050505061126d565b505050565b60008060009054906101000a900473ffffffffffffffffffffffffffffffffffffffff169050816000806101000a81548173ffffffffffffffffffffffffffffffffffffffff021916908373ffffffffffffffffffffffffffffffffffffffff1602179055508173ffffffffffffffffffffffffffffffffffffffff168173ffffffffffffffffffffffffffffffffffffffff167f8be0079c531659141344cd1fd0a4f28419497f9722a3daafe3b4186f6b6457e060405160405180910390a35050565b611267846323b872dd60e01b85858560405160240161120593929190611c70565b604051602081830303815290604052907bffffffffffffffffffffffffffffffffffffffffffffffffffffffff19166020820180517bffffffffffffffffffffffffffffffffffffffffffffffffffffffff838183161783525050505061126d565b50505050565b60006112cf826040518060400160405280602081526020017f5361666545524332303a206c6f772d6c6576656c2063616c6c206661696c65648152508573ffffffffffffffffffffffffffffffffffffffff166113349092919063ffffffff16565b905060008151111561132f57808060200190518101906112ef9190611acd565b61132e576040517f08c379a000000000000000000000000000000000000000000000000000000000815260040161132590611d19565b60405180910390fd5b5b505050565b6060611343848460008561134c565b90509392505050565b606082471015611391576040517f08c379a000000000000000000000000000000000000000000000000000000000815260040161138890611dab565b60405180910390fd5b6000808673ffffffffffffffffffffffffffffffffffffffff1685876040516113ba9190611e3c565b60006040518083038185875af1925050503d80600081146113f7576040519150601f19603f3d011682016040523d82523d6000602084013e6113fc565b606091505b509150915061140d87838387611419565b92505050949350505050565b6060831561147b576000835103611473576114338561148e565b611472576040517f08c379a000000000000000000000000000000000000000000000000000000000815260040161146990611e9f565b60405180910390fd5b5b829050611486565b61148583836114a1565b5b949350505050565b600080823b905060008111915050919050565b6000825111156114b45781518083602001fd5b806040517f08c379a00000000000000000000000000000000000000000000000000000000081526004016114e89190611f14565b60405180910390fd5b6000819050919050565b611504816114f1565b82525050565b600060208201905061151f60008301846114fb565b92915050565b600073ffffffffffffffffffffffffffffffffffffffff82169050919050565b600061155082611525565b9050919050565b61156081611545565b82525050565b600060208201905061157b6000830184611557565b92915050565b600080fd5b61158f816114f1565b811461159a57600080fd5b50565b6000813590506115ac81611586565b92915050565b6115bb81611525565b81146115c657600080fd5b50565b6000813590506115d8816115b2565b92915050565b600080604083850312156115f5576115f4611581565b5b60006116038582860161159d565b9250506020611614858286016115c9565b9150509250929050565b60006020828403121561163457611633611581565b5b60006116428482850161159d565b91505092915050565b61165481611545565b811461165f57600080fd5b50565b6000813590506116718161164b565b92915050565b60006020828403121561168d5761168c611581565b5b600061169b84828501611662565b91505092915050565b600082825260208201905092915050565b7f4172626974726167653a20696e73756666696369656e742062616c616e636500600082015250565b60006116eb601f836116a4565b91506116f6826116b5565b602082019050919050565b6000602082019050818103600083015261171a816116de565b9050919050565b7f496e76616c6964206d696e696d756d206f757470757420616d6f756e74000000600082015250565b6000611757601d836116a4565b915061176282611721565b602082019050919050565b600060208201905081810360008301526117868161174a565b9050919050565b600062ffffff82169050919050565b6117a58161178d565b81146117b057600080fd5b50565b6000815190506117c28161179c565b92915050565b6000602082840312156117de576117dd611581565b5b60006117ec848285016117b3565b91505092915050565b6117fe81611545565b82525050565b61180d8161178d565b82525050565b61181c816114f1565b82525050565b61182b81611525565b82525050565b6101008201600082015161184860008501826117f5565b50602082015161185b60208501826117f5565b50604082015161186e6040850182611804565b50606082015161188160608501826117f5565b5060808201516118946080850182611813565b5060a08201516118a760a0850182611813565b5060c08201516118ba60c0850182611813565b5060e08201516118cd60e0850182611822565b50505050565b6000610100820190506118e96000830184611831565b92915050565b6000815190506118fe81611586565b92915050565b60006020828403121561191a57611919611581565b5b6000611928848285016118ef565b91505092915050565b7f4f776e61626c652f63616c6c65722d6e6f742d70656e64696e674f776e657200600082015250565b6000611967601f836116a4565b915061197282611931565b602082019050919050565b600060208201905081810360008301526119968161195a565b9050919050565b7f4f776e61626c652f63616c6c65722d6e6f742d6f776e65720000000000000000600082015250565b60006119d36018836116a4565b91506119de8261199d565b602082019050919050565b60006020820190508181036000830152611a02816119c6565b9050919050565b7f4e487b7100000000000000000000000000000000000000000000000000000000600052601160045260246000fd5b6000611a43826114f1565b9150611a4e836114f1565b9250828201905080821115611a6657611a65611a09565b5b92915050565b6000604082019050611a816000830185611557565b611a8e60208301846114fb565b9392505050565b60008115159050919050565b611aaa81611a95565b8114611ab557600080fd5b50565b600081519050611ac781611aa1565b92915050565b600060208284031215611ae357611ae2611581565b5b6000611af184828501611ab8565b91505092915050565b7f4f776e61626c652f70656e64696e674f776e65722d6e6f742d7a65726f2d616460008201527f6472657373000000000000000000000000000000000000000000000000000000602082015250565b6000611b566025836116a4565b9150611b6182611afa565b604082019050919050565b60006020820190508181036000830152611b8581611b49565b9050919050565b6000611b97826114f1565b9150611ba2836114f1565b9250828202611bb0816114f1565b91508282048414831517611bc757611bc6611a09565b5b5092915050565b7f4e487b7100000000000000000000000000000000000000000000000000000000600052601260045260246000fd5b6000611c08826114f1565b9150611c13836114f1565b925082611c2357611c22611bce565b5b828204905092915050565b600081519050611c3d8161164b565b92915050565b600060208284031215611c5957611c58611581565b5b6000611c6784828501611c2e565b91505092915050565b6000606082019050611c856000830186611557565b611c926020830185611557565b611c9f60408301846114fb565b949350505050565b7f5361666545524332303a204552433230206f7065726174696f6e20646964206e60008201527f6f74207375636365656400000000000000000000000000000000000000000000602082015250565b6000611d03602a836116a4565b9150611d0e82611ca7565b604082019050919050565b60006020820190508181036000830152611d3281611cf6565b9050919050565b7f416464726573733a20696e73756666696369656e742062616c616e636520666f60008201527f722063616c6c0000000000000000000000000000000000000000000000000000602082015250565b6000611d956026836116a4565b9150611da082611d39565b604082019050919050565b60006020820190508181036000830152611dc481611d88565b9050919050565b600081519050919050565b600081905092915050565b60005b83811015611dff578082015181840152602081019050611de4565b60008484015250505050565b6000611e1682611dcb565b611e208185611dd6565b9350611e30818560208601611de1565b80840191505092915050565b6000611e488284611e0b565b915081905092915050565b7f416464726573733a2063616c6c20746f206e6f6e2d636f6e7472616374000000600082015250565b6000611e89601d836116a4565b9150611e9482611e53565b602082019050919050565b60006020820190508181036000830152611eb881611e7c565b9050919050565b600081519050919050565b6000601f19601f8301169050919050565b6000611ee682611ebf565b611ef081856116a4565b9350611f00818560208601611de1565b611f0981611eca565b840191505092915050565b60006020820190508181036000830152611f2e8184611edb565b90509291505056fea26469706673582212201f00ac6a92038ae313682fd2da47b3dc811f3bc2118424eccd1bd7dd27c4899464736f6c63430008120033",
					"opcodes": "PUSH1 0x80 PUSH1 0x40 MSTORE CALLVALUE DUP1 ISZERO PUSH3 0x11 JUMPI PUSH1 0x0 DUP1 REVERT JUMPDEST POP PUSH1 0x40 MLOAD PUSH3 0x2372 CODESIZE SUB DUP1 PUSH3 0x2372 DUP4 CODECOPY DUP2 DUP2 ADD PUSH1 0x40 MSTORE DUP2 ADD SWAP1 PUSH3 0x37 SWAP2 SWAP1 PUSH3 0x2DB JUMP JUMPDEST DUP4 CALLER PUSH3 0x4A DUP2 PUSH3 0x172 PUSH1 0x20 SHL PUSH1 0x20 SHR JUMP JUMPDEST POP DUP1 PUSH1 0x2 PUSH1 0x0 PUSH2 0x100 EXP DUP2 SLOAD DUP2 PUSH20 0xFFFFFFFFFFFFFFFFFFFFFFFFFFFFFFFFFFFFFFFF MUL NOT AND SWAP1 DUP4 PUSH20 0xFFFFFFFFFFFFFFFFFFFFFFFFFFFFFFFFFFFFFFFF AND MUL OR SWAP1 SSTORE POP POP PUSH1 0x0 DUP2 EQ DUP1 PUSH3 0x9D JUMPI POP PUSH1 0x0 DUP2 EQ JUMPDEST PUSH3 0xDF JUMPI PUSH1 0x40 MLOAD PUSH32 0x8C379A000000000000000000000000000000000000000000000000000000000 DUP2 MSTORE PUSH1 0x4 ADD PUSH3 0xD6 SWAP1 PUSH3 0x3D4 JUMP JUMPDEST PUSH1 0x40 MLOAD DUP1 SWAP2 SUB SWAP1 REVERT JUMPDEST DUP3 PUSH1 0x3 PUSH1 0x0 PUSH2 0x100 EXP DUP2 SLOAD DUP2 PUSH20 0xFFFFFFFFFFFFFFFFFFFFFFFFFFFFFFFFFFFFFFFF MUL NOT AND SWAP1 DUP4 PUSH20 0xFFFFFFFFFFFFFFFFFFFFFFFFFFFFFFFFFFFFFFFF AND MUL OR SWAP1 SSTORE POP DUP2 PUSH1 0x4 PUSH1 0x0 PUSH2 0x100 EXP DUP2 SLOAD DUP2 PUSH20 0xFFFFFFFFFFFFFFFFFFFFFFFFFFFFFFFFFFFFFFFF MUL NOT AND SWAP1 DUP4 PUSH20 0xFFFFFFFFFFFFFFFFFFFFFFFFFFFFFFFFFFFFFFFF AND MUL OR SWAP1 SSTORE POP DUP1 PUSH1 0x8 DUP2 SWAP1 SSTORE POP POP POP POP POP PUSH3 0x3F6 JUMP JUMPDEST PUSH1 0x0 DUP1 PUSH1 0x0 SWAP1 SLOAD SWAP1 PUSH2 0x100 EXP SWAP1 DIV PUSH20 0xFFFFFFFFFFFFFFFFFFFFFFFFFFFFFFFFFFFFFFFF AND SWAP1 POP DUP2 PUSH1 0x0 DUP1 PUSH2 0x100 EXP DUP2 SLOAD DUP2 PUSH20 0xFFFFFFFFFFFFFFFFFFFFFFFFFFFFFFFFFFFFFFFF MUL NOT AND SWAP1 DUP4 PUSH20 0xFFFFFFFFFFFFFFFFFFFFFFFFFFFFFFFFFFFFFFFF AND MUL OR SWAP1 SSTORE POP DUP2 PUSH20 0xFFFFFFFFFFFFFFFFFFFFFFFFFFFFFFFFFFFFFFFF AND DUP2 PUSH20 0xFFFFFFFFFFFFFFFFFFFFFFFFFFFFFFFFFFFFFFFF AND PUSH32 0x8BE0079C531659141344CD1FD0A4F28419497F9722A3DAAFE3B4186F6B6457E0 PUSH1 0x40 MLOAD PUSH1 0x40 MLOAD DUP1 SWAP2 SUB SWAP1 LOG3 POP POP JUMP JUMPDEST PUSH1 0x0 DUP1 REVERT JUMPDEST PUSH1 0x0 PUSH20 0xFFFFFFFFFFFFFFFFFFFFFFFFFFFFFFFFFFFFFFFF DUP3 AND SWAP1 POP SWAP2 SWAP1 POP JUMP JUMPDEST PUSH1 0x0 PUSH3 0x268 DUP3 PUSH3 0x23B JUMP JUMPDEST SWAP1 POP SWAP2 SWAP1 POP JUMP JUMPDEST PUSH3 0x27A DUP2 PUSH3 0x25B JUMP JUMPDEST DUP2 EQ PUSH3 0x286 JUMPI PUSH1 0x0 DUP1 REVERT JUMPDEST POP JUMP JUMPDEST PUSH1 0x0 DUP2 MLOAD SWAP1 POP PUSH3 0x29A DUP2 PUSH3 0x26F JUMP JUMPDEST SWAP3 SWAP2 POP POP JUMP JUMPDEST PUSH1 0x0 DUP2 SWAP1 POP SWAP2 SWAP1 POP JUMP JUMPDEST PUSH3 0x2B5 DUP2 PUSH3 0x2A0 JUMP JUMPDEST DUP2 EQ PUSH3 0x2C1 JUMPI PUSH1 0x0 DUP1 REVERT JUMPDEST POP JUMP JUMPDEST PUSH1 0x0 DUP2 MLOAD SWAP1 POP PUSH3 0x2D5 DUP2 PUSH3 0x2AA JUMP JUMPDEST SWAP3 SWAP2 POP POP JUMP JUMPDEST PUSH1 0x0 DUP1 PUSH1 0x0 DUP1 PUSH1 0x80 DUP6 DUP8 SUB SLT ISZERO PUSH3 0x2F8 JUMPI PUSH3 0x2F7 PUSH3 0x236 JUMP JUMPDEST JUMPDEST PUSH1 0x0 PUSH3 0x308 DUP8 DUP3 DUP9 ADD PUSH3 0x289 JUMP JUMPDEST SWAP5 POP POP PUSH1 0x20 PUSH3 0x31B DUP8 DUP3 DUP9 ADD PUSH3 0x289 JUMP JUMPDEST SWAP4 POP POP PUSH1 0x40 PUSH3 0x32E DUP8 DUP3 DUP9 ADD PUSH3 0x289 JUMP JUMPDEST SWAP3 POP POP PUSH1 0x60 PUSH3 0x341 DUP8 DUP3 DUP9 ADD PUSH3 0x2C4 JUMP JUMPDEST SWAP2 POP POP SWAP3 SWAP6 SWAP2 SWAP5 POP SWAP3 POP JUMP JUMPDEST PUSH1 0x0 DUP3 DUP3 MSTORE PUSH1 0x20 DUP3 ADD SWAP1 POP SWAP3 SWAP2 POP POP JUMP JUMPDEST PUSH32 0x73746F636B20696E20706F6F6C206D757374206265207A65726F206F72206F6E PUSH1 0x0 DUP3 ADD MSTORE PUSH32 0x652E000000000000000000000000000000000000000000000000000000000000 PUSH1 0x20 DUP3 ADD MSTORE POP JUMP JUMPDEST PUSH1 0x0 PUSH3 0x3BC PUSH1 0x22 DUP4 PUSH3 0x34D JUMP JUMPDEST SWAP2 POP PUSH3 0x3C9 DUP3 PUSH3 0x35E JUMP JUMPDEST PUSH1 0x40 DUP3 ADD SWAP1 POP SWAP2 SWAP1 POP JUMP JUMPDEST PUSH1 0x0 PUSH1 0x20 DUP3 ADD SWAP1 POP DUP2 DUP2 SUB PUSH1 0x0 DUP4 ADD MSTORE PUSH3 0x3EF DUP2 PUSH3 0x3AD JUMP JUMPDEST SWAP1 POP SWAP2 SWAP1 POP JUMP JUMPDEST PUSH2 0x1F6C DUP1 PUSH3 0x406 PUSH1 0x0 CODECOPY PUSH1 0x0 RETURN INVALID PUSH1 0x80 PUSH1 0x40 MSTORE PUSH1 0x4 CALLDATASIZE LT PUSH2 0xF3 JUMPI PUSH1 0x0 CALLDATALOAD PUSH1 0xE0 SHR DUP1 PUSH4 0x7EF45FDE GT PUSH2 0x8A JUMPI DUP1 PUSH4 0xE30C3978 GT PUSH2 0x59 JUMPI DUP1 PUSH4 0xE30C3978 EQ PUSH2 0x30F JUMPI DUP1 PUSH4 0xF2FDE38B EQ PUSH2 0x33A JUMPI DUP1 PUSH4 0xF887EA40 EQ PUSH2 0x363 JUMPI DUP1 PUSH4 0xF92966E1 EQ PUSH2 0x38E JUMPI PUSH2 0xF3 JUMP JUMPDEST DUP1 PUSH4 0x7EF45FDE EQ PUSH2 0x23A JUMPI DUP1 PUSH4 0x8DA5CB5B EQ PUSH2 0x277 JUMPI DUP1 PUSH4 0xB6B55F25 EQ PUSH2 0x2A2 JUMPI DUP1 PUSH4 0xCE7C2AC2 EQ PUSH2 0x2D2 JUMPI PUSH2 0xF3 JUMP JUMPDEST DUP1 PUSH4 0x44C2B6D0 GT PUSH2 0xC6 JUMPI DUP1 PUSH4 0x44C2B6D0 EQ PUSH2 0x1A4 JUMPI DUP1 PUSH4 0x481C6A75 EQ PUSH2 0x1E1 JUMPI DUP1 PUSH4 0x4E71E0C8 EQ PUSH2 0x20C JUMPI DUP1 PUSH4 0x715018A6 EQ PUSH2 0x223 JUMPI PUSH2 0xF3 JUMP JUMPDEST DUP1 PUSH4 0x2C1B274 EQ PUSH2 0xF8 JUMPI DUP1 PUSH4 0x16F0115B EQ PUSH2 0x123 JUMPI DUP1 PUSH4 0x3CCFD60B EQ PUSH2 0x14E JUMPI DUP1 PUSH4 0x4230ADC9 EQ PUSH2 0x179 JUMPI JUMPDEST PUSH1 0x0 DUP1 REVERT JUMPDEST CALLVALUE DUP1 ISZERO PUSH2 0x104 JUMPI PUSH1 0x0 DUP1 REVERT JUMPDEST POP PUSH2 0x10D PUSH2 0x3B9 JUMP JUMPDEST PUSH1 0x40 MLOAD PUSH2 0x11A SWAP2 SWAP1 PUSH2 0x150A JUMP JUMPDEST PUSH1 0x40 MLOAD DUP1 SWAP2 SUB SWAP1 RETURN JUMPDEST CALLVALUE DUP1 ISZERO PUSH2 0x12F JUMPI PUSH1 0x0 DUP1 REVERT JUMPDEST POP PUSH2 0x138 PUSH2 0x3BF JUMP JUMPDEST PUSH1 0x40 MLOAD PUSH2 0x145 SWAP2 SWAP1 PUSH2 0x1566 JUMP JUMPDEST PUSH1 0x40 MLOAD DUP1 SWAP2 SUB SWAP1 RETURN JUMPDEST CALLVALUE DUP1 ISZERO PUSH2 0x15A JUMPI PUSH1 0x0 DUP1 REVERT JUMPDEST POP PUSH2 0x163 PUSH2 0x3E5 JUMP JUMPDEST PUSH1 0x40 MLOAD PUSH2 0x170 SWAP2 SWAP1 PUSH2 0x150A JUMP JUMPDEST PUSH1 0x40 MLOAD DUP1 SWAP2 SUB SWAP1 RETURN JUMPDEST CALLVALUE DUP1 ISZERO PUSH2 0x185 JUMPI PUSH1 0x0 DUP1 REVERT JUMPDEST POP PUSH2 0x18E PUSH2 0x528 JUMP JUMPDEST PUSH1 0x40 MLOAD PUSH2 0x19B SWAP2 SWAP1 PUSH2 0x150A JUMP JUMPDEST PUSH1 0x40 MLOAD DUP1 SWAP2 SUB SWAP1 RETURN JUMPDEST CALLVALUE DUP1 ISZERO PUSH2 0x1B0 JUMPI PUSH1 0x0 DUP1 REVERT JUMPDEST POP PUSH2 0x1CB PUSH1 0x4 DUP1 CALLDATASIZE SUB DUP2 ADD SWAP1 PUSH2 0x1C6 SWAP2 SWAP1 PUSH2 0x15DE JUMP JUMPDEST PUSH2 0x52E JUMP JUMPDEST PUSH1 0x40 MLOAD PUSH2 0x1D8 SWAP2 SWAP1 PUSH2 0x150A JUMP JUMPDEST PUSH1 0x40 MLOAD DUP1 SWAP2 SUB SWAP1 RETURN JUMPDEST CALLVALUE DUP1 ISZERO PUSH2 0x1ED JUMPI PUSH1 0x0 DUP1 REVERT JUMPDEST POP PUSH2 0x1F6 PUSH2 0x75F JUMP JUMPDEST PUSH1 0x40 MLOAD PUSH2 0x203 SWAP2 SWAP1 PUSH2 0x1566 JUMP JUMPDEST PUSH1 0x40 MLOAD DUP1 SWAP2 SUB SWAP1 RETURN JUMPDEST CALLVALUE DUP1 ISZERO PUSH2 0x218 JUMPI PUSH1 0x0 DUP1 REVERT JUMPDEST POP PUSH2 0x221 PUSH2 0x789 JUMP JUMPDEST STOP JUMPDEST CALLVALUE DUP1 ISZERO PUSH2 0x22F JUMPI PUSH1 0x0 DUP1 REVERT JUMPDEST POP PUSH2 0x238 PUSH2 0x888 JUMP JUMPDEST STOP JUMPDEST CALLVALUE DUP1 ISZERO PUSH2 0x246 JUMPI PUSH1 0x0 DUP1 REVERT JUMPDEST POP PUSH2 0x261 PUSH1 0x4 DUP1 CALLDATASIZE SUB DUP2 ADD SWAP1 PUSH2 0x25C SWAP2 SWAP1 PUSH2 0x15DE JUMP JUMPDEST PUSH2 0x909 JUMP JUMPDEST PUSH1 0x40 MLOAD PUSH2 0x26E SWAP2 SWAP1 PUSH2 0x150A JUMP JUMPDEST PUSH1 0x40 MLOAD DUP1 SWAP2 SUB SWAP1 RETURN JUMPDEST CALLVALUE DUP1 ISZERO PUSH2 0x283 JUMPI PUSH1 0x0 DUP1 REVERT JUMPDEST POP PUSH2 0x28C PUSH2 0xBB1 JUMP JUMPDEST PUSH1 0x40 MLOAD PUSH2 0x299 SWAP2 SWAP1 PUSH2 0x1566 JUMP JUMPDEST PUSH1 0x40 MLOAD DUP1 SWAP2 SUB SWAP1 RETURN JUMPDEST PUSH2 0x2BC PUSH1 0x4 DUP1 CALLDATASIZE SUB DUP2 ADD SWAP1 PUSH2 0x2B7 SWAP2 SWAP1 PUSH2 0x161E JUMP JUMPDEST PUSH2 0xBDA JUMP JUMPDEST PUSH1 0x40 MLOAD PUSH2 0x2C9 SWAP2 SWAP1 PUSH2 0x150A JUMP JUMPDEST PUSH1 0x40 MLOAD DUP1 SWAP2 SUB SWAP1 RETURN JUMPDEST CALLVALUE DUP1 ISZERO PUSH2 0x2DE JUMPI PUSH1 0x0 DUP1 REVERT JUMPDEST POP PUSH2 0x2F9 PUSH1 0x4 DUP1 CALLDATASIZE SUB DUP2 ADD SWAP1 PUSH2 0x2F4 SWAP2 SWAP1 PUSH2 0x1677 JUMP JUMPDEST PUSH2 0xD5A JUMP JUMPDEST PUSH1 0x40 MLOAD PUSH2 0x306 SWAP2 SWAP1 PUSH2 0x150A JUMP JUMPDEST PUSH1 0x40 MLOAD DUP1 SWAP2 SUB SWAP1 RETURN JUMPDEST CALLVALUE DUP1 ISZERO PUSH2 0x31B JUMPI PUSH1 0x0 DUP1 REVERT JUMPDEST POP PUSH2 0x324 PUSH2 0xD72 JUMP JUMPDEST PUSH1 0x40 MLOAD PUSH2 0x331 SWAP2 SWAP1 PUSH2 0x1566 JUMP JUMPDEST PUSH1 0x40 MLOAD DUP1 SWAP2 SUB SWAP1 RETURN JUMPDEST CALLVALUE DUP1 ISZERO PUSH2 0x346 JUMPI PUSH1 0x0 DUP1 REVERT JUMPDEST POP PUSH2 0x361 PUSH1 0x4 DUP1 CALLDATASIZE SUB DUP2 ADD SWAP1 PUSH2 0x35C SWAP2 SWAP1 PUSH2 0x1677 JUMP JUMPDEST PUSH2 0xD9C JUMP JUMPDEST STOP JUMPDEST CALLVALUE DUP1 ISZERO PUSH2 0x36F JUMPI PUSH1 0x0 DUP1 REVERT JUMPDEST POP PUSH2 0x378 PUSH2 0xF07 JUMP JUMPDEST PUSH1 0x40 MLOAD PUSH2 0x385 SWAP2 SWAP1 PUSH2 0x1566 JUMP JUMPDEST PUSH1 0x40 MLOAD DUP1 SWAP2 SUB SWAP1 RETURN JUMPDEST CALLVALUE DUP1 ISZERO PUSH2 0x39A JUMPI PUSH1 0x0 DUP1 REVERT JUMPDEST POP PUSH2 0x3A3 PUSH2 0xF2D JUMP JUMPDEST PUSH1 0x40 MLOAD PUSH2 0x3B0 SWAP2 SWAP1 PUSH2 0x150A JUMP JUMPDEST PUSH1 0x40 MLOAD DUP1 SWAP2 SUB SWAP1 RETURN JUMPDEST PUSH1 0x8 SLOAD DUP2 JUMP JUMPDEST PUSH1 0x4 PUSH1 0x0 SWAP1 SLOAD SWAP1 PUSH2 0x100 EXP SWAP1 DIV PUSH20 0xFFFFFFFFFFFFFFFFFFFFFFFFFFFFFFFFFFFFFFFF AND DUP2 JUMP JUMPDEST PUSH1 0x0 DUP1 PUSH1 0x5 PUSH1 0x0 CALLER PUSH20 0xFFFFFFFFFFFFFFFFFFFFFFFFFFFFFFFFFFFFFFFF AND PUSH20 0xFFFFFFFFFFFFFFFFFFFFFFFFFFFFFFFFFFFFFFFF AND DUP2 MSTORE PUSH1 0x20 ADD SWAP1 DUP2 MSTORE PUSH1 0x20 ADD PUSH1 0x0 KECCAK256 SLOAD SWAP1 POP PUSH1 0x0 DUP2 GT PUSH2 0x46D JUMPI PUSH1 0x40 MLOAD PUSH32 0x8C379A000000000000000000000000000000000000000000000000000000000 DUP2 MSTORE PUSH1 0x4 ADD PUSH2 0x464 SWAP1 PUSH2 0x1701 JUMP JUMPDEST PUSH1 0x40 MLOAD DUP1 SWAP2 SUB SWAP1 REVERT JUMPDEST PUSH1 0x0 PUSH2 0x498 PUSH1 0x7 SLOAD PUSH2 0x48A PUSH1 0x6 SLOAD DUP6 PUSH2 0xF33 SWAP1 SWAP2 SWAP1 PUSH4 0xFFFFFFFF AND JUMP JUMPDEST PUSH2 0xF49 SWAP1 SWAP2 SWAP1 PUSH4 0xFFFFFFFF AND JUMP JUMPDEST SWAP1 POP PUSH1 0x0 PUSH2 0x4A4 PUSH2 0xF5F JUMP JUMPDEST SWAP1 POP PUSH2 0x4D1 CALLER DUP4 DUP4 PUSH20 0xFFFFFFFFFFFFFFFFFFFFFFFFFFFFFFFFFFFFFFFF AND PUSH2 0x109A SWAP1 SWAP3 SWAP2 SWAP1 PUSH4 0xFFFFFFFF AND JUMP JUMPDEST CALLER PUSH20 0xFFFFFFFFFFFFFFFFFFFFFFFFFFFFFFFFFFFFFFFF AND PUSH32 0x884EDAD9CE6FA2440D8A54CC123490EB96D2768479D49FF9C7366125A9424364 DUP4 PUSH1 0x40 MLOAD PUSH2 0x517 SWAP2 SWAP1 PUSH2 0x150A JUMP JUMPDEST PUSH1 0x40 MLOAD DUP1 SWAP2 SUB SWAP1 LOG2 DUP2 SWAP4 POP POP POP POP SWAP1 JUMP JUMPDEST PUSH1 0x6 SLOAD DUP2 JUMP JUMPDEST PUSH1 0x0 DUP1 DUP4 GT PUSH2 0x572 JUMPI PUSH1 0x40 MLOAD PUSH32 0x8C379A000000000000000000000000000000000000000000000000000000000 DUP2 MSTORE PUSH1 0x4 ADD PUSH2 0x569 SWAP1 PUSH2 0x176D JUMP JUMPDEST PUSH1 0x40 MLOAD DUP1 SWAP2 SUB SWAP1 REVERT JUMPDEST PUSH1 0x0 PUSH2 0x57C PUSH2 0xF5F JUMP JUMPDEST SWAP1 POP PUSH1 0x0 PUSH2 0x588 PUSH2 0xF5F JUMP JUMPDEST SWAP1 POP PUSH1 0x0 PUSH1 0x4 PUSH1 0x0 SWAP1 SLOAD SWAP1 PUSH2 0x100 EXP SWAP1 DIV PUSH20 0xFFFFFFFFFFFFFFFFFFFFFFFFFFFFFFFFFFFFFFFF AND PUSH20 0xFFFFFFFFFFFFFFFFFFFFFFFFFFFFFFFFFFFFFFFF AND PUSH4 0xDDCA3F43 PUSH1 0x40 MLOAD DUP2 PUSH4 0xFFFFFFFF AND PUSH1 0xE0 SHL DUP2 MSTORE PUSH1 0x4 ADD PUSH1 0x20 PUSH1 0x40 MLOAD DUP1 DUP4 SUB DUP2 DUP7 GAS STATICCALL ISZERO DUP1 ISZERO PUSH2 0x5F9 JUMPI RETURNDATASIZE PUSH1 0x0 DUP1 RETURNDATACOPY RETURNDATASIZE PUSH1 0x0 REVERT JUMPDEST POP POP POP POP PUSH1 0x40 MLOAD RETURNDATASIZE PUSH1 0x1F NOT PUSH1 0x1F DUP3 ADD AND DUP3 ADD DUP1 PUSH1 0x40 MSTORE POP DUP2 ADD SWAP1 PUSH2 0x61D SWAP2 SWAP1 PUSH2 0x17C8 JUMP JUMPDEST SWAP1 POP PUSH1 0x3 PUSH1 0x0 SWAP1 SLOAD SWAP1 PUSH2 0x100 EXP SWAP1 DIV PUSH20 0xFFFFFFFFFFFFFFFFFFFFFFFFFFFFFFFFFFFFFFFF AND PUSH20 0xFFFFFFFFFFFFFFFFFFFFFFFFFFFFFFFFFFFFFFFF AND PUSH4 0x414BF389 PUSH1 0x40 MLOAD DUP1 PUSH2 0x100 ADD PUSH1 0x40 MSTORE DUP1 DUP7 PUSH20 0xFFFFFFFFFFFFFFFFFFFFFFFFFFFFFFFFFFFFFFFF AND DUP2 MSTORE PUSH1 0x20 ADD DUP6 PUSH20 0xFFFFFFFFFFFFFFFFFFFFFFFFFFFFFFFFFFFFFFFF AND DUP2 MSTORE PUSH1 0x20 ADD DUP5 PUSH3 0xFFFFFF AND DUP2 MSTORE PUSH1 0x20 ADD ADDRESS PUSH20 0xFFFFFFFFFFFFFFFFFFFFFFFFFFFFFFFFFFFFFFFF AND DUP2 MSTORE PUSH1 0x20 ADD TIMESTAMP DUP2 MSTORE PUSH1 0x20 ADD PUSH1 0x7 SLOAD DUP2 MSTORE PUSH1 0x20 ADD DUP10 DUP2 MSTORE PUSH1 0x20 ADD DUP9 PUSH20 0xFFFFFFFFFFFFFFFFFFFFFFFFFFFFFFFFFFFFFFFF AND DUP2 MSTORE POP PUSH1 0x40 MLOAD DUP3 PUSH4 0xFFFFFFFF AND PUSH1 0xE0 SHL DUP2 MSTORE PUSH1 0x4 ADD PUSH2 0x712 SWAP2 SWAP1 PUSH2 0x18D3 JUMP JUMPDEST PUSH1 0x20 PUSH1 0x40 MLOAD DUP1 DUP4 SUB DUP2 PUSH1 0x0 DUP8 GAS CALL ISZERO DUP1 ISZERO PUSH2 0x731 JUMPI RETURNDATASIZE PUSH1 0x0 DUP1 RETURNDATACOPY RETURNDATASIZE PUSH1 0x0 REVERT JUMPDEST POP POP POP POP PUSH1 0x40 MLOAD RETURNDATASIZE PUSH1 0x1F NOT PUSH1 0x1F DUP3 ADD AND DUP3 ADD DUP1 PUSH1 0x40 MSTORE POP DUP2 ADD SWAP1 PUSH2 0x755 SWAP2 SWAP1 PUSH2 0x1904 JUMP JUMPDEST POP POP POP POP SWAP3 SWAP2 POP POP JUMP JUMPDEST PUSH1 0x0 PUSH1 0x2 PUSH1 0x0 SWAP1 SLOAD SWAP1 PUSH2 0x100 EXP SWAP1 DIV PUSH20 0xFFFFFFFFFFFFFFFFFFFFFFFFFFFFFFFFFFFFFFFF AND SWAP1 POP SWAP1 JUMP JUMPDEST PUSH1 0x1 PUSH1 0x0 SWAP1 SLOAD SWAP1 PUSH2 0x100 EXP SWAP1 DIV PUSH20 0xFFFFFFFFFFFFFFFFFFFFFFFFFFFFFFFFFFFFFFFF AND PUSH20 0xFFFFFFFFFFFFFFFFFFFFFFFFFFFFFFFFFFFFFFFF AND CALLER PUSH20 0xFFFFFFFFFFFFFFFFFFFFFFFFFFFFFFFFFFFFFFFF AND EQ PUSH2 0x819 JUMPI PUSH1 0x40 MLOAD PUSH32 0x8C379A000000000000000000000000000000000000000000000000000000000 DUP2 MSTORE PUSH1 0x4 ADD PUSH2 0x810 SWAP1 PUSH2 0x197D JUMP JUMPDEST PUSH1 0x40 MLOAD DUP1 SWAP2 SUB SWAP1 REVERT JUMPDEST PUSH2 0x844 PUSH1 0x1 PUSH1 0x0 SWAP1 SLOAD SWAP1 PUSH2 0x100 EXP SWAP1 DIV PUSH20 0xFFFFFFFFFFFFFFFFFFFFFFFFFFFFFFFFFFFFFFFF AND PUSH2 0x1120 JUMP JUMPDEST PUSH1 0x0 PUSH1 0x1 PUSH1 0x0 PUSH2 0x100 EXP DUP2 SLOAD DUP2 PUSH20 0xFFFFFFFFFFFFFFFFFFFFFFFFFFFFFFFFFFFFFFFF MUL NOT AND SWAP1 DUP4 PUSH20 0xFFFFFFFFFFFFFFFFFFFFFFFFFFFFFFFFFFFFFFFF AND MUL OR SWAP1 SSTORE POP JUMP JUMPDEST CALLER PUSH20 0xFFFFFFFFFFFFFFFFFFFFFFFFFFFFFFFFFFFFFFFF AND PUSH2 0x8A7 PUSH2 0xBB1 JUMP JUMPDEST PUSH20 0xFFFFFFFFFFFFFFFFFFFFFFFFFFFFFFFFFFFFFFFF AND EQ PUSH2 0x8FD JUMPI PUSH1 0x40 MLOAD PUSH32 0x8C379A000000000000000000000000000000000000000000000000000000000 DUP2 MSTORE PUSH1 0x4 ADD PUSH2 0x8F4 SWAP1 PUSH2 0x19E9 JUMP JUMPDEST PUSH1 0x40 MLOAD DUP1 SWAP2 SUB SWAP1 REVERT JUMPDEST PUSH2 0x907 PUSH1 0x0 PUSH2 0x1120 JUMP JUMPDEST JUMP JUMPDEST PUSH1 0x0 DUP1 DUP4 GT PUSH2 0x94D JUMPI PUSH1 0x40 MLOAD PUSH32 0x8C379A000000000000000000000000000000000000000000000000000000000 DUP2 MSTORE PUSH1 0x4 ADD PUSH2 0x944 SWAP1 PUSH2 0x176D JUMP JUMPDEST PUSH1 0x40 MLOAD DUP1 SWAP2 SUB SWAP1 REVERT JUMPDEST PUSH1 0x0 PUSH2 0x957 PUSH2 0xF5F JUMP JUMPDEST SWAP1 POP PUSH1 0x0 PUSH2 0x963 PUSH2 0xF5F JUMP JUMPDEST SWAP1 POP PUSH1 0x0 PUSH1 0x4 PUSH1 0x0 SWAP1 SLOAD SWAP1 PUSH2 0x100 EXP SWAP1 DIV PUSH20 0xFFFFFFFFFFFFFFFFFFFFFFFFFFFFFFFFFFFFFFFF AND PUSH20 0xFFFFFFFFFFFFFFFFFFFFFFFFFFFFFFFFFFFFFFFF AND PUSH4 0xDDCA3F43 PUSH1 0x40 MLOAD DUP2 PUSH4 0xFFFFFFFF AND PUSH1 0xE0 SHL DUP2 MSTORE PUSH1 0x4 ADD PUSH1 0x20 PUSH1 0x40 MLOAD DUP1 DUP4 SUB DUP2 DUP7 GAS STATICCALL ISZERO DUP1 ISZERO PUSH2 0x9D4 JUMPI RETURNDATASIZE PUSH1 0x0 DUP1 RETURNDATACOPY RETURNDATASIZE PUSH1 0x0 REVERT JUMPDEST POP POP POP POP PUSH1 0x40 MLOAD RETURNDATASIZE PUSH1 0x1F NOT PUSH1 0x1F DUP3 ADD AND DUP3 ADD DUP1 PUSH1 0x40 MSTORE POP DUP2 ADD SWAP1 PUSH2 0x9F8 SWAP2 SWAP1 PUSH2 0x17C8 JUMP JUMPDEST SWAP1 POP PUSH1 0x3 PUSH1 0x0 SWAP1 SLOAD SWAP1 PUSH2 0x100 EXP SWAP1 DIV PUSH20 0xFFFFFFFFFFFFFFFFFFFFFFFFFFFFFFFFFFFFFFFF AND PUSH20 0xFFFFFFFFFFFFFFFFFFFFFFFFFFFFFFFFFFFFFFFF AND PUSH4 0x414BF389 PUSH1 0x40 MLOAD DUP1 PUSH2 0x100 ADD PUSH1 0x40 MSTORE DUP1 DUP6 PUSH20 0xFFFFFFFFFFFFFFFFFFFFFFFFFFFFFFFFFFFFFFFF AND DUP2 MSTORE PUSH1 0x20 ADD DUP7 PUSH20 0xFFFFFFFFFFFFFFFFFFFFFFFFFFFFFFFFFFFFFFFF AND DUP2 MSTORE PUSH1 0x20 ADD DUP5 PUSH3 0xFFFFFF AND DUP2 MSTORE PUSH1 0x20 ADD ADDRESS PUSH20 0xFFFFFFFFFFFFFFFFFFFFFFFFFFFFFFFFFFFFFFFF AND DUP2 MSTORE PUSH1 0x20 ADD TIMESTAMP DUP2 MSTORE PUSH1 0x20 ADD DUP6 PUSH20 0xFFFFFFFFFFFFFFFFFFFFFFFFFFFFFFFFFFFFFFFF AND PUSH4 0x70A08231 ADDRESS PUSH1 0x40 MLOAD DUP3 PUSH4 0xFFFFFFFF AND PUSH1 0xE0 SHL DUP2 MSTORE PUSH1 0x4 ADD PUSH2 0xAE2 SWAP2 SWAP1 PUSH2 0x1566 JUMP JUMPDEST PUSH1 0x20 PUSH1 0x40 MLOAD DUP1 DUP4 SUB DUP2 DUP7 GAS STATICCALL ISZERO DUP1 ISZERO PUSH2 0xAFF JUMPI RETURNDATASIZE PUSH1 0x0 DUP1 RETURNDATACOPY RETURNDATASIZE PUSH1 0x0 REVERT JUMPDEST POP POP POP POP PUSH1 0x40 MLOAD RETURNDATASIZE PUSH1 0x1F NOT PUSH1 0x1F DUP3 ADD AND DUP3 ADD DUP1 PUSH1 0x40 MSTORE POP DUP2 ADD SWAP1 PUSH2 0xB23 SWAP2 SWAP1 PUSH2 0x1904 JUMP JUMPDEST DUP2 MSTORE PUSH1 0x20 ADD DUP10 DUP2 MSTORE PUSH1 0x20 ADD DUP9 PUSH20 0xFFFFFFFFFFFFFFFFFFFFFFFFFFFFFFFFFFFFFFFF AND DUP2 MSTORE POP PUSH1 0x40 MLOAD DUP3 PUSH4 0xFFFFFFFF AND PUSH1 0xE0 SHL DUP2 MSTORE PUSH1 0x4 ADD PUSH2 0xB64 SWAP2 SWAP1 PUSH2 0x18D3 JUMP JUMPDEST PUSH1 0x20 PUSH1 0x40 MLOAD DUP1 DUP4 SUB DUP2 PUSH1 0x0 DUP8 GAS CALL ISZERO DUP1 ISZERO PUSH2 0xB83 JUMPI RETURNDATASIZE PUSH1 0x0 DUP1 RETURNDATACOPY RETURNDATASIZE PUSH1 0x0 REVERT JUMPDEST POP POP POP POP PUSH1 0x40 MLOAD RETURNDATASIZE PUSH1 0x1F NOT PUSH1 0x1F DUP3 ADD AND DUP3 ADD DUP1 PUSH1 0x40 MSTORE POP DUP2 ADD SWAP1 PUSH2 0xBA7 SWAP2 SWAP1 PUSH2 0x1904 JUMP JUMPDEST POP POP POP POP SWAP3 SWAP2 POP POP JUMP JUMPDEST PUSH1 0x0 DUP1 PUSH1 0x0 SWAP1 SLOAD SWAP1 PUSH2 0x100 EXP SWAP1 DIV PUSH20 0xFFFFFFFFFFFFFFFFFFFFFFFFFFFFFFFFFFFFFFFF AND SWAP1 POP SWAP1 JUMP JUMPDEST PUSH1 0x0 DUP2 PUSH1 0x5 PUSH1 0x0 CALLER PUSH20 0xFFFFFFFFFFFFFFFFFFFFFFFFFFFFFFFFFFFFFFFF AND PUSH20 0xFFFFFFFFFFFFFFFFFFFFFFFFFFFFFFFFFFFFFFFF AND DUP2 MSTORE PUSH1 0x20 ADD SWAP1 DUP2 MSTORE PUSH1 0x20 ADD PUSH1 0x0 KECCAK256 PUSH1 0x0 DUP3 DUP3 SLOAD PUSH2 0xC2B SWAP2 SWAP1 PUSH2 0x1A38 JUMP JUMPDEST SWAP3 POP POP DUP2 SWAP1 SSTORE POP CALLVALUE PUSH1 0x7 PUSH1 0x0 DUP3 DUP3 SLOAD PUSH2 0xC44 SWAP2 SWAP1 PUSH2 0x1A38 JUMP JUMPDEST SWAP3 POP POP DUP2 SWAP1 SSTORE POP PUSH1 0x0 PUSH2 0xC55 PUSH2 0xF5F JUMP JUMPDEST SWAP1 POP DUP1 PUSH20 0xFFFFFFFFFFFFFFFFFFFFFFFFFFFFFFFFFFFFFFFF AND PUSH4 0x95EA7B3 ADDRESS DUP6 PUSH1 0x40 MLOAD DUP4 PUSH4 0xFFFFFFFF AND PUSH1 0xE0 SHL DUP2 MSTORE PUSH1 0x4 ADD PUSH2 0xC92 SWAP3 SWAP2 SWAP1 PUSH2 0x1A6C JUMP JUMPDEST PUSH1 0x20 PUSH1 0x40 MLOAD DUP1 DUP4 SUB DUP2 PUSH1 0x0 DUP8 GAS CALL ISZERO DUP1 ISZERO PUSH2 0xCB1 JUMPI RETURNDATASIZE PUSH1 0x0 DUP1 RETURNDATACOPY RETURNDATASIZE PUSH1 0x0 REVERT JUMPDEST POP POP POP POP PUSH1 0x40 MLOAD RETURNDATASIZE PUSH1 0x1F NOT PUSH1 0x1F DUP3 ADD AND DUP3 ADD DUP1 PUSH1 0x40 MSTORE POP DUP2 ADD SWAP1 PUSH2 0xCD5 SWAP2 SWAP1 PUSH2 0x1ACD JUMP JUMPDEST POP PUSH2 0xD03 CALLER ADDRESS DUP6 DUP5 PUSH20 0xFFFFFFFFFFFFFFFFFFFFFFFFFFFFFFFFFFFFFFFF AND PUSH2 0x11E4 SWAP1 SWAP4 SWAP3 SWAP2 SWAP1 PUSH4 0xFFFFFFFF AND JUMP JUMPDEST CALLER PUSH20 0xFFFFFFFFFFFFFFFFFFFFFFFFFFFFFFFFFFFFFFFF AND PUSH32 0xE1FFFCC4923D04B559F4D29A8BFC6CDA04EB5B0D3C460751C2402C5C5CC9109C DUP5 PUSH1 0x40 MLOAD PUSH2 0xD49 SWAP2 SWAP1 PUSH2 0x150A JUMP JUMPDEST PUSH1 0x40 MLOAD DUP1 SWAP2 SUB SWAP1 LOG2 DUP3 SWAP2 POP POP SWAP2 SWAP1 POP JUMP JUMPDEST PUSH1 0x5 PUSH1 0x20 MSTORE DUP1 PUSH1 0x0 MSTORE PUSH1 0x40 PUSH1 0x0 KECCAK256 PUSH1 0x0 SWAP2 POP SWAP1 POP SLOAD DUP2 JUMP JUMPDEST PUSH1 0x0 PUSH1 0x1 PUSH1 0x0 SWAP1 SLOAD SWAP1 PUSH2 0x100 EXP SWAP1 DIV PUSH20 0xFFFFFFFFFFFFFFFFFFFFFFFFFFFFFFFFFFFFFFFF AND SWAP1 POP SWAP1 JUMP JUMPDEST CALLER PUSH20 0xFFFFFFFFFFFFFFFFFFFFFFFFFFFFFFFFFFFFFFFF AND PUSH2 0xDBB PUSH2 0xBB1 JUMP JUMPDEST PUSH20 0xFFFFFFFFFFFFFFFFFFFFFFFFFFFFFFFFFFFFFFFF AND EQ PUSH2 0xE11 JUMPI PUSH1 0x40 MLOAD PUSH32 0x8C379A000000000000000000000000000000000000000000000000000000000 DUP2 MSTORE PUSH1 0x4 ADD PUSH2 0xE08 SWAP1 PUSH2 0x19E9 JUMP JUMPDEST PUSH1 0x40 MLOAD DUP1 SWAP2 SUB SWAP1 REVERT JUMPDEST PUSH1 0x0 PUSH20 0xFFFFFFFFFFFFFFFFFFFFFFFFFFFFFFFFFFFFFFFF AND DUP2 PUSH20 0xFFFFFFFFFFFFFFFFFFFFFFFFFFFFFFFFFFFFFFFF AND SUB PUSH2 0xE80 JUMPI PUSH1 0x40 MLOAD PUSH32 0x8C379A000000000000000000000000000000000000000000000000000000000 DUP2 MSTORE PUSH1 0x4 ADD PUSH2 0xE77 SWAP1 PUSH2 0x1B6C JUMP JUMPDEST PUSH1 0x40 MLOAD DUP1 SWAP2 SUB SWAP1 REVERT JUMPDEST DUP1 PUSH1 0x1 PUSH1 0x0 PUSH2 0x100 EXP DUP2 SLOAD DUP2 PUSH20 0xFFFFFFFFFFFFFFFFFFFFFFFFFFFFFFFFFFFFFFFF MUL NOT AND SWAP1 DUP4 PUSH20 0xFFFFFFFFFFFFFFFFFFFFFFFFFFFFFFFFFFFFFFFF AND MUL OR SWAP1 SSTORE POP DUP1 PUSH20 0xFFFFFFFFFFFFFFFFFFFFFFFFFFFFFFFFFFFFFFFF AND PUSH32 0x239A2DDDED15777FA246AED5F7E1A9BC69A39D4EB4A397034D1D85766CCA7D4C PUSH1 0x40 MLOAD PUSH1 0x40 MLOAD DUP1 SWAP2 SUB SWAP1 LOG2 POP JUMP JUMPDEST PUSH1 0x3 PUSH1 0x0 SWAP1 SLOAD SWAP1 PUSH2 0x100 EXP SWAP1 DIV PUSH20 0xFFFFFFFFFFFFFFFFFFFFFFFFFFFFFFFFFFFFFFFF AND DUP2 JUMP JUMPDEST PUSH1 0x7 SLOAD DUP2 JUMP JUMPDEST PUSH1 0x0 DUP2 DUP4 PUSH2 0xF41 SWAP2 SWAP1 PUSH2 0x1B8C JUMP JUMPDEST SWAP1 POP SWAP3 SWAP2 POP POP JUMP JUMPDEST PUSH1 0x0 DUP2 DUP4 PUSH2 0xF57 SWAP2 SWAP1 PUSH2 0x1BFD JUMP JUMPDEST SWAP1 POP SWAP3 SWAP2 POP POP JUMP JUMPDEST PUSH1 0x0 DUP1 PUSH1 0x4 PUSH1 0x0 SWAP1 SLOAD SWAP1 PUSH2 0x100 EXP SWAP1 DIV PUSH20 0xFFFFFFFFFFFFFFFFFFFFFFFFFFFFFFFFFFFFFFFF AND PUSH20 0xFFFFFFFFFFFFFFFFFFFFFFFFFFFFFFFFFFFFFFFF AND PUSH4 0xDFE1681 PUSH1 0x40 MLOAD DUP2 PUSH4 0xFFFFFFFF AND PUSH1 0xE0 SHL DUP2 MSTORE PUSH1 0x4 ADD PUSH1 0x20 PUSH1 0x40 MLOAD DUP1 DUP4 SUB DUP2 DUP7 GAS STATICCALL ISZERO DUP1 ISZERO PUSH2 0xFCF JUMPI RETURNDATASIZE PUSH1 0x0 DUP1 RETURNDATACOPY RETURNDATASIZE PUSH1 0x0 REVERT JUMPDEST POP POP POP POP PUSH1 0x40 MLOAD RETURNDATASIZE PUSH1 0x1F NOT PUSH1 0x1F DUP3 ADD AND DUP3 ADD DUP1 PUSH1 0x40 MSTORE POP DUP2 ADD SWAP1 PUSH2 0xFF3 SWAP2 SWAP1 PUSH2 0x1C43 JUMP JUMPDEST SWAP1 POP PUSH1 0x1 PUSH1 0x8 SLOAD SUB PUSH2 0x1093 JUMPI PUSH1 0x4 PUSH1 0x0 SWAP1 SLOAD SWAP1 PUSH2 0x100 EXP SWAP1 DIV PUSH20 0xFFFFFFFFFFFFFFFFFFFFFFFFFFFFFFFFFFFFFFFF AND PUSH20 0xFFFFFFFFFFFFFFFFFFFFFFFFFFFFFFFFFFFFFFFF AND PUSH4 0xD21220A7 PUSH1 0x40 MLOAD DUP2 PUSH4 0xFFFFFFFF AND PUSH1 0xE0 SHL DUP2 MSTORE PUSH1 0x4 ADD PUSH1 0x20 PUSH1 0x40 MLOAD DUP1 DUP4 SUB DUP2 DUP7 GAS STATICCALL ISZERO DUP1 ISZERO PUSH2 0x106C JUMPI RETURNDATASIZE PUSH1 0x0 DUP1 RETURNDATACOPY RETURNDATASIZE PUSH1 0x0 REVERT JUMPDEST POP POP POP POP PUSH1 0x40 MLOAD RETURNDATASIZE PUSH1 0x1F NOT PUSH1 0x1F DUP3 ADD AND DUP3 ADD DUP1 PUSH1 0x40 MSTORE POP DUP2 ADD SWAP1 PUSH2 0x1090 SWAP2 SWAP1 PUSH2 0x1C43 JUMP JUMPDEST SWAP1 POP JUMPDEST DUP1 SWAP2 POP POP SWAP1 JUMP JUMPDEST PUSH2 0x111B DUP4 PUSH4 0xA9059CBB PUSH1 0xE0 SHL DUP5 DUP5 PUSH1 0x40 MLOAD PUSH1 0x24 ADD PUSH2 0x10B9 SWAP3 SWAP2 SWAP1 PUSH2 0x1A6C JUMP JUMPDEST PUSH1 0x40 MLOAD PUSH1 0x20 DUP2 DUP4 SUB SUB DUP2 MSTORE SWAP1 PUSH1 0x40 MSTORE SWAP1 PUSH28 0xFFFFFFFFFFFFFFFFFFFFFFFFFFFFFFFFFFFFFFFFFFFFFFFFFFFFFFFF NOT AND PUSH1 0x20 DUP3 ADD DUP1 MLOAD PUSH28 0xFFFFFFFFFFFFFFFFFFFFFFFFFFFFFFFFFFFFFFFFFFFFFFFFFFFFFFFF DUP4 DUP2 DUP4 AND OR DUP4 MSTORE POP POP POP POP PUSH2 0x126D JUMP JUMPDEST POP POP POP JUMP JUMPDEST PUSH1 0x0 DUP1 PUSH1 0x0 SWAP1 SLOAD SWAP1 PUSH2 0x100 EXP SWAP1 DIV PUSH20 0xFFFFFFFFFFFFFFFFFFFFFFFFFFFFFFFFFFFFFFFF AND SWAP1 POP DUP2 PUSH1 0x0 DUP1 PUSH2 0x100 EXP DUP2 SLOAD DUP2 PUSH20 0xFFFFFFFFFFFFFFFFFFFFFFFFFFFFFFFFFFFFFFFF MUL NOT AND SWAP1 DUP4 PUSH20 0xFFFFFFFFFFFFFFFFFFFFFFFFFFFFFFFFFFFFFFFF AND MUL OR SWAP1 SSTORE POP DUP2 PUSH20 0xFFFFFFFFFFFFFFFFFFFFFFFFFFFFFFFFFFFFFFFF AND DUP2 PUSH20 0xFFFFFFFFFFFFFFFFFFFFFFFFFFFFFFFFFFFFFFFF AND PUSH32 0x8BE0079C531659141344CD1FD0A4F28419497F9722A3DAAFE3B4186F6B6457E0 PUSH1 0x40 MLOAD PUSH1 0x40 MLOAD DUP1 SWAP2 SUB SWAP1 LOG3 POP POP JUMP JUMPDEST PUSH2 0x1267 DUP5 PUSH4 0x23B872DD PUSH1 0xE0 SHL DUP6 DUP6 DUP6 PUSH1 0x40 MLOAD PUSH1 0x24 ADD PUSH2 0x1205 SWAP4 SWAP3 SWAP2 SWAP1 PUSH2 0x1C70 JUMP JUMPDEST PUSH1 0x40 MLOAD PUSH1 0x20 DUP2 DUP4 SUB SUB DUP2 MSTORE SWAP1 PUSH1 0x40 MSTORE SWAP1 PUSH28 0xFFFFFFFFFFFFFFFFFFFFFFFFFFFFFFFFFFFFFFFFFFFFFFFFFFFFFFFF NOT AND PUSH1 0x20 DUP3 ADD DUP1 MLOAD PUSH28 0xFFFFFFFFFFFFFFFFFFFFFFFFFFFFFFFFFFFFFFFFFFFFFFFFFFFFFFFF DUP4 DUP2 DUP4 AND OR DUP4 MSTORE POP POP POP POP PUSH2 0x126D JUMP JUMPDEST POP POP POP POP JUMP JUMPDEST PUSH1 0x0 PUSH2 0x12CF DUP3 PUSH1 0x40 MLOAD DUP1 PUSH1 0x40 ADD PUSH1 0x40 MSTORE DUP1 PUSH1 0x20 DUP2 MSTORE PUSH1 0x20 ADD PUSH32 0x5361666545524332303A206C6F772D6C6576656C2063616C6C206661696C6564 DUP2 MSTORE POP DUP6 PUSH20 0xFFFFFFFFFFFFFFFFFFFFFFFFFFFFFFFFFFFFFFFF AND PUSH2 0x1334 SWAP1 SWAP3 SWAP2 SWAP1 PUSH4 0xFFFFFFFF AND JUMP JUMPDEST SWAP1 POP PUSH1 0x0 DUP2 MLOAD GT ISZERO PUSH2 0x132F JUMPI DUP1 DUP1 PUSH1 0x20 ADD SWAP1 MLOAD DUP2 ADD SWAP1 PUSH2 0x12EF SWAP2 SWAP1 PUSH2 0x1ACD JUMP JUMPDEST PUSH2 0x132E JUMPI PUSH1 0x40 MLOAD PUSH32 0x8C379A000000000000000000000000000000000000000000000000000000000 DUP2 MSTORE PUSH1 0x4 ADD PUSH2 0x1325 SWAP1 PUSH2 0x1D19 JUMP JUMPDEST PUSH1 0x40 MLOAD DUP1 SWAP2 SUB SWAP1 REVERT JUMPDEST JUMPDEST POP POP POP JUMP JUMPDEST PUSH1 0x60 PUSH2 0x1343 DUP5 DUP5 PUSH1 0x0 DUP6 PUSH2 0x134C JUMP JUMPDEST SWAP1 POP SWAP4 SWAP3 POP POP POP JUMP JUMPDEST PUSH1 0x60 DUP3 SELFBALANCE LT ISZERO PUSH2 0x1391 JUMPI PUSH1 0x40 MLOAD PUSH32 0x8C379A000000000000000000000000000000000000000000000000000000000 DUP2 MSTORE PUSH1 0x4 ADD PUSH2 0x1388 SWAP1 PUSH2 0x1DAB JUMP JUMPDEST PUSH1 0x40 MLOAD DUP1 SWAP2 SUB SWAP1 REVERT JUMPDEST PUSH1 0x0 DUP1 DUP7 PUSH20 0xFFFFFFFFFFFFFFFFFFFFFFFFFFFFFFFFFFFFFFFF AND DUP6 DUP8 PUSH1 0x40 MLOAD PUSH2 0x13BA SWAP2 SWAP1 PUSH2 0x1E3C JUMP JUMPDEST PUSH1 0x0 PUSH1 0x40 MLOAD DUP1 DUP4 SUB DUP2 DUP6 DUP8 GAS CALL SWAP3 POP POP POP RETURNDATASIZE DUP1 PUSH1 0x0 DUP2 EQ PUSH2 0x13F7 JUMPI PUSH1 0x40 MLOAD SWAP2 POP PUSH1 0x1F NOT PUSH1 0x3F RETURNDATASIZE ADD AND DUP3 ADD PUSH1 0x40 MSTORE RETURNDATASIZE DUP3 MSTORE RETURNDATASIZE PUSH1 0x0 PUSH1 0x20 DUP5 ADD RETURNDATACOPY PUSH2 0x13FC JUMP JUMPDEST PUSH1 0x60 SWAP2 POP JUMPDEST POP SWAP2 POP SWAP2 POP PUSH2 0x140D DUP8 DUP4 DUP4 DUP8 PUSH2 0x1419 JUMP JUMPDEST SWAP3 POP POP POP SWAP5 SWAP4 POP POP POP POP JUMP JUMPDEST PUSH1 0x60 DUP4 ISZERO PUSH2 0x147B JUMPI PUSH1 0x0 DUP4 MLOAD SUB PUSH2 0x1473 JUMPI PUSH2 0x1433 DUP6 PUSH2 0x148E JUMP JUMPDEST PUSH2 0x1472 JUMPI PUSH1 0x40 MLOAD PUSH32 0x8C379A000000000000000000000000000000000000000000000000000000000 DUP2 MSTORE PUSH1 0x4 ADD PUSH2 0x1469 SWAP1 PUSH2 0x1E9F JUMP JUMPDEST PUSH1 0x40 MLOAD DUP1 SWAP2 SUB SWAP1 REVERT JUMPDEST JUMPDEST DUP3 SWAP1 POP PUSH2 0x1486 JUMP JUMPDEST PUSH2 0x1485 DUP4 DUP4 PUSH2 0x14A1 JUMP JUMPDEST JUMPDEST SWAP5 SWAP4 POP POP POP POP JUMP JUMPDEST PUSH1 0x0 DUP1 DUP3 EXTCODESIZE SWAP1 POP PUSH1 0x0 DUP2 GT SWAP2 POP POP SWAP2 SWAP1 POP JUMP JUMPDEST PUSH1 0x0 DUP3 MLOAD GT ISZERO PUSH2 0x14B4 JUMPI DUP2 MLOAD DUP1 DUP4 PUSH1 0x20 ADD REVERT JUMPDEST DUP1 PUSH1 0x40 MLOAD PUSH32 0x8C379A000000000000000000000000000000000000000000000000000000000 DUP2 MSTORE PUSH1 0x4 ADD PUSH2 0x14E8 SWAP2 SWAP1 PUSH2 0x1F14 JUMP JUMPDEST PUSH1 0x40 MLOAD DUP1 SWAP2 SUB SWAP1 REVERT JUMPDEST PUSH1 0x0 DUP2 SWAP1 POP SWAP2 SWAP1 POP JUMP JUMPDEST PUSH2 0x1504 DUP2 PUSH2 0x14F1 JUMP JUMPDEST DUP3 MSTORE POP POP JUMP JUMPDEST PUSH1 0x0 PUSH1 0x20 DUP3 ADD SWAP1 POP PUSH2 0x151F PUSH1 0x0 DUP4 ADD DUP5 PUSH2 0x14FB JUMP JUMPDEST SWAP3 SWAP2 POP POP JUMP JUMPDEST PUSH1 0x0 PUSH20 0xFFFFFFFFFFFFFFFFFFFFFFFFFFFFFFFFFFFFFFFF DUP3 AND SWAP1 POP SWAP2 SWAP1 POP JUMP JUMPDEST PUSH1 0x0 PUSH2 0x1550 DUP3 PUSH2 0x1525 JUMP JUMPDEST SWAP1 POP SWAP2 SWAP1 POP JUMP JUMPDEST PUSH2 0x1560 DUP2 PUSH2 0x1545 JUMP JUMPDEST DUP3 MSTORE POP POP JUMP JUMPDEST PUSH1 0x0 PUSH1 0x20 DUP3 ADD SWAP1 POP PUSH2 0x157B PUSH1 0x0 DUP4 ADD DUP5 PUSH2 0x1557 JUMP JUMPDEST SWAP3 SWAP2 POP POP JUMP JUMPDEST PUSH1 0x0 DUP1 REVERT JUMPDEST PUSH2 0x158F DUP2 PUSH2 0x14F1 JUMP JUMPDEST DUP2 EQ PUSH2 0x159A JUMPI PUSH1 0x0 DUP1 REVERT JUMPDEST POP JUMP JUMPDEST PUSH1 0x0 DUP2 CALLDATALOAD SWAP1 POP PUSH2 0x15AC DUP2 PUSH2 0x1586 JUMP JUMPDEST SWAP3 SWAP2 POP POP JUMP JUMPDEST PUSH2 0x15BB DUP2 PUSH2 0x1525 JUMP JUMPDEST DUP2 EQ PUSH2 0x15C6 JUMPI PUSH1 0x0 DUP1 REVERT JUMPDEST POP JUMP JUMPDEST PUSH1 0x0 DUP2 CALLDATALOAD SWAP1 POP PUSH2 0x15D8 DUP2 PUSH2 0x15B2 JUMP JUMPDEST SWAP3 SWAP2 POP POP JUMP JUMPDEST PUSH1 0x0 DUP1 PUSH1 0x40 DUP4 DUP6 SUB SLT ISZERO PUSH2 0x15F5 JUMPI PUSH2 0x15F4 PUSH2 0x1581 JUMP JUMPDEST JUMPDEST PUSH1 0x0 PUSH2 0x1603 DUP6 DUP3 DUP7 ADD PUSH2 0x159D JUMP JUMPDEST SWAP3 POP POP PUSH1 0x20 PUSH2 0x1614 DUP6 DUP3 DUP7 ADD PUSH2 0x15C9 JUMP JUMPDEST SWAP2 POP POP SWAP3 POP SWAP3 SWAP1 POP JUMP JUMPDEST PUSH1 0x0 PUSH1 0x20 DUP3 DUP5 SUB SLT ISZERO PUSH2 0x1634 JUMPI PUSH2 0x1633 PUSH2 0x1581 JUMP JUMPDEST JUMPDEST PUSH1 0x0 PUSH2 0x1642 DUP5 DUP3 DUP6 ADD PUSH2 0x159D JUMP JUMPDEST SWAP2 POP POP SWAP3 SWAP2 POP POP JUMP JUMPDEST PUSH2 0x1654 DUP2 PUSH2 0x1545 JUMP JUMPDEST DUP2 EQ PUSH2 0x165F JUMPI PUSH1 0x0 DUP1 REVERT JUMPDEST POP JUMP JUMPDEST PUSH1 0x0 DUP2 CALLDATALOAD SWAP1 POP PUSH2 0x1671 DUP2 PUSH2 0x164B JUMP JUMPDEST SWAP3 SWAP2 POP POP JUMP JUMPDEST PUSH1 0x0 PUSH1 0x20 DUP3 DUP5 SUB SLT ISZERO PUSH2 0x168D JUMPI PUSH2 0x168C PUSH2 0x1581 JUMP JUMPDEST JUMPDEST PUSH1 0x0 PUSH2 0x169B DUP5 DUP3 DUP6 ADD PUSH2 0x1662 JUMP JUMPDEST SWAP2 POP POP SWAP3 SWAP2 POP POP JUMP JUMPDEST PUSH1 0x0 DUP3 DUP3 MSTORE PUSH1 0x20 DUP3 ADD SWAP1 POP SWAP3 SWAP2 POP POP JUMP JUMPDEST PUSH32 0x4172626974726167653A20696E73756666696369656E742062616C616E636500 PUSH1 0x0 DUP3 ADD MSTORE POP JUMP JUMPDEST PUSH1 0x0 PUSH2 0x16EB PUSH1 0x1F DUP4 PUSH2 0x16A4 JUMP JUMPDEST SWAP2 POP PUSH2 0x16F6 DUP3 PUSH2 0x16B5 JUMP JUMPDEST PUSH1 0x20 DUP3 ADD SWAP1 POP SWAP2 SWAP1 POP JUMP JUMPDEST PUSH1 0x0 PUSH1 0x20 DUP3 ADD SWAP1 POP DUP2 DUP2 SUB PUSH1 0x0 DUP4 ADD MSTORE PUSH2 0x171A DUP2 PUSH2 0x16DE JUMP JUMPDEST SWAP1 POP SWAP2 SWAP1 POP JUMP JUMPDEST PUSH32 0x496E76616C6964206D696E696D756D206F757470757420616D6F756E74000000 PUSH1 0x0 DUP3 ADD MSTORE POP JUMP JUMPDEST PUSH1 0x0 PUSH2 0x1757 PUSH1 0x1D DUP4 PUSH2 0x16A4 JUMP JUMPDEST SWAP2 POP PUSH2 0x1762 DUP3 PUSH2 0x1721 JUMP JUMPDEST PUSH1 0x20 DUP3 ADD SWAP1 POP SWAP2 SWAP1 POP JUMP JUMPDEST PUSH1 0x0 PUSH1 0x20 DUP3 ADD SWAP1 POP DUP2 DUP2 SUB PUSH1 0x0 DUP4 ADD MSTORE PUSH2 0x1786 DUP2 PUSH2 0x174A JUMP JUMPDEST SWAP1 POP SWAP2 SWAP1 POP JUMP JUMPDEST PUSH1 0x0 PUSH3 0xFFFFFF DUP3 AND SWAP1 POP SWAP2 SWAP1 POP JUMP JUMPDEST PUSH2 0x17A5 DUP2 PUSH2 0x178D JUMP JUMPDEST DUP2 EQ PUSH2 0x17B0 JUMPI PUSH1 0x0 DUP1 REVERT JUMPDEST POP JUMP JUMPDEST PUSH1 0x0 DUP2 MLOAD SWAP1 POP PUSH2 0x17C2 DUP2 PUSH2 0x179C JUMP JUMPDEST SWAP3 SWAP2 POP POP JUMP JUMPDEST PUSH1 0x0 PUSH1 0x20 DUP3 DUP5 SUB SLT ISZERO PUSH2 0x17DE JUMPI PUSH2 0x17DD PUSH2 0x1581 JUMP JUMPDEST JUMPDEST PUSH1 0x0 PUSH2 0x17EC DUP5 DUP3 DUP6 ADD PUSH2 0x17B3 JUMP JUMPDEST SWAP2 POP POP SWAP3 SWAP2 POP POP JUMP JUMPDEST PUSH2 0x17FE DUP2 PUSH2 0x1545 JUMP JUMPDEST DUP3 MSTORE POP POP JUMP JUMPDEST PUSH2 0x180D DUP2 PUSH2 0x178D JUMP JUMPDEST DUP3 MSTORE POP POP JUMP JUMPDEST PUSH2 0x181C DUP2 PUSH2 0x14F1 JUMP JUMPDEST DUP3 MSTORE POP POP JUMP JUMPDEST PUSH2 0x182B DUP2 PUSH2 0x1525 JUMP JUMPDEST DUP3 MSTORE POP POP JUMP JUMPDEST PUSH2 0x100 DUP3 ADD PUSH1 0x0 DUP3 ADD MLOAD PUSH2 0x1848 PUSH1 0x0 DUP6 ADD DUP3 PUSH2 0x17F5 JUMP JUMPDEST POP PUSH1 0x20 DUP3 ADD MLOAD PUSH2 0x185B PUSH1 0x20 DUP6 ADD DUP3 PUSH2 0x17F5 JUMP JUMPDEST POP PUSH1 0x40 DUP3 ADD MLOAD PUSH2 0x186E PUSH1 0x40 DUP6 ADD DUP3 PUSH2 0x1804 JUMP JUMPDEST POP PUSH1 0x60 DUP3 ADD MLOAD PUSH2 0x1881 PUSH1 0x60 DUP6 ADD DUP3 PUSH2 0x17F5 JUMP JUMPDEST POP PUSH1 0x80 DUP3 ADD MLOAD PUSH2 0x1894 PUSH1 0x80 DUP6 ADD DUP3 PUSH2 0x1813 JUMP JUMPDEST POP PUSH1 0xA0 DUP3 ADD MLOAD PUSH2 0x18A7 PUSH1 0xA0 DUP6 ADD DUP3 PUSH2 0x1813 JUMP JUMPDEST POP PUSH1 0xC0 DUP3 ADD MLOAD PUSH2 0x18BA PUSH1 0xC0 DUP6 ADD DUP3 PUSH2 0x1813 JUMP JUMPDEST POP PUSH1 0xE0 DUP3 ADD MLOAD PUSH2 0x18CD PUSH1 0xE0 DUP6 ADD DUP3 PUSH2 0x1822 JUMP JUMPDEST POP POP POP POP JUMP JUMPDEST PUSH1 0x0 PUSH2 0x100 DUP3 ADD SWAP1 POP PUSH2 0x18E9 PUSH1 0x0 DUP4 ADD DUP5 PUSH2 0x1831 JUMP JUMPDEST SWAP3 SWAP2 POP POP JUMP JUMPDEST PUSH1 0x0 DUP2 MLOAD SWAP1 POP PUSH2 0x18FE DUP2 PUSH2 0x1586 JUMP JUMPDEST SWAP3 SWAP2 POP POP JUMP JUMPDEST PUSH1 0x0 PUSH1 0x20 DUP3 DUP5 SUB SLT ISZERO PUSH2 0x191A JUMPI PUSH2 0x1919 PUSH2 0x1581 JUMP JUMPDEST JUMPDEST PUSH1 0x0 PUSH2 0x1928 DUP5 DUP3 DUP6 ADD PUSH2 0x18EF JUMP JUMPDEST SWAP2 POP POP SWAP3 SWAP2 POP POP JUMP JUMPDEST PUSH32 0x4F776E61626C652F63616C6C65722D6E6F742D70656E64696E674F776E657200 PUSH1 0x0 DUP3 ADD MSTORE POP JUMP JUMPDEST PUSH1 0x0 PUSH2 0x1967 PUSH1 0x1F DUP4 PUSH2 0x16A4 JUMP JUMPDEST SWAP2 POP PUSH2 0x1972 DUP3 PUSH2 0x1931 JUMP JUMPDEST PUSH1 0x20 DUP3 ADD SWAP1 POP SWAP2 SWAP1 POP JUMP JUMPDEST PUSH1 0x0 PUSH1 0x20 DUP3 ADD SWAP1 POP DUP2 DUP2 SUB PUSH1 0x0 DUP4 ADD MSTORE PUSH2 0x1996 DUP2 PUSH2 0x195A JUMP JUMPDEST SWAP1 POP SWAP2 SWAP1 POP JUMP JUMPDEST PUSH32 0x4F776E61626C652F63616C6C65722D6E6F742D6F776E65720000000000000000 PUSH1 0x0 DUP3 ADD MSTORE POP JUMP JUMPDEST PUSH1 0x0 PUSH2 0x19D3 PUSH1 0x18 DUP4 PUSH2 0x16A4 JUMP JUMPDEST SWAP2 POP PUSH2 0x19DE DUP3 PUSH2 0x199D JUMP JUMPDEST PUSH1 0x20 DUP3 ADD SWAP1 POP SWAP2 SWAP1 POP JUMP JUMPDEST PUSH1 0x0 PUSH1 0x20 DUP3 ADD SWAP1 POP DUP2 DUP2 SUB PUSH1 0x0 DUP4 ADD MSTORE PUSH2 0x1A02 DUP2 PUSH2 0x19C6 JUMP JUMPDEST SWAP1 POP SWAP2 SWAP1 POP JUMP JUMPDEST PUSH32 0x4E487B7100000000000000000000000000000000000000000000000000000000 PUSH1 0x0 MSTORE PUSH1 0x11 PUSH1 0x4 MSTORE PUSH1 0x24 PUSH1 0x0 REVERT JUMPDEST PUSH1 0x0 PUSH2 0x1A43 DUP3 PUSH2 0x14F1 JUMP JUMPDEST SWAP2 POP PUSH2 0x1A4E DUP4 PUSH2 0x14F1 JUMP JUMPDEST SWAP3 POP DUP3 DUP3 ADD SWAP1 POP DUP1 DUP3 GT ISZERO PUSH2 0x1A66 JUMPI PUSH2 0x1A65 PUSH2 0x1A09 JUMP JUMPDEST JUMPDEST SWAP3 SWAP2 POP POP JUMP JUMPDEST PUSH1 0x0 PUSH1 0x40 DUP3 ADD SWAP1 POP PUSH2 0x1A81 PUSH1 0x0 DUP4 ADD DUP6 PUSH2 0x1557 JUMP JUMPDEST PUSH2 0x1A8E PUSH1 0x20 DUP4 ADD DUP5 PUSH2 0x14FB JUMP JUMPDEST SWAP4 SWAP3 POP POP POP JUMP JUMPDEST PUSH1 0x0 DUP2 ISZERO ISZERO SWAP1 POP SWAP2 SWAP1 POP JUMP JUMPDEST PUSH2 0x1AAA DUP2 PUSH2 0x1A95 JUMP JUMPDEST DUP2 EQ PUSH2 0x1AB5 JUMPI PUSH1 0x0 DUP1 REVERT JUMPDEST POP JUMP JUMPDEST PUSH1 0x0 DUP2 MLOAD SWAP1 POP PUSH2 0x1AC7 DUP2 PUSH2 0x1AA1 JUMP JUMPDEST SWAP3 SWAP2 POP POP JUMP JUMPDEST PUSH1 0x0 PUSH1 0x20 DUP3 DUP5 SUB SLT ISZERO PUSH2 0x1AE3 JUMPI PUSH2 0x1AE2 PUSH2 0x1581 JUMP JUMPDEST JUMPDEST PUSH1 0x0 PUSH2 0x1AF1 DUP5 DUP3 DUP6 ADD PUSH2 0x1AB8 JUMP JUMPDEST SWAP2 POP POP SWAP3 SWAP2 POP POP JUMP JUMPDEST PUSH32 0x4F776E61626C652F70656E64696E674F776E65722D6E6F742D7A65726F2D6164 PUSH1 0x0 DUP3 ADD MSTORE PUSH32 0x6472657373000000000000000000000000000000000000000000000000000000 PUSH1 0x20 DUP3 ADD MSTORE POP JUMP JUMPDEST PUSH1 0x0 PUSH2 0x1B56 PUSH1 0x25 DUP4 PUSH2 0x16A4 JUMP JUMPDEST SWAP2 POP PUSH2 0x1B61 DUP3 PUSH2 0x1AFA JUMP JUMPDEST PUSH1 0x40 DUP3 ADD SWAP1 POP SWAP2 SWAP1 POP JUMP JUMPDEST PUSH1 0x0 PUSH1 0x20 DUP3 ADD SWAP1 POP DUP2 DUP2 SUB PUSH1 0x0 DUP4 ADD MSTORE PUSH2 0x1B85 DUP2 PUSH2 0x1B49 JUMP JUMPDEST SWAP1 POP SWAP2 SWAP1 POP JUMP JUMPDEST PUSH1 0x0 PUSH2 0x1B97 DUP3 PUSH2 0x14F1 JUMP JUMPDEST SWAP2 POP PUSH2 0x1BA2 DUP4 PUSH2 0x14F1 JUMP JUMPDEST SWAP3 POP DUP3 DUP3 MUL PUSH2 0x1BB0 DUP2 PUSH2 0x14F1 JUMP JUMPDEST SWAP2 POP DUP3 DUP3 DIV DUP5 EQ DUP4 ISZERO OR PUSH2 0x1BC7 JUMPI PUSH2 0x1BC6 PUSH2 0x1A09 JUMP JUMPDEST JUMPDEST POP SWAP3 SWAP2 POP POP JUMP JUMPDEST PUSH32 0x4E487B7100000000000000000000000000000000000000000000000000000000 PUSH1 0x0 MSTORE PUSH1 0x12 PUSH1 0x4 MSTORE PUSH1 0x24 PUSH1 0x0 REVERT JUMPDEST PUSH1 0x0 PUSH2 0x1C08 DUP3 PUSH2 0x14F1 JUMP JUMPDEST SWAP2 POP PUSH2 0x1C13 DUP4 PUSH2 0x14F1 JUMP JUMPDEST SWAP3 POP DUP3 PUSH2 0x1C23 JUMPI PUSH2 0x1C22 PUSH2 0x1BCE JUMP JUMPDEST JUMPDEST DUP3 DUP3 DIV SWAP1 POP SWAP3 SWAP2 POP POP JUMP JUMPDEST PUSH1 0x0 DUP2 MLOAD SWAP1 POP PUSH2 0x1C3D DUP2 PUSH2 0x164B JUMP JUMPDEST SWAP3 SWAP2 POP POP JUMP JUMPDEST PUSH1 0x0 PUSH1 0x20 DUP3 DUP5 SUB SLT ISZERO PUSH2 0x1C59 JUMPI PUSH2 0x1C58 PUSH2 0x1581 JUMP JUMPDEST JUMPDEST PUSH1 0x0 PUSH2 0x1C67 DUP5 DUP3 DUP6 ADD PUSH2 0x1C2E JUMP JUMPDEST SWAP2 POP POP SWAP3 SWAP2 POP POP JUMP JUMPDEST PUSH1 0x0 PUSH1 0x60 DUP3 ADD SWAP1 POP PUSH2 0x1C85 PUSH1 0x0 DUP4 ADD DUP7 PUSH2 0x1557 JUMP JUMPDEST PUSH2 0x1C92 PUSH1 0x20 DUP4 ADD DUP6 PUSH2 0x1557 JUMP JUMPDEST PUSH2 0x1C9F PUSH1 0x40 DUP4 ADD DUP5 PUSH2 0x14FB JUMP JUMPDEST SWAP5 SWAP4 POP POP POP POP JUMP JUMPDEST PUSH32 0x5361666545524332303A204552433230206F7065726174696F6E20646964206E PUSH1 0x0 DUP3 ADD MSTORE PUSH32 0x6F74207375636365656400000000000000000000000000000000000000000000 PUSH1 0x20 DUP3 ADD MSTORE POP JUMP JUMPDEST PUSH1 0x0 PUSH2 0x1D03 PUSH1 0x2A DUP4 PUSH2 0x16A4 JUMP JUMPDEST SWAP2 POP PUSH2 0x1D0E DUP3 PUSH2 0x1CA7 JUMP JUMPDEST PUSH1 0x40 DUP3 ADD SWAP1 POP SWAP2 SWAP1 POP JUMP JUMPDEST PUSH1 0x0 PUSH1 0x20 DUP3 ADD SWAP1 POP DUP2 DUP2 SUB PUSH1 0x0 DUP4 ADD MSTORE PUSH2 0x1D32 DUP2 PUSH2 0x1CF6 JUMP JUMPDEST SWAP1 POP SWAP2 SWAP1 POP JUMP JUMPDEST PUSH32 0x416464726573733A20696E73756666696369656E742062616C616E636520666F PUSH1 0x0 DUP3 ADD MSTORE PUSH32 0x722063616C6C0000000000000000000000000000000000000000000000000000 PUSH1 0x20 DUP3 ADD MSTORE POP JUMP JUMPDEST PUSH1 0x0 PUSH2 0x1D95 PUSH1 0x26 DUP4 PUSH2 0x16A4 JUMP JUMPDEST SWAP2 POP PUSH2 0x1DA0 DUP3 PUSH2 0x1D39 JUMP JUMPDEST PUSH1 0x40 DUP3 ADD SWAP1 POP SWAP2 SWAP1 POP JUMP JUMPDEST PUSH1 0x0 PUSH1 0x20 DUP3 ADD SWAP1 POP DUP2 DUP2 SUB PUSH1 0x0 DUP4 ADD MSTORE PUSH2 0x1DC4 DUP2 PUSH2 0x1D88 JUMP JUMPDEST SWAP1 POP SWAP2 SWAP1 POP JUMP JUMPDEST PUSH1 0x0 DUP2 MLOAD SWAP1 POP SWAP2 SWAP1 POP JUMP JUMPDEST PUSH1 0x0 DUP2 SWAP1 POP SWAP3 SWAP2 POP POP JUMP JUMPDEST PUSH1 0x0 JUMPDEST DUP4 DUP2 LT ISZERO PUSH2 0x1DFF JUMPI DUP1 DUP3 ADD MLOAD DUP2 DUP5 ADD MSTORE PUSH1 0x20 DUP2 ADD SWAP1 POP PUSH2 0x1DE4 JUMP JUMPDEST PUSH1 0x0 DUP5 DUP5 ADD MSTORE POP POP POP POP JUMP JUMPDEST PUSH1 0x0 PUSH2 0x1E16 DUP3 PUSH2 0x1DCB JUMP JUMPDEST PUSH2 0x1E20 DUP2 DUP6 PUSH2 0x1DD6 JUMP JUMPDEST SWAP4 POP PUSH2 0x1E30 DUP2 DUP6 PUSH1 0x20 DUP7 ADD PUSH2 0x1DE1 JUMP JUMPDEST DUP1 DUP5 ADD SWAP2 POP POP SWAP3 SWAP2 POP POP JUMP JUMPDEST PUSH1 0x0 PUSH2 0x1E48 DUP3 DUP5 PUSH2 0x1E0B JUMP JUMPDEST SWAP2 POP DUP2 SWAP1 POP SWAP3 SWAP2 POP POP JUMP JUMPDEST PUSH32 0x416464726573733A2063616C6C20746F206E6F6E2D636F6E7472616374000000 PUSH1 0x0 DUP3 ADD MSTORE POP JUMP JUMPDEST PUSH1 0x0 PUSH2 0x1E89 PUSH1 0x1D DUP4 PUSH2 0x16A4 JUMP JUMPDEST SWAP2 POP PUSH2 0x1E94 DUP3 PUSH2 0x1E53 JUMP JUMPDEST PUSH1 0x20 DUP3 ADD SWAP1 POP SWAP2 SWAP1 POP JUMP JUMPDEST PUSH1 0x0 PUSH1 0x20 DUP3 ADD SWAP1 POP DUP2 DUP2 SUB PUSH1 0x0 DUP4 ADD MSTORE PUSH2 0x1EB8 DUP2 PUSH2 0x1E7C JUMP JUMPDEST SWAP1 POP SWAP2 SWAP1 POP JUMP JUMPDEST PUSH1 0x0 DUP2 MLOAD SWAP1 POP SWAP2 SWAP1 POP JUMP JUMPDEST PUSH1 0x0 PUSH1 0x1F NOT PUSH1 0x1F DUP4 ADD AND SWAP1 POP SWAP2 SWAP1 POP JUMP JUMPDEST PUSH1 0x0 PUSH2 0x1EE6 DUP3 PUSH2 0x1EBF JUMP JUMPDEST PUSH2 0x1EF0 DUP2 DUP6 PUSH2 0x16A4 JUMP JUMPDEST SWAP4 POP PUSH2 0x1F00 DUP2 DUP6 PUSH1 0x20 DUP7 ADD PUSH2 0x1DE1 JUMP JUMPDEST PUSH2 0x1F09 DUP2 PUSH2 0x1ECA JUMP JUMPDEST DUP5 ADD SWAP2 POP POP SWAP3 SWAP2 POP POP JUMP JUMPDEST PUSH1 0x0 PUSH1 0x20 DUP3 ADD SWAP1 POP DUP2 DUP2 SUB PUSH1 0x0 DUP4 ADD MSTORE PUSH2 0x1F2E DUP2 DUP5 PUSH2 0x1EDB JUMP JUMPDEST SWAP1 POP SWAP3 SWAP2 POP POP JUMP INVALID LOG2 PUSH5 0x6970667358 0x22 SLT KECCAK256 0x1F STOP 0xAC PUSH11 0x92038AE313682FD2DA47B3 0xDC DUP2 0x1F EXTCODESIZE 0xC2 GT DUP5 0x24 0xEC 0xCD SHL 0xD7 0xDD 0x27 0xC4 DUP10 SWAP5 PUSH5 0x736F6C6343 STOP ADDMOD SLT STOP CALLER "
				},
				"gasEstimates": {
					"creation": {
						"codeDepositCost": "1608800",
						"executionCost": "infinite",
						"totalCost": "infinite"
					},
					"external": {
						"claimOwnership()": "56774",
						"closePostion(uint256,uint160)": "infinite",
						"close_stock()": "2519",
						"deposit(uint256)": "infinite",
						"manager()": "2567",
						"openPostion(uint256,uint160)": "infinite",
						"org_stock()": "2517",
						"owner()": "2567",
						"pendingOwner()": "2544",
						"pool()": "2560",
						"renounceOwnership()": "30428",
						"router()": "2580",
						"shares(address)": "2903",
						"stock_index()": "2453",
						"transferOwnership(address)": "28167",
						"withdraw()": "infinite"
					},
					"internal": {
						"getMoney()": "infinite",
						"getStock()": "infinite"
					}
				},
				"methodIdentifiers": {
					"claimOwnership()": "4e71e0c8",
					"closePostion(uint256,uint160)": "7ef45fde",
					"close_stock()": "4230adc9",
					"deposit(uint256)": "b6b55f25",
					"manager()": "481c6a75",
					"openPostion(uint256,uint160)": "44c2b6d0",
					"org_stock()": "f92966e1",
					"owner()": "8da5cb5b",
					"pendingOwner()": "e30c3978",
					"pool()": "16f0115b",
					"renounceOwnership()": "715018a6",
					"router()": "f887ea40",
					"shares(address)": "ce7c2ac2",
					"stock_index()": "02c1b274",
					"transferOwnership(address)": "f2fde38b",
					"withdraw()": "3ccfd60b"
				}
			},
			"storageLayout": {
				"storage": [
					{
						"astId": 1379,
						"contract": "contracts/ArbitrageUniV3.sol:ArbitrageUniV3",
						"label": "_owner",
						"offset": 0,
						"slot": "0",
						"type": "t_address"
					},
					{
						"astId": 1381,
						"contract": "contracts/ArbitrageUniV3.sol:ArbitrageUniV3",
						"label": "_pendingOwner",
						"offset": 0,
						"slot": "1",
						"type": "t_address"
					},
					{
						"astId": 1533,
						"contract": "contracts/ArbitrageUniV3.sol:ArbitrageUniV3",
						"label": "_manager",
						"offset": 0,
						"slot": "2",
						"type": "t_address"
					},
					{
						"astId": 660,
						"contract": "contracts/ArbitrageUniV3.sol:ArbitrageUniV3",
						"label": "router",
						"offset": 0,
						"slot": "3",
						"type": "t_address"
					},
					{
						"astId": 662,
						"contract": "contracts/ArbitrageUniV3.sol:ArbitrageUniV3",
						"label": "pool",
						"offset": 0,
						"slot": "4",
						"type": "t_address"
					},
					{
						"astId": 666,
						"contract": "contracts/ArbitrageUniV3.sol:ArbitrageUniV3",
						"label": "shares",
						"offset": 0,
						"slot": "5",
						"type": "t_mapping(t_address,t_uint256)"
					},
					{
						"astId": 668,
						"contract": "contracts/ArbitrageUniV3.sol:ArbitrageUniV3",
						"label": "close_stock",
						"offset": 0,
						"slot": "6",
						"type": "t_uint256"
					},
					{
						"astId": 670,
						"contract": "contracts/ArbitrageUniV3.sol:ArbitrageUniV3",
						"label": "org_stock",
						"offset": 0,
						"slot": "7",
						"type": "t_uint256"
					},
					{
						"astId": 672,
						"contract": "contracts/ArbitrageUniV3.sol:ArbitrageUniV3",
						"label": "stock_index",
						"offset": 0,
						"slot": "8",
						"type": "t_uint256"
					}
				],
				"types": {
					"t_address": {
						"encoding": "inplace",
						"label": "address",
						"numberOfBytes": "20"
					},
					"t_mapping(t_address,t_uint256)": {
						"encoding": "mapping",
						"key": "t_address",
						"label": "mapping(address => uint256)",
						"numberOfBytes": "32",
						"value": "t_uint256"
					},
					"t_uint256": {
						"encoding": "inplace",
						"label": "uint256",
						"numberOfBytes": "32"
					}
				}
			},
			"userdoc": {
				"kind": "user",
				"methods": {
					"claimOwnership()": {
						"notice": "Allows the `_pendingOwner` address to finalize the transfer."
					},
					"manager()": {
						"notice": "Gets current `_manager`."
					},
					"owner()": {
						"notice": "Returns the address of the current owner."
					},
					"pendingOwner()": {
						"notice": "Gets current `_pendingOwner`."
					},
					"renounceOwnership()": {
						"notice": "Renounce ownership of the contract."
					},
					"transferOwnership(address)": {
						"notice": "Allows current owner to set the `_pendingOwner` address."
					}
				},
				"version": 1
			}
		}
	}
}