{
	"ArbitrageDao-Contract/contracts/ArbitragePrice.sol": {
		"ArbitragePrice": {
			"abi": [
				{
					"inputs": [
						{
							"internalType": "address",
							"name": "_univ3_router",
							"type": "address"
						},
						{
							"internalType": "address",
							"name": "_aggregator",
							"type": "address"
						}
					],
					"stateMutability": "nonpayable",
					"type": "constructor"
				},
				{
					"anonymous": false,
					"inputs": [
						{
							"indexed": true,
							"internalType": "address",
							"name": "pendingOwner",
							"type": "address"
						}
					],
					"name": "OwnershipOffered",
					"type": "event"
				},
				{
					"anonymous": false,
					"inputs": [
						{
							"indexed": true,
							"internalType": "address",
							"name": "previousOwner",
							"type": "address"
						},
						{
							"indexed": true,
							"internalType": "address",
							"name": "newOwner",
							"type": "address"
						}
					],
					"name": "OwnershipTransferred",
					"type": "event"
				},
				{
					"inputs": [],
					"name": "aggregator",
					"outputs": [
						{
							"internalType": "address",
							"name": "",
							"type": "address"
						}
					],
					"stateMutability": "view",
					"type": "function"
				},
				{
					"inputs": [],
					"name": "claimOwnership",
					"outputs": [],
					"stateMutability": "nonpayable",
					"type": "function"
				},
				{
					"inputs": [
						{
							"internalType": "address",
							"name": "strategy",
							"type": "address"
						}
					],
					"name": "getLinkPrice",
					"outputs": [
						{
							"internalType": "uint256",
							"name": "",
							"type": "uint256"
						}
					],
					"stateMutability": "nonpayable",
					"type": "function"
				},
				{
					"inputs": [
						{
							"internalType": "address",
							"name": "strategy",
							"type": "address"
						}
					],
					"name": "getUniV3Price",
					"outputs": [
						{
							"internalType": "uint256",
							"name": "",
							"type": "uint256"
						}
					],
					"stateMutability": "nonpayable",
					"type": "function"
				},
				{
					"inputs": [],
					"name": "owner",
					"outputs": [
						{
							"internalType": "address",
							"name": "",
							"type": "address"
						}
					],
					"stateMutability": "view",
					"type": "function"
				},
				{
					"inputs": [],
					"name": "pendingOwner",
					"outputs": [
						{
							"internalType": "address",
							"name": "",
							"type": "address"
						}
					],
					"stateMutability": "view",
					"type": "function"
				},
				{
					"inputs": [
						{
							"internalType": "address",
							"name": "",
							"type": "address"
						}
					],
					"name": "prices",
					"outputs": [
						{
							"internalType": "address",
							"name": "tokenA",
							"type": "address"
						},
						{
							"internalType": "address",
							"name": "tokenB",
							"type": "address"
						}
					],
					"stateMutability": "view",
					"type": "function"
				},
				{
					"inputs": [],
					"name": "renounceOwnership",
					"outputs": [],
					"stateMutability": "nonpayable",
					"type": "function"
				},
				{
					"inputs": [
						{
							"internalType": "address",
							"name": "strategy",
							"type": "address"
						},
						{
							"internalType": "address",
							"name": "tokenA",
							"type": "address"
						},
						{
							"internalType": "address",
							"name": "tokenB",
							"type": "address"
						}
					],
					"name": "setPool",
					"outputs": [],
					"stateMutability": "nonpayable",
					"type": "function"
				},
				{
					"inputs": [
						{
							"internalType": "address",
							"name": "_newOwner",
							"type": "address"
						}
					],
					"name": "transferOwnership",
					"outputs": [],
					"stateMutability": "nonpayable",
					"type": "function"
				},
				{
					"inputs": [],
					"name": "univ3_router",
					"outputs": [
						{
							"internalType": "address",
							"name": "",
							"type": "address"
						}
					],
					"stateMutability": "view",
					"type": "function"
				}
			],
			"devdoc": {
				"kind": "dev",
				"methods": {
					"claimOwnership()": {
						"details": "This function is only callable by the `_pendingOwner`."
					},
					"pendingOwner()": {
						"returns": {
							"_0": "Current `_pendingOwner` address."
						}
					},
					"renounceOwnership()": {
						"details": "Leaves the contract without owner. It will not be possible to call `onlyOwner` functions anymore. Can only be called by the current owner. NOTE: Renouncing ownership will leave the contract without an owner, thereby removing any functionality that is only available to the owner."
					},
					"transferOwnership(address)": {
						"params": {
							"_newOwner": "Address to transfer ownership to."
						}
					}
				},
				"version": 1
			},
			"evm": {
				"assembly": "    /* \"ArbitrageDao-Contract/contracts/ArbitragePrice.sol\":254:1722  contract ArbitragePrice is IArbitrageOracle, Ownable {\r... */\n  mstore(0x40, 0x80)\n    /* \"ArbitrageDao-Contract/contracts/ArbitragePrice.sol\":776:938  constructor(address _univ3_router, address _aggregator)Ownable(msg.sender)\r... */\n  callvalue\n  dup1\n  iszero\n  tag_1\n  jumpi\n  0x00\n  dup1\n  revert\ntag_1:\n  pop\n  mload(0x40)\n  sub(codesize, bytecodeSize)\n  dup1\n  bytecodeSize\n  dup4\n  codecopy\n  dup2\n  dup2\n  add\n  0x40\n  mstore\n  dup2\n  add\n  swap1\n  tag_2\n  swap2\n  swap1\n  tag_3\n  jump\t// in\ntag_2:\n    /* \"ArbitrageDao-Contract/contracts/ArbitragePrice.sol\":839:849  msg.sender */\n  caller\n    /* \"ArbitrageDao-Contract/contracts/extern/Manageable.sol\":2581:2605  _setOwner(_initialOwner) */\n  tag_7\n    /* \"ArbitrageDao-Contract/contracts/extern/Manageable.sol\":2591:2604  _initialOwner */\n  dup2\n    /* \"ArbitrageDao-Contract/contracts/extern/Manageable.sol\":2581:2590  _setOwner */\n  shl(0x20, tag_8)\n    /* \"ArbitrageDao-Contract/contracts/extern/Manageable.sol\":2581:2605  _setOwner(_initialOwner) */\n  0x20\n  shr\n  jump\t// in\ntag_7:\n    /* \"ArbitrageDao-Contract/contracts/extern/Manageable.sol\":2535:2613  constructor(address _initialOwner) {\r... */\n  pop\n    /* \"ArbitrageDao-Contract/contracts/ArbitragePrice.sol\":882:895  _univ3_router */\n  dup2\n    /* \"ArbitrageDao-Contract/contracts/ArbitragePrice.sol\":867:879  univ3_router */\n  0x03\n  0x00\n    /* \"ArbitrageDao-Contract/contracts/ArbitragePrice.sol\":867:895  univ3_router = _univ3_router */\n  0x0100\n  exp\n  dup2\n  sload\n  dup2\n  0xffffffffffffffffffffffffffffffffffffffff\n  mul\n  not\n  and\n  swap1\n  dup4\n  0xffffffffffffffffffffffffffffffffffffffff\n  and\n  mul\n  or\n  swap1\n  sstore\n  pop\n    /* \"ArbitrageDao-Contract/contracts/ArbitragePrice.sol\":919:930  _aggregator */\n  dup1\n    /* \"ArbitrageDao-Contract/contracts/ArbitragePrice.sol\":906:916  aggregator */\n  0x04\n  0x00\n    /* \"ArbitrageDao-Contract/contracts/ArbitragePrice.sol\":906:930  aggregator = _aggregator */\n  0x0100\n  exp\n  dup2\n  sload\n  dup2\n  0xffffffffffffffffffffffffffffffffffffffff\n  mul\n  not\n  and\n  swap1\n  dup4\n  0xffffffffffffffffffffffffffffffffffffffff\n  and\n  mul\n  or\n  swap1\n  sstore\n  pop\n    /* \"ArbitrageDao-Contract/contracts/ArbitragePrice.sol\":776:938  constructor(address _univ3_router, address _aggregator)Ownable(msg.sender)\r... */\n  pop\n  pop\n    /* \"ArbitrageDao-Contract/contracts/ArbitragePrice.sol\":254:1722  contract ArbitragePrice is IArbitrageOracle, Ownable {\r... */\n  jump(tag_10)\n    /* \"ArbitrageDao-Contract/contracts/extern/Manageable.sol\":4462:4640  function _setOwner(address _newOwner) private {\r... */\ntag_8:\n    /* \"ArbitrageDao-Contract/contracts/extern/Manageable.sol\":4519:4536  address _oldOwner */\n  0x00\n    /* \"ArbitrageDao-Contract/contracts/extern/Manageable.sol\":4539:4545  _owner */\n  dup1\n  0x00\n  swap1\n  sload\n  swap1\n  0x0100\n  exp\n  swap1\n  div\n  0xffffffffffffffffffffffffffffffffffffffff\n  and\n    /* \"ArbitrageDao-Contract/contracts/extern/Manageable.sol\":4519:4545  address _oldOwner = _owner */\n  swap1\n  pop\n    /* \"ArbitrageDao-Contract/contracts/extern/Manageable.sol\":4565:4574  _newOwner */\n  dup2\n    /* \"ArbitrageDao-Contract/contracts/extern/Manageable.sol\":4556:4562  _owner */\n  0x00\n  dup1\n    /* \"ArbitrageDao-Contract/contracts/extern/Manageable.sol\":4556:4574  _owner = _newOwner */\n  0x0100\n  exp\n  dup2\n  sload\n  dup2\n  0xffffffffffffffffffffffffffffffffffffffff\n  mul\n  not\n  and\n  swap1\n  dup4\n  0xffffffffffffffffffffffffffffffffffffffff\n  and\n  mul\n  or\n  swap1\n  sstore\n  pop\n    /* \"ArbitrageDao-Contract/contracts/extern/Manageable.sol\":4622:4631  _newOwner */\n  dup2\n    /* \"ArbitrageDao-Contract/contracts/extern/Manageable.sol\":4590:4632  OwnershipTransferred(_oldOwner, _newOwner) */\n  0xffffffffffffffffffffffffffffffffffffffff\n  and\n    /* \"ArbitrageDao-Contract/contracts/extern/Manageable.sol\":4611:4620  _oldOwner */\n  dup2\n    /* \"ArbitrageDao-Contract/contracts/extern/Manageable.sol\":4590:4632  OwnershipTransferred(_oldOwner, _newOwner) */\n  0xffffffffffffffffffffffffffffffffffffffff\n  and\n  0x8be0079c531659141344cd1fd0a4f28419497f9722a3daafe3b4186f6b6457e0\n  mload(0x40)\n  mload(0x40)\n  dup1\n  swap2\n  sub\n  swap1\n  log3\n    /* \"ArbitrageDao-Contract/contracts/extern/Manageable.sol\":4462:4640  function _setOwner(address _newOwner) private {\r... */\n  pop\n  pop\n  jump\t// out\n    /* \"#utility.yul\":7:150   */\ntag_13:\n  0x00\n    /* \"#utility.yul\":95:101   */\n  dup2\n    /* \"#utility.yul\":89:102   */\n  mload\n    /* \"#utility.yul\":80:102   */\n  swap1\n  pop\n    /* \"#utility.yul\":111:144   */\n  tag_15\n    /* \"#utility.yul\":138:143   */\n  dup2\n    /* \"#utility.yul\":111:144   */\n  tag_16\n  jump\t// in\ntag_15:\n    /* \"#utility.yul\":70:150   */\n  swap3\n  swap2\n  pop\n  pop\n  jump\t// out\n    /* \"#utility.yul\":156:596   */\ntag_3:\n  0x00\n  dup1\n    /* \"#utility.yul\":292:294   */\n  0x40\n    /* \"#utility.yul\":280:289   */\n  dup4\n    /* \"#utility.yul\":271:278   */\n  dup6\n    /* \"#utility.yul\":267:290   */\n  sub\n    /* \"#utility.yul\":263:295   */\n  slt\n    /* \"#utility.yul\":260:262   */\n  iszero\n  tag_18\n  jumpi\n    /* \"#utility.yul\":308:309   */\n  0x00\n    /* \"#utility.yul\":305:306   */\n  dup1\n    /* \"#utility.yul\":298:310   */\n  revert\n    /* \"#utility.yul\":260:262   */\ntag_18:\n    /* \"#utility.yul\":351:352   */\n  0x00\n    /* \"#utility.yul\":376:440   */\n  tag_19\n    /* \"#utility.yul\":432:439   */\n  dup6\n    /* \"#utility.yul\":423:429   */\n  dup3\n    /* \"#utility.yul\":412:421   */\n  dup7\n    /* \"#utility.yul\":408:430   */\n  add\n    /* \"#utility.yul\":376:440   */\n  tag_13\n  jump\t// in\ntag_19:\n    /* \"#utility.yul\":366:440   */\n  swap3\n  pop\n    /* \"#utility.yul\":322:450   */\n  pop\n    /* \"#utility.yul\":489:491   */\n  0x20\n    /* \"#utility.yul\":515:579   */\n  tag_20\n    /* \"#utility.yul\":571:578   */\n  dup6\n    /* \"#utility.yul\":562:568   */\n  dup3\n    /* \"#utility.yul\":551:560   */\n  dup7\n    /* \"#utility.yul\":547:569   */\n  add\n    /* \"#utility.yul\":515:579   */\n  tag_13\n  jump\t// in\ntag_20:\n    /* \"#utility.yul\":505:579   */\n  swap2\n  pop\n    /* \"#utility.yul\":460:589   */\n  pop\n    /* \"#utility.yul\":250:596   */\n  swap3\n  pop\n  swap3\n  swap1\n  pop\n  jump\t// out\n    /* \"#utility.yul\":602:698   */\ntag_21:\n  0x00\n    /* \"#utility.yul\":668:692   */\n  tag_23\n    /* \"#utility.yul\":686:691   */\n  dup3\n    /* \"#utility.yul\":668:692   */\n  tag_24\n  jump\t// in\ntag_23:\n    /* \"#utility.yul\":657:692   */\n  swap1\n  pop\n    /* \"#utility.yul\":647:698   */\n  swap2\n  swap1\n  pop\n  jump\t// out\n    /* \"#utility.yul\":704:830   */\ntag_24:\n  0x00\n    /* \"#utility.yul\":781:823   */\n  0xffffffffffffffffffffffffffffffffffffffff\n    /* \"#utility.yul\":774:779   */\n  dup3\n    /* \"#utility.yul\":770:824   */\n  and\n    /* \"#utility.yul\":759:824   */\n  swap1\n  pop\n    /* \"#utility.yul\":749:830   */\n  swap2\n  swap1\n  pop\n  jump\t// out\n    /* \"#utility.yul\":836:958   */\ntag_16:\n    /* \"#utility.yul\":909:933   */\n  tag_27\n    /* \"#utility.yul\":927:932   */\n  dup2\n    /* \"#utility.yul\":909:933   */\n  tag_21\n  jump\t// in\ntag_27:\n    /* \"#utility.yul\":902:907   */\n  dup2\n    /* \"#utility.yul\":899:934   */\n  eq\n    /* \"#utility.yul\":889:891   */\n  tag_28\n  jumpi\n    /* \"#utility.yul\":948:949   */\n  0x00\n    /* \"#utility.yul\":945:946   */\n  dup1\n    /* \"#utility.yul\":938:950   */\n  revert\n    /* \"#utility.yul\":889:891   */\ntag_28:\n    /* \"#utility.yul\":879:958   */\n  pop\n  jump\t// out\n    /* \"ArbitrageDao-Contract/contracts/ArbitragePrice.sol\":254:1722  contract ArbitragePrice is IArbitrageOracle, Ownable {\r... */\ntag_10:\n  dataSize(sub_0)\n  dup1\n  dataOffset(sub_0)\n  0x00\n  codecopy\n  0x00\n  return\nstop\n\nsub_0: assembly {\n        /* \"ArbitrageDao-Contract/contracts/ArbitragePrice.sol\":254:1722  contract ArbitragePrice is IArbitrageOracle, Ownable {\r... */\n      mstore(0x40, 0x80)\n      callvalue\n      dup1\n      iszero\n      tag_1\n      jumpi\n      0x00\n      dup1\n      revert\n    tag_1:\n      pop\n      jumpi(tag_2, lt(calldatasize, 0x04))\n      shr(0xe0, calldataload(0x00))\n      dup1\n      0x8292fd84\n      gt\n      tag_14\n      jumpi\n      dup1\n      0x8292fd84\n      eq\n      tag_8\n      jumpi\n      dup1\n      0x8da5cb5b\n      eq\n      tag_9\n      jumpi\n      dup1\n      0x9a62b39a\n      eq\n      tag_10\n      jumpi\n      dup1\n      0xcfed246b\n      eq\n      tag_11\n      jumpi\n      dup1\n      0xe30c3978\n      eq\n      tag_12\n      jumpi\n      dup1\n      0xf2fde38b\n      eq\n      tag_13\n      jumpi\n      jump(tag_2)\n    tag_14:\n      dup1\n      0x18d092d6\n      eq\n      tag_3\n      jumpi\n      dup1\n      0x245a7bfc\n      eq\n      tag_4\n      jumpi\n      dup1\n      0x4e71e0c8\n      eq\n      tag_5\n      jumpi\n      dup1\n      0x5a1ed7c3\n      eq\n      tag_6\n      jumpi\n      dup1\n      0x715018a6\n      eq\n      tag_7\n      jumpi\n    tag_2:\n      0x00\n      dup1\n      revert\n        /* \"ArbitrageDao-Contract/contracts/ArbitragePrice.sol\":1459:1620  function getLinkPrice(address strategy) external override returns(uint256) {\r... */\n    tag_3:\n      tag_15\n      0x04\n      dup1\n      calldatasize\n      sub\n      dup2\n      add\n      swap1\n      tag_16\n      swap2\n      swap1\n      tag_17\n      jump\t// in\n    tag_16:\n      tag_18\n      jump\t// in\n    tag_15:\n      mload(0x40)\n      tag_19\n      swap2\n      swap1\n      tag_20\n      jump\t// in\n    tag_19:\n      mload(0x40)\n      dup1\n      swap2\n      sub\n      swap1\n      return\n        /* \"ArbitrageDao-Contract/contracts/ArbitragePrice.sol\":744:769  address public aggregator */\n    tag_4:\n      tag_21\n      tag_22\n      jump\t// in\n    tag_21:\n      mload(0x40)\n      tag_23\n      swap2\n      swap1\n      tag_24\n      jump\t// in\n    tag_23:\n      mload(0x40)\n      dup1\n      swap2\n      sub\n      swap1\n      return\n        /* \"ArbitrageDao-Contract/contracts/extern/Manageable.sol\":4128:4260  function claimOwnership() external onlyPendingOwner {\r... */\n    tag_5:\n      tag_25\n      tag_26\n      jump\t// in\n    tag_25:\n      stop\n        /* \"ArbitrageDao-Contract/contracts/ArbitragePrice.sol\":1628:1714  function getUniV3Price(address strategy) external override returns(uint256) {\r... */\n    tag_6:\n      tag_27\n      0x04\n      dup1\n      calldatasize\n      sub\n      dup2\n      add\n      swap1\n      tag_28\n      swap2\n      swap1\n      tag_17\n      jump\t// in\n    tag_28:\n      tag_29\n      jump\t// in\n    tag_27:\n      mload(0x40)\n      tag_30\n      swap2\n      swap1\n      tag_20\n      jump\t// in\n    tag_30:\n      mload(0x40)\n      dup1\n      swap2\n      sub\n      swap1\n      return\n        /* \"ArbitrageDao-Contract/contracts/extern/Manageable.sol\":3469:3565  function renounceOwnership() external virtual onlyOwner {\r... */\n    tag_7:\n      tag_31\n      tag_32\n      jump\t// in\n    tag_31:\n      stop\n        /* \"ArbitrageDao-Contract/contracts/ArbitragePrice.sol\":709:736  address public univ3_router */\n    tag_8:\n      tag_33\n      tag_34\n      jump\t// in\n    tag_33:\n      mload(0x40)\n      tag_35\n      swap2\n      swap1\n      tag_24\n      jump\t// in\n    tag_35:\n      mload(0x40)\n      dup1\n      swap2\n      sub\n      swap1\n      return\n        /* \"ArbitrageDao-Contract/contracts/extern/Manageable.sol\":2755:2842  function owner() public view virtual returns (address) {\r... */\n    tag_9:\n      tag_36\n      tag_37\n      jump\t// in\n    tag_36:\n      mload(0x40)\n      tag_38\n      swap2\n      swap1\n      tag_24\n      jump\t// in\n    tag_38:\n      mload(0x40)\n      dup1\n      swap2\n      sub\n      swap1\n      return\n        /* \"ArbitrageDao-Contract/contracts/ArbitragePrice.sol\":946:1451  function setPool(address strategy, address tokenA, address tokenB) external onlyOwner {\r... */\n    tag_10:\n      tag_39\n      0x04\n      dup1\n      calldatasize\n      sub\n      dup2\n      add\n      swap1\n      tag_40\n      swap2\n      swap1\n      tag_41\n      jump\t// in\n    tag_40:\n      tag_42\n      jump\t// in\n    tag_39:\n      stop\n        /* \"ArbitrageDao-Contract/contracts/ArbitragePrice.sol\":664:702  mapping(address => Pool) public prices */\n    tag_11:\n      tag_43\n      0x04\n      dup1\n      calldatasize\n      sub\n      dup2\n      add\n      swap1\n      tag_44\n      swap2\n      swap1\n      tag_17\n      jump\t// in\n    tag_44:\n      tag_45\n      jump\t// in\n    tag_43:\n      mload(0x40)\n      tag_46\n      swap3\n      swap2\n      swap1\n      tag_47\n      jump\t// in\n    tag_46:\n      mload(0x40)\n      dup1\n      swap2\n      sub\n      swap1\n      return\n        /* \"ArbitrageDao-Contract/contracts/extern/Manageable.sol\":2963:3066  function pendingOwner() external view virtual returns (address) {\r... */\n    tag_12:\n      tag_48\n      tag_49\n      jump\t// in\n    tag_48:\n      mload(0x40)\n      tag_50\n      swap2\n      swap1\n      tag_24\n      jump\t// in\n    tag_50:\n      mload(0x40)\n      dup1\n      swap2\n      sub\n      swap1\n      return\n        /* \"ArbitrageDao-Contract/contracts/extern/Manageable.sol\":3720:3960  function transferOwnership(address _newOwner) external onlyOwner {\r... */\n    tag_13:\n      tag_51\n      0x04\n      dup1\n      calldatasize\n      sub\n      dup2\n      add\n      swap1\n      tag_52\n      swap2\n      swap1\n      tag_17\n      jump\t// in\n    tag_52:\n      tag_53\n      jump\t// in\n    tag_51:\n      stop\n        /* \"ArbitrageDao-Contract/contracts/ArbitragePrice.sol\":1459:1620  function getLinkPrice(address strategy) external override returns(uint256) {\r... */\n    tag_18:\n        /* \"ArbitrageDao-Contract/contracts/ArbitragePrice.sol\":1525:1532  uint256 */\n      0x00\n        /* \"ArbitrageDao-Contract/contracts/ArbitragePrice.sol\":1545:1576  AggregatorV3Interface priceFeed */\n      dup1\n        /* \"ArbitrageDao-Contract/contracts/ArbitragePrice.sol\":1601:1611  aggregator */\n      0x04\n      0x00\n      swap1\n      sload\n      swap1\n      0x0100\n      exp\n      swap1\n      div\n      0xffffffffffffffffffffffffffffffffffffffff\n      and\n        /* \"ArbitrageDao-Contract/contracts/ArbitragePrice.sol\":1545:1612  AggregatorV3Interface priceFeed = AggregatorV3Interface(aggregator) */\n      swap1\n      pop\n        /* \"ArbitrageDao-Contract/contracts/ArbitragePrice.sol\":1459:1620  function getLinkPrice(address strategy) external override returns(uint256) {\r... */\n      pop\n      swap2\n      swap1\n      pop\n      jump\t// out\n        /* \"ArbitrageDao-Contract/contracts/ArbitragePrice.sol\":744:769  address public aggregator */\n    tag_22:\n      0x04\n      0x00\n      swap1\n      sload\n      swap1\n      0x0100\n      exp\n      swap1\n      div\n      0xffffffffffffffffffffffffffffffffffffffff\n      and\n      dup2\n      jump\t// out\n        /* \"ArbitrageDao-Contract/contracts/extern/Manageable.sol\":4128:4260  function claimOwnership() external onlyPendingOwner {\r... */\n    tag_26:\n        /* \"ArbitrageDao-Contract/contracts/extern/Manageable.sol\":5062:5075  _pendingOwner */\n      0x01\n      0x00\n      swap1\n      sload\n      swap1\n      0x0100\n      exp\n      swap1\n      div\n      0xffffffffffffffffffffffffffffffffffffffff\n      and\n        /* \"ArbitrageDao-Contract/contracts/extern/Manageable.sol\":5048:5075  msg.sender == _pendingOwner */\n      0xffffffffffffffffffffffffffffffffffffffff\n      and\n        /* \"ArbitrageDao-Contract/contracts/extern/Manageable.sol\":5048:5058  msg.sender */\n      caller\n        /* \"ArbitrageDao-Contract/contracts/extern/Manageable.sol\":5048:5075  msg.sender == _pendingOwner */\n      0xffffffffffffffffffffffffffffffffffffffff\n      and\n      eq\n        /* \"ArbitrageDao-Contract/contracts/extern/Manageable.sol\":5040:5111  require(msg.sender == _pendingOwner, \"Ownable/caller-not-pendingOwner\") */\n      tag_56\n      jumpi\n      mload(0x40)\n      0x08c379a000000000000000000000000000000000000000000000000000000000\n      dup2\n      mstore\n      0x04\n      add\n      tag_57\n      swap1\n      tag_58\n      jump\t// in\n    tag_57:\n      mload(0x40)\n      dup1\n      swap2\n      sub\n      swap1\n      revert\n    tag_56:\n        /* \"ArbitrageDao-Contract/contracts/extern/Manageable.sol\":4191:4215  _setOwner(_pendingOwner) */\n      tag_60\n        /* \"ArbitrageDao-Contract/contracts/extern/Manageable.sol\":4201:4214  _pendingOwner */\n      0x01\n      0x00\n      swap1\n      sload\n      swap1\n      0x0100\n      exp\n      swap1\n      div\n      0xffffffffffffffffffffffffffffffffffffffff\n      and\n        /* \"ArbitrageDao-Contract/contracts/extern/Manageable.sol\":4191:4200  _setOwner */\n      tag_61\n        /* \"ArbitrageDao-Contract/contracts/extern/Manageable.sol\":4191:4215  _setOwner(_pendingOwner) */\n      jump\t// in\n    tag_60:\n        /* \"ArbitrageDao-Contract/contracts/extern/Manageable.sol\":4250:4251  0 */\n      0x00\n        /* \"ArbitrageDao-Contract/contracts/extern/Manageable.sol\":4226:4239  _pendingOwner */\n      0x01\n      0x00\n        /* \"ArbitrageDao-Contract/contracts/extern/Manageable.sol\":4226:4252  _pendingOwner = address(0) */\n      0x0100\n      exp\n      dup2\n      sload\n      dup2\n      0xffffffffffffffffffffffffffffffffffffffff\n      mul\n      not\n      and\n      swap1\n      dup4\n      0xffffffffffffffffffffffffffffffffffffffff\n      and\n      mul\n      or\n      swap1\n      sstore\n      pop\n        /* \"ArbitrageDao-Contract/contracts/extern/Manageable.sol\":4128:4260  function claimOwnership() external onlyPendingOwner {\r... */\n      jump\t// out\n        /* \"ArbitrageDao-Contract/contracts/ArbitragePrice.sol\":1628:1714  function getUniV3Price(address strategy) external override returns(uint256) {\r... */\n    tag_29:\n        /* \"ArbitrageDao-Contract/contracts/ArbitragePrice.sol\":1695:1702  uint256 */\n      0x00\n        /* \"ArbitrageDao-Contract/contracts/ArbitragePrice.sol\":1628:1714  function getUniV3Price(address strategy) external override returns(uint256) {\r... */\n      swap2\n      swap1\n      pop\n      jump\t// out\n        /* \"ArbitrageDao-Contract/contracts/extern/Manageable.sol\":3469:3565  function renounceOwnership() external virtual onlyOwner {\r... */\n    tag_32:\n        /* \"ArbitrageDao-Contract/contracts/extern/Manageable.sol\":4842:4852  msg.sender */\n      caller\n        /* \"ArbitrageDao-Contract/contracts/extern/Manageable.sol\":4831:4852  owner() == msg.sender */\n      0xffffffffffffffffffffffffffffffffffffffff\n      and\n        /* \"ArbitrageDao-Contract/contracts/extern/Manageable.sol\":4831:4838  owner() */\n      tag_64\n        /* \"ArbitrageDao-Contract/contracts/extern/Manageable.sol\":4831:4836  owner */\n      tag_37\n        /* \"ArbitrageDao-Contract/contracts/extern/Manageable.sol\":4831:4838  owner() */\n      jump\t// in\n    tag_64:\n        /* \"ArbitrageDao-Contract/contracts/extern/Manageable.sol\":4831:4852  owner() == msg.sender */\n      0xffffffffffffffffffffffffffffffffffffffff\n      and\n      eq\n        /* \"ArbitrageDao-Contract/contracts/extern/Manageable.sol\":4823:4881  require(owner() == msg.sender, \"Ownable/caller-not-owner\") */\n      tag_65\n      jumpi\n      mload(0x40)\n      0x08c379a000000000000000000000000000000000000000000000000000000000\n      dup2\n      mstore\n      0x04\n      add\n      tag_66\n      swap1\n      tag_67\n      jump\t// in\n    tag_66:\n      mload(0x40)\n      dup1\n      swap2\n      sub\n      swap1\n      revert\n    tag_65:\n        /* \"ArbitrageDao-Contract/contracts/extern/Manageable.sol\":3536:3557  _setOwner(address(0)) */\n      tag_69\n        /* \"ArbitrageDao-Contract/contracts/extern/Manageable.sol\":3554:3555  0 */\n      0x00\n        /* \"ArbitrageDao-Contract/contracts/extern/Manageable.sol\":3536:3545  _setOwner */\n      tag_61\n        /* \"ArbitrageDao-Contract/contracts/extern/Manageable.sol\":3536:3557  _setOwner(address(0)) */\n      jump\t// in\n    tag_69:\n        /* \"ArbitrageDao-Contract/contracts/extern/Manageable.sol\":3469:3565  function renounceOwnership() external virtual onlyOwner {\r... */\n      jump\t// out\n        /* \"ArbitrageDao-Contract/contracts/ArbitragePrice.sol\":709:736  address public univ3_router */\n    tag_34:\n      0x03\n      0x00\n      swap1\n      sload\n      swap1\n      0x0100\n      exp\n      swap1\n      div\n      0xffffffffffffffffffffffffffffffffffffffff\n      and\n      dup2\n      jump\t// out\n        /* \"ArbitrageDao-Contract/contracts/extern/Manageable.sol\":2755:2842  function owner() public view virtual returns (address) {\r... */\n    tag_37:\n        /* \"ArbitrageDao-Contract/contracts/extern/Manageable.sol\":2801:2808  address */\n      0x00\n        /* \"ArbitrageDao-Contract/contracts/extern/Manageable.sol\":2828:2834  _owner */\n      dup1\n      0x00\n      swap1\n      sload\n      swap1\n      0x0100\n      exp\n      swap1\n      div\n      0xffffffffffffffffffffffffffffffffffffffff\n      and\n        /* \"ArbitrageDao-Contract/contracts/extern/Manageable.sol\":2821:2834  return _owner */\n      swap1\n      pop\n        /* \"ArbitrageDao-Contract/contracts/extern/Manageable.sol\":2755:2842  function owner() public view virtual returns (address) {\r... */\n      swap1\n      jump\t// out\n        /* \"ArbitrageDao-Contract/contracts/ArbitragePrice.sol\":946:1451  function setPool(address strategy, address tokenA, address tokenB) external onlyOwner {\r... */\n    tag_42:\n        /* \"ArbitrageDao-Contract/contracts/extern/Manageable.sol\":4842:4852  msg.sender */\n      caller\n        /* \"ArbitrageDao-Contract/contracts/extern/Manageable.sol\":4831:4852  owner() == msg.sender */\n      0xffffffffffffffffffffffffffffffffffffffff\n      and\n        /* \"ArbitrageDao-Contract/contracts/extern/Manageable.sol\":4831:4838  owner() */\n      tag_72\n        /* \"ArbitrageDao-Contract/contracts/extern/Manageable.sol\":4831:4836  owner */\n      tag_37\n        /* \"ArbitrageDao-Contract/contracts/extern/Manageable.sol\":4831:4838  owner() */\n      jump\t// in\n    tag_72:\n        /* \"ArbitrageDao-Contract/contracts/extern/Manageable.sol\":4831:4852  owner() == msg.sender */\n      0xffffffffffffffffffffffffffffffffffffffff\n      and\n      eq\n        /* \"ArbitrageDao-Contract/contracts/extern/Manageable.sol\":4823:4881  require(owner() == msg.sender, \"Ownable/caller-not-owner\") */\n      tag_73\n      jumpi\n      mload(0x40)\n      0x08c379a000000000000000000000000000000000000000000000000000000000\n      dup2\n      mstore\n      0x04\n      add\n      tag_74\n      swap1\n      tag_67\n      jump\t// in\n    tag_74:\n      mload(0x40)\n      dup1\n      swap2\n      sub\n      swap1\n      revert\n    tag_73:\n        /* \"ArbitrageDao-Contract/contracts/ArbitragePrice.sol\":1071:1072  0 */\n      0x00\n        /* \"ArbitrageDao-Contract/contracts/ArbitragePrice.sol\":1051:1073  strategy != address(0) */\n      0xffffffffffffffffffffffffffffffffffffffff\n      and\n        /* \"ArbitrageDao-Contract/contracts/ArbitragePrice.sol\":1051:1059  strategy */\n      dup4\n        /* \"ArbitrageDao-Contract/contracts/ArbitragePrice.sol\":1051:1073  strategy != address(0) */\n      0xffffffffffffffffffffffffffffffffffffffff\n      and\n      eq\n      iszero\n        /* \"ArbitrageDao-Contract/contracts/ArbitragePrice.sol\":1043:1125  require(strategy != address(0), \"ArbitragePrice: strategy cann't be zero address\") */\n      tag_76\n      jumpi\n      mload(0x40)\n      0x08c379a000000000000000000000000000000000000000000000000000000000\n      dup2\n      mstore\n      0x04\n      add\n      tag_77\n      swap1\n      tag_78\n      jump\t// in\n    tag_77:\n      mload(0x40)\n      dup1\n      swap2\n      sub\n      swap1\n      revert\n    tag_76:\n        /* \"ArbitrageDao-Contract/contracts/ArbitragePrice.sol\":1162:1163  0 */\n      0x00\n        /* \"ArbitrageDao-Contract/contracts/ArbitragePrice.sol\":1144:1164  tokenA != address(0) */\n      0xffffffffffffffffffffffffffffffffffffffff\n      and\n        /* \"ArbitrageDao-Contract/contracts/ArbitragePrice.sol\":1144:1150  tokenA */\n      dup3\n        /* \"ArbitrageDao-Contract/contracts/ArbitragePrice.sol\":1144:1164  tokenA != address(0) */\n      0xffffffffffffffffffffffffffffffffffffffff\n      and\n      eq\n      iszero\n        /* \"ArbitrageDao-Contract/contracts/ArbitragePrice.sol\":1136:1214  require(tokenA != address(0), \"ArbitragePrice: tokenA cann't be zero address\") */\n      tag_79\n      jumpi\n      mload(0x40)\n      0x08c379a000000000000000000000000000000000000000000000000000000000\n      dup2\n      mstore\n      0x04\n      add\n      tag_80\n      swap1\n      tag_81\n      jump\t// in\n    tag_80:\n      mload(0x40)\n      dup1\n      swap2\n      sub\n      swap1\n      revert\n    tag_79:\n        /* \"ArbitrageDao-Contract/contracts/ArbitragePrice.sol\":1251:1252  0 */\n      0x00\n        /* \"ArbitrageDao-Contract/contracts/ArbitragePrice.sol\":1233:1253  tokenB != address(0) */\n      0xffffffffffffffffffffffffffffffffffffffff\n      and\n        /* \"ArbitrageDao-Contract/contracts/ArbitragePrice.sol\":1233:1239  tokenB */\n      dup2\n        /* \"ArbitrageDao-Contract/contracts/ArbitragePrice.sol\":1233:1253  tokenB != address(0) */\n      0xffffffffffffffffffffffffffffffffffffffff\n      and\n      eq\n      iszero\n        /* \"ArbitrageDao-Contract/contracts/ArbitragePrice.sol\":1225:1303  require(tokenB != address(0), \"ArbitragePrice: tokenB cann't be zero address\") */\n      tag_82\n      jumpi\n      mload(0x40)\n      0x08c379a000000000000000000000000000000000000000000000000000000000\n      dup2\n      mstore\n      0x04\n      add\n      tag_83\n      swap1\n      tag_84\n      jump\t// in\n    tag_83:\n      mload(0x40)\n      dup1\n      swap2\n      sub\n      swap1\n      revert\n    tag_82:\n        /* \"ArbitrageDao-Contract/contracts/ArbitragePrice.sol\":1314:1335  Pool storage new_pool */\n      0x00\n        /* \"ArbitrageDao-Contract/contracts/ArbitragePrice.sol\":1364:1370  tokenA */\n      dup3\n        /* \"ArbitrageDao-Contract/contracts/ArbitragePrice.sol\":1346:1354  new_pool */\n      dup2\n        /* \"ArbitrageDao-Contract/contracts/ArbitragePrice.sol\":1346:1361  new_pool.tokenA */\n      0x00\n      add\n      0x00\n        /* \"ArbitrageDao-Contract/contracts/ArbitragePrice.sol\":1346:1370  new_pool.tokenA = tokenA */\n      0x0100\n      exp\n      dup2\n      sload\n      dup2\n      0xffffffffffffffffffffffffffffffffffffffff\n      mul\n      not\n      and\n      swap1\n      dup4\n      0xffffffffffffffffffffffffffffffffffffffff\n      and\n      mul\n      or\n      swap1\n      sstore\n      pop\n        /* \"ArbitrageDao-Contract/contracts/ArbitragePrice.sol\":1399:1405  tokenB */\n      dup2\n        /* \"ArbitrageDao-Contract/contracts/ArbitragePrice.sol\":1381:1389  new_pool */\n      dup2\n        /* \"ArbitrageDao-Contract/contracts/ArbitragePrice.sol\":1381:1396  new_pool.tokenB */\n      0x01\n      add\n      0x00\n        /* \"ArbitrageDao-Contract/contracts/ArbitragePrice.sol\":1381:1405  new_pool.tokenB = tokenB */\n      0x0100\n      exp\n      dup2\n      sload\n      dup2\n      0xffffffffffffffffffffffffffffffffffffffff\n      mul\n      not\n      and\n      swap1\n      dup4\n      0xffffffffffffffffffffffffffffffffffffffff\n      and\n      mul\n      or\n      swap1\n      sstore\n      pop\n        /* \"ArbitrageDao-Contract/contracts/ArbitragePrice.sol\":1435:1443  new_pool */\n      dup1\n        /* \"ArbitrageDao-Contract/contracts/ArbitragePrice.sol\":1416:1422  prices */\n      0x02\n        /* \"ArbitrageDao-Contract/contracts/ArbitragePrice.sol\":1416:1432  prices[strategy] */\n      0x00\n        /* \"ArbitrageDao-Contract/contracts/ArbitragePrice.sol\":1423:1431  strategy */\n      dup7\n        /* \"ArbitrageDao-Contract/contracts/ArbitragePrice.sol\":1416:1432  prices[strategy] */\n      0xffffffffffffffffffffffffffffffffffffffff\n      and\n      0xffffffffffffffffffffffffffffffffffffffff\n      and\n      dup2\n      mstore\n      0x20\n      add\n      swap1\n      dup2\n      mstore\n      0x20\n      add\n      0x00\n      keccak256\n        /* \"ArbitrageDao-Contract/contracts/ArbitragePrice.sol\":1416:1443  prices[strategy] = new_pool */\n      0x00\n      dup3\n      add\n      0x00\n      swap1\n      sload\n      swap1\n      0x0100\n      exp\n      swap1\n      div\n      0xffffffffffffffffffffffffffffffffffffffff\n      and\n      dup2\n      0x00\n      add\n      exp(0x0100, 0x00)\n      dup2\n      sload\n      dup2\n      0xffffffffffffffffffffffffffffffffffffffff\n      mul\n      not\n      and\n      swap1\n      dup4\n      0xffffffffffffffffffffffffffffffffffffffff\n      and\n      mul\n      or\n      swap1\n      sstore\n      pop\n      0x01\n      dup3\n      add\n      0x00\n      swap1\n      sload\n      swap1\n      0x0100\n      exp\n      swap1\n      div\n      0xffffffffffffffffffffffffffffffffffffffff\n      and\n      dup2\n      0x01\n      add\n      exp(0x0100, 0x00)\n      dup2\n      sload\n      dup2\n      0xffffffffffffffffffffffffffffffffffffffff\n      mul\n      not\n      and\n      swap1\n      dup4\n      0xffffffffffffffffffffffffffffffffffffffff\n      and\n      mul\n      or\n      swap1\n      sstore\n      pop\n      swap1\n      pop\n      pop\n        /* \"ArbitrageDao-Contract/contracts/extern/Manageable.sol\":4892:4893  _ */\n      pop\n        /* \"ArbitrageDao-Contract/contracts/ArbitragePrice.sol\":946:1451  function setPool(address strategy, address tokenA, address tokenB) external onlyOwner {\r... */\n      pop\n      pop\n      pop\n      jump\t// out\n        /* \"ArbitrageDao-Contract/contracts/ArbitragePrice.sol\":664:702  mapping(address => Pool) public prices */\n    tag_45:\n      mstore(0x20, 0x02)\n      dup1\n      0x00\n      mstore\n      keccak256(0x00, 0x40)\n      0x00\n      swap2\n      pop\n      swap1\n      pop\n      dup1\n      0x00\n      add\n      0x00\n      swap1\n      sload\n      swap1\n      0x0100\n      exp\n      swap1\n      div\n      0xffffffffffffffffffffffffffffffffffffffff\n      and\n      swap1\n      dup1\n      0x01\n      add\n      0x00\n      swap1\n      sload\n      swap1\n      0x0100\n      exp\n      swap1\n      div\n      0xffffffffffffffffffffffffffffffffffffffff\n      and\n      swap1\n      pop\n      dup3\n      jump\t// out\n        /* \"ArbitrageDao-Contract/contracts/extern/Manageable.sol\":2963:3066  function pendingOwner() external view virtual returns (address) {\r... */\n    tag_49:\n        /* \"ArbitrageDao-Contract/contracts/extern/Manageable.sol\":3018:3025  address */\n      0x00\n        /* \"ArbitrageDao-Contract/contracts/extern/Manageable.sol\":3045:3058  _pendingOwner */\n      0x01\n      0x00\n      swap1\n      sload\n      swap1\n      0x0100\n      exp\n      swap1\n      div\n      0xffffffffffffffffffffffffffffffffffffffff\n      and\n        /* \"ArbitrageDao-Contract/contracts/extern/Manageable.sol\":3038:3058  return _pendingOwner */\n      swap1\n      pop\n        /* \"ArbitrageDao-Contract/contracts/extern/Manageable.sol\":2963:3066  function pendingOwner() external view virtual returns (address) {\r... */\n      swap1\n      jump\t// out\n        /* \"ArbitrageDao-Contract/contracts/extern/Manageable.sol\":3720:3960  function transferOwnership(address _newOwner) external onlyOwner {\r... */\n    tag_53:\n        /* \"ArbitrageDao-Contract/contracts/extern/Manageable.sol\":4842:4852  msg.sender */\n      caller\n        /* \"ArbitrageDao-Contract/contracts/extern/Manageable.sol\":4831:4852  owner() == msg.sender */\n      0xffffffffffffffffffffffffffffffffffffffff\n      and\n        /* \"ArbitrageDao-Contract/contracts/extern/Manageable.sol\":4831:4838  owner() */\n      tag_87\n        /* \"ArbitrageDao-Contract/contracts/extern/Manageable.sol\":4831:4836  owner */\n      tag_37\n        /* \"ArbitrageDao-Contract/contracts/extern/Manageable.sol\":4831:4838  owner() */\n      jump\t// in\n    tag_87:\n        /* \"ArbitrageDao-Contract/contracts/extern/Manageable.sol\":4831:4852  owner() == msg.sender */\n      0xffffffffffffffffffffffffffffffffffffffff\n      and\n      eq\n        /* \"ArbitrageDao-Contract/contracts/extern/Manageable.sol\":4823:4881  require(owner() == msg.sender, \"Ownable/caller-not-owner\") */\n      tag_88\n      jumpi\n      mload(0x40)\n      0x08c379a000000000000000000000000000000000000000000000000000000000\n      dup2\n      mstore\n      0x04\n      add\n      tag_89\n      swap1\n      tag_67\n      jump\t// in\n    tag_89:\n      mload(0x40)\n      dup1\n      swap2\n      sub\n      swap1\n      revert\n    tag_88:\n        /* \"ArbitrageDao-Contract/contracts/extern/Manageable.sol\":3825:3826  0 */\n      0x00\n        /* \"ArbitrageDao-Contract/contracts/extern/Manageable.sol\":3804:3827  _newOwner != address(0) */\n      0xffffffffffffffffffffffffffffffffffffffff\n      and\n        /* \"ArbitrageDao-Contract/contracts/extern/Manageable.sol\":3804:3813  _newOwner */\n      dup2\n        /* \"ArbitrageDao-Contract/contracts/extern/Manageable.sol\":3804:3827  _newOwner != address(0) */\n      0xffffffffffffffffffffffffffffffffffffffff\n      and\n      eq\n      iszero\n        /* \"ArbitrageDao-Contract/contracts/extern/Manageable.sol\":3796:3869  require(_newOwner != address(0), \"Ownable/pendingOwner-not-zero-address\") */\n      tag_91\n      jumpi\n      mload(0x40)\n      0x08c379a000000000000000000000000000000000000000000000000000000000\n      dup2\n      mstore\n      0x04\n      add\n      tag_92\n      swap1\n      tag_93\n      jump\t// in\n    tag_92:\n      mload(0x40)\n      dup1\n      swap2\n      sub\n      swap1\n      revert\n    tag_91:\n        /* \"ArbitrageDao-Contract/contracts/extern/Manageable.sol\":3898:3907  _newOwner */\n      dup1\n        /* \"ArbitrageDao-Contract/contracts/extern/Manageable.sol\":3882:3895  _pendingOwner */\n      0x01\n      0x00\n        /* \"ArbitrageDao-Contract/contracts/extern/Manageable.sol\":3882:3907  _pendingOwner = _newOwner */\n      0x0100\n      exp\n      dup2\n      sload\n      dup2\n      0xffffffffffffffffffffffffffffffffffffffff\n      mul\n      not\n      and\n      swap1\n      dup4\n      0xffffffffffffffffffffffffffffffffffffffff\n      and\n      mul\n      or\n      swap1\n      sstore\n      pop\n        /* \"ArbitrageDao-Contract/contracts/extern/Manageable.sol\":3942:3951  _newOwner */\n      dup1\n        /* \"ArbitrageDao-Contract/contracts/extern/Manageable.sol\":3925:3952  OwnershipOffered(_newOwner) */\n      0xffffffffffffffffffffffffffffffffffffffff\n      and\n      0x239a2ddded15777fa246aed5f7e1a9bc69a39d4eb4a397034d1d85766cca7d4c\n      mload(0x40)\n      mload(0x40)\n      dup1\n      swap2\n      sub\n      swap1\n      log2\n        /* \"ArbitrageDao-Contract/contracts/extern/Manageable.sol\":3720:3960  function transferOwnership(address _newOwner) external onlyOwner {\r... */\n      pop\n      jump\t// out\n        /* \"ArbitrageDao-Contract/contracts/extern/Manageable.sol\":4462:4640  function _setOwner(address _newOwner) private {\r... */\n    tag_61:\n        /* \"ArbitrageDao-Contract/contracts/extern/Manageable.sol\":4519:4536  address _oldOwner */\n      0x00\n        /* \"ArbitrageDao-Contract/contracts/extern/Manageable.sol\":4539:4545  _owner */\n      dup1\n      0x00\n      swap1\n      sload\n      swap1\n      0x0100\n      exp\n      swap1\n      div\n      0xffffffffffffffffffffffffffffffffffffffff\n      and\n        /* \"ArbitrageDao-Contract/contracts/extern/Manageable.sol\":4519:4545  address _oldOwner = _owner */\n      swap1\n      pop\n        /* \"ArbitrageDao-Contract/contracts/extern/Manageable.sol\":4565:4574  _newOwner */\n      dup2\n        /* \"ArbitrageDao-Contract/contracts/extern/Manageable.sol\":4556:4562  _owner */\n      0x00\n      dup1\n        /* \"ArbitrageDao-Contract/contracts/extern/Manageable.sol\":4556:4574  _owner = _newOwner */\n      0x0100\n      exp\n      dup2\n      sload\n      dup2\n      0xffffffffffffffffffffffffffffffffffffffff\n      mul\n      not\n      and\n      swap1\n      dup4\n      0xffffffffffffffffffffffffffffffffffffffff\n      and\n      mul\n      or\n      swap1\n      sstore\n      pop\n        /* \"ArbitrageDao-Contract/contracts/extern/Manageable.sol\":4622:4631  _newOwner */\n      dup2\n        /* \"ArbitrageDao-Contract/contracts/extern/Manageable.sol\":4590:4632  OwnershipTransferred(_oldOwner, _newOwner) */\n      0xffffffffffffffffffffffffffffffffffffffff\n      and\n        /* \"ArbitrageDao-Contract/contracts/extern/Manageable.sol\":4611:4620  _oldOwner */\n      dup2\n        /* \"ArbitrageDao-Contract/contracts/extern/Manageable.sol\":4590:4632  OwnershipTransferred(_oldOwner, _newOwner) */\n      0xffffffffffffffffffffffffffffffffffffffff\n      and\n      0x8be0079c531659141344cd1fd0a4f28419497f9722a3daafe3b4186f6b6457e0\n      mload(0x40)\n      mload(0x40)\n      dup1\n      swap2\n      sub\n      swap1\n      log3\n        /* \"ArbitrageDao-Contract/contracts/extern/Manageable.sol\":4462:4640  function _setOwner(address _newOwner) private {\r... */\n      pop\n      pop\n      jump\t// out\n        /* \"#utility.yul\":7:146   */\n    tag_96:\n      0x00\n        /* \"#utility.yul\":91:97   */\n      dup2\n        /* \"#utility.yul\":78:98   */\n      calldataload\n        /* \"#utility.yul\":69:98   */\n      swap1\n      pop\n        /* \"#utility.yul\":107:140   */\n      tag_98\n        /* \"#utility.yul\":134:139   */\n      dup2\n        /* \"#utility.yul\":107:140   */\n      tag_99\n      jump\t// in\n    tag_98:\n        /* \"#utility.yul\":59:146   */\n      swap3\n      swap2\n      pop\n      pop\n      jump\t// out\n        /* \"#utility.yul\":152:414   */\n    tag_17:\n      0x00\n        /* \"#utility.yul\":260:262   */\n      0x20\n        /* \"#utility.yul\":248:257   */\n      dup3\n        /* \"#utility.yul\":239:246   */\n      dup5\n        /* \"#utility.yul\":235:258   */\n      sub\n        /* \"#utility.yul\":231:263   */\n      slt\n        /* \"#utility.yul\":228:230   */\n      iszero\n      tag_101\n      jumpi\n        /* \"#utility.yul\":276:277   */\n      0x00\n        /* \"#utility.yul\":273:274   */\n      dup1\n        /* \"#utility.yul\":266:278   */\n      revert\n        /* \"#utility.yul\":228:230   */\n    tag_101:\n        /* \"#utility.yul\":319:320   */\n      0x00\n        /* \"#utility.yul\":344:397   */\n      tag_102\n        /* \"#utility.yul\":389:396   */\n      dup5\n        /* \"#utility.yul\":380:386   */\n      dup3\n        /* \"#utility.yul\":369:378   */\n      dup6\n        /* \"#utility.yul\":365:387   */\n      add\n        /* \"#utility.yul\":344:397   */\n      tag_96\n      jump\t// in\n    tag_102:\n        /* \"#utility.yul\":334:397   */\n      swap2\n      pop\n        /* \"#utility.yul\":290:407   */\n      pop\n        /* \"#utility.yul\":218:414   */\n      swap3\n      swap2\n      pop\n      pop\n      jump\t// out\n        /* \"#utility.yul\":420:972   */\n    tag_41:\n      0x00\n      dup1\n      0x00\n        /* \"#utility.yul\":562:564   */\n      0x60\n        /* \"#utility.yul\":550:559   */\n      dup5\n        /* \"#utility.yul\":541:548   */\n      dup7\n        /* \"#utility.yul\":537:560   */\n      sub\n        /* \"#utility.yul\":533:565   */\n      slt\n        /* \"#utility.yul\":530:532   */\n      iszero\n      tag_104\n      jumpi\n        /* \"#utility.yul\":578:579   */\n      0x00\n        /* \"#utility.yul\":575:576   */\n      dup1\n        /* \"#utility.yul\":568:580   */\n      revert\n        /* \"#utility.yul\":530:532   */\n    tag_104:\n        /* \"#utility.yul\":621:622   */\n      0x00\n        /* \"#utility.yul\":646:699   */\n      tag_105\n        /* \"#utility.yul\":691:698   */\n      dup7\n        /* \"#utility.yul\":682:688   */\n      dup3\n        /* \"#utility.yul\":671:680   */\n      dup8\n        /* \"#utility.yul\":667:689   */\n      add\n        /* \"#utility.yul\":646:699   */\n      tag_96\n      jump\t// in\n    tag_105:\n        /* \"#utility.yul\":636:699   */\n      swap4\n      pop\n        /* \"#utility.yul\":592:709   */\n      pop\n        /* \"#utility.yul\":748:750   */\n      0x20\n        /* \"#utility.yul\":774:827   */\n      tag_106\n        /* \"#utility.yul\":819:826   */\n      dup7\n        /* \"#utility.yul\":810:816   */\n      dup3\n        /* \"#utility.yul\":799:808   */\n      dup8\n        /* \"#utility.yul\":795:817   */\n      add\n        /* \"#utility.yul\":774:827   */\n      tag_96\n      jump\t// in\n    tag_106:\n        /* \"#utility.yul\":764:827   */\n      swap3\n      pop\n        /* \"#utility.yul\":719:837   */\n      pop\n        /* \"#utility.yul\":876:878   */\n      0x40\n        /* \"#utility.yul\":902:955   */\n      tag_107\n        /* \"#utility.yul\":947:954   */\n      dup7\n        /* \"#utility.yul\":938:944   */\n      dup3\n        /* \"#utility.yul\":927:936   */\n      dup8\n        /* \"#utility.yul\":923:945   */\n      add\n        /* \"#utility.yul\":902:955   */\n      tag_96\n      jump\t// in\n    tag_107:\n        /* \"#utility.yul\":892:955   */\n      swap2\n      pop\n        /* \"#utility.yul\":847:965   */\n      pop\n        /* \"#utility.yul\":520:972   */\n      swap3\n      pop\n      swap3\n      pop\n      swap3\n      jump\t// out\n        /* \"#utility.yul\":978:1096   */\n    tag_108:\n        /* \"#utility.yul\":1065:1089   */\n      tag_110\n        /* \"#utility.yul\":1083:1088   */\n      dup2\n        /* \"#utility.yul\":1065:1089   */\n      tag_111\n      jump\t// in\n    tag_110:\n        /* \"#utility.yul\":1060:1063   */\n      dup3\n        /* \"#utility.yul\":1053:1090   */\n      mstore\n        /* \"#utility.yul\":1043:1096   */\n      pop\n      pop\n      jump\t// out\n        /* \"#utility.yul\":1102:1424   */\n    tag_112:\n      0x00\n        /* \"#utility.yul\":1265:1332   */\n      tag_114\n        /* \"#utility.yul\":1329:1331   */\n      0x18\n        /* \"#utility.yul\":1324:1327   */\n      dup4\n        /* \"#utility.yul\":1265:1332   */\n      tag_115\n      jump\t// in\n    tag_114:\n        /* \"#utility.yul\":1258:1332   */\n      swap2\n      pop\n        /* \"#utility.yul\":1362:1388   */\n      0x4f776e61626c652f63616c6c65722d6e6f742d6f776e65720000000000000000\n        /* \"#utility.yul\":1358:1359   */\n      0x00\n        /* \"#utility.yul\":1353:1356   */\n      dup4\n        /* \"#utility.yul\":1349:1360   */\n      add\n        /* \"#utility.yul\":1342:1389   */\n      mstore\n        /* \"#utility.yul\":1415:1417   */\n      0x20\n        /* \"#utility.yul\":1410:1413   */\n      dup3\n        /* \"#utility.yul\":1406:1418   */\n      add\n        /* \"#utility.yul\":1399:1418   */\n      swap1\n      pop\n        /* \"#utility.yul\":1248:1424   */\n      swap2\n      swap1\n      pop\n      jump\t// out\n        /* \"#utility.yul\":1430:1759   */\n    tag_116:\n      0x00\n        /* \"#utility.yul\":1593:1660   */\n      tag_118\n        /* \"#utility.yul\":1657:1659   */\n      0x1f\n        /* \"#utility.yul\":1652:1655   */\n      dup4\n        /* \"#utility.yul\":1593:1660   */\n      tag_115\n      jump\t// in\n    tag_118:\n        /* \"#utility.yul\":1586:1660   */\n      swap2\n      pop\n        /* \"#utility.yul\":1690:1723   */\n      0x4f776e61626c652f63616c6c65722d6e6f742d70656e64696e674f776e657200\n        /* \"#utility.yul\":1686:1687   */\n      0x00\n        /* \"#utility.yul\":1681:1684   */\n      dup4\n        /* \"#utility.yul\":1677:1688   */\n      add\n        /* \"#utility.yul\":1670:1724   */\n      mstore\n        /* \"#utility.yul\":1750:1752   */\n      0x20\n        /* \"#utility.yul\":1745:1748   */\n      dup3\n        /* \"#utility.yul\":1741:1753   */\n      add\n        /* \"#utility.yul\":1734:1753   */\n      swap1\n      pop\n        /* \"#utility.yul\":1576:1759   */\n      swap2\n      swap1\n      pop\n      jump\t// out\n        /* \"#utility.yul\":1765:2144   */\n    tag_119:\n      0x00\n        /* \"#utility.yul\":1928:1995   */\n      tag_121\n        /* \"#utility.yul\":1992:1994   */\n      0x2f\n        /* \"#utility.yul\":1987:1990   */\n      dup4\n        /* \"#utility.yul\":1928:1995   */\n      tag_115\n      jump\t// in\n    tag_121:\n        /* \"#utility.yul\":1921:1995   */\n      swap2\n      pop\n        /* \"#utility.yul\":2025:2059   */\n      0x41726269747261676550726963653a2073747261746567792063616e6e277420\n        /* \"#utility.yul\":2021:2022   */\n      0x00\n        /* \"#utility.yul\":2016:2019   */\n      dup4\n        /* \"#utility.yul\":2012:2023   */\n      add\n        /* \"#utility.yul\":2005:2060   */\n      mstore\n        /* \"#utility.yul\":2091:2108   */\n      0x6265207a65726f20616464726573730000000000000000000000000000000000\n        /* \"#utility.yul\":2086:2088   */\n      0x20\n        /* \"#utility.yul\":2081:2084   */\n      dup4\n        /* \"#utility.yul\":2077:2089   */\n      add\n        /* \"#utility.yul\":2070:2109   */\n      mstore\n        /* \"#utility.yul\":2135:2137   */\n      0x40\n        /* \"#utility.yul\":2130:2133   */\n      dup3\n        /* \"#utility.yul\":2126:2138   */\n      add\n        /* \"#utility.yul\":2119:2138   */\n      swap1\n      pop\n        /* \"#utility.yul\":1911:2144   */\n      swap2\n      swap1\n      pop\n      jump\t// out\n        /* \"#utility.yul\":2150:2527   */\n    tag_122:\n      0x00\n        /* \"#utility.yul\":2313:2380   */\n      tag_124\n        /* \"#utility.yul\":2377:2379   */\n      0x2d\n        /* \"#utility.yul\":2372:2375   */\n      dup4\n        /* \"#utility.yul\":2313:2380   */\n      tag_115\n      jump\t// in\n    tag_124:\n        /* \"#utility.yul\":2306:2380   */\n      swap2\n      pop\n        /* \"#utility.yul\":2410:2444   */\n      0x41726269747261676550726963653a20746f6b656e422063616e6e2774206265\n        /* \"#utility.yul\":2406:2407   */\n      0x00\n        /* \"#utility.yul\":2401:2404   */\n      dup4\n        /* \"#utility.yul\":2397:2408   */\n      add\n        /* \"#utility.yul\":2390:2445   */\n      mstore\n        /* \"#utility.yul\":2476:2491   */\n      0x207a65726f206164647265737300000000000000000000000000000000000000\n        /* \"#utility.yul\":2471:2473   */\n      0x20\n        /* \"#utility.yul\":2466:2469   */\n      dup4\n        /* \"#utility.yul\":2462:2474   */\n      add\n        /* \"#utility.yul\":2455:2492   */\n      mstore\n        /* \"#utility.yul\":2518:2520   */\n      0x40\n        /* \"#utility.yul\":2513:2516   */\n      dup3\n        /* \"#utility.yul\":2509:2521   */\n      add\n        /* \"#utility.yul\":2502:2521   */\n      swap1\n      pop\n        /* \"#utility.yul\":2296:2527   */\n      swap2\n      swap1\n      pop\n      jump\t// out\n        /* \"#utility.yul\":2533:2902   */\n    tag_125:\n      0x00\n        /* \"#utility.yul\":2696:2763   */\n      tag_127\n        /* \"#utility.yul\":2760:2762   */\n      0x25\n        /* \"#utility.yul\":2755:2758   */\n      dup4\n        /* \"#utility.yul\":2696:2763   */\n      tag_115\n      jump\t// in\n    tag_127:\n        /* \"#utility.yul\":2689:2763   */\n      swap2\n      pop\n        /* \"#utility.yul\":2793:2827   */\n      0x4f776e61626c652f70656e64696e674f776e65722d6e6f742d7a65726f2d6164\n        /* \"#utility.yul\":2789:2790   */\n      0x00\n        /* \"#utility.yul\":2784:2787   */\n      dup4\n        /* \"#utility.yul\":2780:2791   */\n      add\n        /* \"#utility.yul\":2773:2828   */\n      mstore\n        /* \"#utility.yul\":2859:2866   */\n      0x6472657373000000000000000000000000000000000000000000000000000000\n        /* \"#utility.yul\":2854:2856   */\n      0x20\n        /* \"#utility.yul\":2849:2852   */\n      dup4\n        /* \"#utility.yul\":2845:2857   */\n      add\n        /* \"#utility.yul\":2838:2867   */\n      mstore\n        /* \"#utility.yul\":2893:2895   */\n      0x40\n        /* \"#utility.yul\":2888:2891   */\n      dup3\n        /* \"#utility.yul\":2884:2896   */\n      add\n        /* \"#utility.yul\":2877:2896   */\n      swap1\n      pop\n        /* \"#utility.yul\":2679:2902   */\n      swap2\n      swap1\n      pop\n      jump\t// out\n        /* \"#utility.yul\":2908:3285   */\n    tag_128:\n      0x00\n        /* \"#utility.yul\":3071:3138   */\n      tag_130\n        /* \"#utility.yul\":3135:3137   */\n      0x2d\n        /* \"#utility.yul\":3130:3133   */\n      dup4\n        /* \"#utility.yul\":3071:3138   */\n      tag_115\n      jump\t// in\n    tag_130:\n        /* \"#utility.yul\":3064:3138   */\n      swap2\n      pop\n        /* \"#utility.yul\":3168:3202   */\n      0x41726269747261676550726963653a20746f6b656e412063616e6e2774206265\n        /* \"#utility.yul\":3164:3165   */\n      0x00\n        /* \"#utility.yul\":3159:3162   */\n      dup4\n        /* \"#utility.yul\":3155:3166   */\n      add\n        /* \"#utility.yul\":3148:3203   */\n      mstore\n        /* \"#utility.yul\":3234:3249   */\n      0x207a65726f206164647265737300000000000000000000000000000000000000\n        /* \"#utility.yul\":3229:3231   */\n      0x20\n        /* \"#utility.yul\":3224:3227   */\n      dup4\n        /* \"#utility.yul\":3220:3232   */\n      add\n        /* \"#utility.yul\":3213:3250   */\n      mstore\n        /* \"#utility.yul\":3276:3278   */\n      0x40\n        /* \"#utility.yul\":3271:3274   */\n      dup3\n        /* \"#utility.yul\":3267:3279   */\n      add\n        /* \"#utility.yul\":3260:3279   */\n      swap1\n      pop\n        /* \"#utility.yul\":3054:3285   */\n      swap2\n      swap1\n      pop\n      jump\t// out\n        /* \"#utility.yul\":3291:3409   */\n    tag_131:\n        /* \"#utility.yul\":3378:3402   */\n      tag_133\n        /* \"#utility.yul\":3396:3401   */\n      dup2\n        /* \"#utility.yul\":3378:3402   */\n      tag_134\n      jump\t// in\n    tag_133:\n        /* \"#utility.yul\":3373:3376   */\n      dup3\n        /* \"#utility.yul\":3366:3403   */\n      mstore\n        /* \"#utility.yul\":3356:3409   */\n      pop\n      pop\n      jump\t// out\n        /* \"#utility.yul\":3415:3637   */\n    tag_24:\n      0x00\n        /* \"#utility.yul\":3546:3548   */\n      0x20\n        /* \"#utility.yul\":3535:3544   */\n      dup3\n        /* \"#utility.yul\":3531:3549   */\n      add\n        /* \"#utility.yul\":3523:3549   */\n      swap1\n      pop\n        /* \"#utility.yul\":3559:3630   */\n      tag_136\n        /* \"#utility.yul\":3627:3628   */\n      0x00\n        /* \"#utility.yul\":3616:3625   */\n      dup4\n        /* \"#utility.yul\":3612:3629   */\n      add\n        /* \"#utility.yul\":3603:3609   */\n      dup5\n        /* \"#utility.yul\":3559:3630   */\n      tag_108\n      jump\t// in\n    tag_136:\n        /* \"#utility.yul\":3513:3637   */\n      swap3\n      swap2\n      pop\n      pop\n      jump\t// out\n        /* \"#utility.yul\":3643:3975   */\n    tag_47:\n      0x00\n        /* \"#utility.yul\":3802:3804   */\n      0x40\n        /* \"#utility.yul\":3791:3800   */\n      dup3\n        /* \"#utility.yul\":3787:3805   */\n      add\n        /* \"#utility.yul\":3779:3805   */\n      swap1\n      pop\n        /* \"#utility.yul\":3815:3886   */\n      tag_138\n        /* \"#utility.yul\":3883:3884   */\n      0x00\n        /* \"#utility.yul\":3872:3881   */\n      dup4\n        /* \"#utility.yul\":3868:3885   */\n      add\n        /* \"#utility.yul\":3859:3865   */\n      dup6\n        /* \"#utility.yul\":3815:3886   */\n      tag_108\n      jump\t// in\n    tag_138:\n        /* \"#utility.yul\":3896:3968   */\n      tag_139\n        /* \"#utility.yul\":3964:3966   */\n      0x20\n        /* \"#utility.yul\":3953:3962   */\n      dup4\n        /* \"#utility.yul\":3949:3967   */\n      add\n        /* \"#utility.yul\":3940:3946   */\n      dup5\n        /* \"#utility.yul\":3896:3968   */\n      tag_108\n      jump\t// in\n    tag_139:\n        /* \"#utility.yul\":3769:3975   */\n      swap4\n      swap3\n      pop\n      pop\n      pop\n      jump\t// out\n        /* \"#utility.yul\":3981:4400   */\n    tag_67:\n      0x00\n        /* \"#utility.yul\":4185:4187   */\n      0x20\n        /* \"#utility.yul\":4174:4183   */\n      dup3\n        /* \"#utility.yul\":4170:4188   */\n      add\n        /* \"#utility.yul\":4162:4188   */\n      swap1\n      pop\n        /* \"#utility.yul\":4234:4243   */\n      dup2\n        /* \"#utility.yul\":4228:4232   */\n      dup2\n        /* \"#utility.yul\":4224:4244   */\n      sub\n        /* \"#utility.yul\":4220:4221   */\n      0x00\n        /* \"#utility.yul\":4209:4218   */\n      dup4\n        /* \"#utility.yul\":4205:4222   */\n      add\n        /* \"#utility.yul\":4198:4245   */\n      mstore\n        /* \"#utility.yul\":4262:4393   */\n      tag_141\n        /* \"#utility.yul\":4388:4392   */\n      dup2\n        /* \"#utility.yul\":4262:4393   */\n      tag_112\n      jump\t// in\n    tag_141:\n        /* \"#utility.yul\":4254:4393   */\n      swap1\n      pop\n        /* \"#utility.yul\":4152:4400   */\n      swap2\n      swap1\n      pop\n      jump\t// out\n        /* \"#utility.yul\":4406:4825   */\n    tag_58:\n      0x00\n        /* \"#utility.yul\":4610:4612   */\n      0x20\n        /* \"#utility.yul\":4599:4608   */\n      dup3\n        /* \"#utility.yul\":4595:4613   */\n      add\n        /* \"#utility.yul\":4587:4613   */\n      swap1\n      pop\n        /* \"#utility.yul\":4659:4668   */\n      dup2\n        /* \"#utility.yul\":4653:4657   */\n      dup2\n        /* \"#utility.yul\":4649:4669   */\n      sub\n        /* \"#utility.yul\":4645:4646   */\n      0x00\n        /* \"#utility.yul\":4634:4643   */\n      dup4\n        /* \"#utility.yul\":4630:4647   */\n      add\n        /* \"#utility.yul\":4623:4670   */\n      mstore\n        /* \"#utility.yul\":4687:4818   */\n      tag_143\n        /* \"#utility.yul\":4813:4817   */\n      dup2\n        /* \"#utility.yul\":4687:4818   */\n      tag_116\n      jump\t// in\n    tag_143:\n        /* \"#utility.yul\":4679:4818   */\n      swap1\n      pop\n        /* \"#utility.yul\":4577:4825   */\n      swap2\n      swap1\n      pop\n      jump\t// out\n        /* \"#utility.yul\":4831:5250   */\n    tag_78:\n      0x00\n        /* \"#utility.yul\":5035:5037   */\n      0x20\n        /* \"#utility.yul\":5024:5033   */\n      dup3\n        /* \"#utility.yul\":5020:5038   */\n      add\n        /* \"#utility.yul\":5012:5038   */\n      swap1\n      pop\n        /* \"#utility.yul\":5084:5093   */\n      dup2\n        /* \"#utility.yul\":5078:5082   */\n      dup2\n        /* \"#utility.yul\":5074:5094   */\n      sub\n        /* \"#utility.yul\":5070:5071   */\n      0x00\n        /* \"#utility.yul\":5059:5068   */\n      dup4\n        /* \"#utility.yul\":5055:5072   */\n      add\n        /* \"#utility.yul\":5048:5095   */\n      mstore\n        /* \"#utility.yul\":5112:5243   */\n      tag_145\n        /* \"#utility.yul\":5238:5242   */\n      dup2\n        /* \"#utility.yul\":5112:5243   */\n      tag_119\n      jump\t// in\n    tag_145:\n        /* \"#utility.yul\":5104:5243   */\n      swap1\n      pop\n        /* \"#utility.yul\":5002:5250   */\n      swap2\n      swap1\n      pop\n      jump\t// out\n        /* \"#utility.yul\":5256:5675   */\n    tag_84:\n      0x00\n        /* \"#utility.yul\":5460:5462   */\n      0x20\n        /* \"#utility.yul\":5449:5458   */\n      dup3\n        /* \"#utility.yul\":5445:5463   */\n      add\n        /* \"#utility.yul\":5437:5463   */\n      swap1\n      pop\n        /* \"#utility.yul\":5509:5518   */\n      dup2\n        /* \"#utility.yul\":5503:5507   */\n      dup2\n        /* \"#utility.yul\":5499:5519   */\n      sub\n        /* \"#utility.yul\":5495:5496   */\n      0x00\n        /* \"#utility.yul\":5484:5493   */\n      dup4\n        /* \"#utility.yul\":5480:5497   */\n      add\n        /* \"#utility.yul\":5473:5520   */\n      mstore\n        /* \"#utility.yul\":5537:5668   */\n      tag_147\n        /* \"#utility.yul\":5663:5667   */\n      dup2\n        /* \"#utility.yul\":5537:5668   */\n      tag_122\n      jump\t// in\n    tag_147:\n        /* \"#utility.yul\":5529:5668   */\n      swap1\n      pop\n        /* \"#utility.yul\":5427:5675   */\n      swap2\n      swap1\n      pop\n      jump\t// out\n        /* \"#utility.yul\":5681:6100   */\n    tag_93:\n      0x00\n        /* \"#utility.yul\":5885:5887   */\n      0x20\n        /* \"#utility.yul\":5874:5883   */\n      dup3\n        /* \"#utility.yul\":5870:5888   */\n      add\n        /* \"#utility.yul\":5862:5888   */\n      swap1\n      pop\n        /* \"#utility.yul\":5934:5943   */\n      dup2\n        /* \"#utility.yul\":5928:5932   */\n      dup2\n        /* \"#utility.yul\":5924:5944   */\n      sub\n        /* \"#utility.yul\":5920:5921   */\n      0x00\n        /* \"#utility.yul\":5909:5918   */\n      dup4\n        /* \"#utility.yul\":5905:5922   */\n      add\n        /* \"#utility.yul\":5898:5945   */\n      mstore\n        /* \"#utility.yul\":5962:6093   */\n      tag_149\n        /* \"#utility.yul\":6088:6092   */\n      dup2\n        /* \"#utility.yul\":5962:6093   */\n      tag_125\n      jump\t// in\n    tag_149:\n        /* \"#utility.yul\":5954:6093   */\n      swap1\n      pop\n        /* \"#utility.yul\":5852:6100   */\n      swap2\n      swap1\n      pop\n      jump\t// out\n        /* \"#utility.yul\":6106:6525   */\n    tag_81:\n      0x00\n        /* \"#utility.yul\":6310:6312   */\n      0x20\n        /* \"#utility.yul\":6299:6308   */\n      dup3\n        /* \"#utility.yul\":6295:6313   */\n      add\n        /* \"#utility.yul\":6287:6313   */\n      swap1\n      pop\n        /* \"#utility.yul\":6359:6368   */\n      dup2\n        /* \"#utility.yul\":6353:6357   */\n      dup2\n        /* \"#utility.yul\":6349:6369   */\n      sub\n        /* \"#utility.yul\":6345:6346   */\n      0x00\n        /* \"#utility.yul\":6334:6343   */\n      dup4\n        /* \"#utility.yul\":6330:6347   */\n      add\n        /* \"#utility.yul\":6323:6370   */\n      mstore\n        /* \"#utility.yul\":6387:6518   */\n      tag_151\n        /* \"#utility.yul\":6513:6517   */\n      dup2\n        /* \"#utility.yul\":6387:6518   */\n      tag_128\n      jump\t// in\n    tag_151:\n        /* \"#utility.yul\":6379:6518   */\n      swap1\n      pop\n        /* \"#utility.yul\":6277:6525   */\n      swap2\n      swap1\n      pop\n      jump\t// out\n        /* \"#utility.yul\":6531:6753   */\n    tag_20:\n      0x00\n        /* \"#utility.yul\":6662:6664   */\n      0x20\n        /* \"#utility.yul\":6651:6660   */\n      dup3\n        /* \"#utility.yul\":6647:6665   */\n      add\n        /* \"#utility.yul\":6639:6665   */\n      swap1\n      pop\n        /* \"#utility.yul\":6675:6746   */\n      tag_153\n        /* \"#utility.yul\":6743:6744   */\n      0x00\n        /* \"#utility.yul\":6732:6741   */\n      dup4\n        /* \"#utility.yul\":6728:6745   */\n      add\n        /* \"#utility.yul\":6719:6725   */\n      dup5\n        /* \"#utility.yul\":6675:6746   */\n      tag_131\n      jump\t// in\n    tag_153:\n        /* \"#utility.yul\":6629:6753   */\n      swap3\n      swap2\n      pop\n      pop\n      jump\t// out\n        /* \"#utility.yul\":6759:6928   */\n    tag_115:\n      0x00\n        /* \"#utility.yul\":6877:6883   */\n      dup3\n        /* \"#utility.yul\":6872:6875   */\n      dup3\n        /* \"#utility.yul\":6865:6884   */\n      mstore\n        /* \"#utility.yul\":6917:6921   */\n      0x20\n        /* \"#utility.yul\":6912:6915   */\n      dup3\n        /* \"#utility.yul\":6908:6922   */\n      add\n        /* \"#utility.yul\":6893:6922   */\n      swap1\n      pop\n        /* \"#utility.yul\":6855:6928   */\n      swap3\n      swap2\n      pop\n      pop\n      jump\t// out\n        /* \"#utility.yul\":6934:7030   */\n    tag_111:\n      0x00\n        /* \"#utility.yul\":7000:7024   */\n      tag_156\n        /* \"#utility.yul\":7018:7023   */\n      dup3\n        /* \"#utility.yul\":7000:7024   */\n      tag_157\n      jump\t// in\n    tag_156:\n        /* \"#utility.yul\":6989:7024   */\n      swap1\n      pop\n        /* \"#utility.yul\":6979:7030   */\n      swap2\n      swap1\n      pop\n      jump\t// out\n        /* \"#utility.yul\":7036:7162   */\n    tag_157:\n      0x00\n        /* \"#utility.yul\":7113:7155   */\n      0xffffffffffffffffffffffffffffffffffffffff\n        /* \"#utility.yul\":7106:7111   */\n      dup3\n        /* \"#utility.yul\":7102:7156   */\n      and\n        /* \"#utility.yul\":7091:7156   */\n      swap1\n      pop\n        /* \"#utility.yul\":7081:7162   */\n      swap2\n      swap1\n      pop\n      jump\t// out\n        /* \"#utility.yul\":7168:7245   */\n    tag_134:\n      0x00\n        /* \"#utility.yul\":7234:7239   */\n      dup2\n        /* \"#utility.yul\":7223:7239   */\n      swap1\n      pop\n        /* \"#utility.yul\":7213:7245   */\n      swap2\n      swap1\n      pop\n      jump\t// out\n        /* \"#utility.yul\":7251:7373   */\n    tag_99:\n        /* \"#utility.yul\":7324:7348   */\n      tag_161\n        /* \"#utility.yul\":7342:7347   */\n      dup2\n        /* \"#utility.yul\":7324:7348   */\n      tag_111\n      jump\t// in\n    tag_161:\n        /* \"#utility.yul\":7317:7322   */\n      dup2\n        /* \"#utility.yul\":7314:7349   */\n      eq\n        /* \"#utility.yul\":7304:7306   */\n      tag_162\n      jumpi\n        /* \"#utility.yul\":7363:7364   */\n      0x00\n        /* \"#utility.yul\":7360:7361   */\n      dup1\n        /* \"#utility.yul\":7353:7365   */\n      revert\n        /* \"#utility.yul\":7304:7306   */\n    tag_162:\n        /* \"#utility.yul\":7294:7373   */\n      pop\n      jump\t// out\n\n    auxdata: 0xa26469706673582212207b4d6e5506211d3110a47e3575ad51b955d930d0d5ecaf415743f6fb4acd199264736f6c63430008000033\n}\n",
				"bytecode": {
					"linkReferences": {},
					"object": "60806040523480156200001157600080fd5b5060405162001119380380620011198339818101604052810190620000379190620001af565b336200004981620000d460201b60201c565b5081600360006101000a81548173ffffffffffffffffffffffffffffffffffffffff021916908373ffffffffffffffffffffffffffffffffffffffff16021790555080600460006101000a81548173ffffffffffffffffffffffffffffffffffffffff021916908373ffffffffffffffffffffffffffffffffffffffff16021790555050506200023e565b60008060009054906101000a900473ffffffffffffffffffffffffffffffffffffffff169050816000806101000a81548173ffffffffffffffffffffffffffffffffffffffff021916908373ffffffffffffffffffffffffffffffffffffffff1602179055508173ffffffffffffffffffffffffffffffffffffffff168173ffffffffffffffffffffffffffffffffffffffff167f8be0079c531659141344cd1fd0a4f28419497f9722a3daafe3b4186f6b6457e060405160405180910390a35050565b600081519050620001a98162000224565b92915050565b60008060408385031215620001c357600080fd5b6000620001d38582860162000198565b9250506020620001e68582860162000198565b9150509250929050565b6000620001fd8262000204565b9050919050565b600073ffffffffffffffffffffffffffffffffffffffff82169050919050565b6200022f81620001f0565b81146200023b57600080fd5b50565b610ecb806200024e6000396000f3fe608060405234801561001057600080fd5b50600436106100a95760003560e01c80638292fd84116100715780638292fd84146101405780638da5cb5b1461015e5780639a62b39a1461017c578063cfed246b14610198578063e30c3978146101c9578063f2fde38b146101e7576100a9565b806318d092d6146100ae578063245a7bfc146100de5780634e71e0c8146100fc5780635a1ed7c314610106578063715018a614610136575b600080fd5b6100c860048036038101906100c39190610a64565b610203565b6040516100d59190610e16565b60405180910390f35b6100e6610231565b6040516100f39190610d12565b60405180910390f35b610104610257565b005b610120600480360381019061011b9190610a64565b610356565b60405161012d9190610e16565b60405180910390f35b61013e61035d565b005b6101486103de565b6040516101559190610d12565b60405180910390f35b610166610404565b6040516101739190610d12565b60405180910390f35b61019660048036038101906101919190610a8d565b61042d565b005b6101b260048036038101906101ad9190610a64565b610791565b6040516101c0929190610d2d565b60405180910390f35b6101d16107f5565b6040516101de9190610d12565b60405180910390f35b61020160048036038101906101fc9190610a64565b61081f565b005b600080600460009054906101000a900473ffffffffffffffffffffffffffffffffffffffff16905050919050565b600460009054906101000a900473ffffffffffffffffffffffffffffffffffffffff1681565b600160009054906101000a900473ffffffffffffffffffffffffffffffffffffffff1673ffffffffffffffffffffffffffffffffffffffff163373ffffffffffffffffffffffffffffffffffffffff16146102e7576040517f08c379a00000000000000000000000000000000000000000000000000000000081526004016102de90610d76565b60405180910390fd5b610312600160009054906101000a900473ffffffffffffffffffffffffffffffffffffffff1661098b565b6000600160006101000a81548173ffffffffffffffffffffffffffffffffffffffff021916908373ffffffffffffffffffffffffffffffffffffffff160217905550565b6000919050565b3373ffffffffffffffffffffffffffffffffffffffff1661037c610404565b73ffffffffffffffffffffffffffffffffffffffff16146103d2576040517f08c379a00000000000000000000000000000000000000000000000000000000081526004016103c990610d56565b60405180910390fd5b6103dc600061098b565b565b600360009054906101000a900473ffffffffffffffffffffffffffffffffffffffff1681565b60008060009054906101000a900473ffffffffffffffffffffffffffffffffffffffff16905090565b3373ffffffffffffffffffffffffffffffffffffffff1661044c610404565b73ffffffffffffffffffffffffffffffffffffffff16146104a2576040517f08c379a000000000000000000000000000000000000000000000000000000000815260040161049990610d56565b60405180910390fd5b600073ffffffffffffffffffffffffffffffffffffffff168373ffffffffffffffffffffffffffffffffffffffff161415610512576040517f08c379a000000000000000000000000000000000000000000000000000000000815260040161050990610d96565b60405180910390fd5b600073ffffffffffffffffffffffffffffffffffffffff168273ffffffffffffffffffffffffffffffffffffffff161415610582576040517f08c379a000000000000000000000000000000000000000000000000000000000815260040161057990610df6565b60405180910390fd5b600073ffffffffffffffffffffffffffffffffffffffff168173ffffffffffffffffffffffffffffffffffffffff1614156105f2576040517f08c379a00000000000000000000000000000000000000000000000000000000081526004016105e990610db6565b60405180910390fd5b6000828160000160006101000a81548173ffffffffffffffffffffffffffffffffffffffff021916908373ffffffffffffffffffffffffffffffffffffffff160217905550818160010160006101000a81548173ffffffffffffffffffffffffffffffffffffffff021916908373ffffffffffffffffffffffffffffffffffffffff16021790555080600260008673ffffffffffffffffffffffffffffffffffffffff1673ffffffffffffffffffffffffffffffffffffffff1681526020019081526020016000206000820160009054906101000a900473ffffffffffffffffffffffffffffffffffffffff168160000160006101000a81548173ffffffffffffffffffffffffffffffffffffffff021916908373ffffffffffffffffffffffffffffffffffffffff1602179055506001820160009054906101000a900473ffffffffffffffffffffffffffffffffffffffff168160010160006101000a81548173ffffffffffffffffffffffffffffffffffffffff021916908373ffffffffffffffffffffffffffffffffffffffff16021790555090505050505050565b60026020528060005260406000206000915090508060000160009054906101000a900473ffffffffffffffffffffffffffffffffffffffff16908060010160009054906101000a900473ffffffffffffffffffffffffffffffffffffffff16905082565b6000600160009054906101000a900473ffffffffffffffffffffffffffffffffffffffff16905090565b3373ffffffffffffffffffffffffffffffffffffffff1661083e610404565b73ffffffffffffffffffffffffffffffffffffffff1614610894576040517f08c379a000000000000000000000000000000000000000000000000000000000815260040161088b90610d56565b60405180910390fd5b600073ffffffffffffffffffffffffffffffffffffffff168173ffffffffffffffffffffffffffffffffffffffff161415610904576040517f08c379a00000000000000000000000000000000000000000000000000000000081526004016108fb90610dd6565b60405180910390fd5b80600160006101000a81548173ffffffffffffffffffffffffffffffffffffffff021916908373ffffffffffffffffffffffffffffffffffffffff1602179055508073ffffffffffffffffffffffffffffffffffffffff167f239a2ddded15777fa246aed5f7e1a9bc69a39d4eb4a397034d1d85766cca7d4c60405160405180910390a250565b60008060009054906101000a900473ffffffffffffffffffffffffffffffffffffffff169050816000806101000a81548173ffffffffffffffffffffffffffffffffffffffff021916908373ffffffffffffffffffffffffffffffffffffffff1602179055508173ffffffffffffffffffffffffffffffffffffffff168173ffffffffffffffffffffffffffffffffffffffff167f8be0079c531659141344cd1fd0a4f28419497f9722a3daafe3b4186f6b6457e060405160405180910390a35050565b600081359050610a5e81610e7e565b92915050565b600060208284031215610a7657600080fd5b6000610a8484828501610a4f565b91505092915050565b600080600060608486031215610aa257600080fd5b6000610ab086828701610a4f565b9350506020610ac186828701610a4f565b9250506040610ad286828701610a4f565b9150509250925092565b610ae581610e42565b82525050565b6000610af8601883610e31565b91507f4f776e61626c652f63616c6c65722d6e6f742d6f776e657200000000000000006000830152602082019050919050565b6000610b38601f83610e31565b91507f4f776e61626c652f63616c6c65722d6e6f742d70656e64696e674f776e6572006000830152602082019050919050565b6000610b78602f83610e31565b91507f41726269747261676550726963653a2073747261746567792063616e6e27742060008301527f6265207a65726f206164647265737300000000000000000000000000000000006020830152604082019050919050565b6000610bde602d83610e31565b91507f41726269747261676550726963653a20746f6b656e422063616e6e277420626560008301527f207a65726f2061646472657373000000000000000000000000000000000000006020830152604082019050919050565b6000610c44602583610e31565b91507f4f776e61626c652f70656e64696e674f776e65722d6e6f742d7a65726f2d616460008301527f64726573730000000000000000000000000000000000000000000000000000006020830152604082019050919050565b6000610caa602d83610e31565b91507f41726269747261676550726963653a20746f6b656e412063616e6e277420626560008301527f207a65726f2061646472657373000000000000000000000000000000000000006020830152604082019050919050565b610d0c81610e74565b82525050565b6000602082019050610d276000830184610adc565b92915050565b6000604082019050610d426000830185610adc565b610d4f6020830184610adc565b9392505050565b60006020820190508181036000830152610d6f81610aeb565b9050919050565b60006020820190508181036000830152610d8f81610b2b565b9050919050565b60006020820190508181036000830152610daf81610b6b565b9050919050565b60006020820190508181036000830152610dcf81610bd1565b9050919050565b60006020820190508181036000830152610def81610c37565b9050919050565b60006020820190508181036000830152610e0f81610c9d565b9050919050565b6000602082019050610e2b6000830184610d03565b92915050565b600082825260208201905092915050565b6000610e4d82610e54565b9050919050565b600073ffffffffffffffffffffffffffffffffffffffff82169050919050565b6000819050919050565b610e8781610e42565b8114610e9257600080fd5b5056fea26469706673582212207b4d6e5506211d3110a47e3575ad51b955d930d0d5ecaf415743f6fb4acd199264736f6c63430008000033",
					"opcodes": "PUSH1 0x80 PUSH1 0x40 MSTORE CALLVALUE DUP1 ISZERO PUSH3 0x11 JUMPI PUSH1 0x0 DUP1 REVERT JUMPDEST POP PUSH1 0x40 MLOAD PUSH3 0x1119 CODESIZE SUB DUP1 PUSH3 0x1119 DUP4 CODECOPY DUP2 DUP2 ADD PUSH1 0x40 MSTORE DUP2 ADD SWAP1 PUSH3 0x37 SWAP2 SWAP1 PUSH3 0x1AF JUMP JUMPDEST CALLER PUSH3 0x49 DUP2 PUSH3 0xD4 PUSH1 0x20 SHL PUSH1 0x20 SHR JUMP JUMPDEST POP DUP2 PUSH1 0x3 PUSH1 0x0 PUSH2 0x100 EXP DUP2 SLOAD DUP2 PUSH20 0xFFFFFFFFFFFFFFFFFFFFFFFFFFFFFFFFFFFFFFFF MUL NOT AND SWAP1 DUP4 PUSH20 0xFFFFFFFFFFFFFFFFFFFFFFFFFFFFFFFFFFFFFFFF AND MUL OR SWAP1 SSTORE POP DUP1 PUSH1 0x4 PUSH1 0x0 PUSH2 0x100 EXP DUP2 SLOAD DUP2 PUSH20 0xFFFFFFFFFFFFFFFFFFFFFFFFFFFFFFFFFFFFFFFF MUL NOT AND SWAP1 DUP4 PUSH20 0xFFFFFFFFFFFFFFFFFFFFFFFFFFFFFFFFFFFFFFFF AND MUL OR SWAP1 SSTORE POP POP POP PUSH3 0x23E JUMP JUMPDEST PUSH1 0x0 DUP1 PUSH1 0x0 SWAP1 SLOAD SWAP1 PUSH2 0x100 EXP SWAP1 DIV PUSH20 0xFFFFFFFFFFFFFFFFFFFFFFFFFFFFFFFFFFFFFFFF AND SWAP1 POP DUP2 PUSH1 0x0 DUP1 PUSH2 0x100 EXP DUP2 SLOAD DUP2 PUSH20 0xFFFFFFFFFFFFFFFFFFFFFFFFFFFFFFFFFFFFFFFF MUL NOT AND SWAP1 DUP4 PUSH20 0xFFFFFFFFFFFFFFFFFFFFFFFFFFFFFFFFFFFFFFFF AND MUL OR SWAP1 SSTORE POP DUP2 PUSH20 0xFFFFFFFFFFFFFFFFFFFFFFFFFFFFFFFFFFFFFFFF AND DUP2 PUSH20 0xFFFFFFFFFFFFFFFFFFFFFFFFFFFFFFFFFFFFFFFF AND PUSH32 0x8BE0079C531659141344CD1FD0A4F28419497F9722A3DAAFE3B4186F6B6457E0 PUSH1 0x40 MLOAD PUSH1 0x40 MLOAD DUP1 SWAP2 SUB SWAP1 LOG3 POP POP JUMP JUMPDEST PUSH1 0x0 DUP2 MLOAD SWAP1 POP PUSH3 0x1A9 DUP2 PUSH3 0x224 JUMP JUMPDEST SWAP3 SWAP2 POP POP JUMP JUMPDEST PUSH1 0x0 DUP1 PUSH1 0x40 DUP4 DUP6 SUB SLT ISZERO PUSH3 0x1C3 JUMPI PUSH1 0x0 DUP1 REVERT JUMPDEST PUSH1 0x0 PUSH3 0x1D3 DUP6 DUP3 DUP7 ADD PUSH3 0x198 JUMP JUMPDEST SWAP3 POP POP PUSH1 0x20 PUSH3 0x1E6 DUP6 DUP3 DUP7 ADD PUSH3 0x198 JUMP JUMPDEST SWAP2 POP POP SWAP3 POP SWAP3 SWAP1 POP JUMP JUMPDEST PUSH1 0x0 PUSH3 0x1FD DUP3 PUSH3 0x204 JUMP JUMPDEST SWAP1 POP SWAP2 SWAP1 POP JUMP JUMPDEST PUSH1 0x0 PUSH20 0xFFFFFFFFFFFFFFFFFFFFFFFFFFFFFFFFFFFFFFFF DUP3 AND SWAP1 POP SWAP2 SWAP1 POP JUMP JUMPDEST PUSH3 0x22F DUP2 PUSH3 0x1F0 JUMP JUMPDEST DUP2 EQ PUSH3 0x23B JUMPI PUSH1 0x0 DUP1 REVERT JUMPDEST POP JUMP JUMPDEST PUSH2 0xECB DUP1 PUSH3 0x24E PUSH1 0x0 CODECOPY PUSH1 0x0 RETURN INVALID PUSH1 0x80 PUSH1 0x40 MSTORE CALLVALUE DUP1 ISZERO PUSH2 0x10 JUMPI PUSH1 0x0 DUP1 REVERT JUMPDEST POP PUSH1 0x4 CALLDATASIZE LT PUSH2 0xA9 JUMPI PUSH1 0x0 CALLDATALOAD PUSH1 0xE0 SHR DUP1 PUSH4 0x8292FD84 GT PUSH2 0x71 JUMPI DUP1 PUSH4 0x8292FD84 EQ PUSH2 0x140 JUMPI DUP1 PUSH4 0x8DA5CB5B EQ PUSH2 0x15E JUMPI DUP1 PUSH4 0x9A62B39A EQ PUSH2 0x17C JUMPI DUP1 PUSH4 0xCFED246B EQ PUSH2 0x198 JUMPI DUP1 PUSH4 0xE30C3978 EQ PUSH2 0x1C9 JUMPI DUP1 PUSH4 0xF2FDE38B EQ PUSH2 0x1E7 JUMPI PUSH2 0xA9 JUMP JUMPDEST DUP1 PUSH4 0x18D092D6 EQ PUSH2 0xAE JUMPI DUP1 PUSH4 0x245A7BFC EQ PUSH2 0xDE JUMPI DUP1 PUSH4 0x4E71E0C8 EQ PUSH2 0xFC JUMPI DUP1 PUSH4 0x5A1ED7C3 EQ PUSH2 0x106 JUMPI DUP1 PUSH4 0x715018A6 EQ PUSH2 0x136 JUMPI JUMPDEST PUSH1 0x0 DUP1 REVERT JUMPDEST PUSH2 0xC8 PUSH1 0x4 DUP1 CALLDATASIZE SUB DUP2 ADD SWAP1 PUSH2 0xC3 SWAP2 SWAP1 PUSH2 0xA64 JUMP JUMPDEST PUSH2 0x203 JUMP JUMPDEST PUSH1 0x40 MLOAD PUSH2 0xD5 SWAP2 SWAP1 PUSH2 0xE16 JUMP JUMPDEST PUSH1 0x40 MLOAD DUP1 SWAP2 SUB SWAP1 RETURN JUMPDEST PUSH2 0xE6 PUSH2 0x231 JUMP JUMPDEST PUSH1 0x40 MLOAD PUSH2 0xF3 SWAP2 SWAP1 PUSH2 0xD12 JUMP JUMPDEST PUSH1 0x40 MLOAD DUP1 SWAP2 SUB SWAP1 RETURN JUMPDEST PUSH2 0x104 PUSH2 0x257 JUMP JUMPDEST STOP JUMPDEST PUSH2 0x120 PUSH1 0x4 DUP1 CALLDATASIZE SUB DUP2 ADD SWAP1 PUSH2 0x11B SWAP2 SWAP1 PUSH2 0xA64 JUMP JUMPDEST PUSH2 0x356 JUMP JUMPDEST PUSH1 0x40 MLOAD PUSH2 0x12D SWAP2 SWAP1 PUSH2 0xE16 JUMP JUMPDEST PUSH1 0x40 MLOAD DUP1 SWAP2 SUB SWAP1 RETURN JUMPDEST PUSH2 0x13E PUSH2 0x35D JUMP JUMPDEST STOP JUMPDEST PUSH2 0x148 PUSH2 0x3DE JUMP JUMPDEST PUSH1 0x40 MLOAD PUSH2 0x155 SWAP2 SWAP1 PUSH2 0xD12 JUMP JUMPDEST PUSH1 0x40 MLOAD DUP1 SWAP2 SUB SWAP1 RETURN JUMPDEST PUSH2 0x166 PUSH2 0x404 JUMP JUMPDEST PUSH1 0x40 MLOAD PUSH2 0x173 SWAP2 SWAP1 PUSH2 0xD12 JUMP JUMPDEST PUSH1 0x40 MLOAD DUP1 SWAP2 SUB SWAP1 RETURN JUMPDEST PUSH2 0x196 PUSH1 0x4 DUP1 CALLDATASIZE SUB DUP2 ADD SWAP1 PUSH2 0x191 SWAP2 SWAP1 PUSH2 0xA8D JUMP JUMPDEST PUSH2 0x42D JUMP JUMPDEST STOP JUMPDEST PUSH2 0x1B2 PUSH1 0x4 DUP1 CALLDATASIZE SUB DUP2 ADD SWAP1 PUSH2 0x1AD SWAP2 SWAP1 PUSH2 0xA64 JUMP JUMPDEST PUSH2 0x791 JUMP JUMPDEST PUSH1 0x40 MLOAD PUSH2 0x1C0 SWAP3 SWAP2 SWAP1 PUSH2 0xD2D JUMP JUMPDEST PUSH1 0x40 MLOAD DUP1 SWAP2 SUB SWAP1 RETURN JUMPDEST PUSH2 0x1D1 PUSH2 0x7F5 JUMP JUMPDEST PUSH1 0x40 MLOAD PUSH2 0x1DE SWAP2 SWAP1 PUSH2 0xD12 JUMP JUMPDEST PUSH1 0x40 MLOAD DUP1 SWAP2 SUB SWAP1 RETURN JUMPDEST PUSH2 0x201 PUSH1 0x4 DUP1 CALLDATASIZE SUB DUP2 ADD SWAP1 PUSH2 0x1FC SWAP2 SWAP1 PUSH2 0xA64 JUMP JUMPDEST PUSH2 0x81F JUMP JUMPDEST STOP JUMPDEST PUSH1 0x0 DUP1 PUSH1 0x4 PUSH1 0x0 SWAP1 SLOAD SWAP1 PUSH2 0x100 EXP SWAP1 DIV PUSH20 0xFFFFFFFFFFFFFFFFFFFFFFFFFFFFFFFFFFFFFFFF AND SWAP1 POP POP SWAP2 SWAP1 POP JUMP JUMPDEST PUSH1 0x4 PUSH1 0x0 SWAP1 SLOAD SWAP1 PUSH2 0x100 EXP SWAP1 DIV PUSH20 0xFFFFFFFFFFFFFFFFFFFFFFFFFFFFFFFFFFFFFFFF AND DUP2 JUMP JUMPDEST PUSH1 0x1 PUSH1 0x0 SWAP1 SLOAD SWAP1 PUSH2 0x100 EXP SWAP1 DIV PUSH20 0xFFFFFFFFFFFFFFFFFFFFFFFFFFFFFFFFFFFFFFFF AND PUSH20 0xFFFFFFFFFFFFFFFFFFFFFFFFFFFFFFFFFFFFFFFF AND CALLER PUSH20 0xFFFFFFFFFFFFFFFFFFFFFFFFFFFFFFFFFFFFFFFF AND EQ PUSH2 0x2E7 JUMPI PUSH1 0x40 MLOAD PUSH32 0x8C379A000000000000000000000000000000000000000000000000000000000 DUP2 MSTORE PUSH1 0x4 ADD PUSH2 0x2DE SWAP1 PUSH2 0xD76 JUMP JUMPDEST PUSH1 0x40 MLOAD DUP1 SWAP2 SUB SWAP1 REVERT JUMPDEST PUSH2 0x312 PUSH1 0x1 PUSH1 0x0 SWAP1 SLOAD SWAP1 PUSH2 0x100 EXP SWAP1 DIV PUSH20 0xFFFFFFFFFFFFFFFFFFFFFFFFFFFFFFFFFFFFFFFF AND PUSH2 0x98B JUMP JUMPDEST PUSH1 0x0 PUSH1 0x1 PUSH1 0x0 PUSH2 0x100 EXP DUP2 SLOAD DUP2 PUSH20 0xFFFFFFFFFFFFFFFFFFFFFFFFFFFFFFFFFFFFFFFF MUL NOT AND SWAP1 DUP4 PUSH20 0xFFFFFFFFFFFFFFFFFFFFFFFFFFFFFFFFFFFFFFFF AND MUL OR SWAP1 SSTORE POP JUMP JUMPDEST PUSH1 0x0 SWAP2 SWAP1 POP JUMP JUMPDEST CALLER PUSH20 0xFFFFFFFFFFFFFFFFFFFFFFFFFFFFFFFFFFFFFFFF AND PUSH2 0x37C PUSH2 0x404 JUMP JUMPDEST PUSH20 0xFFFFFFFFFFFFFFFFFFFFFFFFFFFFFFFFFFFFFFFF AND EQ PUSH2 0x3D2 JUMPI PUSH1 0x40 MLOAD PUSH32 0x8C379A000000000000000000000000000000000000000000000000000000000 DUP2 MSTORE PUSH1 0x4 ADD PUSH2 0x3C9 SWAP1 PUSH2 0xD56 JUMP JUMPDEST PUSH1 0x40 MLOAD DUP1 SWAP2 SUB SWAP1 REVERT JUMPDEST PUSH2 0x3DC PUSH1 0x0 PUSH2 0x98B JUMP JUMPDEST JUMP JUMPDEST PUSH1 0x3 PUSH1 0x0 SWAP1 SLOAD SWAP1 PUSH2 0x100 EXP SWAP1 DIV PUSH20 0xFFFFFFFFFFFFFFFFFFFFFFFFFFFFFFFFFFFFFFFF AND DUP2 JUMP JUMPDEST PUSH1 0x0 DUP1 PUSH1 0x0 SWAP1 SLOAD SWAP1 PUSH2 0x100 EXP SWAP1 DIV PUSH20 0xFFFFFFFFFFFFFFFFFFFFFFFFFFFFFFFFFFFFFFFF AND SWAP1 POP SWAP1 JUMP JUMPDEST CALLER PUSH20 0xFFFFFFFFFFFFFFFFFFFFFFFFFFFFFFFFFFFFFFFF AND PUSH2 0x44C PUSH2 0x404 JUMP JUMPDEST PUSH20 0xFFFFFFFFFFFFFFFFFFFFFFFFFFFFFFFFFFFFFFFF AND EQ PUSH2 0x4A2 JUMPI PUSH1 0x40 MLOAD PUSH32 0x8C379A000000000000000000000000000000000000000000000000000000000 DUP2 MSTORE PUSH1 0x4 ADD PUSH2 0x499 SWAP1 PUSH2 0xD56 JUMP JUMPDEST PUSH1 0x40 MLOAD DUP1 SWAP2 SUB SWAP1 REVERT JUMPDEST PUSH1 0x0 PUSH20 0xFFFFFFFFFFFFFFFFFFFFFFFFFFFFFFFFFFFFFFFF AND DUP4 PUSH20 0xFFFFFFFFFFFFFFFFFFFFFFFFFFFFFFFFFFFFFFFF AND EQ ISZERO PUSH2 0x512 JUMPI PUSH1 0x40 MLOAD PUSH32 0x8C379A000000000000000000000000000000000000000000000000000000000 DUP2 MSTORE PUSH1 0x4 ADD PUSH2 0x509 SWAP1 PUSH2 0xD96 JUMP JUMPDEST PUSH1 0x40 MLOAD DUP1 SWAP2 SUB SWAP1 REVERT JUMPDEST PUSH1 0x0 PUSH20 0xFFFFFFFFFFFFFFFFFFFFFFFFFFFFFFFFFFFFFFFF AND DUP3 PUSH20 0xFFFFFFFFFFFFFFFFFFFFFFFFFFFFFFFFFFFFFFFF AND EQ ISZERO PUSH2 0x582 JUMPI PUSH1 0x40 MLOAD PUSH32 0x8C379A000000000000000000000000000000000000000000000000000000000 DUP2 MSTORE PUSH1 0x4 ADD PUSH2 0x579 SWAP1 PUSH2 0xDF6 JUMP JUMPDEST PUSH1 0x40 MLOAD DUP1 SWAP2 SUB SWAP1 REVERT JUMPDEST PUSH1 0x0 PUSH20 0xFFFFFFFFFFFFFFFFFFFFFFFFFFFFFFFFFFFFFFFF AND DUP2 PUSH20 0xFFFFFFFFFFFFFFFFFFFFFFFFFFFFFFFFFFFFFFFF AND EQ ISZERO PUSH2 0x5F2 JUMPI PUSH1 0x40 MLOAD PUSH32 0x8C379A000000000000000000000000000000000000000000000000000000000 DUP2 MSTORE PUSH1 0x4 ADD PUSH2 0x5E9 SWAP1 PUSH2 0xDB6 JUMP JUMPDEST PUSH1 0x40 MLOAD DUP1 SWAP2 SUB SWAP1 REVERT JUMPDEST PUSH1 0x0 DUP3 DUP2 PUSH1 0x0 ADD PUSH1 0x0 PUSH2 0x100 EXP DUP2 SLOAD DUP2 PUSH20 0xFFFFFFFFFFFFFFFFFFFFFFFFFFFFFFFFFFFFFFFF MUL NOT AND SWAP1 DUP4 PUSH20 0xFFFFFFFFFFFFFFFFFFFFFFFFFFFFFFFFFFFFFFFF AND MUL OR SWAP1 SSTORE POP DUP2 DUP2 PUSH1 0x1 ADD PUSH1 0x0 PUSH2 0x100 EXP DUP2 SLOAD DUP2 PUSH20 0xFFFFFFFFFFFFFFFFFFFFFFFFFFFFFFFFFFFFFFFF MUL NOT AND SWAP1 DUP4 PUSH20 0xFFFFFFFFFFFFFFFFFFFFFFFFFFFFFFFFFFFFFFFF AND MUL OR SWAP1 SSTORE POP DUP1 PUSH1 0x2 PUSH1 0x0 DUP7 PUSH20 0xFFFFFFFFFFFFFFFFFFFFFFFFFFFFFFFFFFFFFFFF AND PUSH20 0xFFFFFFFFFFFFFFFFFFFFFFFFFFFFFFFFFFFFFFFF AND DUP2 MSTORE PUSH1 0x20 ADD SWAP1 DUP2 MSTORE PUSH1 0x20 ADD PUSH1 0x0 KECCAK256 PUSH1 0x0 DUP3 ADD PUSH1 0x0 SWAP1 SLOAD SWAP1 PUSH2 0x100 EXP SWAP1 DIV PUSH20 0xFFFFFFFFFFFFFFFFFFFFFFFFFFFFFFFFFFFFFFFF AND DUP2 PUSH1 0x0 ADD PUSH1 0x0 PUSH2 0x100 EXP DUP2 SLOAD DUP2 PUSH20 0xFFFFFFFFFFFFFFFFFFFFFFFFFFFFFFFFFFFFFFFF MUL NOT AND SWAP1 DUP4 PUSH20 0xFFFFFFFFFFFFFFFFFFFFFFFFFFFFFFFFFFFFFFFF AND MUL OR SWAP1 SSTORE POP PUSH1 0x1 DUP3 ADD PUSH1 0x0 SWAP1 SLOAD SWAP1 PUSH2 0x100 EXP SWAP1 DIV PUSH20 0xFFFFFFFFFFFFFFFFFFFFFFFFFFFFFFFFFFFFFFFF AND DUP2 PUSH1 0x1 ADD PUSH1 0x0 PUSH2 0x100 EXP DUP2 SLOAD DUP2 PUSH20 0xFFFFFFFFFFFFFFFFFFFFFFFFFFFFFFFFFFFFFFFF MUL NOT AND SWAP1 DUP4 PUSH20 0xFFFFFFFFFFFFFFFFFFFFFFFFFFFFFFFFFFFFFFFF AND MUL OR SWAP1 SSTORE POP SWAP1 POP POP POP POP POP POP JUMP JUMPDEST PUSH1 0x2 PUSH1 0x20 MSTORE DUP1 PUSH1 0x0 MSTORE PUSH1 0x40 PUSH1 0x0 KECCAK256 PUSH1 0x0 SWAP2 POP SWAP1 POP DUP1 PUSH1 0x0 ADD PUSH1 0x0 SWAP1 SLOAD SWAP1 PUSH2 0x100 EXP SWAP1 DIV PUSH20 0xFFFFFFFFFFFFFFFFFFFFFFFFFFFFFFFFFFFFFFFF AND SWAP1 DUP1 PUSH1 0x1 ADD PUSH1 0x0 SWAP1 SLOAD SWAP1 PUSH2 0x100 EXP SWAP1 DIV PUSH20 0xFFFFFFFFFFFFFFFFFFFFFFFFFFFFFFFFFFFFFFFF AND SWAP1 POP DUP3 JUMP JUMPDEST PUSH1 0x0 PUSH1 0x1 PUSH1 0x0 SWAP1 SLOAD SWAP1 PUSH2 0x100 EXP SWAP1 DIV PUSH20 0xFFFFFFFFFFFFFFFFFFFFFFFFFFFFFFFFFFFFFFFF AND SWAP1 POP SWAP1 JUMP JUMPDEST CALLER PUSH20 0xFFFFFFFFFFFFFFFFFFFFFFFFFFFFFFFFFFFFFFFF AND PUSH2 0x83E PUSH2 0x404 JUMP JUMPDEST PUSH20 0xFFFFFFFFFFFFFFFFFFFFFFFFFFFFFFFFFFFFFFFF AND EQ PUSH2 0x894 JUMPI PUSH1 0x40 MLOAD PUSH32 0x8C379A000000000000000000000000000000000000000000000000000000000 DUP2 MSTORE PUSH1 0x4 ADD PUSH2 0x88B SWAP1 PUSH2 0xD56 JUMP JUMPDEST PUSH1 0x40 MLOAD DUP1 SWAP2 SUB SWAP1 REVERT JUMPDEST PUSH1 0x0 PUSH20 0xFFFFFFFFFFFFFFFFFFFFFFFFFFFFFFFFFFFFFFFF AND DUP2 PUSH20 0xFFFFFFFFFFFFFFFFFFFFFFFFFFFFFFFFFFFFFFFF AND EQ ISZERO PUSH2 0x904 JUMPI PUSH1 0x40 MLOAD PUSH32 0x8C379A000000000000000000000000000000000000000000000000000000000 DUP2 MSTORE PUSH1 0x4 ADD PUSH2 0x8FB SWAP1 PUSH2 0xDD6 JUMP JUMPDEST PUSH1 0x40 MLOAD DUP1 SWAP2 SUB SWAP1 REVERT JUMPDEST DUP1 PUSH1 0x1 PUSH1 0x0 PUSH2 0x100 EXP DUP2 SLOAD DUP2 PUSH20 0xFFFFFFFFFFFFFFFFFFFFFFFFFFFFFFFFFFFFFFFF MUL NOT AND SWAP1 DUP4 PUSH20 0xFFFFFFFFFFFFFFFFFFFFFFFFFFFFFFFFFFFFFFFF AND MUL OR SWAP1 SSTORE POP DUP1 PUSH20 0xFFFFFFFFFFFFFFFFFFFFFFFFFFFFFFFFFFFFFFFF AND PUSH32 0x239A2DDDED15777FA246AED5F7E1A9BC69A39D4EB4A397034D1D85766CCA7D4C PUSH1 0x40 MLOAD PUSH1 0x40 MLOAD DUP1 SWAP2 SUB SWAP1 LOG2 POP JUMP JUMPDEST PUSH1 0x0 DUP1 PUSH1 0x0 SWAP1 SLOAD SWAP1 PUSH2 0x100 EXP SWAP1 DIV PUSH20 0xFFFFFFFFFFFFFFFFFFFFFFFFFFFFFFFFFFFFFFFF AND SWAP1 POP DUP2 PUSH1 0x0 DUP1 PUSH2 0x100 EXP DUP2 SLOAD DUP2 PUSH20 0xFFFFFFFFFFFFFFFFFFFFFFFFFFFFFFFFFFFFFFFF MUL NOT AND SWAP1 DUP4 PUSH20 0xFFFFFFFFFFFFFFFFFFFFFFFFFFFFFFFFFFFFFFFF AND MUL OR SWAP1 SSTORE POP DUP2 PUSH20 0xFFFFFFFFFFFFFFFFFFFFFFFFFFFFFFFFFFFFFFFF AND DUP2 PUSH20 0xFFFFFFFFFFFFFFFFFFFFFFFFFFFFFFFFFFFFFFFF AND PUSH32 0x8BE0079C531659141344CD1FD0A4F28419497F9722A3DAAFE3B4186F6B6457E0 PUSH1 0x40 MLOAD PUSH1 0x40 MLOAD DUP1 SWAP2 SUB SWAP1 LOG3 POP POP JUMP JUMPDEST PUSH1 0x0 DUP2 CALLDATALOAD SWAP1 POP PUSH2 0xA5E DUP2 PUSH2 0xE7E JUMP JUMPDEST SWAP3 SWAP2 POP POP JUMP JUMPDEST PUSH1 0x0 PUSH1 0x20 DUP3 DUP5 SUB SLT ISZERO PUSH2 0xA76 JUMPI PUSH1 0x0 DUP1 REVERT JUMPDEST PUSH1 0x0 PUSH2 0xA84 DUP5 DUP3 DUP6 ADD PUSH2 0xA4F JUMP JUMPDEST SWAP2 POP POP SWAP3 SWAP2 POP POP JUMP JUMPDEST PUSH1 0x0 DUP1 PUSH1 0x0 PUSH1 0x60 DUP5 DUP7 SUB SLT ISZERO PUSH2 0xAA2 JUMPI PUSH1 0x0 DUP1 REVERT JUMPDEST PUSH1 0x0 PUSH2 0xAB0 DUP7 DUP3 DUP8 ADD PUSH2 0xA4F JUMP JUMPDEST SWAP4 POP POP PUSH1 0x20 PUSH2 0xAC1 DUP7 DUP3 DUP8 ADD PUSH2 0xA4F JUMP JUMPDEST SWAP3 POP POP PUSH1 0x40 PUSH2 0xAD2 DUP7 DUP3 DUP8 ADD PUSH2 0xA4F JUMP JUMPDEST SWAP2 POP POP SWAP3 POP SWAP3 POP SWAP3 JUMP JUMPDEST PUSH2 0xAE5 DUP2 PUSH2 0xE42 JUMP JUMPDEST DUP3 MSTORE POP POP JUMP JUMPDEST PUSH1 0x0 PUSH2 0xAF8 PUSH1 0x18 DUP4 PUSH2 0xE31 JUMP JUMPDEST SWAP2 POP PUSH32 0x4F776E61626C652F63616C6C65722D6E6F742D6F776E65720000000000000000 PUSH1 0x0 DUP4 ADD MSTORE PUSH1 0x20 DUP3 ADD SWAP1 POP SWAP2 SWAP1 POP JUMP JUMPDEST PUSH1 0x0 PUSH2 0xB38 PUSH1 0x1F DUP4 PUSH2 0xE31 JUMP JUMPDEST SWAP2 POP PUSH32 0x4F776E61626C652F63616C6C65722D6E6F742D70656E64696E674F776E657200 PUSH1 0x0 DUP4 ADD MSTORE PUSH1 0x20 DUP3 ADD SWAP1 POP SWAP2 SWAP1 POP JUMP JUMPDEST PUSH1 0x0 PUSH2 0xB78 PUSH1 0x2F DUP4 PUSH2 0xE31 JUMP JUMPDEST SWAP2 POP PUSH32 0x41726269747261676550726963653A2073747261746567792063616E6E277420 PUSH1 0x0 DUP4 ADD MSTORE PUSH32 0x6265207A65726F20616464726573730000000000000000000000000000000000 PUSH1 0x20 DUP4 ADD MSTORE PUSH1 0x40 DUP3 ADD SWAP1 POP SWAP2 SWAP1 POP JUMP JUMPDEST PUSH1 0x0 PUSH2 0xBDE PUSH1 0x2D DUP4 PUSH2 0xE31 JUMP JUMPDEST SWAP2 POP PUSH32 0x41726269747261676550726963653A20746F6B656E422063616E6E2774206265 PUSH1 0x0 DUP4 ADD MSTORE PUSH32 0x207A65726F206164647265737300000000000000000000000000000000000000 PUSH1 0x20 DUP4 ADD MSTORE PUSH1 0x40 DUP3 ADD SWAP1 POP SWAP2 SWAP1 POP JUMP JUMPDEST PUSH1 0x0 PUSH2 0xC44 PUSH1 0x25 DUP4 PUSH2 0xE31 JUMP JUMPDEST SWAP2 POP PUSH32 0x4F776E61626C652F70656E64696E674F776E65722D6E6F742D7A65726F2D6164 PUSH1 0x0 DUP4 ADD MSTORE PUSH32 0x6472657373000000000000000000000000000000000000000000000000000000 PUSH1 0x20 DUP4 ADD MSTORE PUSH1 0x40 DUP3 ADD SWAP1 POP SWAP2 SWAP1 POP JUMP JUMPDEST PUSH1 0x0 PUSH2 0xCAA PUSH1 0x2D DUP4 PUSH2 0xE31 JUMP JUMPDEST SWAP2 POP PUSH32 0x41726269747261676550726963653A20746F6B656E412063616E6E2774206265 PUSH1 0x0 DUP4 ADD MSTORE PUSH32 0x207A65726F206164647265737300000000000000000000000000000000000000 PUSH1 0x20 DUP4 ADD MSTORE PUSH1 0x40 DUP3 ADD SWAP1 POP SWAP2 SWAP1 POP JUMP JUMPDEST PUSH2 0xD0C DUP2 PUSH2 0xE74 JUMP JUMPDEST DUP3 MSTORE POP POP JUMP JUMPDEST PUSH1 0x0 PUSH1 0x20 DUP3 ADD SWAP1 POP PUSH2 0xD27 PUSH1 0x0 DUP4 ADD DUP5 PUSH2 0xADC JUMP JUMPDEST SWAP3 SWAP2 POP POP JUMP JUMPDEST PUSH1 0x0 PUSH1 0x40 DUP3 ADD SWAP1 POP PUSH2 0xD42 PUSH1 0x0 DUP4 ADD DUP6 PUSH2 0xADC JUMP JUMPDEST PUSH2 0xD4F PUSH1 0x20 DUP4 ADD DUP5 PUSH2 0xADC JUMP JUMPDEST SWAP4 SWAP3 POP POP POP JUMP JUMPDEST PUSH1 0x0 PUSH1 0x20 DUP3 ADD SWAP1 POP DUP2 DUP2 SUB PUSH1 0x0 DUP4 ADD MSTORE PUSH2 0xD6F DUP2 PUSH2 0xAEB JUMP JUMPDEST SWAP1 POP SWAP2 SWAP1 POP JUMP JUMPDEST PUSH1 0x0 PUSH1 0x20 DUP3 ADD SWAP1 POP DUP2 DUP2 SUB PUSH1 0x0 DUP4 ADD MSTORE PUSH2 0xD8F DUP2 PUSH2 0xB2B JUMP JUMPDEST SWAP1 POP SWAP2 SWAP1 POP JUMP JUMPDEST PUSH1 0x0 PUSH1 0x20 DUP3 ADD SWAP1 POP DUP2 DUP2 SUB PUSH1 0x0 DUP4 ADD MSTORE PUSH2 0xDAF DUP2 PUSH2 0xB6B JUMP JUMPDEST SWAP1 POP SWAP2 SWAP1 POP JUMP JUMPDEST PUSH1 0x0 PUSH1 0x20 DUP3 ADD SWAP1 POP DUP2 DUP2 SUB PUSH1 0x0 DUP4 ADD MSTORE PUSH2 0xDCF DUP2 PUSH2 0xBD1 JUMP JUMPDEST SWAP1 POP SWAP2 SWAP1 POP JUMP JUMPDEST PUSH1 0x0 PUSH1 0x20 DUP3 ADD SWAP1 POP DUP2 DUP2 SUB PUSH1 0x0 DUP4 ADD MSTORE PUSH2 0xDEF DUP2 PUSH2 0xC37 JUMP JUMPDEST SWAP1 POP SWAP2 SWAP1 POP JUMP JUMPDEST PUSH1 0x0 PUSH1 0x20 DUP3 ADD SWAP1 POP DUP2 DUP2 SUB PUSH1 0x0 DUP4 ADD MSTORE PUSH2 0xE0F DUP2 PUSH2 0xC9D JUMP JUMPDEST SWAP1 POP SWAP2 SWAP1 POP JUMP JUMPDEST PUSH1 0x0 PUSH1 0x20 DUP3 ADD SWAP1 POP PUSH2 0xE2B PUSH1 0x0 DUP4 ADD DUP5 PUSH2 0xD03 JUMP JUMPDEST SWAP3 SWAP2 POP POP JUMP JUMPDEST PUSH1 0x0 DUP3 DUP3 MSTORE PUSH1 0x20 DUP3 ADD SWAP1 POP SWAP3 SWAP2 POP POP JUMP JUMPDEST PUSH1 0x0 PUSH2 0xE4D DUP3 PUSH2 0xE54 JUMP JUMPDEST SWAP1 POP SWAP2 SWAP1 POP JUMP JUMPDEST PUSH1 0x0 PUSH20 0xFFFFFFFFFFFFFFFFFFFFFFFFFFFFFFFFFFFFFFFF DUP3 AND SWAP1 POP SWAP2 SWAP1 POP JUMP JUMPDEST PUSH1 0x0 DUP2 SWAP1 POP SWAP2 SWAP1 POP JUMP JUMPDEST PUSH2 0xE87 DUP2 PUSH2 0xE42 JUMP JUMPDEST DUP2 EQ PUSH2 0xE92 JUMPI PUSH1 0x0 DUP1 REVERT JUMPDEST POP JUMP INVALID LOG2 PUSH5 0x6970667358 0x22 SLT KECCAK256 PUSH28 0x4D6E5506211D3110A47E3575AD51B955D930D0D5ECAF415743F6FB4A 0xCD NOT SWAP3 PUSH5 0x736F6C6343 STOP ADDMOD STOP STOP CALLER "
				},
				"gasEstimates": {
					"creation": {
						"codeDepositCost": "757400",
						"executionCost": "infinite",
						"totalCost": "infinite"
					},
					"external": {
						"aggregator()": "1237",
						"claimOwnership()": "46052",
						"getLinkPrice(address)": "1493",
						"getUniV3Price(address)": "710",
						"owner()": "1244",
						"pendingOwner()": "1310",
						"prices(address)": "infinite",
						"renounceOwnership()": "24428",
						"setPool(address,address,address)": "infinite",
						"transferOwnership(address)": "23536",
						"univ3_router()": "1214"
					}
				},
				"methodIdentifiers": {
					"aggregator()": "245a7bfc",
					"claimOwnership()": "4e71e0c8",
					"getLinkPrice(address)": "18d092d6",
					"getUniV3Price(address)": "5a1ed7c3",
					"owner()": "8da5cb5b",
					"pendingOwner()": "e30c3978",
					"prices(address)": "cfed246b",
					"renounceOwnership()": "715018a6",
					"setPool(address,address,address)": "9a62b39a",
					"transferOwnership(address)": "f2fde38b",
					"univ3_router()": "8292fd84"
				}
			},
			"storageLayout": {
				"storage": [
					{
						"astId": 298,
						"contract": "ArbitrageDao-Contract/contracts/ArbitragePrice.sol:ArbitragePrice",
						"label": "_owner",
						"offset": 0,
						"slot": "0",
						"type": "t_address"
					},
					{
						"astId": 300,
						"contract": "ArbitrageDao-Contract/contracts/ArbitragePrice.sol:ArbitragePrice",
						"label": "_pendingOwner",
						"offset": 0,
						"slot": "1",
						"type": "t_address"
					},
					{
						"astId": 179,
						"contract": "ArbitrageDao-Contract/contracts/ArbitragePrice.sol:ArbitragePrice",
						"label": "prices",
						"offset": 0,
						"slot": "2",
						"type": "t_mapping(t_address,t_struct(Pool)174_storage)"
					},
					{
						"astId": 181,
						"contract": "ArbitrageDao-Contract/contracts/ArbitragePrice.sol:ArbitragePrice",
						"label": "univ3_router",
						"offset": 0,
						"slot": "3",
						"type": "t_address"
					},
					{
						"astId": 183,
						"contract": "ArbitrageDao-Contract/contracts/ArbitragePrice.sol:ArbitragePrice",
						"label": "aggregator",
						"offset": 0,
						"slot": "4",
						"type": "t_address"
					}
				],
				"types": {
					"t_address": {
						"encoding": "inplace",
						"label": "address",
						"numberOfBytes": "20"
					},
					"t_mapping(t_address,t_struct(Pool)174_storage)": {
						"encoding": "mapping",
						"key": "t_address",
						"label": "mapping(address => struct ArbitragePrice.Pool)",
						"numberOfBytes": "32",
						"value": "t_struct(Pool)174_storage"
					},
					"t_struct(Pool)174_storage": {
						"encoding": "inplace",
						"label": "struct ArbitragePrice.Pool",
						"members": [
							{
								"astId": 171,
								"contract": "ArbitrageDao-Contract/contracts/ArbitragePrice.sol:ArbitragePrice",
								"label": "tokenA",
								"offset": 0,
								"slot": "0",
								"type": "t_address"
							},
							{
								"astId": 173,
								"contract": "ArbitrageDao-Contract/contracts/ArbitragePrice.sol:ArbitragePrice",
								"label": "tokenB",
								"offset": 0,
								"slot": "1",
								"type": "t_address"
							}
						],
						"numberOfBytes": "64"
					}
				}
			},
			"userdoc": {
				"kind": "user",
				"methods": {
					"claimOwnership()": {
						"notice": "Allows the `_pendingOwner` address to finalize the transfer."
					},
					"owner()": {
						"notice": "Returns the address of the current owner."
					},
					"pendingOwner()": {
						"notice": "Gets current `_pendingOwner`."
					},
					"renounceOwnership()": {
						"notice": "Renounce ownership of the contract."
					},
					"transferOwnership(address)": {
						"notice": "Allows current owner to set the `_pendingOwner` address."
					}
				},
				"version": 1
			}
		}
	}
}