{
	"ArbitrageDao-Contract/contracts/strategyPower.sol": {
		"StrategyPower": {
			"abi": [
				{
					"inputs": [
						{
							"internalType": "address",
							"name": "owner",
							"type": "address"
						},
						{
							"internalType": "address",
							"name": "manager",
							"type": "address"
						}
					],
					"stateMutability": "nonpayable",
					"type": "constructor"
				},
				{
					"anonymous": false,
					"inputs": [
						{
							"indexed": true,
							"internalType": "address",
							"name": "previousManager",
							"type": "address"
						},
						{
							"indexed": true,
							"internalType": "address",
							"name": "newManager",
							"type": "address"
						}
					],
					"name": "ManagerTransferred",
					"type": "event"
				},
				{
					"anonymous": false,
					"inputs": [
						{
							"indexed": true,
							"internalType": "address",
							"name": "pendingOwner",
							"type": "address"
						}
					],
					"name": "OwnershipOffered",
					"type": "event"
				},
				{
					"anonymous": false,
					"inputs": [
						{
							"indexed": true,
							"internalType": "address",
							"name": "previousOwner",
							"type": "address"
						},
						{
							"indexed": true,
							"internalType": "address",
							"name": "newOwner",
							"type": "address"
						}
					],
					"name": "OwnershipTransferred",
					"type": "event"
				},
				{
					"inputs": [
						{
							"internalType": "address",
							"name": "",
							"type": "address"
						}
					],
					"name": "address_power",
					"outputs": [
						{
							"internalType": "uint256",
							"name": "",
							"type": "uint256"
						}
					],
					"stateMutability": "view",
					"type": "function"
				},
				{
					"inputs": [
						{
							"internalType": "uint256",
							"name": "",
							"type": "uint256"
						},
						{
							"internalType": "address",
							"name": "",
							"type": "address"
						}
					],
					"name": "address_proposal_power",
					"outputs": [
						{
							"internalType": "uint256",
							"name": "",
							"type": "uint256"
						}
					],
					"stateMutability": "view",
					"type": "function"
				},
				{
					"inputs": [],
					"name": "claimOwnership",
					"outputs": [],
					"stateMutability": "nonpayable",
					"type": "function"
				},
				{
					"inputs": [
						{
							"internalType": "address",
							"name": "user",
							"type": "address"
						},
						{
							"internalType": "uint256",
							"name": "power",
							"type": "uint256"
						}
					],
					"name": "injectPower",
					"outputs": [],
					"stateMutability": "nonpayable",
					"type": "function"
				},
				{
					"inputs": [],
					"name": "manager",
					"outputs": [
						{
							"internalType": "address",
							"name": "",
							"type": "address"
						}
					],
					"stateMutability": "view",
					"type": "function"
				},
				{
					"inputs": [],
					"name": "owner",
					"outputs": [
						{
							"internalType": "address",
							"name": "",
							"type": "address"
						}
					],
					"stateMutability": "view",
					"type": "function"
				},
				{
					"inputs": [],
					"name": "pass",
					"outputs": [
						{
							"internalType": "uint256",
							"name": "",
							"type": "uint256"
						}
					],
					"stateMutability": "view",
					"type": "function"
				},
				{
					"inputs": [],
					"name": "pendingOwner",
					"outputs": [
						{
							"internalType": "address",
							"name": "",
							"type": "address"
						}
					],
					"stateMutability": "view",
					"type": "function"
				},
				{
					"inputs": [],
					"name": "renounceOwnership",
					"outputs": [],
					"stateMutability": "nonpayable",
					"type": "function"
				},
				{
					"inputs": [
						{
							"internalType": "uint256",
							"name": "proposal",
							"type": "uint256"
						}
					],
					"name": "resolve",
					"outputs": [],
					"stateMutability": "nonpayable",
					"type": "function"
				},
				{
					"inputs": [],
					"name": "total_power",
					"outputs": [
						{
							"internalType": "uint256",
							"name": "",
							"type": "uint256"
						}
					],
					"stateMutability": "view",
					"type": "function"
				},
				{
					"inputs": [
						{
							"internalType": "address",
							"name": "_newOwner",
							"type": "address"
						}
					],
					"name": "transferOwnership",
					"outputs": [],
					"stateMutability": "nonpayable",
					"type": "function"
				},
				{
					"inputs": [
						{
							"internalType": "uint256",
							"name": "proposal",
							"type": "uint256"
						}
					],
					"name": "vote",
					"outputs": [],
					"stateMutability": "nonpayable",
					"type": "function"
				},
				{
					"inputs": [
						{
							"internalType": "uint256",
							"name": "",
							"type": "uint256"
						}
					],
					"name": "vote_power",
					"outputs": [
						{
							"internalType": "uint256",
							"name": "",
							"type": "uint256"
						}
					],
					"stateMutability": "view",
					"type": "function"
				}
			],
			"devdoc": {
				"kind": "dev",
				"methods": {
					"claimOwnership()": {
						"details": "This function is only callable by the `_pendingOwner`."
					},
					"manager()": {
						"returns": {
							"_0": "Current `_manager` address."
						}
					},
					"pendingOwner()": {
						"returns": {
							"_0": "Current `_pendingOwner` address."
						}
					},
					"renounceOwnership()": {
						"details": "Leaves the contract without owner. It will not be possible to call `onlyOwner` functions anymore. Can only be called by the current owner. NOTE: Renouncing ownership will leave the contract without an owner, thereby removing any functionality that is only available to the owner."
					},
					"transferOwnership(address)": {
						"params": {
							"_newOwner": "Address to transfer ownership to."
						}
					}
				},
				"version": 1
			},
			"evm": {
				"assembly": "    /* \"ArbitrageDao-Contract/contracts/strategyPower.sol\":102:1436  contract StrategyPower is Manageable {\r... */\n  mstore(0x40, 0x80)\n    /* \"ArbitrageDao-Contract/contracts/strategyPower.sol\":351:355  5000 */\n  0x1388\n    /* \"ArbitrageDao-Contract/contracts/strategyPower.sol\":329:355  uint256 public pass = 5000 */\n  0x06\n  sstore\n    /* \"ArbitrageDao-Contract/contracts/strategyPower.sol\":395:491  constructor(address owner, address manager) Ownable(owner) Manageable(manager){\r... */\n  callvalue\n  dup1\n  iszero\n  tag_1\n  jumpi\n  0x00\n  dup1\n  revert\ntag_1:\n  pop\n  mload(0x40)\n  sub(codesize, bytecodeSize)\n  dup1\n  bytecodeSize\n  dup4\n  codecopy\n  dup2\n  dup2\n  add\n  0x40\n  mstore\n  dup2\n  add\n  swap1\n  tag_2\n  swap2\n  swap1\n  tag_3\n  jump\t// in\ntag_2:\n    /* \"ArbitrageDao-Contract/contracts/strategyPower.sol\":465:472  manager */\n  dup1\n    /* \"ArbitrageDao-Contract/contracts/strategyPower.sol\":447:452  owner */\n  dup3\n    /* \"ArbitrageDao-Contract/contracts/extern/Manageable.sol\":2581:2605  _setOwner(_initialOwner) */\n  tag_8\n    /* \"ArbitrageDao-Contract/contracts/extern/Manageable.sol\":2591:2604  _initialOwner */\n  dup2\n    /* \"ArbitrageDao-Contract/contracts/extern/Manageable.sol\":2581:2590  _setOwner */\n  shl(0x20, tag_9)\n    /* \"ArbitrageDao-Contract/contracts/extern/Manageable.sol\":2581:2605  _setOwner(_initialOwner) */\n  0x20\n  shr\n  jump\t// in\ntag_8:\n    /* \"ArbitrageDao-Contract/contracts/extern/Manageable.sol\":2535:2613  constructor(address _initialOwner) {\r... */\n  pop\n    /* \"ArbitrageDao-Contract/contracts/extern/Manageable.sol\":5277:5292  manager_address */\n  dup1\n    /* \"ArbitrageDao-Contract/contracts/extern/Manageable.sol\":5266:5274  _manager */\n  0x02\n  0x00\n    /* \"ArbitrageDao-Contract/contracts/extern/Manageable.sol\":5266:5292  _manager = manager_address */\n  0x0100\n  exp\n  dup2\n  sload\n  dup2\n  0xffffffffffffffffffffffffffffffffffffffff\n  mul\n  not\n  and\n  swap1\n  dup4\n  0xffffffffffffffffffffffffffffffffffffffff\n  and\n  mul\n  or\n  swap1\n  sstore\n  pop\n    /* \"ArbitrageDao-Contract/contracts/extern/Manageable.sol\":5218:5300  constructor(address manager_address) {\r... */\n  pop\n    /* \"ArbitrageDao-Contract/contracts/strategyPower.sol\":395:491  constructor(address owner, address manager) Ownable(owner) Manageable(manager){\r... */\n  pop\n  pop\n    /* \"ArbitrageDao-Contract/contracts/strategyPower.sol\":102:1436  contract StrategyPower is Manageable {\r... */\n  jump(tag_12)\n    /* \"ArbitrageDao-Contract/contracts/extern/Manageable.sol\":4462:4640  function _setOwner(address _newOwner) private {\r... */\ntag_9:\n    /* \"ArbitrageDao-Contract/contracts/extern/Manageable.sol\":4519:4536  address _oldOwner */\n  0x00\n    /* \"ArbitrageDao-Contract/contracts/extern/Manageable.sol\":4539:4545  _owner */\n  dup1\n  0x00\n  swap1\n  sload\n  swap1\n  0x0100\n  exp\n  swap1\n  div\n  0xffffffffffffffffffffffffffffffffffffffff\n  and\n    /* \"ArbitrageDao-Contract/contracts/extern/Manageable.sol\":4519:4545  address _oldOwner = _owner */\n  swap1\n  pop\n    /* \"ArbitrageDao-Contract/contracts/extern/Manageable.sol\":4565:4574  _newOwner */\n  dup2\n    /* \"ArbitrageDao-Contract/contracts/extern/Manageable.sol\":4556:4562  _owner */\n  0x00\n  dup1\n    /* \"ArbitrageDao-Contract/contracts/extern/Manageable.sol\":4556:4574  _owner = _newOwner */\n  0x0100\n  exp\n  dup2\n  sload\n  dup2\n  0xffffffffffffffffffffffffffffffffffffffff\n  mul\n  not\n  and\n  swap1\n  dup4\n  0xffffffffffffffffffffffffffffffffffffffff\n  and\n  mul\n  or\n  swap1\n  sstore\n  pop\n    /* \"ArbitrageDao-Contract/contracts/extern/Manageable.sol\":4622:4631  _newOwner */\n  dup2\n    /* \"ArbitrageDao-Contract/contracts/extern/Manageable.sol\":4590:4632  OwnershipTransferred(_oldOwner, _newOwner) */\n  0xffffffffffffffffffffffffffffffffffffffff\n  and\n    /* \"ArbitrageDao-Contract/contracts/extern/Manageable.sol\":4611:4620  _oldOwner */\n  dup2\n    /* \"ArbitrageDao-Contract/contracts/extern/Manageable.sol\":4590:4632  OwnershipTransferred(_oldOwner, _newOwner) */\n  0xffffffffffffffffffffffffffffffffffffffff\n  and\n  0x8be0079c531659141344cd1fd0a4f28419497f9722a3daafe3b4186f6b6457e0\n  mload(0x40)\n  mload(0x40)\n  dup1\n  swap2\n  sub\n  swap1\n  log3\n    /* \"ArbitrageDao-Contract/contracts/extern/Manageable.sol\":4462:4640  function _setOwner(address _newOwner) private {\r... */\n  pop\n  pop\n  jump\t// out\n    /* \"#utility.yul\":7:150   */\ntag_15:\n  0x00\n    /* \"#utility.yul\":95:101   */\n  dup2\n    /* \"#utility.yul\":89:102   */\n  mload\n    /* \"#utility.yul\":80:102   */\n  swap1\n  pop\n    /* \"#utility.yul\":111:144   */\n  tag_17\n    /* \"#utility.yul\":138:143   */\n  dup2\n    /* \"#utility.yul\":111:144   */\n  tag_18\n  jump\t// in\ntag_17:\n    /* \"#utility.yul\":70:150   */\n  swap3\n  swap2\n  pop\n  pop\n  jump\t// out\n    /* \"#utility.yul\":156:596   */\ntag_3:\n  0x00\n  dup1\n    /* \"#utility.yul\":292:294   */\n  0x40\n    /* \"#utility.yul\":280:289   */\n  dup4\n    /* \"#utility.yul\":271:278   */\n  dup6\n    /* \"#utility.yul\":267:290   */\n  sub\n    /* \"#utility.yul\":263:295   */\n  slt\n    /* \"#utility.yul\":260:262   */\n  iszero\n  tag_20\n  jumpi\n    /* \"#utility.yul\":308:309   */\n  0x00\n    /* \"#utility.yul\":305:306   */\n  dup1\n    /* \"#utility.yul\":298:310   */\n  revert\n    /* \"#utility.yul\":260:262   */\ntag_20:\n    /* \"#utility.yul\":351:352   */\n  0x00\n    /* \"#utility.yul\":376:440   */\n  tag_21\n    /* \"#utility.yul\":432:439   */\n  dup6\n    /* \"#utility.yul\":423:429   */\n  dup3\n    /* \"#utility.yul\":412:421   */\n  dup7\n    /* \"#utility.yul\":408:430   */\n  add\n    /* \"#utility.yul\":376:440   */\n  tag_15\n  jump\t// in\ntag_21:\n    /* \"#utility.yul\":366:440   */\n  swap3\n  pop\n    /* \"#utility.yul\":322:450   */\n  pop\n    /* \"#utility.yul\":489:491   */\n  0x20\n    /* \"#utility.yul\":515:579   */\n  tag_22\n    /* \"#utility.yul\":571:578   */\n  dup6\n    /* \"#utility.yul\":562:568   */\n  dup3\n    /* \"#utility.yul\":551:560   */\n  dup7\n    /* \"#utility.yul\":547:569   */\n  add\n    /* \"#utility.yul\":515:579   */\n  tag_15\n  jump\t// in\ntag_22:\n    /* \"#utility.yul\":505:579   */\n  swap2\n  pop\n    /* \"#utility.yul\":460:589   */\n  pop\n    /* \"#utility.yul\":250:596   */\n  swap3\n  pop\n  swap3\n  swap1\n  pop\n  jump\t// out\n    /* \"#utility.yul\":602:698   */\ntag_23:\n  0x00\n    /* \"#utility.yul\":668:692   */\n  tag_25\n    /* \"#utility.yul\":686:691   */\n  dup3\n    /* \"#utility.yul\":668:692   */\n  tag_26\n  jump\t// in\ntag_25:\n    /* \"#utility.yul\":657:692   */\n  swap1\n  pop\n    /* \"#utility.yul\":647:698   */\n  swap2\n  swap1\n  pop\n  jump\t// out\n    /* \"#utility.yul\":704:830   */\ntag_26:\n  0x00\n    /* \"#utility.yul\":781:823   */\n  0xffffffffffffffffffffffffffffffffffffffff\n    /* \"#utility.yul\":774:779   */\n  dup3\n    /* \"#utility.yul\":770:824   */\n  and\n    /* \"#utility.yul\":759:824   */\n  swap1\n  pop\n    /* \"#utility.yul\":749:830   */\n  swap2\n  swap1\n  pop\n  jump\t// out\n    /* \"#utility.yul\":836:958   */\ntag_18:\n    /* \"#utility.yul\":909:933   */\n  tag_29\n    /* \"#utility.yul\":927:932   */\n  dup2\n    /* \"#utility.yul\":909:933   */\n  tag_23\n  jump\t// in\ntag_29:\n    /* \"#utility.yul\":902:907   */\n  dup2\n    /* \"#utility.yul\":899:934   */\n  eq\n    /* \"#utility.yul\":889:891   */\n  tag_30\n  jumpi\n    /* \"#utility.yul\":948:949   */\n  0x00\n    /* \"#utility.yul\":945:946   */\n  dup1\n    /* \"#utility.yul\":938:950   */\n  revert\n    /* \"#utility.yul\":889:891   */\ntag_30:\n    /* \"#utility.yul\":879:958   */\n  pop\n  jump\t// out\n    /* \"ArbitrageDao-Contract/contracts/strategyPower.sol\":102:1436  contract StrategyPower is Manageable {\r... */\ntag_12:\n  dataSize(sub_0)\n  dup1\n  dataOffset(sub_0)\n  0x00\n  codecopy\n  0x00\n  return\nstop\n\nsub_0: assembly {\n        /* \"ArbitrageDao-Contract/contracts/strategyPower.sol\":102:1436  contract StrategyPower is Manageable {\r... */\n      mstore(0x40, 0x80)\n      callvalue\n      dup1\n      iszero\n      tag_1\n      jumpi\n      0x00\n      dup1\n      revert\n    tag_1:\n      pop\n      jumpi(tag_2, lt(calldatasize, 0x04))\n      shr(0xe0, calldataload(0x00))\n      dup1\n      0x715018a6\n      gt\n      tag_17\n      jumpi\n      dup1\n      0xa3a31a96\n      gt\n      tag_18\n      jumpi\n      dup1\n      0xa3a31a96\n      eq\n      tag_13\n      jumpi\n      dup1\n      0xa7a1ed72\n      eq\n      tag_14\n      jumpi\n      dup1\n      0xe30c3978\n      eq\n      tag_15\n      jumpi\n      dup1\n      0xf2fde38b\n      eq\n      tag_16\n      jumpi\n      jump(tag_2)\n    tag_18:\n      dup1\n      0x715018a6\n      eq\n      tag_10\n      jumpi\n      dup1\n      0x87388958\n      eq\n      tag_11\n      jumpi\n      dup1\n      0x8da5cb5b\n      eq\n      tag_12\n      jumpi\n      jump(tag_2)\n    tag_17:\n      dup1\n      0x4e52d81d\n      gt\n      tag_19\n      jumpi\n      dup1\n      0x4e52d81d\n      eq\n      tag_6\n      jumpi\n      dup1\n      0x4e71e0c8\n      eq\n      tag_7\n      jumpi\n      dup1\n      0x4f896d4f\n      eq\n      tag_8\n      jumpi\n      dup1\n      0x51dd3b66\n      eq\n      tag_9\n      jumpi\n      jump(tag_2)\n    tag_19:\n      dup1\n      0x0121b93f\n      eq\n      tag_3\n      jumpi\n      dup1\n      0x09d3bce5\n      eq\n      tag_4\n      jumpi\n      dup1\n      0x481c6a75\n      eq\n      tag_5\n      jumpi\n    tag_2:\n      0x00\n      dup1\n      revert\n        /* \"ArbitrageDao-Contract/contracts/strategyPower.sol\":774:1264  function vote(uint256 proposal) external \r... */\n    tag_3:\n      tag_20\n      0x04\n      dup1\n      calldatasize\n      sub\n      dup2\n      add\n      swap1\n      tag_21\n      swap2\n      swap1\n      tag_22\n      jump\t// in\n    tag_21:\n      tag_23\n      jump\t// in\n    tag_20:\n      stop\n        /* \"ArbitrageDao-Contract/contracts/strategyPower.sol\":362:388  uint256 public total_power */\n    tag_4:\n      tag_24\n      tag_25\n      jump\t// in\n    tag_24:\n      mload(0x40)\n      tag_26\n      swap2\n      swap1\n      tag_27\n      jump\t// in\n    tag_26:\n      mload(0x40)\n      dup1\n      swap2\n      sub\n      swap1\n      return\n        /* \"ArbitrageDao-Contract/contracts/extern/Manageable.sol\":5746:5837  function manager() public view virtual returns (address) {\r... */\n    tag_5:\n      tag_28\n      tag_29\n      jump\t// in\n    tag_28:\n      mload(0x40)\n      tag_30\n      swap2\n      swap1\n      tag_31\n      jump\t// in\n    tag_30:\n      mload(0x40)\n      dup1\n      swap2\n      sub\n      swap1\n      return\n        /* \"ArbitrageDao-Contract/contracts/strategyPower.sol\":1272:1427  function injectPower(address user, uint256 power) external onlyManager \r... */\n    tag_6:\n      tag_32\n      0x04\n      dup1\n      calldatasize\n      sub\n      dup2\n      add\n      swap1\n      tag_33\n      swap2\n      swap1\n      tag_34\n      jump\t// in\n    tag_33:\n      tag_35\n      jump\t// in\n    tag_32:\n      stop\n        /* \"ArbitrageDao-Contract/contracts/extern/Manageable.sol\":4128:4260  function claimOwnership() external onlyPendingOwner {\r... */\n    tag_7:\n      tag_36\n      tag_37\n      jump\t// in\n    tag_36:\n      stop\n        /* \"ArbitrageDao-Contract/contracts/strategyPower.sol\":499:766  function resolve(uint256 proposal) external\r... */\n    tag_8:\n      tag_38\n      0x04\n      dup1\n      calldatasize\n      sub\n      dup2\n      add\n      swap1\n      tag_39\n      swap2\n      swap1\n      tag_22\n      jump\t// in\n    tag_39:\n      tag_40\n      jump\t// in\n    tag_38:\n      stop\n        /* \"ArbitrageDao-Contract/contracts/strategyPower.sol\":199:242  mapping(uint256=>uint256) public vote_power */\n    tag_9:\n      tag_41\n      0x04\n      dup1\n      calldatasize\n      sub\n      dup2\n      add\n      swap1\n      tag_42\n      swap2\n      swap1\n      tag_22\n      jump\t// in\n    tag_42:\n      tag_43\n      jump\t// in\n    tag_41:\n      mload(0x40)\n      tag_44\n      swap2\n      swap1\n      tag_27\n      jump\t// in\n    tag_44:\n      mload(0x40)\n      dup1\n      swap2\n      sub\n      swap1\n      return\n        /* \"ArbitrageDao-Contract/contracts/extern/Manageable.sol\":3469:3565  function renounceOwnership() external virtual onlyOwner {\r... */\n    tag_10:\n      tag_45\n      tag_46\n      jump\t// in\n    tag_45:\n      stop\n        /* \"ArbitrageDao-Contract/contracts/strategyPower.sol\":249:322  mapping(uint256=>mapping(address=>uint256)) public address_proposal_power */\n    tag_11:\n      tag_47\n      0x04\n      dup1\n      calldatasize\n      sub\n      dup2\n      add\n      swap1\n      tag_48\n      swap2\n      swap1\n      tag_49\n      jump\t// in\n    tag_48:\n      tag_50\n      jump\t// in\n    tag_47:\n      mload(0x40)\n      tag_51\n      swap2\n      swap1\n      tag_27\n      jump\t// in\n    tag_51:\n      mload(0x40)\n      dup1\n      swap2\n      sub\n      swap1\n      return\n        /* \"ArbitrageDao-Contract/contracts/extern/Manageable.sol\":2755:2842  function owner() public view virtual returns (address) {\r... */\n    tag_12:\n      tag_52\n      tag_53\n      jump\t// in\n    tag_52:\n      mload(0x40)\n      tag_54\n      swap2\n      swap1\n      tag_31\n      jump\t// in\n    tag_54:\n      mload(0x40)\n      dup1\n      swap2\n      sub\n      swap1\n      return\n        /* \"ArbitrageDao-Contract/contracts/strategyPower.sol\":146:192  mapping(address=>uint256) public address_power */\n    tag_13:\n      tag_55\n      0x04\n      dup1\n      calldatasize\n      sub\n      dup2\n      add\n      swap1\n      tag_56\n      swap2\n      swap1\n      tag_57\n      jump\t// in\n    tag_56:\n      tag_58\n      jump\t// in\n    tag_55:\n      mload(0x40)\n      tag_59\n      swap2\n      swap1\n      tag_27\n      jump\t// in\n    tag_59:\n      mload(0x40)\n      dup1\n      swap2\n      sub\n      swap1\n      return\n        /* \"ArbitrageDao-Contract/contracts/strategyPower.sol\":329:355  uint256 public pass = 5000 */\n    tag_14:\n      tag_60\n      tag_61\n      jump\t// in\n    tag_60:\n      mload(0x40)\n      tag_62\n      swap2\n      swap1\n      tag_27\n      jump\t// in\n    tag_62:\n      mload(0x40)\n      dup1\n      swap2\n      sub\n      swap1\n      return\n        /* \"ArbitrageDao-Contract/contracts/extern/Manageable.sol\":2963:3066  function pendingOwner() external view virtual returns (address) {\r... */\n    tag_15:\n      tag_63\n      tag_64\n      jump\t// in\n    tag_63:\n      mload(0x40)\n      tag_65\n      swap2\n      swap1\n      tag_31\n      jump\t// in\n    tag_65:\n      mload(0x40)\n      dup1\n      swap2\n      sub\n      swap1\n      return\n        /* \"ArbitrageDao-Contract/contracts/extern/Manageable.sol\":3720:3960  function transferOwnership(address _newOwner) external onlyOwner {\r... */\n    tag_16:\n      tag_66\n      0x04\n      dup1\n      calldatasize\n      sub\n      dup2\n      add\n      swap1\n      tag_67\n      swap2\n      swap1\n      tag_57\n      jump\t// in\n    tag_67:\n      tag_68\n      jump\t// in\n    tag_66:\n      stop\n        /* \"ArbitrageDao-Contract/contracts/strategyPower.sol\":774:1264  function vote(uint256 proposal) external \r... */\n    tag_23:\n        /* \"ArbitrageDao-Contract/contracts/strategyPower.sol\":832:846  uint256  power */\n      0x00\n        /* \"ArbitrageDao-Contract/contracts/strategyPower.sol\":849:862  address_power */\n      0x03\n        /* \"ArbitrageDao-Contract/contracts/strategyPower.sol\":849:874  address_power[msg.sender] */\n      0x00\n        /* \"ArbitrageDao-Contract/contracts/strategyPower.sol\":863:873  msg.sender */\n      caller\n        /* \"ArbitrageDao-Contract/contracts/strategyPower.sol\":849:874  address_power[msg.sender] */\n      0xffffffffffffffffffffffffffffffffffffffff\n      and\n      0xffffffffffffffffffffffffffffffffffffffff\n      and\n      dup2\n      mstore\n      0x20\n      add\n      swap1\n      dup2\n      mstore\n      0x20\n      add\n      0x00\n      keccak256\n      sload\n        /* \"ArbitrageDao-Contract/contracts/strategyPower.sol\":832:874  uint256  power = address_power[msg.sender] */\n      swap1\n      pop\n        /* \"ArbitrageDao-Contract/contracts/strategyPower.sol\":901:902  0 */\n      0x00\n        /* \"ArbitrageDao-Contract/contracts/strategyPower.sol\":893:898  power */\n      dup2\n        /* \"ArbitrageDao-Contract/contracts/strategyPower.sol\":893:902  power > 0 */\n      gt\n        /* \"ArbitrageDao-Contract/contracts/strategyPower.sol\":885:954  require(power > 0, \"StrategyPower: user power must bigger than zero\") */\n      tag_70\n      jumpi\n      mload(0x40)\n      0x08c379a000000000000000000000000000000000000000000000000000000000\n      dup2\n      mstore\n      0x04\n      add\n      tag_71\n      swap1\n      tag_72\n      jump\t// in\n    tag_71:\n      mload(0x40)\n      dup1\n      swap2\n      sub\n      swap1\n      revert\n    tag_70:\n        /* \"ArbitrageDao-Contract/contracts/strategyPower.sol\":965:984  uint256 voted_power */\n      0x00\n        /* \"ArbitrageDao-Contract/contracts/strategyPower.sol\":987:1009  address_proposal_power */\n      0x05\n        /* \"ArbitrageDao-Contract/contracts/strategyPower.sol\":987:1019  address_proposal_power[proposal] */\n      0x00\n        /* \"ArbitrageDao-Contract/contracts/strategyPower.sol\":1010:1018  proposal */\n      dup5\n        /* \"ArbitrageDao-Contract/contracts/strategyPower.sol\":987:1019  address_proposal_power[proposal] */\n      dup2\n      mstore\n      0x20\n      add\n      swap1\n      dup2\n      mstore\n      0x20\n      add\n      0x00\n      keccak256\n        /* \"ArbitrageDao-Contract/contracts/strategyPower.sol\":987:1031  address_proposal_power[proposal][msg.sender] */\n      0x00\n        /* \"ArbitrageDao-Contract/contracts/strategyPower.sol\":1020:1030  msg.sender */\n      caller\n        /* \"ArbitrageDao-Contract/contracts/strategyPower.sol\":987:1031  address_proposal_power[proposal][msg.sender] */\n      0xffffffffffffffffffffffffffffffffffffffff\n      and\n      0xffffffffffffffffffffffffffffffffffffffff\n      and\n      dup2\n      mstore\n      0x20\n      add\n      swap1\n      dup2\n      mstore\n      0x20\n      add\n      0x00\n      keccak256\n      sload\n        /* \"ArbitrageDao-Contract/contracts/strategyPower.sol\":965:1031  uint256 voted_power = address_proposal_power[proposal][msg.sender] */\n      swap1\n      pop\n        /* \"ArbitrageDao-Contract/contracts/strategyPower.sol\":1065:1066  0 */\n      0x00\n        /* \"ArbitrageDao-Contract/contracts/strategyPower.sol\":1050:1061  voted_power */\n      dup2\n        /* \"ArbitrageDao-Contract/contracts/strategyPower.sol\":1050:1066  voted_power == 0 */\n      eq\n        /* \"ArbitrageDao-Contract/contracts/strategyPower.sol\":1042:1114  require(voted_power == 0, \"StrategyPower: voted power must be not used\") */\n      tag_73\n      jumpi\n      mload(0x40)\n      0x08c379a000000000000000000000000000000000000000000000000000000000\n      dup2\n      mstore\n      0x04\n      add\n      tag_74\n      swap1\n      tag_75\n      jump\t// in\n    tag_74:\n      mload(0x40)\n      dup1\n      swap2\n      sub\n      swap1\n      revert\n    tag_73:\n        /* \"ArbitrageDao-Contract/contracts/strategyPower.sol\":1172:1185  address_power */\n      0x03\n        /* \"ArbitrageDao-Contract/contracts/strategyPower.sol\":1172:1197  address_power[msg.sender] */\n      0x00\n        /* \"ArbitrageDao-Contract/contracts/strategyPower.sol\":1186:1196  msg.sender */\n      caller\n        /* \"ArbitrageDao-Contract/contracts/strategyPower.sol\":1172:1197  address_power[msg.sender] */\n      0xffffffffffffffffffffffffffffffffffffffff\n      and\n      0xffffffffffffffffffffffffffffffffffffffff\n      and\n      dup2\n      mstore\n      0x20\n      add\n      swap1\n      dup2\n      mstore\n      0x20\n      add\n      0x00\n      keccak256\n      sload\n        /* \"ArbitrageDao-Contract/contracts/strategyPower.sol\":1125:1147  address_proposal_power */\n      0x05\n        /* \"ArbitrageDao-Contract/contracts/strategyPower.sol\":1125:1157  address_proposal_power[proposal] */\n      0x00\n        /* \"ArbitrageDao-Contract/contracts/strategyPower.sol\":1148:1156  proposal */\n      dup6\n        /* \"ArbitrageDao-Contract/contracts/strategyPower.sol\":1125:1157  address_proposal_power[proposal] */\n      dup2\n      mstore\n      0x20\n      add\n      swap1\n      dup2\n      mstore\n      0x20\n      add\n      0x00\n      keccak256\n        /* \"ArbitrageDao-Contract/contracts/strategyPower.sol\":1125:1169  address_proposal_power[proposal][msg.sender] */\n      0x00\n        /* \"ArbitrageDao-Contract/contracts/strategyPower.sol\":1158:1168  msg.sender */\n      caller\n        /* \"ArbitrageDao-Contract/contracts/strategyPower.sol\":1125:1169  address_proposal_power[proposal][msg.sender] */\n      0xffffffffffffffffffffffffffffffffffffffff\n      and\n      0xffffffffffffffffffffffffffffffffffffffff\n      and\n      dup2\n      mstore\n      0x20\n      add\n      swap1\n      dup2\n      mstore\n      0x20\n      add\n      0x00\n      keccak256\n        /* \"ArbitrageDao-Contract/contracts/strategyPower.sol\":1125:1197  address_proposal_power[proposal][msg.sender] = address_power[msg.sender] */\n      dup2\n      swap1\n      sstore\n      pop\n        /* \"ArbitrageDao-Contract/contracts/strategyPower.sol\":1231:1244  address_power */\n      0x03\n        /* \"ArbitrageDao-Contract/contracts/strategyPower.sol\":1231:1256  address_power[msg.sender] */\n      0x00\n        /* \"ArbitrageDao-Contract/contracts/strategyPower.sol\":1245:1255  msg.sender */\n      caller\n        /* \"ArbitrageDao-Contract/contracts/strategyPower.sol\":1231:1256  address_power[msg.sender] */\n      0xffffffffffffffffffffffffffffffffffffffff\n      and\n      0xffffffffffffffffffffffffffffffffffffffff\n      and\n      dup2\n      mstore\n      0x20\n      add\n      swap1\n      dup2\n      mstore\n      0x20\n      add\n      0x00\n      keccak256\n      sload\n        /* \"ArbitrageDao-Contract/contracts/strategyPower.sol\":1208:1218  vote_power */\n      0x04\n        /* \"ArbitrageDao-Contract/contracts/strategyPower.sol\":1208:1228  vote_power[proposal] */\n      0x00\n        /* \"ArbitrageDao-Contract/contracts/strategyPower.sol\":1219:1227  proposal */\n      dup6\n        /* \"ArbitrageDao-Contract/contracts/strategyPower.sol\":1208:1228  vote_power[proposal] */\n      dup2\n      mstore\n      0x20\n      add\n      swap1\n      dup2\n      mstore\n      0x20\n      add\n      0x00\n      keccak256\n        /* \"ArbitrageDao-Contract/contracts/strategyPower.sol\":1208:1256  vote_power[proposal] = address_power[msg.sender] */\n      dup2\n      swap1\n      sstore\n      pop\n        /* \"ArbitrageDao-Contract/contracts/strategyPower.sol\":774:1264  function vote(uint256 proposal) external \r... */\n      pop\n      pop\n      pop\n      jump\t// out\n        /* \"ArbitrageDao-Contract/contracts/strategyPower.sol\":362:388  uint256 public total_power */\n    tag_25:\n      sload(0x07)\n      dup2\n      jump\t// out\n        /* \"ArbitrageDao-Contract/contracts/extern/Manageable.sol\":5746:5837  function manager() public view virtual returns (address) {\r... */\n    tag_29:\n        /* \"ArbitrageDao-Contract/contracts/extern/Manageable.sol\":5794:5801  address */\n      0x00\n        /* \"ArbitrageDao-Contract/contracts/extern/Manageable.sol\":5821:5829  _manager */\n      0x02\n      0x00\n      swap1\n      sload\n      swap1\n      0x0100\n      exp\n      swap1\n      div\n      0xffffffffffffffffffffffffffffffffffffffff\n      and\n        /* \"ArbitrageDao-Contract/contracts/extern/Manageable.sol\":5814:5829  return _manager */\n      swap1\n      pop\n        /* \"ArbitrageDao-Contract/contracts/extern/Manageable.sol\":5746:5837  function manager() public view virtual returns (address) {\r... */\n      swap1\n      jump\t// out\n        /* \"ArbitrageDao-Contract/contracts/strategyPower.sol\":1272:1427  function injectPower(address user, uint256 power) external onlyManager \r... */\n    tag_35:\n        /* \"ArbitrageDao-Contract/contracts/extern/Manageable.sol\":7016:7026  msg.sender */\n      caller\n        /* \"ArbitrageDao-Contract/contracts/extern/Manageable.sol\":7003:7026  manager() == msg.sender */\n      0xffffffffffffffffffffffffffffffffffffffff\n      and\n        /* \"ArbitrageDao-Contract/contracts/extern/Manageable.sol\":7003:7012  manager() */\n      tag_78\n        /* \"ArbitrageDao-Contract/contracts/extern/Manageable.sol\":7003:7010  manager */\n      tag_29\n        /* \"ArbitrageDao-Contract/contracts/extern/Manageable.sol\":7003:7012  manager() */\n      jump\t// in\n    tag_78:\n        /* \"ArbitrageDao-Contract/contracts/extern/Manageable.sol\":7003:7026  manager() == msg.sender */\n      0xffffffffffffffffffffffffffffffffffffffff\n      and\n      eq\n        /* \"ArbitrageDao-Contract/contracts/extern/Manageable.sol\":6995:7060  require(manager() == msg.sender, \"Manageable/caller-not-manager\") */\n      tag_79\n      jumpi\n      mload(0x40)\n      0x08c379a000000000000000000000000000000000000000000000000000000000\n      dup2\n      mstore\n      0x04\n      add\n      tag_80\n      swap1\n      tag_81\n      jump\t// in\n    tag_80:\n      mload(0x40)\n      dup1\n      swap2\n      sub\n      swap1\n      revert\n    tag_79:\n        /* \"ArbitrageDao-Contract/contracts/strategyPower.sol\":1383:1388  power */\n      dup1\n        /* \"ArbitrageDao-Contract/contracts/strategyPower.sol\":1360:1373  address_power */\n      0x03\n        /* \"ArbitrageDao-Contract/contracts/strategyPower.sol\":1360:1379  address_power[user] */\n      0x00\n        /* \"ArbitrageDao-Contract/contracts/strategyPower.sol\":1374:1378  user */\n      dup5\n        /* \"ArbitrageDao-Contract/contracts/strategyPower.sol\":1360:1379  address_power[user] */\n      0xffffffffffffffffffffffffffffffffffffffff\n      and\n      0xffffffffffffffffffffffffffffffffffffffff\n      and\n      dup2\n      mstore\n      0x20\n      add\n      swap1\n      dup2\n      mstore\n      0x20\n      add\n      0x00\n      keccak256\n      0x00\n        /* \"ArbitrageDao-Contract/contracts/strategyPower.sol\":1360:1388  address_power[user] += power */\n      dup3\n      dup3\n      sload\n      tag_83\n      swap2\n      swap1\n      tag_84\n      jump\t// in\n    tag_83:\n      swap3\n      pop\n      pop\n      dup2\n      swap1\n      sstore\n      pop\n        /* \"ArbitrageDao-Contract/contracts/strategyPower.sol\":1414:1419  power */\n      dup1\n        /* \"ArbitrageDao-Contract/contracts/strategyPower.sol\":1399:1410  total_power */\n      0x07\n      0x00\n        /* \"ArbitrageDao-Contract/contracts/strategyPower.sol\":1399:1419  total_power += power */\n      dup3\n      dup3\n      sload\n      tag_85\n      swap2\n      swap1\n      tag_84\n      jump\t// in\n    tag_85:\n      swap3\n      pop\n      pop\n      dup2\n      swap1\n      sstore\n      pop\n        /* \"ArbitrageDao-Contract/contracts/strategyPower.sol\":1272:1427  function injectPower(address user, uint256 power) external onlyManager \r... */\n      pop\n      pop\n      jump\t// out\n        /* \"ArbitrageDao-Contract/contracts/extern/Manageable.sol\":4128:4260  function claimOwnership() external onlyPendingOwner {\r... */\n    tag_37:\n        /* \"ArbitrageDao-Contract/contracts/extern/Manageable.sol\":5062:5075  _pendingOwner */\n      0x01\n      0x00\n      swap1\n      sload\n      swap1\n      0x0100\n      exp\n      swap1\n      div\n      0xffffffffffffffffffffffffffffffffffffffff\n      and\n        /* \"ArbitrageDao-Contract/contracts/extern/Manageable.sol\":5048:5075  msg.sender == _pendingOwner */\n      0xffffffffffffffffffffffffffffffffffffffff\n      and\n        /* \"ArbitrageDao-Contract/contracts/extern/Manageable.sol\":5048:5058  msg.sender */\n      caller\n        /* \"ArbitrageDao-Contract/contracts/extern/Manageable.sol\":5048:5075  msg.sender == _pendingOwner */\n      0xffffffffffffffffffffffffffffffffffffffff\n      and\n      eq\n        /* \"ArbitrageDao-Contract/contracts/extern/Manageable.sol\":5040:5111  require(msg.sender == _pendingOwner, \"Ownable/caller-not-pendingOwner\") */\n      tag_87\n      jumpi\n      mload(0x40)\n      0x08c379a000000000000000000000000000000000000000000000000000000000\n      dup2\n      mstore\n      0x04\n      add\n      tag_88\n      swap1\n      tag_89\n      jump\t// in\n    tag_88:\n      mload(0x40)\n      dup1\n      swap2\n      sub\n      swap1\n      revert\n    tag_87:\n        /* \"ArbitrageDao-Contract/contracts/extern/Manageable.sol\":4191:4215  _setOwner(_pendingOwner) */\n      tag_91\n        /* \"ArbitrageDao-Contract/contracts/extern/Manageable.sol\":4201:4214  _pendingOwner */\n      0x01\n      0x00\n      swap1\n      sload\n      swap1\n      0x0100\n      exp\n      swap1\n      div\n      0xffffffffffffffffffffffffffffffffffffffff\n      and\n        /* \"ArbitrageDao-Contract/contracts/extern/Manageable.sol\":4191:4200  _setOwner */\n      tag_92\n        /* \"ArbitrageDao-Contract/contracts/extern/Manageable.sol\":4191:4215  _setOwner(_pendingOwner) */\n      jump\t// in\n    tag_91:\n        /* \"ArbitrageDao-Contract/contracts/extern/Manageable.sol\":4250:4251  0 */\n      0x00\n        /* \"ArbitrageDao-Contract/contracts/extern/Manageable.sol\":4226:4239  _pendingOwner */\n      0x01\n      0x00\n        /* \"ArbitrageDao-Contract/contracts/extern/Manageable.sol\":4226:4252  _pendingOwner = address(0) */\n      0x0100\n      exp\n      dup2\n      sload\n      dup2\n      0xffffffffffffffffffffffffffffffffffffffff\n      mul\n      not\n      and\n      swap1\n      dup4\n      0xffffffffffffffffffffffffffffffffffffffff\n      and\n      mul\n      or\n      swap1\n      sstore\n      pop\n        /* \"ArbitrageDao-Contract/contracts/extern/Manageable.sol\":4128:4260  function claimOwnership() external onlyPendingOwner {\r... */\n      jump\t// out\n        /* \"ArbitrageDao-Contract/contracts/strategyPower.sol\":499:766  function resolve(uint256 proposal) external\r... */\n    tag_40:\n        /* \"ArbitrageDao-Contract/contracts/strategyPower.sol\":561:582  uint256 propuse_power */\n      0x00\n        /* \"ArbitrageDao-Contract/contracts/strategyPower.sol\":585:595  vote_power */\n      0x04\n        /* \"ArbitrageDao-Contract/contracts/strategyPower.sol\":585:605  vote_power[proposal] */\n      0x00\n        /* \"ArbitrageDao-Contract/contracts/strategyPower.sol\":596:604  proposal */\n      dup4\n        /* \"ArbitrageDao-Contract/contracts/strategyPower.sol\":585:605  vote_power[proposal] */\n      dup2\n      mstore\n      0x20\n      add\n      swap1\n      dup2\n      mstore\n      0x20\n      add\n      0x00\n      keccak256\n      sload\n        /* \"ArbitrageDao-Contract/contracts/strategyPower.sol\":561:605  uint256 propuse_power = vote_power[proposal] */\n      swap1\n      pop\n        /* \"ArbitrageDao-Contract/contracts/strategyPower.sol\":615:624  uint rate */\n      0x00\n        /* \"ArbitrageDao-Contract/contracts/strategyPower.sol\":645:658  propuse_power */\n      dup2\n        /* \"ArbitrageDao-Contract/contracts/strategyPower.sol\":639:644  10000 */\n      0x2710\n        /* \"ArbitrageDao-Contract/contracts/strategyPower.sol\":627:638  total_power */\n      sload(0x07)\n        /* \"ArbitrageDao-Contract/contracts/strategyPower.sol\":627:644  total_power*10000 */\n      tag_94\n      swap2\n      swap1\n      tag_95\n      jump\t// in\n    tag_94:\n        /* \"ArbitrageDao-Contract/contracts/strategyPower.sol\":627:658  total_power*10000/propuse_power */\n      tag_96\n      swap2\n      swap1\n      tag_97\n      jump\t// in\n    tag_96:\n        /* \"ArbitrageDao-Contract/contracts/strategyPower.sol\":615:658  uint rate = total_power*10000/propuse_power */\n      swap1\n      pop\n        /* \"ArbitrageDao-Contract/contracts/strategyPower.sol\":692:696  rate */\n      dup1\n        /* \"ArbitrageDao-Contract/contracts/strategyPower.sol\":676:689  propuse_power */\n      dup3\n        /* \"ArbitrageDao-Contract/contracts/strategyPower.sol\":676:696  propuse_power > rate */\n      gt\n        /* \"ArbitrageDao-Contract/contracts/strategyPower.sol\":668:757  require(propuse_power > rate, \"StrategyPower: propuse power power must bigger than pass\") */\n      tag_98\n      jumpi\n      mload(0x40)\n      0x08c379a000000000000000000000000000000000000000000000000000000000\n      dup2\n      mstore\n      0x04\n      add\n      tag_99\n      swap1\n      tag_100\n      jump\t// in\n    tag_99:\n      mload(0x40)\n      dup1\n      swap2\n      sub\n      swap1\n      revert\n    tag_98:\n        /* \"ArbitrageDao-Contract/contracts/strategyPower.sol\":499:766  function resolve(uint256 proposal) external\r... */\n      pop\n      pop\n      pop\n      jump\t// out\n        /* \"ArbitrageDao-Contract/contracts/strategyPower.sol\":199:242  mapping(uint256=>uint256) public vote_power */\n    tag_43:\n      mstore(0x20, 0x04)\n      dup1\n      0x00\n      mstore\n      keccak256(0x00, 0x40)\n      0x00\n      swap2\n      pop\n      swap1\n      pop\n      sload\n      dup2\n      jump\t// out\n        /* \"ArbitrageDao-Contract/contracts/extern/Manageable.sol\":3469:3565  function renounceOwnership() external virtual onlyOwner {\r... */\n    tag_46:\n        /* \"ArbitrageDao-Contract/contracts/extern/Manageable.sol\":4842:4852  msg.sender */\n      caller\n        /* \"ArbitrageDao-Contract/contracts/extern/Manageable.sol\":4831:4852  owner() == msg.sender */\n      0xffffffffffffffffffffffffffffffffffffffff\n      and\n        /* \"ArbitrageDao-Contract/contracts/extern/Manageable.sol\":4831:4838  owner() */\n      tag_102\n        /* \"ArbitrageDao-Contract/contracts/extern/Manageable.sol\":4831:4836  owner */\n      tag_53\n        /* \"ArbitrageDao-Contract/contracts/extern/Manageable.sol\":4831:4838  owner() */\n      jump\t// in\n    tag_102:\n        /* \"ArbitrageDao-Contract/contracts/extern/Manageable.sol\":4831:4852  owner() == msg.sender */\n      0xffffffffffffffffffffffffffffffffffffffff\n      and\n      eq\n        /* \"ArbitrageDao-Contract/contracts/extern/Manageable.sol\":4823:4881  require(owner() == msg.sender, \"Ownable/caller-not-owner\") */\n      tag_103\n      jumpi\n      mload(0x40)\n      0x08c379a000000000000000000000000000000000000000000000000000000000\n      dup2\n      mstore\n      0x04\n      add\n      tag_104\n      swap1\n      tag_105\n      jump\t// in\n    tag_104:\n      mload(0x40)\n      dup1\n      swap2\n      sub\n      swap1\n      revert\n    tag_103:\n        /* \"ArbitrageDao-Contract/contracts/extern/Manageable.sol\":3536:3557  _setOwner(address(0)) */\n      tag_107\n        /* \"ArbitrageDao-Contract/contracts/extern/Manageable.sol\":3554:3555  0 */\n      0x00\n        /* \"ArbitrageDao-Contract/contracts/extern/Manageable.sol\":3536:3545  _setOwner */\n      tag_92\n        /* \"ArbitrageDao-Contract/contracts/extern/Manageable.sol\":3536:3557  _setOwner(address(0)) */\n      jump\t// in\n    tag_107:\n        /* \"ArbitrageDao-Contract/contracts/extern/Manageable.sol\":3469:3565  function renounceOwnership() external virtual onlyOwner {\r... */\n      jump\t// out\n        /* \"ArbitrageDao-Contract/contracts/strategyPower.sol\":249:322  mapping(uint256=>mapping(address=>uint256)) public address_proposal_power */\n    tag_50:\n      mstore(0x20, 0x05)\n      dup2\n      0x00\n      mstore\n      mstore(0x20, keccak256(0x00, 0x40))\n      dup1\n      0x00\n      mstore\n      keccak256(0x00, 0x40)\n      0x00\n      swap2\n      pop\n      swap2\n      pop\n      pop\n      sload\n      dup2\n      jump\t// out\n        /* \"ArbitrageDao-Contract/contracts/extern/Manageable.sol\":2755:2842  function owner() public view virtual returns (address) {\r... */\n    tag_53:\n        /* \"ArbitrageDao-Contract/contracts/extern/Manageable.sol\":2801:2808  address */\n      0x00\n        /* \"ArbitrageDao-Contract/contracts/extern/Manageable.sol\":2828:2834  _owner */\n      dup1\n      0x00\n      swap1\n      sload\n      swap1\n      0x0100\n      exp\n      swap1\n      div\n      0xffffffffffffffffffffffffffffffffffffffff\n      and\n        /* \"ArbitrageDao-Contract/contracts/extern/Manageable.sol\":2821:2834  return _owner */\n      swap1\n      pop\n        /* \"ArbitrageDao-Contract/contracts/extern/Manageable.sol\":2755:2842  function owner() public view virtual returns (address) {\r... */\n      swap1\n      jump\t// out\n        /* \"ArbitrageDao-Contract/contracts/strategyPower.sol\":146:192  mapping(address=>uint256) public address_power */\n    tag_58:\n      mstore(0x20, 0x03)\n      dup1\n      0x00\n      mstore\n      keccak256(0x00, 0x40)\n      0x00\n      swap2\n      pop\n      swap1\n      pop\n      sload\n      dup2\n      jump\t// out\n        /* \"ArbitrageDao-Contract/contracts/strategyPower.sol\":329:355  uint256 public pass = 5000 */\n    tag_61:\n      sload(0x06)\n      dup2\n      jump\t// out\n        /* \"ArbitrageDao-Contract/contracts/extern/Manageable.sol\":2963:3066  function pendingOwner() external view virtual returns (address) {\r... */\n    tag_64:\n        /* \"ArbitrageDao-Contract/contracts/extern/Manageable.sol\":3018:3025  address */\n      0x00\n        /* \"ArbitrageDao-Contract/contracts/extern/Manageable.sol\":3045:3058  _pendingOwner */\n      0x01\n      0x00\n      swap1\n      sload\n      swap1\n      0x0100\n      exp\n      swap1\n      div\n      0xffffffffffffffffffffffffffffffffffffffff\n      and\n        /* \"ArbitrageDao-Contract/contracts/extern/Manageable.sol\":3038:3058  return _pendingOwner */\n      swap1\n      pop\n        /* \"ArbitrageDao-Contract/contracts/extern/Manageable.sol\":2963:3066  function pendingOwner() external view virtual returns (address) {\r... */\n      swap1\n      jump\t// out\n        /* \"ArbitrageDao-Contract/contracts/extern/Manageable.sol\":3720:3960  function transferOwnership(address _newOwner) external onlyOwner {\r... */\n    tag_68:\n        /* \"ArbitrageDao-Contract/contracts/extern/Manageable.sol\":4842:4852  msg.sender */\n      caller\n        /* \"ArbitrageDao-Contract/contracts/extern/Manageable.sol\":4831:4852  owner() == msg.sender */\n      0xffffffffffffffffffffffffffffffffffffffff\n      and\n        /* \"ArbitrageDao-Contract/contracts/extern/Manageable.sol\":4831:4838  owner() */\n      tag_111\n        /* \"ArbitrageDao-Contract/contracts/extern/Manageable.sol\":4831:4836  owner */\n      tag_53\n        /* \"ArbitrageDao-Contract/contracts/extern/Manageable.sol\":4831:4838  owner() */\n      jump\t// in\n    tag_111:\n        /* \"ArbitrageDao-Contract/contracts/extern/Manageable.sol\":4831:4852  owner() == msg.sender */\n      0xffffffffffffffffffffffffffffffffffffffff\n      and\n      eq\n        /* \"ArbitrageDao-Contract/contracts/extern/Manageable.sol\":4823:4881  require(owner() == msg.sender, \"Ownable/caller-not-owner\") */\n      tag_112\n      jumpi\n      mload(0x40)\n      0x08c379a000000000000000000000000000000000000000000000000000000000\n      dup2\n      mstore\n      0x04\n      add\n      tag_113\n      swap1\n      tag_105\n      jump\t// in\n    tag_113:\n      mload(0x40)\n      dup1\n      swap2\n      sub\n      swap1\n      revert\n    tag_112:\n        /* \"ArbitrageDao-Contract/contracts/extern/Manageable.sol\":3825:3826  0 */\n      0x00\n        /* \"ArbitrageDao-Contract/contracts/extern/Manageable.sol\":3804:3827  _newOwner != address(0) */\n      0xffffffffffffffffffffffffffffffffffffffff\n      and\n        /* \"ArbitrageDao-Contract/contracts/extern/Manageable.sol\":3804:3813  _newOwner */\n      dup2\n        /* \"ArbitrageDao-Contract/contracts/extern/Manageable.sol\":3804:3827  _newOwner != address(0) */\n      0xffffffffffffffffffffffffffffffffffffffff\n      and\n      eq\n      iszero\n        /* \"ArbitrageDao-Contract/contracts/extern/Manageable.sol\":3796:3869  require(_newOwner != address(0), \"Ownable/pendingOwner-not-zero-address\") */\n      tag_115\n      jumpi\n      mload(0x40)\n      0x08c379a000000000000000000000000000000000000000000000000000000000\n      dup2\n      mstore\n      0x04\n      add\n      tag_116\n      swap1\n      tag_117\n      jump\t// in\n    tag_116:\n      mload(0x40)\n      dup1\n      swap2\n      sub\n      swap1\n      revert\n    tag_115:\n        /* \"ArbitrageDao-Contract/contracts/extern/Manageable.sol\":3898:3907  _newOwner */\n      dup1\n        /* \"ArbitrageDao-Contract/contracts/extern/Manageable.sol\":3882:3895  _pendingOwner */\n      0x01\n      0x00\n        /* \"ArbitrageDao-Contract/contracts/extern/Manageable.sol\":3882:3907  _pendingOwner = _newOwner */\n      0x0100\n      exp\n      dup2\n      sload\n      dup2\n      0xffffffffffffffffffffffffffffffffffffffff\n      mul\n      not\n      and\n      swap1\n      dup4\n      0xffffffffffffffffffffffffffffffffffffffff\n      and\n      mul\n      or\n      swap1\n      sstore\n      pop\n        /* \"ArbitrageDao-Contract/contracts/extern/Manageable.sol\":3942:3951  _newOwner */\n      dup1\n        /* \"ArbitrageDao-Contract/contracts/extern/Manageable.sol\":3925:3952  OwnershipOffered(_newOwner) */\n      0xffffffffffffffffffffffffffffffffffffffff\n      and\n      0x239a2ddded15777fa246aed5f7e1a9bc69a39d4eb4a397034d1d85766cca7d4c\n      mload(0x40)\n      mload(0x40)\n      dup1\n      swap2\n      sub\n      swap1\n      log2\n        /* \"ArbitrageDao-Contract/contracts/extern/Manageable.sol\":3720:3960  function transferOwnership(address _newOwner) external onlyOwner {\r... */\n      pop\n      jump\t// out\n        /* \"ArbitrageDao-Contract/contracts/extern/Manageable.sol\":4462:4640  function _setOwner(address _newOwner) private {\r... */\n    tag_92:\n        /* \"ArbitrageDao-Contract/contracts/extern/Manageable.sol\":4519:4536  address _oldOwner */\n      0x00\n        /* \"ArbitrageDao-Contract/contracts/extern/Manageable.sol\":4539:4545  _owner */\n      dup1\n      0x00\n      swap1\n      sload\n      swap1\n      0x0100\n      exp\n      swap1\n      div\n      0xffffffffffffffffffffffffffffffffffffffff\n      and\n        /* \"ArbitrageDao-Contract/contracts/extern/Manageable.sol\":4519:4545  address _oldOwner = _owner */\n      swap1\n      pop\n        /* \"ArbitrageDao-Contract/contracts/extern/Manageable.sol\":4565:4574  _newOwner */\n      dup2\n        /* \"ArbitrageDao-Contract/contracts/extern/Manageable.sol\":4556:4562  _owner */\n      0x00\n      dup1\n        /* \"ArbitrageDao-Contract/contracts/extern/Manageable.sol\":4556:4574  _owner = _newOwner */\n      0x0100\n      exp\n      dup2\n      sload\n      dup2\n      0xffffffffffffffffffffffffffffffffffffffff\n      mul\n      not\n      and\n      swap1\n      dup4\n      0xffffffffffffffffffffffffffffffffffffffff\n      and\n      mul\n      or\n      swap1\n      sstore\n      pop\n        /* \"ArbitrageDao-Contract/contracts/extern/Manageable.sol\":4622:4631  _newOwner */\n      dup2\n        /* \"ArbitrageDao-Contract/contracts/extern/Manageable.sol\":4590:4632  OwnershipTransferred(_oldOwner, _newOwner) */\n      0xffffffffffffffffffffffffffffffffffffffff\n      and\n        /* \"ArbitrageDao-Contract/contracts/extern/Manageable.sol\":4611:4620  _oldOwner */\n      dup2\n        /* \"ArbitrageDao-Contract/contracts/extern/Manageable.sol\":4590:4632  OwnershipTransferred(_oldOwner, _newOwner) */\n      0xffffffffffffffffffffffffffffffffffffffff\n      and\n      0x8be0079c531659141344cd1fd0a4f28419497f9722a3daafe3b4186f6b6457e0\n      mload(0x40)\n      mload(0x40)\n      dup1\n      swap2\n      sub\n      swap1\n      log3\n        /* \"ArbitrageDao-Contract/contracts/extern/Manageable.sol\":4462:4640  function _setOwner(address _newOwner) private {\r... */\n      pop\n      pop\n      jump\t// out\n        /* \"#utility.yul\":7:146   */\n    tag_120:\n      0x00\n        /* \"#utility.yul\":91:97   */\n      dup2\n        /* \"#utility.yul\":78:98   */\n      calldataload\n        /* \"#utility.yul\":69:98   */\n      swap1\n      pop\n        /* \"#utility.yul\":107:140   */\n      tag_122\n        /* \"#utility.yul\":134:139   */\n      dup2\n        /* \"#utility.yul\":107:140   */\n      tag_123\n      jump\t// in\n    tag_122:\n        /* \"#utility.yul\":59:146   */\n      swap3\n      swap2\n      pop\n      pop\n      jump\t// out\n        /* \"#utility.yul\":152:291   */\n    tag_124:\n      0x00\n        /* \"#utility.yul\":236:242   */\n      dup2\n        /* \"#utility.yul\":223:243   */\n      calldataload\n        /* \"#utility.yul\":214:243   */\n      swap1\n      pop\n        /* \"#utility.yul\":252:285   */\n      tag_126\n        /* \"#utility.yul\":279:284   */\n      dup2\n        /* \"#utility.yul\":252:285   */\n      tag_127\n      jump\t// in\n    tag_126:\n        /* \"#utility.yul\":204:291   */\n      swap3\n      swap2\n      pop\n      pop\n      jump\t// out\n        /* \"#utility.yul\":297:559   */\n    tag_57:\n      0x00\n        /* \"#utility.yul\":405:407   */\n      0x20\n        /* \"#utility.yul\":393:402   */\n      dup3\n        /* \"#utility.yul\":384:391   */\n      dup5\n        /* \"#utility.yul\":380:403   */\n      sub\n        /* \"#utility.yul\":376:408   */\n      slt\n        /* \"#utility.yul\":373:375   */\n      iszero\n      tag_129\n      jumpi\n        /* \"#utility.yul\":421:422   */\n      0x00\n        /* \"#utility.yul\":418:419   */\n      dup1\n        /* \"#utility.yul\":411:423   */\n      revert\n        /* \"#utility.yul\":373:375   */\n    tag_129:\n        /* \"#utility.yul\":464:465   */\n      0x00\n        /* \"#utility.yul\":489:542   */\n      tag_130\n        /* \"#utility.yul\":534:541   */\n      dup5\n        /* \"#utility.yul\":525:531   */\n      dup3\n        /* \"#utility.yul\":514:523   */\n      dup6\n        /* \"#utility.yul\":510:532   */\n      add\n        /* \"#utility.yul\":489:542   */\n      tag_120\n      jump\t// in\n    tag_130:\n        /* \"#utility.yul\":479:542   */\n      swap2\n      pop\n        /* \"#utility.yul\":435:552   */\n      pop\n        /* \"#utility.yul\":363:559   */\n      swap3\n      swap2\n      pop\n      pop\n      jump\t// out\n        /* \"#utility.yul\":565:972   */\n    tag_34:\n      0x00\n      dup1\n        /* \"#utility.yul\":690:692   */\n      0x40\n        /* \"#utility.yul\":678:687   */\n      dup4\n        /* \"#utility.yul\":669:676   */\n      dup6\n        /* \"#utility.yul\":665:688   */\n      sub\n        /* \"#utility.yul\":661:693   */\n      slt\n        /* \"#utility.yul\":658:660   */\n      iszero\n      tag_132\n      jumpi\n        /* \"#utility.yul\":706:707   */\n      0x00\n        /* \"#utility.yul\":703:704   */\n      dup1\n        /* \"#utility.yul\":696:708   */\n      revert\n        /* \"#utility.yul\":658:660   */\n    tag_132:\n        /* \"#utility.yul\":749:750   */\n      0x00\n        /* \"#utility.yul\":774:827   */\n      tag_133\n        /* \"#utility.yul\":819:826   */\n      dup6\n        /* \"#utility.yul\":810:816   */\n      dup3\n        /* \"#utility.yul\":799:808   */\n      dup7\n        /* \"#utility.yul\":795:817   */\n      add\n        /* \"#utility.yul\":774:827   */\n      tag_120\n      jump\t// in\n    tag_133:\n        /* \"#utility.yul\":764:827   */\n      swap3\n      pop\n        /* \"#utility.yul\":720:837   */\n      pop\n        /* \"#utility.yul\":876:878   */\n      0x20\n        /* \"#utility.yul\":902:955   */\n      tag_134\n        /* \"#utility.yul\":947:954   */\n      dup6\n        /* \"#utility.yul\":938:944   */\n      dup3\n        /* \"#utility.yul\":927:936   */\n      dup7\n        /* \"#utility.yul\":923:945   */\n      add\n        /* \"#utility.yul\":902:955   */\n      tag_124\n      jump\t// in\n    tag_134:\n        /* \"#utility.yul\":892:955   */\n      swap2\n      pop\n        /* \"#utility.yul\":847:965   */\n      pop\n        /* \"#utility.yul\":648:972   */\n      swap3\n      pop\n      swap3\n      swap1\n      pop\n      jump\t// out\n        /* \"#utility.yul\":978:1240   */\n    tag_22:\n      0x00\n        /* \"#utility.yul\":1086:1088   */\n      0x20\n        /* \"#utility.yul\":1074:1083   */\n      dup3\n        /* \"#utility.yul\":1065:1072   */\n      dup5\n        /* \"#utility.yul\":1061:1084   */\n      sub\n        /* \"#utility.yul\":1057:1089   */\n      slt\n        /* \"#utility.yul\":1054:1056   */\n      iszero\n      tag_136\n      jumpi\n        /* \"#utility.yul\":1102:1103   */\n      0x00\n        /* \"#utility.yul\":1099:1100   */\n      dup1\n        /* \"#utility.yul\":1092:1104   */\n      revert\n        /* \"#utility.yul\":1054:1056   */\n    tag_136:\n        /* \"#utility.yul\":1145:1146   */\n      0x00\n        /* \"#utility.yul\":1170:1223   */\n      tag_137\n        /* \"#utility.yul\":1215:1222   */\n      dup5\n        /* \"#utility.yul\":1206:1212   */\n      dup3\n        /* \"#utility.yul\":1195:1204   */\n      dup6\n        /* \"#utility.yul\":1191:1213   */\n      add\n        /* \"#utility.yul\":1170:1223   */\n      tag_124\n      jump\t// in\n    tag_137:\n        /* \"#utility.yul\":1160:1223   */\n      swap2\n      pop\n        /* \"#utility.yul\":1116:1233   */\n      pop\n        /* \"#utility.yul\":1044:1240   */\n      swap3\n      swap2\n      pop\n      pop\n      jump\t// out\n        /* \"#utility.yul\":1246:1653   */\n    tag_49:\n      0x00\n      dup1\n        /* \"#utility.yul\":1371:1373   */\n      0x40\n        /* \"#utility.yul\":1359:1368   */\n      dup4\n        /* \"#utility.yul\":1350:1357   */\n      dup6\n        /* \"#utility.yul\":1346:1369   */\n      sub\n        /* \"#utility.yul\":1342:1374   */\n      slt\n        /* \"#utility.yul\":1339:1341   */\n      iszero\n      tag_139\n      jumpi\n        /* \"#utility.yul\":1387:1388   */\n      0x00\n        /* \"#utility.yul\":1384:1385   */\n      dup1\n        /* \"#utility.yul\":1377:1389   */\n      revert\n        /* \"#utility.yul\":1339:1341   */\n    tag_139:\n        /* \"#utility.yul\":1430:1431   */\n      0x00\n        /* \"#utility.yul\":1455:1508   */\n      tag_140\n        /* \"#utility.yul\":1500:1507   */\n      dup6\n        /* \"#utility.yul\":1491:1497   */\n      dup3\n        /* \"#utility.yul\":1480:1489   */\n      dup7\n        /* \"#utility.yul\":1476:1498   */\n      add\n        /* \"#utility.yul\":1455:1508   */\n      tag_124\n      jump\t// in\n    tag_140:\n        /* \"#utility.yul\":1445:1508   */\n      swap3\n      pop\n        /* \"#utility.yul\":1401:1518   */\n      pop\n        /* \"#utility.yul\":1557:1559   */\n      0x20\n        /* \"#utility.yul\":1583:1636   */\n      tag_141\n        /* \"#utility.yul\":1628:1635   */\n      dup6\n        /* \"#utility.yul\":1619:1625   */\n      dup3\n        /* \"#utility.yul\":1608:1617   */\n      dup7\n        /* \"#utility.yul\":1604:1626   */\n      add\n        /* \"#utility.yul\":1583:1636   */\n      tag_120\n      jump\t// in\n    tag_141:\n        /* \"#utility.yul\":1573:1636   */\n      swap2\n      pop\n        /* \"#utility.yul\":1528:1646   */\n      pop\n        /* \"#utility.yul\":1329:1653   */\n      swap3\n      pop\n      swap3\n      swap1\n      pop\n      jump\t// out\n        /* \"#utility.yul\":1659:1777   */\n    tag_142:\n        /* \"#utility.yul\":1746:1770   */\n      tag_144\n        /* \"#utility.yul\":1764:1769   */\n      dup2\n        /* \"#utility.yul\":1746:1770   */\n      tag_145\n      jump\t// in\n    tag_144:\n        /* \"#utility.yul\":1741:1744   */\n      dup3\n        /* \"#utility.yul\":1734:1771   */\n      mstore\n        /* \"#utility.yul\":1724:1777   */\n      pop\n      pop\n      jump\t// out\n        /* \"#utility.yul\":1783:2162   */\n    tag_146:\n      0x00\n        /* \"#utility.yul\":1946:2013   */\n      tag_148\n        /* \"#utility.yul\":2010:2012   */\n      0x2f\n        /* \"#utility.yul\":2005:2008   */\n      dup4\n        /* \"#utility.yul\":1946:2013   */\n      tag_149\n      jump\t// in\n    tag_148:\n        /* \"#utility.yul\":1939:2013   */\n      swap2\n      pop\n        /* \"#utility.yul\":2043:2077   */\n      0x5374726174656779506f7765723a207573657220706f776572206d7573742062\n        /* \"#utility.yul\":2039:2040   */\n      0x00\n        /* \"#utility.yul\":2034:2037   */\n      dup4\n        /* \"#utility.yul\":2030:2041   */\n      add\n        /* \"#utility.yul\":2023:2078   */\n      mstore\n        /* \"#utility.yul\":2109:2126   */\n      0x6967676572207468616e207a65726f0000000000000000000000000000000000\n        /* \"#utility.yul\":2104:2106   */\n      0x20\n        /* \"#utility.yul\":2099:2102   */\n      dup4\n        /* \"#utility.yul\":2095:2107   */\n      add\n        /* \"#utility.yul\":2088:2127   */\n      mstore\n        /* \"#utility.yul\":2153:2155   */\n      0x40\n        /* \"#utility.yul\":2148:2151   */\n      dup3\n        /* \"#utility.yul\":2144:2156   */\n      add\n        /* \"#utility.yul\":2137:2156   */\n      swap1\n      pop\n        /* \"#utility.yul\":1929:2162   */\n      swap2\n      swap1\n      pop\n      jump\t// out\n        /* \"#utility.yul\":2168:2556   */\n    tag_150:\n      0x00\n        /* \"#utility.yul\":2331:2398   */\n      tag_152\n        /* \"#utility.yul\":2395:2397   */\n      0x38\n        /* \"#utility.yul\":2390:2393   */\n      dup4\n        /* \"#utility.yul\":2331:2398   */\n      tag_149\n      jump\t// in\n    tag_152:\n        /* \"#utility.yul\":2324:2398   */\n      swap2\n      pop\n        /* \"#utility.yul\":2428:2462   */\n      0x5374726174656779506f7765723a2070726f7075736520706f77657220706f77\n        /* \"#utility.yul\":2424:2425   */\n      0x00\n        /* \"#utility.yul\":2419:2422   */\n      dup4\n        /* \"#utility.yul\":2415:2426   */\n      add\n        /* \"#utility.yul\":2408:2463   */\n      mstore\n        /* \"#utility.yul\":2494:2520   */\n      0x6572206d75737420626967676572207468616e20706173730000000000000000\n        /* \"#utility.yul\":2489:2491   */\n      0x20\n        /* \"#utility.yul\":2484:2487   */\n      dup4\n        /* \"#utility.yul\":2480:2492   */\n      add\n        /* \"#utility.yul\":2473:2521   */\n      mstore\n        /* \"#utility.yul\":2547:2549   */\n      0x40\n        /* \"#utility.yul\":2542:2545   */\n      dup3\n        /* \"#utility.yul\":2538:2550   */\n      add\n        /* \"#utility.yul\":2531:2550   */\n      swap1\n      pop\n        /* \"#utility.yul\":2314:2556   */\n      swap2\n      swap1\n      pop\n      jump\t// out\n        /* \"#utility.yul\":2562:2937   */\n    tag_153:\n      0x00\n        /* \"#utility.yul\":2725:2792   */\n      tag_155\n        /* \"#utility.yul\":2789:2791   */\n      0x2b\n        /* \"#utility.yul\":2784:2787   */\n      dup4\n        /* \"#utility.yul\":2725:2792   */\n      tag_149\n      jump\t// in\n    tag_155:\n        /* \"#utility.yul\":2718:2792   */\n      swap2\n      pop\n        /* \"#utility.yul\":2822:2856   */\n      0x5374726174656779506f7765723a20766f74656420706f776572206d75737420\n        /* \"#utility.yul\":2818:2819   */\n      0x00\n        /* \"#utility.yul\":2813:2816   */\n      dup4\n        /* \"#utility.yul\":2809:2820   */\n      add\n        /* \"#utility.yul\":2802:2857   */\n      mstore\n        /* \"#utility.yul\":2888:2901   */\n      0x6265206e6f742075736564000000000000000000000000000000000000000000\n        /* \"#utility.yul\":2883:2885   */\n      0x20\n        /* \"#utility.yul\":2878:2881   */\n      dup4\n        /* \"#utility.yul\":2874:2886   */\n      add\n        /* \"#utility.yul\":2867:2902   */\n      mstore\n        /* \"#utility.yul\":2928:2930   */\n      0x40\n        /* \"#utility.yul\":2923:2926   */\n      dup3\n        /* \"#utility.yul\":2919:2931   */\n      add\n        /* \"#utility.yul\":2912:2931   */\n      swap1\n      pop\n        /* \"#utility.yul\":2708:2937   */\n      swap2\n      swap1\n      pop\n      jump\t// out\n        /* \"#utility.yul\":2943:3265   */\n    tag_156:\n      0x00\n        /* \"#utility.yul\":3106:3173   */\n      tag_158\n        /* \"#utility.yul\":3170:3172   */\n      0x18\n        /* \"#utility.yul\":3165:3168   */\n      dup4\n        /* \"#utility.yul\":3106:3173   */\n      tag_149\n      jump\t// in\n    tag_158:\n        /* \"#utility.yul\":3099:3173   */\n      swap2\n      pop\n        /* \"#utility.yul\":3203:3229   */\n      0x4f776e61626c652f63616c6c65722d6e6f742d6f776e65720000000000000000\n        /* \"#utility.yul\":3199:3200   */\n      0x00\n        /* \"#utility.yul\":3194:3197   */\n      dup4\n        /* \"#utility.yul\":3190:3201   */\n      add\n        /* \"#utility.yul\":3183:3230   */\n      mstore\n        /* \"#utility.yul\":3256:3258   */\n      0x20\n        /* \"#utility.yul\":3251:3254   */\n      dup3\n        /* \"#utility.yul\":3247:3259   */\n      add\n        /* \"#utility.yul\":3240:3259   */\n      swap1\n      pop\n        /* \"#utility.yul\":3089:3265   */\n      swap2\n      swap1\n      pop\n      jump\t// out\n        /* \"#utility.yul\":3271:3598   */\n    tag_159:\n      0x00\n        /* \"#utility.yul\":3434:3501   */\n      tag_161\n        /* \"#utility.yul\":3498:3500   */\n      0x1d\n        /* \"#utility.yul\":3493:3496   */\n      dup4\n        /* \"#utility.yul\":3434:3501   */\n      tag_149\n      jump\t// in\n    tag_161:\n        /* \"#utility.yul\":3427:3501   */\n      swap2\n      pop\n        /* \"#utility.yul\":3531:3562   */\n      0x4d616e61676561626c652f63616c6c65722d6e6f742d6d616e61676572000000\n        /* \"#utility.yul\":3527:3528   */\n      0x00\n        /* \"#utility.yul\":3522:3525   */\n      dup4\n        /* \"#utility.yul\":3518:3529   */\n      add\n        /* \"#utility.yul\":3511:3563   */\n      mstore\n        /* \"#utility.yul\":3589:3591   */\n      0x20\n        /* \"#utility.yul\":3584:3587   */\n      dup3\n        /* \"#utility.yul\":3580:3592   */\n      add\n        /* \"#utility.yul\":3573:3592   */\n      swap1\n      pop\n        /* \"#utility.yul\":3417:3598   */\n      swap2\n      swap1\n      pop\n      jump\t// out\n        /* \"#utility.yul\":3604:3933   */\n    tag_162:\n      0x00\n        /* \"#utility.yul\":3767:3834   */\n      tag_164\n        /* \"#utility.yul\":3831:3833   */\n      0x1f\n        /* \"#utility.yul\":3826:3829   */\n      dup4\n        /* \"#utility.yul\":3767:3834   */\n      tag_149\n      jump\t// in\n    tag_164:\n        /* \"#utility.yul\":3760:3834   */\n      swap2\n      pop\n        /* \"#utility.yul\":3864:3897   */\n      0x4f776e61626c652f63616c6c65722d6e6f742d70656e64696e674f776e657200\n        /* \"#utility.yul\":3860:3861   */\n      0x00\n        /* \"#utility.yul\":3855:3858   */\n      dup4\n        /* \"#utility.yul\":3851:3862   */\n      add\n        /* \"#utility.yul\":3844:3898   */\n      mstore\n        /* \"#utility.yul\":3924:3926   */\n      0x20\n        /* \"#utility.yul\":3919:3922   */\n      dup3\n        /* \"#utility.yul\":3915:3927   */\n      add\n        /* \"#utility.yul\":3908:3927   */\n      swap1\n      pop\n        /* \"#utility.yul\":3750:3933   */\n      swap2\n      swap1\n      pop\n      jump\t// out\n        /* \"#utility.yul\":3939:4308   */\n    tag_165:\n      0x00\n        /* \"#utility.yul\":4102:4169   */\n      tag_167\n        /* \"#utility.yul\":4166:4168   */\n      0x25\n        /* \"#utility.yul\":4161:4164   */\n      dup4\n        /* \"#utility.yul\":4102:4169   */\n      tag_149\n      jump\t// in\n    tag_167:\n        /* \"#utility.yul\":4095:4169   */\n      swap2\n      pop\n        /* \"#utility.yul\":4199:4233   */\n      0x4f776e61626c652f70656e64696e674f776e65722d6e6f742d7a65726f2d6164\n        /* \"#utility.yul\":4195:4196   */\n      0x00\n        /* \"#utility.yul\":4190:4193   */\n      dup4\n        /* \"#utility.yul\":4186:4197   */\n      add\n        /* \"#utility.yul\":4179:4234   */\n      mstore\n        /* \"#utility.yul\":4265:4272   */\n      0x6472657373000000000000000000000000000000000000000000000000000000\n        /* \"#utility.yul\":4260:4262   */\n      0x20\n        /* \"#utility.yul\":4255:4258   */\n      dup4\n        /* \"#utility.yul\":4251:4263   */\n      add\n        /* \"#utility.yul\":4244:4273   */\n      mstore\n        /* \"#utility.yul\":4299:4301   */\n      0x40\n        /* \"#utility.yul\":4294:4297   */\n      dup3\n        /* \"#utility.yul\":4290:4302   */\n      add\n        /* \"#utility.yul\":4283:4302   */\n      swap1\n      pop\n        /* \"#utility.yul\":4085:4308   */\n      swap2\n      swap1\n      pop\n      jump\t// out\n        /* \"#utility.yul\":4314:4432   */\n    tag_168:\n        /* \"#utility.yul\":4401:4425   */\n      tag_170\n        /* \"#utility.yul\":4419:4424   */\n      dup2\n        /* \"#utility.yul\":4401:4425   */\n      tag_171\n      jump\t// in\n    tag_170:\n        /* \"#utility.yul\":4396:4399   */\n      dup3\n        /* \"#utility.yul\":4389:4426   */\n      mstore\n        /* \"#utility.yul\":4379:4432   */\n      pop\n      pop\n      jump\t// out\n        /* \"#utility.yul\":4438:4660   */\n    tag_31:\n      0x00\n        /* \"#utility.yul\":4569:4571   */\n      0x20\n        /* \"#utility.yul\":4558:4567   */\n      dup3\n        /* \"#utility.yul\":4554:4572   */\n      add\n        /* \"#utility.yul\":4546:4572   */\n      swap1\n      pop\n        /* \"#utility.yul\":4582:4653   */\n      tag_173\n        /* \"#utility.yul\":4650:4651   */\n      0x00\n        /* \"#utility.yul\":4639:4648   */\n      dup4\n        /* \"#utility.yul\":4635:4652   */\n      add\n        /* \"#utility.yul\":4626:4632   */\n      dup5\n        /* \"#utility.yul\":4582:4653   */\n      tag_142\n      jump\t// in\n    tag_173:\n        /* \"#utility.yul\":4536:4660   */\n      swap3\n      swap2\n      pop\n      pop\n      jump\t// out\n        /* \"#utility.yul\":4666:5085   */\n    tag_72:\n      0x00\n        /* \"#utility.yul\":4870:4872   */\n      0x20\n        /* \"#utility.yul\":4859:4868   */\n      dup3\n        /* \"#utility.yul\":4855:4873   */\n      add\n        /* \"#utility.yul\":4847:4873   */\n      swap1\n      pop\n        /* \"#utility.yul\":4919:4928   */\n      dup2\n        /* \"#utility.yul\":4913:4917   */\n      dup2\n        /* \"#utility.yul\":4909:4929   */\n      sub\n        /* \"#utility.yul\":4905:4906   */\n      0x00\n        /* \"#utility.yul\":4894:4903   */\n      dup4\n        /* \"#utility.yul\":4890:4907   */\n      add\n        /* \"#utility.yul\":4883:4930   */\n      mstore\n        /* \"#utility.yul\":4947:5078   */\n      tag_175\n        /* \"#utility.yul\":5073:5077   */\n      dup2\n        /* \"#utility.yul\":4947:5078   */\n      tag_146\n      jump\t// in\n    tag_175:\n        /* \"#utility.yul\":4939:5078   */\n      swap1\n      pop\n        /* \"#utility.yul\":4837:5085   */\n      swap2\n      swap1\n      pop\n      jump\t// out\n        /* \"#utility.yul\":5091:5510   */\n    tag_100:\n      0x00\n        /* \"#utility.yul\":5295:5297   */\n      0x20\n        /* \"#utility.yul\":5284:5293   */\n      dup3\n        /* \"#utility.yul\":5280:5298   */\n      add\n        /* \"#utility.yul\":5272:5298   */\n      swap1\n      pop\n        /* \"#utility.yul\":5344:5353   */\n      dup2\n        /* \"#utility.yul\":5338:5342   */\n      dup2\n        /* \"#utility.yul\":5334:5354   */\n      sub\n        /* \"#utility.yul\":5330:5331   */\n      0x00\n        /* \"#utility.yul\":5319:5328   */\n      dup4\n        /* \"#utility.yul\":5315:5332   */\n      add\n        /* \"#utility.yul\":5308:5355   */\n      mstore\n        /* \"#utility.yul\":5372:5503   */\n      tag_177\n        /* \"#utility.yul\":5498:5502   */\n      dup2\n        /* \"#utility.yul\":5372:5503   */\n      tag_150\n      jump\t// in\n    tag_177:\n        /* \"#utility.yul\":5364:5503   */\n      swap1\n      pop\n        /* \"#utility.yul\":5262:5510   */\n      swap2\n      swap1\n      pop\n      jump\t// out\n        /* \"#utility.yul\":5516:5935   */\n    tag_75:\n      0x00\n        /* \"#utility.yul\":5720:5722   */\n      0x20\n        /* \"#utility.yul\":5709:5718   */\n      dup3\n        /* \"#utility.yul\":5705:5723   */\n      add\n        /* \"#utility.yul\":5697:5723   */\n      swap1\n      pop\n        /* \"#utility.yul\":5769:5778   */\n      dup2\n        /* \"#utility.yul\":5763:5767   */\n      dup2\n        /* \"#utility.yul\":5759:5779   */\n      sub\n        /* \"#utility.yul\":5755:5756   */\n      0x00\n        /* \"#utility.yul\":5744:5753   */\n      dup4\n        /* \"#utility.yul\":5740:5757   */\n      add\n        /* \"#utility.yul\":5733:5780   */\n      mstore\n        /* \"#utility.yul\":5797:5928   */\n      tag_179\n        /* \"#utility.yul\":5923:5927   */\n      dup2\n        /* \"#utility.yul\":5797:5928   */\n      tag_153\n      jump\t// in\n    tag_179:\n        /* \"#utility.yul\":5789:5928   */\n      swap1\n      pop\n        /* \"#utility.yul\":5687:5935   */\n      swap2\n      swap1\n      pop\n      jump\t// out\n        /* \"#utility.yul\":5941:6360   */\n    tag_105:\n      0x00\n        /* \"#utility.yul\":6145:6147   */\n      0x20\n        /* \"#utility.yul\":6134:6143   */\n      dup3\n        /* \"#utility.yul\":6130:6148   */\n      add\n        /* \"#utility.yul\":6122:6148   */\n      swap1\n      pop\n        /* \"#utility.yul\":6194:6203   */\n      dup2\n        /* \"#utility.yul\":6188:6192   */\n      dup2\n        /* \"#utility.yul\":6184:6204   */\n      sub\n        /* \"#utility.yul\":6180:6181   */\n      0x00\n        /* \"#utility.yul\":6169:6178   */\n      dup4\n        /* \"#utility.yul\":6165:6182   */\n      add\n        /* \"#utility.yul\":6158:6205   */\n      mstore\n        /* \"#utility.yul\":6222:6353   */\n      tag_181\n        /* \"#utility.yul\":6348:6352   */\n      dup2\n        /* \"#utility.yul\":6222:6353   */\n      tag_156\n      jump\t// in\n    tag_181:\n        /* \"#utility.yul\":6214:6353   */\n      swap1\n      pop\n        /* \"#utility.yul\":6112:6360   */\n      swap2\n      swap1\n      pop\n      jump\t// out\n        /* \"#utility.yul\":6366:6785   */\n    tag_81:\n      0x00\n        /* \"#utility.yul\":6570:6572   */\n      0x20\n        /* \"#utility.yul\":6559:6568   */\n      dup3\n        /* \"#utility.yul\":6555:6573   */\n      add\n        /* \"#utility.yul\":6547:6573   */\n      swap1\n      pop\n        /* \"#utility.yul\":6619:6628   */\n      dup2\n        /* \"#utility.yul\":6613:6617   */\n      dup2\n        /* \"#utility.yul\":6609:6629   */\n      sub\n        /* \"#utility.yul\":6605:6606   */\n      0x00\n        /* \"#utility.yul\":6594:6603   */\n      dup4\n        /* \"#utility.yul\":6590:6607   */\n      add\n        /* \"#utility.yul\":6583:6630   */\n      mstore\n        /* \"#utility.yul\":6647:6778   */\n      tag_183\n        /* \"#utility.yul\":6773:6777   */\n      dup2\n        /* \"#utility.yul\":6647:6778   */\n      tag_159\n      jump\t// in\n    tag_183:\n        /* \"#utility.yul\":6639:6778   */\n      swap1\n      pop\n        /* \"#utility.yul\":6537:6785   */\n      swap2\n      swap1\n      pop\n      jump\t// out\n        /* \"#utility.yul\":6791:7210   */\n    tag_89:\n      0x00\n        /* \"#utility.yul\":6995:6997   */\n      0x20\n        /* \"#utility.yul\":6984:6993   */\n      dup3\n        /* \"#utility.yul\":6980:6998   */\n      add\n        /* \"#utility.yul\":6972:6998   */\n      swap1\n      pop\n        /* \"#utility.yul\":7044:7053   */\n      dup2\n        /* \"#utility.yul\":7038:7042   */\n      dup2\n        /* \"#utility.yul\":7034:7054   */\n      sub\n        /* \"#utility.yul\":7030:7031   */\n      0x00\n        /* \"#utility.yul\":7019:7028   */\n      dup4\n        /* \"#utility.yul\":7015:7032   */\n      add\n        /* \"#utility.yul\":7008:7055   */\n      mstore\n        /* \"#utility.yul\":7072:7203   */\n      tag_185\n        /* \"#utility.yul\":7198:7202   */\n      dup2\n        /* \"#utility.yul\":7072:7203   */\n      tag_162\n      jump\t// in\n    tag_185:\n        /* \"#utility.yul\":7064:7203   */\n      swap1\n      pop\n        /* \"#utility.yul\":6962:7210   */\n      swap2\n      swap1\n      pop\n      jump\t// out\n        /* \"#utility.yul\":7216:7635   */\n    tag_117:\n      0x00\n        /* \"#utility.yul\":7420:7422   */\n      0x20\n        /* \"#utility.yul\":7409:7418   */\n      dup3\n        /* \"#utility.yul\":7405:7423   */\n      add\n        /* \"#utility.yul\":7397:7423   */\n      swap1\n      pop\n        /* \"#utility.yul\":7469:7478   */\n      dup2\n        /* \"#utility.yul\":7463:7467   */\n      dup2\n        /* \"#utility.yul\":7459:7479   */\n      sub\n        /* \"#utility.yul\":7455:7456   */\n      0x00\n        /* \"#utility.yul\":7444:7453   */\n      dup4\n        /* \"#utility.yul\":7440:7457   */\n      add\n        /* \"#utility.yul\":7433:7480   */\n      mstore\n        /* \"#utility.yul\":7497:7628   */\n      tag_187\n        /* \"#utility.yul\":7623:7627   */\n      dup2\n        /* \"#utility.yul\":7497:7628   */\n      tag_165\n      jump\t// in\n    tag_187:\n        /* \"#utility.yul\":7489:7628   */\n      swap1\n      pop\n        /* \"#utility.yul\":7387:7635   */\n      swap2\n      swap1\n      pop\n      jump\t// out\n        /* \"#utility.yul\":7641:7863   */\n    tag_27:\n      0x00\n        /* \"#utility.yul\":7772:7774   */\n      0x20\n        /* \"#utility.yul\":7761:7770   */\n      dup3\n        /* \"#utility.yul\":7757:7775   */\n      add\n        /* \"#utility.yul\":7749:7775   */\n      swap1\n      pop\n        /* \"#utility.yul\":7785:7856   */\n      tag_189\n        /* \"#utility.yul\":7853:7854   */\n      0x00\n        /* \"#utility.yul\":7842:7851   */\n      dup4\n        /* \"#utility.yul\":7838:7855   */\n      add\n        /* \"#utility.yul\":7829:7835   */\n      dup5\n        /* \"#utility.yul\":7785:7856   */\n      tag_168\n      jump\t// in\n    tag_189:\n        /* \"#utility.yul\":7739:7863   */\n      swap3\n      swap2\n      pop\n      pop\n      jump\t// out\n        /* \"#utility.yul\":7869:8038   */\n    tag_149:\n      0x00\n        /* \"#utility.yul\":7987:7993   */\n      dup3\n        /* \"#utility.yul\":7982:7985   */\n      dup3\n        /* \"#utility.yul\":7975:7994   */\n      mstore\n        /* \"#utility.yul\":8027:8031   */\n      0x20\n        /* \"#utility.yul\":8022:8025   */\n      dup3\n        /* \"#utility.yul\":8018:8032   */\n      add\n        /* \"#utility.yul\":8003:8032   */\n      swap1\n      pop\n        /* \"#utility.yul\":7965:8038   */\n      swap3\n      swap2\n      pop\n      pop\n      jump\t// out\n        /* \"#utility.yul\":8044:8349   */\n    tag_84:\n      0x00\n        /* \"#utility.yul\":8103:8123   */\n      tag_192\n        /* \"#utility.yul\":8121:8122   */\n      dup3\n        /* \"#utility.yul\":8103:8123   */\n      tag_171\n      jump\t// in\n    tag_192:\n        /* \"#utility.yul\":8098:8123   */\n      swap2\n      pop\n        /* \"#utility.yul\":8137:8157   */\n      tag_193\n        /* \"#utility.yul\":8155:8156   */\n      dup4\n        /* \"#utility.yul\":8137:8157   */\n      tag_171\n      jump\t// in\n    tag_193:\n        /* \"#utility.yul\":8132:8157   */\n      swap3\n      pop\n        /* \"#utility.yul\":8291:8292   */\n      dup3\n        /* \"#utility.yul\":8223:8289   */\n      0xffffffffffffffffffffffffffffffffffffffffffffffffffffffffffffffff\n        /* \"#utility.yul\":8219:8293   */\n      sub\n        /* \"#utility.yul\":8216:8217   */\n      dup3\n        /* \"#utility.yul\":8213:8294   */\n      gt\n        /* \"#utility.yul\":8210:8212   */\n      iszero\n      tag_194\n      jumpi\n        /* \"#utility.yul\":8297:8315   */\n      tag_195\n      tag_196\n      jump\t// in\n    tag_195:\n        /* \"#utility.yul\":8210:8212   */\n    tag_194:\n        /* \"#utility.yul\":8341:8342   */\n      dup3\n        /* \"#utility.yul\":8338:8339   */\n      dup3\n        /* \"#utility.yul\":8334:8343   */\n      add\n        /* \"#utility.yul\":8327:8343   */\n      swap1\n      pop\n        /* \"#utility.yul\":8088:8349   */\n      swap3\n      swap2\n      pop\n      pop\n      jump\t// out\n        /* \"#utility.yul\":8355:8540   */\n    tag_97:\n      0x00\n        /* \"#utility.yul\":8412:8432   */\n      tag_198\n        /* \"#utility.yul\":8430:8431   */\n      dup3\n        /* \"#utility.yul\":8412:8432   */\n      tag_171\n      jump\t// in\n    tag_198:\n        /* \"#utility.yul\":8407:8432   */\n      swap2\n      pop\n        /* \"#utility.yul\":8446:8466   */\n      tag_199\n        /* \"#utility.yul\":8464:8465   */\n      dup4\n        /* \"#utility.yul\":8446:8466   */\n      tag_171\n      jump\t// in\n    tag_199:\n        /* \"#utility.yul\":8441:8466   */\n      swap3\n      pop\n        /* \"#utility.yul\":8485:8486   */\n      dup3\n        /* \"#utility.yul\":8475:8477   */\n      tag_200\n      jumpi\n        /* \"#utility.yul\":8490:8508   */\n      tag_201\n      tag_202\n      jump\t// in\n    tag_201:\n        /* \"#utility.yul\":8475:8477   */\n    tag_200:\n        /* \"#utility.yul\":8532:8533   */\n      dup3\n        /* \"#utility.yul\":8529:8530   */\n      dup3\n        /* \"#utility.yul\":8525:8534   */\n      div\n        /* \"#utility.yul\":8520:8534   */\n      swap1\n      pop\n        /* \"#utility.yul\":8397:8540   */\n      swap3\n      swap2\n      pop\n      pop\n      jump\t// out\n        /* \"#utility.yul\":8546:8894   */\n    tag_95:\n      0x00\n        /* \"#utility.yul\":8609:8629   */\n      tag_204\n        /* \"#utility.yul\":8627:8628   */\n      dup3\n        /* \"#utility.yul\":8609:8629   */\n      tag_171\n      jump\t// in\n    tag_204:\n        /* \"#utility.yul\":8604:8629   */\n      swap2\n      pop\n        /* \"#utility.yul\":8643:8663   */\n      tag_205\n        /* \"#utility.yul\":8661:8662   */\n      dup4\n        /* \"#utility.yul\":8643:8663   */\n      tag_171\n      jump\t// in\n    tag_205:\n        /* \"#utility.yul\":8638:8663   */\n      swap3\n      pop\n        /* \"#utility.yul\":8831:8832   */\n      dup2\n        /* \"#utility.yul\":8763:8829   */\n      0xffffffffffffffffffffffffffffffffffffffffffffffffffffffffffffffff\n        /* \"#utility.yul\":8759:8833   */\n      div\n        /* \"#utility.yul\":8756:8757   */\n      dup4\n        /* \"#utility.yul\":8753:8834   */\n      gt\n        /* \"#utility.yul\":8748:8749   */\n      dup3\n        /* \"#utility.yul\":8741:8750   */\n      iszero\n        /* \"#utility.yul\":8734:8751   */\n      iszero\n        /* \"#utility.yul\":8730:8835   */\n      and\n        /* \"#utility.yul\":8727:8729   */\n      iszero\n      tag_206\n      jumpi\n        /* \"#utility.yul\":8838:8856   */\n      tag_207\n      tag_196\n      jump\t// in\n    tag_207:\n        /* \"#utility.yul\":8727:8729   */\n    tag_206:\n        /* \"#utility.yul\":8886:8887   */\n      dup3\n        /* \"#utility.yul\":8883:8884   */\n      dup3\n        /* \"#utility.yul\":8879:8888   */\n      mul\n        /* \"#utility.yul\":8868:8888   */\n      swap1\n      pop\n        /* \"#utility.yul\":8594:8894   */\n      swap3\n      swap2\n      pop\n      pop\n      jump\t// out\n        /* \"#utility.yul\":8900:8996   */\n    tag_145:\n      0x00\n        /* \"#utility.yul\":8966:8990   */\n      tag_209\n        /* \"#utility.yul\":8984:8989   */\n      dup3\n        /* \"#utility.yul\":8966:8990   */\n      tag_210\n      jump\t// in\n    tag_209:\n        /* \"#utility.yul\":8955:8990   */\n      swap1\n      pop\n        /* \"#utility.yul\":8945:8996   */\n      swap2\n      swap1\n      pop\n      jump\t// out\n        /* \"#utility.yul\":9002:9128   */\n    tag_210:\n      0x00\n        /* \"#utility.yul\":9079:9121   */\n      0xffffffffffffffffffffffffffffffffffffffff\n        /* \"#utility.yul\":9072:9077   */\n      dup3\n        /* \"#utility.yul\":9068:9122   */\n      and\n        /* \"#utility.yul\":9057:9122   */\n      swap1\n      pop\n        /* \"#utility.yul\":9047:9128   */\n      swap2\n      swap1\n      pop\n      jump\t// out\n        /* \"#utility.yul\":9134:9211   */\n    tag_171:\n      0x00\n        /* \"#utility.yul\":9200:9205   */\n      dup2\n        /* \"#utility.yul\":9189:9205   */\n      swap1\n      pop\n        /* \"#utility.yul\":9179:9211   */\n      swap2\n      swap1\n      pop\n      jump\t// out\n        /* \"#utility.yul\":9217:9397   */\n    tag_196:\n        /* \"#utility.yul\":9265:9342   */\n      0x4e487b7100000000000000000000000000000000000000000000000000000000\n        /* \"#utility.yul\":9262:9263   */\n      0x00\n        /* \"#utility.yul\":9255:9343   */\n      mstore\n        /* \"#utility.yul\":9362:9366   */\n      0x11\n        /* \"#utility.yul\":9359:9360   */\n      0x04\n        /* \"#utility.yul\":9352:9367   */\n      mstore\n        /* \"#utility.yul\":9386:9390   */\n      0x24\n        /* \"#utility.yul\":9383:9384   */\n      0x00\n        /* \"#utility.yul\":9376:9391   */\n      revert\n        /* \"#utility.yul\":9403:9583   */\n    tag_202:\n        /* \"#utility.yul\":9451:9528   */\n      0x4e487b7100000000000000000000000000000000000000000000000000000000\n        /* \"#utility.yul\":9448:9449   */\n      0x00\n        /* \"#utility.yul\":9441:9529   */\n      mstore\n        /* \"#utility.yul\":9548:9552   */\n      0x12\n        /* \"#utility.yul\":9545:9546   */\n      0x04\n        /* \"#utility.yul\":9538:9553   */\n      mstore\n        /* \"#utility.yul\":9572:9576   */\n      0x24\n        /* \"#utility.yul\":9569:9570   */\n      0x00\n        /* \"#utility.yul\":9562:9577   */\n      revert\n        /* \"#utility.yul\":9589:9711   */\n    tag_123:\n        /* \"#utility.yul\":9662:9686   */\n      tag_216\n        /* \"#utility.yul\":9680:9685   */\n      dup2\n        /* \"#utility.yul\":9662:9686   */\n      tag_145\n      jump\t// in\n    tag_216:\n        /* \"#utility.yul\":9655:9660   */\n      dup2\n        /* \"#utility.yul\":9652:9687   */\n      eq\n        /* \"#utility.yul\":9642:9644   */\n      tag_217\n      jumpi\n        /* \"#utility.yul\":9701:9702   */\n      0x00\n        /* \"#utility.yul\":9698:9699   */\n      dup1\n        /* \"#utility.yul\":9691:9703   */\n      revert\n        /* \"#utility.yul\":9642:9644   */\n    tag_217:\n        /* \"#utility.yul\":9632:9711   */\n      pop\n      jump\t// out\n        /* \"#utility.yul\":9717:9839   */\n    tag_127:\n        /* \"#utility.yul\":9790:9814   */\n      tag_219\n        /* \"#utility.yul\":9808:9813   */\n      dup2\n        /* \"#utility.yul\":9790:9814   */\n      tag_171\n      jump\t// in\n    tag_219:\n        /* \"#utility.yul\":9783:9788   */\n      dup2\n        /* \"#utility.yul\":9780:9815   */\n      eq\n        /* \"#utility.yul\":9770:9772   */\n      tag_220\n      jumpi\n        /* \"#utility.yul\":9829:9830   */\n      0x00\n        /* \"#utility.yul\":9826:9827   */\n      dup1\n        /* \"#utility.yul\":9819:9831   */\n      revert\n        /* \"#utility.yul\":9770:9772   */\n    tag_220:\n        /* \"#utility.yul\":9760:9839   */\n      pop\n      jump\t// out\n\n    auxdata: 0xa26469706673582212203cc87d01dd5394641831da6fcb2502ac058d5d53e0cec6b5fe1ef465282d4bfc64736f6c63430008000033\n}\n",
				"bytecode": {
					"linkReferences": {},
					"object": "60806040526113886006553480156200001757600080fd5b50604051620013213803806200132183398181016040528101906200003d919062000176565b808262000050816200009b60201b60201c565b5080600260006101000a81548173ffffffffffffffffffffffffffffffffffffffff021916908373ffffffffffffffffffffffffffffffffffffffff16021790555050505062000205565b60008060009054906101000a900473ffffffffffffffffffffffffffffffffffffffff169050816000806101000a81548173ffffffffffffffffffffffffffffffffffffffff021916908373ffffffffffffffffffffffffffffffffffffffff1602179055508173ffffffffffffffffffffffffffffffffffffffff168173ffffffffffffffffffffffffffffffffffffffff167f8be0079c531659141344cd1fd0a4f28419497f9722a3daafe3b4186f6b6457e060405160405180910390a35050565b6000815190506200017081620001eb565b92915050565b600080604083850312156200018a57600080fd5b60006200019a858286016200015f565b9250506020620001ad858286016200015f565b9150509250929050565b6000620001c482620001cb565b9050919050565b600073ffffffffffffffffffffffffffffffffffffffff82169050919050565b620001f681620001b7565b81146200020257600080fd5b50565b61110c80620002156000396000f3fe608060405234801561001057600080fd5b50600436106100ea5760003560e01c8063715018a61161008c578063a3a31a9611610066578063a3a31a9614610211578063a7a1ed7214610241578063e30c39781461025f578063f2fde38b1461027d576100ea565b8063715018a6146101b957806387388958146101c35780638da5cb5b146101f3576100ea565b80634e52d81d116100c85780634e52d81d146101475780634e71e0c8146101635780634f896d4f1461016d57806351dd3b6614610189576100ea565b80630121b93f146100ef57806309d3bce51461010b578063481c6a7514610129575b600080fd5b61010960048036038101906101049190610b2b565b610299565b005b6101136104a8565b6040516101209190610f01565b60405180910390f35b6101316104ae565b60405161013e9190610e06565b60405180910390f35b610161600480360381019061015c9190610aef565b6104d8565b005b61016b6105c0565b005b61018760048036038101906101829190610b2b565b6106bf565b005b6101a3600480360381019061019e9190610b2b565b61073d565b6040516101b09190610f01565b60405180910390f35b6101c1610755565b005b6101dd60048036038101906101d89190610b54565b6107d6565b6040516101ea9190610f01565b60405180910390f35b6101fb6107fb565b6040516102089190610e06565b60405180910390f35b61022b60048036038101906102269190610ac6565b610824565b6040516102389190610f01565b60405180910390f35b61024961083c565b6040516102569190610f01565b60405180910390f35b610267610842565b6040516102749190610e06565b60405180910390f35b61029760048036038101906102929190610ac6565b61086c565b005b6000600360003373ffffffffffffffffffffffffffffffffffffffff1673ffffffffffffffffffffffffffffffffffffffff16815260200190815260200160002054905060008111610320576040517f08c379a000000000000000000000000000000000000000000000000000000000815260040161031790610e21565b60405180910390fd5b60006005600084815260200190815260200160002060003373ffffffffffffffffffffffffffffffffffffffff1673ffffffffffffffffffffffffffffffffffffffff168152602001908152602001600020549050600081146103b8576040517f08c379a00000000000000000000000000000000000000000000000000000000081526004016103af90610e61565b60405180910390fd5b600360003373ffffffffffffffffffffffffffffffffffffffff1673ffffffffffffffffffffffffffffffffffffffff168152602001908152602001600020546005600085815260200190815260200160002060003373ffffffffffffffffffffffffffffffffffffffff1673ffffffffffffffffffffffffffffffffffffffff16815260200190815260200160002081905550600360003373ffffffffffffffffffffffffffffffffffffffff1673ffffffffffffffffffffffffffffffffffffffff168152602001908152602001600020546004600085815260200190815260200160002081905550505050565b60075481565b6000600260009054906101000a900473ffffffffffffffffffffffffffffffffffffffff16905090565b3373ffffffffffffffffffffffffffffffffffffffff166104f76104ae565b73ffffffffffffffffffffffffffffffffffffffff161461054d576040517f08c379a000000000000000000000000000000000000000000000000000000000815260040161054490610ea1565b60405180910390fd5b80600360008473ffffffffffffffffffffffffffffffffffffffff1673ffffffffffffffffffffffffffffffffffffffff168152602001908152602001600020600082825461059c9190610f2d565b9250508190555080600760008282546105b59190610f2d565b925050819055505050565b600160009054906101000a900473ffffffffffffffffffffffffffffffffffffffff1673ffffffffffffffffffffffffffffffffffffffff163373ffffffffffffffffffffffffffffffffffffffff1614610650576040517f08c379a000000000000000000000000000000000000000000000000000000000815260040161064790610ec1565b60405180910390fd5b61067b600160009054906101000a900473ffffffffffffffffffffffffffffffffffffffff166109d8565b6000600160006101000a81548173ffffffffffffffffffffffffffffffffffffffff021916908373ffffffffffffffffffffffffffffffffffffffff160217905550565b6000600460008381526020019081526020016000205490506000816127106007546106ea9190610fb4565b6106f49190610f83565b9050808211610738576040517f08c379a000000000000000000000000000000000000000000000000000000000815260040161072f90610e41565b60405180910390fd5b505050565b60046020528060005260406000206000915090505481565b3373ffffffffffffffffffffffffffffffffffffffff166107746107fb565b73ffffffffffffffffffffffffffffffffffffffff16146107ca576040517f08c379a00000000000000000000000000000000000000000000000000000000081526004016107c190610e81565b60405180910390fd5b6107d460006109d8565b565b6005602052816000526040600020602052806000526040600020600091509150505481565b60008060009054906101000a900473ffffffffffffffffffffffffffffffffffffffff16905090565b60036020528060005260406000206000915090505481565b60065481565b6000600160009054906101000a900473ffffffffffffffffffffffffffffffffffffffff16905090565b3373ffffffffffffffffffffffffffffffffffffffff1661088b6107fb565b73ffffffffffffffffffffffffffffffffffffffff16146108e1576040517f08c379a00000000000000000000000000000000000000000000000000000000081526004016108d890610e81565b60405180910390fd5b600073ffffffffffffffffffffffffffffffffffffffff168173ffffffffffffffffffffffffffffffffffffffff161415610951576040517f08c379a000000000000000000000000000000000000000000000000000000000815260040161094890610ee1565b60405180910390fd5b80600160006101000a81548173ffffffffffffffffffffffffffffffffffffffff021916908373ffffffffffffffffffffffffffffffffffffffff1602179055508073ffffffffffffffffffffffffffffffffffffffff167f239a2ddded15777fa246aed5f7e1a9bc69a39d4eb4a397034d1d85766cca7d4c60405160405180910390a250565b60008060009054906101000a900473ffffffffffffffffffffffffffffffffffffffff169050816000806101000a81548173ffffffffffffffffffffffffffffffffffffffff021916908373ffffffffffffffffffffffffffffffffffffffff1602179055508173ffffffffffffffffffffffffffffffffffffffff168173ffffffffffffffffffffffffffffffffffffffff167f8be0079c531659141344cd1fd0a4f28419497f9722a3daafe3b4186f6b6457e060405160405180910390a35050565b600081359050610aab816110a8565b92915050565b600081359050610ac0816110bf565b92915050565b600060208284031215610ad857600080fd5b6000610ae684828501610a9c565b91505092915050565b60008060408385031215610b0257600080fd5b6000610b1085828601610a9c565b9250506020610b2185828601610ab1565b9150509250929050565b600060208284031215610b3d57600080fd5b6000610b4b84828501610ab1565b91505092915050565b60008060408385031215610b6757600080fd5b6000610b7585828601610ab1565b9250506020610b8685828601610a9c565b9150509250929050565b610b998161100e565b82525050565b6000610bac602f83610f1c565b91507f5374726174656779506f7765723a207573657220706f776572206d757374206260008301527f6967676572207468616e207a65726f00000000000000000000000000000000006020830152604082019050919050565b6000610c12603883610f1c565b91507f5374726174656779506f7765723a2070726f7075736520706f77657220706f7760008301527f6572206d75737420626967676572207468616e207061737300000000000000006020830152604082019050919050565b6000610c78602b83610f1c565b91507f5374726174656779506f7765723a20766f74656420706f776572206d7573742060008301527f6265206e6f7420757365640000000000000000000000000000000000000000006020830152604082019050919050565b6000610cde601883610f1c565b91507f4f776e61626c652f63616c6c65722d6e6f742d6f776e657200000000000000006000830152602082019050919050565b6000610d1e601d83610f1c565b91507f4d616e61676561626c652f63616c6c65722d6e6f742d6d616e616765720000006000830152602082019050919050565b6000610d5e601f83610f1c565b91507f4f776e61626c652f63616c6c65722d6e6f742d70656e64696e674f776e6572006000830152602082019050919050565b6000610d9e602583610f1c565b91507f4f776e61626c652f70656e64696e674f776e65722d6e6f742d7a65726f2d616460008301527f64726573730000000000000000000000000000000000000000000000000000006020830152604082019050919050565b610e0081611040565b82525050565b6000602082019050610e1b6000830184610b90565b92915050565b60006020820190508181036000830152610e3a81610b9f565b9050919050565b60006020820190508181036000830152610e5a81610c05565b9050919050565b60006020820190508181036000830152610e7a81610c6b565b9050919050565b60006020820190508181036000830152610e9a81610cd1565b9050919050565b60006020820190508181036000830152610eba81610d11565b9050919050565b60006020820190508181036000830152610eda81610d51565b9050919050565b60006020820190508181036000830152610efa81610d91565b9050919050565b6000602082019050610f166000830184610df7565b92915050565b600082825260208201905092915050565b6000610f3882611040565b9150610f4383611040565b9250827fffffffffffffffffffffffffffffffffffffffffffffffffffffffffffffffff03821115610f7857610f7761104a565b5b828201905092915050565b6000610f8e82611040565b9150610f9983611040565b925082610fa957610fa8611079565b5b828204905092915050565b6000610fbf82611040565b9150610fca83611040565b9250817fffffffffffffffffffffffffffffffffffffffffffffffffffffffffffffffff04831182151516156110035761100261104a565b5b828202905092915050565b600061101982611020565b9050919050565b600073ffffffffffffffffffffffffffffffffffffffff82169050919050565b6000819050919050565b7f4e487b7100000000000000000000000000000000000000000000000000000000600052601160045260246000fd5b7f4e487b7100000000000000000000000000000000000000000000000000000000600052601260045260246000fd5b6110b18161100e565b81146110bc57600080fd5b50565b6110c881611040565b81146110d357600080fd5b5056fea26469706673582212203cc87d01dd5394641831da6fcb2502ac058d5d53e0cec6b5fe1ef465282d4bfc64736f6c63430008000033",
					"opcodes": "PUSH1 0x80 PUSH1 0x40 MSTORE PUSH2 0x1388 PUSH1 0x6 SSTORE CALLVALUE DUP1 ISZERO PUSH3 0x17 JUMPI PUSH1 0x0 DUP1 REVERT JUMPDEST POP PUSH1 0x40 MLOAD PUSH3 0x1321 CODESIZE SUB DUP1 PUSH3 0x1321 DUP4 CODECOPY DUP2 DUP2 ADD PUSH1 0x40 MSTORE DUP2 ADD SWAP1 PUSH3 0x3D SWAP2 SWAP1 PUSH3 0x176 JUMP JUMPDEST DUP1 DUP3 PUSH3 0x50 DUP2 PUSH3 0x9B PUSH1 0x20 SHL PUSH1 0x20 SHR JUMP JUMPDEST POP DUP1 PUSH1 0x2 PUSH1 0x0 PUSH2 0x100 EXP DUP2 SLOAD DUP2 PUSH20 0xFFFFFFFFFFFFFFFFFFFFFFFFFFFFFFFFFFFFFFFF MUL NOT AND SWAP1 DUP4 PUSH20 0xFFFFFFFFFFFFFFFFFFFFFFFFFFFFFFFFFFFFFFFF AND MUL OR SWAP1 SSTORE POP POP POP POP PUSH3 0x205 JUMP JUMPDEST PUSH1 0x0 DUP1 PUSH1 0x0 SWAP1 SLOAD SWAP1 PUSH2 0x100 EXP SWAP1 DIV PUSH20 0xFFFFFFFFFFFFFFFFFFFFFFFFFFFFFFFFFFFFFFFF AND SWAP1 POP DUP2 PUSH1 0x0 DUP1 PUSH2 0x100 EXP DUP2 SLOAD DUP2 PUSH20 0xFFFFFFFFFFFFFFFFFFFFFFFFFFFFFFFFFFFFFFFF MUL NOT AND SWAP1 DUP4 PUSH20 0xFFFFFFFFFFFFFFFFFFFFFFFFFFFFFFFFFFFFFFFF AND MUL OR SWAP1 SSTORE POP DUP2 PUSH20 0xFFFFFFFFFFFFFFFFFFFFFFFFFFFFFFFFFFFFFFFF AND DUP2 PUSH20 0xFFFFFFFFFFFFFFFFFFFFFFFFFFFFFFFFFFFFFFFF AND PUSH32 0x8BE0079C531659141344CD1FD0A4F28419497F9722A3DAAFE3B4186F6B6457E0 PUSH1 0x40 MLOAD PUSH1 0x40 MLOAD DUP1 SWAP2 SUB SWAP1 LOG3 POP POP JUMP JUMPDEST PUSH1 0x0 DUP2 MLOAD SWAP1 POP PUSH3 0x170 DUP2 PUSH3 0x1EB JUMP JUMPDEST SWAP3 SWAP2 POP POP JUMP JUMPDEST PUSH1 0x0 DUP1 PUSH1 0x40 DUP4 DUP6 SUB SLT ISZERO PUSH3 0x18A JUMPI PUSH1 0x0 DUP1 REVERT JUMPDEST PUSH1 0x0 PUSH3 0x19A DUP6 DUP3 DUP7 ADD PUSH3 0x15F JUMP JUMPDEST SWAP3 POP POP PUSH1 0x20 PUSH3 0x1AD DUP6 DUP3 DUP7 ADD PUSH3 0x15F JUMP JUMPDEST SWAP2 POP POP SWAP3 POP SWAP3 SWAP1 POP JUMP JUMPDEST PUSH1 0x0 PUSH3 0x1C4 DUP3 PUSH3 0x1CB JUMP JUMPDEST SWAP1 POP SWAP2 SWAP1 POP JUMP JUMPDEST PUSH1 0x0 PUSH20 0xFFFFFFFFFFFFFFFFFFFFFFFFFFFFFFFFFFFFFFFF DUP3 AND SWAP1 POP SWAP2 SWAP1 POP JUMP JUMPDEST PUSH3 0x1F6 DUP2 PUSH3 0x1B7 JUMP JUMPDEST DUP2 EQ PUSH3 0x202 JUMPI PUSH1 0x0 DUP1 REVERT JUMPDEST POP JUMP JUMPDEST PUSH2 0x110C DUP1 PUSH3 0x215 PUSH1 0x0 CODECOPY PUSH1 0x0 RETURN INVALID PUSH1 0x80 PUSH1 0x40 MSTORE CALLVALUE DUP1 ISZERO PUSH2 0x10 JUMPI PUSH1 0x0 DUP1 REVERT JUMPDEST POP PUSH1 0x4 CALLDATASIZE LT PUSH2 0xEA JUMPI PUSH1 0x0 CALLDATALOAD PUSH1 0xE0 SHR DUP1 PUSH4 0x715018A6 GT PUSH2 0x8C JUMPI DUP1 PUSH4 0xA3A31A96 GT PUSH2 0x66 JUMPI DUP1 PUSH4 0xA3A31A96 EQ PUSH2 0x211 JUMPI DUP1 PUSH4 0xA7A1ED72 EQ PUSH2 0x241 JUMPI DUP1 PUSH4 0xE30C3978 EQ PUSH2 0x25F JUMPI DUP1 PUSH4 0xF2FDE38B EQ PUSH2 0x27D JUMPI PUSH2 0xEA JUMP JUMPDEST DUP1 PUSH4 0x715018A6 EQ PUSH2 0x1B9 JUMPI DUP1 PUSH4 0x87388958 EQ PUSH2 0x1C3 JUMPI DUP1 PUSH4 0x8DA5CB5B EQ PUSH2 0x1F3 JUMPI PUSH2 0xEA JUMP JUMPDEST DUP1 PUSH4 0x4E52D81D GT PUSH2 0xC8 JUMPI DUP1 PUSH4 0x4E52D81D EQ PUSH2 0x147 JUMPI DUP1 PUSH4 0x4E71E0C8 EQ PUSH2 0x163 JUMPI DUP1 PUSH4 0x4F896D4F EQ PUSH2 0x16D JUMPI DUP1 PUSH4 0x51DD3B66 EQ PUSH2 0x189 JUMPI PUSH2 0xEA JUMP JUMPDEST DUP1 PUSH4 0x121B93F EQ PUSH2 0xEF JUMPI DUP1 PUSH4 0x9D3BCE5 EQ PUSH2 0x10B JUMPI DUP1 PUSH4 0x481C6A75 EQ PUSH2 0x129 JUMPI JUMPDEST PUSH1 0x0 DUP1 REVERT JUMPDEST PUSH2 0x109 PUSH1 0x4 DUP1 CALLDATASIZE SUB DUP2 ADD SWAP1 PUSH2 0x104 SWAP2 SWAP1 PUSH2 0xB2B JUMP JUMPDEST PUSH2 0x299 JUMP JUMPDEST STOP JUMPDEST PUSH2 0x113 PUSH2 0x4A8 JUMP JUMPDEST PUSH1 0x40 MLOAD PUSH2 0x120 SWAP2 SWAP1 PUSH2 0xF01 JUMP JUMPDEST PUSH1 0x40 MLOAD DUP1 SWAP2 SUB SWAP1 RETURN JUMPDEST PUSH2 0x131 PUSH2 0x4AE JUMP JUMPDEST PUSH1 0x40 MLOAD PUSH2 0x13E SWAP2 SWAP1 PUSH2 0xE06 JUMP JUMPDEST PUSH1 0x40 MLOAD DUP1 SWAP2 SUB SWAP1 RETURN JUMPDEST PUSH2 0x161 PUSH1 0x4 DUP1 CALLDATASIZE SUB DUP2 ADD SWAP1 PUSH2 0x15C SWAP2 SWAP1 PUSH2 0xAEF JUMP JUMPDEST PUSH2 0x4D8 JUMP JUMPDEST STOP JUMPDEST PUSH2 0x16B PUSH2 0x5C0 JUMP JUMPDEST STOP JUMPDEST PUSH2 0x187 PUSH1 0x4 DUP1 CALLDATASIZE SUB DUP2 ADD SWAP1 PUSH2 0x182 SWAP2 SWAP1 PUSH2 0xB2B JUMP JUMPDEST PUSH2 0x6BF JUMP JUMPDEST STOP JUMPDEST PUSH2 0x1A3 PUSH1 0x4 DUP1 CALLDATASIZE SUB DUP2 ADD SWAP1 PUSH2 0x19E SWAP2 SWAP1 PUSH2 0xB2B JUMP JUMPDEST PUSH2 0x73D JUMP JUMPDEST PUSH1 0x40 MLOAD PUSH2 0x1B0 SWAP2 SWAP1 PUSH2 0xF01 JUMP JUMPDEST PUSH1 0x40 MLOAD DUP1 SWAP2 SUB SWAP1 RETURN JUMPDEST PUSH2 0x1C1 PUSH2 0x755 JUMP JUMPDEST STOP JUMPDEST PUSH2 0x1DD PUSH1 0x4 DUP1 CALLDATASIZE SUB DUP2 ADD SWAP1 PUSH2 0x1D8 SWAP2 SWAP1 PUSH2 0xB54 JUMP JUMPDEST PUSH2 0x7D6 JUMP JUMPDEST PUSH1 0x40 MLOAD PUSH2 0x1EA SWAP2 SWAP1 PUSH2 0xF01 JUMP JUMPDEST PUSH1 0x40 MLOAD DUP1 SWAP2 SUB SWAP1 RETURN JUMPDEST PUSH2 0x1FB PUSH2 0x7FB JUMP JUMPDEST PUSH1 0x40 MLOAD PUSH2 0x208 SWAP2 SWAP1 PUSH2 0xE06 JUMP JUMPDEST PUSH1 0x40 MLOAD DUP1 SWAP2 SUB SWAP1 RETURN JUMPDEST PUSH2 0x22B PUSH1 0x4 DUP1 CALLDATASIZE SUB DUP2 ADD SWAP1 PUSH2 0x226 SWAP2 SWAP1 PUSH2 0xAC6 JUMP JUMPDEST PUSH2 0x824 JUMP JUMPDEST PUSH1 0x40 MLOAD PUSH2 0x238 SWAP2 SWAP1 PUSH2 0xF01 JUMP JUMPDEST PUSH1 0x40 MLOAD DUP1 SWAP2 SUB SWAP1 RETURN JUMPDEST PUSH2 0x249 PUSH2 0x83C JUMP JUMPDEST PUSH1 0x40 MLOAD PUSH2 0x256 SWAP2 SWAP1 PUSH2 0xF01 JUMP JUMPDEST PUSH1 0x40 MLOAD DUP1 SWAP2 SUB SWAP1 RETURN JUMPDEST PUSH2 0x267 PUSH2 0x842 JUMP JUMPDEST PUSH1 0x40 MLOAD PUSH2 0x274 SWAP2 SWAP1 PUSH2 0xE06 JUMP JUMPDEST PUSH1 0x40 MLOAD DUP1 SWAP2 SUB SWAP1 RETURN JUMPDEST PUSH2 0x297 PUSH1 0x4 DUP1 CALLDATASIZE SUB DUP2 ADD SWAP1 PUSH2 0x292 SWAP2 SWAP1 PUSH2 0xAC6 JUMP JUMPDEST PUSH2 0x86C JUMP JUMPDEST STOP JUMPDEST PUSH1 0x0 PUSH1 0x3 PUSH1 0x0 CALLER PUSH20 0xFFFFFFFFFFFFFFFFFFFFFFFFFFFFFFFFFFFFFFFF AND PUSH20 0xFFFFFFFFFFFFFFFFFFFFFFFFFFFFFFFFFFFFFFFF AND DUP2 MSTORE PUSH1 0x20 ADD SWAP1 DUP2 MSTORE PUSH1 0x20 ADD PUSH1 0x0 KECCAK256 SLOAD SWAP1 POP PUSH1 0x0 DUP2 GT PUSH2 0x320 JUMPI PUSH1 0x40 MLOAD PUSH32 0x8C379A000000000000000000000000000000000000000000000000000000000 DUP2 MSTORE PUSH1 0x4 ADD PUSH2 0x317 SWAP1 PUSH2 0xE21 JUMP JUMPDEST PUSH1 0x40 MLOAD DUP1 SWAP2 SUB SWAP1 REVERT JUMPDEST PUSH1 0x0 PUSH1 0x5 PUSH1 0x0 DUP5 DUP2 MSTORE PUSH1 0x20 ADD SWAP1 DUP2 MSTORE PUSH1 0x20 ADD PUSH1 0x0 KECCAK256 PUSH1 0x0 CALLER PUSH20 0xFFFFFFFFFFFFFFFFFFFFFFFFFFFFFFFFFFFFFFFF AND PUSH20 0xFFFFFFFFFFFFFFFFFFFFFFFFFFFFFFFFFFFFFFFF AND DUP2 MSTORE PUSH1 0x20 ADD SWAP1 DUP2 MSTORE PUSH1 0x20 ADD PUSH1 0x0 KECCAK256 SLOAD SWAP1 POP PUSH1 0x0 DUP2 EQ PUSH2 0x3B8 JUMPI PUSH1 0x40 MLOAD PUSH32 0x8C379A000000000000000000000000000000000000000000000000000000000 DUP2 MSTORE PUSH1 0x4 ADD PUSH2 0x3AF SWAP1 PUSH2 0xE61 JUMP JUMPDEST PUSH1 0x40 MLOAD DUP1 SWAP2 SUB SWAP1 REVERT JUMPDEST PUSH1 0x3 PUSH1 0x0 CALLER PUSH20 0xFFFFFFFFFFFFFFFFFFFFFFFFFFFFFFFFFFFFFFFF AND PUSH20 0xFFFFFFFFFFFFFFFFFFFFFFFFFFFFFFFFFFFFFFFF AND DUP2 MSTORE PUSH1 0x20 ADD SWAP1 DUP2 MSTORE PUSH1 0x20 ADD PUSH1 0x0 KECCAK256 SLOAD PUSH1 0x5 PUSH1 0x0 DUP6 DUP2 MSTORE PUSH1 0x20 ADD SWAP1 DUP2 MSTORE PUSH1 0x20 ADD PUSH1 0x0 KECCAK256 PUSH1 0x0 CALLER PUSH20 0xFFFFFFFFFFFFFFFFFFFFFFFFFFFFFFFFFFFFFFFF AND PUSH20 0xFFFFFFFFFFFFFFFFFFFFFFFFFFFFFFFFFFFFFFFF AND DUP2 MSTORE PUSH1 0x20 ADD SWAP1 DUP2 MSTORE PUSH1 0x20 ADD PUSH1 0x0 KECCAK256 DUP2 SWAP1 SSTORE POP PUSH1 0x3 PUSH1 0x0 CALLER PUSH20 0xFFFFFFFFFFFFFFFFFFFFFFFFFFFFFFFFFFFFFFFF AND PUSH20 0xFFFFFFFFFFFFFFFFFFFFFFFFFFFFFFFFFFFFFFFF AND DUP2 MSTORE PUSH1 0x20 ADD SWAP1 DUP2 MSTORE PUSH1 0x20 ADD PUSH1 0x0 KECCAK256 SLOAD PUSH1 0x4 PUSH1 0x0 DUP6 DUP2 MSTORE PUSH1 0x20 ADD SWAP1 DUP2 MSTORE PUSH1 0x20 ADD PUSH1 0x0 KECCAK256 DUP2 SWAP1 SSTORE POP POP POP POP JUMP JUMPDEST PUSH1 0x7 SLOAD DUP2 JUMP JUMPDEST PUSH1 0x0 PUSH1 0x2 PUSH1 0x0 SWAP1 SLOAD SWAP1 PUSH2 0x100 EXP SWAP1 DIV PUSH20 0xFFFFFFFFFFFFFFFFFFFFFFFFFFFFFFFFFFFFFFFF AND SWAP1 POP SWAP1 JUMP JUMPDEST CALLER PUSH20 0xFFFFFFFFFFFFFFFFFFFFFFFFFFFFFFFFFFFFFFFF AND PUSH2 0x4F7 PUSH2 0x4AE JUMP JUMPDEST PUSH20 0xFFFFFFFFFFFFFFFFFFFFFFFFFFFFFFFFFFFFFFFF AND EQ PUSH2 0x54D JUMPI PUSH1 0x40 MLOAD PUSH32 0x8C379A000000000000000000000000000000000000000000000000000000000 DUP2 MSTORE PUSH1 0x4 ADD PUSH2 0x544 SWAP1 PUSH2 0xEA1 JUMP JUMPDEST PUSH1 0x40 MLOAD DUP1 SWAP2 SUB SWAP1 REVERT JUMPDEST DUP1 PUSH1 0x3 PUSH1 0x0 DUP5 PUSH20 0xFFFFFFFFFFFFFFFFFFFFFFFFFFFFFFFFFFFFFFFF AND PUSH20 0xFFFFFFFFFFFFFFFFFFFFFFFFFFFFFFFFFFFFFFFF AND DUP2 MSTORE PUSH1 0x20 ADD SWAP1 DUP2 MSTORE PUSH1 0x20 ADD PUSH1 0x0 KECCAK256 PUSH1 0x0 DUP3 DUP3 SLOAD PUSH2 0x59C SWAP2 SWAP1 PUSH2 0xF2D JUMP JUMPDEST SWAP3 POP POP DUP2 SWAP1 SSTORE POP DUP1 PUSH1 0x7 PUSH1 0x0 DUP3 DUP3 SLOAD PUSH2 0x5B5 SWAP2 SWAP1 PUSH2 0xF2D JUMP JUMPDEST SWAP3 POP POP DUP2 SWAP1 SSTORE POP POP POP JUMP JUMPDEST PUSH1 0x1 PUSH1 0x0 SWAP1 SLOAD SWAP1 PUSH2 0x100 EXP SWAP1 DIV PUSH20 0xFFFFFFFFFFFFFFFFFFFFFFFFFFFFFFFFFFFFFFFF AND PUSH20 0xFFFFFFFFFFFFFFFFFFFFFFFFFFFFFFFFFFFFFFFF AND CALLER PUSH20 0xFFFFFFFFFFFFFFFFFFFFFFFFFFFFFFFFFFFFFFFF AND EQ PUSH2 0x650 JUMPI PUSH1 0x40 MLOAD PUSH32 0x8C379A000000000000000000000000000000000000000000000000000000000 DUP2 MSTORE PUSH1 0x4 ADD PUSH2 0x647 SWAP1 PUSH2 0xEC1 JUMP JUMPDEST PUSH1 0x40 MLOAD DUP1 SWAP2 SUB SWAP1 REVERT JUMPDEST PUSH2 0x67B PUSH1 0x1 PUSH1 0x0 SWAP1 SLOAD SWAP1 PUSH2 0x100 EXP SWAP1 DIV PUSH20 0xFFFFFFFFFFFFFFFFFFFFFFFFFFFFFFFFFFFFFFFF AND PUSH2 0x9D8 JUMP JUMPDEST PUSH1 0x0 PUSH1 0x1 PUSH1 0x0 PUSH2 0x100 EXP DUP2 SLOAD DUP2 PUSH20 0xFFFFFFFFFFFFFFFFFFFFFFFFFFFFFFFFFFFFFFFF MUL NOT AND SWAP1 DUP4 PUSH20 0xFFFFFFFFFFFFFFFFFFFFFFFFFFFFFFFFFFFFFFFF AND MUL OR SWAP1 SSTORE POP JUMP JUMPDEST PUSH1 0x0 PUSH1 0x4 PUSH1 0x0 DUP4 DUP2 MSTORE PUSH1 0x20 ADD SWAP1 DUP2 MSTORE PUSH1 0x20 ADD PUSH1 0x0 KECCAK256 SLOAD SWAP1 POP PUSH1 0x0 DUP2 PUSH2 0x2710 PUSH1 0x7 SLOAD PUSH2 0x6EA SWAP2 SWAP1 PUSH2 0xFB4 JUMP JUMPDEST PUSH2 0x6F4 SWAP2 SWAP1 PUSH2 0xF83 JUMP JUMPDEST SWAP1 POP DUP1 DUP3 GT PUSH2 0x738 JUMPI PUSH1 0x40 MLOAD PUSH32 0x8C379A000000000000000000000000000000000000000000000000000000000 DUP2 MSTORE PUSH1 0x4 ADD PUSH2 0x72F SWAP1 PUSH2 0xE41 JUMP JUMPDEST PUSH1 0x40 MLOAD DUP1 SWAP2 SUB SWAP1 REVERT JUMPDEST POP POP POP JUMP JUMPDEST PUSH1 0x4 PUSH1 0x20 MSTORE DUP1 PUSH1 0x0 MSTORE PUSH1 0x40 PUSH1 0x0 KECCAK256 PUSH1 0x0 SWAP2 POP SWAP1 POP SLOAD DUP2 JUMP JUMPDEST CALLER PUSH20 0xFFFFFFFFFFFFFFFFFFFFFFFFFFFFFFFFFFFFFFFF AND PUSH2 0x774 PUSH2 0x7FB JUMP JUMPDEST PUSH20 0xFFFFFFFFFFFFFFFFFFFFFFFFFFFFFFFFFFFFFFFF AND EQ PUSH2 0x7CA JUMPI PUSH1 0x40 MLOAD PUSH32 0x8C379A000000000000000000000000000000000000000000000000000000000 DUP2 MSTORE PUSH1 0x4 ADD PUSH2 0x7C1 SWAP1 PUSH2 0xE81 JUMP JUMPDEST PUSH1 0x40 MLOAD DUP1 SWAP2 SUB SWAP1 REVERT JUMPDEST PUSH2 0x7D4 PUSH1 0x0 PUSH2 0x9D8 JUMP JUMPDEST JUMP JUMPDEST PUSH1 0x5 PUSH1 0x20 MSTORE DUP2 PUSH1 0x0 MSTORE PUSH1 0x40 PUSH1 0x0 KECCAK256 PUSH1 0x20 MSTORE DUP1 PUSH1 0x0 MSTORE PUSH1 0x40 PUSH1 0x0 KECCAK256 PUSH1 0x0 SWAP2 POP SWAP2 POP POP SLOAD DUP2 JUMP JUMPDEST PUSH1 0x0 DUP1 PUSH1 0x0 SWAP1 SLOAD SWAP1 PUSH2 0x100 EXP SWAP1 DIV PUSH20 0xFFFFFFFFFFFFFFFFFFFFFFFFFFFFFFFFFFFFFFFF AND SWAP1 POP SWAP1 JUMP JUMPDEST PUSH1 0x3 PUSH1 0x20 MSTORE DUP1 PUSH1 0x0 MSTORE PUSH1 0x40 PUSH1 0x0 KECCAK256 PUSH1 0x0 SWAP2 POP SWAP1 POP SLOAD DUP2 JUMP JUMPDEST PUSH1 0x6 SLOAD DUP2 JUMP JUMPDEST PUSH1 0x0 PUSH1 0x1 PUSH1 0x0 SWAP1 SLOAD SWAP1 PUSH2 0x100 EXP SWAP1 DIV PUSH20 0xFFFFFFFFFFFFFFFFFFFFFFFFFFFFFFFFFFFFFFFF AND SWAP1 POP SWAP1 JUMP JUMPDEST CALLER PUSH20 0xFFFFFFFFFFFFFFFFFFFFFFFFFFFFFFFFFFFFFFFF AND PUSH2 0x88B PUSH2 0x7FB JUMP JUMPDEST PUSH20 0xFFFFFFFFFFFFFFFFFFFFFFFFFFFFFFFFFFFFFFFF AND EQ PUSH2 0x8E1 JUMPI PUSH1 0x40 MLOAD PUSH32 0x8C379A000000000000000000000000000000000000000000000000000000000 DUP2 MSTORE PUSH1 0x4 ADD PUSH2 0x8D8 SWAP1 PUSH2 0xE81 JUMP JUMPDEST PUSH1 0x40 MLOAD DUP1 SWAP2 SUB SWAP1 REVERT JUMPDEST PUSH1 0x0 PUSH20 0xFFFFFFFFFFFFFFFFFFFFFFFFFFFFFFFFFFFFFFFF AND DUP2 PUSH20 0xFFFFFFFFFFFFFFFFFFFFFFFFFFFFFFFFFFFFFFFF AND EQ ISZERO PUSH2 0x951 JUMPI PUSH1 0x40 MLOAD PUSH32 0x8C379A000000000000000000000000000000000000000000000000000000000 DUP2 MSTORE PUSH1 0x4 ADD PUSH2 0x948 SWAP1 PUSH2 0xEE1 JUMP JUMPDEST PUSH1 0x40 MLOAD DUP1 SWAP2 SUB SWAP1 REVERT JUMPDEST DUP1 PUSH1 0x1 PUSH1 0x0 PUSH2 0x100 EXP DUP2 SLOAD DUP2 PUSH20 0xFFFFFFFFFFFFFFFFFFFFFFFFFFFFFFFFFFFFFFFF MUL NOT AND SWAP1 DUP4 PUSH20 0xFFFFFFFFFFFFFFFFFFFFFFFFFFFFFFFFFFFFFFFF AND MUL OR SWAP1 SSTORE POP DUP1 PUSH20 0xFFFFFFFFFFFFFFFFFFFFFFFFFFFFFFFFFFFFFFFF AND PUSH32 0x239A2DDDED15777FA246AED5F7E1A9BC69A39D4EB4A397034D1D85766CCA7D4C PUSH1 0x40 MLOAD PUSH1 0x40 MLOAD DUP1 SWAP2 SUB SWAP1 LOG2 POP JUMP JUMPDEST PUSH1 0x0 DUP1 PUSH1 0x0 SWAP1 SLOAD SWAP1 PUSH2 0x100 EXP SWAP1 DIV PUSH20 0xFFFFFFFFFFFFFFFFFFFFFFFFFFFFFFFFFFFFFFFF AND SWAP1 POP DUP2 PUSH1 0x0 DUP1 PUSH2 0x100 EXP DUP2 SLOAD DUP2 PUSH20 0xFFFFFFFFFFFFFFFFFFFFFFFFFFFFFFFFFFFFFFFF MUL NOT AND SWAP1 DUP4 PUSH20 0xFFFFFFFFFFFFFFFFFFFFFFFFFFFFFFFFFFFFFFFF AND MUL OR SWAP1 SSTORE POP DUP2 PUSH20 0xFFFFFFFFFFFFFFFFFFFFFFFFFFFFFFFFFFFFFFFF AND DUP2 PUSH20 0xFFFFFFFFFFFFFFFFFFFFFFFFFFFFFFFFFFFFFFFF AND PUSH32 0x8BE0079C531659141344CD1FD0A4F28419497F9722A3DAAFE3B4186F6B6457E0 PUSH1 0x40 MLOAD PUSH1 0x40 MLOAD DUP1 SWAP2 SUB SWAP1 LOG3 POP POP JUMP JUMPDEST PUSH1 0x0 DUP2 CALLDATALOAD SWAP1 POP PUSH2 0xAAB DUP2 PUSH2 0x10A8 JUMP JUMPDEST SWAP3 SWAP2 POP POP JUMP JUMPDEST PUSH1 0x0 DUP2 CALLDATALOAD SWAP1 POP PUSH2 0xAC0 DUP2 PUSH2 0x10BF JUMP JUMPDEST SWAP3 SWAP2 POP POP JUMP JUMPDEST PUSH1 0x0 PUSH1 0x20 DUP3 DUP5 SUB SLT ISZERO PUSH2 0xAD8 JUMPI PUSH1 0x0 DUP1 REVERT JUMPDEST PUSH1 0x0 PUSH2 0xAE6 DUP5 DUP3 DUP6 ADD PUSH2 0xA9C JUMP JUMPDEST SWAP2 POP POP SWAP3 SWAP2 POP POP JUMP JUMPDEST PUSH1 0x0 DUP1 PUSH1 0x40 DUP4 DUP6 SUB SLT ISZERO PUSH2 0xB02 JUMPI PUSH1 0x0 DUP1 REVERT JUMPDEST PUSH1 0x0 PUSH2 0xB10 DUP6 DUP3 DUP7 ADD PUSH2 0xA9C JUMP JUMPDEST SWAP3 POP POP PUSH1 0x20 PUSH2 0xB21 DUP6 DUP3 DUP7 ADD PUSH2 0xAB1 JUMP JUMPDEST SWAP2 POP POP SWAP3 POP SWAP3 SWAP1 POP JUMP JUMPDEST PUSH1 0x0 PUSH1 0x20 DUP3 DUP5 SUB SLT ISZERO PUSH2 0xB3D JUMPI PUSH1 0x0 DUP1 REVERT JUMPDEST PUSH1 0x0 PUSH2 0xB4B DUP5 DUP3 DUP6 ADD PUSH2 0xAB1 JUMP JUMPDEST SWAP2 POP POP SWAP3 SWAP2 POP POP JUMP JUMPDEST PUSH1 0x0 DUP1 PUSH1 0x40 DUP4 DUP6 SUB SLT ISZERO PUSH2 0xB67 JUMPI PUSH1 0x0 DUP1 REVERT JUMPDEST PUSH1 0x0 PUSH2 0xB75 DUP6 DUP3 DUP7 ADD PUSH2 0xAB1 JUMP JUMPDEST SWAP3 POP POP PUSH1 0x20 PUSH2 0xB86 DUP6 DUP3 DUP7 ADD PUSH2 0xA9C JUMP JUMPDEST SWAP2 POP POP SWAP3 POP SWAP3 SWAP1 POP JUMP JUMPDEST PUSH2 0xB99 DUP2 PUSH2 0x100E JUMP JUMPDEST DUP3 MSTORE POP POP JUMP JUMPDEST PUSH1 0x0 PUSH2 0xBAC PUSH1 0x2F DUP4 PUSH2 0xF1C JUMP JUMPDEST SWAP2 POP PUSH32 0x5374726174656779506F7765723A207573657220706F776572206D7573742062 PUSH1 0x0 DUP4 ADD MSTORE PUSH32 0x6967676572207468616E207A65726F0000000000000000000000000000000000 PUSH1 0x20 DUP4 ADD MSTORE PUSH1 0x40 DUP3 ADD SWAP1 POP SWAP2 SWAP1 POP JUMP JUMPDEST PUSH1 0x0 PUSH2 0xC12 PUSH1 0x38 DUP4 PUSH2 0xF1C JUMP JUMPDEST SWAP2 POP PUSH32 0x5374726174656779506F7765723A2070726F7075736520706F77657220706F77 PUSH1 0x0 DUP4 ADD MSTORE PUSH32 0x6572206D75737420626967676572207468616E20706173730000000000000000 PUSH1 0x20 DUP4 ADD MSTORE PUSH1 0x40 DUP3 ADD SWAP1 POP SWAP2 SWAP1 POP JUMP JUMPDEST PUSH1 0x0 PUSH2 0xC78 PUSH1 0x2B DUP4 PUSH2 0xF1C JUMP JUMPDEST SWAP2 POP PUSH32 0x5374726174656779506F7765723A20766F74656420706F776572206D75737420 PUSH1 0x0 DUP4 ADD MSTORE PUSH32 0x6265206E6F742075736564000000000000000000000000000000000000000000 PUSH1 0x20 DUP4 ADD MSTORE PUSH1 0x40 DUP3 ADD SWAP1 POP SWAP2 SWAP1 POP JUMP JUMPDEST PUSH1 0x0 PUSH2 0xCDE PUSH1 0x18 DUP4 PUSH2 0xF1C JUMP JUMPDEST SWAP2 POP PUSH32 0x4F776E61626C652F63616C6C65722D6E6F742D6F776E65720000000000000000 PUSH1 0x0 DUP4 ADD MSTORE PUSH1 0x20 DUP3 ADD SWAP1 POP SWAP2 SWAP1 POP JUMP JUMPDEST PUSH1 0x0 PUSH2 0xD1E PUSH1 0x1D DUP4 PUSH2 0xF1C JUMP JUMPDEST SWAP2 POP PUSH32 0x4D616E61676561626C652F63616C6C65722D6E6F742D6D616E61676572000000 PUSH1 0x0 DUP4 ADD MSTORE PUSH1 0x20 DUP3 ADD SWAP1 POP SWAP2 SWAP1 POP JUMP JUMPDEST PUSH1 0x0 PUSH2 0xD5E PUSH1 0x1F DUP4 PUSH2 0xF1C JUMP JUMPDEST SWAP2 POP PUSH32 0x4F776E61626C652F63616C6C65722D6E6F742D70656E64696E674F776E657200 PUSH1 0x0 DUP4 ADD MSTORE PUSH1 0x20 DUP3 ADD SWAP1 POP SWAP2 SWAP1 POP JUMP JUMPDEST PUSH1 0x0 PUSH2 0xD9E PUSH1 0x25 DUP4 PUSH2 0xF1C JUMP JUMPDEST SWAP2 POP PUSH32 0x4F776E61626C652F70656E64696E674F776E65722D6E6F742D7A65726F2D6164 PUSH1 0x0 DUP4 ADD MSTORE PUSH32 0x6472657373000000000000000000000000000000000000000000000000000000 PUSH1 0x20 DUP4 ADD MSTORE PUSH1 0x40 DUP3 ADD SWAP1 POP SWAP2 SWAP1 POP JUMP JUMPDEST PUSH2 0xE00 DUP2 PUSH2 0x1040 JUMP JUMPDEST DUP3 MSTORE POP POP JUMP JUMPDEST PUSH1 0x0 PUSH1 0x20 DUP3 ADD SWAP1 POP PUSH2 0xE1B PUSH1 0x0 DUP4 ADD DUP5 PUSH2 0xB90 JUMP JUMPDEST SWAP3 SWAP2 POP POP JUMP JUMPDEST PUSH1 0x0 PUSH1 0x20 DUP3 ADD SWAP1 POP DUP2 DUP2 SUB PUSH1 0x0 DUP4 ADD MSTORE PUSH2 0xE3A DUP2 PUSH2 0xB9F JUMP JUMPDEST SWAP1 POP SWAP2 SWAP1 POP JUMP JUMPDEST PUSH1 0x0 PUSH1 0x20 DUP3 ADD SWAP1 POP DUP2 DUP2 SUB PUSH1 0x0 DUP4 ADD MSTORE PUSH2 0xE5A DUP2 PUSH2 0xC05 JUMP JUMPDEST SWAP1 POP SWAP2 SWAP1 POP JUMP JUMPDEST PUSH1 0x0 PUSH1 0x20 DUP3 ADD SWAP1 POP DUP2 DUP2 SUB PUSH1 0x0 DUP4 ADD MSTORE PUSH2 0xE7A DUP2 PUSH2 0xC6B JUMP JUMPDEST SWAP1 POP SWAP2 SWAP1 POP JUMP JUMPDEST PUSH1 0x0 PUSH1 0x20 DUP3 ADD SWAP1 POP DUP2 DUP2 SUB PUSH1 0x0 DUP4 ADD MSTORE PUSH2 0xE9A DUP2 PUSH2 0xCD1 JUMP JUMPDEST SWAP1 POP SWAP2 SWAP1 POP JUMP JUMPDEST PUSH1 0x0 PUSH1 0x20 DUP3 ADD SWAP1 POP DUP2 DUP2 SUB PUSH1 0x0 DUP4 ADD MSTORE PUSH2 0xEBA DUP2 PUSH2 0xD11 JUMP JUMPDEST SWAP1 POP SWAP2 SWAP1 POP JUMP JUMPDEST PUSH1 0x0 PUSH1 0x20 DUP3 ADD SWAP1 POP DUP2 DUP2 SUB PUSH1 0x0 DUP4 ADD MSTORE PUSH2 0xEDA DUP2 PUSH2 0xD51 JUMP JUMPDEST SWAP1 POP SWAP2 SWAP1 POP JUMP JUMPDEST PUSH1 0x0 PUSH1 0x20 DUP3 ADD SWAP1 POP DUP2 DUP2 SUB PUSH1 0x0 DUP4 ADD MSTORE PUSH2 0xEFA DUP2 PUSH2 0xD91 JUMP JUMPDEST SWAP1 POP SWAP2 SWAP1 POP JUMP JUMPDEST PUSH1 0x0 PUSH1 0x20 DUP3 ADD SWAP1 POP PUSH2 0xF16 PUSH1 0x0 DUP4 ADD DUP5 PUSH2 0xDF7 JUMP JUMPDEST SWAP3 SWAP2 POP POP JUMP JUMPDEST PUSH1 0x0 DUP3 DUP3 MSTORE PUSH1 0x20 DUP3 ADD SWAP1 POP SWAP3 SWAP2 POP POP JUMP JUMPDEST PUSH1 0x0 PUSH2 0xF38 DUP3 PUSH2 0x1040 JUMP JUMPDEST SWAP2 POP PUSH2 0xF43 DUP4 PUSH2 0x1040 JUMP JUMPDEST SWAP3 POP DUP3 PUSH32 0xFFFFFFFFFFFFFFFFFFFFFFFFFFFFFFFFFFFFFFFFFFFFFFFFFFFFFFFFFFFFFFFF SUB DUP3 GT ISZERO PUSH2 0xF78 JUMPI PUSH2 0xF77 PUSH2 0x104A JUMP JUMPDEST JUMPDEST DUP3 DUP3 ADD SWAP1 POP SWAP3 SWAP2 POP POP JUMP JUMPDEST PUSH1 0x0 PUSH2 0xF8E DUP3 PUSH2 0x1040 JUMP JUMPDEST SWAP2 POP PUSH2 0xF99 DUP4 PUSH2 0x1040 JUMP JUMPDEST SWAP3 POP DUP3 PUSH2 0xFA9 JUMPI PUSH2 0xFA8 PUSH2 0x1079 JUMP JUMPDEST JUMPDEST DUP3 DUP3 DIV SWAP1 POP SWAP3 SWAP2 POP POP JUMP JUMPDEST PUSH1 0x0 PUSH2 0xFBF DUP3 PUSH2 0x1040 JUMP JUMPDEST SWAP2 POP PUSH2 0xFCA DUP4 PUSH2 0x1040 JUMP JUMPDEST SWAP3 POP DUP2 PUSH32 0xFFFFFFFFFFFFFFFFFFFFFFFFFFFFFFFFFFFFFFFFFFFFFFFFFFFFFFFFFFFFFFFF DIV DUP4 GT DUP3 ISZERO ISZERO AND ISZERO PUSH2 0x1003 JUMPI PUSH2 0x1002 PUSH2 0x104A JUMP JUMPDEST JUMPDEST DUP3 DUP3 MUL SWAP1 POP SWAP3 SWAP2 POP POP JUMP JUMPDEST PUSH1 0x0 PUSH2 0x1019 DUP3 PUSH2 0x1020 JUMP JUMPDEST SWAP1 POP SWAP2 SWAP1 POP JUMP JUMPDEST PUSH1 0x0 PUSH20 0xFFFFFFFFFFFFFFFFFFFFFFFFFFFFFFFFFFFFFFFF DUP3 AND SWAP1 POP SWAP2 SWAP1 POP JUMP JUMPDEST PUSH1 0x0 DUP2 SWAP1 POP SWAP2 SWAP1 POP JUMP JUMPDEST PUSH32 0x4E487B7100000000000000000000000000000000000000000000000000000000 PUSH1 0x0 MSTORE PUSH1 0x11 PUSH1 0x4 MSTORE PUSH1 0x24 PUSH1 0x0 REVERT JUMPDEST PUSH32 0x4E487B7100000000000000000000000000000000000000000000000000000000 PUSH1 0x0 MSTORE PUSH1 0x12 PUSH1 0x4 MSTORE PUSH1 0x24 PUSH1 0x0 REVERT JUMPDEST PUSH2 0x10B1 DUP2 PUSH2 0x100E JUMP JUMPDEST DUP2 EQ PUSH2 0x10BC JUMPI PUSH1 0x0 DUP1 REVERT JUMPDEST POP JUMP JUMPDEST PUSH2 0x10C8 DUP2 PUSH2 0x1040 JUMP JUMPDEST DUP2 EQ PUSH2 0x10D3 JUMPI PUSH1 0x0 DUP1 REVERT JUMPDEST POP JUMP INVALID LOG2 PUSH5 0x6970667358 0x22 SLT KECCAK256 EXTCODECOPY 0xC8 PUSH30 0x1DD5394641831DA6FCB2502AC058D5D53E0CEC6B5FE1EF465282D4BFC64 PUSH20 0x6F6C634300080000330000000000000000000000 "
				},
				"gasEstimates": {
					"creation": {
						"codeDepositCost": "872800",
						"executionCost": "infinite",
						"totalCost": "infinite"
					},
					"external": {
						"address_power(address)": "1536",
						"address_proposal_power(uint256,address)": "infinite",
						"claimOwnership()": "46052",
						"injectPower(address,uint256)": "infinite",
						"manager()": "1290",
						"owner()": "1289",
						"pass()": "1173",
						"pendingOwner()": "1288",
						"renounceOwnership()": "24362",
						"resolve(uint256)": "infinite",
						"total_power()": "1175",
						"transferOwnership(address)": "23514",
						"vote(uint256)": "44409",
						"vote_power(uint256)": "infinite"
					}
				},
				"methodIdentifiers": {
					"address_power(address)": "a3a31a96",
					"address_proposal_power(uint256,address)": "87388958",
					"claimOwnership()": "4e71e0c8",
					"injectPower(address,uint256)": "4e52d81d",
					"manager()": "481c6a75",
					"owner()": "8da5cb5b",
					"pass()": "a7a1ed72",
					"pendingOwner()": "e30c3978",
					"renounceOwnership()": "715018a6",
					"resolve(uint256)": "4f896d4f",
					"total_power()": "09d3bce5",
					"transferOwnership(address)": "f2fde38b",
					"vote(uint256)": "0121b93f",
					"vote_power(uint256)": "51dd3b66"
				}
			},
			"storageLayout": {
				"storage": [
					{
						"astId": 4,
						"contract": "ArbitrageDao-Contract/contracts/strategyPower.sol:StrategyPower",
						"label": "_owner",
						"offset": 0,
						"slot": "0",
						"type": "t_address"
					},
					{
						"astId": 6,
						"contract": "ArbitrageDao-Contract/contracts/strategyPower.sol:StrategyPower",
						"label": "_pendingOwner",
						"offset": 0,
						"slot": "1",
						"type": "t_address"
					},
					{
						"astId": 158,
						"contract": "ArbitrageDao-Contract/contracts/strategyPower.sol:StrategyPower",
						"label": "_manager",
						"offset": 0,
						"slot": "2",
						"type": "t_address"
					},
					{
						"astId": 253,
						"contract": "ArbitrageDao-Contract/contracts/strategyPower.sol:StrategyPower",
						"label": "address_power",
						"offset": 0,
						"slot": "3",
						"type": "t_mapping(t_address,t_uint256)"
					},
					{
						"astId": 257,
						"contract": "ArbitrageDao-Contract/contracts/strategyPower.sol:StrategyPower",
						"label": "vote_power",
						"offset": 0,
						"slot": "4",
						"type": "t_mapping(t_uint256,t_uint256)"
					},
					{
						"astId": 263,
						"contract": "ArbitrageDao-Contract/contracts/strategyPower.sol:StrategyPower",
						"label": "address_proposal_power",
						"offset": 0,
						"slot": "5",
						"type": "t_mapping(t_uint256,t_mapping(t_address,t_uint256))"
					},
					{
						"astId": 266,
						"contract": "ArbitrageDao-Contract/contracts/strategyPower.sol:StrategyPower",
						"label": "pass",
						"offset": 0,
						"slot": "6",
						"type": "t_uint256"
					},
					{
						"astId": 268,
						"contract": "ArbitrageDao-Contract/contracts/strategyPower.sol:StrategyPower",
						"label": "total_power",
						"offset": 0,
						"slot": "7",
						"type": "t_uint256"
					}
				],
				"types": {
					"t_address": {
						"encoding": "inplace",
						"label": "address",
						"numberOfBytes": "20"
					},
					"t_mapping(t_address,t_uint256)": {
						"encoding": "mapping",
						"key": "t_address",
						"label": "mapping(address => uint256)",
						"numberOfBytes": "32",
						"value": "t_uint256"
					},
					"t_mapping(t_uint256,t_mapping(t_address,t_uint256))": {
						"encoding": "mapping",
						"key": "t_uint256",
						"label": "mapping(uint256 => mapping(address => uint256))",
						"numberOfBytes": "32",
						"value": "t_mapping(t_address,t_uint256)"
					},
					"t_mapping(t_uint256,t_uint256)": {
						"encoding": "mapping",
						"key": "t_uint256",
						"label": "mapping(uint256 => uint256)",
						"numberOfBytes": "32",
						"value": "t_uint256"
					},
					"t_uint256": {
						"encoding": "inplace",
						"label": "uint256",
						"numberOfBytes": "32"
					}
				}
			},
			"userdoc": {
				"kind": "user",
				"methods": {
					"claimOwnership()": {
						"notice": "Allows the `_pendingOwner` address to finalize the transfer."
					},
					"manager()": {
						"notice": "Gets current `_manager`."
					},
					"owner()": {
						"notice": "Returns the address of the current owner."
					},
					"pendingOwner()": {
						"notice": "Gets current `_pendingOwner`."
					},
					"renounceOwnership()": {
						"notice": "Renounce ownership of the contract."
					},
					"transferOwnership(address)": {
						"notice": "Allows current owner to set the `_pendingOwner` address."
					}
				},
				"version": 1
			}
		}
	}
}