{
	"contracts/strategyPower.sol": {
		"StrategyPower": {
			"abi": [
				{
					"inputs": [
						{
							"internalType": "address",
							"name": "owner",
							"type": "address"
						},
						{
							"internalType": "address",
							"name": "manager",
							"type": "address"
						}
					],
					"stateMutability": "nonpayable",
					"type": "constructor"
				},
				{
					"anonymous": false,
					"inputs": [
						{
							"indexed": true,
							"internalType": "address",
							"name": "previousManager",
							"type": "address"
						},
						{
							"indexed": true,
							"internalType": "address",
							"name": "newManager",
							"type": "address"
						}
					],
					"name": "ManagerTransferred",
					"type": "event"
				},
				{
					"anonymous": false,
					"inputs": [
						{
							"indexed": true,
							"internalType": "address",
							"name": "pendingOwner",
							"type": "address"
						}
					],
					"name": "OwnershipOffered",
					"type": "event"
				},
				{
					"anonymous": false,
					"inputs": [
						{
							"indexed": true,
							"internalType": "address",
							"name": "previousOwner",
							"type": "address"
						},
						{
							"indexed": true,
							"internalType": "address",
							"name": "newOwner",
							"type": "address"
						}
					],
					"name": "OwnershipTransferred",
					"type": "event"
				},
				{
					"inputs": [
						{
							"internalType": "address",
							"name": "",
							"type": "address"
						}
					],
					"name": "address_power",
					"outputs": [
						{
							"internalType": "uint256",
							"name": "",
							"type": "uint256"
						}
					],
					"stateMutability": "view",
					"type": "function"
				},
				{
					"inputs": [
						{
							"internalType": "uint256",
							"name": "",
							"type": "uint256"
						},
						{
							"internalType": "address",
							"name": "",
							"type": "address"
						}
					],
					"name": "address_proposal_power",
					"outputs": [
						{
							"internalType": "uint256",
							"name": "",
							"type": "uint256"
						}
					],
					"stateMutability": "view",
					"type": "function"
				},
				{
					"inputs": [],
					"name": "claimOwnership",
					"outputs": [],
					"stateMutability": "nonpayable",
					"type": "function"
				},
				{
					"inputs": [
						{
							"internalType": "address",
							"name": "user",
							"type": "address"
						},
						{
							"internalType": "uint256",
							"name": "power",
							"type": "uint256"
						}
					],
					"name": "injectPower",
					"outputs": [],
					"stateMutability": "nonpayable",
					"type": "function"
				},
				{
					"inputs": [],
					"name": "manager",
					"outputs": [
						{
							"internalType": "address",
							"name": "",
							"type": "address"
						}
					],
					"stateMutability": "view",
					"type": "function"
				},
				{
					"inputs": [],
					"name": "owner",
					"outputs": [
						{
							"internalType": "address",
							"name": "",
							"type": "address"
						}
					],
					"stateMutability": "view",
					"type": "function"
				},
				{
					"inputs": [],
					"name": "pass",
					"outputs": [
						{
							"internalType": "uint256",
							"name": "",
							"type": "uint256"
						}
					],
					"stateMutability": "view",
					"type": "function"
				},
				{
					"inputs": [],
					"name": "pendingOwner",
					"outputs": [
						{
							"internalType": "address",
							"name": "",
							"type": "address"
						}
					],
					"stateMutability": "view",
					"type": "function"
				},
				{
					"inputs": [],
					"name": "renounceOwnership",
					"outputs": [],
					"stateMutability": "nonpayable",
					"type": "function"
				},
				{
					"inputs": [
						{
							"internalType": "uint256",
							"name": "proposal",
							"type": "uint256"
						}
					],
					"name": "resolve",
					"outputs": [],
					"stateMutability": "nonpayable",
					"type": "function"
				},
				{
					"inputs": [],
					"name": "total_power",
					"outputs": [
						{
							"internalType": "uint256",
							"name": "",
							"type": "uint256"
						}
					],
					"stateMutability": "view",
					"type": "function"
				},
				{
					"inputs": [
						{
							"internalType": "address",
							"name": "_newOwner",
							"type": "address"
						}
					],
					"name": "transferOwnership",
					"outputs": [],
					"stateMutability": "nonpayable",
					"type": "function"
				},
				{
					"inputs": [
						{
							"internalType": "uint256",
							"name": "proposal",
							"type": "uint256"
						}
					],
					"name": "vote",
					"outputs": [],
					"stateMutability": "nonpayable",
					"type": "function"
				},
				{
					"inputs": [
						{
							"internalType": "uint256",
							"name": "",
							"type": "uint256"
						}
					],
					"name": "vote_power",
					"outputs": [
						{
							"internalType": "uint256",
							"name": "",
							"type": "uint256"
						}
					],
					"stateMutability": "view",
					"type": "function"
				}
			],
			"devdoc": {
				"events": {
					"ManagerTransferred(address,address)": {
						"details": "Emitted when `_manager` has been changed.",
						"params": {
							"newManager": "new `_manager` address.",
							"previousManager": "previous `_manager` address."
						}
					},
					"OwnershipOffered(address)": {
						"details": "Emitted when `_pendingOwner` has been changed.",
						"params": {
							"pendingOwner": "new `_pendingOwner` address."
						}
					},
					"OwnershipTransferred(address,address)": {
						"details": "Emitted when `_owner` has been changed.",
						"params": {
							"newOwner": "new `_owner` address.",
							"previousOwner": "previous `_owner` address."
						}
					}
				},
				"kind": "dev",
				"methods": {
					"claimOwnership()": {
						"details": "This function is only callable by the `_pendingOwner`."
					},
					"manager()": {
						"returns": {
							"_0": "Current `_manager` address."
						}
					},
					"pendingOwner()": {
						"returns": {
							"_0": "Current `_pendingOwner` address."
						}
					},
					"renounceOwnership()": {
						"details": "Leaves the contract without owner. It will not be possible to call `onlyOwner` functions anymore. Can only be called by the current owner. NOTE: Renouncing ownership will leave the contract without an owner, thereby removing any functionality that is only available to the owner."
					},
					"transferOwnership(address)": {
						"params": {
							"_newOwner": "Address to transfer ownership to."
						}
					}
				},
				"version": 1
			},
			"evm": {
				"assembly": "    /* \"contracts/strategyPower.sol\":102:1436  contract StrategyPower is Manageable {... */\n  mstore(0x40, 0x80)\n    /* \"contracts/strategyPower.sol\":351:355  5000 */\n  0x1388\n    /* \"contracts/strategyPower.sol\":329:355  uint256 public pass = 5000 */\n  0x06\n  sstore\n    /* \"contracts/strategyPower.sol\":395:491  constructor(address owner, address manager) Ownable(owner) Manageable(manager){... */\n  callvalue\n  dup1\n  iszero\n  tag_1\n  jumpi\n  0x00\n  dup1\n  revert\ntag_1:\n  pop\n  mload(0x40)\n  sub(codesize, bytecodeSize)\n  dup1\n  bytecodeSize\n  dup4\n  codecopy\n  dup2\n  dup2\n  add\n  0x40\n  mstore\n  dup2\n  add\n  swap1\n  tag_2\n  swap2\n  swap1\n  tag_3\n  jump\t// in\ntag_2:\n    /* \"contracts/strategyPower.sol\":465:472  manager */\n  dup1\n    /* \"contracts/strategyPower.sol\":447:452  owner */\n  dup3\n    /* \"contracts/extern/Manageable.sol\":2581:2605  _setOwner(_initialOwner) */\n  tag_8\n    /* \"contracts/extern/Manageable.sol\":2591:2604  _initialOwner */\n  dup2\n    /* \"contracts/extern/Manageable.sol\":2581:2590  _setOwner */\n  shl(0x20, tag_9)\n    /* \"contracts/extern/Manageable.sol\":2581:2605  _setOwner(_initialOwner) */\n  0x20\n  shr\n  jump\t// in\ntag_8:\n    /* \"contracts/extern/Manageable.sol\":2535:2613  constructor(address _initialOwner) {... */\n  pop\n    /* \"contracts/extern/Manageable.sol\":5277:5292  manager_address */\n  dup1\n    /* \"contracts/extern/Manageable.sol\":5266:5274  _manager */\n  0x02\n  0x00\n    /* \"contracts/extern/Manageable.sol\":5266:5292  _manager = manager_address */\n  0x0100\n  exp\n  dup2\n  sload\n  dup2\n  0xffffffffffffffffffffffffffffffffffffffff\n  mul\n  not\n  and\n  swap1\n  dup4\n  0xffffffffffffffffffffffffffffffffffffffff\n  and\n  mul\n  or\n  swap1\n  sstore\n  pop\n    /* \"contracts/extern/Manageable.sol\":5218:5300  constructor(address manager_address) {... */\n  pop\n    /* \"contracts/strategyPower.sol\":395:491  constructor(address owner, address manager) Ownable(owner) Manageable(manager){... */\n  pop\n  pop\n    /* \"contracts/strategyPower.sol\":102:1436  contract StrategyPower is Manageable {... */\n  jump(tag_12)\n    /* \"contracts/extern/Manageable.sol\":4462:4640  function _setOwner(address _newOwner) private {... */\ntag_9:\n    /* \"contracts/extern/Manageable.sol\":4519:4536  address _oldOwner */\n  0x00\n    /* \"contracts/extern/Manageable.sol\":4539:4545  _owner */\n  dup1\n  0x00\n  swap1\n  sload\n  swap1\n  0x0100\n  exp\n  swap1\n  div\n  0xffffffffffffffffffffffffffffffffffffffff\n  and\n    /* \"contracts/extern/Manageable.sol\":4519:4545  address _oldOwner = _owner */\n  swap1\n  pop\n    /* \"contracts/extern/Manageable.sol\":4565:4574  _newOwner */\n  dup2\n    /* \"contracts/extern/Manageable.sol\":4556:4562  _owner */\n  0x00\n  dup1\n    /* \"contracts/extern/Manageable.sol\":4556:4574  _owner = _newOwner */\n  0x0100\n  exp\n  dup2\n  sload\n  dup2\n  0xffffffffffffffffffffffffffffffffffffffff\n  mul\n  not\n  and\n  swap1\n  dup4\n  0xffffffffffffffffffffffffffffffffffffffff\n  and\n  mul\n  or\n  swap1\n  sstore\n  pop\n    /* \"contracts/extern/Manageable.sol\":4622:4631  _newOwner */\n  dup2\n    /* \"contracts/extern/Manageable.sol\":4590:4632  OwnershipTransferred(_oldOwner, _newOwner) */\n  0xffffffffffffffffffffffffffffffffffffffff\n  and\n    /* \"contracts/extern/Manageable.sol\":4611:4620  _oldOwner */\n  dup2\n    /* \"contracts/extern/Manageable.sol\":4590:4632  OwnershipTransferred(_oldOwner, _newOwner) */\n  0xffffffffffffffffffffffffffffffffffffffff\n  and\n  0x8be0079c531659141344cd1fd0a4f28419497f9722a3daafe3b4186f6b6457e0\n  mload(0x40)\n  mload(0x40)\n  dup1\n  swap2\n  sub\n  swap1\n  log3\n    /* \"contracts/extern/Manageable.sol\":4508:4640  {... */\n  pop\n    /* \"contracts/extern/Manageable.sol\":4462:4640  function _setOwner(address _newOwner) private {... */\n  pop\n  jump\t// out\n    /* \"#utility.yul\":88:205   */\ntag_15:\n    /* \"#utility.yul\":197:198   */\n  0x00\n    /* \"#utility.yul\":194:195   */\n  dup1\n    /* \"#utility.yul\":187:199   */\n  revert\n    /* \"#utility.yul\":334:460   */\ntag_17:\n    /* \"#utility.yul\":371:378   */\n  0x00\n    /* \"#utility.yul\":411:453   */\n  0xffffffffffffffffffffffffffffffffffffffff\n    /* \"#utility.yul\":404:409   */\n  dup3\n    /* \"#utility.yul\":400:454   */\n  and\n    /* \"#utility.yul\":389:454   */\n  swap1\n  pop\n    /* \"#utility.yul\":334:460   */\n  swap2\n  swap1\n  pop\n  jump\t// out\n    /* \"#utility.yul\":466:562   */\ntag_18:\n    /* \"#utility.yul\":503:510   */\n  0x00\n    /* \"#utility.yul\":532:556   */\n  tag_27\n    /* \"#utility.yul\":550:555   */\n  dup3\n    /* \"#utility.yul\":532:556   */\n  tag_17\n  jump\t// in\ntag_27:\n    /* \"#utility.yul\":521:556   */\n  swap1\n  pop\n    /* \"#utility.yul\":466:562   */\n  swap2\n  swap1\n  pop\n  jump\t// out\n    /* \"#utility.yul\":568:690   */\ntag_19:\n    /* \"#utility.yul\":641:665   */\n  tag_29\n    /* \"#utility.yul\":659:664   */\n  dup2\n    /* \"#utility.yul\":641:665   */\n  tag_18\n  jump\t// in\ntag_29:\n    /* \"#utility.yul\":634:639   */\n  dup2\n    /* \"#utility.yul\":631:666   */\n  eq\n    /* \"#utility.yul\":621:684   */\n  tag_30\n  jumpi\n    /* \"#utility.yul\":680:681   */\n  0x00\n    /* \"#utility.yul\":677:678   */\n  dup1\n    /* \"#utility.yul\":670:682   */\n  revert\n    /* \"#utility.yul\":621:684   */\ntag_30:\n    /* \"#utility.yul\":568:690   */\n  pop\n  jump\t// out\n    /* \"#utility.yul\":696:839   */\ntag_20:\n    /* \"#utility.yul\":753:758   */\n  0x00\n    /* \"#utility.yul\":784:790   */\n  dup2\n    /* \"#utility.yul\":778:791   */\n  mload\n    /* \"#utility.yul\":769:791   */\n  swap1\n  pop\n    /* \"#utility.yul\":800:833   */\n  tag_32\n    /* \"#utility.yul\":827:832   */\n  dup2\n    /* \"#utility.yul\":800:833   */\n  tag_19\n  jump\t// in\ntag_32:\n    /* \"#utility.yul\":696:839   */\n  swap3\n  swap2\n  pop\n  pop\n  jump\t// out\n    /* \"#utility.yul\":845:1352   */\ntag_3:\n    /* \"#utility.yul\":924:930   */\n  0x00\n    /* \"#utility.yul\":932:938   */\n  dup1\n    /* \"#utility.yul\":981:983   */\n  0x40\n    /* \"#utility.yul\":969:978   */\n  dup4\n    /* \"#utility.yul\":960:967   */\n  dup6\n    /* \"#utility.yul\":956:979   */\n  sub\n    /* \"#utility.yul\":952:984   */\n  slt\n    /* \"#utility.yul\":949:1068   */\n  iszero\n  tag_34\n  jumpi\n    /* \"#utility.yul\":987:1066   */\n  tag_35\n  tag_15\n  jump\t// in\ntag_35:\n    /* \"#utility.yul\":949:1068   */\ntag_34:\n    /* \"#utility.yul\":1107:1108   */\n  0x00\n    /* \"#utility.yul\":1132:1196   */\n  tag_36\n    /* \"#utility.yul\":1188:1195   */\n  dup6\n    /* \"#utility.yul\":1179:1185   */\n  dup3\n    /* \"#utility.yul\":1168:1177   */\n  dup7\n    /* \"#utility.yul\":1164:1186   */\n  add\n    /* \"#utility.yul\":1132:1196   */\n  tag_20\n  jump\t// in\ntag_36:\n    /* \"#utility.yul\":1122:1196   */\n  swap3\n  pop\n    /* \"#utility.yul\":1078:1206   */\n  pop\n    /* \"#utility.yul\":1245:1247   */\n  0x20\n    /* \"#utility.yul\":1271:1335   */\n  tag_37\n    /* \"#utility.yul\":1327:1334   */\n  dup6\n    /* \"#utility.yul\":1318:1324   */\n  dup3\n    /* \"#utility.yul\":1307:1316   */\n  dup7\n    /* \"#utility.yul\":1303:1325   */\n  add\n    /* \"#utility.yul\":1271:1335   */\n  tag_20\n  jump\t// in\ntag_37:\n    /* \"#utility.yul\":1261:1335   */\n  swap2\n  pop\n    /* \"#utility.yul\":1216:1345   */\n  pop\n    /* \"#utility.yul\":845:1352   */\n  swap3\n  pop\n  swap3\n  swap1\n  pop\n  jump\t// out\n    /* \"contracts/strategyPower.sol\":102:1436  contract StrategyPower is Manageable {... */\ntag_12:\n  dataSize(sub_0)\n  dup1\n  dataOffset(sub_0)\n  0x00\n  codecopy\n  0x00\n  return\nstop\n\nsub_0: assembly {\n        /* \"contracts/strategyPower.sol\":102:1436  contract StrategyPower is Manageable {... */\n      mstore(0x40, 0x80)\n      callvalue\n      dup1\n      iszero\n      tag_1\n      jumpi\n      0x00\n      dup1\n      revert\n    tag_1:\n      pop\n      jumpi(tag_2, lt(calldatasize, 0x04))\n      shr(0xe0, calldataload(0x00))\n      dup1\n      0x715018a6\n      gt\n      tag_17\n      jumpi\n      dup1\n      0xa3a31a96\n      gt\n      tag_18\n      jumpi\n      dup1\n      0xa3a31a96\n      eq\n      tag_13\n      jumpi\n      dup1\n      0xa7a1ed72\n      eq\n      tag_14\n      jumpi\n      dup1\n      0xe30c3978\n      eq\n      tag_15\n      jumpi\n      dup1\n      0xf2fde38b\n      eq\n      tag_16\n      jumpi\n      jump(tag_2)\n    tag_18:\n      dup1\n      0x715018a6\n      eq\n      tag_10\n      jumpi\n      dup1\n      0x87388958\n      eq\n      tag_11\n      jumpi\n      dup1\n      0x8da5cb5b\n      eq\n      tag_12\n      jumpi\n      jump(tag_2)\n    tag_17:\n      dup1\n      0x4e52d81d\n      gt\n      tag_19\n      jumpi\n      dup1\n      0x4e52d81d\n      eq\n      tag_6\n      jumpi\n      dup1\n      0x4e71e0c8\n      eq\n      tag_7\n      jumpi\n      dup1\n      0x4f896d4f\n      eq\n      tag_8\n      jumpi\n      dup1\n      0x51dd3b66\n      eq\n      tag_9\n      jumpi\n      jump(tag_2)\n    tag_19:\n      dup1\n      0x0121b93f\n      eq\n      tag_3\n      jumpi\n      dup1\n      0x09d3bce5\n      eq\n      tag_4\n      jumpi\n      dup1\n      0x481c6a75\n      eq\n      tag_5\n      jumpi\n    tag_2:\n      0x00\n      dup1\n      revert\n        /* \"contracts/strategyPower.sol\":774:1264  function vote(uint256 proposal) external ... */\n    tag_3:\n      tag_20\n      0x04\n      dup1\n      calldatasize\n      sub\n      dup2\n      add\n      swap1\n      tag_21\n      swap2\n      swap1\n      tag_22\n      jump\t// in\n    tag_21:\n      tag_23\n      jump\t// in\n    tag_20:\n      stop\n        /* \"contracts/strategyPower.sol\":362:388  uint256 public total_power */\n    tag_4:\n      tag_24\n      tag_25\n      jump\t// in\n    tag_24:\n      mload(0x40)\n      tag_26\n      swap2\n      swap1\n      tag_27\n      jump\t// in\n    tag_26:\n      mload(0x40)\n      dup1\n      swap2\n      sub\n      swap1\n      return\n        /* \"contracts/extern/Manageable.sol\":5746:5837  function manager() public view virtual returns (address) {... */\n    tag_5:\n      tag_28\n      tag_29\n      jump\t// in\n    tag_28:\n      mload(0x40)\n      tag_30\n      swap2\n      swap1\n      tag_31\n      jump\t// in\n    tag_30:\n      mload(0x40)\n      dup1\n      swap2\n      sub\n      swap1\n      return\n        /* \"contracts/strategyPower.sol\":1272:1427  function injectPower(address user, uint256 power) external onlyManager ... */\n    tag_6:\n      tag_32\n      0x04\n      dup1\n      calldatasize\n      sub\n      dup2\n      add\n      swap1\n      tag_33\n      swap2\n      swap1\n      tag_34\n      jump\t// in\n    tag_33:\n      tag_35\n      jump\t// in\n    tag_32:\n      stop\n        /* \"contracts/extern/Manageable.sol\":4128:4260  function claimOwnership() external onlyPendingOwner {... */\n    tag_7:\n      tag_36\n      tag_37\n      jump\t// in\n    tag_36:\n      stop\n        /* \"contracts/strategyPower.sol\":499:766  function resolve(uint256 proposal) external... */\n    tag_8:\n      tag_38\n      0x04\n      dup1\n      calldatasize\n      sub\n      dup2\n      add\n      swap1\n      tag_39\n      swap2\n      swap1\n      tag_22\n      jump\t// in\n    tag_39:\n      tag_40\n      jump\t// in\n    tag_38:\n      stop\n        /* \"contracts/strategyPower.sol\":199:242  mapping(uint256=>uint256) public vote_power */\n    tag_9:\n      tag_41\n      0x04\n      dup1\n      calldatasize\n      sub\n      dup2\n      add\n      swap1\n      tag_42\n      swap2\n      swap1\n      tag_22\n      jump\t// in\n    tag_42:\n      tag_43\n      jump\t// in\n    tag_41:\n      mload(0x40)\n      tag_44\n      swap2\n      swap1\n      tag_27\n      jump\t// in\n    tag_44:\n      mload(0x40)\n      dup1\n      swap2\n      sub\n      swap1\n      return\n        /* \"contracts/extern/Manageable.sol\":3469:3565  function renounceOwnership() external virtual onlyOwner {... */\n    tag_10:\n      tag_45\n      tag_46\n      jump\t// in\n    tag_45:\n      stop\n        /* \"contracts/strategyPower.sol\":249:322  mapping(uint256=>mapping(address=>uint256)) public address_proposal_power */\n    tag_11:\n      tag_47\n      0x04\n      dup1\n      calldatasize\n      sub\n      dup2\n      add\n      swap1\n      tag_48\n      swap2\n      swap1\n      tag_49\n      jump\t// in\n    tag_48:\n      tag_50\n      jump\t// in\n    tag_47:\n      mload(0x40)\n      tag_51\n      swap2\n      swap1\n      tag_27\n      jump\t// in\n    tag_51:\n      mload(0x40)\n      dup1\n      swap2\n      sub\n      swap1\n      return\n        /* \"contracts/extern/Manageable.sol\":2755:2842  function owner() public view virtual returns (address) {... */\n    tag_12:\n      tag_52\n      tag_53\n      jump\t// in\n    tag_52:\n      mload(0x40)\n      tag_54\n      swap2\n      swap1\n      tag_31\n      jump\t// in\n    tag_54:\n      mload(0x40)\n      dup1\n      swap2\n      sub\n      swap1\n      return\n        /* \"contracts/strategyPower.sol\":146:192  mapping(address=>uint256) public address_power */\n    tag_13:\n      tag_55\n      0x04\n      dup1\n      calldatasize\n      sub\n      dup2\n      add\n      swap1\n      tag_56\n      swap2\n      swap1\n      tag_57\n      jump\t// in\n    tag_56:\n      tag_58\n      jump\t// in\n    tag_55:\n      mload(0x40)\n      tag_59\n      swap2\n      swap1\n      tag_27\n      jump\t// in\n    tag_59:\n      mload(0x40)\n      dup1\n      swap2\n      sub\n      swap1\n      return\n        /* \"contracts/strategyPower.sol\":329:355  uint256 public pass = 5000 */\n    tag_14:\n      tag_60\n      tag_61\n      jump\t// in\n    tag_60:\n      mload(0x40)\n      tag_62\n      swap2\n      swap1\n      tag_27\n      jump\t// in\n    tag_62:\n      mload(0x40)\n      dup1\n      swap2\n      sub\n      swap1\n      return\n        /* \"contracts/extern/Manageable.sol\":2963:3066  function pendingOwner() external view virtual returns (address) {... */\n    tag_15:\n      tag_63\n      tag_64\n      jump\t// in\n    tag_63:\n      mload(0x40)\n      tag_65\n      swap2\n      swap1\n      tag_31\n      jump\t// in\n    tag_65:\n      mload(0x40)\n      dup1\n      swap2\n      sub\n      swap1\n      return\n        /* \"contracts/extern/Manageable.sol\":3720:3960  function transferOwnership(address _newOwner) external onlyOwner {... */\n    tag_16:\n      tag_66\n      0x04\n      dup1\n      calldatasize\n      sub\n      dup2\n      add\n      swap1\n      tag_67\n      swap2\n      swap1\n      tag_57\n      jump\t// in\n    tag_67:\n      tag_68\n      jump\t// in\n    tag_66:\n      stop\n        /* \"contracts/strategyPower.sol\":774:1264  function vote(uint256 proposal) external ... */\n    tag_23:\n        /* \"contracts/strategyPower.sol\":832:846  uint256  power */\n      0x00\n        /* \"contracts/strategyPower.sol\":849:862  address_power */\n      0x03\n        /* \"contracts/strategyPower.sol\":849:874  address_power[msg.sender] */\n      0x00\n        /* \"contracts/strategyPower.sol\":863:873  msg.sender */\n      caller\n        /* \"contracts/strategyPower.sol\":849:874  address_power[msg.sender] */\n      0xffffffffffffffffffffffffffffffffffffffff\n      and\n      0xffffffffffffffffffffffffffffffffffffffff\n      and\n      dup2\n      mstore\n      0x20\n      add\n      swap1\n      dup2\n      mstore\n      0x20\n      add\n      0x00\n      keccak256\n      sload\n        /* \"contracts/strategyPower.sol\":832:874  uint256  power = address_power[msg.sender] */\n      swap1\n      pop\n        /* \"contracts/strategyPower.sol\":901:902  0 */\n      0x00\n        /* \"contracts/strategyPower.sol\":893:898  power */\n      dup2\n        /* \"contracts/strategyPower.sol\":893:902  power > 0 */\n      gt\n        /* \"contracts/strategyPower.sol\":885:954  require(power > 0, \"StrategyPower: user power must bigger than zero\") */\n      tag_70\n      jumpi\n      mload(0x40)\n      0x08c379a000000000000000000000000000000000000000000000000000000000\n      dup2\n      mstore\n      0x04\n      add\n      tag_71\n      swap1\n      tag_72\n      jump\t// in\n    tag_71:\n      mload(0x40)\n      dup1\n      swap2\n      sub\n      swap1\n      revert\n    tag_70:\n        /* \"contracts/strategyPower.sol\":965:984  uint256 voted_power */\n      0x00\n        /* \"contracts/strategyPower.sol\":987:1009  address_proposal_power */\n      0x05\n        /* \"contracts/strategyPower.sol\":987:1019  address_proposal_power[proposal] */\n      0x00\n        /* \"contracts/strategyPower.sol\":1010:1018  proposal */\n      dup5\n        /* \"contracts/strategyPower.sol\":987:1019  address_proposal_power[proposal] */\n      dup2\n      mstore\n      0x20\n      add\n      swap1\n      dup2\n      mstore\n      0x20\n      add\n      0x00\n      keccak256\n        /* \"contracts/strategyPower.sol\":987:1031  address_proposal_power[proposal][msg.sender] */\n      0x00\n        /* \"contracts/strategyPower.sol\":1020:1030  msg.sender */\n      caller\n        /* \"contracts/strategyPower.sol\":987:1031  address_proposal_power[proposal][msg.sender] */\n      0xffffffffffffffffffffffffffffffffffffffff\n      and\n      0xffffffffffffffffffffffffffffffffffffffff\n      and\n      dup2\n      mstore\n      0x20\n      add\n      swap1\n      dup2\n      mstore\n      0x20\n      add\n      0x00\n      keccak256\n      sload\n        /* \"contracts/strategyPower.sol\":965:1031  uint256 voted_power = address_proposal_power[proposal][msg.sender] */\n      swap1\n      pop\n        /* \"contracts/strategyPower.sol\":1065:1066  0 */\n      0x00\n        /* \"contracts/strategyPower.sol\":1050:1061  voted_power */\n      dup2\n        /* \"contracts/strategyPower.sol\":1050:1066  voted_power == 0 */\n      eq\n        /* \"contracts/strategyPower.sol\":1042:1114  require(voted_power == 0, \"StrategyPower: voted power must be not used\") */\n      tag_73\n      jumpi\n      mload(0x40)\n      0x08c379a000000000000000000000000000000000000000000000000000000000\n      dup2\n      mstore\n      0x04\n      add\n      tag_74\n      swap1\n      tag_75\n      jump\t// in\n    tag_74:\n      mload(0x40)\n      dup1\n      swap2\n      sub\n      swap1\n      revert\n    tag_73:\n        /* \"contracts/strategyPower.sol\":1172:1185  address_power */\n      0x03\n        /* \"contracts/strategyPower.sol\":1172:1197  address_power[msg.sender] */\n      0x00\n        /* \"contracts/strategyPower.sol\":1186:1196  msg.sender */\n      caller\n        /* \"contracts/strategyPower.sol\":1172:1197  address_power[msg.sender] */\n      0xffffffffffffffffffffffffffffffffffffffff\n      and\n      0xffffffffffffffffffffffffffffffffffffffff\n      and\n      dup2\n      mstore\n      0x20\n      add\n      swap1\n      dup2\n      mstore\n      0x20\n      add\n      0x00\n      keccak256\n      sload\n        /* \"contracts/strategyPower.sol\":1125:1147  address_proposal_power */\n      0x05\n        /* \"contracts/strategyPower.sol\":1125:1157  address_proposal_power[proposal] */\n      0x00\n        /* \"contracts/strategyPower.sol\":1148:1156  proposal */\n      dup6\n        /* \"contracts/strategyPower.sol\":1125:1157  address_proposal_power[proposal] */\n      dup2\n      mstore\n      0x20\n      add\n      swap1\n      dup2\n      mstore\n      0x20\n      add\n      0x00\n      keccak256\n        /* \"contracts/strategyPower.sol\":1125:1169  address_proposal_power[proposal][msg.sender] */\n      0x00\n        /* \"contracts/strategyPower.sol\":1158:1168  msg.sender */\n      caller\n        /* \"contracts/strategyPower.sol\":1125:1169  address_proposal_power[proposal][msg.sender] */\n      0xffffffffffffffffffffffffffffffffffffffff\n      and\n      0xffffffffffffffffffffffffffffffffffffffff\n      and\n      dup2\n      mstore\n      0x20\n      add\n      swap1\n      dup2\n      mstore\n      0x20\n      add\n      0x00\n      keccak256\n        /* \"contracts/strategyPower.sol\":1125:1197  address_proposal_power[proposal][msg.sender] = address_power[msg.sender] */\n      dup2\n      swap1\n      sstore\n      pop\n        /* \"contracts/strategyPower.sol\":1231:1244  address_power */\n      0x03\n        /* \"contracts/strategyPower.sol\":1231:1256  address_power[msg.sender] */\n      0x00\n        /* \"contracts/strategyPower.sol\":1245:1255  msg.sender */\n      caller\n        /* \"contracts/strategyPower.sol\":1231:1256  address_power[msg.sender] */\n      0xffffffffffffffffffffffffffffffffffffffff\n      and\n      0xffffffffffffffffffffffffffffffffffffffff\n      and\n      dup2\n      mstore\n      0x20\n      add\n      swap1\n      dup2\n      mstore\n      0x20\n      add\n      0x00\n      keccak256\n      sload\n        /* \"contracts/strategyPower.sol\":1208:1218  vote_power */\n      0x04\n        /* \"contracts/strategyPower.sol\":1208:1228  vote_power[proposal] */\n      0x00\n        /* \"contracts/strategyPower.sol\":1219:1227  proposal */\n      dup6\n        /* \"contracts/strategyPower.sol\":1208:1228  vote_power[proposal] */\n      dup2\n      mstore\n      0x20\n      add\n      swap1\n      dup2\n      mstore\n      0x20\n      add\n      0x00\n      keccak256\n        /* \"contracts/strategyPower.sol\":1208:1256  vote_power[proposal] = address_power[msg.sender] */\n      dup2\n      swap1\n      sstore\n      pop\n        /* \"contracts/strategyPower.sol\":821:1264  {... */\n      pop\n      pop\n        /* \"contracts/strategyPower.sol\":774:1264  function vote(uint256 proposal) external ... */\n      pop\n      jump\t// out\n        /* \"contracts/strategyPower.sol\":362:388  uint256 public total_power */\n    tag_25:\n      sload(0x07)\n      dup2\n      jump\t// out\n        /* \"contracts/extern/Manageable.sol\":5746:5837  function manager() public view virtual returns (address) {... */\n    tag_29:\n        /* \"contracts/extern/Manageable.sol\":5794:5801  address */\n      0x00\n        /* \"contracts/extern/Manageable.sol\":5821:5829  _manager */\n      0x02\n      0x00\n      swap1\n      sload\n      swap1\n      0x0100\n      exp\n      swap1\n      div\n      0xffffffffffffffffffffffffffffffffffffffff\n      and\n        /* \"contracts/extern/Manageable.sol\":5814:5829  return _manager */\n      swap1\n      pop\n        /* \"contracts/extern/Manageable.sol\":5746:5837  function manager() public view virtual returns (address) {... */\n      swap1\n      jump\t// out\n        /* \"contracts/strategyPower.sol\":1272:1427  function injectPower(address user, uint256 power) external onlyManager ... */\n    tag_35:\n        /* \"contracts/extern/Manageable.sol\":7016:7026  msg.sender */\n      caller\n        /* \"contracts/extern/Manageable.sol\":7003:7026  manager() == msg.sender */\n      0xffffffffffffffffffffffffffffffffffffffff\n      and\n        /* \"contracts/extern/Manageable.sol\":7003:7012  manager() */\n      tag_78\n        /* \"contracts/extern/Manageable.sol\":7003:7010  manager */\n      tag_29\n        /* \"contracts/extern/Manageable.sol\":7003:7012  manager() */\n      jump\t// in\n    tag_78:\n        /* \"contracts/extern/Manageable.sol\":7003:7026  manager() == msg.sender */\n      0xffffffffffffffffffffffffffffffffffffffff\n      and\n      eq\n        /* \"contracts/extern/Manageable.sol\":6995:7060  require(manager() == msg.sender, \"Manageable/caller-not-manager\") */\n      tag_79\n      jumpi\n      mload(0x40)\n      0x08c379a000000000000000000000000000000000000000000000000000000000\n      dup2\n      mstore\n      0x04\n      add\n      tag_80\n      swap1\n      tag_81\n      jump\t// in\n    tag_80:\n      mload(0x40)\n      dup1\n      swap2\n      sub\n      swap1\n      revert\n    tag_79:\n        /* \"contracts/strategyPower.sol\":1383:1388  power */\n      dup1\n        /* \"contracts/strategyPower.sol\":1360:1373  address_power */\n      0x03\n        /* \"contracts/strategyPower.sol\":1360:1379  address_power[user] */\n      0x00\n        /* \"contracts/strategyPower.sol\":1374:1378  user */\n      dup5\n        /* \"contracts/strategyPower.sol\":1360:1379  address_power[user] */\n      0xffffffffffffffffffffffffffffffffffffffff\n      and\n      0xffffffffffffffffffffffffffffffffffffffff\n      and\n      dup2\n      mstore\n      0x20\n      add\n      swap1\n      dup2\n      mstore\n      0x20\n      add\n      0x00\n      keccak256\n      0x00\n        /* \"contracts/strategyPower.sol\":1360:1388  address_power[user] += power */\n      dup3\n      dup3\n      sload\n      tag_83\n      swap2\n      swap1\n      tag_84\n      jump\t// in\n    tag_83:\n      swap3\n      pop\n      pop\n      dup2\n      swap1\n      sstore\n      pop\n        /* \"contracts/strategyPower.sol\":1414:1419  power */\n      dup1\n        /* \"contracts/strategyPower.sol\":1399:1410  total_power */\n      0x07\n      0x00\n        /* \"contracts/strategyPower.sol\":1399:1419  total_power += power */\n      dup3\n      dup3\n      sload\n      tag_85\n      swap2\n      swap1\n      tag_84\n      jump\t// in\n    tag_85:\n      swap3\n      pop\n      pop\n      dup2\n      swap1\n      sstore\n      pop\n        /* \"contracts/strategyPower.sol\":1272:1427  function injectPower(address user, uint256 power) external onlyManager ... */\n      pop\n      pop\n      jump\t// out\n        /* \"contracts/extern/Manageable.sol\":4128:4260  function claimOwnership() external onlyPendingOwner {... */\n    tag_37:\n        /* \"contracts/extern/Manageable.sol\":5062:5075  _pendingOwner */\n      0x01\n      0x00\n      swap1\n      sload\n      swap1\n      0x0100\n      exp\n      swap1\n      div\n      0xffffffffffffffffffffffffffffffffffffffff\n      and\n        /* \"contracts/extern/Manageable.sol\":5048:5075  msg.sender == _pendingOwner */\n      0xffffffffffffffffffffffffffffffffffffffff\n      and\n        /* \"contracts/extern/Manageable.sol\":5048:5058  msg.sender */\n      caller\n        /* \"contracts/extern/Manageable.sol\":5048:5075  msg.sender == _pendingOwner */\n      0xffffffffffffffffffffffffffffffffffffffff\n      and\n      eq\n        /* \"contracts/extern/Manageable.sol\":5040:5111  require(msg.sender == _pendingOwner, \"Ownable/caller-not-pendingOwner\") */\n      tag_87\n      jumpi\n      mload(0x40)\n      0x08c379a000000000000000000000000000000000000000000000000000000000\n      dup2\n      mstore\n      0x04\n      add\n      tag_88\n      swap1\n      tag_89\n      jump\t// in\n    tag_88:\n      mload(0x40)\n      dup1\n      swap2\n      sub\n      swap1\n      revert\n    tag_87:\n        /* \"contracts/extern/Manageable.sol\":4191:4215  _setOwner(_pendingOwner) */\n      tag_91\n        /* \"contracts/extern/Manageable.sol\":4201:4214  _pendingOwner */\n      0x01\n      0x00\n      swap1\n      sload\n      swap1\n      0x0100\n      exp\n      swap1\n      div\n      0xffffffffffffffffffffffffffffffffffffffff\n      and\n        /* \"contracts/extern/Manageable.sol\":4191:4200  _setOwner */\n      tag_92\n        /* \"contracts/extern/Manageable.sol\":4191:4215  _setOwner(_pendingOwner) */\n      jump\t// in\n    tag_91:\n        /* \"contracts/extern/Manageable.sol\":4250:4251  0 */\n      0x00\n        /* \"contracts/extern/Manageable.sol\":4226:4239  _pendingOwner */\n      0x01\n      0x00\n        /* \"contracts/extern/Manageable.sol\":4226:4252  _pendingOwner = address(0) */\n      0x0100\n      exp\n      dup2\n      sload\n      dup2\n      0xffffffffffffffffffffffffffffffffffffffff\n      mul\n      not\n      and\n      swap1\n      dup4\n      0xffffffffffffffffffffffffffffffffffffffff\n      and\n      mul\n      or\n      swap1\n      sstore\n      pop\n        /* \"contracts/extern/Manageable.sol\":4128:4260  function claimOwnership() external onlyPendingOwner {... */\n      jump\t// out\n        /* \"contracts/strategyPower.sol\":499:766  function resolve(uint256 proposal) external... */\n    tag_40:\n        /* \"contracts/strategyPower.sol\":561:582  uint256 propuse_power */\n      0x00\n        /* \"contracts/strategyPower.sol\":585:595  vote_power */\n      0x04\n        /* \"contracts/strategyPower.sol\":585:605  vote_power[proposal] */\n      0x00\n        /* \"contracts/strategyPower.sol\":596:604  proposal */\n      dup4\n        /* \"contracts/strategyPower.sol\":585:605  vote_power[proposal] */\n      dup2\n      mstore\n      0x20\n      add\n      swap1\n      dup2\n      mstore\n      0x20\n      add\n      0x00\n      keccak256\n      sload\n        /* \"contracts/strategyPower.sol\":561:605  uint256 propuse_power = vote_power[proposal] */\n      swap1\n      pop\n        /* \"contracts/strategyPower.sol\":615:624  uint rate */\n      0x00\n        /* \"contracts/strategyPower.sol\":645:658  propuse_power */\n      dup2\n        /* \"contracts/strategyPower.sol\":639:644  10000 */\n      0x2710\n        /* \"contracts/strategyPower.sol\":627:638  total_power */\n      sload(0x07)\n        /* \"contracts/strategyPower.sol\":627:644  total_power*10000 */\n      tag_94\n      swap2\n      swap1\n      tag_95\n      jump\t// in\n    tag_94:\n        /* \"contracts/strategyPower.sol\":627:658  total_power*10000/propuse_power */\n      tag_96\n      swap2\n      swap1\n      tag_97\n      jump\t// in\n    tag_96:\n        /* \"contracts/strategyPower.sol\":615:658  uint rate = total_power*10000/propuse_power */\n      swap1\n      pop\n        /* \"contracts/strategyPower.sol\":692:696  rate */\n      dup1\n        /* \"contracts/strategyPower.sol\":676:689  propuse_power */\n      dup3\n        /* \"contracts/strategyPower.sol\":676:696  propuse_power > rate */\n      gt\n        /* \"contracts/strategyPower.sol\":668:757  require(propuse_power > rate, \"StrategyPower: propuse power power must bigger than pass\") */\n      tag_98\n      jumpi\n      mload(0x40)\n      0x08c379a000000000000000000000000000000000000000000000000000000000\n      dup2\n      mstore\n      0x04\n      add\n      tag_99\n      swap1\n      tag_100\n      jump\t// in\n    tag_99:\n      mload(0x40)\n      dup1\n      swap2\n      sub\n      swap1\n      revert\n    tag_98:\n        /* \"contracts/strategyPower.sol\":548:766  {   ... */\n      pop\n      pop\n        /* \"contracts/strategyPower.sol\":499:766  function resolve(uint256 proposal) external... */\n      pop\n      jump\t// out\n        /* \"contracts/strategyPower.sol\":199:242  mapping(uint256=>uint256) public vote_power */\n    tag_43:\n      mstore(0x20, 0x04)\n      dup1\n      0x00\n      mstore\n      keccak256(0x00, 0x40)\n      0x00\n      swap2\n      pop\n      swap1\n      pop\n      sload\n      dup2\n      jump\t// out\n        /* \"contracts/extern/Manageable.sol\":3469:3565  function renounceOwnership() external virtual onlyOwner {... */\n    tag_46:\n        /* \"contracts/extern/Manageable.sol\":4842:4852  msg.sender */\n      caller\n        /* \"contracts/extern/Manageable.sol\":4831:4852  owner() == msg.sender */\n      0xffffffffffffffffffffffffffffffffffffffff\n      and\n        /* \"contracts/extern/Manageable.sol\":4831:4838  owner() */\n      tag_102\n        /* \"contracts/extern/Manageable.sol\":4831:4836  owner */\n      tag_53\n        /* \"contracts/extern/Manageable.sol\":4831:4838  owner() */\n      jump\t// in\n    tag_102:\n        /* \"contracts/extern/Manageable.sol\":4831:4852  owner() == msg.sender */\n      0xffffffffffffffffffffffffffffffffffffffff\n      and\n      eq\n        /* \"contracts/extern/Manageable.sol\":4823:4881  require(owner() == msg.sender, \"Ownable/caller-not-owner\") */\n      tag_103\n      jumpi\n      mload(0x40)\n      0x08c379a000000000000000000000000000000000000000000000000000000000\n      dup2\n      mstore\n      0x04\n      add\n      tag_104\n      swap1\n      tag_105\n      jump\t// in\n    tag_104:\n      mload(0x40)\n      dup1\n      swap2\n      sub\n      swap1\n      revert\n    tag_103:\n        /* \"contracts/extern/Manageable.sol\":3536:3557  _setOwner(address(0)) */\n      tag_107\n        /* \"contracts/extern/Manageable.sol\":3554:3555  0 */\n      0x00\n        /* \"contracts/extern/Manageable.sol\":3536:3545  _setOwner */\n      tag_92\n        /* \"contracts/extern/Manageable.sol\":3536:3557  _setOwner(address(0)) */\n      jump\t// in\n    tag_107:\n        /* \"contracts/extern/Manageable.sol\":3469:3565  function renounceOwnership() external virtual onlyOwner {... */\n      jump\t// out\n        /* \"contracts/strategyPower.sol\":249:322  mapping(uint256=>mapping(address=>uint256)) public address_proposal_power */\n    tag_50:\n      mstore(0x20, 0x05)\n      dup2\n      0x00\n      mstore\n      mstore(0x20, keccak256(0x00, 0x40))\n      dup1\n      0x00\n      mstore\n      keccak256(0x00, 0x40)\n      0x00\n      swap2\n      pop\n      swap2\n      pop\n      pop\n      sload\n      dup2\n      jump\t// out\n        /* \"contracts/extern/Manageable.sol\":2755:2842  function owner() public view virtual returns (address) {... */\n    tag_53:\n        /* \"contracts/extern/Manageable.sol\":2801:2808  address */\n      0x00\n        /* \"contracts/extern/Manageable.sol\":2828:2834  _owner */\n      dup1\n      0x00\n      swap1\n      sload\n      swap1\n      0x0100\n      exp\n      swap1\n      div\n      0xffffffffffffffffffffffffffffffffffffffff\n      and\n        /* \"contracts/extern/Manageable.sol\":2821:2834  return _owner */\n      swap1\n      pop\n        /* \"contracts/extern/Manageable.sol\":2755:2842  function owner() public view virtual returns (address) {... */\n      swap1\n      jump\t// out\n        /* \"contracts/strategyPower.sol\":146:192  mapping(address=>uint256) public address_power */\n    tag_58:\n      mstore(0x20, 0x03)\n      dup1\n      0x00\n      mstore\n      keccak256(0x00, 0x40)\n      0x00\n      swap2\n      pop\n      swap1\n      pop\n      sload\n      dup2\n      jump\t// out\n        /* \"contracts/strategyPower.sol\":329:355  uint256 public pass = 5000 */\n    tag_61:\n      sload(0x06)\n      dup2\n      jump\t// out\n        /* \"contracts/extern/Manageable.sol\":2963:3066  function pendingOwner() external view virtual returns (address) {... */\n    tag_64:\n        /* \"contracts/extern/Manageable.sol\":3018:3025  address */\n      0x00\n        /* \"contracts/extern/Manageable.sol\":3045:3058  _pendingOwner */\n      0x01\n      0x00\n      swap1\n      sload\n      swap1\n      0x0100\n      exp\n      swap1\n      div\n      0xffffffffffffffffffffffffffffffffffffffff\n      and\n        /* \"contracts/extern/Manageable.sol\":3038:3058  return _pendingOwner */\n      swap1\n      pop\n        /* \"contracts/extern/Manageable.sol\":2963:3066  function pendingOwner() external view virtual returns (address) {... */\n      swap1\n      jump\t// out\n        /* \"contracts/extern/Manageable.sol\":3720:3960  function transferOwnership(address _newOwner) external onlyOwner {... */\n    tag_68:\n        /* \"contracts/extern/Manageable.sol\":4842:4852  msg.sender */\n      caller\n        /* \"contracts/extern/Manageable.sol\":4831:4852  owner() == msg.sender */\n      0xffffffffffffffffffffffffffffffffffffffff\n      and\n        /* \"contracts/extern/Manageable.sol\":4831:4838  owner() */\n      tag_111\n        /* \"contracts/extern/Manageable.sol\":4831:4836  owner */\n      tag_53\n        /* \"contracts/extern/Manageable.sol\":4831:4838  owner() */\n      jump\t// in\n    tag_111:\n        /* \"contracts/extern/Manageable.sol\":4831:4852  owner() == msg.sender */\n      0xffffffffffffffffffffffffffffffffffffffff\n      and\n      eq\n        /* \"contracts/extern/Manageable.sol\":4823:4881  require(owner() == msg.sender, \"Ownable/caller-not-owner\") */\n      tag_112\n      jumpi\n      mload(0x40)\n      0x08c379a000000000000000000000000000000000000000000000000000000000\n      dup2\n      mstore\n      0x04\n      add\n      tag_113\n      swap1\n      tag_105\n      jump\t// in\n    tag_113:\n      mload(0x40)\n      dup1\n      swap2\n      sub\n      swap1\n      revert\n    tag_112:\n        /* \"contracts/extern/Manageable.sol\":3825:3826  0 */\n      0x00\n        /* \"contracts/extern/Manageable.sol\":3804:3827  _newOwner != address(0) */\n      0xffffffffffffffffffffffffffffffffffffffff\n      and\n        /* \"contracts/extern/Manageable.sol\":3804:3813  _newOwner */\n      dup2\n        /* \"contracts/extern/Manageable.sol\":3804:3827  _newOwner != address(0) */\n      0xffffffffffffffffffffffffffffffffffffffff\n      and\n      sub\n        /* \"contracts/extern/Manageable.sol\":3796:3869  require(_newOwner != address(0), \"Ownable/pendingOwner-not-zero-address\") */\n      tag_115\n      jumpi\n      mload(0x40)\n      0x08c379a000000000000000000000000000000000000000000000000000000000\n      dup2\n      mstore\n      0x04\n      add\n      tag_116\n      swap1\n      tag_117\n      jump\t// in\n    tag_116:\n      mload(0x40)\n      dup1\n      swap2\n      sub\n      swap1\n      revert\n    tag_115:\n        /* \"contracts/extern/Manageable.sol\":3898:3907  _newOwner */\n      dup1\n        /* \"contracts/extern/Manageable.sol\":3882:3895  _pendingOwner */\n      0x01\n      0x00\n        /* \"contracts/extern/Manageable.sol\":3882:3907  _pendingOwner = _newOwner */\n      0x0100\n      exp\n      dup2\n      sload\n      dup2\n      0xffffffffffffffffffffffffffffffffffffffff\n      mul\n      not\n      and\n      swap1\n      dup4\n      0xffffffffffffffffffffffffffffffffffffffff\n      and\n      mul\n      or\n      swap1\n      sstore\n      pop\n        /* \"contracts/extern/Manageable.sol\":3942:3951  _newOwner */\n      dup1\n        /* \"contracts/extern/Manageable.sol\":3925:3952  OwnershipOffered(_newOwner) */\n      0xffffffffffffffffffffffffffffffffffffffff\n      and\n      0x239a2ddded15777fa246aed5f7e1a9bc69a39d4eb4a397034d1d85766cca7d4c\n      mload(0x40)\n      mload(0x40)\n      dup1\n      swap2\n      sub\n      swap1\n      log2\n        /* \"contracts/extern/Manageable.sol\":3720:3960  function transferOwnership(address _newOwner) external onlyOwner {... */\n      pop\n      jump\t// out\n        /* \"contracts/extern/Manageable.sol\":4462:4640  function _setOwner(address _newOwner) private {... */\n    tag_92:\n        /* \"contracts/extern/Manageable.sol\":4519:4536  address _oldOwner */\n      0x00\n        /* \"contracts/extern/Manageable.sol\":4539:4545  _owner */\n      dup1\n      0x00\n      swap1\n      sload\n      swap1\n      0x0100\n      exp\n      swap1\n      div\n      0xffffffffffffffffffffffffffffffffffffffff\n      and\n        /* \"contracts/extern/Manageable.sol\":4519:4545  address _oldOwner = _owner */\n      swap1\n      pop\n        /* \"contracts/extern/Manageable.sol\":4565:4574  _newOwner */\n      dup2\n        /* \"contracts/extern/Manageable.sol\":4556:4562  _owner */\n      0x00\n      dup1\n        /* \"contracts/extern/Manageable.sol\":4556:4574  _owner = _newOwner */\n      0x0100\n      exp\n      dup2\n      sload\n      dup2\n      0xffffffffffffffffffffffffffffffffffffffff\n      mul\n      not\n      and\n      swap1\n      dup4\n      0xffffffffffffffffffffffffffffffffffffffff\n      and\n      mul\n      or\n      swap1\n      sstore\n      pop\n        /* \"contracts/extern/Manageable.sol\":4622:4631  _newOwner */\n      dup2\n        /* \"contracts/extern/Manageable.sol\":4590:4632  OwnershipTransferred(_oldOwner, _newOwner) */\n      0xffffffffffffffffffffffffffffffffffffffff\n      and\n        /* \"contracts/extern/Manageable.sol\":4611:4620  _oldOwner */\n      dup2\n        /* \"contracts/extern/Manageable.sol\":4590:4632  OwnershipTransferred(_oldOwner, _newOwner) */\n      0xffffffffffffffffffffffffffffffffffffffff\n      and\n      0x8be0079c531659141344cd1fd0a4f28419497f9722a3daafe3b4186f6b6457e0\n      mload(0x40)\n      mload(0x40)\n      dup1\n      swap2\n      sub\n      swap1\n      log3\n        /* \"contracts/extern/Manageable.sol\":4508:4640  {... */\n      pop\n        /* \"contracts/extern/Manageable.sol\":4462:4640  function _setOwner(address _newOwner) private {... */\n      pop\n      jump\t// out\n        /* \"#utility.yul\":88:205   */\n    tag_120:\n        /* \"#utility.yul\":197:198   */\n      0x00\n        /* \"#utility.yul\":194:195   */\n      dup1\n        /* \"#utility.yul\":187:199   */\n      revert\n        /* \"#utility.yul\":334:411   */\n    tag_122:\n        /* \"#utility.yul\":371:378   */\n      0x00\n        /* \"#utility.yul\":400:405   */\n      dup2\n        /* \"#utility.yul\":389:405   */\n      swap1\n      pop\n        /* \"#utility.yul\":334:411   */\n      swap2\n      swap1\n      pop\n      jump\t// out\n        /* \"#utility.yul\":417:539   */\n    tag_123:\n        /* \"#utility.yul\":490:514   */\n      tag_154\n        /* \"#utility.yul\":508:513   */\n      dup2\n        /* \"#utility.yul\":490:514   */\n      tag_122\n      jump\t// in\n    tag_154:\n        /* \"#utility.yul\":483:488   */\n      dup2\n        /* \"#utility.yul\":480:515   */\n      eq\n        /* \"#utility.yul\":470:533   */\n      tag_155\n      jumpi\n        /* \"#utility.yul\":529:530   */\n      0x00\n        /* \"#utility.yul\":526:527   */\n      dup1\n        /* \"#utility.yul\":519:531   */\n      revert\n        /* \"#utility.yul\":470:533   */\n    tag_155:\n        /* \"#utility.yul\":417:539   */\n      pop\n      jump\t// out\n        /* \"#utility.yul\":545:684   */\n    tag_124:\n        /* \"#utility.yul\":591:596   */\n      0x00\n        /* \"#utility.yul\":629:635   */\n      dup2\n        /* \"#utility.yul\":616:636   */\n      calldataload\n        /* \"#utility.yul\":607:636   */\n      swap1\n      pop\n        /* \"#utility.yul\":645:678   */\n      tag_157\n        /* \"#utility.yul\":672:677   */\n      dup2\n        /* \"#utility.yul\":645:678   */\n      tag_123\n      jump\t// in\n    tag_157:\n        /* \"#utility.yul\":545:684   */\n      swap3\n      swap2\n      pop\n      pop\n      jump\t// out\n        /* \"#utility.yul\":690:1019   */\n    tag_22:\n        /* \"#utility.yul\":749:755   */\n      0x00\n        /* \"#utility.yul\":798:800   */\n      0x20\n        /* \"#utility.yul\":786:795   */\n      dup3\n        /* \"#utility.yul\":777:784   */\n      dup5\n        /* \"#utility.yul\":773:796   */\n      sub\n        /* \"#utility.yul\":769:801   */\n      slt\n        /* \"#utility.yul\":766:885   */\n      iszero\n      tag_159\n      jumpi\n        /* \"#utility.yul\":804:883   */\n      tag_160\n      tag_120\n      jump\t// in\n    tag_160:\n        /* \"#utility.yul\":766:885   */\n    tag_159:\n        /* \"#utility.yul\":924:925   */\n      0x00\n        /* \"#utility.yul\":949:1002   */\n      tag_161\n        /* \"#utility.yul\":994:1001   */\n      dup5\n        /* \"#utility.yul\":985:991   */\n      dup3\n        /* \"#utility.yul\":974:983   */\n      dup6\n        /* \"#utility.yul\":970:992   */\n      add\n        /* \"#utility.yul\":949:1002   */\n      tag_124\n      jump\t// in\n    tag_161:\n        /* \"#utility.yul\":939:1002   */\n      swap2\n      pop\n        /* \"#utility.yul\":895:1012   */\n      pop\n        /* \"#utility.yul\":690:1019   */\n      swap3\n      swap2\n      pop\n      pop\n      jump\t// out\n        /* \"#utility.yul\":1025:1143   */\n    tag_125:\n        /* \"#utility.yul\":1112:1136   */\n      tag_163\n        /* \"#utility.yul\":1130:1135   */\n      dup2\n        /* \"#utility.yul\":1112:1136   */\n      tag_122\n      jump\t// in\n    tag_163:\n        /* \"#utility.yul\":1107:1110   */\n      dup3\n        /* \"#utility.yul\":1100:1137   */\n      mstore\n        /* \"#utility.yul\":1025:1143   */\n      pop\n      pop\n      jump\t// out\n        /* \"#utility.yul\":1149:1371   */\n    tag_27:\n        /* \"#utility.yul\":1242:1246   */\n      0x00\n        /* \"#utility.yul\":1280:1282   */\n      0x20\n        /* \"#utility.yul\":1269:1278   */\n      dup3\n        /* \"#utility.yul\":1265:1283   */\n      add\n        /* \"#utility.yul\":1257:1283   */\n      swap1\n      pop\n        /* \"#utility.yul\":1293:1364   */\n      tag_165\n        /* \"#utility.yul\":1361:1362   */\n      0x00\n        /* \"#utility.yul\":1350:1359   */\n      dup4\n        /* \"#utility.yul\":1346:1363   */\n      add\n        /* \"#utility.yul\":1337:1343   */\n      dup5\n        /* \"#utility.yul\":1293:1364   */\n      tag_125\n      jump\t// in\n    tag_165:\n        /* \"#utility.yul\":1149:1371   */\n      swap3\n      swap2\n      pop\n      pop\n      jump\t// out\n        /* \"#utility.yul\":1377:1503   */\n    tag_126:\n        /* \"#utility.yul\":1414:1421   */\n      0x00\n        /* \"#utility.yul\":1454:1496   */\n      0xffffffffffffffffffffffffffffffffffffffff\n        /* \"#utility.yul\":1447:1452   */\n      dup3\n        /* \"#utility.yul\":1443:1497   */\n      and\n        /* \"#utility.yul\":1432:1497   */\n      swap1\n      pop\n        /* \"#utility.yul\":1377:1503   */\n      swap2\n      swap1\n      pop\n      jump\t// out\n        /* \"#utility.yul\":1509:1605   */\n    tag_127:\n        /* \"#utility.yul\":1546:1553   */\n      0x00\n        /* \"#utility.yul\":1575:1599   */\n      tag_168\n        /* \"#utility.yul\":1593:1598   */\n      dup3\n        /* \"#utility.yul\":1575:1599   */\n      tag_126\n      jump\t// in\n    tag_168:\n        /* \"#utility.yul\":1564:1599   */\n      swap1\n      pop\n        /* \"#utility.yul\":1509:1605   */\n      swap2\n      swap1\n      pop\n      jump\t// out\n        /* \"#utility.yul\":1611:1729   */\n    tag_128:\n        /* \"#utility.yul\":1698:1722   */\n      tag_170\n        /* \"#utility.yul\":1716:1721   */\n      dup2\n        /* \"#utility.yul\":1698:1722   */\n      tag_127\n      jump\t// in\n    tag_170:\n        /* \"#utility.yul\":1693:1696   */\n      dup3\n        /* \"#utility.yul\":1686:1723   */\n      mstore\n        /* \"#utility.yul\":1611:1729   */\n      pop\n      pop\n      jump\t// out\n        /* \"#utility.yul\":1735:1957   */\n    tag_31:\n        /* \"#utility.yul\":1828:1832   */\n      0x00\n        /* \"#utility.yul\":1866:1868   */\n      0x20\n        /* \"#utility.yul\":1855:1864   */\n      dup3\n        /* \"#utility.yul\":1851:1869   */\n      add\n        /* \"#utility.yul\":1843:1869   */\n      swap1\n      pop\n        /* \"#utility.yul\":1879:1950   */\n      tag_172\n        /* \"#utility.yul\":1947:1948   */\n      0x00\n        /* \"#utility.yul\":1936:1945   */\n      dup4\n        /* \"#utility.yul\":1932:1949   */\n      add\n        /* \"#utility.yul\":1923:1929   */\n      dup5\n        /* \"#utility.yul\":1879:1950   */\n      tag_128\n      jump\t// in\n    tag_172:\n        /* \"#utility.yul\":1735:1957   */\n      swap3\n      swap2\n      pop\n      pop\n      jump\t// out\n        /* \"#utility.yul\":1963:2085   */\n    tag_129:\n        /* \"#utility.yul\":2036:2060   */\n      tag_174\n        /* \"#utility.yul\":2054:2059   */\n      dup2\n        /* \"#utility.yul\":2036:2060   */\n      tag_127\n      jump\t// in\n    tag_174:\n        /* \"#utility.yul\":2029:2034   */\n      dup2\n        /* \"#utility.yul\":2026:2061   */\n      eq\n        /* \"#utility.yul\":2016:2079   */\n      tag_175\n      jumpi\n        /* \"#utility.yul\":2075:2076   */\n      0x00\n        /* \"#utility.yul\":2072:2073   */\n      dup1\n        /* \"#utility.yul\":2065:2077   */\n      revert\n        /* \"#utility.yul\":2016:2079   */\n    tag_175:\n        /* \"#utility.yul\":1963:2085   */\n      pop\n      jump\t// out\n        /* \"#utility.yul\":2091:2230   */\n    tag_130:\n        /* \"#utility.yul\":2137:2142   */\n      0x00\n        /* \"#utility.yul\":2175:2181   */\n      dup2\n        /* \"#utility.yul\":2162:2182   */\n      calldataload\n        /* \"#utility.yul\":2153:2182   */\n      swap1\n      pop\n        /* \"#utility.yul\":2191:2224   */\n      tag_177\n        /* \"#utility.yul\":2218:2223   */\n      dup2\n        /* \"#utility.yul\":2191:2224   */\n      tag_129\n      jump\t// in\n    tag_177:\n        /* \"#utility.yul\":2091:2230   */\n      swap3\n      swap2\n      pop\n      pop\n      jump\t// out\n        /* \"#utility.yul\":2236:2710   */\n    tag_34:\n        /* \"#utility.yul\":2304:2310   */\n      0x00\n        /* \"#utility.yul\":2312:2318   */\n      dup1\n        /* \"#utility.yul\":2361:2363   */\n      0x40\n        /* \"#utility.yul\":2349:2358   */\n      dup4\n        /* \"#utility.yul\":2340:2347   */\n      dup6\n        /* \"#utility.yul\":2336:2359   */\n      sub\n        /* \"#utility.yul\":2332:2364   */\n      slt\n        /* \"#utility.yul\":2329:2448   */\n      iszero\n      tag_179\n      jumpi\n        /* \"#utility.yul\":2367:2446   */\n      tag_180\n      tag_120\n      jump\t// in\n    tag_180:\n        /* \"#utility.yul\":2329:2448   */\n    tag_179:\n        /* \"#utility.yul\":2487:2488   */\n      0x00\n        /* \"#utility.yul\":2512:2565   */\n      tag_181\n        /* \"#utility.yul\":2557:2564   */\n      dup6\n        /* \"#utility.yul\":2548:2554   */\n      dup3\n        /* \"#utility.yul\":2537:2546   */\n      dup7\n        /* \"#utility.yul\":2533:2555   */\n      add\n        /* \"#utility.yul\":2512:2565   */\n      tag_130\n      jump\t// in\n    tag_181:\n        /* \"#utility.yul\":2502:2565   */\n      swap3\n      pop\n        /* \"#utility.yul\":2458:2575   */\n      pop\n        /* \"#utility.yul\":2614:2616   */\n      0x20\n        /* \"#utility.yul\":2640:2693   */\n      tag_182\n        /* \"#utility.yul\":2685:2692   */\n      dup6\n        /* \"#utility.yul\":2676:2682   */\n      dup3\n        /* \"#utility.yul\":2665:2674   */\n      dup7\n        /* \"#utility.yul\":2661:2683   */\n      add\n        /* \"#utility.yul\":2640:2693   */\n      tag_124\n      jump\t// in\n    tag_182:\n        /* \"#utility.yul\":2630:2693   */\n      swap2\n      pop\n        /* \"#utility.yul\":2585:2703   */\n      pop\n        /* \"#utility.yul\":2236:2710   */\n      swap3\n      pop\n      swap3\n      swap1\n      pop\n      jump\t// out\n        /* \"#utility.yul\":2716:3190   */\n    tag_49:\n        /* \"#utility.yul\":2784:2790   */\n      0x00\n        /* \"#utility.yul\":2792:2798   */\n      dup1\n        /* \"#utility.yul\":2841:2843   */\n      0x40\n        /* \"#utility.yul\":2829:2838   */\n      dup4\n        /* \"#utility.yul\":2820:2827   */\n      dup6\n        /* \"#utility.yul\":2816:2839   */\n      sub\n        /* \"#utility.yul\":2812:2844   */\n      slt\n        /* \"#utility.yul\":2809:2928   */\n      iszero\n      tag_184\n      jumpi\n        /* \"#utility.yul\":2847:2926   */\n      tag_185\n      tag_120\n      jump\t// in\n    tag_185:\n        /* \"#utility.yul\":2809:2928   */\n    tag_184:\n        /* \"#utility.yul\":2967:2968   */\n      0x00\n        /* \"#utility.yul\":2992:3045   */\n      tag_186\n        /* \"#utility.yul\":3037:3044   */\n      dup6\n        /* \"#utility.yul\":3028:3034   */\n      dup3\n        /* \"#utility.yul\":3017:3026   */\n      dup7\n        /* \"#utility.yul\":3013:3035   */\n      add\n        /* \"#utility.yul\":2992:3045   */\n      tag_124\n      jump\t// in\n    tag_186:\n        /* \"#utility.yul\":2982:3045   */\n      swap3\n      pop\n        /* \"#utility.yul\":2938:3055   */\n      pop\n        /* \"#utility.yul\":3094:3096   */\n      0x20\n        /* \"#utility.yul\":3120:3173   */\n      tag_187\n        /* \"#utility.yul\":3165:3172   */\n      dup6\n        /* \"#utility.yul\":3156:3162   */\n      dup3\n        /* \"#utility.yul\":3145:3154   */\n      dup7\n        /* \"#utility.yul\":3141:3163   */\n      add\n        /* \"#utility.yul\":3120:3173   */\n      tag_130\n      jump\t// in\n    tag_187:\n        /* \"#utility.yul\":3110:3173   */\n      swap2\n      pop\n        /* \"#utility.yul\":3065:3183   */\n      pop\n        /* \"#utility.yul\":2716:3190   */\n      swap3\n      pop\n      swap3\n      swap1\n      pop\n      jump\t// out\n        /* \"#utility.yul\":3196:3525   */\n    tag_57:\n        /* \"#utility.yul\":3255:3261   */\n      0x00\n        /* \"#utility.yul\":3304:3306   */\n      0x20\n        /* \"#utility.yul\":3292:3301   */\n      dup3\n        /* \"#utility.yul\":3283:3290   */\n      dup5\n        /* \"#utility.yul\":3279:3302   */\n      sub\n        /* \"#utility.yul\":3275:3307   */\n      slt\n        /* \"#utility.yul\":3272:3391   */\n      iszero\n      tag_189\n      jumpi\n        /* \"#utility.yul\":3310:3389   */\n      tag_190\n      tag_120\n      jump\t// in\n    tag_190:\n        /* \"#utility.yul\":3272:3391   */\n    tag_189:\n        /* \"#utility.yul\":3430:3431   */\n      0x00\n        /* \"#utility.yul\":3455:3508   */\n      tag_191\n        /* \"#utility.yul\":3500:3507   */\n      dup5\n        /* \"#utility.yul\":3491:3497   */\n      dup3\n        /* \"#utility.yul\":3480:3489   */\n      dup6\n        /* \"#utility.yul\":3476:3498   */\n      add\n        /* \"#utility.yul\":3455:3508   */\n      tag_130\n      jump\t// in\n    tag_191:\n        /* \"#utility.yul\":3445:3508   */\n      swap2\n      pop\n        /* \"#utility.yul\":3401:3518   */\n      pop\n        /* \"#utility.yul\":3196:3525   */\n      swap3\n      swap2\n      pop\n      pop\n      jump\t// out\n        /* \"#utility.yul\":3531:3700   */\n    tag_131:\n        /* \"#utility.yul\":3615:3626   */\n      0x00\n        /* \"#utility.yul\":3649:3655   */\n      dup3\n        /* \"#utility.yul\":3644:3647   */\n      dup3\n        /* \"#utility.yul\":3637:3656   */\n      mstore\n        /* \"#utility.yul\":3689:3693   */\n      0x20\n        /* \"#utility.yul\":3684:3687   */\n      dup3\n        /* \"#utility.yul\":3680:3694   */\n      add\n        /* \"#utility.yul\":3665:3694   */\n      swap1\n      pop\n        /* \"#utility.yul\":3531:3700   */\n      swap3\n      swap2\n      pop\n      pop\n      jump\t// out\n        /* \"#utility.yul\":3706:3940   */\n    tag_132:\n        /* \"#utility.yul\":3846:3880   */\n      0x5374726174656779506f7765723a207573657220706f776572206d7573742062\n        /* \"#utility.yul\":3842:3843   */\n      0x00\n        /* \"#utility.yul\":3834:3840   */\n      dup3\n        /* \"#utility.yul\":3830:3844   */\n      add\n        /* \"#utility.yul\":3823:3881   */\n      mstore\n        /* \"#utility.yul\":3915:3932   */\n      0x6967676572207468616e207a65726f0000000000000000000000000000000000\n        /* \"#utility.yul\":3910:3912   */\n      0x20\n        /* \"#utility.yul\":3902:3908   */\n      dup3\n        /* \"#utility.yul\":3898:3913   */\n      add\n        /* \"#utility.yul\":3891:3933   */\n      mstore\n        /* \"#utility.yul\":3706:3940   */\n      pop\n      jump\t// out\n        /* \"#utility.yul\":3946:4312   */\n    tag_133:\n        /* \"#utility.yul\":4088:4091   */\n      0x00\n        /* \"#utility.yul\":4109:4176   */\n      tag_195\n        /* \"#utility.yul\":4173:4175   */\n      0x2f\n        /* \"#utility.yul\":4168:4171   */\n      dup4\n        /* \"#utility.yul\":4109:4176   */\n      tag_131\n      jump\t// in\n    tag_195:\n        /* \"#utility.yul\":4102:4176   */\n      swap2\n      pop\n        /* \"#utility.yul\":4185:4278   */\n      tag_196\n        /* \"#utility.yul\":4274:4277   */\n      dup3\n        /* \"#utility.yul\":4185:4278   */\n      tag_132\n      jump\t// in\n    tag_196:\n        /* \"#utility.yul\":4303:4305   */\n      0x40\n        /* \"#utility.yul\":4298:4301   */\n      dup3\n        /* \"#utility.yul\":4294:4306   */\n      add\n        /* \"#utility.yul\":4287:4306   */\n      swap1\n      pop\n        /* \"#utility.yul\":3946:4312   */\n      swap2\n      swap1\n      pop\n      jump\t// out\n        /* \"#utility.yul\":4318:4737   */\n    tag_72:\n        /* \"#utility.yul\":4484:4488   */\n      0x00\n        /* \"#utility.yul\":4522:4524   */\n      0x20\n        /* \"#utility.yul\":4511:4520   */\n      dup3\n        /* \"#utility.yul\":4507:4525   */\n      add\n        /* \"#utility.yul\":4499:4525   */\n      swap1\n      pop\n        /* \"#utility.yul\":4571:4580   */\n      dup2\n        /* \"#utility.yul\":4565:4569   */\n      dup2\n        /* \"#utility.yul\":4561:4581   */\n      sub\n        /* \"#utility.yul\":4557:4558   */\n      0x00\n        /* \"#utility.yul\":4546:4555   */\n      dup4\n        /* \"#utility.yul\":4542:4559   */\n      add\n        /* \"#utility.yul\":4535:4582   */\n      mstore\n        /* \"#utility.yul\":4599:4730   */\n      tag_198\n        /* \"#utility.yul\":4725:4729   */\n      dup2\n        /* \"#utility.yul\":4599:4730   */\n      tag_133\n      jump\t// in\n    tag_198:\n        /* \"#utility.yul\":4591:4730   */\n      swap1\n      pop\n        /* \"#utility.yul\":4318:4737   */\n      swap2\n      swap1\n      pop\n      jump\t// out\n        /* \"#utility.yul\":4743:4973   */\n    tag_134:\n        /* \"#utility.yul\":4883:4917   */\n      0x5374726174656779506f7765723a20766f74656420706f776572206d75737420\n        /* \"#utility.yul\":4879:4880   */\n      0x00\n        /* \"#utility.yul\":4871:4877   */\n      dup3\n        /* \"#utility.yul\":4867:4881   */\n      add\n        /* \"#utility.yul\":4860:4918   */\n      mstore\n        /* \"#utility.yul\":4952:4965   */\n      0x6265206e6f742075736564000000000000000000000000000000000000000000\n        /* \"#utility.yul\":4947:4949   */\n      0x20\n        /* \"#utility.yul\":4939:4945   */\n      dup3\n        /* \"#utility.yul\":4935:4950   */\n      add\n        /* \"#utility.yul\":4928:4966   */\n      mstore\n        /* \"#utility.yul\":4743:4973   */\n      pop\n      jump\t// out\n        /* \"#utility.yul\":4979:5345   */\n    tag_135:\n        /* \"#utility.yul\":5121:5124   */\n      0x00\n        /* \"#utility.yul\":5142:5209   */\n      tag_201\n        /* \"#utility.yul\":5206:5208   */\n      0x2b\n        /* \"#utility.yul\":5201:5204   */\n      dup4\n        /* \"#utility.yul\":5142:5209   */\n      tag_131\n      jump\t// in\n    tag_201:\n        /* \"#utility.yul\":5135:5209   */\n      swap2\n      pop\n        /* \"#utility.yul\":5218:5311   */\n      tag_202\n        /* \"#utility.yul\":5307:5310   */\n      dup3\n        /* \"#utility.yul\":5218:5311   */\n      tag_134\n      jump\t// in\n    tag_202:\n        /* \"#utility.yul\":5336:5338   */\n      0x40\n        /* \"#utility.yul\":5331:5334   */\n      dup3\n        /* \"#utility.yul\":5327:5339   */\n      add\n        /* \"#utility.yul\":5320:5339   */\n      swap1\n      pop\n        /* \"#utility.yul\":4979:5345   */\n      swap2\n      swap1\n      pop\n      jump\t// out\n        /* \"#utility.yul\":5351:5770   */\n    tag_75:\n        /* \"#utility.yul\":5517:5521   */\n      0x00\n        /* \"#utility.yul\":5555:5557   */\n      0x20\n        /* \"#utility.yul\":5544:5553   */\n      dup3\n        /* \"#utility.yul\":5540:5558   */\n      add\n        /* \"#utility.yul\":5532:5558   */\n      swap1\n      pop\n        /* \"#utility.yul\":5604:5613   */\n      dup2\n        /* \"#utility.yul\":5598:5602   */\n      dup2\n        /* \"#utility.yul\":5594:5614   */\n      sub\n        /* \"#utility.yul\":5590:5591   */\n      0x00\n        /* \"#utility.yul\":5579:5588   */\n      dup4\n        /* \"#utility.yul\":5575:5592   */\n      add\n        /* \"#utility.yul\":5568:5615   */\n      mstore\n        /* \"#utility.yul\":5632:5763   */\n      tag_204\n        /* \"#utility.yul\":5758:5762   */\n      dup2\n        /* \"#utility.yul\":5632:5763   */\n      tag_135\n      jump\t// in\n    tag_204:\n        /* \"#utility.yul\":5624:5763   */\n      swap1\n      pop\n        /* \"#utility.yul\":5351:5770   */\n      swap2\n      swap1\n      pop\n      jump\t// out\n        /* \"#utility.yul\":5776:5955   */\n    tag_136:\n        /* \"#utility.yul\":5916:5947   */\n      0x4d616e61676561626c652f63616c6c65722d6e6f742d6d616e61676572000000\n        /* \"#utility.yul\":5912:5913   */\n      0x00\n        /* \"#utility.yul\":5904:5910   */\n      dup3\n        /* \"#utility.yul\":5900:5914   */\n      add\n        /* \"#utility.yul\":5893:5948   */\n      mstore\n        /* \"#utility.yul\":5776:5955   */\n      pop\n      jump\t// out\n        /* \"#utility.yul\":5961:6327   */\n    tag_137:\n        /* \"#utility.yul\":6103:6106   */\n      0x00\n        /* \"#utility.yul\":6124:6191   */\n      tag_207\n        /* \"#utility.yul\":6188:6190   */\n      0x1d\n        /* \"#utility.yul\":6183:6186   */\n      dup4\n        /* \"#utility.yul\":6124:6191   */\n      tag_131\n      jump\t// in\n    tag_207:\n        /* \"#utility.yul\":6117:6191   */\n      swap2\n      pop\n        /* \"#utility.yul\":6200:6293   */\n      tag_208\n        /* \"#utility.yul\":6289:6292   */\n      dup3\n        /* \"#utility.yul\":6200:6293   */\n      tag_136\n      jump\t// in\n    tag_208:\n        /* \"#utility.yul\":6318:6320   */\n      0x20\n        /* \"#utility.yul\":6313:6316   */\n      dup3\n        /* \"#utility.yul\":6309:6321   */\n      add\n        /* \"#utility.yul\":6302:6321   */\n      swap1\n      pop\n        /* \"#utility.yul\":5961:6327   */\n      swap2\n      swap1\n      pop\n      jump\t// out\n        /* \"#utility.yul\":6333:6752   */\n    tag_81:\n        /* \"#utility.yul\":6499:6503   */\n      0x00\n        /* \"#utility.yul\":6537:6539   */\n      0x20\n        /* \"#utility.yul\":6526:6535   */\n      dup3\n        /* \"#utility.yul\":6522:6540   */\n      add\n        /* \"#utility.yul\":6514:6540   */\n      swap1\n      pop\n        /* \"#utility.yul\":6586:6595   */\n      dup2\n        /* \"#utility.yul\":6580:6584   */\n      dup2\n        /* \"#utility.yul\":6576:6596   */\n      sub\n        /* \"#utility.yul\":6572:6573   */\n      0x00\n        /* \"#utility.yul\":6561:6570   */\n      dup4\n        /* \"#utility.yul\":6557:6574   */\n      add\n        /* \"#utility.yul\":6550:6597   */\n      mstore\n        /* \"#utility.yul\":6614:6745   */\n      tag_210\n        /* \"#utility.yul\":6740:6744   */\n      dup2\n        /* \"#utility.yul\":6614:6745   */\n      tag_137\n      jump\t// in\n    tag_210:\n        /* \"#utility.yul\":6606:6745   */\n      swap1\n      pop\n        /* \"#utility.yul\":6333:6752   */\n      swap2\n      swap1\n      pop\n      jump\t// out\n        /* \"#utility.yul\":6758:6938   */\n    tag_138:\n        /* \"#utility.yul\":6806:6883   */\n      0x4e487b7100000000000000000000000000000000000000000000000000000000\n        /* \"#utility.yul\":6803:6804   */\n      0x00\n        /* \"#utility.yul\":6796:6884   */\n      mstore\n        /* \"#utility.yul\":6903:6907   */\n      0x11\n        /* \"#utility.yul\":6900:6901   */\n      0x04\n        /* \"#utility.yul\":6893:6908   */\n      mstore\n        /* \"#utility.yul\":6927:6931   */\n      0x24\n        /* \"#utility.yul\":6924:6925   */\n      0x00\n        /* \"#utility.yul\":6917:6932   */\n      revert\n        /* \"#utility.yul\":6944:7135   */\n    tag_84:\n        /* \"#utility.yul\":6984:6987   */\n      0x00\n        /* \"#utility.yul\":7003:7023   */\n      tag_213\n        /* \"#utility.yul\":7021:7022   */\n      dup3\n        /* \"#utility.yul\":7003:7023   */\n      tag_122\n      jump\t// in\n    tag_213:\n        /* \"#utility.yul\":6998:7023   */\n      swap2\n      pop\n        /* \"#utility.yul\":7037:7057   */\n      tag_214\n        /* \"#utility.yul\":7055:7056   */\n      dup4\n        /* \"#utility.yul\":7037:7057   */\n      tag_122\n      jump\t// in\n    tag_214:\n        /* \"#utility.yul\":7032:7057   */\n      swap3\n      pop\n        /* \"#utility.yul\":7080:7081   */\n      dup3\n        /* \"#utility.yul\":7077:7078   */\n      dup3\n        /* \"#utility.yul\":7073:7082   */\n      add\n        /* \"#utility.yul\":7066:7082   */\n      swap1\n      pop\n        /* \"#utility.yul\":7101:7104   */\n      dup1\n        /* \"#utility.yul\":7098:7099   */\n      dup3\n        /* \"#utility.yul\":7095:7105   */\n      gt\n        /* \"#utility.yul\":7092:7128   */\n      iszero\n      tag_215\n      jumpi\n        /* \"#utility.yul\":7108:7126   */\n      tag_216\n      tag_138\n      jump\t// in\n    tag_216:\n        /* \"#utility.yul\":7092:7128   */\n    tag_215:\n        /* \"#utility.yul\":6944:7135   */\n      swap3\n      swap2\n      pop\n      pop\n      jump\t// out\n        /* \"#utility.yul\":7141:7322   */\n    tag_139:\n        /* \"#utility.yul\":7281:7314   */\n      0x4f776e61626c652f63616c6c65722d6e6f742d70656e64696e674f776e657200\n        /* \"#utility.yul\":7277:7278   */\n      0x00\n        /* \"#utility.yul\":7269:7275   */\n      dup3\n        /* \"#utility.yul\":7265:7279   */\n      add\n        /* \"#utility.yul\":7258:7315   */\n      mstore\n        /* \"#utility.yul\":7141:7322   */\n      pop\n      jump\t// out\n        /* \"#utility.yul\":7328:7694   */\n    tag_140:\n        /* \"#utility.yul\":7470:7473   */\n      0x00\n        /* \"#utility.yul\":7491:7558   */\n      tag_219\n        /* \"#utility.yul\":7555:7557   */\n      0x1f\n        /* \"#utility.yul\":7550:7553   */\n      dup4\n        /* \"#utility.yul\":7491:7558   */\n      tag_131\n      jump\t// in\n    tag_219:\n        /* \"#utility.yul\":7484:7558   */\n      swap2\n      pop\n        /* \"#utility.yul\":7567:7660   */\n      tag_220\n        /* \"#utility.yul\":7656:7659   */\n      dup3\n        /* \"#utility.yul\":7567:7660   */\n      tag_139\n      jump\t// in\n    tag_220:\n        /* \"#utility.yul\":7685:7687   */\n      0x20\n        /* \"#utility.yul\":7680:7683   */\n      dup3\n        /* \"#utility.yul\":7676:7688   */\n      add\n        /* \"#utility.yul\":7669:7688   */\n      swap1\n      pop\n        /* \"#utility.yul\":7328:7694   */\n      swap2\n      swap1\n      pop\n      jump\t// out\n        /* \"#utility.yul\":7700:8119   */\n    tag_89:\n        /* \"#utility.yul\":7866:7870   */\n      0x00\n        /* \"#utility.yul\":7904:7906   */\n      0x20\n        /* \"#utility.yul\":7893:7902   */\n      dup3\n        /* \"#utility.yul\":7889:7907   */\n      add\n        /* \"#utility.yul\":7881:7907   */\n      swap1\n      pop\n        /* \"#utility.yul\":7953:7962   */\n      dup2\n        /* \"#utility.yul\":7947:7951   */\n      dup2\n        /* \"#utility.yul\":7943:7963   */\n      sub\n        /* \"#utility.yul\":7939:7940   */\n      0x00\n        /* \"#utility.yul\":7928:7937   */\n      dup4\n        /* \"#utility.yul\":7924:7941   */\n      add\n        /* \"#utility.yul\":7917:7964   */\n      mstore\n        /* \"#utility.yul\":7981:8112   */\n      tag_222\n        /* \"#utility.yul\":8107:8111   */\n      dup2\n        /* \"#utility.yul\":7981:8112   */\n      tag_140\n      jump\t// in\n    tag_222:\n        /* \"#utility.yul\":7973:8112   */\n      swap1\n      pop\n        /* \"#utility.yul\":7700:8119   */\n      swap2\n      swap1\n      pop\n      jump\t// out\n        /* \"#utility.yul\":8125:8535   */\n    tag_95:\n        /* \"#utility.yul\":8165:8172   */\n      0x00\n        /* \"#utility.yul\":8188:8208   */\n      tag_224\n        /* \"#utility.yul\":8206:8207   */\n      dup3\n        /* \"#utility.yul\":8188:8208   */\n      tag_122\n      jump\t// in\n    tag_224:\n        /* \"#utility.yul\":8183:8208   */\n      swap2\n      pop\n        /* \"#utility.yul\":8222:8242   */\n      tag_225\n        /* \"#utility.yul\":8240:8241   */\n      dup4\n        /* \"#utility.yul\":8222:8242   */\n      tag_122\n      jump\t// in\n    tag_225:\n        /* \"#utility.yul\":8217:8242   */\n      swap3\n      pop\n        /* \"#utility.yul\":8277:8278   */\n      dup3\n        /* \"#utility.yul\":8274:8275   */\n      dup3\n        /* \"#utility.yul\":8270:8279   */\n      mul\n        /* \"#utility.yul\":8299:8329   */\n      tag_226\n        /* \"#utility.yul\":8317:8328   */\n      dup2\n        /* \"#utility.yul\":8299:8329   */\n      tag_122\n      jump\t// in\n    tag_226:\n        /* \"#utility.yul\":8288:8329   */\n      swap2\n      pop\n        /* \"#utility.yul\":8478:8479   */\n      dup3\n        /* \"#utility.yul\":8469:8476   */\n      dup3\n        /* \"#utility.yul\":8465:8480   */\n      div\n        /* \"#utility.yul\":8462:8463   */\n      dup5\n        /* \"#utility.yul\":8459:8481   */\n      eq\n        /* \"#utility.yul\":8439:8440   */\n      dup4\n        /* \"#utility.yul\":8432:8441   */\n      iszero\n        /* \"#utility.yul\":8412:8495   */\n      or\n        /* \"#utility.yul\":8389:8528   */\n      tag_227\n      jumpi\n        /* \"#utility.yul\":8508:8526   */\n      tag_228\n      tag_138\n      jump\t// in\n    tag_228:\n        /* \"#utility.yul\":8389:8528   */\n    tag_227:\n        /* \"#utility.yul\":8173:8535   */\n      pop\n        /* \"#utility.yul\":8125:8535   */\n      swap3\n      swap2\n      pop\n      pop\n      jump\t// out\n        /* \"#utility.yul\":8541:8721   */\n    tag_141:\n        /* \"#utility.yul\":8589:8666   */\n      0x4e487b7100000000000000000000000000000000000000000000000000000000\n        /* \"#utility.yul\":8586:8587   */\n      0x00\n        /* \"#utility.yul\":8579:8667   */\n      mstore\n        /* \"#utility.yul\":8686:8690   */\n      0x12\n        /* \"#utility.yul\":8683:8684   */\n      0x04\n        /* \"#utility.yul\":8676:8691   */\n      mstore\n        /* \"#utility.yul\":8710:8714   */\n      0x24\n        /* \"#utility.yul\":8707:8708   */\n      0x00\n        /* \"#utility.yul\":8700:8715   */\n      revert\n        /* \"#utility.yul\":8727:8912   */\n    tag_97:\n        /* \"#utility.yul\":8767:8768   */\n      0x00\n        /* \"#utility.yul\":8784:8804   */\n      tag_231\n        /* \"#utility.yul\":8802:8803   */\n      dup3\n        /* \"#utility.yul\":8784:8804   */\n      tag_122\n      jump\t// in\n    tag_231:\n        /* \"#utility.yul\":8779:8804   */\n      swap2\n      pop\n        /* \"#utility.yul\":8818:8838   */\n      tag_232\n        /* \"#utility.yul\":8836:8837   */\n      dup4\n        /* \"#utility.yul\":8818:8838   */\n      tag_122\n      jump\t// in\n    tag_232:\n        /* \"#utility.yul\":8813:8838   */\n      swap3\n      pop\n        /* \"#utility.yul\":8857:8858   */\n      dup3\n        /* \"#utility.yul\":8847:8882   */\n      tag_233\n      jumpi\n        /* \"#utility.yul\":8862:8880   */\n      tag_234\n      tag_141\n      jump\t// in\n    tag_234:\n        /* \"#utility.yul\":8847:8882   */\n    tag_233:\n        /* \"#utility.yul\":8904:8905   */\n      dup3\n        /* \"#utility.yul\":8901:8902   */\n      dup3\n        /* \"#utility.yul\":8897:8906   */\n      div\n        /* \"#utility.yul\":8892:8906   */\n      swap1\n      pop\n        /* \"#utility.yul\":8727:8912   */\n      swap3\n      swap2\n      pop\n      pop\n      jump\t// out\n        /* \"#utility.yul\":8918:9161   */\n    tag_142:\n        /* \"#utility.yul\":9058:9092   */\n      0x5374726174656779506f7765723a2070726f7075736520706f77657220706f77\n        /* \"#utility.yul\":9054:9055   */\n      0x00\n        /* \"#utility.yul\":9046:9052   */\n      dup3\n        /* \"#utility.yul\":9042:9056   */\n      add\n        /* \"#utility.yul\":9035:9093   */\n      mstore\n        /* \"#utility.yul\":9127:9153   */\n      0x6572206d75737420626967676572207468616e20706173730000000000000000\n        /* \"#utility.yul\":9122:9124   */\n      0x20\n        /* \"#utility.yul\":9114:9120   */\n      dup3\n        /* \"#utility.yul\":9110:9125   */\n      add\n        /* \"#utility.yul\":9103:9154   */\n      mstore\n        /* \"#utility.yul\":8918:9161   */\n      pop\n      jump\t// out\n        /* \"#utility.yul\":9167:9533   */\n    tag_143:\n        /* \"#utility.yul\":9309:9312   */\n      0x00\n        /* \"#utility.yul\":9330:9397   */\n      tag_237\n        /* \"#utility.yul\":9394:9396   */\n      0x38\n        /* \"#utility.yul\":9389:9392   */\n      dup4\n        /* \"#utility.yul\":9330:9397   */\n      tag_131\n      jump\t// in\n    tag_237:\n        /* \"#utility.yul\":9323:9397   */\n      swap2\n      pop\n        /* \"#utility.yul\":9406:9499   */\n      tag_238\n        /* \"#utility.yul\":9495:9498   */\n      dup3\n        /* \"#utility.yul\":9406:9499   */\n      tag_142\n      jump\t// in\n    tag_238:\n        /* \"#utility.yul\":9524:9526   */\n      0x40\n        /* \"#utility.yul\":9519:9522   */\n      dup3\n        /* \"#utility.yul\":9515:9527   */\n      add\n        /* \"#utility.yul\":9508:9527   */\n      swap1\n      pop\n        /* \"#utility.yul\":9167:9533   */\n      swap2\n      swap1\n      pop\n      jump\t// out\n        /* \"#utility.yul\":9539:9958   */\n    tag_100:\n        /* \"#utility.yul\":9705:9709   */\n      0x00\n        /* \"#utility.yul\":9743:9745   */\n      0x20\n        /* \"#utility.yul\":9732:9741   */\n      dup3\n        /* \"#utility.yul\":9728:9746   */\n      add\n        /* \"#utility.yul\":9720:9746   */\n      swap1\n      pop\n        /* \"#utility.yul\":9792:9801   */\n      dup2\n        /* \"#utility.yul\":9786:9790   */\n      dup2\n        /* \"#utility.yul\":9782:9802   */\n      sub\n        /* \"#utility.yul\":9778:9779   */\n      0x00\n        /* \"#utility.yul\":9767:9776   */\n      dup4\n        /* \"#utility.yul\":9763:9780   */\n      add\n        /* \"#utility.yul\":9756:9803   */\n      mstore\n        /* \"#utility.yul\":9820:9951   */\n      tag_240\n        /* \"#utility.yul\":9946:9950   */\n      dup2\n        /* \"#utility.yul\":9820:9951   */\n      tag_143\n      jump\t// in\n    tag_240:\n        /* \"#utility.yul\":9812:9951   */\n      swap1\n      pop\n        /* \"#utility.yul\":9539:9958   */\n      swap2\n      swap1\n      pop\n      jump\t// out\n        /* \"#utility.yul\":9964:10138   */\n    tag_144:\n        /* \"#utility.yul\":10104:10130   */\n      0x4f776e61626c652f63616c6c65722d6e6f742d6f776e65720000000000000000\n        /* \"#utility.yul\":10100:10101   */\n      0x00\n        /* \"#utility.yul\":10092:10098   */\n      dup3\n        /* \"#utility.yul\":10088:10102   */\n      add\n        /* \"#utility.yul\":10081:10131   */\n      mstore\n        /* \"#utility.yul\":9964:10138   */\n      pop\n      jump\t// out\n        /* \"#utility.yul\":10144:10510   */\n    tag_145:\n        /* \"#utility.yul\":10286:10289   */\n      0x00\n        /* \"#utility.yul\":10307:10374   */\n      tag_243\n        /* \"#utility.yul\":10371:10373   */\n      0x18\n        /* \"#utility.yul\":10366:10369   */\n      dup4\n        /* \"#utility.yul\":10307:10374   */\n      tag_131\n      jump\t// in\n    tag_243:\n        /* \"#utility.yul\":10300:10374   */\n      swap2\n      pop\n        /* \"#utility.yul\":10383:10476   */\n      tag_244\n        /* \"#utility.yul\":10472:10475   */\n      dup3\n        /* \"#utility.yul\":10383:10476   */\n      tag_144\n      jump\t// in\n    tag_244:\n        /* \"#utility.yul\":10501:10503   */\n      0x20\n        /* \"#utility.yul\":10496:10499   */\n      dup3\n        /* \"#utility.yul\":10492:10504   */\n      add\n        /* \"#utility.yul\":10485:10504   */\n      swap1\n      pop\n        /* \"#utility.yul\":10144:10510   */\n      swap2\n      swap1\n      pop\n      jump\t// out\n        /* \"#utility.yul\":10516:10935   */\n    tag_105:\n        /* \"#utility.yul\":10682:10686   */\n      0x00\n        /* \"#utility.yul\":10720:10722   */\n      0x20\n        /* \"#utility.yul\":10709:10718   */\n      dup3\n        /* \"#utility.yul\":10705:10723   */\n      add\n        /* \"#utility.yul\":10697:10723   */\n      swap1\n      pop\n        /* \"#utility.yul\":10769:10778   */\n      dup2\n        /* \"#utility.yul\":10763:10767   */\n      dup2\n        /* \"#utility.yul\":10759:10779   */\n      sub\n        /* \"#utility.yul\":10755:10756   */\n      0x00\n        /* \"#utility.yul\":10744:10753   */\n      dup4\n        /* \"#utility.yul\":10740:10757   */\n      add\n        /* \"#utility.yul\":10733:10780   */\n      mstore\n        /* \"#utility.yul\":10797:10928   */\n      tag_246\n        /* \"#utility.yul\":10923:10927   */\n      dup2\n        /* \"#utility.yul\":10797:10928   */\n      tag_145\n      jump\t// in\n    tag_246:\n        /* \"#utility.yul\":10789:10928   */\n      swap1\n      pop\n        /* \"#utility.yul\":10516:10935   */\n      swap2\n      swap1\n      pop\n      jump\t// out\n        /* \"#utility.yul\":10941:11165   */\n    tag_146:\n        /* \"#utility.yul\":11081:11115   */\n      0x4f776e61626c652f70656e64696e674f776e65722d6e6f742d7a65726f2d6164\n        /* \"#utility.yul\":11077:11078   */\n      0x00\n        /* \"#utility.yul\":11069:11075   */\n      dup3\n        /* \"#utility.yul\":11065:11079   */\n      add\n        /* \"#utility.yul\":11058:11116   */\n      mstore\n        /* \"#utility.yul\":11150:11157   */\n      0x6472657373000000000000000000000000000000000000000000000000000000\n        /* \"#utility.yul\":11145:11147   */\n      0x20\n        /* \"#utility.yul\":11137:11143   */\n      dup3\n        /* \"#utility.yul\":11133:11148   */\n      add\n        /* \"#utility.yul\":11126:11158   */\n      mstore\n        /* \"#utility.yul\":10941:11165   */\n      pop\n      jump\t// out\n        /* \"#utility.yul\":11171:11537   */\n    tag_147:\n        /* \"#utility.yul\":11313:11316   */\n      0x00\n        /* \"#utility.yul\":11334:11401   */\n      tag_249\n        /* \"#utility.yul\":11398:11400   */\n      0x25\n        /* \"#utility.yul\":11393:11396   */\n      dup4\n        /* \"#utility.yul\":11334:11401   */\n      tag_131\n      jump\t// in\n    tag_249:\n        /* \"#utility.yul\":11327:11401   */\n      swap2\n      pop\n        /* \"#utility.yul\":11410:11503   */\n      tag_250\n        /* \"#utility.yul\":11499:11502   */\n      dup3\n        /* \"#utility.yul\":11410:11503   */\n      tag_146\n      jump\t// in\n    tag_250:\n        /* \"#utility.yul\":11528:11530   */\n      0x40\n        /* \"#utility.yul\":11523:11526   */\n      dup3\n        /* \"#utility.yul\":11519:11531   */\n      add\n        /* \"#utility.yul\":11512:11531   */\n      swap1\n      pop\n        /* \"#utility.yul\":11171:11537   */\n      swap2\n      swap1\n      pop\n      jump\t// out\n        /* \"#utility.yul\":11543:11962   */\n    tag_117:\n        /* \"#utility.yul\":11709:11713   */\n      0x00\n        /* \"#utility.yul\":11747:11749   */\n      0x20\n        /* \"#utility.yul\":11736:11745   */\n      dup3\n        /* \"#utility.yul\":11732:11750   */\n      add\n        /* \"#utility.yul\":11724:11750   */\n      swap1\n      pop\n        /* \"#utility.yul\":11796:11805   */\n      dup2\n        /* \"#utility.yul\":11790:11794   */\n      dup2\n        /* \"#utility.yul\":11786:11806   */\n      sub\n        /* \"#utility.yul\":11782:11783   */\n      0x00\n        /* \"#utility.yul\":11771:11780   */\n      dup4\n        /* \"#utility.yul\":11767:11784   */\n      add\n        /* \"#utility.yul\":11760:11807   */\n      mstore\n        /* \"#utility.yul\":11824:11955   */\n      tag_252\n        /* \"#utility.yul\":11950:11954   */\n      dup2\n        /* \"#utility.yul\":11824:11955   */\n      tag_147\n      jump\t// in\n    tag_252:\n        /* \"#utility.yul\":11816:11955   */\n      swap1\n      pop\n        /* \"#utility.yul\":11543:11962   */\n      swap2\n      swap1\n      pop\n      jump\t// out\n\n    auxdata: 0xa2646970667358221220f4fa6d684cbc59998e2ba079f209dd600abf64aedde8c8b2b1b6a282a7987a0464736f6c63430008120033\n}\n",
				"bytecode": {
					"linkReferences": {},
					"object": "60806040526113886006553480156200001757600080fd5b506040516200135a3803806200135a83398181016040528101906200003d9190620001c9565b808262000050816200009b60201b60201c565b5080600260006101000a81548173ffffffffffffffffffffffffffffffffffffffff021916908373ffffffffffffffffffffffffffffffffffffffff16021790555050505062000210565b60008060009054906101000a900473ffffffffffffffffffffffffffffffffffffffff169050816000806101000a81548173ffffffffffffffffffffffffffffffffffffffff021916908373ffffffffffffffffffffffffffffffffffffffff1602179055508173ffffffffffffffffffffffffffffffffffffffff168173ffffffffffffffffffffffffffffffffffffffff167f8be0079c531659141344cd1fd0a4f28419497f9722a3daafe3b4186f6b6457e060405160405180910390a35050565b600080fd5b600073ffffffffffffffffffffffffffffffffffffffff82169050919050565b6000620001918262000164565b9050919050565b620001a38162000184565b8114620001af57600080fd5b50565b600081519050620001c38162000198565b92915050565b60008060408385031215620001e357620001e26200015f565b5b6000620001f385828601620001b2565b92505060206200020685828601620001b2565b9150509250929050565b61113a80620002206000396000f3fe608060405234801561001057600080fd5b50600436106100ea5760003560e01c8063715018a61161008c578063a3a31a9611610066578063a3a31a9614610211578063a7a1ed7214610241578063e30c39781461025f578063f2fde38b1461027d576100ea565b8063715018a6146101b957806387388958146101c35780638da5cb5b146101f3576100ea565b80634e52d81d116100c85780634e52d81d146101475780634e71e0c8146101635780634f896d4f1461016d57806351dd3b6614610189576100ea565b80630121b93f146100ef57806309d3bce51461010b578063481c6a7514610129575b600080fd5b61010960048036038101906101049190610ad6565b610299565b005b6101136104a8565b6040516101209190610b12565b60405180910390f35b6101316104ae565b60405161013e9190610b6e565b60405180910390f35b610161600480360381019061015c9190610bb5565b6104d8565b005b61016b6105c0565b005b61018760048036038101906101829190610ad6565b6106bf565b005b6101a3600480360381019061019e9190610ad6565b61073d565b6040516101b09190610b12565b60405180910390f35b6101c1610755565b005b6101dd60048036038101906101d89190610bf5565b6107d6565b6040516101ea9190610b12565b60405180910390f35b6101fb6107fb565b6040516102089190610b6e565b60405180910390f35b61022b60048036038101906102269190610c35565b610824565b6040516102389190610b12565b60405180910390f35b61024961083c565b6040516102569190610b12565b60405180910390f35b610267610842565b6040516102749190610b6e565b60405180910390f35b61029760048036038101906102929190610c35565b61086c565b005b6000600360003373ffffffffffffffffffffffffffffffffffffffff1673ffffffffffffffffffffffffffffffffffffffff16815260200190815260200160002054905060008111610320576040517f08c379a000000000000000000000000000000000000000000000000000000000815260040161031790610ce5565b60405180910390fd5b60006005600084815260200190815260200160002060003373ffffffffffffffffffffffffffffffffffffffff1673ffffffffffffffffffffffffffffffffffffffff168152602001908152602001600020549050600081146103b8576040517f08c379a00000000000000000000000000000000000000000000000000000000081526004016103af90610d77565b60405180910390fd5b600360003373ffffffffffffffffffffffffffffffffffffffff1673ffffffffffffffffffffffffffffffffffffffff168152602001908152602001600020546005600085815260200190815260200160002060003373ffffffffffffffffffffffffffffffffffffffff1673ffffffffffffffffffffffffffffffffffffffff16815260200190815260200160002081905550600360003373ffffffffffffffffffffffffffffffffffffffff1673ffffffffffffffffffffffffffffffffffffffff168152602001908152602001600020546004600085815260200190815260200160002081905550505050565b60075481565b6000600260009054906101000a900473ffffffffffffffffffffffffffffffffffffffff16905090565b3373ffffffffffffffffffffffffffffffffffffffff166104f76104ae565b73ffffffffffffffffffffffffffffffffffffffff161461054d576040517f08c379a000000000000000000000000000000000000000000000000000000000815260040161054490610de3565b60405180910390fd5b80600360008473ffffffffffffffffffffffffffffffffffffffff1673ffffffffffffffffffffffffffffffffffffffff168152602001908152602001600020600082825461059c9190610e32565b9250508190555080600760008282546105b59190610e32565b925050819055505050565b600160009054906101000a900473ffffffffffffffffffffffffffffffffffffffff1673ffffffffffffffffffffffffffffffffffffffff163373ffffffffffffffffffffffffffffffffffffffff1614610650576040517f08c379a000000000000000000000000000000000000000000000000000000000815260040161064790610eb2565b60405180910390fd5b61067b600160009054906101000a900473ffffffffffffffffffffffffffffffffffffffff166109d7565b6000600160006101000a81548173ffffffffffffffffffffffffffffffffffffffff021916908373ffffffffffffffffffffffffffffffffffffffff160217905550565b6000600460008381526020019081526020016000205490506000816127106007546106ea9190610ed2565b6106f49190610f43565b9050808211610738576040517f08c379a000000000000000000000000000000000000000000000000000000000815260040161072f90610fe6565b60405180910390fd5b505050565b60046020528060005260406000206000915090505481565b3373ffffffffffffffffffffffffffffffffffffffff166107746107fb565b73ffffffffffffffffffffffffffffffffffffffff16146107ca576040517f08c379a00000000000000000000000000000000000000000000000000000000081526004016107c190611052565b60405180910390fd5b6107d460006109d7565b565b6005602052816000526040600020602052806000526040600020600091509150505481565b60008060009054906101000a900473ffffffffffffffffffffffffffffffffffffffff16905090565b60036020528060005260406000206000915090505481565b60065481565b6000600160009054906101000a900473ffffffffffffffffffffffffffffffffffffffff16905090565b3373ffffffffffffffffffffffffffffffffffffffff1661088b6107fb565b73ffffffffffffffffffffffffffffffffffffffff16146108e1576040517f08c379a00000000000000000000000000000000000000000000000000000000081526004016108d890611052565b60405180910390fd5b600073ffffffffffffffffffffffffffffffffffffffff168173ffffffffffffffffffffffffffffffffffffffff1603610950576040517f08c379a0000000000000000000000000000000000000000000000000000000008152600401610947906110e4565b60405180910390fd5b80600160006101000a81548173ffffffffffffffffffffffffffffffffffffffff021916908373ffffffffffffffffffffffffffffffffffffffff1602179055508073ffffffffffffffffffffffffffffffffffffffff167f239a2ddded15777fa246aed5f7e1a9bc69a39d4eb4a397034d1d85766cca7d4c60405160405180910390a250565b60008060009054906101000a900473ffffffffffffffffffffffffffffffffffffffff169050816000806101000a81548173ffffffffffffffffffffffffffffffffffffffff021916908373ffffffffffffffffffffffffffffffffffffffff1602179055508173ffffffffffffffffffffffffffffffffffffffff168173ffffffffffffffffffffffffffffffffffffffff167f8be0079c531659141344cd1fd0a4f28419497f9722a3daafe3b4186f6b6457e060405160405180910390a35050565b600080fd5b6000819050919050565b610ab381610aa0565b8114610abe57600080fd5b50565b600081359050610ad081610aaa565b92915050565b600060208284031215610aec57610aeb610a9b565b5b6000610afa84828501610ac1565b91505092915050565b610b0c81610aa0565b82525050565b6000602082019050610b276000830184610b03565b92915050565b600073ffffffffffffffffffffffffffffffffffffffff82169050919050565b6000610b5882610b2d565b9050919050565b610b6881610b4d565b82525050565b6000602082019050610b836000830184610b5f565b92915050565b610b9281610b4d565b8114610b9d57600080fd5b50565b600081359050610baf81610b89565b92915050565b60008060408385031215610bcc57610bcb610a9b565b5b6000610bda85828601610ba0565b9250506020610beb85828601610ac1565b9150509250929050565b60008060408385031215610c0c57610c0b610a9b565b5b6000610c1a85828601610ac1565b9250506020610c2b85828601610ba0565b9150509250929050565b600060208284031215610c4b57610c4a610a9b565b5b6000610c5984828501610ba0565b91505092915050565b600082825260208201905092915050565b7f5374726174656779506f7765723a207573657220706f776572206d757374206260008201527f6967676572207468616e207a65726f0000000000000000000000000000000000602082015250565b6000610ccf602f83610c62565b9150610cda82610c73565b604082019050919050565b60006020820190508181036000830152610cfe81610cc2565b9050919050565b7f5374726174656779506f7765723a20766f74656420706f776572206d7573742060008201527f6265206e6f742075736564000000000000000000000000000000000000000000602082015250565b6000610d61602b83610c62565b9150610d6c82610d05565b604082019050919050565b60006020820190508181036000830152610d9081610d54565b9050919050565b7f4d616e61676561626c652f63616c6c65722d6e6f742d6d616e61676572000000600082015250565b6000610dcd601d83610c62565b9150610dd882610d97565b602082019050919050565b60006020820190508181036000830152610dfc81610dc0565b9050919050565b7f4e487b7100000000000000000000000000000000000000000000000000000000600052601160045260246000fd5b6000610e3d82610aa0565b9150610e4883610aa0565b9250828201905080821115610e6057610e5f610e03565b5b92915050565b7f4f776e61626c652f63616c6c65722d6e6f742d70656e64696e674f776e657200600082015250565b6000610e9c601f83610c62565b9150610ea782610e66565b602082019050919050565b60006020820190508181036000830152610ecb81610e8f565b9050919050565b6000610edd82610aa0565b9150610ee883610aa0565b9250828202610ef681610aa0565b91508282048414831517610f0d57610f0c610e03565b5b5092915050565b7f4e487b7100000000000000000000000000000000000000000000000000000000600052601260045260246000fd5b6000610f4e82610aa0565b9150610f5983610aa0565b925082610f6957610f68610f14565b5b828204905092915050565b7f5374726174656779506f7765723a2070726f7075736520706f77657220706f7760008201527f6572206d75737420626967676572207468616e20706173730000000000000000602082015250565b6000610fd0603883610c62565b9150610fdb82610f74565b604082019050919050565b60006020820190508181036000830152610fff81610fc3565b9050919050565b7f4f776e61626c652f63616c6c65722d6e6f742d6f776e65720000000000000000600082015250565b600061103c601883610c62565b915061104782611006565b602082019050919050565b6000602082019050818103600083015261106b8161102f565b9050919050565b7f4f776e61626c652f70656e64696e674f776e65722d6e6f742d7a65726f2d616460008201527f6472657373000000000000000000000000000000000000000000000000000000602082015250565b60006110ce602583610c62565b91506110d982611072565b604082019050919050565b600060208201905081810360008301526110fd816110c1565b905091905056fea2646970667358221220f4fa6d684cbc59998e2ba079f209dd600abf64aedde8c8b2b1b6a282a7987a0464736f6c63430008120033",
					"opcodes": "PUSH1 0x80 PUSH1 0x40 MSTORE PUSH2 0x1388 PUSH1 0x6 SSTORE CALLVALUE DUP1 ISZERO PUSH3 0x17 JUMPI PUSH1 0x0 DUP1 REVERT JUMPDEST POP PUSH1 0x40 MLOAD PUSH3 0x135A CODESIZE SUB DUP1 PUSH3 0x135A DUP4 CODECOPY DUP2 DUP2 ADD PUSH1 0x40 MSTORE DUP2 ADD SWAP1 PUSH3 0x3D SWAP2 SWAP1 PUSH3 0x1C9 JUMP JUMPDEST DUP1 DUP3 PUSH3 0x50 DUP2 PUSH3 0x9B PUSH1 0x20 SHL PUSH1 0x20 SHR JUMP JUMPDEST POP DUP1 PUSH1 0x2 PUSH1 0x0 PUSH2 0x100 EXP DUP2 SLOAD DUP2 PUSH20 0xFFFFFFFFFFFFFFFFFFFFFFFFFFFFFFFFFFFFFFFF MUL NOT AND SWAP1 DUP4 PUSH20 0xFFFFFFFFFFFFFFFFFFFFFFFFFFFFFFFFFFFFFFFF AND MUL OR SWAP1 SSTORE POP POP POP POP PUSH3 0x210 JUMP JUMPDEST PUSH1 0x0 DUP1 PUSH1 0x0 SWAP1 SLOAD SWAP1 PUSH2 0x100 EXP SWAP1 DIV PUSH20 0xFFFFFFFFFFFFFFFFFFFFFFFFFFFFFFFFFFFFFFFF AND SWAP1 POP DUP2 PUSH1 0x0 DUP1 PUSH2 0x100 EXP DUP2 SLOAD DUP2 PUSH20 0xFFFFFFFFFFFFFFFFFFFFFFFFFFFFFFFFFFFFFFFF MUL NOT AND SWAP1 DUP4 PUSH20 0xFFFFFFFFFFFFFFFFFFFFFFFFFFFFFFFFFFFFFFFF AND MUL OR SWAP1 SSTORE POP DUP2 PUSH20 0xFFFFFFFFFFFFFFFFFFFFFFFFFFFFFFFFFFFFFFFF AND DUP2 PUSH20 0xFFFFFFFFFFFFFFFFFFFFFFFFFFFFFFFFFFFFFFFF AND PUSH32 0x8BE0079C531659141344CD1FD0A4F28419497F9722A3DAAFE3B4186F6B6457E0 PUSH1 0x40 MLOAD PUSH1 0x40 MLOAD DUP1 SWAP2 SUB SWAP1 LOG3 POP POP JUMP JUMPDEST PUSH1 0x0 DUP1 REVERT JUMPDEST PUSH1 0x0 PUSH20 0xFFFFFFFFFFFFFFFFFFFFFFFFFFFFFFFFFFFFFFFF DUP3 AND SWAP1 POP SWAP2 SWAP1 POP JUMP JUMPDEST PUSH1 0x0 PUSH3 0x191 DUP3 PUSH3 0x164 JUMP JUMPDEST SWAP1 POP SWAP2 SWAP1 POP JUMP JUMPDEST PUSH3 0x1A3 DUP2 PUSH3 0x184 JUMP JUMPDEST DUP2 EQ PUSH3 0x1AF JUMPI PUSH1 0x0 DUP1 REVERT JUMPDEST POP JUMP JUMPDEST PUSH1 0x0 DUP2 MLOAD SWAP1 POP PUSH3 0x1C3 DUP2 PUSH3 0x198 JUMP JUMPDEST SWAP3 SWAP2 POP POP JUMP JUMPDEST PUSH1 0x0 DUP1 PUSH1 0x40 DUP4 DUP6 SUB SLT ISZERO PUSH3 0x1E3 JUMPI PUSH3 0x1E2 PUSH3 0x15F JUMP JUMPDEST JUMPDEST PUSH1 0x0 PUSH3 0x1F3 DUP6 DUP3 DUP7 ADD PUSH3 0x1B2 JUMP JUMPDEST SWAP3 POP POP PUSH1 0x20 PUSH3 0x206 DUP6 DUP3 DUP7 ADD PUSH3 0x1B2 JUMP JUMPDEST SWAP2 POP POP SWAP3 POP SWAP3 SWAP1 POP JUMP JUMPDEST PUSH2 0x113A DUP1 PUSH3 0x220 PUSH1 0x0 CODECOPY PUSH1 0x0 RETURN INVALID PUSH1 0x80 PUSH1 0x40 MSTORE CALLVALUE DUP1 ISZERO PUSH2 0x10 JUMPI PUSH1 0x0 DUP1 REVERT JUMPDEST POP PUSH1 0x4 CALLDATASIZE LT PUSH2 0xEA JUMPI PUSH1 0x0 CALLDATALOAD PUSH1 0xE0 SHR DUP1 PUSH4 0x715018A6 GT PUSH2 0x8C JUMPI DUP1 PUSH4 0xA3A31A96 GT PUSH2 0x66 JUMPI DUP1 PUSH4 0xA3A31A96 EQ PUSH2 0x211 JUMPI DUP1 PUSH4 0xA7A1ED72 EQ PUSH2 0x241 JUMPI DUP1 PUSH4 0xE30C3978 EQ PUSH2 0x25F JUMPI DUP1 PUSH4 0xF2FDE38B EQ PUSH2 0x27D JUMPI PUSH2 0xEA JUMP JUMPDEST DUP1 PUSH4 0x715018A6 EQ PUSH2 0x1B9 JUMPI DUP1 PUSH4 0x87388958 EQ PUSH2 0x1C3 JUMPI DUP1 PUSH4 0x8DA5CB5B EQ PUSH2 0x1F3 JUMPI PUSH2 0xEA JUMP JUMPDEST DUP1 PUSH4 0x4E52D81D GT PUSH2 0xC8 JUMPI DUP1 PUSH4 0x4E52D81D EQ PUSH2 0x147 JUMPI DUP1 PUSH4 0x4E71E0C8 EQ PUSH2 0x163 JUMPI DUP1 PUSH4 0x4F896D4F EQ PUSH2 0x16D JUMPI DUP1 PUSH4 0x51DD3B66 EQ PUSH2 0x189 JUMPI PUSH2 0xEA JUMP JUMPDEST DUP1 PUSH4 0x121B93F EQ PUSH2 0xEF JUMPI DUP1 PUSH4 0x9D3BCE5 EQ PUSH2 0x10B JUMPI DUP1 PUSH4 0x481C6A75 EQ PUSH2 0x129 JUMPI JUMPDEST PUSH1 0x0 DUP1 REVERT JUMPDEST PUSH2 0x109 PUSH1 0x4 DUP1 CALLDATASIZE SUB DUP2 ADD SWAP1 PUSH2 0x104 SWAP2 SWAP1 PUSH2 0xAD6 JUMP JUMPDEST PUSH2 0x299 JUMP JUMPDEST STOP JUMPDEST PUSH2 0x113 PUSH2 0x4A8 JUMP JUMPDEST PUSH1 0x40 MLOAD PUSH2 0x120 SWAP2 SWAP1 PUSH2 0xB12 JUMP JUMPDEST PUSH1 0x40 MLOAD DUP1 SWAP2 SUB SWAP1 RETURN JUMPDEST PUSH2 0x131 PUSH2 0x4AE JUMP JUMPDEST PUSH1 0x40 MLOAD PUSH2 0x13E SWAP2 SWAP1 PUSH2 0xB6E JUMP JUMPDEST PUSH1 0x40 MLOAD DUP1 SWAP2 SUB SWAP1 RETURN JUMPDEST PUSH2 0x161 PUSH1 0x4 DUP1 CALLDATASIZE SUB DUP2 ADD SWAP1 PUSH2 0x15C SWAP2 SWAP1 PUSH2 0xBB5 JUMP JUMPDEST PUSH2 0x4D8 JUMP JUMPDEST STOP JUMPDEST PUSH2 0x16B PUSH2 0x5C0 JUMP JUMPDEST STOP JUMPDEST PUSH2 0x187 PUSH1 0x4 DUP1 CALLDATASIZE SUB DUP2 ADD SWAP1 PUSH2 0x182 SWAP2 SWAP1 PUSH2 0xAD6 JUMP JUMPDEST PUSH2 0x6BF JUMP JUMPDEST STOP JUMPDEST PUSH2 0x1A3 PUSH1 0x4 DUP1 CALLDATASIZE SUB DUP2 ADD SWAP1 PUSH2 0x19E SWAP2 SWAP1 PUSH2 0xAD6 JUMP JUMPDEST PUSH2 0x73D JUMP JUMPDEST PUSH1 0x40 MLOAD PUSH2 0x1B0 SWAP2 SWAP1 PUSH2 0xB12 JUMP JUMPDEST PUSH1 0x40 MLOAD DUP1 SWAP2 SUB SWAP1 RETURN JUMPDEST PUSH2 0x1C1 PUSH2 0x755 JUMP JUMPDEST STOP JUMPDEST PUSH2 0x1DD PUSH1 0x4 DUP1 CALLDATASIZE SUB DUP2 ADD SWAP1 PUSH2 0x1D8 SWAP2 SWAP1 PUSH2 0xBF5 JUMP JUMPDEST PUSH2 0x7D6 JUMP JUMPDEST PUSH1 0x40 MLOAD PUSH2 0x1EA SWAP2 SWAP1 PUSH2 0xB12 JUMP JUMPDEST PUSH1 0x40 MLOAD DUP1 SWAP2 SUB SWAP1 RETURN JUMPDEST PUSH2 0x1FB PUSH2 0x7FB JUMP JUMPDEST PUSH1 0x40 MLOAD PUSH2 0x208 SWAP2 SWAP1 PUSH2 0xB6E JUMP JUMPDEST PUSH1 0x40 MLOAD DUP1 SWAP2 SUB SWAP1 RETURN JUMPDEST PUSH2 0x22B PUSH1 0x4 DUP1 CALLDATASIZE SUB DUP2 ADD SWAP1 PUSH2 0x226 SWAP2 SWAP1 PUSH2 0xC35 JUMP JUMPDEST PUSH2 0x824 JUMP JUMPDEST PUSH1 0x40 MLOAD PUSH2 0x238 SWAP2 SWAP1 PUSH2 0xB12 JUMP JUMPDEST PUSH1 0x40 MLOAD DUP1 SWAP2 SUB SWAP1 RETURN JUMPDEST PUSH2 0x249 PUSH2 0x83C JUMP JUMPDEST PUSH1 0x40 MLOAD PUSH2 0x256 SWAP2 SWAP1 PUSH2 0xB12 JUMP JUMPDEST PUSH1 0x40 MLOAD DUP1 SWAP2 SUB SWAP1 RETURN JUMPDEST PUSH2 0x267 PUSH2 0x842 JUMP JUMPDEST PUSH1 0x40 MLOAD PUSH2 0x274 SWAP2 SWAP1 PUSH2 0xB6E JUMP JUMPDEST PUSH1 0x40 MLOAD DUP1 SWAP2 SUB SWAP1 RETURN JUMPDEST PUSH2 0x297 PUSH1 0x4 DUP1 CALLDATASIZE SUB DUP2 ADD SWAP1 PUSH2 0x292 SWAP2 SWAP1 PUSH2 0xC35 JUMP JUMPDEST PUSH2 0x86C JUMP JUMPDEST STOP JUMPDEST PUSH1 0x0 PUSH1 0x3 PUSH1 0x0 CALLER PUSH20 0xFFFFFFFFFFFFFFFFFFFFFFFFFFFFFFFFFFFFFFFF AND PUSH20 0xFFFFFFFFFFFFFFFFFFFFFFFFFFFFFFFFFFFFFFFF AND DUP2 MSTORE PUSH1 0x20 ADD SWAP1 DUP2 MSTORE PUSH1 0x20 ADD PUSH1 0x0 KECCAK256 SLOAD SWAP1 POP PUSH1 0x0 DUP2 GT PUSH2 0x320 JUMPI PUSH1 0x40 MLOAD PUSH32 0x8C379A000000000000000000000000000000000000000000000000000000000 DUP2 MSTORE PUSH1 0x4 ADD PUSH2 0x317 SWAP1 PUSH2 0xCE5 JUMP JUMPDEST PUSH1 0x40 MLOAD DUP1 SWAP2 SUB SWAP1 REVERT JUMPDEST PUSH1 0x0 PUSH1 0x5 PUSH1 0x0 DUP5 DUP2 MSTORE PUSH1 0x20 ADD SWAP1 DUP2 MSTORE PUSH1 0x20 ADD PUSH1 0x0 KECCAK256 PUSH1 0x0 CALLER PUSH20 0xFFFFFFFFFFFFFFFFFFFFFFFFFFFFFFFFFFFFFFFF AND PUSH20 0xFFFFFFFFFFFFFFFFFFFFFFFFFFFFFFFFFFFFFFFF AND DUP2 MSTORE PUSH1 0x20 ADD SWAP1 DUP2 MSTORE PUSH1 0x20 ADD PUSH1 0x0 KECCAK256 SLOAD SWAP1 POP PUSH1 0x0 DUP2 EQ PUSH2 0x3B8 JUMPI PUSH1 0x40 MLOAD PUSH32 0x8C379A000000000000000000000000000000000000000000000000000000000 DUP2 MSTORE PUSH1 0x4 ADD PUSH2 0x3AF SWAP1 PUSH2 0xD77 JUMP JUMPDEST PUSH1 0x40 MLOAD DUP1 SWAP2 SUB SWAP1 REVERT JUMPDEST PUSH1 0x3 PUSH1 0x0 CALLER PUSH20 0xFFFFFFFFFFFFFFFFFFFFFFFFFFFFFFFFFFFFFFFF AND PUSH20 0xFFFFFFFFFFFFFFFFFFFFFFFFFFFFFFFFFFFFFFFF AND DUP2 MSTORE PUSH1 0x20 ADD SWAP1 DUP2 MSTORE PUSH1 0x20 ADD PUSH1 0x0 KECCAK256 SLOAD PUSH1 0x5 PUSH1 0x0 DUP6 DUP2 MSTORE PUSH1 0x20 ADD SWAP1 DUP2 MSTORE PUSH1 0x20 ADD PUSH1 0x0 KECCAK256 PUSH1 0x0 CALLER PUSH20 0xFFFFFFFFFFFFFFFFFFFFFFFFFFFFFFFFFFFFFFFF AND PUSH20 0xFFFFFFFFFFFFFFFFFFFFFFFFFFFFFFFFFFFFFFFF AND DUP2 MSTORE PUSH1 0x20 ADD SWAP1 DUP2 MSTORE PUSH1 0x20 ADD PUSH1 0x0 KECCAK256 DUP2 SWAP1 SSTORE POP PUSH1 0x3 PUSH1 0x0 CALLER PUSH20 0xFFFFFFFFFFFFFFFFFFFFFFFFFFFFFFFFFFFFFFFF AND PUSH20 0xFFFFFFFFFFFFFFFFFFFFFFFFFFFFFFFFFFFFFFFF AND DUP2 MSTORE PUSH1 0x20 ADD SWAP1 DUP2 MSTORE PUSH1 0x20 ADD PUSH1 0x0 KECCAK256 SLOAD PUSH1 0x4 PUSH1 0x0 DUP6 DUP2 MSTORE PUSH1 0x20 ADD SWAP1 DUP2 MSTORE PUSH1 0x20 ADD PUSH1 0x0 KECCAK256 DUP2 SWAP1 SSTORE POP POP POP POP JUMP JUMPDEST PUSH1 0x7 SLOAD DUP2 JUMP JUMPDEST PUSH1 0x0 PUSH1 0x2 PUSH1 0x0 SWAP1 SLOAD SWAP1 PUSH2 0x100 EXP SWAP1 DIV PUSH20 0xFFFFFFFFFFFFFFFFFFFFFFFFFFFFFFFFFFFFFFFF AND SWAP1 POP SWAP1 JUMP JUMPDEST CALLER PUSH20 0xFFFFFFFFFFFFFFFFFFFFFFFFFFFFFFFFFFFFFFFF AND PUSH2 0x4F7 PUSH2 0x4AE JUMP JUMPDEST PUSH20 0xFFFFFFFFFFFFFFFFFFFFFFFFFFFFFFFFFFFFFFFF AND EQ PUSH2 0x54D JUMPI PUSH1 0x40 MLOAD PUSH32 0x8C379A000000000000000000000000000000000000000000000000000000000 DUP2 MSTORE PUSH1 0x4 ADD PUSH2 0x544 SWAP1 PUSH2 0xDE3 JUMP JUMPDEST PUSH1 0x40 MLOAD DUP1 SWAP2 SUB SWAP1 REVERT JUMPDEST DUP1 PUSH1 0x3 PUSH1 0x0 DUP5 PUSH20 0xFFFFFFFFFFFFFFFFFFFFFFFFFFFFFFFFFFFFFFFF AND PUSH20 0xFFFFFFFFFFFFFFFFFFFFFFFFFFFFFFFFFFFFFFFF AND DUP2 MSTORE PUSH1 0x20 ADD SWAP1 DUP2 MSTORE PUSH1 0x20 ADD PUSH1 0x0 KECCAK256 PUSH1 0x0 DUP3 DUP3 SLOAD PUSH2 0x59C SWAP2 SWAP1 PUSH2 0xE32 JUMP JUMPDEST SWAP3 POP POP DUP2 SWAP1 SSTORE POP DUP1 PUSH1 0x7 PUSH1 0x0 DUP3 DUP3 SLOAD PUSH2 0x5B5 SWAP2 SWAP1 PUSH2 0xE32 JUMP JUMPDEST SWAP3 POP POP DUP2 SWAP1 SSTORE POP POP POP JUMP JUMPDEST PUSH1 0x1 PUSH1 0x0 SWAP1 SLOAD SWAP1 PUSH2 0x100 EXP SWAP1 DIV PUSH20 0xFFFFFFFFFFFFFFFFFFFFFFFFFFFFFFFFFFFFFFFF AND PUSH20 0xFFFFFFFFFFFFFFFFFFFFFFFFFFFFFFFFFFFFFFFF AND CALLER PUSH20 0xFFFFFFFFFFFFFFFFFFFFFFFFFFFFFFFFFFFFFFFF AND EQ PUSH2 0x650 JUMPI PUSH1 0x40 MLOAD PUSH32 0x8C379A000000000000000000000000000000000000000000000000000000000 DUP2 MSTORE PUSH1 0x4 ADD PUSH2 0x647 SWAP1 PUSH2 0xEB2 JUMP JUMPDEST PUSH1 0x40 MLOAD DUP1 SWAP2 SUB SWAP1 REVERT JUMPDEST PUSH2 0x67B PUSH1 0x1 PUSH1 0x0 SWAP1 SLOAD SWAP1 PUSH2 0x100 EXP SWAP1 DIV PUSH20 0xFFFFFFFFFFFFFFFFFFFFFFFFFFFFFFFFFFFFFFFF AND PUSH2 0x9D7 JUMP JUMPDEST PUSH1 0x0 PUSH1 0x1 PUSH1 0x0 PUSH2 0x100 EXP DUP2 SLOAD DUP2 PUSH20 0xFFFFFFFFFFFFFFFFFFFFFFFFFFFFFFFFFFFFFFFF MUL NOT AND SWAP1 DUP4 PUSH20 0xFFFFFFFFFFFFFFFFFFFFFFFFFFFFFFFFFFFFFFFF AND MUL OR SWAP1 SSTORE POP JUMP JUMPDEST PUSH1 0x0 PUSH1 0x4 PUSH1 0x0 DUP4 DUP2 MSTORE PUSH1 0x20 ADD SWAP1 DUP2 MSTORE PUSH1 0x20 ADD PUSH1 0x0 KECCAK256 SLOAD SWAP1 POP PUSH1 0x0 DUP2 PUSH2 0x2710 PUSH1 0x7 SLOAD PUSH2 0x6EA SWAP2 SWAP1 PUSH2 0xED2 JUMP JUMPDEST PUSH2 0x6F4 SWAP2 SWAP1 PUSH2 0xF43 JUMP JUMPDEST SWAP1 POP DUP1 DUP3 GT PUSH2 0x738 JUMPI PUSH1 0x40 MLOAD PUSH32 0x8C379A000000000000000000000000000000000000000000000000000000000 DUP2 MSTORE PUSH1 0x4 ADD PUSH2 0x72F SWAP1 PUSH2 0xFE6 JUMP JUMPDEST PUSH1 0x40 MLOAD DUP1 SWAP2 SUB SWAP1 REVERT JUMPDEST POP POP POP JUMP JUMPDEST PUSH1 0x4 PUSH1 0x20 MSTORE DUP1 PUSH1 0x0 MSTORE PUSH1 0x40 PUSH1 0x0 KECCAK256 PUSH1 0x0 SWAP2 POP SWAP1 POP SLOAD DUP2 JUMP JUMPDEST CALLER PUSH20 0xFFFFFFFFFFFFFFFFFFFFFFFFFFFFFFFFFFFFFFFF AND PUSH2 0x774 PUSH2 0x7FB JUMP JUMPDEST PUSH20 0xFFFFFFFFFFFFFFFFFFFFFFFFFFFFFFFFFFFFFFFF AND EQ PUSH2 0x7CA JUMPI PUSH1 0x40 MLOAD PUSH32 0x8C379A000000000000000000000000000000000000000000000000000000000 DUP2 MSTORE PUSH1 0x4 ADD PUSH2 0x7C1 SWAP1 PUSH2 0x1052 JUMP JUMPDEST PUSH1 0x40 MLOAD DUP1 SWAP2 SUB SWAP1 REVERT JUMPDEST PUSH2 0x7D4 PUSH1 0x0 PUSH2 0x9D7 JUMP JUMPDEST JUMP JUMPDEST PUSH1 0x5 PUSH1 0x20 MSTORE DUP2 PUSH1 0x0 MSTORE PUSH1 0x40 PUSH1 0x0 KECCAK256 PUSH1 0x20 MSTORE DUP1 PUSH1 0x0 MSTORE PUSH1 0x40 PUSH1 0x0 KECCAK256 PUSH1 0x0 SWAP2 POP SWAP2 POP POP SLOAD DUP2 JUMP JUMPDEST PUSH1 0x0 DUP1 PUSH1 0x0 SWAP1 SLOAD SWAP1 PUSH2 0x100 EXP SWAP1 DIV PUSH20 0xFFFFFFFFFFFFFFFFFFFFFFFFFFFFFFFFFFFFFFFF AND SWAP1 POP SWAP1 JUMP JUMPDEST PUSH1 0x3 PUSH1 0x20 MSTORE DUP1 PUSH1 0x0 MSTORE PUSH1 0x40 PUSH1 0x0 KECCAK256 PUSH1 0x0 SWAP2 POP SWAP1 POP SLOAD DUP2 JUMP JUMPDEST PUSH1 0x6 SLOAD DUP2 JUMP JUMPDEST PUSH1 0x0 PUSH1 0x1 PUSH1 0x0 SWAP1 SLOAD SWAP1 PUSH2 0x100 EXP SWAP1 DIV PUSH20 0xFFFFFFFFFFFFFFFFFFFFFFFFFFFFFFFFFFFFFFFF AND SWAP1 POP SWAP1 JUMP JUMPDEST CALLER PUSH20 0xFFFFFFFFFFFFFFFFFFFFFFFFFFFFFFFFFFFFFFFF AND PUSH2 0x88B PUSH2 0x7FB JUMP JUMPDEST PUSH20 0xFFFFFFFFFFFFFFFFFFFFFFFFFFFFFFFFFFFFFFFF AND EQ PUSH2 0x8E1 JUMPI PUSH1 0x40 MLOAD PUSH32 0x8C379A000000000000000000000000000000000000000000000000000000000 DUP2 MSTORE PUSH1 0x4 ADD PUSH2 0x8D8 SWAP1 PUSH2 0x1052 JUMP JUMPDEST PUSH1 0x40 MLOAD DUP1 SWAP2 SUB SWAP1 REVERT JUMPDEST PUSH1 0x0 PUSH20 0xFFFFFFFFFFFFFFFFFFFFFFFFFFFFFFFFFFFFFFFF AND DUP2 PUSH20 0xFFFFFFFFFFFFFFFFFFFFFFFFFFFFFFFFFFFFFFFF AND SUB PUSH2 0x950 JUMPI PUSH1 0x40 MLOAD PUSH32 0x8C379A000000000000000000000000000000000000000000000000000000000 DUP2 MSTORE PUSH1 0x4 ADD PUSH2 0x947 SWAP1 PUSH2 0x10E4 JUMP JUMPDEST PUSH1 0x40 MLOAD DUP1 SWAP2 SUB SWAP1 REVERT JUMPDEST DUP1 PUSH1 0x1 PUSH1 0x0 PUSH2 0x100 EXP DUP2 SLOAD DUP2 PUSH20 0xFFFFFFFFFFFFFFFFFFFFFFFFFFFFFFFFFFFFFFFF MUL NOT AND SWAP1 DUP4 PUSH20 0xFFFFFFFFFFFFFFFFFFFFFFFFFFFFFFFFFFFFFFFF AND MUL OR SWAP1 SSTORE POP DUP1 PUSH20 0xFFFFFFFFFFFFFFFFFFFFFFFFFFFFFFFFFFFFFFFF AND PUSH32 0x239A2DDDED15777FA246AED5F7E1A9BC69A39D4EB4A397034D1D85766CCA7D4C PUSH1 0x40 MLOAD PUSH1 0x40 MLOAD DUP1 SWAP2 SUB SWAP1 LOG2 POP JUMP JUMPDEST PUSH1 0x0 DUP1 PUSH1 0x0 SWAP1 SLOAD SWAP1 PUSH2 0x100 EXP SWAP1 DIV PUSH20 0xFFFFFFFFFFFFFFFFFFFFFFFFFFFFFFFFFFFFFFFF AND SWAP1 POP DUP2 PUSH1 0x0 DUP1 PUSH2 0x100 EXP DUP2 SLOAD DUP2 PUSH20 0xFFFFFFFFFFFFFFFFFFFFFFFFFFFFFFFFFFFFFFFF MUL NOT AND SWAP1 DUP4 PUSH20 0xFFFFFFFFFFFFFFFFFFFFFFFFFFFFFFFFFFFFFFFF AND MUL OR SWAP1 SSTORE POP DUP2 PUSH20 0xFFFFFFFFFFFFFFFFFFFFFFFFFFFFFFFFFFFFFFFF AND DUP2 PUSH20 0xFFFFFFFFFFFFFFFFFFFFFFFFFFFFFFFFFFFFFFFF AND PUSH32 0x8BE0079C531659141344CD1FD0A4F28419497F9722A3DAAFE3B4186F6B6457E0 PUSH1 0x40 MLOAD PUSH1 0x40 MLOAD DUP1 SWAP2 SUB SWAP1 LOG3 POP POP JUMP JUMPDEST PUSH1 0x0 DUP1 REVERT JUMPDEST PUSH1 0x0 DUP2 SWAP1 POP SWAP2 SWAP1 POP JUMP JUMPDEST PUSH2 0xAB3 DUP2 PUSH2 0xAA0 JUMP JUMPDEST DUP2 EQ PUSH2 0xABE JUMPI PUSH1 0x0 DUP1 REVERT JUMPDEST POP JUMP JUMPDEST PUSH1 0x0 DUP2 CALLDATALOAD SWAP1 POP PUSH2 0xAD0 DUP2 PUSH2 0xAAA JUMP JUMPDEST SWAP3 SWAP2 POP POP JUMP JUMPDEST PUSH1 0x0 PUSH1 0x20 DUP3 DUP5 SUB SLT ISZERO PUSH2 0xAEC JUMPI PUSH2 0xAEB PUSH2 0xA9B JUMP JUMPDEST JUMPDEST PUSH1 0x0 PUSH2 0xAFA DUP5 DUP3 DUP6 ADD PUSH2 0xAC1 JUMP JUMPDEST SWAP2 POP POP SWAP3 SWAP2 POP POP JUMP JUMPDEST PUSH2 0xB0C DUP2 PUSH2 0xAA0 JUMP JUMPDEST DUP3 MSTORE POP POP JUMP JUMPDEST PUSH1 0x0 PUSH1 0x20 DUP3 ADD SWAP1 POP PUSH2 0xB27 PUSH1 0x0 DUP4 ADD DUP5 PUSH2 0xB03 JUMP JUMPDEST SWAP3 SWAP2 POP POP JUMP JUMPDEST PUSH1 0x0 PUSH20 0xFFFFFFFFFFFFFFFFFFFFFFFFFFFFFFFFFFFFFFFF DUP3 AND SWAP1 POP SWAP2 SWAP1 POP JUMP JUMPDEST PUSH1 0x0 PUSH2 0xB58 DUP3 PUSH2 0xB2D JUMP JUMPDEST SWAP1 POP SWAP2 SWAP1 POP JUMP JUMPDEST PUSH2 0xB68 DUP2 PUSH2 0xB4D JUMP JUMPDEST DUP3 MSTORE POP POP JUMP JUMPDEST PUSH1 0x0 PUSH1 0x20 DUP3 ADD SWAP1 POP PUSH2 0xB83 PUSH1 0x0 DUP4 ADD DUP5 PUSH2 0xB5F JUMP JUMPDEST SWAP3 SWAP2 POP POP JUMP JUMPDEST PUSH2 0xB92 DUP2 PUSH2 0xB4D JUMP JUMPDEST DUP2 EQ PUSH2 0xB9D JUMPI PUSH1 0x0 DUP1 REVERT JUMPDEST POP JUMP JUMPDEST PUSH1 0x0 DUP2 CALLDATALOAD SWAP1 POP PUSH2 0xBAF DUP2 PUSH2 0xB89 JUMP JUMPDEST SWAP3 SWAP2 POP POP JUMP JUMPDEST PUSH1 0x0 DUP1 PUSH1 0x40 DUP4 DUP6 SUB SLT ISZERO PUSH2 0xBCC JUMPI PUSH2 0xBCB PUSH2 0xA9B JUMP JUMPDEST JUMPDEST PUSH1 0x0 PUSH2 0xBDA DUP6 DUP3 DUP7 ADD PUSH2 0xBA0 JUMP JUMPDEST SWAP3 POP POP PUSH1 0x20 PUSH2 0xBEB DUP6 DUP3 DUP7 ADD PUSH2 0xAC1 JUMP JUMPDEST SWAP2 POP POP SWAP3 POP SWAP3 SWAP1 POP JUMP JUMPDEST PUSH1 0x0 DUP1 PUSH1 0x40 DUP4 DUP6 SUB SLT ISZERO PUSH2 0xC0C JUMPI PUSH2 0xC0B PUSH2 0xA9B JUMP JUMPDEST JUMPDEST PUSH1 0x0 PUSH2 0xC1A DUP6 DUP3 DUP7 ADD PUSH2 0xAC1 JUMP JUMPDEST SWAP3 POP POP PUSH1 0x20 PUSH2 0xC2B DUP6 DUP3 DUP7 ADD PUSH2 0xBA0 JUMP JUMPDEST SWAP2 POP POP SWAP3 POP SWAP3 SWAP1 POP JUMP JUMPDEST PUSH1 0x0 PUSH1 0x20 DUP3 DUP5 SUB SLT ISZERO PUSH2 0xC4B JUMPI PUSH2 0xC4A PUSH2 0xA9B JUMP JUMPDEST JUMPDEST PUSH1 0x0 PUSH2 0xC59 DUP5 DUP3 DUP6 ADD PUSH2 0xBA0 JUMP JUMPDEST SWAP2 POP POP SWAP3 SWAP2 POP POP JUMP JUMPDEST PUSH1 0x0 DUP3 DUP3 MSTORE PUSH1 0x20 DUP3 ADD SWAP1 POP SWAP3 SWAP2 POP POP JUMP JUMPDEST PUSH32 0x5374726174656779506F7765723A207573657220706F776572206D7573742062 PUSH1 0x0 DUP3 ADD MSTORE PUSH32 0x6967676572207468616E207A65726F0000000000000000000000000000000000 PUSH1 0x20 DUP3 ADD MSTORE POP JUMP JUMPDEST PUSH1 0x0 PUSH2 0xCCF PUSH1 0x2F DUP4 PUSH2 0xC62 JUMP JUMPDEST SWAP2 POP PUSH2 0xCDA DUP3 PUSH2 0xC73 JUMP JUMPDEST PUSH1 0x40 DUP3 ADD SWAP1 POP SWAP2 SWAP1 POP JUMP JUMPDEST PUSH1 0x0 PUSH1 0x20 DUP3 ADD SWAP1 POP DUP2 DUP2 SUB PUSH1 0x0 DUP4 ADD MSTORE PUSH2 0xCFE DUP2 PUSH2 0xCC2 JUMP JUMPDEST SWAP1 POP SWAP2 SWAP1 POP JUMP JUMPDEST PUSH32 0x5374726174656779506F7765723A20766F74656420706F776572206D75737420 PUSH1 0x0 DUP3 ADD MSTORE PUSH32 0x6265206E6F742075736564000000000000000000000000000000000000000000 PUSH1 0x20 DUP3 ADD MSTORE POP JUMP JUMPDEST PUSH1 0x0 PUSH2 0xD61 PUSH1 0x2B DUP4 PUSH2 0xC62 JUMP JUMPDEST SWAP2 POP PUSH2 0xD6C DUP3 PUSH2 0xD05 JUMP JUMPDEST PUSH1 0x40 DUP3 ADD SWAP1 POP SWAP2 SWAP1 POP JUMP JUMPDEST PUSH1 0x0 PUSH1 0x20 DUP3 ADD SWAP1 POP DUP2 DUP2 SUB PUSH1 0x0 DUP4 ADD MSTORE PUSH2 0xD90 DUP2 PUSH2 0xD54 JUMP JUMPDEST SWAP1 POP SWAP2 SWAP1 POP JUMP JUMPDEST PUSH32 0x4D616E61676561626C652F63616C6C65722D6E6F742D6D616E61676572000000 PUSH1 0x0 DUP3 ADD MSTORE POP JUMP JUMPDEST PUSH1 0x0 PUSH2 0xDCD PUSH1 0x1D DUP4 PUSH2 0xC62 JUMP JUMPDEST SWAP2 POP PUSH2 0xDD8 DUP3 PUSH2 0xD97 JUMP JUMPDEST PUSH1 0x20 DUP3 ADD SWAP1 POP SWAP2 SWAP1 POP JUMP JUMPDEST PUSH1 0x0 PUSH1 0x20 DUP3 ADD SWAP1 POP DUP2 DUP2 SUB PUSH1 0x0 DUP4 ADD MSTORE PUSH2 0xDFC DUP2 PUSH2 0xDC0 JUMP JUMPDEST SWAP1 POP SWAP2 SWAP1 POP JUMP JUMPDEST PUSH32 0x4E487B7100000000000000000000000000000000000000000000000000000000 PUSH1 0x0 MSTORE PUSH1 0x11 PUSH1 0x4 MSTORE PUSH1 0x24 PUSH1 0x0 REVERT JUMPDEST PUSH1 0x0 PUSH2 0xE3D DUP3 PUSH2 0xAA0 JUMP JUMPDEST SWAP2 POP PUSH2 0xE48 DUP4 PUSH2 0xAA0 JUMP JUMPDEST SWAP3 POP DUP3 DUP3 ADD SWAP1 POP DUP1 DUP3 GT ISZERO PUSH2 0xE60 JUMPI PUSH2 0xE5F PUSH2 0xE03 JUMP JUMPDEST JUMPDEST SWAP3 SWAP2 POP POP JUMP JUMPDEST PUSH32 0x4F776E61626C652F63616C6C65722D6E6F742D70656E64696E674F776E657200 PUSH1 0x0 DUP3 ADD MSTORE POP JUMP JUMPDEST PUSH1 0x0 PUSH2 0xE9C PUSH1 0x1F DUP4 PUSH2 0xC62 JUMP JUMPDEST SWAP2 POP PUSH2 0xEA7 DUP3 PUSH2 0xE66 JUMP JUMPDEST PUSH1 0x20 DUP3 ADD SWAP1 POP SWAP2 SWAP1 POP JUMP JUMPDEST PUSH1 0x0 PUSH1 0x20 DUP3 ADD SWAP1 POP DUP2 DUP2 SUB PUSH1 0x0 DUP4 ADD MSTORE PUSH2 0xECB DUP2 PUSH2 0xE8F JUMP JUMPDEST SWAP1 POP SWAP2 SWAP1 POP JUMP JUMPDEST PUSH1 0x0 PUSH2 0xEDD DUP3 PUSH2 0xAA0 JUMP JUMPDEST SWAP2 POP PUSH2 0xEE8 DUP4 PUSH2 0xAA0 JUMP JUMPDEST SWAP3 POP DUP3 DUP3 MUL PUSH2 0xEF6 DUP2 PUSH2 0xAA0 JUMP JUMPDEST SWAP2 POP DUP3 DUP3 DIV DUP5 EQ DUP4 ISZERO OR PUSH2 0xF0D JUMPI PUSH2 0xF0C PUSH2 0xE03 JUMP JUMPDEST JUMPDEST POP SWAP3 SWAP2 POP POP JUMP JUMPDEST PUSH32 0x4E487B7100000000000000000000000000000000000000000000000000000000 PUSH1 0x0 MSTORE PUSH1 0x12 PUSH1 0x4 MSTORE PUSH1 0x24 PUSH1 0x0 REVERT JUMPDEST PUSH1 0x0 PUSH2 0xF4E DUP3 PUSH2 0xAA0 JUMP JUMPDEST SWAP2 POP PUSH2 0xF59 DUP4 PUSH2 0xAA0 JUMP JUMPDEST SWAP3 POP DUP3 PUSH2 0xF69 JUMPI PUSH2 0xF68 PUSH2 0xF14 JUMP JUMPDEST JUMPDEST DUP3 DUP3 DIV SWAP1 POP SWAP3 SWAP2 POP POP JUMP JUMPDEST PUSH32 0x5374726174656779506F7765723A2070726F7075736520706F77657220706F77 PUSH1 0x0 DUP3 ADD MSTORE PUSH32 0x6572206D75737420626967676572207468616E20706173730000000000000000 PUSH1 0x20 DUP3 ADD MSTORE POP JUMP JUMPDEST PUSH1 0x0 PUSH2 0xFD0 PUSH1 0x38 DUP4 PUSH2 0xC62 JUMP JUMPDEST SWAP2 POP PUSH2 0xFDB DUP3 PUSH2 0xF74 JUMP JUMPDEST PUSH1 0x40 DUP3 ADD SWAP1 POP SWAP2 SWAP1 POP JUMP JUMPDEST PUSH1 0x0 PUSH1 0x20 DUP3 ADD SWAP1 POP DUP2 DUP2 SUB PUSH1 0x0 DUP4 ADD MSTORE PUSH2 0xFFF DUP2 PUSH2 0xFC3 JUMP JUMPDEST SWAP1 POP SWAP2 SWAP1 POP JUMP JUMPDEST PUSH32 0x4F776E61626C652F63616C6C65722D6E6F742D6F776E65720000000000000000 PUSH1 0x0 DUP3 ADD MSTORE POP JUMP JUMPDEST PUSH1 0x0 PUSH2 0x103C PUSH1 0x18 DUP4 PUSH2 0xC62 JUMP JUMPDEST SWAP2 POP PUSH2 0x1047 DUP3 PUSH2 0x1006 JUMP JUMPDEST PUSH1 0x20 DUP3 ADD SWAP1 POP SWAP2 SWAP1 POP JUMP JUMPDEST PUSH1 0x0 PUSH1 0x20 DUP3 ADD SWAP1 POP DUP2 DUP2 SUB PUSH1 0x0 DUP4 ADD MSTORE PUSH2 0x106B DUP2 PUSH2 0x102F JUMP JUMPDEST SWAP1 POP SWAP2 SWAP1 POP JUMP JUMPDEST PUSH32 0x4F776E61626C652F70656E64696E674F776E65722D6E6F742D7A65726F2D6164 PUSH1 0x0 DUP3 ADD MSTORE PUSH32 0x6472657373000000000000000000000000000000000000000000000000000000 PUSH1 0x20 DUP3 ADD MSTORE POP JUMP JUMPDEST PUSH1 0x0 PUSH2 0x10CE PUSH1 0x25 DUP4 PUSH2 0xC62 JUMP JUMPDEST SWAP2 POP PUSH2 0x10D9 DUP3 PUSH2 0x1072 JUMP JUMPDEST PUSH1 0x40 DUP3 ADD SWAP1 POP SWAP2 SWAP1 POP JUMP JUMPDEST PUSH1 0x0 PUSH1 0x20 DUP3 ADD SWAP1 POP DUP2 DUP2 SUB PUSH1 0x0 DUP4 ADD MSTORE PUSH2 0x10FD DUP2 PUSH2 0x10C1 JUMP JUMPDEST SWAP1 POP SWAP2 SWAP1 POP JUMP INVALID LOG2 PUSH5 0x6970667358 0x22 SLT KECCAK256 DELEGATECALL STATICCALL PUSH14 0x684CBC59998E2BA079F209DD600A 0xBF PUSH5 0xAEDDE8C8B2 0xB1 0xB6 LOG2 DUP3 0xA7 SWAP9 PUSH27 0x464736F6C63430008120033000000000000000000000000000000 "
				},
				"gasEstimates": {
					"creation": {
						"codeDepositCost": "882000",
						"executionCost": "infinite",
						"totalCost": "infinite"
					},
					"external": {
						"address_power(address)": "2836",
						"address_proposal_power(uint256,address)": "infinite",
						"claimOwnership()": "56752",
						"injectPower(address,uint256)": "infinite",
						"manager()": "2590",
						"owner()": "2589",
						"pass()": "2473",
						"pendingOwner()": "2588",
						"renounceOwnership()": "30362",
						"resolve(uint256)": "infinite",
						"total_power()": "2475",
						"transferOwnership(address)": "28211",
						"vote(uint256)": "53809",
						"vote_power(uint256)": "infinite"
					}
				},
				"methodIdentifiers": {
					"address_power(address)": "a3a31a96",
					"address_proposal_power(uint256,address)": "87388958",
					"claimOwnership()": "4e71e0c8",
					"injectPower(address,uint256)": "4e52d81d",
					"manager()": "481c6a75",
					"owner()": "8da5cb5b",
					"pass()": "a7a1ed72",
					"pendingOwner()": "e30c3978",
					"renounceOwnership()": "715018a6",
					"resolve(uint256)": "4f896d4f",
					"total_power()": "09d3bce5",
					"transferOwnership(address)": "f2fde38b",
					"vote(uint256)": "0121b93f",
					"vote_power(uint256)": "51dd3b66"
				}
			},
			"storageLayout": {
				"storage": [
					{
						"astId": 4,
						"contract": "contracts/strategyPower.sol:StrategyPower",
						"label": "_owner",
						"offset": 0,
						"slot": "0",
						"type": "t_address"
					},
					{
						"astId": 6,
						"contract": "contracts/strategyPower.sol:StrategyPower",
						"label": "_pendingOwner",
						"offset": 0,
						"slot": "1",
						"type": "t_address"
					},
					{
						"astId": 158,
						"contract": "contracts/strategyPower.sol:StrategyPower",
						"label": "_manager",
						"offset": 0,
						"slot": "2",
						"type": "t_address"
					},
					{
						"astId": 253,
						"contract": "contracts/strategyPower.sol:StrategyPower",
						"label": "address_power",
						"offset": 0,
						"slot": "3",
						"type": "t_mapping(t_address,t_uint256)"
					},
					{
						"astId": 257,
						"contract": "contracts/strategyPower.sol:StrategyPower",
						"label": "vote_power",
						"offset": 0,
						"slot": "4",
						"type": "t_mapping(t_uint256,t_uint256)"
					},
					{
						"astId": 263,
						"contract": "contracts/strategyPower.sol:StrategyPower",
						"label": "address_proposal_power",
						"offset": 0,
						"slot": "5",
						"type": "t_mapping(t_uint256,t_mapping(t_address,t_uint256))"
					},
					{
						"astId": 266,
						"contract": "contracts/strategyPower.sol:StrategyPower",
						"label": "pass",
						"offset": 0,
						"slot": "6",
						"type": "t_uint256"
					},
					{
						"astId": 268,
						"contract": "contracts/strategyPower.sol:StrategyPower",
						"label": "total_power",
						"offset": 0,
						"slot": "7",
						"type": "t_uint256"
					}
				],
				"types": {
					"t_address": {
						"encoding": "inplace",
						"label": "address",
						"numberOfBytes": "20"
					},
					"t_mapping(t_address,t_uint256)": {
						"encoding": "mapping",
						"key": "t_address",
						"label": "mapping(address => uint256)",
						"numberOfBytes": "32",
						"value": "t_uint256"
					},
					"t_mapping(t_uint256,t_mapping(t_address,t_uint256))": {
						"encoding": "mapping",
						"key": "t_uint256",
						"label": "mapping(uint256 => mapping(address => uint256))",
						"numberOfBytes": "32",
						"value": "t_mapping(t_address,t_uint256)"
					},
					"t_mapping(t_uint256,t_uint256)": {
						"encoding": "mapping",
						"key": "t_uint256",
						"label": "mapping(uint256 => uint256)",
						"numberOfBytes": "32",
						"value": "t_uint256"
					},
					"t_uint256": {
						"encoding": "inplace",
						"label": "uint256",
						"numberOfBytes": "32"
					}
				}
			},
			"userdoc": {
				"kind": "user",
				"methods": {
					"claimOwnership()": {
						"notice": "Allows the `_pendingOwner` address to finalize the transfer."
					},
					"manager()": {
						"notice": "Gets current `_manager`."
					},
					"owner()": {
						"notice": "Returns the address of the current owner."
					},
					"pendingOwner()": {
						"notice": "Gets current `_pendingOwner`."
					},
					"renounceOwnership()": {
						"notice": "Renounce ownership of the contract."
					},
					"transferOwnership(address)": {
						"notice": "Allows current owner to set the `_pendingOwner` address."
					}
				},
				"version": 1
			}
		}
	}
}