{
	"ArbitrageDao-Contract/contracts/ArbitrageUniV3.sol": {
		"ArbitrageUniV3": {
			"abi": [
				{
					"inputs": [
						{
							"internalType": "address",
							"name": "_manager",
							"type": "address"
						},
						{
							"internalType": "address",
							"name": "_router",
							"type": "address"
						},
						{
							"internalType": "address",
							"name": "_pool",
							"type": "address"
						},
						{
							"internalType": "uint256",
							"name": "_stock_index",
							"type": "uint256"
						}
					],
					"stateMutability": "nonpayable",
					"type": "constructor"
				},
				{
					"anonymous": false,
					"inputs": [
						{
							"indexed": true,
							"internalType": "address",
							"name": "user",
							"type": "address"
						},
						{
							"indexed": false,
							"internalType": "uint256",
							"name": "amount",
							"type": "uint256"
						}
					],
					"name": "Deposit",
					"type": "event"
				},
				{
					"anonymous": false,
					"inputs": [
						{
							"indexed": true,
							"internalType": "address",
							"name": "previousManager",
							"type": "address"
						},
						{
							"indexed": true,
							"internalType": "address",
							"name": "newManager",
							"type": "address"
						}
					],
					"name": "ManagerTransferred",
					"type": "event"
				},
				{
					"anonymous": false,
					"inputs": [
						{
							"indexed": true,
							"internalType": "address",
							"name": "pendingOwner",
							"type": "address"
						}
					],
					"name": "OwnershipOffered",
					"type": "event"
				},
				{
					"anonymous": false,
					"inputs": [
						{
							"indexed": true,
							"internalType": "address",
							"name": "previousOwner",
							"type": "address"
						},
						{
							"indexed": true,
							"internalType": "address",
							"name": "newOwner",
							"type": "address"
						}
					],
					"name": "OwnershipTransferred",
					"type": "event"
				},
				{
					"anonymous": false,
					"inputs": [
						{
							"indexed": true,
							"internalType": "address",
							"name": "user",
							"type": "address"
						},
						{
							"indexed": true,
							"internalType": "address",
							"name": "fromToken",
							"type": "address"
						},
						{
							"indexed": true,
							"internalType": "address",
							"name": "toToken",
							"type": "address"
						},
						{
							"indexed": false,
							"internalType": "uint256",
							"name": "amountIn",
							"type": "uint256"
						},
						{
							"indexed": false,
							"internalType": "uint256",
							"name": "amountOut",
							"type": "uint256"
						}
					],
					"name": "Swap",
					"type": "event"
				},
				{
					"anonymous": false,
					"inputs": [
						{
							"indexed": true,
							"internalType": "address",
							"name": "user",
							"type": "address"
						},
						{
							"indexed": false,
							"internalType": "uint256",
							"name": "amount",
							"type": "uint256"
						}
					],
					"name": "Withdraw",
					"type": "event"
				},
				{
					"inputs": [],
					"name": "claimOwnership",
					"outputs": [],
					"stateMutability": "nonpayable",
					"type": "function"
				},
				{
					"inputs": [
						{
							"internalType": "uint256",
							"name": "amountOutMinimum",
							"type": "uint256"
						},
						{
							"internalType": "uint160",
							"name": "sqrtPriceLimitX96",
							"type": "uint160"
						}
					],
					"name": "closePostion",
					"outputs": [
						{
							"internalType": "uint256",
							"name": "amount",
							"type": "uint256"
						}
					],
					"stateMutability": "nonpayable",
					"type": "function"
				},
				{
					"inputs": [],
					"name": "close_stock",
					"outputs": [
						{
							"internalType": "uint256",
							"name": "",
							"type": "uint256"
						}
					],
					"stateMutability": "view",
					"type": "function"
				},
				{
					"inputs": [
						{
							"internalType": "uint256",
							"name": "amount",
							"type": "uint256"
						}
					],
					"name": "deposit",
					"outputs": [
						{
							"internalType": "uint256",
							"name": "depositAmount",
							"type": "uint256"
						}
					],
					"stateMutability": "payable",
					"type": "function"
				},
				{
					"inputs": [],
					"name": "manager",
					"outputs": [
						{
							"internalType": "address",
							"name": "",
							"type": "address"
						}
					],
					"stateMutability": "view",
					"type": "function"
				},
				{
					"inputs": [
						{
							"internalType": "uint256",
							"name": "amountOutMinimum",
							"type": "uint256"
						},
						{
							"internalType": "uint160",
							"name": "sqrtPriceLimitX96",
							"type": "uint160"
						}
					],
					"name": "openPostion",
					"outputs": [
						{
							"internalType": "uint256",
							"name": "amount",
							"type": "uint256"
						}
					],
					"stateMutability": "nonpayable",
					"type": "function"
				},
				{
					"inputs": [],
					"name": "org_stock",
					"outputs": [
						{
							"internalType": "uint256",
							"name": "",
							"type": "uint256"
						}
					],
					"stateMutability": "view",
					"type": "function"
				},
				{
					"inputs": [],
					"name": "owner",
					"outputs": [
						{
							"internalType": "address",
							"name": "",
							"type": "address"
						}
					],
					"stateMutability": "view",
					"type": "function"
				},
				{
					"inputs": [],
					"name": "pendingOwner",
					"outputs": [
						{
							"internalType": "address",
							"name": "",
							"type": "address"
						}
					],
					"stateMutability": "view",
					"type": "function"
				},
				{
					"inputs": [],
					"name": "pool",
					"outputs": [
						{
							"internalType": "address",
							"name": "",
							"type": "address"
						}
					],
					"stateMutability": "view",
					"type": "function"
				},
				{
					"inputs": [],
					"name": "renounceOwnership",
					"outputs": [],
					"stateMutability": "nonpayable",
					"type": "function"
				},
				{
					"inputs": [],
					"name": "router",
					"outputs": [
						{
							"internalType": "address",
							"name": "",
							"type": "address"
						}
					],
					"stateMutability": "view",
					"type": "function"
				},
				{
					"inputs": [
						{
							"internalType": "address",
							"name": "",
							"type": "address"
						}
					],
					"name": "shares",
					"outputs": [
						{
							"internalType": "uint256",
							"name": "",
							"type": "uint256"
						}
					],
					"stateMutability": "view",
					"type": "function"
				},
				{
					"inputs": [],
					"name": "stock_index",
					"outputs": [
						{
							"internalType": "uint256",
							"name": "",
							"type": "uint256"
						}
					],
					"stateMutability": "view",
					"type": "function"
				},
				{
					"inputs": [
						{
							"internalType": "address",
							"name": "_newOwner",
							"type": "address"
						}
					],
					"name": "transferOwnership",
					"outputs": [],
					"stateMutability": "nonpayable",
					"type": "function"
				},
				{
					"inputs": [],
					"name": "withdraw",
					"outputs": [
						{
							"internalType": "uint256",
							"name": "withdrawAmount",
							"type": "uint256"
						}
					],
					"stateMutability": "nonpayable",
					"type": "function"
				}
			],
			"devdoc": {
				"kind": "dev",
				"methods": {
					"claimOwnership()": {
						"details": "This function is only callable by the `_pendingOwner`."
					},
					"manager()": {
						"returns": {
							"_0": "Current `_manager` address."
						}
					},
					"pendingOwner()": {
						"returns": {
							"_0": "Current `_pendingOwner` address."
						}
					},
					"renounceOwnership()": {
						"details": "Leaves the contract without owner. It will not be possible to call `onlyOwner` functions anymore. Can only be called by the current owner. NOTE: Renouncing ownership will leave the contract without an owner, thereby removing any functionality that is only available to the owner."
					},
					"transferOwnership(address)": {
						"params": {
							"_newOwner": "Address to transfer ownership to."
						}
					}
				},
				"version": 1
			},
			"evm": {
				"assembly": "    /* \"ArbitrageDao-Contract/contracts/ArbitrageUniV3.sol\":378:4455  contract ArbitrageUniV3 is IArbitrage, Manageable{\r... */\n  mstore(0x40, 0x80)\n    /* \"ArbitrageDao-Contract/contracts/ArbitrageUniV3.sol\":949:1530  constructor(\r... */\n  callvalue\n  dup1\n  iszero\n  tag_1\n  jumpi\n  0x00\n  dup1\n  revert\ntag_1:\n  pop\n  mload(0x40)\n  sub(codesize, bytecodeSize)\n  dup1\n  bytecodeSize\n  dup4\n  codecopy\n  dup2\n  dup2\n  add\n  0x40\n  mstore\n  dup2\n  add\n  swap1\n  tag_2\n  swap2\n  swap1\n  tag_3\n  jump\t// in\ntag_2:\n    /* \"ArbitrageDao-Contract/contracts/ArbitrageUniV3.sol\":1113:1121  _manager */\n  dup4\n    /* \"ArbitrageDao-Contract/contracts/ArbitrageUniV3.sol\":1083:1093  msg.sender */\n  caller\n    /* \"ArbitrageDao-Contract/contracts/extern/Manageable.sol\":2581:2605  _setOwner(_initialOwner) */\n  tag_8\n    /* \"ArbitrageDao-Contract/contracts/extern/Manageable.sol\":2591:2604  _initialOwner */\n  dup2\n    /* \"ArbitrageDao-Contract/contracts/extern/Manageable.sol\":2581:2590  _setOwner */\n  shl(0x20, tag_9)\n    /* \"ArbitrageDao-Contract/contracts/extern/Manageable.sol\":2581:2605  _setOwner(_initialOwner) */\n  0x20\n  shr\n  jump\t// in\ntag_8:\n    /* \"ArbitrageDao-Contract/contracts/extern/Manageable.sol\":2535:2613  constructor(address _initialOwner) {\r... */\n  pop\n    /* \"ArbitrageDao-Contract/contracts/extern/Manageable.sol\":5277:5292  manager_address */\n  dup1\n    /* \"ArbitrageDao-Contract/contracts/extern/Manageable.sol\":5266:5274  _manager */\n  0x02\n  0x00\n    /* \"ArbitrageDao-Contract/contracts/extern/Manageable.sol\":5266:5292  _manager = manager_address */\n  0x0100\n  exp\n  dup2\n  sload\n  dup2\n  0xffffffffffffffffffffffffffffffffffffffff\n  mul\n  not\n  and\n  swap1\n  dup4\n  0xffffffffffffffffffffffffffffffffffffffff\n  and\n  mul\n  or\n  swap1\n  sstore\n  pop\n    /* \"ArbitrageDao-Contract/contracts/extern/Manageable.sol\":5218:5300  constructor(address manager_address) {\r... */\n  pop\n    /* \"ArbitrageDao-Contract/contracts/ArbitrageUniV3.sol\":1163:1164  0 */\n  0x00\n    /* \"ArbitrageDao-Contract/contracts/ArbitrageUniV3.sol\":1147:1159  _stock_index */\n  dup2\n    /* \"ArbitrageDao-Contract/contracts/ArbitrageUniV3.sol\":1147:1164  _stock_index == 0 */\n  eq\n    /* \"ArbitrageDao-Contract/contracts/ArbitrageUniV3.sol\":1147:1185  _stock_index == 0 || _stock_index == 0 */\n  dup1\n  tag_12\n  jumpi\n  pop\n    /* \"ArbitrageDao-Contract/contracts/ArbitrageUniV3.sol\":1184:1185  0 */\n  0x00\n    /* \"ArbitrageDao-Contract/contracts/ArbitrageUniV3.sol\":1168:1180  _stock_index */\n  dup2\n    /* \"ArbitrageDao-Contract/contracts/ArbitrageUniV3.sol\":1168:1185  _stock_index == 0 */\n  eq\n    /* \"ArbitrageDao-Contract/contracts/ArbitrageUniV3.sol\":1147:1185  _stock_index == 0 || _stock_index == 0 */\ntag_12:\n    /* \"ArbitrageDao-Contract/contracts/ArbitrageUniV3.sol\":1139:1224  require(_stock_index == 0 || _stock_index == 0, \"stock in pool must be zero or one.\") */\n  tag_13\n  jumpi\n  mload(0x40)\n  0x08c379a000000000000000000000000000000000000000000000000000000000\n  dup2\n  mstore\n  0x04\n  add\n  tag_14\n  swap1\n  tag_15\n  jump\t// in\ntag_14:\n  mload(0x40)\n  dup1\n  swap2\n  sub\n  swap1\n  revert\ntag_13:\n    /* \"ArbitrageDao-Contract/contracts/ArbitrageUniV3.sol\":1244:1251  _router */\n  dup3\n    /* \"ArbitrageDao-Contract/contracts/ArbitrageUniV3.sol\":1235:1241  router */\n  0x03\n  0x00\n    /* \"ArbitrageDao-Contract/contracts/ArbitrageUniV3.sol\":1235:1251  router = _router */\n  0x0100\n  exp\n  dup2\n  sload\n  dup2\n  0xffffffffffffffffffffffffffffffffffffffff\n  mul\n  not\n  and\n  swap1\n  dup4\n  0xffffffffffffffffffffffffffffffffffffffff\n  and\n  mul\n  or\n  swap1\n  sstore\n  pop\n    /* \"ArbitrageDao-Contract/contracts/ArbitrageUniV3.sol\":1269:1274  _pool */\n  dup2\n    /* \"ArbitrageDao-Contract/contracts/ArbitrageUniV3.sol\":1262:1266  pool */\n  0x04\n  0x00\n    /* \"ArbitrageDao-Contract/contracts/ArbitrageUniV3.sol\":1262:1274  pool = _pool */\n  0x0100\n  exp\n  dup2\n  sload\n  dup2\n  0xffffffffffffffffffffffffffffffffffffffff\n  mul\n  not\n  and\n  swap1\n  dup4\n  0xffffffffffffffffffffffffffffffffffffffff\n  and\n  mul\n  or\n  swap1\n  sstore\n  pop\n    /* \"ArbitrageDao-Contract/contracts/ArbitrageUniV3.sol\":1299:1311  _stock_index */\n  dup1\n    /* \"ArbitrageDao-Contract/contracts/ArbitrageUniV3.sol\":1285:1296  stock_index */\n  0x08\n    /* \"ArbitrageDao-Contract/contracts/ArbitrageUniV3.sol\":1285:1311  stock_index = _stock_index */\n  dup2\n  swap1\n  sstore\n  pop\n    /* \"ArbitrageDao-Contract/contracts/ArbitrageUniV3.sol\":949:1530  constructor(\r... */\n  pop\n  pop\n  pop\n  pop\n    /* \"ArbitrageDao-Contract/contracts/ArbitrageUniV3.sol\":378:4455  contract ArbitrageUniV3 is IArbitrage, Manageable{\r... */\n  jump(tag_16)\n    /* \"ArbitrageDao-Contract/contracts/extern/Manageable.sol\":4462:4640  function _setOwner(address _newOwner) private {\r... */\ntag_9:\n    /* \"ArbitrageDao-Contract/contracts/extern/Manageable.sol\":4519:4536  address _oldOwner */\n  0x00\n    /* \"ArbitrageDao-Contract/contracts/extern/Manageable.sol\":4539:4545  _owner */\n  dup1\n  0x00\n  swap1\n  sload\n  swap1\n  0x0100\n  exp\n  swap1\n  div\n  0xffffffffffffffffffffffffffffffffffffffff\n  and\n    /* \"ArbitrageDao-Contract/contracts/extern/Manageable.sol\":4519:4545  address _oldOwner = _owner */\n  swap1\n  pop\n    /* \"ArbitrageDao-Contract/contracts/extern/Manageable.sol\":4565:4574  _newOwner */\n  dup2\n    /* \"ArbitrageDao-Contract/contracts/extern/Manageable.sol\":4556:4562  _owner */\n  0x00\n  dup1\n    /* \"ArbitrageDao-Contract/contracts/extern/Manageable.sol\":4556:4574  _owner = _newOwner */\n  0x0100\n  exp\n  dup2\n  sload\n  dup2\n  0xffffffffffffffffffffffffffffffffffffffff\n  mul\n  not\n  and\n  swap1\n  dup4\n  0xffffffffffffffffffffffffffffffffffffffff\n  and\n  mul\n  or\n  swap1\n  sstore\n  pop\n    /* \"ArbitrageDao-Contract/contracts/extern/Manageable.sol\":4622:4631  _newOwner */\n  dup2\n    /* \"ArbitrageDao-Contract/contracts/extern/Manageable.sol\":4590:4632  OwnershipTransferred(_oldOwner, _newOwner) */\n  0xffffffffffffffffffffffffffffffffffffffff\n  and\n    /* \"ArbitrageDao-Contract/contracts/extern/Manageable.sol\":4611:4620  _oldOwner */\n  dup2\n    /* \"ArbitrageDao-Contract/contracts/extern/Manageable.sol\":4590:4632  OwnershipTransferred(_oldOwner, _newOwner) */\n  0xffffffffffffffffffffffffffffffffffffffff\n  and\n  0x8be0079c531659141344cd1fd0a4f28419497f9722a3daafe3b4186f6b6457e0\n  mload(0x40)\n  mload(0x40)\n  dup1\n  swap2\n  sub\n  swap1\n  log3\n    /* \"ArbitrageDao-Contract/contracts/extern/Manageable.sol\":4462:4640  function _setOwner(address _newOwner) private {\r... */\n  pop\n  pop\n  jump\t// out\n    /* \"#utility.yul\":7:150   */\ntag_19:\n  0x00\n    /* \"#utility.yul\":95:101   */\n  dup2\n    /* \"#utility.yul\":89:102   */\n  mload\n    /* \"#utility.yul\":80:102   */\n  swap1\n  pop\n    /* \"#utility.yul\":111:144   */\n  tag_21\n    /* \"#utility.yul\":138:143   */\n  dup2\n    /* \"#utility.yul\":111:144   */\n  tag_22\n  jump\t// in\ntag_21:\n    /* \"#utility.yul\":70:150   */\n  swap3\n  swap2\n  pop\n  pop\n  jump\t// out\n    /* \"#utility.yul\":156:299   */\ntag_23:\n  0x00\n    /* \"#utility.yul\":244:250   */\n  dup2\n    /* \"#utility.yul\":238:251   */\n  mload\n    /* \"#utility.yul\":229:251   */\n  swap1\n  pop\n    /* \"#utility.yul\":260:293   */\n  tag_25\n    /* \"#utility.yul\":287:292   */\n  dup2\n    /* \"#utility.yul\":260:293   */\n  tag_26\n  jump\t// in\ntag_25:\n    /* \"#utility.yul\":219:299   */\n  swap3\n  swap2\n  pop\n  pop\n  jump\t// out\n    /* \"#utility.yul\":305:1058   */\ntag_3:\n  0x00\n  dup1\n  0x00\n  dup1\n    /* \"#utility.yul\":475:478   */\n  0x80\n    /* \"#utility.yul\":463:472   */\n  dup6\n    /* \"#utility.yul\":454:461   */\n  dup8\n    /* \"#utility.yul\":450:473   */\n  sub\n    /* \"#utility.yul\":446:479   */\n  slt\n    /* \"#utility.yul\":443:445   */\n  iszero\n  tag_28\n  jumpi\n    /* \"#utility.yul\":492:493   */\n  0x00\n    /* \"#utility.yul\":489:490   */\n  dup1\n    /* \"#utility.yul\":482:494   */\n  revert\n    /* \"#utility.yul\":443:445   */\ntag_28:\n    /* \"#utility.yul\":535:536   */\n  0x00\n    /* \"#utility.yul\":560:624   */\n  tag_29\n    /* \"#utility.yul\":616:623   */\n  dup8\n    /* \"#utility.yul\":607:613   */\n  dup3\n    /* \"#utility.yul\":596:605   */\n  dup9\n    /* \"#utility.yul\":592:614   */\n  add\n    /* \"#utility.yul\":560:624   */\n  tag_19\n  jump\t// in\ntag_29:\n    /* \"#utility.yul\":550:624   */\n  swap5\n  pop\n    /* \"#utility.yul\":506:634   */\n  pop\n    /* \"#utility.yul\":673:675   */\n  0x20\n    /* \"#utility.yul\":699:763   */\n  tag_30\n    /* \"#utility.yul\":755:762   */\n  dup8\n    /* \"#utility.yul\":746:752   */\n  dup3\n    /* \"#utility.yul\":735:744   */\n  dup9\n    /* \"#utility.yul\":731:753   */\n  add\n    /* \"#utility.yul\":699:763   */\n  tag_19\n  jump\t// in\ntag_30:\n    /* \"#utility.yul\":689:763   */\n  swap4\n  pop\n    /* \"#utility.yul\":644:773   */\n  pop\n    /* \"#utility.yul\":812:814   */\n  0x40\n    /* \"#utility.yul\":838:902   */\n  tag_31\n    /* \"#utility.yul\":894:901   */\n  dup8\n    /* \"#utility.yul\":885:891   */\n  dup3\n    /* \"#utility.yul\":874:883   */\n  dup9\n    /* \"#utility.yul\":870:892   */\n  add\n    /* \"#utility.yul\":838:902   */\n  tag_19\n  jump\t// in\ntag_31:\n    /* \"#utility.yul\":828:902   */\n  swap3\n  pop\n    /* \"#utility.yul\":783:912   */\n  pop\n    /* \"#utility.yul\":951:953   */\n  0x60\n    /* \"#utility.yul\":977:1041   */\n  tag_32\n    /* \"#utility.yul\":1033:1040   */\n  dup8\n    /* \"#utility.yul\":1024:1030   */\n  dup3\n    /* \"#utility.yul\":1013:1022   */\n  dup9\n    /* \"#utility.yul\":1009:1031   */\n  add\n    /* \"#utility.yul\":977:1041   */\n  tag_23\n  jump\t// in\ntag_32:\n    /* \"#utility.yul\":967:1041   */\n  swap2\n  pop\n    /* \"#utility.yul\":922:1051   */\n  pop\n    /* \"#utility.yul\":433:1058   */\n  swap3\n  swap6\n  swap2\n  swap5\n  pop\n  swap3\n  pop\n  jump\t// out\n    /* \"#utility.yul\":1064:1430   */\ntag_33:\n  0x00\n    /* \"#utility.yul\":1227:1294   */\n  tag_35\n    /* \"#utility.yul\":1291:1293   */\n  0x22\n    /* \"#utility.yul\":1286:1289   */\n  dup4\n    /* \"#utility.yul\":1227:1294   */\n  tag_36\n  jump\t// in\ntag_35:\n    /* \"#utility.yul\":1220:1294   */\n  swap2\n  pop\n    /* \"#utility.yul\":1324:1358   */\n  0x73746f636b20696e20706f6f6c206d757374206265207a65726f206f72206f6e\n    /* \"#utility.yul\":1320:1321   */\n  0x00\n    /* \"#utility.yul\":1315:1318   */\n  dup4\n    /* \"#utility.yul\":1311:1322   */\n  add\n    /* \"#utility.yul\":1304:1359   */\n  mstore\n    /* \"#utility.yul\":1390:1394   */\n  0x652e000000000000000000000000000000000000000000000000000000000000\n    /* \"#utility.yul\":1385:1387   */\n  0x20\n    /* \"#utility.yul\":1380:1383   */\n  dup4\n    /* \"#utility.yul\":1376:1388   */\n  add\n    /* \"#utility.yul\":1369:1395   */\n  mstore\n    /* \"#utility.yul\":1421:1423   */\n  0x40\n    /* \"#utility.yul\":1416:1419   */\n  dup3\n    /* \"#utility.yul\":1412:1424   */\n  add\n    /* \"#utility.yul\":1405:1424   */\n  swap1\n  pop\n    /* \"#utility.yul\":1210:1430   */\n  swap2\n  swap1\n  pop\n  jump\t// out\n    /* \"#utility.yul\":1436:1855   */\ntag_15:\n  0x00\n    /* \"#utility.yul\":1640:1642   */\n  0x20\n    /* \"#utility.yul\":1629:1638   */\n  dup3\n    /* \"#utility.yul\":1625:1643   */\n  add\n    /* \"#utility.yul\":1617:1643   */\n  swap1\n  pop\n    /* \"#utility.yul\":1689:1698   */\n  dup2\n    /* \"#utility.yul\":1683:1687   */\n  dup2\n    /* \"#utility.yul\":1679:1699   */\n  sub\n    /* \"#utility.yul\":1675:1676   */\n  0x00\n    /* \"#utility.yul\":1664:1673   */\n  dup4\n    /* \"#utility.yul\":1660:1677   */\n  add\n    /* \"#utility.yul\":1653:1700   */\n  mstore\n    /* \"#utility.yul\":1717:1848   */\n  tag_38\n    /* \"#utility.yul\":1843:1847   */\n  dup2\n    /* \"#utility.yul\":1717:1848   */\n  tag_33\n  jump\t// in\ntag_38:\n    /* \"#utility.yul\":1709:1848   */\n  swap1\n  pop\n    /* \"#utility.yul\":1607:1855   */\n  swap2\n  swap1\n  pop\n  jump\t// out\n    /* \"#utility.yul\":1861:2030   */\ntag_36:\n  0x00\n    /* \"#utility.yul\":1979:1985   */\n  dup3\n    /* \"#utility.yul\":1974:1977   */\n  dup3\n    /* \"#utility.yul\":1967:1986   */\n  mstore\n    /* \"#utility.yul\":2019:2023   */\n  0x20\n    /* \"#utility.yul\":2014:2017   */\n  dup3\n    /* \"#utility.yul\":2010:2024   */\n  add\n    /* \"#utility.yul\":1995:2024   */\n  swap1\n  pop\n    /* \"#utility.yul\":1957:2030   */\n  swap3\n  swap2\n  pop\n  pop\n  jump\t// out\n    /* \"#utility.yul\":2036:2132   */\ntag_40:\n  0x00\n    /* \"#utility.yul\":2102:2126   */\n  tag_42\n    /* \"#utility.yul\":2120:2125   */\n  dup3\n    /* \"#utility.yul\":2102:2126   */\n  tag_43\n  jump\t// in\ntag_42:\n    /* \"#utility.yul\":2091:2126   */\n  swap1\n  pop\n    /* \"#utility.yul\":2081:2132   */\n  swap2\n  swap1\n  pop\n  jump\t// out\n    /* \"#utility.yul\":2138:2264   */\ntag_43:\n  0x00\n    /* \"#utility.yul\":2215:2257   */\n  0xffffffffffffffffffffffffffffffffffffffff\n    /* \"#utility.yul\":2208:2213   */\n  dup3\n    /* \"#utility.yul\":2204:2258   */\n  and\n    /* \"#utility.yul\":2193:2258   */\n  swap1\n  pop\n    /* \"#utility.yul\":2183:2264   */\n  swap2\n  swap1\n  pop\n  jump\t// out\n    /* \"#utility.yul\":2270:2347   */\ntag_45:\n  0x00\n    /* \"#utility.yul\":2336:2341   */\n  dup2\n    /* \"#utility.yul\":2325:2341   */\n  swap1\n  pop\n    /* \"#utility.yul\":2315:2347   */\n  swap2\n  swap1\n  pop\n  jump\t// out\n    /* \"#utility.yul\":2353:2475   */\ntag_22:\n    /* \"#utility.yul\":2426:2450   */\n  tag_48\n    /* \"#utility.yul\":2444:2449   */\n  dup2\n    /* \"#utility.yul\":2426:2450   */\n  tag_40\n  jump\t// in\ntag_48:\n    /* \"#utility.yul\":2419:2424   */\n  dup2\n    /* \"#utility.yul\":2416:2451   */\n  eq\n    /* \"#utility.yul\":2406:2408   */\n  tag_49\n  jumpi\n    /* \"#utility.yul\":2465:2466   */\n  0x00\n    /* \"#utility.yul\":2462:2463   */\n  dup1\n    /* \"#utility.yul\":2455:2467   */\n  revert\n    /* \"#utility.yul\":2406:2408   */\ntag_49:\n    /* \"#utility.yul\":2396:2475   */\n  pop\n  jump\t// out\n    /* \"#utility.yul\":2481:2603   */\ntag_26:\n    /* \"#utility.yul\":2554:2578   */\n  tag_51\n    /* \"#utility.yul\":2572:2577   */\n  dup2\n    /* \"#utility.yul\":2554:2578   */\n  tag_45\n  jump\t// in\ntag_51:\n    /* \"#utility.yul\":2547:2552   */\n  dup2\n    /* \"#utility.yul\":2544:2579   */\n  eq\n    /* \"#utility.yul\":2534:2536   */\n  tag_52\n  jumpi\n    /* \"#utility.yul\":2593:2594   */\n  0x00\n    /* \"#utility.yul\":2590:2591   */\n  dup1\n    /* \"#utility.yul\":2583:2595   */\n  revert\n    /* \"#utility.yul\":2534:2536   */\ntag_52:\n    /* \"#utility.yul\":2524:2603   */\n  pop\n  jump\t// out\n    /* \"ArbitrageDao-Contract/contracts/ArbitrageUniV3.sol\":378:4455  contract ArbitrageUniV3 is IArbitrage, Manageable{\r... */\ntag_16:\n  dataSize(sub_0)\n  dup1\n  dataOffset(sub_0)\n  0x00\n  codecopy\n  0x00\n  return\nstop\n\nsub_0: assembly {\n        /* \"ArbitrageDao-Contract/contracts/ArbitrageUniV3.sol\":378:4455  contract ArbitrageUniV3 is IArbitrage, Manageable{\r... */\n      mstore(0x40, 0x80)\n      jumpi(tag_1, lt(calldatasize, 0x04))\n      shr(0xe0, calldataload(0x00))\n      dup1\n      0x7ef45fde\n      gt\n      tag_18\n      jumpi\n      dup1\n      0xe30c3978\n      gt\n      tag_19\n      jumpi\n      dup1\n      0xe30c3978\n      eq\n      tag_14\n      jumpi\n      dup1\n      0xf2fde38b\n      eq\n      tag_15\n      jumpi\n      dup1\n      0xf887ea40\n      eq\n      tag_16\n      jumpi\n      dup1\n      0xf92966e1\n      eq\n      tag_17\n      jumpi\n      jump(tag_1)\n    tag_19:\n      dup1\n      0x7ef45fde\n      eq\n      tag_10\n      jumpi\n      dup1\n      0x8da5cb5b\n      eq\n      tag_11\n      jumpi\n      dup1\n      0xb6b55f25\n      eq\n      tag_12\n      jumpi\n      dup1\n      0xce7c2ac2\n      eq\n      tag_13\n      jumpi\n      jump(tag_1)\n    tag_18:\n      dup1\n      0x44c2b6d0\n      gt\n      tag_20\n      jumpi\n      dup1\n      0x44c2b6d0\n      eq\n      tag_6\n      jumpi\n      dup1\n      0x481c6a75\n      eq\n      tag_7\n      jumpi\n      dup1\n      0x4e71e0c8\n      eq\n      tag_8\n      jumpi\n      dup1\n      0x715018a6\n      eq\n      tag_9\n      jumpi\n      jump(tag_1)\n    tag_20:\n      dup1\n      0x02c1b274\n      eq\n      tag_2\n      jumpi\n      dup1\n      0x16f0115b\n      eq\n      tag_3\n      jumpi\n      dup1\n      0x3ccfd60b\n      eq\n      tag_4\n      jumpi\n      dup1\n      0x4230adc9\n      eq\n      tag_5\n      jumpi\n    tag_1:\n      0x00\n      dup1\n      revert\n        /* \"ArbitrageDao-Contract/contracts/ArbitrageUniV3.sol\":667:693  uint256 public stock_index */\n    tag_2:\n      callvalue\n      dup1\n      iszero\n      tag_21\n      jumpi\n      0x00\n      dup1\n      revert\n    tag_21:\n      pop\n      tag_22\n      tag_23\n      jump\t// in\n    tag_22:\n      mload(0x40)\n      tag_24\n      swap2\n      swap1\n      tag_25\n      jump\t// in\n    tag_24:\n      mload(0x40)\n      dup1\n      swap2\n      sub\n      swap1\n      return\n        /* \"ArbitrageDao-Contract/contracts/ArbitrageUniV3.sol\":529:548  address public pool */\n    tag_3:\n      callvalue\n      dup1\n      iszero\n      tag_26\n      jumpi\n      0x00\n      dup1\n      revert\n    tag_26:\n      pop\n      tag_27\n      tag_28\n      jump\t// in\n    tag_27:\n      mload(0x40)\n      tag_29\n      swap2\n      swap1\n      tag_30\n      jump\t// in\n    tag_29:\n      mload(0x40)\n      dup1\n      swap2\n      sub\n      swap1\n      return\n        /* \"ArbitrageDao-Contract/contracts/ArbitrageUniV3.sol\":2472:2888  function withdraw() external override returns (uint256 withdrawAmount){\r... */\n    tag_4:\n      callvalue\n      dup1\n      iszero\n      tag_31\n      jumpi\n      0x00\n      dup1\n      revert\n    tag_31:\n      pop\n      tag_32\n      tag_33\n      jump\t// in\n    tag_32:\n      mload(0x40)\n      tag_34\n      swap2\n      swap1\n      tag_25\n      jump\t// in\n    tag_34:\n      mload(0x40)\n      dup1\n      swap2\n      sub\n      swap1\n      return\n        /* \"ArbitrageDao-Contract/contracts/ArbitrageUniV3.sol\":603:629  uint256 public close_stock */\n    tag_5:\n      callvalue\n      dup1\n      iszero\n      tag_35\n      jumpi\n      0x00\n      dup1\n      revert\n    tag_35:\n      pop\n      tag_36\n      tag_37\n      jump\t// in\n    tag_36:\n      mload(0x40)\n      tag_38\n      swap2\n      swap1\n      tag_25\n      jump\t// in\n    tag_38:\n      mload(0x40)\n      dup1\n      swap2\n      sub\n      swap1\n      return\n        /* \"ArbitrageDao-Contract/contracts/ArbitrageUniV3.sol\":2896:3655  function openPostion(\r... */\n    tag_6:\n      callvalue\n      dup1\n      iszero\n      tag_39\n      jumpi\n      0x00\n      dup1\n      revert\n    tag_39:\n      pop\n      tag_40\n      0x04\n      dup1\n      calldatasize\n      sub\n      dup2\n      add\n      swap1\n      tag_41\n      swap2\n      swap1\n      tag_42\n      jump\t// in\n    tag_41:\n      tag_43\n      jump\t// in\n    tag_40:\n      mload(0x40)\n      tag_44\n      swap2\n      swap1\n      tag_25\n      jump\t// in\n    tag_44:\n      mload(0x40)\n      dup1\n      swap2\n      sub\n      swap1\n      return\n        /* \"ArbitrageDao-Contract/contracts/extern/Manageable.sol\":5746:5837  function manager() public view virtual returns (address) {\r... */\n    tag_7:\n      callvalue\n      dup1\n      iszero\n      tag_45\n      jumpi\n      0x00\n      dup1\n      revert\n    tag_45:\n      pop\n      tag_46\n      tag_47\n      jump\t// in\n    tag_46:\n      mload(0x40)\n      tag_48\n      swap2\n      swap1\n      tag_30\n      jump\t// in\n    tag_48:\n      mload(0x40)\n      dup1\n      swap2\n      sub\n      swap1\n      return\n        /* \"ArbitrageDao-Contract/contracts/extern/Manageable.sol\":4128:4260  function claimOwnership() external onlyPendingOwner {\r... */\n    tag_8:\n      callvalue\n      dup1\n      iszero\n      tag_49\n      jumpi\n      0x00\n      dup1\n      revert\n    tag_49:\n      pop\n      tag_50\n      tag_51\n      jump\t// in\n    tag_50:\n      stop\n        /* \"ArbitrageDao-Contract/contracts/extern/Manageable.sol\":3469:3565  function renounceOwnership() external virtual onlyOwner {\r... */\n    tag_9:\n      callvalue\n      dup1\n      iszero\n      tag_52\n      jumpi\n      0x00\n      dup1\n      revert\n    tag_52:\n      pop\n      tag_53\n      tag_54\n      jump\t// in\n    tag_53:\n      stop\n        /* \"ArbitrageDao-Contract/contracts/ArbitrageUniV3.sol\":3663:4450  function closePostion(\r... */\n    tag_10:\n      callvalue\n      dup1\n      iszero\n      tag_55\n      jumpi\n      0x00\n      dup1\n      revert\n    tag_55:\n      pop\n      tag_56\n      0x04\n      dup1\n      calldatasize\n      sub\n      dup2\n      add\n      swap1\n      tag_57\n      swap2\n      swap1\n      tag_42\n      jump\t// in\n    tag_57:\n      tag_58\n      jump\t// in\n    tag_56:\n      mload(0x40)\n      tag_59\n      swap2\n      swap1\n      tag_25\n      jump\t// in\n    tag_59:\n      mload(0x40)\n      dup1\n      swap2\n      sub\n      swap1\n      return\n        /* \"ArbitrageDao-Contract/contracts/extern/Manageable.sol\":2755:2842  function owner() public view virtual returns (address) {\r... */\n    tag_11:\n      callvalue\n      dup1\n      iszero\n      tag_60\n      jumpi\n      0x00\n      dup1\n      revert\n    tag_60:\n      pop\n      tag_61\n      tag_62\n      jump\t// in\n    tag_61:\n      mload(0x40)\n      tag_63\n      swap2\n      swap1\n      tag_30\n      jump\t// in\n    tag_63:\n      mload(0x40)\n      dup1\n      swap2\n      sub\n      swap1\n      return\n        /* \"ArbitrageDao-Contract/contracts/ArbitrageUniV3.sol\":2058:2464  function deposit(uint256 amount) external override payable returns (uint256 depositAmount) {\r... */\n    tag_12:\n      tag_64\n      0x04\n      dup1\n      calldatasize\n      sub\n      dup2\n      add\n      swap1\n      tag_65\n      swap2\n      swap1\n      tag_66\n      jump\t// in\n    tag_65:\n      tag_67\n      jump\t// in\n    tag_64:\n      mload(0x40)\n      tag_68\n      swap2\n      swap1\n      tag_25\n      jump\t// in\n    tag_68:\n      mload(0x40)\n      dup1\n      swap2\n      sub\n      swap1\n      return\n        /* \"ArbitrageDao-Contract/contracts/ArbitrageUniV3.sol\":555:596  mapping(address => uint256) public shares */\n    tag_13:\n      callvalue\n      dup1\n      iszero\n      tag_69\n      jumpi\n      0x00\n      dup1\n      revert\n    tag_69:\n      pop\n      tag_70\n      0x04\n      dup1\n      calldatasize\n      sub\n      dup2\n      add\n      swap1\n      tag_71\n      swap2\n      swap1\n      tag_72\n      jump\t// in\n    tag_71:\n      tag_73\n      jump\t// in\n    tag_70:\n      mload(0x40)\n      tag_74\n      swap2\n      swap1\n      tag_25\n      jump\t// in\n    tag_74:\n      mload(0x40)\n      dup1\n      swap2\n      sub\n      swap1\n      return\n        /* \"ArbitrageDao-Contract/contracts/extern/Manageable.sol\":2963:3066  function pendingOwner() external view virtual returns (address) {\r... */\n    tag_14:\n      callvalue\n      dup1\n      iszero\n      tag_75\n      jumpi\n      0x00\n      dup1\n      revert\n    tag_75:\n      pop\n      tag_76\n      tag_77\n      jump\t// in\n    tag_76:\n      mload(0x40)\n      tag_78\n      swap2\n      swap1\n      tag_30\n      jump\t// in\n    tag_78:\n      mload(0x40)\n      dup1\n      swap2\n      sub\n      swap1\n      return\n        /* \"ArbitrageDao-Contract/contracts/extern/Manageable.sol\":3720:3960  function transferOwnership(address _newOwner) external onlyOwner {\r... */\n    tag_15:\n      callvalue\n      dup1\n      iszero\n      tag_79\n      jumpi\n      0x00\n      dup1\n      revert\n    tag_79:\n      pop\n      tag_80\n      0x04\n      dup1\n      calldatasize\n      sub\n      dup2\n      add\n      swap1\n      tag_81\n      swap2\n      swap1\n      tag_72\n      jump\t// in\n    tag_81:\n      tag_82\n      jump\t// in\n    tag_80:\n      stop\n        /* \"ArbitrageDao-Contract/contracts/ArbitrageUniV3.sol\":500:522  address public  router */\n    tag_16:\n      callvalue\n      dup1\n      iszero\n      tag_83\n      jumpi\n      0x00\n      dup1\n      revert\n    tag_83:\n      pop\n      tag_84\n      tag_85\n      jump\t// in\n    tag_84:\n      mload(0x40)\n      tag_86\n      swap2\n      swap1\n      tag_30\n      jump\t// in\n    tag_86:\n      mload(0x40)\n      dup1\n      swap2\n      sub\n      swap1\n      return\n        /* \"ArbitrageDao-Contract/contracts/ArbitrageUniV3.sol\":636:660  uint256 public org_stock */\n    tag_17:\n      callvalue\n      dup1\n      iszero\n      tag_87\n      jumpi\n      0x00\n      dup1\n      revert\n    tag_87:\n      pop\n      tag_88\n      tag_89\n      jump\t// in\n    tag_88:\n      mload(0x40)\n      tag_90\n      swap2\n      swap1\n      tag_25\n      jump\t// in\n    tag_90:\n      mload(0x40)\n      dup1\n      swap2\n      sub\n      swap1\n      return\n        /* \"ArbitrageDao-Contract/contracts/ArbitrageUniV3.sol\":667:693  uint256 public stock_index */\n    tag_23:\n      sload(0x08)\n      dup2\n      jump\t// out\n        /* \"ArbitrageDao-Contract/contracts/ArbitrageUniV3.sol\":529:548  address public pool */\n    tag_28:\n      0x04\n      0x00\n      swap1\n      sload\n      swap1\n      0x0100\n      exp\n      swap1\n      div\n      0xffffffffffffffffffffffffffffffffffffffff\n      and\n      dup2\n      jump\t// out\n        /* \"ArbitrageDao-Contract/contracts/ArbitrageUniV3.sol\":2472:2888  function withdraw() external override returns (uint256 withdrawAmount){\r... */\n    tag_33:\n        /* \"ArbitrageDao-Contract/contracts/ArbitrageUniV3.sol\":2519:2541  uint256 withdrawAmount */\n      0x00\n        /* \"ArbitrageDao-Contract/contracts/ArbitrageUniV3.sol\":2553:2566  uint256 share */\n      dup1\n        /* \"ArbitrageDao-Contract/contracts/ArbitrageUniV3.sol\":2569:2575  shares */\n      0x05\n        /* \"ArbitrageDao-Contract/contracts/ArbitrageUniV3.sol\":2569:2587  shares[msg.sender] */\n      0x00\n        /* \"ArbitrageDao-Contract/contracts/ArbitrageUniV3.sol\":2576:2586  msg.sender */\n      caller\n        /* \"ArbitrageDao-Contract/contracts/ArbitrageUniV3.sol\":2569:2587  shares[msg.sender] */\n      0xffffffffffffffffffffffffffffffffffffffff\n      and\n      0xffffffffffffffffffffffffffffffffffffffff\n      and\n      dup2\n      mstore\n      0x20\n      add\n      swap1\n      dup2\n      mstore\n      0x20\n      add\n      0x00\n      keccak256\n      sload\n        /* \"ArbitrageDao-Contract/contracts/ArbitrageUniV3.sol\":2553:2587  uint256 share = shares[msg.sender] */\n      swap1\n      pop\n        /* \"ArbitrageDao-Contract/contracts/ArbitrageUniV3.sol\":2614:2615  0 */\n      0x00\n        /* \"ArbitrageDao-Contract/contracts/ArbitrageUniV3.sol\":2606:2611  share */\n      dup2\n        /* \"ArbitrageDao-Contract/contracts/ArbitrageUniV3.sol\":2606:2615  share > 0 */\n      gt\n        /* \"ArbitrageDao-Contract/contracts/ArbitrageUniV3.sol\":2598:2651  require(share > 0, 'Arbitrage: insufficient balance') */\n      tag_92\n      jumpi\n      mload(0x40)\n      0x08c379a000000000000000000000000000000000000000000000000000000000\n      dup2\n      mstore\n      0x04\n      add\n      tag_93\n      swap1\n      tag_94\n      jump\t// in\n    tag_93:\n      mload(0x40)\n      dup1\n      swap2\n      sub\n      swap1\n      revert\n    tag_92:\n        /* \"ArbitrageDao-Contract/contracts/ArbitrageUniV3.sol\":2662:2676  uint256 amount */\n      0x00\n        /* \"ArbitrageDao-Contract/contracts/ArbitrageUniV3.sol\":2679:2716  share.mul(close_stock).div(org_stock) */\n      tag_95\n        /* \"ArbitrageDao-Contract/contracts/ArbitrageUniV3.sol\":2706:2715  org_stock */\n      sload(0x07)\n        /* \"ArbitrageDao-Contract/contracts/ArbitrageUniV3.sol\":2679:2701  share.mul(close_stock) */\n      tag_96\n        /* \"ArbitrageDao-Contract/contracts/ArbitrageUniV3.sol\":2689:2700  close_stock */\n      sload(0x06)\n        /* \"ArbitrageDao-Contract/contracts/ArbitrageUniV3.sol\":2679:2684  share */\n      dup6\n        /* \"ArbitrageDao-Contract/contracts/ArbitrageUniV3.sol\":2679:2688  share.mul */\n      tag_97\n      swap1\n        /* \"ArbitrageDao-Contract/contracts/ArbitrageUniV3.sol\":2679:2701  share.mul(close_stock) */\n      swap2\n      swap1\n      0xffffffff\n      and\n      jump\t// in\n    tag_96:\n        /* \"ArbitrageDao-Contract/contracts/ArbitrageUniV3.sol\":2679:2705  share.mul(close_stock).div */\n      tag_98\n      swap1\n        /* \"ArbitrageDao-Contract/contracts/ArbitrageUniV3.sol\":2679:2716  share.mul(close_stock).div(org_stock) */\n      swap2\n      swap1\n      0xffffffff\n      and\n      jump\t// in\n    tag_95:\n        /* \"ArbitrageDao-Contract/contracts/ArbitrageUniV3.sol\":2662:2716  uint256 amount = share.mul(close_stock).div(org_stock) */\n      swap1\n      pop\n        /* \"ArbitrageDao-Contract/contracts/ArbitrageUniV3.sol\":2727:2740  address stock */\n      0x00\n        /* \"ArbitrageDao-Contract/contracts/ArbitrageUniV3.sol\":2743:2753  getStock() */\n      tag_99\n        /* \"ArbitrageDao-Contract/contracts/ArbitrageUniV3.sol\":2743:2751  getStock */\n      tag_100\n        /* \"ArbitrageDao-Contract/contracts/ArbitrageUniV3.sol\":2743:2753  getStock() */\n      jump\t// in\n    tag_99:\n        /* \"ArbitrageDao-Contract/contracts/ArbitrageUniV3.sol\":2727:2753  address stock = getStock() */\n      swap1\n      pop\n        /* \"ArbitrageDao-Contract/contracts/ArbitrageUniV3.sol\":2764:2810  IERC20(stock).safeTransfer(msg.sender, amount) */\n      tag_101\n        /* \"ArbitrageDao-Contract/contracts/ArbitrageUniV3.sol\":2791:2801  msg.sender */\n      caller\n        /* \"ArbitrageDao-Contract/contracts/ArbitrageUniV3.sol\":2803:2809  amount */\n      dup4\n        /* \"ArbitrageDao-Contract/contracts/ArbitrageUniV3.sol\":2771:2776  stock */\n      dup4\n        /* \"ArbitrageDao-Contract/contracts/ArbitrageUniV3.sol\":2764:2790  IERC20(stock).safeTransfer */\n      0xffffffffffffffffffffffffffffffffffffffff\n      and\n      tag_102\n      swap1\n        /* \"ArbitrageDao-Contract/contracts/ArbitrageUniV3.sol\":2764:2810  IERC20(stock).safeTransfer(msg.sender, amount) */\n      swap3\n      swap2\n      swap1\n      0xffffffff\n      and\n      jump\t// in\n    tag_101:\n        /* \"ArbitrageDao-Contract/contracts/ArbitrageUniV3.sol\":2835:2845  msg.sender */\n      caller\n        /* \"ArbitrageDao-Contract/contracts/ArbitrageUniV3.sol\":2826:2854  Withdraw(msg.sender, amount) */\n      0xffffffffffffffffffffffffffffffffffffffff\n      and\n      0x884edad9ce6fa2440d8a54cc123490eb96d2768479d49ff9c7366125a9424364\n        /* \"ArbitrageDao-Contract/contracts/ArbitrageUniV3.sol\":2847:2853  amount */\n      dup4\n        /* \"ArbitrageDao-Contract/contracts/ArbitrageUniV3.sol\":2826:2854  Withdraw(msg.sender, amount) */\n      mload(0x40)\n      tag_103\n      swap2\n      swap1\n      tag_25\n      jump\t// in\n    tag_103:\n      mload(0x40)\n      dup1\n      swap2\n      sub\n      swap1\n      log2\n        /* \"ArbitrageDao-Contract/contracts/ArbitrageUniV3.sol\":2874:2880  amount */\n      dup2\n        /* \"ArbitrageDao-Contract/contracts/ArbitrageUniV3.sol\":2867:2880  return amount */\n      swap4\n      pop\n      pop\n      pop\n      pop\n        /* \"ArbitrageDao-Contract/contracts/ArbitrageUniV3.sol\":2472:2888  function withdraw() external override returns (uint256 withdrawAmount){\r... */\n      swap1\n      jump\t// out\n        /* \"ArbitrageDao-Contract/contracts/ArbitrageUniV3.sol\":603:629  uint256 public close_stock */\n    tag_37:\n      sload(0x06)\n      dup2\n      jump\t// out\n        /* \"ArbitrageDao-Contract/contracts/ArbitrageUniV3.sol\":2896:3655  function openPostion(\r... */\n    tag_43:\n        /* \"ArbitrageDao-Contract/contracts/ArbitrageUniV3.sol\":3022:3036  uint256 amount */\n      0x00\n        /* \"ArbitrageDao-Contract/contracts/ArbitrageUniV3.sol\":3086:3087  0 */\n      dup1\n        /* \"ArbitrageDao-Contract/contracts/ArbitrageUniV3.sol\":3067:3083  amountOutMinimum */\n      dup4\n        /* \"ArbitrageDao-Contract/contracts/ArbitrageUniV3.sol\":3067:3087  amountOutMinimum > 0 */\n      gt\n        /* \"ArbitrageDao-Contract/contracts/ArbitrageUniV3.sol\":3059:3121  require(amountOutMinimum > 0, \"Invalid minimum output amount\") */\n      tag_105\n      jumpi\n      mload(0x40)\n      0x08c379a000000000000000000000000000000000000000000000000000000000\n      dup2\n      mstore\n      0x04\n      add\n      tag_106\n      swap1\n      tag_107\n      jump\t// in\n    tag_106:\n      mload(0x40)\n      dup1\n      swap2\n      sub\n      swap1\n      revert\n    tag_105:\n        /* \"ArbitrageDao-Contract/contracts/ArbitrageUniV3.sol\":3132:3145  address stock */\n      0x00\n        /* \"ArbitrageDao-Contract/contracts/ArbitrageUniV3.sol\":3148:3158  getStock() */\n      tag_108\n        /* \"ArbitrageDao-Contract/contracts/ArbitrageUniV3.sol\":3148:3156  getStock */\n      tag_100\n        /* \"ArbitrageDao-Contract/contracts/ArbitrageUniV3.sol\":3148:3158  getStock() */\n      jump\t// in\n    tag_108:\n        /* \"ArbitrageDao-Contract/contracts/ArbitrageUniV3.sol\":3132:3158  address stock = getStock() */\n      swap1\n      pop\n        /* \"ArbitrageDao-Contract/contracts/ArbitrageUniV3.sol\":3169:3182  address money */\n      0x00\n        /* \"ArbitrageDao-Contract/contracts/ArbitrageUniV3.sol\":3185:3195  getStock() */\n      tag_109\n        /* \"ArbitrageDao-Contract/contracts/ArbitrageUniV3.sol\":3185:3193  getStock */\n      tag_100\n        /* \"ArbitrageDao-Contract/contracts/ArbitrageUniV3.sol\":3185:3195  getStock() */\n      jump\t// in\n    tag_109:\n        /* \"ArbitrageDao-Contract/contracts/ArbitrageUniV3.sol\":3169:3195  address money = getStock() */\n      swap1\n      pop\n        /* \"ArbitrageDao-Contract/contracts/ArbitrageUniV3.sol\":3206:3216  uint24 fee */\n      0x00\n        /* \"ArbitrageDao-Contract/contracts/ArbitrageUniV3.sol\":3234:3238  pool */\n      0x04\n      0x00\n      swap1\n      sload\n      swap1\n      0x0100\n      exp\n      swap1\n      div\n      0xffffffffffffffffffffffffffffffffffffffff\n      and\n        /* \"ArbitrageDao-Contract/contracts/ArbitrageUniV3.sol\":3219:3243  IUniswapV3Pool(pool).fee */\n      0xffffffffffffffffffffffffffffffffffffffff\n      and\n      0xddca3f43\n        /* \"ArbitrageDao-Contract/contracts/ArbitrageUniV3.sol\":3219:3245  IUniswapV3Pool(pool).fee() */\n      mload(0x40)\n      dup2\n      0xffffffff\n      and\n      0xe0\n      shl\n      dup2\n      mstore\n      0x04\n      add\n      0x20\n      mload(0x40)\n      dup1\n      dup4\n      sub\n      dup2\n      dup7\n      dup1\n      extcodesize\n      iszero\n      dup1\n      iszero\n      tag_110\n      jumpi\n      0x00\n      dup1\n      revert\n    tag_110:\n      pop\n      gas\n      staticcall\n      iszero\n      dup1\n      iszero\n      tag_112\n      jumpi\n      returndatasize\n      0x00\n      dup1\n      returndatacopy\n      revert(0x00, returndatasize)\n    tag_112:\n      pop\n      pop\n      pop\n      pop\n      mload(0x40)\n      returndatasize\n      not(0x1f)\n      0x1f\n      dup3\n      add\n      and\n      dup3\n      add\n      dup1\n      0x40\n      mstore\n      pop\n      dup2\n      add\n      swap1\n      tag_113\n      swap2\n      swap1\n      tag_114\n      jump\t// in\n    tag_113:\n        /* \"ArbitrageDao-Contract/contracts/ArbitrageUniV3.sol\":3206:3245  uint24 fee = IUniswapV3Pool(pool).fee() */\n      swap1\n      pop\n        /* \"ArbitrageDao-Contract/contracts/ArbitrageUniV3.sol\":3295:3301  router */\n      0x03\n      0x00\n      swap1\n      sload\n      swap1\n      0x0100\n      exp\n      swap1\n      div\n      0xffffffffffffffffffffffffffffffffffffffff\n      and\n        /* \"ArbitrageDao-Contract/contracts/ArbitrageUniV3.sol\":3283:3319  ISwapRouter(router).exactInputSingle */\n      0xffffffffffffffffffffffffffffffffffffffff\n      and\n      0x414bf389\n        /* \"ArbitrageDao-Contract/contracts/ArbitrageUniV3.sol\":3334:3636  ISwapRouter.ExactInputSingleParams(\r... */\n      mload(0x40)\n      dup1\n      0x0100\n      add\n      0x40\n      mstore\n      dup1\n        /* \"ArbitrageDao-Contract/contracts/ArbitrageUniV3.sol\":3387:3392  stock */\n      dup7\n        /* \"ArbitrageDao-Contract/contracts/ArbitrageUniV3.sol\":3334:3636  ISwapRouter.ExactInputSingleParams(\r... */\n      0xffffffffffffffffffffffffffffffffffffffff\n      and\n      dup2\n      mstore\n      0x20\n      add\n        /* \"ArbitrageDao-Contract/contracts/ArbitrageUniV3.sol\":3411:3416  money */\n      dup6\n        /* \"ArbitrageDao-Contract/contracts/ArbitrageUniV3.sol\":3334:3636  ISwapRouter.ExactInputSingleParams(\r... */\n      0xffffffffffffffffffffffffffffffffffffffff\n      and\n      dup2\n      mstore\n      0x20\n      add\n        /* \"ArbitrageDao-Contract/contracts/ArbitrageUniV3.sol\":3435:3438  fee */\n      dup5\n        /* \"ArbitrageDao-Contract/contracts/ArbitrageUniV3.sol\":3334:3636  ISwapRouter.ExactInputSingleParams(\r... */\n      0xffffff\n      and\n      dup2\n      mstore\n      0x20\n      add\n        /* \"ArbitrageDao-Contract/contracts/ArbitrageUniV3.sol\":3465:3469  this */\n      address\n        /* \"ArbitrageDao-Contract/contracts/ArbitrageUniV3.sol\":3334:3636  ISwapRouter.ExactInputSingleParams(\r... */\n      0xffffffffffffffffffffffffffffffffffffffff\n      and\n      dup2\n      mstore\n      0x20\n      add\n        /* \"ArbitrageDao-Contract/contracts/ArbitrageUniV3.sol\":3489:3504  block.timestamp */\n      timestamp\n        /* \"ArbitrageDao-Contract/contracts/ArbitrageUniV3.sol\":3334:3636  ISwapRouter.ExactInputSingleParams(\r... */\n      dup2\n      mstore\n      0x20\n      add\n        /* \"ArbitrageDao-Contract/contracts/ArbitrageUniV3.sol\":3531:3540  org_stock */\n      sload(0x07)\n        /* \"ArbitrageDao-Contract/contracts/ArbitrageUniV3.sol\":3334:3636  ISwapRouter.ExactInputSingleParams(\r... */\n      dup2\n      mstore\n      0x20\n      add\n        /* \"ArbitrageDao-Contract/contracts/ArbitrageUniV3.sol\":3568:3584  amountOutMinimum */\n      dup10\n        /* \"ArbitrageDao-Contract/contracts/ArbitrageUniV3.sol\":3334:3636  ISwapRouter.ExactInputSingleParams(\r... */\n      dup2\n      mstore\n      0x20\n      add\n        /* \"ArbitrageDao-Contract/contracts/ArbitrageUniV3.sol\":3604:3621  sqrtPriceLimitX96 */\n      dup9\n        /* \"ArbitrageDao-Contract/contracts/ArbitrageUniV3.sol\":3334:3636  ISwapRouter.ExactInputSingleParams(\r... */\n      0xffffffffffffffffffffffffffffffffffffffff\n      and\n      dup2\n      mstore\n      pop\n        /* \"ArbitrageDao-Contract/contracts/ArbitrageUniV3.sol\":3283:3647  ISwapRouter(router).exactInputSingle(\r... */\n      mload(0x40)\n      dup3\n      0xffffffff\n      and\n      0xe0\n      shl\n      dup2\n      mstore\n      0x04\n      add\n      tag_115\n      swap2\n      swap1\n      tag_116\n      jump\t// in\n    tag_115:\n      0x20\n      mload(0x40)\n      dup1\n      dup4\n      sub\n      dup2\n      0x00\n      dup8\n      dup1\n      extcodesize\n      iszero\n      dup1\n      iszero\n      tag_117\n      jumpi\n      0x00\n      dup1\n      revert\n    tag_117:\n      pop\n      gas\n      call\n      iszero\n      dup1\n      iszero\n      tag_119\n      jumpi\n      returndatasize\n      0x00\n      dup1\n      returndatacopy\n      revert(0x00, returndatasize)\n    tag_119:\n      pop\n      pop\n      pop\n      pop\n      mload(0x40)\n      returndatasize\n      not(0x1f)\n      0x1f\n      dup3\n      add\n      and\n      dup3\n      add\n      dup1\n      0x40\n      mstore\n      pop\n      dup2\n      add\n      swap1\n      tag_120\n      swap2\n      swap1\n      tag_121\n      jump\t// in\n    tag_120:\n      pop\n        /* \"ArbitrageDao-Contract/contracts/ArbitrageUniV3.sol\":2896:3655  function openPostion(\r... */\n      pop\n      pop\n      pop\n      swap3\n      swap2\n      pop\n      pop\n      jump\t// out\n        /* \"ArbitrageDao-Contract/contracts/extern/Manageable.sol\":5746:5837  function manager() public view virtual returns (address) {\r... */\n    tag_47:\n        /* \"ArbitrageDao-Contract/contracts/extern/Manageable.sol\":5794:5801  address */\n      0x00\n        /* \"ArbitrageDao-Contract/contracts/extern/Manageable.sol\":5821:5829  _manager */\n      0x02\n      0x00\n      swap1\n      sload\n      swap1\n      0x0100\n      exp\n      swap1\n      div\n      0xffffffffffffffffffffffffffffffffffffffff\n      and\n        /* \"ArbitrageDao-Contract/contracts/extern/Manageable.sol\":5814:5829  return _manager */\n      swap1\n      pop\n        /* \"ArbitrageDao-Contract/contracts/extern/Manageable.sol\":5746:5837  function manager() public view virtual returns (address) {\r... */\n      swap1\n      jump\t// out\n        /* \"ArbitrageDao-Contract/contracts/extern/Manageable.sol\":4128:4260  function claimOwnership() external onlyPendingOwner {\r... */\n    tag_51:\n        /* \"ArbitrageDao-Contract/contracts/extern/Manageable.sol\":5062:5075  _pendingOwner */\n      0x01\n      0x00\n      swap1\n      sload\n      swap1\n      0x0100\n      exp\n      swap1\n      div\n      0xffffffffffffffffffffffffffffffffffffffff\n      and\n        /* \"ArbitrageDao-Contract/contracts/extern/Manageable.sol\":5048:5075  msg.sender == _pendingOwner */\n      0xffffffffffffffffffffffffffffffffffffffff\n      and\n        /* \"ArbitrageDao-Contract/contracts/extern/Manageable.sol\":5048:5058  msg.sender */\n      caller\n        /* \"ArbitrageDao-Contract/contracts/extern/Manageable.sol\":5048:5075  msg.sender == _pendingOwner */\n      0xffffffffffffffffffffffffffffffffffffffff\n      and\n      eq\n        /* \"ArbitrageDao-Contract/contracts/extern/Manageable.sol\":5040:5111  require(msg.sender == _pendingOwner, \"Ownable/caller-not-pendingOwner\") */\n      tag_124\n      jumpi\n      mload(0x40)\n      0x08c379a000000000000000000000000000000000000000000000000000000000\n      dup2\n      mstore\n      0x04\n      add\n      tag_125\n      swap1\n      tag_126\n      jump\t// in\n    tag_125:\n      mload(0x40)\n      dup1\n      swap2\n      sub\n      swap1\n      revert\n    tag_124:\n        /* \"ArbitrageDao-Contract/contracts/extern/Manageable.sol\":4191:4215  _setOwner(_pendingOwner) */\n      tag_128\n        /* \"ArbitrageDao-Contract/contracts/extern/Manageable.sol\":4201:4214  _pendingOwner */\n      0x01\n      0x00\n      swap1\n      sload\n      swap1\n      0x0100\n      exp\n      swap1\n      div\n      0xffffffffffffffffffffffffffffffffffffffff\n      and\n        /* \"ArbitrageDao-Contract/contracts/extern/Manageable.sol\":4191:4200  _setOwner */\n      tag_129\n        /* \"ArbitrageDao-Contract/contracts/extern/Manageable.sol\":4191:4215  _setOwner(_pendingOwner) */\n      jump\t// in\n    tag_128:\n        /* \"ArbitrageDao-Contract/contracts/extern/Manageable.sol\":4250:4251  0 */\n      0x00\n        /* \"ArbitrageDao-Contract/contracts/extern/Manageable.sol\":4226:4239  _pendingOwner */\n      0x01\n      0x00\n        /* \"ArbitrageDao-Contract/contracts/extern/Manageable.sol\":4226:4252  _pendingOwner = address(0) */\n      0x0100\n      exp\n      dup2\n      sload\n      dup2\n      0xffffffffffffffffffffffffffffffffffffffff\n      mul\n      not\n      and\n      swap1\n      dup4\n      0xffffffffffffffffffffffffffffffffffffffff\n      and\n      mul\n      or\n      swap1\n      sstore\n      pop\n        /* \"ArbitrageDao-Contract/contracts/extern/Manageable.sol\":4128:4260  function claimOwnership() external onlyPendingOwner {\r... */\n      jump\t// out\n        /* \"ArbitrageDao-Contract/contracts/extern/Manageable.sol\":3469:3565  function renounceOwnership() external virtual onlyOwner {\r... */\n    tag_54:\n        /* \"ArbitrageDao-Contract/contracts/extern/Manageable.sol\":4842:4852  msg.sender */\n      caller\n        /* \"ArbitrageDao-Contract/contracts/extern/Manageable.sol\":4831:4852  owner() == msg.sender */\n      0xffffffffffffffffffffffffffffffffffffffff\n      and\n        /* \"ArbitrageDao-Contract/contracts/extern/Manageable.sol\":4831:4838  owner() */\n      tag_131\n        /* \"ArbitrageDao-Contract/contracts/extern/Manageable.sol\":4831:4836  owner */\n      tag_62\n        /* \"ArbitrageDao-Contract/contracts/extern/Manageable.sol\":4831:4838  owner() */\n      jump\t// in\n    tag_131:\n        /* \"ArbitrageDao-Contract/contracts/extern/Manageable.sol\":4831:4852  owner() == msg.sender */\n      0xffffffffffffffffffffffffffffffffffffffff\n      and\n      eq\n        /* \"ArbitrageDao-Contract/contracts/extern/Manageable.sol\":4823:4881  require(owner() == msg.sender, \"Ownable/caller-not-owner\") */\n      tag_132\n      jumpi\n      mload(0x40)\n      0x08c379a000000000000000000000000000000000000000000000000000000000\n      dup2\n      mstore\n      0x04\n      add\n      tag_133\n      swap1\n      tag_134\n      jump\t// in\n    tag_133:\n      mload(0x40)\n      dup1\n      swap2\n      sub\n      swap1\n      revert\n    tag_132:\n        /* \"ArbitrageDao-Contract/contracts/extern/Manageable.sol\":3536:3557  _setOwner(address(0)) */\n      tag_136\n        /* \"ArbitrageDao-Contract/contracts/extern/Manageable.sol\":3554:3555  0 */\n      0x00\n        /* \"ArbitrageDao-Contract/contracts/extern/Manageable.sol\":3536:3545  _setOwner */\n      tag_129\n        /* \"ArbitrageDao-Contract/contracts/extern/Manageable.sol\":3536:3557  _setOwner(address(0)) */\n      jump\t// in\n    tag_136:\n        /* \"ArbitrageDao-Contract/contracts/extern/Manageable.sol\":3469:3565  function renounceOwnership() external virtual onlyOwner {\r... */\n      jump\t// out\n        /* \"ArbitrageDao-Contract/contracts/ArbitrageUniV3.sol\":3663:4450  function closePostion(\r... */\n    tag_58:\n        /* \"ArbitrageDao-Contract/contracts/ArbitrageUniV3.sol\":3790:3804  uint256 amount */\n      0x00\n        /* \"ArbitrageDao-Contract/contracts/ArbitrageUniV3.sol\":3854:3855  0 */\n      dup1\n        /* \"ArbitrageDao-Contract/contracts/ArbitrageUniV3.sol\":3835:3851  amountOutMinimum */\n      dup4\n        /* \"ArbitrageDao-Contract/contracts/ArbitrageUniV3.sol\":3835:3855  amountOutMinimum > 0 */\n      gt\n        /* \"ArbitrageDao-Contract/contracts/ArbitrageUniV3.sol\":3827:3889  require(amountOutMinimum > 0, \"Invalid minimum output amount\") */\n      tag_138\n      jumpi\n      mload(0x40)\n      0x08c379a000000000000000000000000000000000000000000000000000000000\n      dup2\n      mstore\n      0x04\n      add\n      tag_139\n      swap1\n      tag_107\n      jump\t// in\n    tag_139:\n      mload(0x40)\n      dup1\n      swap2\n      sub\n      swap1\n      revert\n    tag_138:\n        /* \"ArbitrageDao-Contract/contracts/ArbitrageUniV3.sol\":3900:3913  address stock */\n      0x00\n        /* \"ArbitrageDao-Contract/contracts/ArbitrageUniV3.sol\":3916:3926  getStock() */\n      tag_140\n        /* \"ArbitrageDao-Contract/contracts/ArbitrageUniV3.sol\":3916:3924  getStock */\n      tag_100\n        /* \"ArbitrageDao-Contract/contracts/ArbitrageUniV3.sol\":3916:3926  getStock() */\n      jump\t// in\n    tag_140:\n        /* \"ArbitrageDao-Contract/contracts/ArbitrageUniV3.sol\":3900:3926  address stock = getStock() */\n      swap1\n      pop\n        /* \"ArbitrageDao-Contract/contracts/ArbitrageUniV3.sol\":3937:3950  address money */\n      0x00\n        /* \"ArbitrageDao-Contract/contracts/ArbitrageUniV3.sol\":3953:3963  getStock() */\n      tag_141\n        /* \"ArbitrageDao-Contract/contracts/ArbitrageUniV3.sol\":3953:3961  getStock */\n      tag_100\n        /* \"ArbitrageDao-Contract/contracts/ArbitrageUniV3.sol\":3953:3963  getStock() */\n      jump\t// in\n    tag_141:\n        /* \"ArbitrageDao-Contract/contracts/ArbitrageUniV3.sol\":3937:3963  address money = getStock() */\n      swap1\n      pop\n        /* \"ArbitrageDao-Contract/contracts/ArbitrageUniV3.sol\":3974:3984  uint24 fee */\n      0x00\n        /* \"ArbitrageDao-Contract/contracts/ArbitrageUniV3.sol\":4002:4006  pool */\n      0x04\n      0x00\n      swap1\n      sload\n      swap1\n      0x0100\n      exp\n      swap1\n      div\n      0xffffffffffffffffffffffffffffffffffffffff\n      and\n        /* \"ArbitrageDao-Contract/contracts/ArbitrageUniV3.sol\":3987:4011  IUniswapV3Pool(pool).fee */\n      0xffffffffffffffffffffffffffffffffffffffff\n      and\n      0xddca3f43\n        /* \"ArbitrageDao-Contract/contracts/ArbitrageUniV3.sol\":3987:4013  IUniswapV3Pool(pool).fee() */\n      mload(0x40)\n      dup2\n      0xffffffff\n      and\n      0xe0\n      shl\n      dup2\n      mstore\n      0x04\n      add\n      0x20\n      mload(0x40)\n      dup1\n      dup4\n      sub\n      dup2\n      dup7\n      dup1\n      extcodesize\n      iszero\n      dup1\n      iszero\n      tag_142\n      jumpi\n      0x00\n      dup1\n      revert\n    tag_142:\n      pop\n      gas\n      staticcall\n      iszero\n      dup1\n      iszero\n      tag_144\n      jumpi\n      returndatasize\n      0x00\n      dup1\n      returndatacopy\n      revert(0x00, returndatasize)\n    tag_144:\n      pop\n      pop\n      pop\n      pop\n      mload(0x40)\n      returndatasize\n      not(0x1f)\n      0x1f\n      dup3\n      add\n      and\n      dup3\n      add\n      dup1\n      0x40\n      mstore\n      pop\n      dup2\n      add\n      swap1\n      tag_145\n      swap2\n      swap1\n      tag_114\n      jump\t// in\n    tag_145:\n        /* \"ArbitrageDao-Contract/contracts/ArbitrageUniV3.sol\":3974:4013  uint24 fee = IUniswapV3Pool(pool).fee() */\n      swap1\n      pop\n        /* \"ArbitrageDao-Contract/contracts/ArbitrageUniV3.sol\":4061:4067  router */\n      0x03\n      0x00\n      swap1\n      sload\n      swap1\n      0x0100\n      exp\n      swap1\n      div\n      0xffffffffffffffffffffffffffffffffffffffff\n      and\n        /* \"ArbitrageDao-Contract/contracts/ArbitrageUniV3.sol\":4049:4085  ISwapRouter(router).exactInputSingle */\n      0xffffffffffffffffffffffffffffffffffffffff\n      and\n      0x414bf389\n        /* \"ArbitrageDao-Contract/contracts/ArbitrageUniV3.sol\":4100:4431  ISwapRouter.ExactInputSingleParams(\r... */\n      mload(0x40)\n      dup1\n      0x0100\n      add\n      0x40\n      mstore\n      dup1\n        /* \"ArbitrageDao-Contract/contracts/ArbitrageUniV3.sol\":4153:4158  money */\n      dup6\n        /* \"ArbitrageDao-Contract/contracts/ArbitrageUniV3.sol\":4100:4431  ISwapRouter.ExactInputSingleParams(\r... */\n      0xffffffffffffffffffffffffffffffffffffffff\n      and\n      dup2\n      mstore\n      0x20\n      add\n        /* \"ArbitrageDao-Contract/contracts/ArbitrageUniV3.sol\":4177:4182  stock */\n      dup7\n        /* \"ArbitrageDao-Contract/contracts/ArbitrageUniV3.sol\":4100:4431  ISwapRouter.ExactInputSingleParams(\r... */\n      0xffffffffffffffffffffffffffffffffffffffff\n      and\n      dup2\n      mstore\n      0x20\n      add\n        /* \"ArbitrageDao-Contract/contracts/ArbitrageUniV3.sol\":4201:4204  fee */\n      dup5\n        /* \"ArbitrageDao-Contract/contracts/ArbitrageUniV3.sol\":4100:4431  ISwapRouter.ExactInputSingleParams(\r... */\n      0xffffff\n      and\n      dup2\n      mstore\n      0x20\n      add\n        /* \"ArbitrageDao-Contract/contracts/ArbitrageUniV3.sol\":4231:4235  this */\n      address\n        /* \"ArbitrageDao-Contract/contracts/ArbitrageUniV3.sol\":4100:4431  ISwapRouter.ExactInputSingleParams(\r... */\n      0xffffffffffffffffffffffffffffffffffffffff\n      and\n      dup2\n      mstore\n      0x20\n      add\n        /* \"ArbitrageDao-Contract/contracts/ArbitrageUniV3.sol\":4255:4270  block.timestamp */\n      timestamp\n        /* \"ArbitrageDao-Contract/contracts/ArbitrageUniV3.sol\":4100:4431  ISwapRouter.ExactInputSingleParams(\r... */\n      dup2\n      mstore\n      0x20\n      add\n        /* \"ArbitrageDao-Contract/contracts/ArbitrageUniV3.sol\":4304:4309  money */\n      dup6\n        /* \"ArbitrageDao-Contract/contracts/ArbitrageUniV3.sol\":4297:4320  IERC20(money).balanceOf */\n      0xffffffffffffffffffffffffffffffffffffffff\n      and\n      0x70a08231\n        /* \"ArbitrageDao-Contract/contracts/ArbitrageUniV3.sol\":4329:4333  this */\n      address\n        /* \"ArbitrageDao-Contract/contracts/ArbitrageUniV3.sol\":4297:4335  IERC20(money).balanceOf(address(this)) */\n      mload(0x40)\n      dup3\n      0xffffffff\n      and\n      0xe0\n      shl\n      dup2\n      mstore\n      0x04\n      add\n      tag_146\n      swap2\n      swap1\n      tag_30\n      jump\t// in\n    tag_146:\n      0x20\n      mload(0x40)\n      dup1\n      dup4\n      sub\n      dup2\n      dup7\n      dup1\n      extcodesize\n      iszero\n      dup1\n      iszero\n      tag_147\n      jumpi\n      0x00\n      dup1\n      revert\n    tag_147:\n      pop\n      gas\n      staticcall\n      iszero\n      dup1\n      iszero\n      tag_149\n      jumpi\n      returndatasize\n      0x00\n      dup1\n      returndatacopy\n      revert(0x00, returndatasize)\n    tag_149:\n      pop\n      pop\n      pop\n      pop\n      mload(0x40)\n      returndatasize\n      not(0x1f)\n      0x1f\n      dup3\n      add\n      and\n      dup3\n      add\n      dup1\n      0x40\n      mstore\n      pop\n      dup2\n      add\n      swap1\n      tag_150\n      swap2\n      swap1\n      tag_121\n      jump\t// in\n    tag_150:\n        /* \"ArbitrageDao-Contract/contracts/ArbitrageUniV3.sol\":4100:4431  ISwapRouter.ExactInputSingleParams(\r... */\n      dup2\n      mstore\n      0x20\n      add\n        /* \"ArbitrageDao-Contract/contracts/ArbitrageUniV3.sol\":4363:4379  amountOutMinimum */\n      dup10\n        /* \"ArbitrageDao-Contract/contracts/ArbitrageUniV3.sol\":4100:4431  ISwapRouter.ExactInputSingleParams(\r... */\n      dup2\n      mstore\n      0x20\n      add\n        /* \"ArbitrageDao-Contract/contracts/ArbitrageUniV3.sol\":4399:4416  sqrtPriceLimitX96 */\n      dup9\n        /* \"ArbitrageDao-Contract/contracts/ArbitrageUniV3.sol\":4100:4431  ISwapRouter.ExactInputSingleParams(\r... */\n      0xffffffffffffffffffffffffffffffffffffffff\n      and\n      dup2\n      mstore\n      pop\n        /* \"ArbitrageDao-Contract/contracts/ArbitrageUniV3.sol\":4049:4442  ISwapRouter(router).exactInputSingle(\r... */\n      mload(0x40)\n      dup3\n      0xffffffff\n      and\n      0xe0\n      shl\n      dup2\n      mstore\n      0x04\n      add\n      tag_151\n      swap2\n      swap1\n      tag_116\n      jump\t// in\n    tag_151:\n      0x20\n      mload(0x40)\n      dup1\n      dup4\n      sub\n      dup2\n      0x00\n      dup8\n      dup1\n      extcodesize\n      iszero\n      dup1\n      iszero\n      tag_152\n      jumpi\n      0x00\n      dup1\n      revert\n    tag_152:\n      pop\n      gas\n      call\n      iszero\n      dup1\n      iszero\n      tag_154\n      jumpi\n      returndatasize\n      0x00\n      dup1\n      returndatacopy\n      revert(0x00, returndatasize)\n    tag_154:\n      pop\n      pop\n      pop\n      pop\n      mload(0x40)\n      returndatasize\n      not(0x1f)\n      0x1f\n      dup3\n      add\n      and\n      dup3\n      add\n      dup1\n      0x40\n      mstore\n      pop\n      dup2\n      add\n      swap1\n      tag_155\n      swap2\n      swap1\n      tag_121\n      jump\t// in\n    tag_155:\n      pop\n        /* \"ArbitrageDao-Contract/contracts/ArbitrageUniV3.sol\":3663:4450  function closePostion(\r... */\n      pop\n      pop\n      pop\n      swap3\n      swap2\n      pop\n      pop\n      jump\t// out\n        /* \"ArbitrageDao-Contract/contracts/extern/Manageable.sol\":2755:2842  function owner() public view virtual returns (address) {\r... */\n    tag_62:\n        /* \"ArbitrageDao-Contract/contracts/extern/Manageable.sol\":2801:2808  address */\n      0x00\n        /* \"ArbitrageDao-Contract/contracts/extern/Manageable.sol\":2828:2834  _owner */\n      dup1\n      0x00\n      swap1\n      sload\n      swap1\n      0x0100\n      exp\n      swap1\n      div\n      0xffffffffffffffffffffffffffffffffffffffff\n      and\n        /* \"ArbitrageDao-Contract/contracts/extern/Manageable.sol\":2821:2834  return _owner */\n      swap1\n      pop\n        /* \"ArbitrageDao-Contract/contracts/extern/Manageable.sol\":2755:2842  function owner() public view virtual returns (address) {\r... */\n      swap1\n      jump\t// out\n        /* \"ArbitrageDao-Contract/contracts/ArbitrageUniV3.sol\":2058:2464  function deposit(uint256 amount) external override payable returns (uint256 depositAmount) {\r... */\n    tag_67:\n        /* \"ArbitrageDao-Contract/contracts/ArbitrageUniV3.sol\":2126:2147  uint256 depositAmount */\n      0x00\n        /* \"ArbitrageDao-Contract/contracts/ArbitrageUniV3.sol\":2182:2188  amount */\n      dup2\n        /* \"ArbitrageDao-Contract/contracts/ArbitrageUniV3.sol\":2160:2166  shares */\n      0x05\n        /* \"ArbitrageDao-Contract/contracts/ArbitrageUniV3.sol\":2160:2178  shares[msg.sender] */\n      0x00\n        /* \"ArbitrageDao-Contract/contracts/ArbitrageUniV3.sol\":2167:2177  msg.sender */\n      caller\n        /* \"ArbitrageDao-Contract/contracts/ArbitrageUniV3.sol\":2160:2178  shares[msg.sender] */\n      0xffffffffffffffffffffffffffffffffffffffff\n      and\n      0xffffffffffffffffffffffffffffffffffffffff\n      and\n      dup2\n      mstore\n      0x20\n      add\n      swap1\n      dup2\n      mstore\n      0x20\n      add\n      0x00\n      keccak256\n      0x00\n        /* \"ArbitrageDao-Contract/contracts/ArbitrageUniV3.sol\":2160:2188  shares[msg.sender] += amount */\n      dup3\n      dup3\n      sload\n      tag_158\n      swap2\n      swap1\n      tag_159\n      jump\t// in\n    tag_158:\n      swap3\n      pop\n      pop\n      dup2\n      swap1\n      sstore\n      pop\n        /* \"ArbitrageDao-Contract/contracts/ArbitrageUniV3.sol\":2212:2221  msg.value */\n      callvalue\n        /* \"ArbitrageDao-Contract/contracts/ArbitrageUniV3.sol\":2199:2208  org_stock */\n      0x07\n      0x00\n        /* \"ArbitrageDao-Contract/contracts/ArbitrageUniV3.sol\":2199:2221  org_stock += msg.value */\n      dup3\n      dup3\n      sload\n      tag_160\n      swap2\n      swap1\n      tag_159\n      jump\t// in\n    tag_160:\n      swap3\n      pop\n      pop\n      dup2\n      swap1\n      sstore\n      pop\n        /* \"ArbitrageDao-Contract/contracts/ArbitrageUniV3.sol\":2232:2245  address stock */\n      0x00\n        /* \"ArbitrageDao-Contract/contracts/ArbitrageUniV3.sol\":2248:2258  getStock() */\n      tag_161\n        /* \"ArbitrageDao-Contract/contracts/ArbitrageUniV3.sol\":2248:2256  getStock */\n      tag_100\n        /* \"ArbitrageDao-Contract/contracts/ArbitrageUniV3.sol\":2248:2258  getStock() */\n      jump\t// in\n    tag_161:\n        /* \"ArbitrageDao-Contract/contracts/ArbitrageUniV3.sol\":2232:2258  address stock = getStock() */\n      swap1\n      pop\n        /* \"ArbitrageDao-Contract/contracts/ArbitrageUniV3.sol\":2276:2281  stock */\n      dup1\n        /* \"ArbitrageDao-Contract/contracts/ArbitrageUniV3.sol\":2269:2290  IERC20(stock).approve */\n      0xffffffffffffffffffffffffffffffffffffffff\n      and\n      0x095ea7b3\n        /* \"ArbitrageDao-Contract/contracts/ArbitrageUniV3.sol\":2299:2303  this */\n      address\n        /* \"ArbitrageDao-Contract/contracts/ArbitrageUniV3.sol\":2306:2312  amount */\n      dup6\n        /* \"ArbitrageDao-Contract/contracts/ArbitrageUniV3.sol\":2269:2313  IERC20(stock).approve(address(this), amount) */\n      mload(0x40)\n      dup4\n      0xffffffff\n      and\n      0xe0\n      shl\n      dup2\n      mstore\n      0x04\n      add\n      tag_162\n      swap3\n      swap2\n      swap1\n      tag_163\n      jump\t// in\n    tag_162:\n      0x20\n      mload(0x40)\n      dup1\n      dup4\n      sub\n      dup2\n      0x00\n      dup8\n      dup1\n      extcodesize\n      iszero\n      dup1\n      iszero\n      tag_164\n      jumpi\n      0x00\n      dup1\n      revert\n    tag_164:\n      pop\n      gas\n      call\n      iszero\n      dup1\n      iszero\n      tag_166\n      jumpi\n      returndatasize\n      0x00\n      dup1\n      returndatacopy\n      revert(0x00, returndatasize)\n    tag_166:\n      pop\n      pop\n      pop\n      pop\n      mload(0x40)\n      returndatasize\n      not(0x1f)\n      0x1f\n      dup3\n      add\n      and\n      dup3\n      add\n      dup1\n      0x40\n      mstore\n      pop\n      dup2\n      add\n      swap1\n      tag_167\n      swap2\n      swap1\n      tag_168\n      jump\t// in\n    tag_167:\n      pop\n        /* \"ArbitrageDao-Contract/contracts/ArbitrageUniV3.sol\":2324:2389  IERC20(stock).safeTransferFrom(msg.sender, address(this), amount) */\n      tag_169\n        /* \"ArbitrageDao-Contract/contracts/ArbitrageUniV3.sol\":2355:2365  msg.sender */\n      caller\n        /* \"ArbitrageDao-Contract/contracts/ArbitrageUniV3.sol\":2375:2379  this */\n      address\n        /* \"ArbitrageDao-Contract/contracts/ArbitrageUniV3.sol\":2382:2388  amount */\n      dup6\n        /* \"ArbitrageDao-Contract/contracts/ArbitrageUniV3.sol\":2331:2336  stock */\n      dup5\n        /* \"ArbitrageDao-Contract/contracts/ArbitrageUniV3.sol\":2324:2354  IERC20(stock).safeTransferFrom */\n      0xffffffffffffffffffffffffffffffffffffffff\n      and\n      tag_170\n      swap1\n        /* \"ArbitrageDao-Contract/contracts/ArbitrageUniV3.sol\":2324:2389  IERC20(stock).safeTransferFrom(msg.sender, address(this), amount) */\n      swap4\n      swap3\n      swap2\n      swap1\n      0xffffffff\n      and\n      jump\t// in\n    tag_169:\n        /* \"ArbitrageDao-Contract/contracts/ArbitrageUniV3.sol\":2413:2423  msg.sender */\n      caller\n        /* \"ArbitrageDao-Contract/contracts/ArbitrageUniV3.sol\":2405:2432  Deposit(msg.sender, amount) */\n      0xffffffffffffffffffffffffffffffffffffffff\n      and\n      0xe1fffcc4923d04b559f4d29a8bfc6cda04eb5b0d3c460751c2402c5c5cc9109c\n        /* \"ArbitrageDao-Contract/contracts/ArbitrageUniV3.sol\":2425:2431  amount */\n      dup5\n        /* \"ArbitrageDao-Contract/contracts/ArbitrageUniV3.sol\":2405:2432  Deposit(msg.sender, amount) */\n      mload(0x40)\n      tag_171\n      swap2\n      swap1\n      tag_25\n      jump\t// in\n    tag_171:\n      mload(0x40)\n      dup1\n      swap2\n      sub\n      swap1\n      log2\n        /* \"ArbitrageDao-Contract/contracts/ArbitrageUniV3.sol\":2450:2456  amount */\n      dup3\n        /* \"ArbitrageDao-Contract/contracts/ArbitrageUniV3.sol\":2443:2456  return amount */\n      swap2\n      pop\n      pop\n        /* \"ArbitrageDao-Contract/contracts/ArbitrageUniV3.sol\":2058:2464  function deposit(uint256 amount) external override payable returns (uint256 depositAmount) {\r... */\n      swap2\n      swap1\n      pop\n      jump\t// out\n        /* \"ArbitrageDao-Contract/contracts/ArbitrageUniV3.sol\":555:596  mapping(address => uint256) public shares */\n    tag_73:\n      mstore(0x20, 0x05)\n      dup1\n      0x00\n      mstore\n      keccak256(0x00, 0x40)\n      0x00\n      swap2\n      pop\n      swap1\n      pop\n      sload\n      dup2\n      jump\t// out\n        /* \"ArbitrageDao-Contract/contracts/extern/Manageable.sol\":2963:3066  function pendingOwner() external view virtual returns (address) {\r... */\n    tag_77:\n        /* \"ArbitrageDao-Contract/contracts/extern/Manageable.sol\":3018:3025  address */\n      0x00\n        /* \"ArbitrageDao-Contract/contracts/extern/Manageable.sol\":3045:3058  _pendingOwner */\n      0x01\n      0x00\n      swap1\n      sload\n      swap1\n      0x0100\n      exp\n      swap1\n      div\n      0xffffffffffffffffffffffffffffffffffffffff\n      and\n        /* \"ArbitrageDao-Contract/contracts/extern/Manageable.sol\":3038:3058  return _pendingOwner */\n      swap1\n      pop\n        /* \"ArbitrageDao-Contract/contracts/extern/Manageable.sol\":2963:3066  function pendingOwner() external view virtual returns (address) {\r... */\n      swap1\n      jump\t// out\n        /* \"ArbitrageDao-Contract/contracts/extern/Manageable.sol\":3720:3960  function transferOwnership(address _newOwner) external onlyOwner {\r... */\n    tag_82:\n        /* \"ArbitrageDao-Contract/contracts/extern/Manageable.sol\":4842:4852  msg.sender */\n      caller\n        /* \"ArbitrageDao-Contract/contracts/extern/Manageable.sol\":4831:4852  owner() == msg.sender */\n      0xffffffffffffffffffffffffffffffffffffffff\n      and\n        /* \"ArbitrageDao-Contract/contracts/extern/Manageable.sol\":4831:4838  owner() */\n      tag_174\n        /* \"ArbitrageDao-Contract/contracts/extern/Manageable.sol\":4831:4836  owner */\n      tag_62\n        /* \"ArbitrageDao-Contract/contracts/extern/Manageable.sol\":4831:4838  owner() */\n      jump\t// in\n    tag_174:\n        /* \"ArbitrageDao-Contract/contracts/extern/Manageable.sol\":4831:4852  owner() == msg.sender */\n      0xffffffffffffffffffffffffffffffffffffffff\n      and\n      eq\n        /* \"ArbitrageDao-Contract/contracts/extern/Manageable.sol\":4823:4881  require(owner() == msg.sender, \"Ownable/caller-not-owner\") */\n      tag_175\n      jumpi\n      mload(0x40)\n      0x08c379a000000000000000000000000000000000000000000000000000000000\n      dup2\n      mstore\n      0x04\n      add\n      tag_176\n      swap1\n      tag_134\n      jump\t// in\n    tag_176:\n      mload(0x40)\n      dup1\n      swap2\n      sub\n      swap1\n      revert\n    tag_175:\n        /* \"ArbitrageDao-Contract/contracts/extern/Manageable.sol\":3825:3826  0 */\n      0x00\n        /* \"ArbitrageDao-Contract/contracts/extern/Manageable.sol\":3804:3827  _newOwner != address(0) */\n      0xffffffffffffffffffffffffffffffffffffffff\n      and\n        /* \"ArbitrageDao-Contract/contracts/extern/Manageable.sol\":3804:3813  _newOwner */\n      dup2\n        /* \"ArbitrageDao-Contract/contracts/extern/Manageable.sol\":3804:3827  _newOwner != address(0) */\n      0xffffffffffffffffffffffffffffffffffffffff\n      and\n      eq\n      iszero\n        /* \"ArbitrageDao-Contract/contracts/extern/Manageable.sol\":3796:3869  require(_newOwner != address(0), \"Ownable/pendingOwner-not-zero-address\") */\n      tag_178\n      jumpi\n      mload(0x40)\n      0x08c379a000000000000000000000000000000000000000000000000000000000\n      dup2\n      mstore\n      0x04\n      add\n      tag_179\n      swap1\n      tag_180\n      jump\t// in\n    tag_179:\n      mload(0x40)\n      dup1\n      swap2\n      sub\n      swap1\n      revert\n    tag_178:\n        /* \"ArbitrageDao-Contract/contracts/extern/Manageable.sol\":3898:3907  _newOwner */\n      dup1\n        /* \"ArbitrageDao-Contract/contracts/extern/Manageable.sol\":3882:3895  _pendingOwner */\n      0x01\n      0x00\n        /* \"ArbitrageDao-Contract/contracts/extern/Manageable.sol\":3882:3907  _pendingOwner = _newOwner */\n      0x0100\n      exp\n      dup2\n      sload\n      dup2\n      0xffffffffffffffffffffffffffffffffffffffff\n      mul\n      not\n      and\n      swap1\n      dup4\n      0xffffffffffffffffffffffffffffffffffffffff\n      and\n      mul\n      or\n      swap1\n      sstore\n      pop\n        /* \"ArbitrageDao-Contract/contracts/extern/Manageable.sol\":3942:3951  _newOwner */\n      dup1\n        /* \"ArbitrageDao-Contract/contracts/extern/Manageable.sol\":3925:3952  OwnershipOffered(_newOwner) */\n      0xffffffffffffffffffffffffffffffffffffffff\n      and\n      0x239a2ddded15777fa246aed5f7e1a9bc69a39d4eb4a397034d1d85766cca7d4c\n      mload(0x40)\n      mload(0x40)\n      dup1\n      swap2\n      sub\n      swap1\n      log2\n        /* \"ArbitrageDao-Contract/contracts/extern/Manageable.sol\":3720:3960  function transferOwnership(address _newOwner) external onlyOwner {\r... */\n      pop\n      jump\t// out\n        /* \"ArbitrageDao-Contract/contracts/ArbitrageUniV3.sol\":500:522  address public  router */\n    tag_85:\n      0x03\n      0x00\n      swap1\n      sload\n      swap1\n      0x0100\n      exp\n      swap1\n      div\n      0xffffffffffffffffffffffffffffffffffffffff\n      and\n      dup2\n      jump\t// out\n        /* \"ArbitrageDao-Contract/contracts/ArbitrageUniV3.sol\":636:660  uint256 public org_stock */\n    tag_89:\n      sload(0x07)\n      dup2\n      jump\t// out\n        /* \"ArbitrageDao-Contract/contracts/extern/SafeMath.sol\":3435:3533  function mul(uint256 a, uint256 b) internal pure returns (uint256) {\r... */\n    tag_97:\n        /* \"ArbitrageDao-Contract/contracts/extern/SafeMath.sol\":3493:3500  uint256 */\n      0x00\n        /* \"ArbitrageDao-Contract/contracts/extern/SafeMath.sol\":3524:3525  b */\n      dup2\n        /* \"ArbitrageDao-Contract/contracts/extern/SafeMath.sol\":3520:3521  a */\n      dup4\n        /* \"ArbitrageDao-Contract/contracts/extern/SafeMath.sol\":3520:3525  a * b */\n      tag_182\n      swap2\n      swap1\n      tag_183\n      jump\t// in\n    tag_182:\n        /* \"ArbitrageDao-Contract/contracts/extern/SafeMath.sol\":3513:3525  return a * b */\n      swap1\n      pop\n        /* \"ArbitrageDao-Contract/contracts/extern/SafeMath.sol\":3435:3533  function mul(uint256 a, uint256 b) internal pure returns (uint256) {\r... */\n      swap3\n      swap2\n      pop\n      pop\n      jump\t// out\n        /* \"ArbitrageDao-Contract/contracts/extern/SafeMath.sol\":3834:3932  function div(uint256 a, uint256 b) internal pure returns (uint256) {\r... */\n    tag_98:\n        /* \"ArbitrageDao-Contract/contracts/extern/SafeMath.sol\":3892:3899  uint256 */\n      0x00\n        /* \"ArbitrageDao-Contract/contracts/extern/SafeMath.sol\":3923:3924  b */\n      dup2\n        /* \"ArbitrageDao-Contract/contracts/extern/SafeMath.sol\":3919:3920  a */\n      dup4\n        /* \"ArbitrageDao-Contract/contracts/extern/SafeMath.sol\":3919:3924  a / b */\n      tag_185\n      swap2\n      swap1\n      tag_186\n      jump\t// in\n    tag_185:\n        /* \"ArbitrageDao-Contract/contracts/extern/SafeMath.sol\":3912:3924  return a / b */\n      swap1\n      pop\n        /* \"ArbitrageDao-Contract/contracts/extern/SafeMath.sol\":3834:3932  function div(uint256 a, uint256 b) internal pure returns (uint256) {\r... */\n      swap3\n      swap2\n      pop\n      pop\n      jump\t// out\n        /* \"ArbitrageDao-Contract/contracts/ArbitrageUniV3.sol\":1538:1789  function getStock() private view returns(address stock){\r... */\n    tag_100:\n        /* \"ArbitrageDao-Contract/contracts/ArbitrageUniV3.sol\":1579:1592  address stock */\n      0x00\n        /* \"ArbitrageDao-Contract/contracts/ArbitrageUniV3.sol\":1604:1617  address stock */\n      dup1\n        /* \"ArbitrageDao-Contract/contracts/ArbitrageUniV3.sol\":1635:1639  pool */\n      0x04\n      0x00\n      swap1\n      sload\n      swap1\n      0x0100\n      exp\n      swap1\n      div\n      0xffffffffffffffffffffffffffffffffffffffff\n      and\n        /* \"ArbitrageDao-Contract/contracts/ArbitrageUniV3.sol\":1620:1647  IUniswapV3Pool(pool).token0 */\n      0xffffffffffffffffffffffffffffffffffffffff\n      and\n      0x0dfe1681\n        /* \"ArbitrageDao-Contract/contracts/ArbitrageUniV3.sol\":1620:1649  IUniswapV3Pool(pool).token0() */\n      mload(0x40)\n      dup2\n      0xffffffff\n      and\n      0xe0\n      shl\n      dup2\n      mstore\n      0x04\n      add\n      0x20\n      mload(0x40)\n      dup1\n      dup4\n      sub\n      dup2\n      dup7\n      dup1\n      extcodesize\n      iszero\n      dup1\n      iszero\n      tag_188\n      jumpi\n      0x00\n      dup1\n      revert\n    tag_188:\n      pop\n      gas\n      staticcall\n      iszero\n      dup1\n      iszero\n      tag_190\n      jumpi\n      returndatasize\n      0x00\n      dup1\n      returndatacopy\n      revert(0x00, returndatasize)\n    tag_190:\n      pop\n      pop\n      pop\n      pop\n      mload(0x40)\n      returndatasize\n      not(0x1f)\n      0x1f\n      dup3\n      add\n      and\n      dup3\n      add\n      dup1\n      0x40\n      mstore\n      pop\n      dup2\n      add\n      swap1\n      tag_191\n      swap2\n      swap1\n      tag_192\n      jump\t// in\n    tag_191:\n        /* \"ArbitrageDao-Contract/contracts/ArbitrageUniV3.sol\":1604:1649  address stock = IUniswapV3Pool(pool).token0() */\n      swap1\n      pop\n        /* \"ArbitrageDao-Contract/contracts/ArbitrageUniV3.sol\":1679:1680  1 */\n      0x01\n        /* \"ArbitrageDao-Contract/contracts/ArbitrageUniV3.sol\":1664:1675  stock_index */\n      sload(0x08)\n        /* \"ArbitrageDao-Contract/contracts/ArbitrageUniV3.sol\":1664:1680  stock_index == 1 */\n      eq\n        /* \"ArbitrageDao-Contract/contracts/ArbitrageUniV3.sol\":1660:1756  if (stock_index == 1 )\r... */\n      iszero\n      tag_193\n      jumpi\n        /* \"ArbitrageDao-Contract/contracts/ArbitrageUniV3.sol\":1730:1734  pool */\n      0x04\n      0x00\n      swap1\n      sload\n      swap1\n      0x0100\n      exp\n      swap1\n      div\n      0xffffffffffffffffffffffffffffffffffffffff\n      and\n        /* \"ArbitrageDao-Contract/contracts/ArbitrageUniV3.sol\":1715:1742  IUniswapV3Pool(pool).token1 */\n      0xffffffffffffffffffffffffffffffffffffffff\n      and\n      0xd21220a7\n        /* \"ArbitrageDao-Contract/contracts/ArbitrageUniV3.sol\":1715:1744  IUniswapV3Pool(pool).token1() */\n      mload(0x40)\n      dup2\n      0xffffffff\n      and\n      0xe0\n      shl\n      dup2\n      mstore\n      0x04\n      add\n      0x20\n      mload(0x40)\n      dup1\n      dup4\n      sub\n      dup2\n      dup7\n      dup1\n      extcodesize\n      iszero\n      dup1\n      iszero\n      tag_194\n      jumpi\n      0x00\n      dup1\n      revert\n    tag_194:\n      pop\n      gas\n      staticcall\n      iszero\n      dup1\n      iszero\n      tag_196\n      jumpi\n      returndatasize\n      0x00\n      dup1\n      returndatacopy\n      revert(0x00, returndatasize)\n    tag_196:\n      pop\n      pop\n      pop\n      pop\n      mload(0x40)\n      returndatasize\n      not(0x1f)\n      0x1f\n      dup3\n      add\n      and\n      dup3\n      add\n      dup1\n      0x40\n      mstore\n      pop\n      dup2\n      add\n      swap1\n      tag_197\n      swap2\n      swap1\n      tag_192\n      jump\t// in\n    tag_197:\n        /* \"ArbitrageDao-Contract/contracts/ArbitrageUniV3.sol\":1707:1744  stock = IUniswapV3Pool(pool).token1() */\n      swap1\n      pop\n        /* \"ArbitrageDao-Contract/contracts/ArbitrageUniV3.sol\":1660:1756  if (stock_index == 1 )\r... */\n    tag_193:\n        /* \"ArbitrageDao-Contract/contracts/ArbitrageUniV3.sol\":1776:1781  stock */\n      dup1\n        /* \"ArbitrageDao-Contract/contracts/ArbitrageUniV3.sol\":1769:1781  return stock */\n      swap2\n      pop\n      pop\n        /* \"ArbitrageDao-Contract/contracts/ArbitrageUniV3.sol\":1538:1789  function getStock() private view returns(address stock){\r... */\n      swap1\n      jump\t// out\n        /* \"ArbitrageDao-Contract/contracts/extern/SafeERC20.sol\":664:841  function safeTransfer(IERC20 token, address to, uint256 value) internal {\r... */\n    tag_102:\n        /* \"ArbitrageDao-Contract/contracts/extern/SafeERC20.sol\":747:833  _callOptionalReturn(token, abi.encodeWithSelector(token.transfer.selector, to, value)) */\n      tag_199\n        /* \"ArbitrageDao-Contract/contracts/extern/SafeERC20.sol\":767:772  token */\n      dup4\n        /* \"ArbitrageDao-Contract/contracts/extern/SafeERC20.sol\":797:820  token.transfer.selector */\n      shl(0xe0, 0xa9059cbb)\n        /* \"ArbitrageDao-Contract/contracts/extern/SafeERC20.sol\":822:824  to */\n      dup5\n        /* \"ArbitrageDao-Contract/contracts/extern/SafeERC20.sol\":826:831  value */\n      dup5\n        /* \"ArbitrageDao-Contract/contracts/extern/SafeERC20.sol\":774:832  abi.encodeWithSelector(token.transfer.selector, to, value) */\n      add(0x24, mload(0x40))\n      tag_200\n      swap3\n      swap2\n      swap1\n      tag_163\n      jump\t// in\n    tag_200:\n      mload(0x40)\n      0x20\n      dup2\n      dup4\n      sub\n      sub\n      dup2\n      mstore\n      swap1\n      0x40\n      mstore\n      swap1\n      not(0xffffffffffffffffffffffffffffffffffffffffffffffffffffffff)\n      and\n      0x20\n      dup3\n      add\n      dup1\n      mload\n      0xffffffffffffffffffffffffffffffffffffffffffffffffffffffff\n      dup4\n      dup2\n      dup4\n      and\n      or\n      dup4\n      mstore\n      pop\n      pop\n      pop\n      pop\n        /* \"ArbitrageDao-Contract/contracts/extern/SafeERC20.sol\":747:766  _callOptionalReturn */\n      tag_201\n        /* \"ArbitrageDao-Contract/contracts/extern/SafeERC20.sol\":747:833  _callOptionalReturn(token, abi.encodeWithSelector(token.transfer.selector, to, value)) */\n      jump\t// in\n    tag_199:\n        /* \"ArbitrageDao-Contract/contracts/extern/SafeERC20.sol\":664:841  function safeTransfer(IERC20 token, address to, uint256 value) internal {\r... */\n      pop\n      pop\n      pop\n      jump\t// out\n        /* \"ArbitrageDao-Contract/contracts/extern/Manageable.sol\":4462:4640  function _setOwner(address _newOwner) private {\r... */\n    tag_129:\n        /* \"ArbitrageDao-Contract/contracts/extern/Manageable.sol\":4519:4536  address _oldOwner */\n      0x00\n        /* \"ArbitrageDao-Contract/contracts/extern/Manageable.sol\":4539:4545  _owner */\n      dup1\n      0x00\n      swap1\n      sload\n      swap1\n      0x0100\n      exp\n      swap1\n      div\n      0xffffffffffffffffffffffffffffffffffffffff\n      and\n        /* \"ArbitrageDao-Contract/contracts/extern/Manageable.sol\":4519:4545  address _oldOwner = _owner */\n      swap1\n      pop\n        /* \"ArbitrageDao-Contract/contracts/extern/Manageable.sol\":4565:4574  _newOwner */\n      dup2\n        /* \"ArbitrageDao-Contract/contracts/extern/Manageable.sol\":4556:4562  _owner */\n      0x00\n      dup1\n        /* \"ArbitrageDao-Contract/contracts/extern/Manageable.sol\":4556:4574  _owner = _newOwner */\n      0x0100\n      exp\n      dup2\n      sload\n      dup2\n      0xffffffffffffffffffffffffffffffffffffffff\n      mul\n      not\n      and\n      swap1\n      dup4\n      0xffffffffffffffffffffffffffffffffffffffff\n      and\n      mul\n      or\n      swap1\n      sstore\n      pop\n        /* \"ArbitrageDao-Contract/contracts/extern/Manageable.sol\":4622:4631  _newOwner */\n      dup2\n        /* \"ArbitrageDao-Contract/contracts/extern/Manageable.sol\":4590:4632  OwnershipTransferred(_oldOwner, _newOwner) */\n      0xffffffffffffffffffffffffffffffffffffffff\n      and\n        /* \"ArbitrageDao-Contract/contracts/extern/Manageable.sol\":4611:4620  _oldOwner */\n      dup2\n        /* \"ArbitrageDao-Contract/contracts/extern/Manageable.sol\":4590:4632  OwnershipTransferred(_oldOwner, _newOwner) */\n      0xffffffffffffffffffffffffffffffffffffffff\n      and\n      0x8be0079c531659141344cd1fd0a4f28419497f9722a3daafe3b4186f6b6457e0\n      mload(0x40)\n      mload(0x40)\n      dup1\n      swap2\n      sub\n      swap1\n      log3\n        /* \"ArbitrageDao-Contract/contracts/extern/Manageable.sol\":4462:4640  function _setOwner(address _newOwner) private {\r... */\n      pop\n      pop\n      jump\t// out\n        /* \"ArbitrageDao-Contract/contracts/extern/SafeERC20.sol\":849:1054  function safeTransferFrom(IERC20 token, address from, address to, uint256 value) internal {\r... */\n    tag_170:\n        /* \"ArbitrageDao-Contract/contracts/extern/SafeERC20.sol\":950:1046  _callOptionalReturn(token, abi.encodeWithSelector(token.transferFrom.selector, from, to, value)) */\n      tag_204\n        /* \"ArbitrageDao-Contract/contracts/extern/SafeERC20.sol\":970:975  token */\n      dup5\n        /* \"ArbitrageDao-Contract/contracts/extern/SafeERC20.sol\":1000:1027  token.transferFrom.selector */\n      shl(0xe0, 0x23b872dd)\n        /* \"ArbitrageDao-Contract/contracts/extern/SafeERC20.sol\":1029:1033  from */\n      dup6\n        /* \"ArbitrageDao-Contract/contracts/extern/SafeERC20.sol\":1035:1037  to */\n      dup6\n        /* \"ArbitrageDao-Contract/contracts/extern/SafeERC20.sol\":1039:1044  value */\n      dup6\n        /* \"ArbitrageDao-Contract/contracts/extern/SafeERC20.sol\":977:1045  abi.encodeWithSelector(token.transferFrom.selector, from, to, value) */\n      add(0x24, mload(0x40))\n      tag_205\n      swap4\n      swap3\n      swap2\n      swap1\n      tag_206\n      jump\t// in\n    tag_205:\n      mload(0x40)\n      0x20\n      dup2\n      dup4\n      sub\n      sub\n      dup2\n      mstore\n      swap1\n      0x40\n      mstore\n      swap1\n      not(0xffffffffffffffffffffffffffffffffffffffffffffffffffffffff)\n      and\n      0x20\n      dup3\n      add\n      dup1\n      mload\n      0xffffffffffffffffffffffffffffffffffffffffffffffffffffffff\n      dup4\n      dup2\n      dup4\n      and\n      or\n      dup4\n      mstore\n      pop\n      pop\n      pop\n      pop\n        /* \"ArbitrageDao-Contract/contracts/extern/SafeERC20.sol\":950:969  _callOptionalReturn */\n      tag_201\n        /* \"ArbitrageDao-Contract/contracts/extern/SafeERC20.sol\":950:1046  _callOptionalReturn(token, abi.encodeWithSelector(token.transferFrom.selector, from, to, value)) */\n      jump\t// in\n    tag_204:\n        /* \"ArbitrageDao-Contract/contracts/extern/SafeERC20.sol\":849:1054  function safeTransferFrom(IERC20 token, address from, address to, uint256 value) internal {\r... */\n      pop\n      pop\n      pop\n      pop\n      jump\t// out\n        /* \"ArbitrageDao-Contract/contracts/extern/SafeERC20.sol\":3544:4260  function _callOptionalReturn(IERC20 token, bytes memory data) private {\r... */\n    tag_201:\n        /* \"ArbitrageDao-Contract/contracts/extern/SafeERC20.sol\":3968:3991  bytes memory returndata */\n      0x00\n        /* \"ArbitrageDao-Contract/contracts/extern/SafeERC20.sol\":3994:4063  address(token).functionCall(data, \"SafeERC20: low-level call failed\") */\n      tag_208\n        /* \"ArbitrageDao-Contract/contracts/extern/SafeERC20.sol\":4022:4026  data */\n      dup3\n        /* \"ArbitrageDao-Contract/contracts/extern/SafeERC20.sol\":3994:4063  address(token).functionCall(data, \"SafeERC20: low-level call failed\") */\n      mload(0x40)\n      dup1\n      0x40\n      add\n      0x40\n      mstore\n      dup1\n      0x20\n      dup2\n      mstore\n      0x20\n      add\n      0x5361666545524332303a206c6f772d6c6576656c2063616c6c206661696c6564\n      dup2\n      mstore\n      pop\n        /* \"ArbitrageDao-Contract/contracts/extern/SafeERC20.sol\":4002:4007  token */\n      dup6\n        /* \"ArbitrageDao-Contract/contracts/extern/SafeERC20.sol\":3994:4021  address(token).functionCall */\n      0xffffffffffffffffffffffffffffffffffffffff\n      and\n      tag_209\n      swap1\n        /* \"ArbitrageDao-Contract/contracts/extern/SafeERC20.sol\":3994:4063  address(token).functionCall(data, \"SafeERC20: low-level call failed\") */\n      swap3\n      swap2\n      swap1\n      0xffffffff\n      and\n      jump\t// in\n    tag_208:\n        /* \"ArbitrageDao-Contract/contracts/extern/SafeERC20.sol\":3968:4063  bytes memory returndata = address(token).functionCall(data, \"SafeERC20: low-level call failed\") */\n      swap1\n      pop\n        /* \"ArbitrageDao-Contract/contracts/extern/SafeERC20.sol\":4098:4099  0 */\n      0x00\n        /* \"ArbitrageDao-Contract/contracts/extern/SafeERC20.sol\":4078:4088  returndata */\n      dup2\n        /* \"ArbitrageDao-Contract/contracts/extern/SafeERC20.sol\":4078:4095  returndata.length */\n      mload\n        /* \"ArbitrageDao-Contract/contracts/extern/SafeERC20.sol\":4078:4099  returndata.length > 0 */\n      gt\n        /* \"ArbitrageDao-Contract/contracts/extern/SafeERC20.sol\":4074:4253  if (returndata.length > 0) {\r... */\n      iszero\n      tag_210\n      jumpi\n        /* \"ArbitrageDao-Contract/contracts/extern/SafeERC20.sol\":4175:4185  returndata */\n      dup1\n        /* \"ArbitrageDao-Contract/contracts/extern/SafeERC20.sol\":4164:4194  abi.decode(returndata, (bool)) */\n      dup1\n      0x20\n      add\n      swap1\n      mload\n      dup2\n      add\n      swap1\n      tag_211\n      swap2\n      swap1\n      tag_168\n      jump\t// in\n    tag_211:\n        /* \"ArbitrageDao-Contract/contracts/extern/SafeERC20.sol\":4156:4241  require(abi.decode(returndata, (bool)), \"SafeERC20: ERC20 operation did not succeed\") */\n      tag_212\n      jumpi\n      mload(0x40)\n      0x08c379a000000000000000000000000000000000000000000000000000000000\n      dup2\n      mstore\n      0x04\n      add\n      tag_213\n      swap1\n      tag_214\n      jump\t// in\n    tag_213:\n      mload(0x40)\n      dup1\n      swap2\n      sub\n      swap1\n      revert\n    tag_212:\n        /* \"ArbitrageDao-Contract/contracts/extern/SafeERC20.sol\":4074:4253  if (returndata.length > 0) {\r... */\n    tag_210:\n        /* \"ArbitrageDao-Contract/contracts/extern/SafeERC20.sol\":3544:4260  function _callOptionalReturn(IERC20 token, bytes memory data) private {\r... */\n      pop\n      pop\n      pop\n      jump\t// out\n        /* \"ArbitrageDao-Contract/contracts/extern/Address.sol\":4184:4413  function functionCall(\r... */\n    tag_209:\n        /* \"ArbitrageDao-Contract/contracts/extern/Address.sol\":4321:4333  bytes memory */\n      0x60\n        /* \"ArbitrageDao-Contract/contracts/extern/Address.sol\":4353:4405  functionCallWithValue(target, data, 0, errorMessage) */\n      tag_216\n        /* \"ArbitrageDao-Contract/contracts/extern/Address.sol\":4375:4381  target */\n      dup5\n        /* \"ArbitrageDao-Contract/contracts/extern/Address.sol\":4383:4387  data */\n      dup5\n        /* \"ArbitrageDao-Contract/contracts/extern/Address.sol\":4389:4390  0 */\n      0x00\n        /* \"ArbitrageDao-Contract/contracts/extern/Address.sol\":4392:4404  errorMessage */\n      dup6\n        /* \"ArbitrageDao-Contract/contracts/extern/Address.sol\":4353:4374  functionCallWithValue */\n      tag_217\n        /* \"ArbitrageDao-Contract/contracts/extern/Address.sol\":4353:4405  functionCallWithValue(target, data, 0, errorMessage) */\n      jump\t// in\n    tag_216:\n        /* \"ArbitrageDao-Contract/contracts/extern/Address.sol\":4346:4405  return functionCallWithValue(target, data, 0, errorMessage) */\n      swap1\n      pop\n        /* \"ArbitrageDao-Contract/contracts/extern/Address.sol\":4184:4413  function functionCall(\r... */\n      swap4\n      swap3\n      pop\n      pop\n      pop\n      jump\t// out\n        /* \"ArbitrageDao-Contract/contracts/extern/Address.sol\":5270:5725  function functionCallWithValue(\r... */\n    tag_217:\n        /* \"ArbitrageDao-Contract/contracts/extern/Address.sol\":5440:5452  bytes memory */\n      0x60\n        /* \"ArbitrageDao-Contract/contracts/extern/Address.sol\":5498:5503  value */\n      dup3\n        /* \"ArbitrageDao-Contract/contracts/extern/Address.sol\":5473:5494  address(this).balance */\n      selfbalance\n        /* \"ArbitrageDao-Contract/contracts/extern/Address.sol\":5473:5503  address(this).balance >= value */\n      lt\n      iszero\n        /* \"ArbitrageDao-Contract/contracts/extern/Address.sol\":5465:5546  require(address(this).balance >= value, \"Address: insufficient balance for call\") */\n      tag_219\n      jumpi\n      mload(0x40)\n      0x08c379a000000000000000000000000000000000000000000000000000000000\n      dup2\n      mstore\n      0x04\n      add\n      tag_220\n      swap1\n      tag_221\n      jump\t// in\n    tag_220:\n      mload(0x40)\n      dup1\n      swap2\n      sub\n      swap1\n      revert\n    tag_219:\n        /* \"ArbitrageDao-Contract/contracts/extern/Address.sol\":5558:5570  bool success */\n      0x00\n        /* \"ArbitrageDao-Contract/contracts/extern/Address.sol\":5572:5595  bytes memory returndata */\n      dup1\n        /* \"ArbitrageDao-Contract/contracts/extern/Address.sol\":5599:5605  target */\n      dup7\n        /* \"ArbitrageDao-Contract/contracts/extern/Address.sol\":5599:5610  target.call */\n      0xffffffffffffffffffffffffffffffffffffffff\n      and\n        /* \"ArbitrageDao-Contract/contracts/extern/Address.sol\":5618:5623  value */\n      dup6\n        /* \"ArbitrageDao-Contract/contracts/extern/Address.sol\":5625:5629  data */\n      dup8\n        /* \"ArbitrageDao-Contract/contracts/extern/Address.sol\":5599:5630  target.call{value: value}(data) */\n      mload(0x40)\n      tag_222\n      swap2\n      swap1\n      tag_223\n      jump\t// in\n    tag_222:\n      0x00\n      mload(0x40)\n      dup1\n      dup4\n      sub\n      dup2\n      dup6\n      dup8\n      gas\n      call\n      swap3\n      pop\n      pop\n      pop\n      returndatasize\n      dup1\n      0x00\n      dup2\n      eq\n      tag_226\n      jumpi\n      mload(0x40)\n      swap2\n      pop\n      and(add(returndatasize, 0x3f), not(0x1f))\n      dup3\n      add\n      0x40\n      mstore\n      returndatasize\n      dup3\n      mstore\n      returndatasize\n      0x00\n      0x20\n      dup5\n      add\n      returndatacopy\n      jump(tag_225)\n    tag_226:\n      0x60\n      swap2\n      pop\n    tag_225:\n      pop\n        /* \"ArbitrageDao-Contract/contracts/extern/Address.sol\":5557:5630  (bool success, bytes memory returndata) = target.call{value: value}(data) */\n      swap2\n      pop\n      swap2\n      pop\n        /* \"ArbitrageDao-Contract/contracts/extern/Address.sol\":5648:5717  verifyCallResultFromTarget(target, success, returndata, errorMessage) */\n      tag_227\n        /* \"ArbitrageDao-Contract/contracts/extern/Address.sol\":5675:5681  target */\n      dup8\n        /* \"ArbitrageDao-Contract/contracts/extern/Address.sol\":5683:5690  success */\n      dup4\n        /* \"ArbitrageDao-Contract/contracts/extern/Address.sol\":5692:5702  returndata */\n      dup4\n        /* \"ArbitrageDao-Contract/contracts/extern/Address.sol\":5704:5716  errorMessage */\n      dup8\n        /* \"ArbitrageDao-Contract/contracts/extern/Address.sol\":5648:5674  verifyCallResultFromTarget */\n      tag_228\n        /* \"ArbitrageDao-Contract/contracts/extern/Address.sol\":5648:5717  verifyCallResultFromTarget(target, success, returndata, errorMessage) */\n      jump\t// in\n    tag_227:\n        /* \"ArbitrageDao-Contract/contracts/extern/Address.sol\":5641:5717  return verifyCallResultFromTarget(target, success, returndata, errorMessage) */\n      swap3\n      pop\n      pop\n      pop\n        /* \"ArbitrageDao-Contract/contracts/extern/Address.sol\":5270:5725  function functionCallWithValue(\r... */\n      swap5\n      swap4\n      pop\n      pop\n      pop\n      pop\n      jump\t// out\n        /* \"ArbitrageDao-Contract/contracts/extern/Address.sol\":7843:8487  function verifyCallResultFromTarget(\r... */\n    tag_228:\n        /* \"ArbitrageDao-Contract/contracts/extern/Address.sol\":8028:8040  bytes memory */\n      0x60\n        /* \"ArbitrageDao-Contract/contracts/extern/Address.sol\":8057:8064  success */\n      dup4\n        /* \"ArbitrageDao-Contract/contracts/extern/Address.sol\":8053:8480  if (success) {\r... */\n      iszero\n      tag_230\n      jumpi\n        /* \"ArbitrageDao-Contract/contracts/extern/Address.sol\":8106:8107  0 */\n      0x00\n        /* \"ArbitrageDao-Contract/contracts/extern/Address.sol\":8085:8095  returndata */\n      dup4\n        /* \"ArbitrageDao-Contract/contracts/extern/Address.sol\":8085:8102  returndata.length */\n      mload\n        /* \"ArbitrageDao-Contract/contracts/extern/Address.sol\":8085:8107  returndata.length == 0 */\n      eq\n        /* \"ArbitrageDao-Contract/contracts/extern/Address.sol\":8081:8371  if (returndata.length == 0) {\r... */\n      iszero\n      tag_231\n      jumpi\n        /* \"ArbitrageDao-Contract/contracts/extern/Address.sol\":8303:8321  isContract(target) */\n      tag_232\n        /* \"ArbitrageDao-Contract/contracts/extern/Address.sol\":8314:8320  target */\n      dup6\n        /* \"ArbitrageDao-Contract/contracts/extern/Address.sol\":8303:8313  isContract */\n      tag_233\n        /* \"ArbitrageDao-Contract/contracts/extern/Address.sol\":8303:8321  isContract(target) */\n      jump\t// in\n    tag_232:\n        /* \"ArbitrageDao-Contract/contracts/extern/Address.sol\":8295:8355  require(isContract(target), \"Address: call to non-contract\") */\n      tag_234\n      jumpi\n      mload(0x40)\n      0x08c379a000000000000000000000000000000000000000000000000000000000\n      dup2\n      mstore\n      0x04\n      add\n      tag_235\n      swap1\n      tag_236\n      jump\t// in\n    tag_235:\n      mload(0x40)\n      dup1\n      swap2\n      sub\n      swap1\n      revert\n    tag_234:\n        /* \"ArbitrageDao-Contract/contracts/extern/Address.sol\":8081:8371  if (returndata.length == 0) {\r... */\n    tag_231:\n        /* \"ArbitrageDao-Contract/contracts/extern/Address.sol\":8392:8402  returndata */\n      dup3\n        /* \"ArbitrageDao-Contract/contracts/extern/Address.sol\":8385:8402  return returndata */\n      swap1\n      pop\n      jump(tag_229)\n        /* \"ArbitrageDao-Contract/contracts/extern/Address.sol\":8053:8480  if (success) {\r... */\n    tag_230:\n        /* \"ArbitrageDao-Contract/contracts/extern/Address.sol\":8435:8468  _revert(returndata, errorMessage) */\n      tag_238\n        /* \"ArbitrageDao-Contract/contracts/extern/Address.sol\":8443:8453  returndata */\n      dup4\n        /* \"ArbitrageDao-Contract/contracts/extern/Address.sol\":8455:8467  errorMessage */\n      dup4\n        /* \"ArbitrageDao-Contract/contracts/extern/Address.sol\":8435:8442  _revert */\n      tag_239\n        /* \"ArbitrageDao-Contract/contracts/extern/Address.sol\":8435:8468  _revert(returndata, errorMessage) */\n      jump\t// in\n    tag_238:\n        /* \"ArbitrageDao-Contract/contracts/extern/Address.sol\":7843:8487  function verifyCallResultFromTarget(\r... */\n    tag_229:\n      swap5\n      swap4\n      pop\n      pop\n      pop\n      pop\n      jump\t// out\n        /* \"ArbitrageDao-Contract/contracts/extern/Address.sol\":1347:1754  function isContract(address account) internal view returns (bool) {\r... */\n    tag_233:\n        /* \"ArbitrageDao-Contract/contracts/extern/Address.sol\":1407:1411  bool */\n      0x00\n        /* \"ArbitrageDao-Contract/contracts/extern/Address.sol\":1635:1647  uint256 size */\n      dup1\n        /* \"ArbitrageDao-Contract/contracts/extern/Address.sol\":1702:1709  account */\n      dup3\n        /* \"ArbitrageDao-Contract/contracts/extern/Address.sol\":1690:1710  extcodesize(account) */\n      extcodesize\n        /* \"ArbitrageDao-Contract/contracts/extern/Address.sol\":1682:1710  size := extcodesize(account) */\n      swap1\n      pop\n        /* \"ArbitrageDao-Contract/contracts/extern/Address.sol\":1745:1746  0 */\n      0x00\n        /* \"ArbitrageDao-Contract/contracts/extern/Address.sol\":1738:1742  size */\n      dup2\n        /* \"ArbitrageDao-Contract/contracts/extern/Address.sol\":1738:1746  size > 0 */\n      gt\n        /* \"ArbitrageDao-Contract/contracts/extern/Address.sol\":1731:1746  return size > 0 */\n      swap2\n      pop\n      pop\n        /* \"ArbitrageDao-Contract/contracts/extern/Address.sol\":1347:1754  function isContract(address account) internal view returns (bool) {\r... */\n      swap2\n      swap1\n      pop\n      jump\t// out\n        /* \"ArbitrageDao-Contract/contracts/extern/Address.sol\":9029:9581  function _revert(bytes memory returndata, string memory errorMessage) private pure {\r... */\n    tag_239:\n        /* \"ArbitrageDao-Contract/contracts/extern/Address.sol\":9210:9211  0 */\n      0x00\n        /* \"ArbitrageDao-Contract/contracts/extern/Address.sol\":9190:9200  returndata */\n      dup3\n        /* \"ArbitrageDao-Contract/contracts/extern/Address.sol\":9190:9207  returndata.length */\n      mload\n        /* \"ArbitrageDao-Contract/contracts/extern/Address.sol\":9190:9211  returndata.length > 0 */\n      gt\n        /* \"ArbitrageDao-Contract/contracts/extern/Address.sol\":9186:9574  if (returndata.length > 0) {\r... */\n      iszero\n      tag_242\n      jumpi\n        /* \"ArbitrageDao-Contract/contracts/extern/Address.sol\":9422:9432  returndata */\n      dup2\n        /* \"ArbitrageDao-Contract/contracts/extern/Address.sol\":9416:9433  mload(returndata) */\n      mload\n        /* \"ArbitrageDao-Contract/contracts/extern/Address.sol\":9479:9494  returndata_size */\n      dup1\n        /* \"ArbitrageDao-Contract/contracts/extern/Address.sol\":9466:9476  returndata */\n      dup4\n        /* \"ArbitrageDao-Contract/contracts/extern/Address.sol\":9462:9464  32 */\n      0x20\n        /* \"ArbitrageDao-Contract/contracts/extern/Address.sol\":9458:9477  add(32, returndata) */\n      add\n        /* \"ArbitrageDao-Contract/contracts/extern/Address.sol\":9451:9495  revert(add(32, returndata), returndata_size) */\n      revert\n        /* \"ArbitrageDao-Contract/contracts/extern/Address.sol\":9374:9510  {\r... */\n    tag_242:\n        /* \"ArbitrageDao-Contract/contracts/extern/Address.sol\":9549:9561  errorMessage */\n      dup1\n        /* \"ArbitrageDao-Contract/contracts/extern/Address.sol\":9542:9562  revert(errorMessage) */\n      mload(0x40)\n      0x08c379a000000000000000000000000000000000000000000000000000000000\n      dup2\n      mstore\n      0x04\n      add\n      tag_244\n      swap2\n      swap1\n      tag_245\n      jump\t// in\n    tag_244:\n      mload(0x40)\n      dup1\n      swap2\n      sub\n      swap1\n      revert\n        /* \"#utility.yul\":7:146   */\n    tag_247:\n      0x00\n        /* \"#utility.yul\":91:97   */\n      dup2\n        /* \"#utility.yul\":78:98   */\n      calldataload\n        /* \"#utility.yul\":69:98   */\n      swap1\n      pop\n        /* \"#utility.yul\":107:140   */\n      tag_249\n        /* \"#utility.yul\":134:139   */\n      dup2\n        /* \"#utility.yul\":107:140   */\n      tag_250\n      jump\t// in\n    tag_249:\n        /* \"#utility.yul\":59:146   */\n      swap3\n      swap2\n      pop\n      pop\n      jump\t// out\n        /* \"#utility.yul\":152:295   */\n    tag_251:\n      0x00\n        /* \"#utility.yul\":240:246   */\n      dup2\n        /* \"#utility.yul\":234:247   */\n      mload\n        /* \"#utility.yul\":225:247   */\n      swap1\n      pop\n        /* \"#utility.yul\":256:289   */\n      tag_253\n        /* \"#utility.yul\":283:288   */\n      dup2\n        /* \"#utility.yul\":256:289   */\n      tag_250\n      jump\t// in\n    tag_253:\n        /* \"#utility.yul\":215:295   */\n      swap3\n      swap2\n      pop\n      pop\n      jump\t// out\n        /* \"#utility.yul\":301:438   */\n    tag_254:\n      0x00\n        /* \"#utility.yul\":386:392   */\n      dup2\n        /* \"#utility.yul\":380:393   */\n      mload\n        /* \"#utility.yul\":371:393   */\n      swap1\n      pop\n        /* \"#utility.yul\":402:432   */\n      tag_256\n        /* \"#utility.yul\":426:431   */\n      dup2\n        /* \"#utility.yul\":402:432   */\n      tag_257\n      jump\t// in\n    tag_256:\n        /* \"#utility.yul\":361:438   */\n      swap3\n      swap2\n      pop\n      pop\n      jump\t// out\n        /* \"#utility.yul\":444:583   */\n    tag_258:\n      0x00\n        /* \"#utility.yul\":528:534   */\n      dup2\n        /* \"#utility.yul\":515:535   */\n      calldataload\n        /* \"#utility.yul\":506:535   */\n      swap1\n      pop\n        /* \"#utility.yul\":544:577   */\n      tag_260\n        /* \"#utility.yul\":571:576   */\n      dup2\n        /* \"#utility.yul\":544:577   */\n      tag_261\n      jump\t// in\n    tag_260:\n        /* \"#utility.yul\":496:583   */\n      swap3\n      swap2\n      pop\n      pop\n      jump\t// out\n        /* \"#utility.yul\":589:730   */\n    tag_262:\n      0x00\n        /* \"#utility.yul\":676:682   */\n      dup2\n        /* \"#utility.yul\":670:683   */\n      mload\n        /* \"#utility.yul\":661:683   */\n      swap1\n      pop\n        /* \"#utility.yul\":692:724   */\n      tag_264\n        /* \"#utility.yul\":718:723   */\n      dup2\n        /* \"#utility.yul\":692:724   */\n      tag_265\n      jump\t// in\n    tag_264:\n        /* \"#utility.yul\":651:730   */\n      swap3\n      swap2\n      pop\n      pop\n      jump\t// out\n        /* \"#utility.yul\":736:875   */\n    tag_266:\n      0x00\n        /* \"#utility.yul\":820:826   */\n      dup2\n        /* \"#utility.yul\":807:827   */\n      calldataload\n        /* \"#utility.yul\":798:827   */\n      swap1\n      pop\n        /* \"#utility.yul\":836:869   */\n      tag_268\n        /* \"#utility.yul\":863:868   */\n      dup2\n        /* \"#utility.yul\":836:869   */\n      tag_269\n      jump\t// in\n    tag_268:\n        /* \"#utility.yul\":788:875   */\n      swap3\n      swap2\n      pop\n      pop\n      jump\t// out\n        /* \"#utility.yul\":881:1024   */\n    tag_270:\n      0x00\n        /* \"#utility.yul\":969:975   */\n      dup2\n        /* \"#utility.yul\":963:976   */\n      mload\n        /* \"#utility.yul\":954:976   */\n      swap1\n      pop\n        /* \"#utility.yul\":985:1018   */\n      tag_272\n        /* \"#utility.yul\":1012:1017   */\n      dup2\n        /* \"#utility.yul\":985:1018   */\n      tag_269\n      jump\t// in\n    tag_272:\n        /* \"#utility.yul\":944:1024   */\n      swap3\n      swap2\n      pop\n      pop\n      jump\t// out\n        /* \"#utility.yul\":1030:1292   */\n    tag_72:\n      0x00\n        /* \"#utility.yul\":1138:1140   */\n      0x20\n        /* \"#utility.yul\":1126:1135   */\n      dup3\n        /* \"#utility.yul\":1117:1124   */\n      dup5\n        /* \"#utility.yul\":1113:1136   */\n      sub\n        /* \"#utility.yul\":1109:1141   */\n      slt\n        /* \"#utility.yul\":1106:1108   */\n      iszero\n      tag_274\n      jumpi\n        /* \"#utility.yul\":1154:1155   */\n      0x00\n        /* \"#utility.yul\":1151:1152   */\n      dup1\n        /* \"#utility.yul\":1144:1156   */\n      revert\n        /* \"#utility.yul\":1106:1108   */\n    tag_274:\n        /* \"#utility.yul\":1197:1198   */\n      0x00\n        /* \"#utility.yul\":1222:1275   */\n      tag_275\n        /* \"#utility.yul\":1267:1274   */\n      dup5\n        /* \"#utility.yul\":1258:1264   */\n      dup3\n        /* \"#utility.yul\":1247:1256   */\n      dup6\n        /* \"#utility.yul\":1243:1265   */\n      add\n        /* \"#utility.yul\":1222:1275   */\n      tag_247\n      jump\t// in\n    tag_275:\n        /* \"#utility.yul\":1212:1275   */\n      swap2\n      pop\n        /* \"#utility.yul\":1168:1285   */\n      pop\n        /* \"#utility.yul\":1096:1292   */\n      swap3\n      swap2\n      pop\n      pop\n      jump\t// out\n        /* \"#utility.yul\":1298:1582   */\n    tag_192:\n      0x00\n        /* \"#utility.yul\":1417:1419   */\n      0x20\n        /* \"#utility.yul\":1405:1414   */\n      dup3\n        /* \"#utility.yul\":1396:1403   */\n      dup5\n        /* \"#utility.yul\":1392:1415   */\n      sub\n        /* \"#utility.yul\":1388:1420   */\n      slt\n        /* \"#utility.yul\":1385:1387   */\n      iszero\n      tag_277\n      jumpi\n        /* \"#utility.yul\":1433:1434   */\n      0x00\n        /* \"#utility.yul\":1430:1431   */\n      dup1\n        /* \"#utility.yul\":1423:1435   */\n      revert\n        /* \"#utility.yul\":1385:1387   */\n    tag_277:\n        /* \"#utility.yul\":1476:1477   */\n      0x00\n        /* \"#utility.yul\":1501:1565   */\n      tag_278\n        /* \"#utility.yul\":1557:1564   */\n      dup5\n        /* \"#utility.yul\":1548:1554   */\n      dup3\n        /* \"#utility.yul\":1537:1546   */\n      dup6\n        /* \"#utility.yul\":1533:1555   */\n      add\n        /* \"#utility.yul\":1501:1565   */\n      tag_251\n      jump\t// in\n    tag_278:\n        /* \"#utility.yul\":1491:1565   */\n      swap2\n      pop\n        /* \"#utility.yul\":1447:1575   */\n      pop\n        /* \"#utility.yul\":1375:1582   */\n      swap3\n      swap2\n      pop\n      pop\n      jump\t// out\n        /* \"#utility.yul\":1588:1866   */\n    tag_168:\n      0x00\n        /* \"#utility.yul\":1704:1706   */\n      0x20\n        /* \"#utility.yul\":1692:1701   */\n      dup3\n        /* \"#utility.yul\":1683:1690   */\n      dup5\n        /* \"#utility.yul\":1679:1702   */\n      sub\n        /* \"#utility.yul\":1675:1707   */\n      slt\n        /* \"#utility.yul\":1672:1674   */\n      iszero\n      tag_280\n      jumpi\n        /* \"#utility.yul\":1720:1721   */\n      0x00\n        /* \"#utility.yul\":1717:1718   */\n      dup1\n        /* \"#utility.yul\":1710:1722   */\n      revert\n        /* \"#utility.yul\":1672:1674   */\n    tag_280:\n        /* \"#utility.yul\":1763:1764   */\n      0x00\n        /* \"#utility.yul\":1788:1849   */\n      tag_281\n        /* \"#utility.yul\":1841:1848   */\n      dup5\n        /* \"#utility.yul\":1832:1838   */\n      dup3\n        /* \"#utility.yul\":1821:1830   */\n      dup6\n        /* \"#utility.yul\":1817:1839   */\n      add\n        /* \"#utility.yul\":1788:1849   */\n      tag_254\n      jump\t// in\n    tag_281:\n        /* \"#utility.yul\":1778:1849   */\n      swap2\n      pop\n        /* \"#utility.yul\":1734:1859   */\n      pop\n        /* \"#utility.yul\":1662:1866   */\n      swap3\n      swap2\n      pop\n      pop\n      jump\t// out\n        /* \"#utility.yul\":1872:2154   */\n    tag_114:\n      0x00\n        /* \"#utility.yul\":1990:1992   */\n      0x20\n        /* \"#utility.yul\":1978:1987   */\n      dup3\n        /* \"#utility.yul\":1969:1976   */\n      dup5\n        /* \"#utility.yul\":1965:1988   */\n      sub\n        /* \"#utility.yul\":1961:1993   */\n      slt\n        /* \"#utility.yul\":1958:1960   */\n      iszero\n      tag_283\n      jumpi\n        /* \"#utility.yul\":2006:2007   */\n      0x00\n        /* \"#utility.yul\":2003:2004   */\n      dup1\n        /* \"#utility.yul\":1996:2008   */\n      revert\n        /* \"#utility.yul\":1958:1960   */\n    tag_283:\n        /* \"#utility.yul\":2049:2050   */\n      0x00\n        /* \"#utility.yul\":2074:2137   */\n      tag_284\n        /* \"#utility.yul\":2129:2136   */\n      dup5\n        /* \"#utility.yul\":2120:2126   */\n      dup3\n        /* \"#utility.yul\":2109:2118   */\n      dup6\n        /* \"#utility.yul\":2105:2127   */\n      add\n        /* \"#utility.yul\":2074:2137   */\n      tag_262\n      jump\t// in\n    tag_284:\n        /* \"#utility.yul\":2064:2137   */\n      swap2\n      pop\n        /* \"#utility.yul\":2020:2147   */\n      pop\n        /* \"#utility.yul\":1948:2154   */\n      swap3\n      swap2\n      pop\n      pop\n      jump\t// out\n        /* \"#utility.yul\":2160:2422   */\n    tag_66:\n      0x00\n        /* \"#utility.yul\":2268:2270   */\n      0x20\n        /* \"#utility.yul\":2256:2265   */\n      dup3\n        /* \"#utility.yul\":2247:2254   */\n      dup5\n        /* \"#utility.yul\":2243:2266   */\n      sub\n        /* \"#utility.yul\":2239:2271   */\n      slt\n        /* \"#utility.yul\":2236:2238   */\n      iszero\n      tag_286\n      jumpi\n        /* \"#utility.yul\":2284:2285   */\n      0x00\n        /* \"#utility.yul\":2281:2282   */\n      dup1\n        /* \"#utility.yul\":2274:2286   */\n      revert\n        /* \"#utility.yul\":2236:2238   */\n    tag_286:\n        /* \"#utility.yul\":2327:2328   */\n      0x00\n        /* \"#utility.yul\":2352:2405   */\n      tag_287\n        /* \"#utility.yul\":2397:2404   */\n      dup5\n        /* \"#utility.yul\":2388:2394   */\n      dup3\n        /* \"#utility.yul\":2377:2386   */\n      dup6\n        /* \"#utility.yul\":2373:2395   */\n      add\n        /* \"#utility.yul\":2352:2405   */\n      tag_266\n      jump\t// in\n    tag_287:\n        /* \"#utility.yul\":2342:2405   */\n      swap2\n      pop\n        /* \"#utility.yul\":2298:2415   */\n      pop\n        /* \"#utility.yul\":2226:2422   */\n      swap3\n      swap2\n      pop\n      pop\n      jump\t// out\n        /* \"#utility.yul\":2428:2712   */\n    tag_121:\n      0x00\n        /* \"#utility.yul\":2547:2549   */\n      0x20\n        /* \"#utility.yul\":2535:2544   */\n      dup3\n        /* \"#utility.yul\":2526:2533   */\n      dup5\n        /* \"#utility.yul\":2522:2545   */\n      sub\n        /* \"#utility.yul\":2518:2550   */\n      slt\n        /* \"#utility.yul\":2515:2517   */\n      iszero\n      tag_289\n      jumpi\n        /* \"#utility.yul\":2563:2564   */\n      0x00\n        /* \"#utility.yul\":2560:2561   */\n      dup1\n        /* \"#utility.yul\":2553:2565   */\n      revert\n        /* \"#utility.yul\":2515:2517   */\n    tag_289:\n        /* \"#utility.yul\":2606:2607   */\n      0x00\n        /* \"#utility.yul\":2631:2695   */\n      tag_290\n        /* \"#utility.yul\":2687:2694   */\n      dup5\n        /* \"#utility.yul\":2678:2684   */\n      dup3\n        /* \"#utility.yul\":2667:2676   */\n      dup6\n        /* \"#utility.yul\":2663:2685   */\n      add\n        /* \"#utility.yul\":2631:2695   */\n      tag_270\n      jump\t// in\n    tag_290:\n        /* \"#utility.yul\":2621:2695   */\n      swap2\n      pop\n        /* \"#utility.yul\":2577:2705   */\n      pop\n        /* \"#utility.yul\":2505:2712   */\n      swap3\n      swap2\n      pop\n      pop\n      jump\t// out\n        /* \"#utility.yul\":2718:3125   */\n    tag_42:\n      0x00\n      dup1\n        /* \"#utility.yul\":2843:2845   */\n      0x40\n        /* \"#utility.yul\":2831:2840   */\n      dup4\n        /* \"#utility.yul\":2822:2829   */\n      dup6\n        /* \"#utility.yul\":2818:2841   */\n      sub\n        /* \"#utility.yul\":2814:2846   */\n      slt\n        /* \"#utility.yul\":2811:2813   */\n      iszero\n      tag_292\n      jumpi\n        /* \"#utility.yul\":2859:2860   */\n      0x00\n        /* \"#utility.yul\":2856:2857   */\n      dup1\n        /* \"#utility.yul\":2849:2861   */\n      revert\n        /* \"#utility.yul\":2811:2813   */\n    tag_292:\n        /* \"#utility.yul\":2902:2903   */\n      0x00\n        /* \"#utility.yul\":2927:2980   */\n      tag_293\n        /* \"#utility.yul\":2972:2979   */\n      dup6\n        /* \"#utility.yul\":2963:2969   */\n      dup3\n        /* \"#utility.yul\":2952:2961   */\n      dup7\n        /* \"#utility.yul\":2948:2970   */\n      add\n        /* \"#utility.yul\":2927:2980   */\n      tag_266\n      jump\t// in\n    tag_293:\n        /* \"#utility.yul\":2917:2980   */\n      swap3\n      pop\n        /* \"#utility.yul\":2873:2990   */\n      pop\n        /* \"#utility.yul\":3029:3031   */\n      0x20\n        /* \"#utility.yul\":3055:3108   */\n      tag_294\n        /* \"#utility.yul\":3100:3107   */\n      dup6\n        /* \"#utility.yul\":3091:3097   */\n      dup3\n        /* \"#utility.yul\":3080:3089   */\n      dup7\n        /* \"#utility.yul\":3076:3098   */\n      add\n        /* \"#utility.yul\":3055:3108   */\n      tag_258\n      jump\t// in\n    tag_294:\n        /* \"#utility.yul\":3045:3108   */\n      swap2\n      pop\n        /* \"#utility.yul\":3000:3118   */\n      pop\n        /* \"#utility.yul\":2801:3125   */\n      swap3\n      pop\n      swap3\n      swap1\n      pop\n      jump\t// out\n        /* \"#utility.yul\":3131:3239   */\n    tag_295:\n        /* \"#utility.yul\":3208:3232   */\n      tag_297\n        /* \"#utility.yul\":3226:3231   */\n      dup2\n        /* \"#utility.yul\":3208:3232   */\n      tag_298\n      jump\t// in\n    tag_297:\n        /* \"#utility.yul\":3203:3206   */\n      dup3\n        /* \"#utility.yul\":3196:3233   */\n      mstore\n        /* \"#utility.yul\":3186:3239   */\n      pop\n      pop\n      jump\t// out\n        /* \"#utility.yul\":3245:3363   */\n    tag_299:\n        /* \"#utility.yul\":3332:3356   */\n      tag_301\n        /* \"#utility.yul\":3350:3355   */\n      dup2\n        /* \"#utility.yul\":3332:3356   */\n      tag_298\n      jump\t// in\n    tag_301:\n        /* \"#utility.yul\":3327:3330   */\n      dup3\n        /* \"#utility.yul\":3320:3357   */\n      mstore\n        /* \"#utility.yul\":3310:3363   */\n      pop\n      pop\n      jump\t// out\n        /* \"#utility.yul\":3369:3742   */\n    tag_302:\n      0x00\n        /* \"#utility.yul\":3501:3539   */\n      tag_304\n        /* \"#utility.yul\":3533:3538   */\n      dup3\n        /* \"#utility.yul\":3501:3539   */\n      tag_305\n      jump\t// in\n    tag_304:\n        /* \"#utility.yul\":3555:3643   */\n      tag_306\n        /* \"#utility.yul\":3636:3642   */\n      dup2\n        /* \"#utility.yul\":3631:3634   */\n      dup6\n        /* \"#utility.yul\":3555:3643   */\n      tag_307\n      jump\t// in\n    tag_306:\n        /* \"#utility.yul\":3548:3643   */\n      swap4\n      pop\n        /* \"#utility.yul\":3652:3704   */\n      tag_308\n        /* \"#utility.yul\":3697:3703   */\n      dup2\n        /* \"#utility.yul\":3692:3695   */\n      dup6\n        /* \"#utility.yul\":3685:3689   */\n      0x20\n        /* \"#utility.yul\":3678:3683   */\n      dup7\n        /* \"#utility.yul\":3674:3690   */\n      add\n        /* \"#utility.yul\":3652:3704   */\n      tag_309\n      jump\t// in\n    tag_308:\n        /* \"#utility.yul\":3729:3735   */\n      dup1\n        /* \"#utility.yul\":3724:3727   */\n      dup5\n        /* \"#utility.yul\":3720:3736   */\n      add\n        /* \"#utility.yul\":3713:3736   */\n      swap2\n      pop\n        /* \"#utility.yul\":3477:3742   */\n      pop\n      swap3\n      swap2\n      pop\n      pop\n      jump\t// out\n        /* \"#utility.yul\":3748:4112   */\n    tag_310:\n      0x00\n        /* \"#utility.yul\":3864:3903   */\n      tag_312\n        /* \"#utility.yul\":3897:3902   */\n      dup3\n        /* \"#utility.yul\":3864:3903   */\n      tag_313\n      jump\t// in\n    tag_312:\n        /* \"#utility.yul\":3919:3990   */\n      tag_314\n        /* \"#utility.yul\":3983:3989   */\n      dup2\n        /* \"#utility.yul\":3978:3981   */\n      dup6\n        /* \"#utility.yul\":3919:3990   */\n      tag_315\n      jump\t// in\n    tag_314:\n        /* \"#utility.yul\":3912:3990   */\n      swap4\n      pop\n        /* \"#utility.yul\":3999:4051   */\n      tag_316\n        /* \"#utility.yul\":4044:4050   */\n      dup2\n        /* \"#utility.yul\":4039:4042   */\n      dup6\n        /* \"#utility.yul\":4032:4036   */\n      0x20\n        /* \"#utility.yul\":4025:4030   */\n      dup7\n        /* \"#utility.yul\":4021:4037   */\n      add\n        /* \"#utility.yul\":3999:4051   */\n      tag_309\n      jump\t// in\n    tag_316:\n        /* \"#utility.yul\":4076:4105   */\n      tag_317\n        /* \"#utility.yul\":4098:4104   */\n      dup2\n        /* \"#utility.yul\":4076:4105   */\n      tag_318\n      jump\t// in\n    tag_317:\n        /* \"#utility.yul\":4071:4074   */\n      dup5\n        /* \"#utility.yul\":4067:4106   */\n      add\n        /* \"#utility.yul\":4060:4106   */\n      swap2\n      pop\n        /* \"#utility.yul\":3840:4112   */\n      pop\n      swap3\n      swap2\n      pop\n      pop\n      jump\t// out\n        /* \"#utility.yul\":4118:4488   */\n    tag_319:\n      0x00\n        /* \"#utility.yul\":4281:4348   */\n      tag_321\n        /* \"#utility.yul\":4345:4347   */\n      0x26\n        /* \"#utility.yul\":4340:4343   */\n      dup4\n        /* \"#utility.yul\":4281:4348   */\n      tag_315\n      jump\t// in\n    tag_321:\n        /* \"#utility.yul\":4274:4348   */\n      swap2\n      pop\n        /* \"#utility.yul\":4378:4412   */\n      0x416464726573733a20696e73756666696369656e742062616c616e636520666f\n        /* \"#utility.yul\":4374:4375   */\n      0x00\n        /* \"#utility.yul\":4369:4372   */\n      dup4\n        /* \"#utility.yul\":4365:4376   */\n      add\n        /* \"#utility.yul\":4358:4413   */\n      mstore\n        /* \"#utility.yul\":4444:4452   */\n      0x722063616c6c0000000000000000000000000000000000000000000000000000\n        /* \"#utility.yul\":4439:4441   */\n      0x20\n        /* \"#utility.yul\":4434:4437   */\n      dup4\n        /* \"#utility.yul\":4430:4442   */\n      add\n        /* \"#utility.yul\":4423:4453   */\n      mstore\n        /* \"#utility.yul\":4479:4481   */\n      0x40\n        /* \"#utility.yul\":4474:4477   */\n      dup3\n        /* \"#utility.yul\":4470:4482   */\n      add\n        /* \"#utility.yul\":4463:4482   */\n      swap1\n      pop\n        /* \"#utility.yul\":4264:4488   */\n      swap2\n      swap1\n      pop\n      jump\t// out\n        /* \"#utility.yul\":4494:4816   */\n    tag_322:\n      0x00\n        /* \"#utility.yul\":4657:4724   */\n      tag_324\n        /* \"#utility.yul\":4721:4723   */\n      0x18\n        /* \"#utility.yul\":4716:4719   */\n      dup4\n        /* \"#utility.yul\":4657:4724   */\n      tag_315\n      jump\t// in\n    tag_324:\n        /* \"#utility.yul\":4650:4724   */\n      swap2\n      pop\n        /* \"#utility.yul\":4754:4780   */\n      0x4f776e61626c652f63616c6c65722d6e6f742d6f776e65720000000000000000\n        /* \"#utility.yul\":4750:4751   */\n      0x00\n        /* \"#utility.yul\":4745:4748   */\n      dup4\n        /* \"#utility.yul\":4741:4752   */\n      add\n        /* \"#utility.yul\":4734:4781   */\n      mstore\n        /* \"#utility.yul\":4807:4809   */\n      0x20\n        /* \"#utility.yul\":4802:4805   */\n      dup3\n        /* \"#utility.yul\":4798:4810   */\n      add\n        /* \"#utility.yul\":4791:4810   */\n      swap1\n      pop\n        /* \"#utility.yul\":4640:4816   */\n      swap2\n      swap1\n      pop\n      jump\t// out\n        /* \"#utility.yul\":4822:5151   */\n    tag_325:\n      0x00\n        /* \"#utility.yul\":4985:5052   */\n      tag_327\n        /* \"#utility.yul\":5049:5051   */\n      0x1f\n        /* \"#utility.yul\":5044:5047   */\n      dup4\n        /* \"#utility.yul\":4985:5052   */\n      tag_315\n      jump\t// in\n    tag_327:\n        /* \"#utility.yul\":4978:5052   */\n      swap2\n      pop\n        /* \"#utility.yul\":5082:5115   */\n      0x4f776e61626c652f63616c6c65722d6e6f742d70656e64696e674f776e657200\n        /* \"#utility.yul\":5078:5079   */\n      0x00\n        /* \"#utility.yul\":5073:5076   */\n      dup4\n        /* \"#utility.yul\":5069:5080   */\n      add\n        /* \"#utility.yul\":5062:5116   */\n      mstore\n        /* \"#utility.yul\":5142:5144   */\n      0x20\n        /* \"#utility.yul\":5137:5140   */\n      dup3\n        /* \"#utility.yul\":5133:5145   */\n      add\n        /* \"#utility.yul\":5126:5145   */\n      swap1\n      pop\n        /* \"#utility.yul\":4968:5151   */\n      swap2\n      swap1\n      pop\n      jump\t// out\n        /* \"#utility.yul\":5157:5486   */\n    tag_328:\n      0x00\n        /* \"#utility.yul\":5320:5387   */\n      tag_330\n        /* \"#utility.yul\":5384:5386   */\n      0x1f\n        /* \"#utility.yul\":5379:5382   */\n      dup4\n        /* \"#utility.yul\":5320:5387   */\n      tag_315\n      jump\t// in\n    tag_330:\n        /* \"#utility.yul\":5313:5387   */\n      swap2\n      pop\n        /* \"#utility.yul\":5417:5450   */\n      0x4172626974726167653a20696e73756666696369656e742062616c616e636500\n        /* \"#utility.yul\":5413:5414   */\n      0x00\n        /* \"#utility.yul\":5408:5411   */\n      dup4\n        /* \"#utility.yul\":5404:5415   */\n      add\n        /* \"#utility.yul\":5397:5451   */\n      mstore\n        /* \"#utility.yul\":5477:5479   */\n      0x20\n        /* \"#utility.yul\":5472:5475   */\n      dup3\n        /* \"#utility.yul\":5468:5480   */\n      add\n        /* \"#utility.yul\":5461:5480   */\n      swap1\n      pop\n        /* \"#utility.yul\":5303:5486   */\n      swap2\n      swap1\n      pop\n      jump\t// out\n        /* \"#utility.yul\":5492:5819   */\n    tag_331:\n      0x00\n        /* \"#utility.yul\":5655:5722   */\n      tag_333\n        /* \"#utility.yul\":5719:5721   */\n      0x1d\n        /* \"#utility.yul\":5714:5717   */\n      dup4\n        /* \"#utility.yul\":5655:5722   */\n      tag_315\n      jump\t// in\n    tag_333:\n        /* \"#utility.yul\":5648:5722   */\n      swap2\n      pop\n        /* \"#utility.yul\":5752:5783   */\n      0x496e76616c6964206d696e696d756d206f757470757420616d6f756e74000000\n        /* \"#utility.yul\":5748:5749   */\n      0x00\n        /* \"#utility.yul\":5743:5746   */\n      dup4\n        /* \"#utility.yul\":5739:5750   */\n      add\n        /* \"#utility.yul\":5732:5784   */\n      mstore\n        /* \"#utility.yul\":5810:5812   */\n      0x20\n        /* \"#utility.yul\":5805:5808   */\n      dup3\n        /* \"#utility.yul\":5801:5813   */\n      add\n        /* \"#utility.yul\":5794:5813   */\n      swap1\n      pop\n        /* \"#utility.yul\":5638:5819   */\n      swap2\n      swap1\n      pop\n      jump\t// out\n        /* \"#utility.yul\":5825:6152   */\n    tag_334:\n      0x00\n        /* \"#utility.yul\":5988:6055   */\n      tag_336\n        /* \"#utility.yul\":6052:6054   */\n      0x1d\n        /* \"#utility.yul\":6047:6050   */\n      dup4\n        /* \"#utility.yul\":5988:6055   */\n      tag_315\n      jump\t// in\n    tag_336:\n        /* \"#utility.yul\":5981:6055   */\n      swap2\n      pop\n        /* \"#utility.yul\":6085:6116   */\n      0x416464726573733a2063616c6c20746f206e6f6e2d636f6e7472616374000000\n        /* \"#utility.yul\":6081:6082   */\n      0x00\n        /* \"#utility.yul\":6076:6079   */\n      dup4\n        /* \"#utility.yul\":6072:6083   */\n      add\n        /* \"#utility.yul\":6065:6117   */\n      mstore\n        /* \"#utility.yul\":6143:6145   */\n      0x20\n        /* \"#utility.yul\":6138:6141   */\n      dup3\n        /* \"#utility.yul\":6134:6146   */\n      add\n        /* \"#utility.yul\":6127:6146   */\n      swap1\n      pop\n        /* \"#utility.yul\":5971:6152   */\n      swap2\n      swap1\n      pop\n      jump\t// out\n        /* \"#utility.yul\":6158:6527   */\n    tag_337:\n      0x00\n        /* \"#utility.yul\":6321:6388   */\n      tag_339\n        /* \"#utility.yul\":6385:6387   */\n      0x25\n        /* \"#utility.yul\":6380:6383   */\n      dup4\n        /* \"#utility.yul\":6321:6388   */\n      tag_315\n      jump\t// in\n    tag_339:\n        /* \"#utility.yul\":6314:6388   */\n      swap2\n      pop\n        /* \"#utility.yul\":6418:6452   */\n      0x4f776e61626c652f70656e64696e674f776e65722d6e6f742d7a65726f2d6164\n        /* \"#utility.yul\":6414:6415   */\n      0x00\n        /* \"#utility.yul\":6409:6412   */\n      dup4\n        /* \"#utility.yul\":6405:6416   */\n      add\n        /* \"#utility.yul\":6398:6453   */\n      mstore\n        /* \"#utility.yul\":6484:6491   */\n      0x6472657373000000000000000000000000000000000000000000000000000000\n        /* \"#utility.yul\":6479:6481   */\n      0x20\n        /* \"#utility.yul\":6474:6477   */\n      dup4\n        /* \"#utility.yul\":6470:6482   */\n      add\n        /* \"#utility.yul\":6463:6492   */\n      mstore\n        /* \"#utility.yul\":6518:6520   */\n      0x40\n        /* \"#utility.yul\":6513:6516   */\n      dup3\n        /* \"#utility.yul\":6509:6521   */\n      add\n        /* \"#utility.yul\":6502:6521   */\n      swap1\n      pop\n        /* \"#utility.yul\":6304:6527   */\n      swap2\n      swap1\n      pop\n      jump\t// out\n        /* \"#utility.yul\":6533:6907   */\n    tag_340:\n      0x00\n        /* \"#utility.yul\":6696:6763   */\n      tag_342\n        /* \"#utility.yul\":6760:6762   */\n      0x2a\n        /* \"#utility.yul\":6755:6758   */\n      dup4\n        /* \"#utility.yul\":6696:6763   */\n      tag_315\n      jump\t// in\n    tag_342:\n        /* \"#utility.yul\":6689:6763   */\n      swap2\n      pop\n        /* \"#utility.yul\":6793:6827   */\n      0x5361666545524332303a204552433230206f7065726174696f6e20646964206e\n        /* \"#utility.yul\":6789:6790   */\n      0x00\n        /* \"#utility.yul\":6784:6787   */\n      dup4\n        /* \"#utility.yul\":6780:6791   */\n      add\n        /* \"#utility.yul\":6773:6828   */\n      mstore\n        /* \"#utility.yul\":6859:6871   */\n      0x6f74207375636365656400000000000000000000000000000000000000000000\n        /* \"#utility.yul\":6854:6856   */\n      0x20\n        /* \"#utility.yul\":6849:6852   */\n      dup4\n        /* \"#utility.yul\":6845:6857   */\n      add\n        /* \"#utility.yul\":6838:6872   */\n      mstore\n        /* \"#utility.yul\":6898:6900   */\n      0x40\n        /* \"#utility.yul\":6893:6896   */\n      dup3\n        /* \"#utility.yul\":6889:6901   */\n      add\n        /* \"#utility.yul\":6882:6901   */\n      swap1\n      pop\n        /* \"#utility.yul\":6679:6907   */\n      swap2\n      swap1\n      pop\n      jump\t// out\n        /* \"#utility.yul\":7007:8630   */\n    tag_343:\n        /* \"#utility.yul\":7182:7188   */\n      0x0100\n        /* \"#utility.yul\":7177:7180   */\n      dup3\n        /* \"#utility.yul\":7173:7189   */\n      add\n        /* \"#utility.yul\":7274:7278   */\n      0x00\n        /* \"#utility.yul\":7267:7272   */\n      dup3\n        /* \"#utility.yul\":7263:7279   */\n      add\n        /* \"#utility.yul\":7257:7280   */\n      mload\n        /* \"#utility.yul\":7293:7356   */\n      tag_345\n        /* \"#utility.yul\":7350:7354   */\n      0x00\n        /* \"#utility.yul\":7345:7348   */\n      dup6\n        /* \"#utility.yul\":7341:7355   */\n      add\n        /* \"#utility.yul\":7327:7339   */\n      dup3\n        /* \"#utility.yul\":7293:7356   */\n      tag_295\n      jump\t// in\n    tag_345:\n        /* \"#utility.yul\":7199:7366   */\n      pop\n        /* \"#utility.yul\":7452:7456   */\n      0x20\n        /* \"#utility.yul\":7445:7450   */\n      dup3\n        /* \"#utility.yul\":7441:7457   */\n      add\n        /* \"#utility.yul\":7435:7458   */\n      mload\n        /* \"#utility.yul\":7471:7534   */\n      tag_346\n        /* \"#utility.yul\":7528:7532   */\n      0x20\n        /* \"#utility.yul\":7523:7526   */\n      dup6\n        /* \"#utility.yul\":7519:7533   */\n      add\n        /* \"#utility.yul\":7505:7517   */\n      dup3\n        /* \"#utility.yul\":7471:7534   */\n      tag_295\n      jump\t// in\n    tag_346:\n        /* \"#utility.yul\":7376:7544   */\n      pop\n        /* \"#utility.yul\":7625:7629   */\n      0x40\n        /* \"#utility.yul\":7618:7623   */\n      dup3\n        /* \"#utility.yul\":7614:7630   */\n      add\n        /* \"#utility.yul\":7608:7631   */\n      mload\n        /* \"#utility.yul\":7644:7705   */\n      tag_347\n        /* \"#utility.yul\":7699:7703   */\n      0x40\n        /* \"#utility.yul\":7694:7697   */\n      dup6\n        /* \"#utility.yul\":7690:7704   */\n      add\n        /* \"#utility.yul\":7676:7688   */\n      dup3\n        /* \"#utility.yul\":7644:7705   */\n      tag_348\n      jump\t// in\n    tag_347:\n        /* \"#utility.yul\":7554:7715   */\n      pop\n        /* \"#utility.yul\":7802:7806   */\n      0x60\n        /* \"#utility.yul\":7795:7800   */\n      dup3\n        /* \"#utility.yul\":7791:7807   */\n      add\n        /* \"#utility.yul\":7785:7808   */\n      mload\n        /* \"#utility.yul\":7821:7884   */\n      tag_349\n        /* \"#utility.yul\":7878:7882   */\n      0x60\n        /* \"#utility.yul\":7873:7876   */\n      dup6\n        /* \"#utility.yul\":7869:7883   */\n      add\n        /* \"#utility.yul\":7855:7867   */\n      dup3\n        /* \"#utility.yul\":7821:7884   */\n      tag_295\n      jump\t// in\n    tag_349:\n        /* \"#utility.yul\":7725:7894   */\n      pop\n        /* \"#utility.yul\":7980:7984   */\n      0x80\n        /* \"#utility.yul\":7973:7978   */\n      dup3\n        /* \"#utility.yul\":7969:7985   */\n      add\n        /* \"#utility.yul\":7963:7986   */\n      mload\n        /* \"#utility.yul\":7999:8062   */\n      tag_350\n        /* \"#utility.yul\":8056:8060   */\n      0x80\n        /* \"#utility.yul\":8051:8054   */\n      dup6\n        /* \"#utility.yul\":8047:8061   */\n      add\n        /* \"#utility.yul\":8033:8045   */\n      dup3\n        /* \"#utility.yul\":7999:8062   */\n      tag_351\n      jump\t// in\n    tag_350:\n        /* \"#utility.yul\":7904:8072   */\n      pop\n        /* \"#utility.yul\":8158:8162   */\n      0xa0\n        /* \"#utility.yul\":8151:8156   */\n      dup3\n        /* \"#utility.yul\":8147:8163   */\n      add\n        /* \"#utility.yul\":8141:8164   */\n      mload\n        /* \"#utility.yul\":8177:8240   */\n      tag_352\n        /* \"#utility.yul\":8234:8238   */\n      0xa0\n        /* \"#utility.yul\":8229:8232   */\n      dup6\n        /* \"#utility.yul\":8225:8239   */\n      add\n        /* \"#utility.yul\":8211:8223   */\n      dup3\n        /* \"#utility.yul\":8177:8240   */\n      tag_351\n      jump\t// in\n    tag_352:\n        /* \"#utility.yul\":8082:8250   */\n      pop\n        /* \"#utility.yul\":8344:8348   */\n      0xc0\n        /* \"#utility.yul\":8337:8342   */\n      dup3\n        /* \"#utility.yul\":8333:8349   */\n      add\n        /* \"#utility.yul\":8327:8350   */\n      mload\n        /* \"#utility.yul\":8363:8426   */\n      tag_353\n        /* \"#utility.yul\":8420:8424   */\n      0xc0\n        /* \"#utility.yul\":8415:8418   */\n      dup6\n        /* \"#utility.yul\":8411:8425   */\n      add\n        /* \"#utility.yul\":8397:8409   */\n      dup3\n        /* \"#utility.yul\":8363:8426   */\n      tag_351\n      jump\t// in\n    tag_353:\n        /* \"#utility.yul\":8260:8436   */\n      pop\n        /* \"#utility.yul\":8531:8535   */\n      0xe0\n        /* \"#utility.yul\":8524:8529   */\n      dup3\n        /* \"#utility.yul\":8520:8536   */\n      add\n        /* \"#utility.yul\":8514:8537   */\n      mload\n        /* \"#utility.yul\":8550:8613   */\n      tag_354\n        /* \"#utility.yul\":8607:8611   */\n      0xe0\n        /* \"#utility.yul\":8602:8605   */\n      dup6\n        /* \"#utility.yul\":8598:8612   */\n      add\n        /* \"#utility.yul\":8584:8596   */\n      dup3\n        /* \"#utility.yul\":8550:8613   */\n      tag_355\n      jump\t// in\n    tag_354:\n        /* \"#utility.yul\":8446:8623   */\n      pop\n        /* \"#utility.yul\":7151:8630   */\n      pop\n      pop\n      pop\n      jump\t// out\n        /* \"#utility.yul\":8636:8744   */\n    tag_355:\n        /* \"#utility.yul\":8713:8737   */\n      tag_357\n        /* \"#utility.yul\":8731:8736   */\n      dup2\n        /* \"#utility.yul\":8713:8737   */\n      tag_358\n      jump\t// in\n    tag_357:\n        /* \"#utility.yul\":8708:8711   */\n      dup3\n        /* \"#utility.yul\":8701:8738   */\n      mstore\n        /* \"#utility.yul\":8691:8744   */\n      pop\n      pop\n      jump\t// out\n        /* \"#utility.yul\":8750:8855   */\n    tag_348:\n        /* \"#utility.yul\":8825:8848   */\n      tag_360\n        /* \"#utility.yul\":8842:8847   */\n      dup2\n        /* \"#utility.yul\":8825:8848   */\n      tag_361\n      jump\t// in\n    tag_360:\n        /* \"#utility.yul\":8820:8823   */\n      dup3\n        /* \"#utility.yul\":8813:8849   */\n      mstore\n        /* \"#utility.yul\":8803:8855   */\n      pop\n      pop\n      jump\t// out\n        /* \"#utility.yul\":8861:8969   */\n    tag_351:\n        /* \"#utility.yul\":8938:8962   */\n      tag_363\n        /* \"#utility.yul\":8956:8961   */\n      dup2\n        /* \"#utility.yul\":8938:8962   */\n      tag_364\n      jump\t// in\n    tag_363:\n        /* \"#utility.yul\":8933:8936   */\n      dup3\n        /* \"#utility.yul\":8926:8963   */\n      mstore\n        /* \"#utility.yul\":8916:8969   */\n      pop\n      pop\n      jump\t// out\n        /* \"#utility.yul\":8975:9093   */\n    tag_365:\n        /* \"#utility.yul\":9062:9086   */\n      tag_367\n        /* \"#utility.yul\":9080:9085   */\n      dup2\n        /* \"#utility.yul\":9062:9086   */\n      tag_364\n      jump\t// in\n    tag_367:\n        /* \"#utility.yul\":9057:9060   */\n      dup3\n        /* \"#utility.yul\":9050:9087   */\n      mstore\n        /* \"#utility.yul\":9040:9093   */\n      pop\n      pop\n      jump\t// out\n        /* \"#utility.yul\":9099:9370   */\n    tag_223:\n      0x00\n        /* \"#utility.yul\":9251:9344   */\n      tag_369\n        /* \"#utility.yul\":9340:9343   */\n      dup3\n        /* \"#utility.yul\":9331:9337   */\n      dup5\n        /* \"#utility.yul\":9251:9344   */\n      tag_302\n      jump\t// in\n    tag_369:\n        /* \"#utility.yul\":9244:9344   */\n      swap2\n      pop\n        /* \"#utility.yul\":9361:9364   */\n      dup2\n        /* \"#utility.yul\":9354:9364   */\n      swap1\n      pop\n        /* \"#utility.yul\":9233:9370   */\n      swap3\n      swap2\n      pop\n      pop\n      jump\t// out\n        /* \"#utility.yul\":9376:9598   */\n    tag_30:\n      0x00\n        /* \"#utility.yul\":9507:9509   */\n      0x20\n        /* \"#utility.yul\":9496:9505   */\n      dup3\n        /* \"#utility.yul\":9492:9510   */\n      add\n        /* \"#utility.yul\":9484:9510   */\n      swap1\n      pop\n        /* \"#utility.yul\":9520:9591   */\n      tag_371\n        /* \"#utility.yul\":9588:9589   */\n      0x00\n        /* \"#utility.yul\":9577:9586   */\n      dup4\n        /* \"#utility.yul\":9573:9590   */\n      add\n        /* \"#utility.yul\":9564:9570   */\n      dup5\n        /* \"#utility.yul\":9520:9591   */\n      tag_299\n      jump\t// in\n    tag_371:\n        /* \"#utility.yul\":9474:9598   */\n      swap3\n      swap2\n      pop\n      pop\n      jump\t// out\n        /* \"#utility.yul\":9604:10046   */\n    tag_206:\n      0x00\n        /* \"#utility.yul\":9791:9793   */\n      0x60\n        /* \"#utility.yul\":9780:9789   */\n      dup3\n        /* \"#utility.yul\":9776:9794   */\n      add\n        /* \"#utility.yul\":9768:9794   */\n      swap1\n      pop\n        /* \"#utility.yul\":9804:9875   */\n      tag_373\n        /* \"#utility.yul\":9872:9873   */\n      0x00\n        /* \"#utility.yul\":9861:9870   */\n      dup4\n        /* \"#utility.yul\":9857:9874   */\n      add\n        /* \"#utility.yul\":9848:9854   */\n      dup7\n        /* \"#utility.yul\":9804:9875   */\n      tag_299\n      jump\t// in\n    tag_373:\n        /* \"#utility.yul\":9885:9957   */\n      tag_374\n        /* \"#utility.yul\":9953:9955   */\n      0x20\n        /* \"#utility.yul\":9942:9951   */\n      dup4\n        /* \"#utility.yul\":9938:9956   */\n      add\n        /* \"#utility.yul\":9929:9935   */\n      dup6\n        /* \"#utility.yul\":9885:9957   */\n      tag_299\n      jump\t// in\n    tag_374:\n        /* \"#utility.yul\":9967:10039   */\n      tag_375\n        /* \"#utility.yul\":10035:10037   */\n      0x40\n        /* \"#utility.yul\":10024:10033   */\n      dup4\n        /* \"#utility.yul\":10020:10038   */\n      add\n        /* \"#utility.yul\":10011:10017   */\n      dup5\n        /* \"#utility.yul\":9967:10039   */\n      tag_365\n      jump\t// in\n    tag_375:\n        /* \"#utility.yul\":9758:10046   */\n      swap5\n      swap4\n      pop\n      pop\n      pop\n      pop\n      jump\t// out\n        /* \"#utility.yul\":10052:10384   */\n    tag_163:\n      0x00\n        /* \"#utility.yul\":10211:10213   */\n      0x40\n        /* \"#utility.yul\":10200:10209   */\n      dup3\n        /* \"#utility.yul\":10196:10214   */\n      add\n        /* \"#utility.yul\":10188:10214   */\n      swap1\n      pop\n        /* \"#utility.yul\":10224:10295   */\n      tag_377\n        /* \"#utility.yul\":10292:10293   */\n      0x00\n        /* \"#utility.yul\":10281:10290   */\n      dup4\n        /* \"#utility.yul\":10277:10294   */\n      add\n        /* \"#utility.yul\":10268:10274   */\n      dup6\n        /* \"#utility.yul\":10224:10295   */\n      tag_299\n      jump\t// in\n    tag_377:\n        /* \"#utility.yul\":10305:10377   */\n      tag_378\n        /* \"#utility.yul\":10373:10375   */\n      0x20\n        /* \"#utility.yul\":10362:10371   */\n      dup4\n        /* \"#utility.yul\":10358:10376   */\n      add\n        /* \"#utility.yul\":10349:10355   */\n      dup5\n        /* \"#utility.yul\":10305:10377   */\n      tag_365\n      jump\t// in\n    tag_378:\n        /* \"#utility.yul\":10178:10384   */\n      swap4\n      swap3\n      pop\n      pop\n      pop\n      jump\t// out\n        /* \"#utility.yul\":10390:10703   */\n    tag_245:\n      0x00\n        /* \"#utility.yul\":10541:10543   */\n      0x20\n        /* \"#utility.yul\":10530:10539   */\n      dup3\n        /* \"#utility.yul\":10526:10544   */\n      add\n        /* \"#utility.yul\":10518:10544   */\n      swap1\n      pop\n        /* \"#utility.yul\":10590:10599   */\n      dup2\n        /* \"#utility.yul\":10584:10588   */\n      dup2\n        /* \"#utility.yul\":10580:10600   */\n      sub\n        /* \"#utility.yul\":10576:10577   */\n      0x00\n        /* \"#utility.yul\":10565:10574   */\n      dup4\n        /* \"#utility.yul\":10561:10578   */\n      add\n        /* \"#utility.yul\":10554:10601   */\n      mstore\n        /* \"#utility.yul\":10618:10696   */\n      tag_380\n        /* \"#utility.yul\":10691:10695   */\n      dup2\n        /* \"#utility.yul\":10682:10688   */\n      dup5\n        /* \"#utility.yul\":10618:10696   */\n      tag_310\n      jump\t// in\n    tag_380:\n        /* \"#utility.yul\":10610:10696   */\n      swap1\n      pop\n        /* \"#utility.yul\":10508:10703   */\n      swap3\n      swap2\n      pop\n      pop\n      jump\t// out\n        /* \"#utility.yul\":10709:11128   */\n    tag_221:\n      0x00\n        /* \"#utility.yul\":10913:10915   */\n      0x20\n        /* \"#utility.yul\":10902:10911   */\n      dup3\n        /* \"#utility.yul\":10898:10916   */\n      add\n        /* \"#utility.yul\":10890:10916   */\n      swap1\n      pop\n        /* \"#utility.yul\":10962:10971   */\n      dup2\n        /* \"#utility.yul\":10956:10960   */\n      dup2\n        /* \"#utility.yul\":10952:10972   */\n      sub\n        /* \"#utility.yul\":10948:10949   */\n      0x00\n        /* \"#utility.yul\":10937:10946   */\n      dup4\n        /* \"#utility.yul\":10933:10950   */\n      add\n        /* \"#utility.yul\":10926:10973   */\n      mstore\n        /* \"#utility.yul\":10990:11121   */\n      tag_382\n        /* \"#utility.yul\":11116:11120   */\n      dup2\n        /* \"#utility.yul\":10990:11121   */\n      tag_319\n      jump\t// in\n    tag_382:\n        /* \"#utility.yul\":10982:11121   */\n      swap1\n      pop\n        /* \"#utility.yul\":10880:11128   */\n      swap2\n      swap1\n      pop\n      jump\t// out\n        /* \"#utility.yul\":11134:11553   */\n    tag_134:\n      0x00\n        /* \"#utility.yul\":11338:11340   */\n      0x20\n        /* \"#utility.yul\":11327:11336   */\n      dup3\n        /* \"#utility.yul\":11323:11341   */\n      add\n        /* \"#utility.yul\":11315:11341   */\n      swap1\n      pop\n        /* \"#utility.yul\":11387:11396   */\n      dup2\n        /* \"#utility.yul\":11381:11385   */\n      dup2\n        /* \"#utility.yul\":11377:11397   */\n      sub\n        /* \"#utility.yul\":11373:11374   */\n      0x00\n        /* \"#utility.yul\":11362:11371   */\n      dup4\n        /* \"#utility.yul\":11358:11375   */\n      add\n        /* \"#utility.yul\":11351:11398   */\n      mstore\n        /* \"#utility.yul\":11415:11546   */\n      tag_384\n        /* \"#utility.yul\":11541:11545   */\n      dup2\n        /* \"#utility.yul\":11415:11546   */\n      tag_322\n      jump\t// in\n    tag_384:\n        /* \"#utility.yul\":11407:11546   */\n      swap1\n      pop\n        /* \"#utility.yul\":11305:11553   */\n      swap2\n      swap1\n      pop\n      jump\t// out\n        /* \"#utility.yul\":11559:11978   */\n    tag_126:\n      0x00\n        /* \"#utility.yul\":11763:11765   */\n      0x20\n        /* \"#utility.yul\":11752:11761   */\n      dup3\n        /* \"#utility.yul\":11748:11766   */\n      add\n        /* \"#utility.yul\":11740:11766   */\n      swap1\n      pop\n        /* \"#utility.yul\":11812:11821   */\n      dup2\n        /* \"#utility.yul\":11806:11810   */\n      dup2\n        /* \"#utility.yul\":11802:11822   */\n      sub\n        /* \"#utility.yul\":11798:11799   */\n      0x00\n        /* \"#utility.yul\":11787:11796   */\n      dup4\n        /* \"#utility.yul\":11783:11800   */\n      add\n        /* \"#utility.yul\":11776:11823   */\n      mstore\n        /* \"#utility.yul\":11840:11971   */\n      tag_386\n        /* \"#utility.yul\":11966:11970   */\n      dup2\n        /* \"#utility.yul\":11840:11971   */\n      tag_325\n      jump\t// in\n    tag_386:\n        /* \"#utility.yul\":11832:11971   */\n      swap1\n      pop\n        /* \"#utility.yul\":11730:11978   */\n      swap2\n      swap1\n      pop\n      jump\t// out\n        /* \"#utility.yul\":11984:12403   */\n    tag_94:\n      0x00\n        /* \"#utility.yul\":12188:12190   */\n      0x20\n        /* \"#utility.yul\":12177:12186   */\n      dup3\n        /* \"#utility.yul\":12173:12191   */\n      add\n        /* \"#utility.yul\":12165:12191   */\n      swap1\n      pop\n        /* \"#utility.yul\":12237:12246   */\n      dup2\n        /* \"#utility.yul\":12231:12235   */\n      dup2\n        /* \"#utility.yul\":12227:12247   */\n      sub\n        /* \"#utility.yul\":12223:12224   */\n      0x00\n        /* \"#utility.yul\":12212:12221   */\n      dup4\n        /* \"#utility.yul\":12208:12225   */\n      add\n        /* \"#utility.yul\":12201:12248   */\n      mstore\n        /* \"#utility.yul\":12265:12396   */\n      tag_388\n        /* \"#utility.yul\":12391:12395   */\n      dup2\n        /* \"#utility.yul\":12265:12396   */\n      tag_328\n      jump\t// in\n    tag_388:\n        /* \"#utility.yul\":12257:12396   */\n      swap1\n      pop\n        /* \"#utility.yul\":12155:12403   */\n      swap2\n      swap1\n      pop\n      jump\t// out\n        /* \"#utility.yul\":12409:12828   */\n    tag_107:\n      0x00\n        /* \"#utility.yul\":12613:12615   */\n      0x20\n        /* \"#utility.yul\":12602:12611   */\n      dup3\n        /* \"#utility.yul\":12598:12616   */\n      add\n        /* \"#utility.yul\":12590:12616   */\n      swap1\n      pop\n        /* \"#utility.yul\":12662:12671   */\n      dup2\n        /* \"#utility.yul\":12656:12660   */\n      dup2\n        /* \"#utility.yul\":12652:12672   */\n      sub\n        /* \"#utility.yul\":12648:12649   */\n      0x00\n        /* \"#utility.yul\":12637:12646   */\n      dup4\n        /* \"#utility.yul\":12633:12650   */\n      add\n        /* \"#utility.yul\":12626:12673   */\n      mstore\n        /* \"#utility.yul\":12690:12821   */\n      tag_390\n        /* \"#utility.yul\":12816:12820   */\n      dup2\n        /* \"#utility.yul\":12690:12821   */\n      tag_331\n      jump\t// in\n    tag_390:\n        /* \"#utility.yul\":12682:12821   */\n      swap1\n      pop\n        /* \"#utility.yul\":12580:12828   */\n      swap2\n      swap1\n      pop\n      jump\t// out\n        /* \"#utility.yul\":12834:13253   */\n    tag_236:\n      0x00\n        /* \"#utility.yul\":13038:13040   */\n      0x20\n        /* \"#utility.yul\":13027:13036   */\n      dup3\n        /* \"#utility.yul\":13023:13041   */\n      add\n        /* \"#utility.yul\":13015:13041   */\n      swap1\n      pop\n        /* \"#utility.yul\":13087:13096   */\n      dup2\n        /* \"#utility.yul\":13081:13085   */\n      dup2\n        /* \"#utility.yul\":13077:13097   */\n      sub\n        /* \"#utility.yul\":13073:13074   */\n      0x00\n        /* \"#utility.yul\":13062:13071   */\n      dup4\n        /* \"#utility.yul\":13058:13075   */\n      add\n        /* \"#utility.yul\":13051:13098   */\n      mstore\n        /* \"#utility.yul\":13115:13246   */\n      tag_392\n        /* \"#utility.yul\":13241:13245   */\n      dup2\n        /* \"#utility.yul\":13115:13246   */\n      tag_334\n      jump\t// in\n    tag_392:\n        /* \"#utility.yul\":13107:13246   */\n      swap1\n      pop\n        /* \"#utility.yul\":13005:13253   */\n      swap2\n      swap1\n      pop\n      jump\t// out\n        /* \"#utility.yul\":13259:13678   */\n    tag_180:\n      0x00\n        /* \"#utility.yul\":13463:13465   */\n      0x20\n        /* \"#utility.yul\":13452:13461   */\n      dup3\n        /* \"#utility.yul\":13448:13466   */\n      add\n        /* \"#utility.yul\":13440:13466   */\n      swap1\n      pop\n        /* \"#utility.yul\":13512:13521   */\n      dup2\n        /* \"#utility.yul\":13506:13510   */\n      dup2\n        /* \"#utility.yul\":13502:13522   */\n      sub\n        /* \"#utility.yul\":13498:13499   */\n      0x00\n        /* \"#utility.yul\":13487:13496   */\n      dup4\n        /* \"#utility.yul\":13483:13500   */\n      add\n        /* \"#utility.yul\":13476:13523   */\n      mstore\n        /* \"#utility.yul\":13540:13671   */\n      tag_394\n        /* \"#utility.yul\":13666:13670   */\n      dup2\n        /* \"#utility.yul\":13540:13671   */\n      tag_337\n      jump\t// in\n    tag_394:\n        /* \"#utility.yul\":13532:13671   */\n      swap1\n      pop\n        /* \"#utility.yul\":13430:13678   */\n      swap2\n      swap1\n      pop\n      jump\t// out\n        /* \"#utility.yul\":13684:14103   */\n    tag_214:\n      0x00\n        /* \"#utility.yul\":13888:13890   */\n      0x20\n        /* \"#utility.yul\":13877:13886   */\n      dup3\n        /* \"#utility.yul\":13873:13891   */\n      add\n        /* \"#utility.yul\":13865:13891   */\n      swap1\n      pop\n        /* \"#utility.yul\":13937:13946   */\n      dup2\n        /* \"#utility.yul\":13931:13935   */\n      dup2\n        /* \"#utility.yul\":13927:13947   */\n      sub\n        /* \"#utility.yul\":13923:13924   */\n      0x00\n        /* \"#utility.yul\":13912:13921   */\n      dup4\n        /* \"#utility.yul\":13908:13925   */\n      add\n        /* \"#utility.yul\":13901:13948   */\n      mstore\n        /* \"#utility.yul\":13965:14096   */\n      tag_396\n        /* \"#utility.yul\":14091:14095   */\n      dup2\n        /* \"#utility.yul\":13965:14096   */\n      tag_340\n      jump\t// in\n    tag_396:\n        /* \"#utility.yul\":13957:14096   */\n      swap1\n      pop\n        /* \"#utility.yul\":13855:14103   */\n      swap2\n      swap1\n      pop\n      jump\t// out\n        /* \"#utility.yul\":14109:14488   */\n    tag_116:\n      0x00\n        /* \"#utility.yul\":14318:14321   */\n      0x0100\n        /* \"#utility.yul\":14307:14316   */\n      dup3\n        /* \"#utility.yul\":14303:14322   */\n      add\n        /* \"#utility.yul\":14295:14322   */\n      swap1\n      pop\n        /* \"#utility.yul\":14332:14481   */\n      tag_398\n        /* \"#utility.yul\":14478:14479   */\n      0x00\n        /* \"#utility.yul\":14467:14476   */\n      dup4\n        /* \"#utility.yul\":14463:14480   */\n      add\n        /* \"#utility.yul\":14454:14460   */\n      dup5\n        /* \"#utility.yul\":14332:14481   */\n      tag_343\n      jump\t// in\n    tag_398:\n        /* \"#utility.yul\":14285:14488   */\n      swap3\n      swap2\n      pop\n      pop\n      jump\t// out\n        /* \"#utility.yul\":14494:14716   */\n    tag_25:\n      0x00\n        /* \"#utility.yul\":14625:14627   */\n      0x20\n        /* \"#utility.yul\":14614:14623   */\n      dup3\n        /* \"#utility.yul\":14610:14628   */\n      add\n        /* \"#utility.yul\":14602:14628   */\n      swap1\n      pop\n        /* \"#utility.yul\":14638:14709   */\n      tag_400\n        /* \"#utility.yul\":14706:14707   */\n      0x00\n        /* \"#utility.yul\":14695:14704   */\n      dup4\n        /* \"#utility.yul\":14691:14708   */\n      add\n        /* \"#utility.yul\":14682:14688   */\n      dup5\n        /* \"#utility.yul\":14638:14709   */\n      tag_365\n      jump\t// in\n    tag_400:\n        /* \"#utility.yul\":14592:14716   */\n      swap3\n      swap2\n      pop\n      pop\n      jump\t// out\n        /* \"#utility.yul\":14722:14820   */\n    tag_305:\n      0x00\n        /* \"#utility.yul\":14807:14812   */\n      dup2\n        /* \"#utility.yul\":14801:14813   */\n      mload\n        /* \"#utility.yul\":14791:14813   */\n      swap1\n      pop\n        /* \"#utility.yul\":14780:14820   */\n      swap2\n      swap1\n      pop\n      jump\t// out\n        /* \"#utility.yul\":14826:14925   */\n    tag_313:\n      0x00\n        /* \"#utility.yul\":14912:14917   */\n      dup2\n        /* \"#utility.yul\":14906:14918   */\n      mload\n        /* \"#utility.yul\":14896:14918   */\n      swap1\n      pop\n        /* \"#utility.yul\":14885:14925   */\n      swap2\n      swap1\n      pop\n      jump\t// out\n        /* \"#utility.yul\":14931:15078   */\n    tag_307:\n      0x00\n        /* \"#utility.yul\":15069:15072   */\n      dup2\n        /* \"#utility.yul\":15054:15072   */\n      swap1\n      pop\n        /* \"#utility.yul\":15044:15078   */\n      swap3\n      swap2\n      pop\n      pop\n      jump\t// out\n        /* \"#utility.yul\":15084:15253   */\n    tag_315:\n      0x00\n        /* \"#utility.yul\":15202:15208   */\n      dup3\n        /* \"#utility.yul\":15197:15200   */\n      dup3\n        /* \"#utility.yul\":15190:15209   */\n      mstore\n        /* \"#utility.yul\":15242:15246   */\n      0x20\n        /* \"#utility.yul\":15237:15240   */\n      dup3\n        /* \"#utility.yul\":15233:15247   */\n      add\n        /* \"#utility.yul\":15218:15247   */\n      swap1\n      pop\n        /* \"#utility.yul\":15180:15253   */\n      swap3\n      swap2\n      pop\n      pop\n      jump\t// out\n        /* \"#utility.yul\":15259:15564   */\n    tag_159:\n      0x00\n        /* \"#utility.yul\":15318:15338   */\n      tag_406\n        /* \"#utility.yul\":15336:15337   */\n      dup3\n        /* \"#utility.yul\":15318:15338   */\n      tag_364\n      jump\t// in\n    tag_406:\n        /* \"#utility.yul\":15313:15338   */\n      swap2\n      pop\n        /* \"#utility.yul\":15352:15372   */\n      tag_407\n        /* \"#utility.yul\":15370:15371   */\n      dup4\n        /* \"#utility.yul\":15352:15372   */\n      tag_364\n      jump\t// in\n    tag_407:\n        /* \"#utility.yul\":15347:15372   */\n      swap3\n      pop\n        /* \"#utility.yul\":15506:15507   */\n      dup3\n        /* \"#utility.yul\":15438:15504   */\n      0xffffffffffffffffffffffffffffffffffffffffffffffffffffffffffffffff\n        /* \"#utility.yul\":15434:15508   */\n      sub\n        /* \"#utility.yul\":15431:15432   */\n      dup3\n        /* \"#utility.yul\":15428:15509   */\n      gt\n        /* \"#utility.yul\":15425:15427   */\n      iszero\n      tag_408\n      jumpi\n        /* \"#utility.yul\":15512:15530   */\n      tag_409\n      tag_410\n      jump\t// in\n    tag_409:\n        /* \"#utility.yul\":15425:15427   */\n    tag_408:\n        /* \"#utility.yul\":15556:15557   */\n      dup3\n        /* \"#utility.yul\":15553:15554   */\n      dup3\n        /* \"#utility.yul\":15549:15558   */\n      add\n        /* \"#utility.yul\":15542:15558   */\n      swap1\n      pop\n        /* \"#utility.yul\":15303:15564   */\n      swap3\n      swap2\n      pop\n      pop\n      jump\t// out\n        /* \"#utility.yul\":15570:15755   */\n    tag_186:\n      0x00\n        /* \"#utility.yul\":15627:15647   */\n      tag_412\n        /* \"#utility.yul\":15645:15646   */\n      dup3\n        /* \"#utility.yul\":15627:15647   */\n      tag_364\n      jump\t// in\n    tag_412:\n        /* \"#utility.yul\":15622:15647   */\n      swap2\n      pop\n        /* \"#utility.yul\":15661:15681   */\n      tag_413\n        /* \"#utility.yul\":15679:15680   */\n      dup4\n        /* \"#utility.yul\":15661:15681   */\n      tag_364\n      jump\t// in\n    tag_413:\n        /* \"#utility.yul\":15656:15681   */\n      swap3\n      pop\n        /* \"#utility.yul\":15700:15701   */\n      dup3\n        /* \"#utility.yul\":15690:15692   */\n      tag_414\n      jumpi\n        /* \"#utility.yul\":15705:15723   */\n      tag_415\n      tag_416\n      jump\t// in\n    tag_415:\n        /* \"#utility.yul\":15690:15692   */\n    tag_414:\n        /* \"#utility.yul\":15747:15748   */\n      dup3\n        /* \"#utility.yul\":15744:15745   */\n      dup3\n        /* \"#utility.yul\":15740:15749   */\n      div\n        /* \"#utility.yul\":15735:15749   */\n      swap1\n      pop\n        /* \"#utility.yul\":15612:15755   */\n      swap3\n      swap2\n      pop\n      pop\n      jump\t// out\n        /* \"#utility.yul\":15761:16109   */\n    tag_183:\n      0x00\n        /* \"#utility.yul\":15824:15844   */\n      tag_418\n        /* \"#utility.yul\":15842:15843   */\n      dup3\n        /* \"#utility.yul\":15824:15844   */\n      tag_364\n      jump\t// in\n    tag_418:\n        /* \"#utility.yul\":15819:15844   */\n      swap2\n      pop\n        /* \"#utility.yul\":15858:15878   */\n      tag_419\n        /* \"#utility.yul\":15876:15877   */\n      dup4\n        /* \"#utility.yul\":15858:15878   */\n      tag_364\n      jump\t// in\n    tag_419:\n        /* \"#utility.yul\":15853:15878   */\n      swap3\n      pop\n        /* \"#utility.yul\":16046:16047   */\n      dup2\n        /* \"#utility.yul\":15978:16044   */\n      0xffffffffffffffffffffffffffffffffffffffffffffffffffffffffffffffff\n        /* \"#utility.yul\":15974:16048   */\n      div\n        /* \"#utility.yul\":15971:15972   */\n      dup4\n        /* \"#utility.yul\":15968:16049   */\n      gt\n        /* \"#utility.yul\":15963:15964   */\n      dup3\n        /* \"#utility.yul\":15956:15965   */\n      iszero\n        /* \"#utility.yul\":15949:15966   */\n      iszero\n        /* \"#utility.yul\":15945:16050   */\n      and\n        /* \"#utility.yul\":15942:15944   */\n      iszero\n      tag_420\n      jumpi\n        /* \"#utility.yul\":16053:16071   */\n      tag_421\n      tag_410\n      jump\t// in\n    tag_421:\n        /* \"#utility.yul\":15942:15944   */\n    tag_420:\n        /* \"#utility.yul\":16101:16102   */\n      dup3\n        /* \"#utility.yul\":16098:16099   */\n      dup3\n        /* \"#utility.yul\":16094:16103   */\n      mul\n        /* \"#utility.yul\":16083:16103   */\n      swap1\n      pop\n        /* \"#utility.yul\":15809:16109   */\n      swap3\n      swap2\n      pop\n      pop\n      jump\t// out\n        /* \"#utility.yul\":16115:16211   */\n    tag_298:\n      0x00\n        /* \"#utility.yul\":16181:16205   */\n      tag_423\n        /* \"#utility.yul\":16199:16204   */\n      dup3\n        /* \"#utility.yul\":16181:16205   */\n      tag_358\n      jump\t// in\n    tag_423:\n        /* \"#utility.yul\":16170:16205   */\n      swap1\n      pop\n        /* \"#utility.yul\":16160:16211   */\n      swap2\n      swap1\n      pop\n      jump\t// out\n        /* \"#utility.yul\":16217:16307   */\n    tag_424:\n      0x00\n        /* \"#utility.yul\":16294:16299   */\n      dup2\n        /* \"#utility.yul\":16287:16300   */\n      iszero\n        /* \"#utility.yul\":16280:16301   */\n      iszero\n        /* \"#utility.yul\":16269:16301   */\n      swap1\n      pop\n        /* \"#utility.yul\":16259:16307   */\n      swap2\n      swap1\n      pop\n      jump\t// out\n        /* \"#utility.yul\":16313:16439   */\n    tag_358:\n      0x00\n        /* \"#utility.yul\":16390:16432   */\n      0xffffffffffffffffffffffffffffffffffffffff\n        /* \"#utility.yul\":16383:16388   */\n      dup3\n        /* \"#utility.yul\":16379:16433   */\n      and\n        /* \"#utility.yul\":16368:16433   */\n      swap1\n      pop\n        /* \"#utility.yul\":16358:16439   */\n      swap2\n      swap1\n      pop\n      jump\t// out\n        /* \"#utility.yul\":16445:16536   */\n    tag_361:\n      0x00\n        /* \"#utility.yul\":16521:16529   */\n      0xffffff\n        /* \"#utility.yul\":16514:16519   */\n      dup3\n        /* \"#utility.yul\":16510:16530   */\n      and\n        /* \"#utility.yul\":16499:16530   */\n      swap1\n      pop\n        /* \"#utility.yul\":16489:16536   */\n      swap2\n      swap1\n      pop\n      jump\t// out\n        /* \"#utility.yul\":16542:16619   */\n    tag_364:\n      0x00\n        /* \"#utility.yul\":16608:16613   */\n      dup2\n        /* \"#utility.yul\":16597:16613   */\n      swap1\n      pop\n        /* \"#utility.yul\":16587:16619   */\n      swap2\n      swap1\n      pop\n      jump\t// out\n        /* \"#utility.yul\":16625:16932   */\n    tag_309:\n        /* \"#utility.yul\":16693:16694   */\n      0x00\n        /* \"#utility.yul\":16703:16816   */\n    tag_430:\n        /* \"#utility.yul\":16717:16723   */\n      dup4\n        /* \"#utility.yul\":16714:16715   */\n      dup2\n        /* \"#utility.yul\":16711:16724   */\n      lt\n        /* \"#utility.yul\":16703:16816   */\n      iszero\n      tag_432\n      jumpi\n        /* \"#utility.yul\":16802:16803   */\n      dup1\n        /* \"#utility.yul\":16797:16800   */\n      dup3\n        /* \"#utility.yul\":16793:16804   */\n      add\n        /* \"#utility.yul\":16787:16805   */\n      mload\n        /* \"#utility.yul\":16783:16784   */\n      dup2\n        /* \"#utility.yul\":16778:16781   */\n      dup5\n        /* \"#utility.yul\":16774:16785   */\n      add\n        /* \"#utility.yul\":16767:16806   */\n      mstore\n        /* \"#utility.yul\":16739:16741   */\n      0x20\n        /* \"#utility.yul\":16736:16737   */\n      dup2\n        /* \"#utility.yul\":16732:16742   */\n      add\n        /* \"#utility.yul\":16727:16742   */\n      swap1\n      pop\n        /* \"#utility.yul\":16703:16816   */\n      jump(tag_430)\n    tag_432:\n        /* \"#utility.yul\":16834:16840   */\n      dup4\n        /* \"#utility.yul\":16831:16832   */\n      dup2\n        /* \"#utility.yul\":16828:16841   */\n      gt\n        /* \"#utility.yul\":16825:16827   */\n      iszero\n      tag_433\n      jumpi\n        /* \"#utility.yul\":16914:16915   */\n      0x00\n        /* \"#utility.yul\":16905:16911   */\n      dup5\n        /* \"#utility.yul\":16900:16903   */\n      dup5\n        /* \"#utility.yul\":16896:16912   */\n      add\n        /* \"#utility.yul\":16889:16916   */\n      mstore\n        /* \"#utility.yul\":16825:16827   */\n    tag_433:\n        /* \"#utility.yul\":16674:16932   */\n      pop\n      pop\n      pop\n      pop\n      jump\t// out\n        /* \"#utility.yul\":16938:17118   */\n    tag_410:\n        /* \"#utility.yul\":16986:17063   */\n      0x4e487b7100000000000000000000000000000000000000000000000000000000\n        /* \"#utility.yul\":16983:16984   */\n      0x00\n        /* \"#utility.yul\":16976:17064   */\n      mstore\n        /* \"#utility.yul\":17083:17087   */\n      0x11\n        /* \"#utility.yul\":17080:17081   */\n      0x04\n        /* \"#utility.yul\":17073:17088   */\n      mstore\n        /* \"#utility.yul\":17107:17111   */\n      0x24\n        /* \"#utility.yul\":17104:17105   */\n      0x00\n        /* \"#utility.yul\":17097:17112   */\n      revert\n        /* \"#utility.yul\":17124:17304   */\n    tag_416:\n        /* \"#utility.yul\":17172:17249   */\n      0x4e487b7100000000000000000000000000000000000000000000000000000000\n        /* \"#utility.yul\":17169:17170   */\n      0x00\n        /* \"#utility.yul\":17162:17250   */\n      mstore\n        /* \"#utility.yul\":17269:17273   */\n      0x12\n        /* \"#utility.yul\":17266:17267   */\n      0x04\n        /* \"#utility.yul\":17259:17274   */\n      mstore\n        /* \"#utility.yul\":17293:17297   */\n      0x24\n        /* \"#utility.yul\":17290:17291   */\n      0x00\n        /* \"#utility.yul\":17283:17298   */\n      revert\n        /* \"#utility.yul\":17310:17412   */\n    tag_318:\n      0x00\n        /* \"#utility.yul\":17402:17404   */\n      0x1f\n        /* \"#utility.yul\":17398:17405   */\n      not\n        /* \"#utility.yul\":17393:17395   */\n      0x1f\n        /* \"#utility.yul\":17386:17391   */\n      dup4\n        /* \"#utility.yul\":17382:17396   */\n      add\n        /* \"#utility.yul\":17378:17406   */\n      and\n        /* \"#utility.yul\":17368:17406   */\n      swap1\n      pop\n        /* \"#utility.yul\":17358:17412   */\n      swap2\n      swap1\n      pop\n      jump\t// out\n        /* \"#utility.yul\":17418:17540   */\n    tag_250:\n        /* \"#utility.yul\":17491:17515   */\n      tag_438\n        /* \"#utility.yul\":17509:17514   */\n      dup2\n        /* \"#utility.yul\":17491:17515   */\n      tag_298\n      jump\t// in\n    tag_438:\n        /* \"#utility.yul\":17484:17489   */\n      dup2\n        /* \"#utility.yul\":17481:17516   */\n      eq\n        /* \"#utility.yul\":17471:17473   */\n      tag_439\n      jumpi\n        /* \"#utility.yul\":17530:17531   */\n      0x00\n        /* \"#utility.yul\":17527:17528   */\n      dup1\n        /* \"#utility.yul\":17520:17532   */\n      revert\n        /* \"#utility.yul\":17471:17473   */\n    tag_439:\n        /* \"#utility.yul\":17461:17540   */\n      pop\n      jump\t// out\n        /* \"#utility.yul\":17546:17662   */\n    tag_257:\n        /* \"#utility.yul\":17616:17637   */\n      tag_441\n        /* \"#utility.yul\":17631:17636   */\n      dup2\n        /* \"#utility.yul\":17616:17637   */\n      tag_424\n      jump\t// in\n    tag_441:\n        /* \"#utility.yul\":17609:17614   */\n      dup2\n        /* \"#utility.yul\":17606:17638   */\n      eq\n        /* \"#utility.yul\":17596:17598   */\n      tag_442\n      jumpi\n        /* \"#utility.yul\":17652:17653   */\n      0x00\n        /* \"#utility.yul\":17649:17650   */\n      dup1\n        /* \"#utility.yul\":17642:17654   */\n      revert\n        /* \"#utility.yul\":17596:17598   */\n    tag_442:\n        /* \"#utility.yul\":17586:17662   */\n      pop\n      jump\t// out\n        /* \"#utility.yul\":17668:17790   */\n    tag_261:\n        /* \"#utility.yul\":17741:17765   */\n      tag_444\n        /* \"#utility.yul\":17759:17764   */\n      dup2\n        /* \"#utility.yul\":17741:17765   */\n      tag_358\n      jump\t// in\n    tag_444:\n        /* \"#utility.yul\":17734:17739   */\n      dup2\n        /* \"#utility.yul\":17731:17766   */\n      eq\n        /* \"#utility.yul\":17721:17723   */\n      tag_445\n      jumpi\n        /* \"#utility.yul\":17780:17781   */\n      0x00\n        /* \"#utility.yul\":17777:17778   */\n      dup1\n        /* \"#utility.yul\":17770:17782   */\n      revert\n        /* \"#utility.yul\":17721:17723   */\n    tag_445:\n        /* \"#utility.yul\":17711:17790   */\n      pop\n      jump\t// out\n        /* \"#utility.yul\":17796:17916   */\n    tag_265:\n        /* \"#utility.yul\":17868:17891   */\n      tag_447\n        /* \"#utility.yul\":17885:17890   */\n      dup2\n        /* \"#utility.yul\":17868:17891   */\n      tag_361\n      jump\t// in\n    tag_447:\n        /* \"#utility.yul\":17861:17866   */\n      dup2\n        /* \"#utility.yul\":17858:17892   */\n      eq\n        /* \"#utility.yul\":17848:17850   */\n      tag_448\n      jumpi\n        /* \"#utility.yul\":17906:17907   */\n      0x00\n        /* \"#utility.yul\":17903:17904   */\n      dup1\n        /* \"#utility.yul\":17896:17908   */\n      revert\n        /* \"#utility.yul\":17848:17850   */\n    tag_448:\n        /* \"#utility.yul\":17838:17916   */\n      pop\n      jump\t// out\n        /* \"#utility.yul\":17922:18044   */\n    tag_269:\n        /* \"#utility.yul\":17995:18019   */\n      tag_450\n        /* \"#utility.yul\":18013:18018   */\n      dup2\n        /* \"#utility.yul\":17995:18019   */\n      tag_364\n      jump\t// in\n    tag_450:\n        /* \"#utility.yul\":17988:17993   */\n      dup2\n        /* \"#utility.yul\":17985:18020   */\n      eq\n        /* \"#utility.yul\":17975:17977   */\n      tag_451\n      jumpi\n        /* \"#utility.yul\":18034:18035   */\n      0x00\n        /* \"#utility.yul\":18031:18032   */\n      dup1\n        /* \"#utility.yul\":18024:18036   */\n      revert\n        /* \"#utility.yul\":17975:17977   */\n    tag_451:\n        /* \"#utility.yul\":17965:18044   */\n      pop\n      jump\t// out\n\n    auxdata: 0xa2646970667358221220b63536540181bbe41bbb0b060ae867b2928ea2e2f87944254df986b15d1dc07e64736f6c63430008000033\n}\n",
				"bytecode": {
					"linkReferences": {},
					"object": "60806040523480156200001157600080fd5b506040516200239638038062002396833981810160405281019062000037919062000264565b83336200004a816200017260201b60201c565b5080600260006101000a81548173ffffffffffffffffffffffffffffffffffffffff021916908373ffffffffffffffffffffffffffffffffffffffff1602179055505060008114806200009d5750600081145b620000df576040517f08c379a0000000000000000000000000000000000000000000000000000000008152600401620000d69062000338565b60405180910390fd5b82600360006101000a81548173ffffffffffffffffffffffffffffffffffffffff021916908373ffffffffffffffffffffffffffffffffffffffff16021790555081600460006101000a81548173ffffffffffffffffffffffffffffffffffffffff021916908373ffffffffffffffffffffffffffffffffffffffff1602179055508060088190555050505050620003dd565b60008060009054906101000a900473ffffffffffffffffffffffffffffffffffffffff169050816000806101000a81548173ffffffffffffffffffffffffffffffffffffffff021916908373ffffffffffffffffffffffffffffffffffffffff1602179055508173ffffffffffffffffffffffffffffffffffffffff168173ffffffffffffffffffffffffffffffffffffffff167f8be0079c531659141344cd1fd0a4f28419497f9722a3daafe3b4186f6b6457e060405160405180910390a35050565b6000815190506200024781620003a9565b92915050565b6000815190506200025e81620003c3565b92915050565b600080600080608085870312156200027b57600080fd5b60006200028b8782880162000236565b94505060206200029e8782880162000236565b9350506040620002b18782880162000236565b9250506060620002c4878288016200024d565b91505092959194509250565b6000620002df6022836200035a565b91507f73746f636b20696e20706f6f6c206d757374206265207a65726f206f72206f6e60008301527f652e0000000000000000000000000000000000000000000000000000000000006020830152604082019050919050565b600060208201905081810360008301526200035381620002d0565b9050919050565b600082825260208201905092915050565b600062000378826200037f565b9050919050565b600073ffffffffffffffffffffffffffffffffffffffff82169050919050565b6000819050919050565b620003b4816200036b565b8114620003c057600080fd5b50565b620003ce816200039f565b8114620003da57600080fd5b50565b611fa980620003ed6000396000f3fe6080604052600436106100f35760003560e01c80637ef45fde1161008a578063e30c397811610059578063e30c39781461030f578063f2fde38b1461033a578063f887ea4014610363578063f92966e11461038e576100f3565b80637ef45fde1461023a5780638da5cb5b14610277578063b6b55f25146102a2578063ce7c2ac2146102d2576100f3565b806344c2b6d0116100c657806344c2b6d0146101a4578063481c6a75146101e15780634e71e0c81461020c578063715018a614610223576100f3565b806302c1b274146100f857806316f0115b146101235780633ccfd60b1461014e5780634230adc914610179575b600080fd5b34801561010457600080fd5b5061010d6103b9565b60405161011a9190611cd9565b60405180910390f35b34801561012f57600080fd5b506101386103bf565b6040516101459190611b20565b60405180910390f35b34801561015a57600080fd5b506101636103e5565b6040516101709190611cd9565b60405180910390f35b34801561018557600080fd5b5061018e610528565b60405161019b9190611cd9565b60405180910390f35b3480156101b057600080fd5b506101cb60048036038101906101c691906116f5565b61052e565b6040516101d89190611cd9565b60405180910390f35b3480156101ed57600080fd5b506101f661077d565b6040516102039190611b20565b60405180910390f35b34801561021857600080fd5b506102216107a7565b005b34801561022f57600080fd5b506102386108a6565b005b34801561024657600080fd5b50610261600480360381019061025c91906116f5565b610927565b60405161026e9190611cd9565b60405180910390f35b34801561028357600080fd5b5061028c610bfc565b6040516102999190611b20565b60405180910390f35b6102bc60048036038101906102b791906116a3565b610c25565b6040516102c99190611cd9565b60405180910390f35b3480156102de57600080fd5b506102f960048036038101906102f491906115ff565b610db4565b6040516103069190611cd9565b60405180910390f35b34801561031b57600080fd5b50610324610dcc565b6040516103319190611b20565b60405180910390f35b34801561034657600080fd5b50610361600480360381019061035c91906115ff565b610df6565b005b34801561036f57600080fd5b50610378610f62565b6040516103859190611b20565b60405180910390f35b34801561039a57600080fd5b506103a3610f88565b6040516103b09190611cd9565b60405180910390f35b60085481565b600460009054906101000a900473ffffffffffffffffffffffffffffffffffffffff1681565b600080600560003373ffffffffffffffffffffffffffffffffffffffff1673ffffffffffffffffffffffffffffffffffffffff1681526020019081526020016000205490506000811161046d576040517f08c379a000000000000000000000000000000000000000000000000000000000815260040161046490611c1d565b60405180910390fd5b600061049860075461048a60065485610f8e90919063ffffffff16565b610fa490919063ffffffff16565b905060006104a4610fba565b90506104d133838373ffffffffffffffffffffffffffffffffffffffff166111149092919063ffffffff16565b3373ffffffffffffffffffffffffffffffffffffffff167f884edad9ce6fa2440d8a54cc123490eb96d2768479d49ff9c7366125a9424364836040516105179190611cd9565b60405180910390a281935050505090565b60065481565b6000808311610572576040517f08c379a000000000000000000000000000000000000000000000000000000000815260040161056990611c3d565b60405180910390fd5b600061057c610fba565b90506000610588610fba565b90506000600460009054906101000a900473ffffffffffffffffffffffffffffffffffffffff1673ffffffffffffffffffffffffffffffffffffffff1663ddca3f436040518163ffffffff1660e01b815260040160206040518083038186803b1580156105f457600080fd5b505afa158015610608573d6000803e3d6000fd5b505050506040513d601f19601f8201168201806040525081019061062c919061167a565b9050600360009054906101000a900473ffffffffffffffffffffffffffffffffffffffff1673ffffffffffffffffffffffffffffffffffffffff1663414bf3896040518061010001604052808673ffffffffffffffffffffffffffffffffffffffff1681526020018573ffffffffffffffffffffffffffffffffffffffff1681526020018462ffffff1681526020013073ffffffffffffffffffffffffffffffffffffffff16815260200142815260200160075481526020018981526020018873ffffffffffffffffffffffffffffffffffffffff168152506040518263ffffffff1660e01b81526004016107219190611cbd565b602060405180830381600087803b15801561073b57600080fd5b505af115801561074f573d6000803e3d6000fd5b505050506040513d601f19601f8201168201806040525081019061077391906116cc565b5050505092915050565b6000600260009054906101000a900473ffffffffffffffffffffffffffffffffffffffff16905090565b600160009054906101000a900473ffffffffffffffffffffffffffffffffffffffff1673ffffffffffffffffffffffffffffffffffffffff163373ffffffffffffffffffffffffffffffffffffffff1614610837576040517f08c379a000000000000000000000000000000000000000000000000000000000815260040161082e90611bfd565b60405180910390fd5b610862600160009054906101000a900473ffffffffffffffffffffffffffffffffffffffff1661119a565b6000600160006101000a81548173ffffffffffffffffffffffffffffffffffffffff021916908373ffffffffffffffffffffffffffffffffffffffff160217905550565b3373ffffffffffffffffffffffffffffffffffffffff166108c5610bfc565b73ffffffffffffffffffffffffffffffffffffffff161461091b576040517f08c379a000000000000000000000000000000000000000000000000000000000815260040161091290611bdd565b60405180910390fd5b610925600061119a565b565b600080831161096b576040517f08c379a000000000000000000000000000000000000000000000000000000000815260040161096290611c3d565b60405180910390fd5b6000610975610fba565b90506000610981610fba565b90506000600460009054906101000a900473ffffffffffffffffffffffffffffffffffffffff1673ffffffffffffffffffffffffffffffffffffffff1663ddca3f436040518163ffffffff1660e01b815260040160206040518083038186803b1580156109ed57600080fd5b505afa158015610a01573d6000803e3d6000fd5b505050506040513d601f19601f82011682018060405250810190610a25919061167a565b9050600360009054906101000a900473ffffffffffffffffffffffffffffffffffffffff1673ffffffffffffffffffffffffffffffffffffffff1663414bf3896040518061010001604052808573ffffffffffffffffffffffffffffffffffffffff1681526020018673ffffffffffffffffffffffffffffffffffffffff1681526020018462ffffff1681526020013073ffffffffffffffffffffffffffffffffffffffff1681526020014281526020018573ffffffffffffffffffffffffffffffffffffffff166370a08231306040518263ffffffff1660e01b8152600401610b0f9190611b20565b60206040518083038186803b158015610b2757600080fd5b505afa158015610b3b573d6000803e3d6000fd5b505050506040513d601f19601f82011682018060405250810190610b5f91906116cc565b81526020018981526020018873ffffffffffffffffffffffffffffffffffffffff168152506040518263ffffffff1660e01b8152600401610ba09190611cbd565b602060405180830381600087803b158015610bba57600080fd5b505af1158015610bce573d6000803e3d6000fd5b505050506040513d601f19601f82011682018060405250810190610bf291906116cc565b5050505092915050565b60008060009054906101000a900473ffffffffffffffffffffffffffffffffffffffff16905090565b600081600560003373ffffffffffffffffffffffffffffffffffffffff1673ffffffffffffffffffffffffffffffffffffffff1681526020019081526020016000206000828254610c769190611d26565b925050819055503460076000828254610c8f9190611d26565b925050819055506000610ca0610fba565b90508073ffffffffffffffffffffffffffffffffffffffff1663095ea7b330856040518363ffffffff1660e01b8152600401610cdd929190611b72565b602060405180830381600087803b158015610cf757600080fd5b505af1158015610d0b573d6000803e3d6000fd5b505050506040513d601f19601f82011682018060405250810190610d2f9190611651565b50610d5d3330858473ffffffffffffffffffffffffffffffffffffffff1661125e909392919063ffffffff16565b3373ffffffffffffffffffffffffffffffffffffffff167fe1fffcc4923d04b559f4d29a8bfc6cda04eb5b0d3c460751c2402c5c5cc9109c84604051610da39190611cd9565b60405180910390a282915050919050565b60056020528060005260406000206000915090505481565b6000600160009054906101000a900473ffffffffffffffffffffffffffffffffffffffff16905090565b3373ffffffffffffffffffffffffffffffffffffffff16610e15610bfc565b73ffffffffffffffffffffffffffffffffffffffff1614610e6b576040517f08c379a0000000000000000000000000000000000000000000000000000000008152600401610e6290611bdd565b60405180910390fd5b600073ffffffffffffffffffffffffffffffffffffffff168173ffffffffffffffffffffffffffffffffffffffff161415610edb576040517f08c379a0000000000000000000000000000000000000000000000000000000008152600401610ed290611c7d565b60405180910390fd5b80600160006101000a81548173ffffffffffffffffffffffffffffffffffffffff021916908373ffffffffffffffffffffffffffffffffffffffff1602179055508073ffffffffffffffffffffffffffffffffffffffff167f239a2ddded15777fa246aed5f7e1a9bc69a39d4eb4a397034d1d85766cca7d4c60405160405180910390a250565b600360009054906101000a900473ffffffffffffffffffffffffffffffffffffffff1681565b60075481565b60008183610f9c9190611dad565b905092915050565b60008183610fb29190611d7c565b905092915050565b600080600460009054906101000a900473ffffffffffffffffffffffffffffffffffffffff1673ffffffffffffffffffffffffffffffffffffffff16630dfe16816040518163ffffffff1660e01b815260040160206040518083038186803b15801561102557600080fd5b505afa158015611039573d6000803e3d6000fd5b505050506040513d601f19601f8201168201806040525081019061105d9190611628565b90506001600854141561110d57600460009054906101000a900473ffffffffffffffffffffffffffffffffffffffff1673ffffffffffffffffffffffffffffffffffffffff1663d21220a76040518163ffffffff1660e01b815260040160206040518083038186803b1580156110d257600080fd5b505afa1580156110e6573d6000803e3d6000fd5b505050506040513d601f19601f8201168201806040525081019061110a9190611628565b90505b8091505090565b6111958363a9059cbb60e01b8484604051602401611133929190611b72565b604051602081830303815290604052907bffffffffffffffffffffffffffffffffffffffffffffffffffffffff19166020820180517bffffffffffffffffffffffffffffffffffffffffffffffffffffffff83818316178352505050506112e7565b505050565b60008060009054906101000a900473ffffffffffffffffffffffffffffffffffffffff169050816000806101000a81548173ffffffffffffffffffffffffffffffffffffffff021916908373ffffffffffffffffffffffffffffffffffffffff1602179055508173ffffffffffffffffffffffffffffffffffffffff168173ffffffffffffffffffffffffffffffffffffffff167f8be0079c531659141344cd1fd0a4f28419497f9722a3daafe3b4186f6b6457e060405160405180910390a35050565b6112e1846323b872dd60e01b85858560405160240161127f93929190611b3b565b604051602081830303815290604052907bffffffffffffffffffffffffffffffffffffffffffffffffffffffff19166020820180517bffffffffffffffffffffffffffffffffffffffffffffffffffffffff83818316178352505050506112e7565b50505050565b6000611349826040518060400160405280602081526020017f5361666545524332303a206c6f772d6c6576656c2063616c6c206661696c65648152508573ffffffffffffffffffffffffffffffffffffffff166113ae9092919063ffffffff16565b90506000815111156113a957808060200190518101906113699190611651565b6113a8576040517f08c379a000000000000000000000000000000000000000000000000000000000815260040161139f90611c9d565b60405180910390fd5b5b505050565b60606113bd84846000856113c6565b90509392505050565b60608247101561140b576040517f08c379a000000000000000000000000000000000000000000000000000000000815260040161140290611bbd565b60405180910390fd5b6000808673ffffffffffffffffffffffffffffffffffffffff1685876040516114349190611b09565b60006040518083038185875af1925050503d8060008114611471576040519150601f19603f3d011682016040523d82523d6000602084013e611476565b606091505b509150915061148787838387611493565b92505050949350505050565b606083156114f6576000835114156114ee576114ae85611509565b6114ed576040517f08c379a00000000000000000000000000000000000000000000000000000000081526004016114e490611c5d565b60405180910390fd5b5b829050611501565b611500838361151c565b5b949350505050565b600080823b905060008111915050919050565b60008251111561152f5781518083602001fd5b806040517f08c379a00000000000000000000000000000000000000000000000000000000081526004016115639190611b9b565b60405180910390fd5b60008135905061157b81611f00565b92915050565b60008151905061159081611f00565b92915050565b6000815190506115a581611f17565b92915050565b6000813590506115ba81611f2e565b92915050565b6000815190506115cf81611f45565b92915050565b6000813590506115e481611f5c565b92915050565b6000815190506115f981611f5c565b92915050565b60006020828403121561161157600080fd5b600061161f8482850161156c565b91505092915050565b60006020828403121561163a57600080fd5b600061164884828501611581565b91505092915050565b60006020828403121561166357600080fd5b600061167184828501611596565b91505092915050565b60006020828403121561168c57600080fd5b600061169a848285016115c0565b91505092915050565b6000602082840312156116b557600080fd5b60006116c3848285016115d5565b91505092915050565b6000602082840312156116de57600080fd5b60006116ec848285016115ea565b91505092915050565b6000806040838503121561170857600080fd5b6000611716858286016115d5565b9250506020611727858286016115ab565b9150509250929050565b61173a81611e07565b82525050565b61174981611e07565b82525050565b600061175a82611cf4565b6117648185611d0a565b9350611774818560208601611e5e565b80840191505092915050565b600061178b82611cff565b6117958185611d15565b93506117a5818560208601611e5e565b6117ae81611eef565b840191505092915050565b60006117c6602683611d15565b91507f416464726573733a20696e73756666696369656e742062616c616e636520666f60008301527f722063616c6c00000000000000000000000000000000000000000000000000006020830152604082019050919050565b600061182c601883611d15565b91507f4f776e61626c652f63616c6c65722d6e6f742d6f776e657200000000000000006000830152602082019050919050565b600061186c601f83611d15565b91507f4f776e61626c652f63616c6c65722d6e6f742d70656e64696e674f776e6572006000830152602082019050919050565b60006118ac601f83611d15565b91507f4172626974726167653a20696e73756666696369656e742062616c616e6365006000830152602082019050919050565b60006118ec601d83611d15565b91507f496e76616c6964206d696e696d756d206f757470757420616d6f756e740000006000830152602082019050919050565b600061192c601d83611d15565b91507f416464726573733a2063616c6c20746f206e6f6e2d636f6e74726163740000006000830152602082019050919050565b600061196c602583611d15565b91507f4f776e61626c652f70656e64696e674f776e65722d6e6f742d7a65726f2d616460008301527f64726573730000000000000000000000000000000000000000000000000000006020830152604082019050919050565b60006119d2602a83611d15565b91507f5361666545524332303a204552433230206f7065726174696f6e20646964206e60008301527f6f742073756363656564000000000000000000000000000000000000000000006020830152604082019050919050565b61010082016000820151611a426000850182611731565b506020820151611a556020850182611731565b506040820151611a686040850182611adc565b506060820151611a7b6060850182611731565b506080820151611a8e6080850182611aeb565b5060a0820151611aa160a0850182611aeb565b5060c0820151611ab460c0850182611aeb565b5060e0820151611ac760e0850182611acd565b50505050565b611ad681611e25565b82525050565b611ae581611e45565b82525050565b611af481611e54565b82525050565b611b0381611e54565b82525050565b6000611b15828461174f565b915081905092915050565b6000602082019050611b356000830184611740565b92915050565b6000606082019050611b506000830186611740565b611b5d6020830185611740565b611b6a6040830184611afa565b949350505050565b6000604082019050611b876000830185611740565b611b946020830184611afa565b9392505050565b60006020820190508181036000830152611bb58184611780565b905092915050565b60006020820190508181036000830152611bd6816117b9565b9050919050565b60006020820190508181036000830152611bf68161181f565b9050919050565b60006020820190508181036000830152611c168161185f565b9050919050565b60006020820190508181036000830152611c368161189f565b9050919050565b60006020820190508181036000830152611c56816118df565b9050919050565b60006020820190508181036000830152611c768161191f565b9050919050565b60006020820190508181036000830152611c968161195f565b9050919050565b60006020820190508181036000830152611cb6816119c5565b9050919050565b600061010082019050611cd36000830184611a2b565b92915050565b6000602082019050611cee6000830184611afa565b92915050565b600081519050919050565b600081519050919050565b600081905092915050565b600082825260208201905092915050565b6000611d3182611e54565b9150611d3c83611e54565b9250827fffffffffffffffffffffffffffffffffffffffffffffffffffffffffffffffff03821115611d7157611d70611e91565b5b828201905092915050565b6000611d8782611e54565b9150611d9283611e54565b925082611da257611da1611ec0565b5b828204905092915050565b6000611db882611e54565b9150611dc383611e54565b9250817fffffffffffffffffffffffffffffffffffffffffffffffffffffffffffffffff0483118215151615611dfc57611dfb611e91565b5b828202905092915050565b6000611e1282611e25565b9050919050565b60008115159050919050565b600073ffffffffffffffffffffffffffffffffffffffff82169050919050565b600062ffffff82169050919050565b6000819050919050565b60005b83811015611e7c578082015181840152602081019050611e61565b83811115611e8b576000848401525b50505050565b7f4e487b7100000000000000000000000000000000000000000000000000000000600052601160045260246000fd5b7f4e487b7100000000000000000000000000000000000000000000000000000000600052601260045260246000fd5b6000601f19601f8301169050919050565b611f0981611e07565b8114611f1457600080fd5b50565b611f2081611e19565b8114611f2b57600080fd5b50565b611f3781611e25565b8114611f4257600080fd5b50565b611f4e81611e45565b8114611f5957600080fd5b50565b611f6581611e54565b8114611f7057600080fd5b5056fea2646970667358221220b63536540181bbe41bbb0b060ae867b2928ea2e2f87944254df986b15d1dc07e64736f6c63430008000033",
					"opcodes": "PUSH1 0x80 PUSH1 0x40 MSTORE CALLVALUE DUP1 ISZERO PUSH3 0x11 JUMPI PUSH1 0x0 DUP1 REVERT JUMPDEST POP PUSH1 0x40 MLOAD PUSH3 0x2396 CODESIZE SUB DUP1 PUSH3 0x2396 DUP4 CODECOPY DUP2 DUP2 ADD PUSH1 0x40 MSTORE DUP2 ADD SWAP1 PUSH3 0x37 SWAP2 SWAP1 PUSH3 0x264 JUMP JUMPDEST DUP4 CALLER PUSH3 0x4A DUP2 PUSH3 0x172 PUSH1 0x20 SHL PUSH1 0x20 SHR JUMP JUMPDEST POP DUP1 PUSH1 0x2 PUSH1 0x0 PUSH2 0x100 EXP DUP2 SLOAD DUP2 PUSH20 0xFFFFFFFFFFFFFFFFFFFFFFFFFFFFFFFFFFFFFFFF MUL NOT AND SWAP1 DUP4 PUSH20 0xFFFFFFFFFFFFFFFFFFFFFFFFFFFFFFFFFFFFFFFF AND MUL OR SWAP1 SSTORE POP POP PUSH1 0x0 DUP2 EQ DUP1 PUSH3 0x9D JUMPI POP PUSH1 0x0 DUP2 EQ JUMPDEST PUSH3 0xDF JUMPI PUSH1 0x40 MLOAD PUSH32 0x8C379A000000000000000000000000000000000000000000000000000000000 DUP2 MSTORE PUSH1 0x4 ADD PUSH3 0xD6 SWAP1 PUSH3 0x338 JUMP JUMPDEST PUSH1 0x40 MLOAD DUP1 SWAP2 SUB SWAP1 REVERT JUMPDEST DUP3 PUSH1 0x3 PUSH1 0x0 PUSH2 0x100 EXP DUP2 SLOAD DUP2 PUSH20 0xFFFFFFFFFFFFFFFFFFFFFFFFFFFFFFFFFFFFFFFF MUL NOT AND SWAP1 DUP4 PUSH20 0xFFFFFFFFFFFFFFFFFFFFFFFFFFFFFFFFFFFFFFFF AND MUL OR SWAP1 SSTORE POP DUP2 PUSH1 0x4 PUSH1 0x0 PUSH2 0x100 EXP DUP2 SLOAD DUP2 PUSH20 0xFFFFFFFFFFFFFFFFFFFFFFFFFFFFFFFFFFFFFFFF MUL NOT AND SWAP1 DUP4 PUSH20 0xFFFFFFFFFFFFFFFFFFFFFFFFFFFFFFFFFFFFFFFF AND MUL OR SWAP1 SSTORE POP DUP1 PUSH1 0x8 DUP2 SWAP1 SSTORE POP POP POP POP POP PUSH3 0x3DD JUMP JUMPDEST PUSH1 0x0 DUP1 PUSH1 0x0 SWAP1 SLOAD SWAP1 PUSH2 0x100 EXP SWAP1 DIV PUSH20 0xFFFFFFFFFFFFFFFFFFFFFFFFFFFFFFFFFFFFFFFF AND SWAP1 POP DUP2 PUSH1 0x0 DUP1 PUSH2 0x100 EXP DUP2 SLOAD DUP2 PUSH20 0xFFFFFFFFFFFFFFFFFFFFFFFFFFFFFFFFFFFFFFFF MUL NOT AND SWAP1 DUP4 PUSH20 0xFFFFFFFFFFFFFFFFFFFFFFFFFFFFFFFFFFFFFFFF AND MUL OR SWAP1 SSTORE POP DUP2 PUSH20 0xFFFFFFFFFFFFFFFFFFFFFFFFFFFFFFFFFFFFFFFF AND DUP2 PUSH20 0xFFFFFFFFFFFFFFFFFFFFFFFFFFFFFFFFFFFFFFFF AND PUSH32 0x8BE0079C531659141344CD1FD0A4F28419497F9722A3DAAFE3B4186F6B6457E0 PUSH1 0x40 MLOAD PUSH1 0x40 MLOAD DUP1 SWAP2 SUB SWAP1 LOG3 POP POP JUMP JUMPDEST PUSH1 0x0 DUP2 MLOAD SWAP1 POP PUSH3 0x247 DUP2 PUSH3 0x3A9 JUMP JUMPDEST SWAP3 SWAP2 POP POP JUMP JUMPDEST PUSH1 0x0 DUP2 MLOAD SWAP1 POP PUSH3 0x25E DUP2 PUSH3 0x3C3 JUMP JUMPDEST SWAP3 SWAP2 POP POP JUMP JUMPDEST PUSH1 0x0 DUP1 PUSH1 0x0 DUP1 PUSH1 0x80 DUP6 DUP8 SUB SLT ISZERO PUSH3 0x27B JUMPI PUSH1 0x0 DUP1 REVERT JUMPDEST PUSH1 0x0 PUSH3 0x28B DUP8 DUP3 DUP9 ADD PUSH3 0x236 JUMP JUMPDEST SWAP5 POP POP PUSH1 0x20 PUSH3 0x29E DUP8 DUP3 DUP9 ADD PUSH3 0x236 JUMP JUMPDEST SWAP4 POP POP PUSH1 0x40 PUSH3 0x2B1 DUP8 DUP3 DUP9 ADD PUSH3 0x236 JUMP JUMPDEST SWAP3 POP POP PUSH1 0x60 PUSH3 0x2C4 DUP8 DUP3 DUP9 ADD PUSH3 0x24D JUMP JUMPDEST SWAP2 POP POP SWAP3 SWAP6 SWAP2 SWAP5 POP SWAP3 POP JUMP JUMPDEST PUSH1 0x0 PUSH3 0x2DF PUSH1 0x22 DUP4 PUSH3 0x35A JUMP JUMPDEST SWAP2 POP PUSH32 0x73746F636B20696E20706F6F6C206D757374206265207A65726F206F72206F6E PUSH1 0x0 DUP4 ADD MSTORE PUSH32 0x652E000000000000000000000000000000000000000000000000000000000000 PUSH1 0x20 DUP4 ADD MSTORE PUSH1 0x40 DUP3 ADD SWAP1 POP SWAP2 SWAP1 POP JUMP JUMPDEST PUSH1 0x0 PUSH1 0x20 DUP3 ADD SWAP1 POP DUP2 DUP2 SUB PUSH1 0x0 DUP4 ADD MSTORE PUSH3 0x353 DUP2 PUSH3 0x2D0 JUMP JUMPDEST SWAP1 POP SWAP2 SWAP1 POP JUMP JUMPDEST PUSH1 0x0 DUP3 DUP3 MSTORE PUSH1 0x20 DUP3 ADD SWAP1 POP SWAP3 SWAP2 POP POP JUMP JUMPDEST PUSH1 0x0 PUSH3 0x378 DUP3 PUSH3 0x37F JUMP JUMPDEST SWAP1 POP SWAP2 SWAP1 POP JUMP JUMPDEST PUSH1 0x0 PUSH20 0xFFFFFFFFFFFFFFFFFFFFFFFFFFFFFFFFFFFFFFFF DUP3 AND SWAP1 POP SWAP2 SWAP1 POP JUMP JUMPDEST PUSH1 0x0 DUP2 SWAP1 POP SWAP2 SWAP1 POP JUMP JUMPDEST PUSH3 0x3B4 DUP2 PUSH3 0x36B JUMP JUMPDEST DUP2 EQ PUSH3 0x3C0 JUMPI PUSH1 0x0 DUP1 REVERT JUMPDEST POP JUMP JUMPDEST PUSH3 0x3CE DUP2 PUSH3 0x39F JUMP JUMPDEST DUP2 EQ PUSH3 0x3DA JUMPI PUSH1 0x0 DUP1 REVERT JUMPDEST POP JUMP JUMPDEST PUSH2 0x1FA9 DUP1 PUSH3 0x3ED PUSH1 0x0 CODECOPY PUSH1 0x0 RETURN INVALID PUSH1 0x80 PUSH1 0x40 MSTORE PUSH1 0x4 CALLDATASIZE LT PUSH2 0xF3 JUMPI PUSH1 0x0 CALLDATALOAD PUSH1 0xE0 SHR DUP1 PUSH4 0x7EF45FDE GT PUSH2 0x8A JUMPI DUP1 PUSH4 0xE30C3978 GT PUSH2 0x59 JUMPI DUP1 PUSH4 0xE30C3978 EQ PUSH2 0x30F JUMPI DUP1 PUSH4 0xF2FDE38B EQ PUSH2 0x33A JUMPI DUP1 PUSH4 0xF887EA40 EQ PUSH2 0x363 JUMPI DUP1 PUSH4 0xF92966E1 EQ PUSH2 0x38E JUMPI PUSH2 0xF3 JUMP JUMPDEST DUP1 PUSH4 0x7EF45FDE EQ PUSH2 0x23A JUMPI DUP1 PUSH4 0x8DA5CB5B EQ PUSH2 0x277 JUMPI DUP1 PUSH4 0xB6B55F25 EQ PUSH2 0x2A2 JUMPI DUP1 PUSH4 0xCE7C2AC2 EQ PUSH2 0x2D2 JUMPI PUSH2 0xF3 JUMP JUMPDEST DUP1 PUSH4 0x44C2B6D0 GT PUSH2 0xC6 JUMPI DUP1 PUSH4 0x44C2B6D0 EQ PUSH2 0x1A4 JUMPI DUP1 PUSH4 0x481C6A75 EQ PUSH2 0x1E1 JUMPI DUP1 PUSH4 0x4E71E0C8 EQ PUSH2 0x20C JUMPI DUP1 PUSH4 0x715018A6 EQ PUSH2 0x223 JUMPI PUSH2 0xF3 JUMP JUMPDEST DUP1 PUSH4 0x2C1B274 EQ PUSH2 0xF8 JUMPI DUP1 PUSH4 0x16F0115B EQ PUSH2 0x123 JUMPI DUP1 PUSH4 0x3CCFD60B EQ PUSH2 0x14E JUMPI DUP1 PUSH4 0x4230ADC9 EQ PUSH2 0x179 JUMPI JUMPDEST PUSH1 0x0 DUP1 REVERT JUMPDEST CALLVALUE DUP1 ISZERO PUSH2 0x104 JUMPI PUSH1 0x0 DUP1 REVERT JUMPDEST POP PUSH2 0x10D PUSH2 0x3B9 JUMP JUMPDEST PUSH1 0x40 MLOAD PUSH2 0x11A SWAP2 SWAP1 PUSH2 0x1CD9 JUMP JUMPDEST PUSH1 0x40 MLOAD DUP1 SWAP2 SUB SWAP1 RETURN JUMPDEST CALLVALUE DUP1 ISZERO PUSH2 0x12F JUMPI PUSH1 0x0 DUP1 REVERT JUMPDEST POP PUSH2 0x138 PUSH2 0x3BF JUMP JUMPDEST PUSH1 0x40 MLOAD PUSH2 0x145 SWAP2 SWAP1 PUSH2 0x1B20 JUMP JUMPDEST PUSH1 0x40 MLOAD DUP1 SWAP2 SUB SWAP1 RETURN JUMPDEST CALLVALUE DUP1 ISZERO PUSH2 0x15A JUMPI PUSH1 0x0 DUP1 REVERT JUMPDEST POP PUSH2 0x163 PUSH2 0x3E5 JUMP JUMPDEST PUSH1 0x40 MLOAD PUSH2 0x170 SWAP2 SWAP1 PUSH2 0x1CD9 JUMP JUMPDEST PUSH1 0x40 MLOAD DUP1 SWAP2 SUB SWAP1 RETURN JUMPDEST CALLVALUE DUP1 ISZERO PUSH2 0x185 JUMPI PUSH1 0x0 DUP1 REVERT JUMPDEST POP PUSH2 0x18E PUSH2 0x528 JUMP JUMPDEST PUSH1 0x40 MLOAD PUSH2 0x19B SWAP2 SWAP1 PUSH2 0x1CD9 JUMP JUMPDEST PUSH1 0x40 MLOAD DUP1 SWAP2 SUB SWAP1 RETURN JUMPDEST CALLVALUE DUP1 ISZERO PUSH2 0x1B0 JUMPI PUSH1 0x0 DUP1 REVERT JUMPDEST POP PUSH2 0x1CB PUSH1 0x4 DUP1 CALLDATASIZE SUB DUP2 ADD SWAP1 PUSH2 0x1C6 SWAP2 SWAP1 PUSH2 0x16F5 JUMP JUMPDEST PUSH2 0x52E JUMP JUMPDEST PUSH1 0x40 MLOAD PUSH2 0x1D8 SWAP2 SWAP1 PUSH2 0x1CD9 JUMP JUMPDEST PUSH1 0x40 MLOAD DUP1 SWAP2 SUB SWAP1 RETURN JUMPDEST CALLVALUE DUP1 ISZERO PUSH2 0x1ED JUMPI PUSH1 0x0 DUP1 REVERT JUMPDEST POP PUSH2 0x1F6 PUSH2 0x77D JUMP JUMPDEST PUSH1 0x40 MLOAD PUSH2 0x203 SWAP2 SWAP1 PUSH2 0x1B20 JUMP JUMPDEST PUSH1 0x40 MLOAD DUP1 SWAP2 SUB SWAP1 RETURN JUMPDEST CALLVALUE DUP1 ISZERO PUSH2 0x218 JUMPI PUSH1 0x0 DUP1 REVERT JUMPDEST POP PUSH2 0x221 PUSH2 0x7A7 JUMP JUMPDEST STOP JUMPDEST CALLVALUE DUP1 ISZERO PUSH2 0x22F JUMPI PUSH1 0x0 DUP1 REVERT JUMPDEST POP PUSH2 0x238 PUSH2 0x8A6 JUMP JUMPDEST STOP JUMPDEST CALLVALUE DUP1 ISZERO PUSH2 0x246 JUMPI PUSH1 0x0 DUP1 REVERT JUMPDEST POP PUSH2 0x261 PUSH1 0x4 DUP1 CALLDATASIZE SUB DUP2 ADD SWAP1 PUSH2 0x25C SWAP2 SWAP1 PUSH2 0x16F5 JUMP JUMPDEST PUSH2 0x927 JUMP JUMPDEST PUSH1 0x40 MLOAD PUSH2 0x26E SWAP2 SWAP1 PUSH2 0x1CD9 JUMP JUMPDEST PUSH1 0x40 MLOAD DUP1 SWAP2 SUB SWAP1 RETURN JUMPDEST CALLVALUE DUP1 ISZERO PUSH2 0x283 JUMPI PUSH1 0x0 DUP1 REVERT JUMPDEST POP PUSH2 0x28C PUSH2 0xBFC JUMP JUMPDEST PUSH1 0x40 MLOAD PUSH2 0x299 SWAP2 SWAP1 PUSH2 0x1B20 JUMP JUMPDEST PUSH1 0x40 MLOAD DUP1 SWAP2 SUB SWAP1 RETURN JUMPDEST PUSH2 0x2BC PUSH1 0x4 DUP1 CALLDATASIZE SUB DUP2 ADD SWAP1 PUSH2 0x2B7 SWAP2 SWAP1 PUSH2 0x16A3 JUMP JUMPDEST PUSH2 0xC25 JUMP JUMPDEST PUSH1 0x40 MLOAD PUSH2 0x2C9 SWAP2 SWAP1 PUSH2 0x1CD9 JUMP JUMPDEST PUSH1 0x40 MLOAD DUP1 SWAP2 SUB SWAP1 RETURN JUMPDEST CALLVALUE DUP1 ISZERO PUSH2 0x2DE JUMPI PUSH1 0x0 DUP1 REVERT JUMPDEST POP PUSH2 0x2F9 PUSH1 0x4 DUP1 CALLDATASIZE SUB DUP2 ADD SWAP1 PUSH2 0x2F4 SWAP2 SWAP1 PUSH2 0x15FF JUMP JUMPDEST PUSH2 0xDB4 JUMP JUMPDEST PUSH1 0x40 MLOAD PUSH2 0x306 SWAP2 SWAP1 PUSH2 0x1CD9 JUMP JUMPDEST PUSH1 0x40 MLOAD DUP1 SWAP2 SUB SWAP1 RETURN JUMPDEST CALLVALUE DUP1 ISZERO PUSH2 0x31B JUMPI PUSH1 0x0 DUP1 REVERT JUMPDEST POP PUSH2 0x324 PUSH2 0xDCC JUMP JUMPDEST PUSH1 0x40 MLOAD PUSH2 0x331 SWAP2 SWAP1 PUSH2 0x1B20 JUMP JUMPDEST PUSH1 0x40 MLOAD DUP1 SWAP2 SUB SWAP1 RETURN JUMPDEST CALLVALUE DUP1 ISZERO PUSH2 0x346 JUMPI PUSH1 0x0 DUP1 REVERT JUMPDEST POP PUSH2 0x361 PUSH1 0x4 DUP1 CALLDATASIZE SUB DUP2 ADD SWAP1 PUSH2 0x35C SWAP2 SWAP1 PUSH2 0x15FF JUMP JUMPDEST PUSH2 0xDF6 JUMP JUMPDEST STOP JUMPDEST CALLVALUE DUP1 ISZERO PUSH2 0x36F JUMPI PUSH1 0x0 DUP1 REVERT JUMPDEST POP PUSH2 0x378 PUSH2 0xF62 JUMP JUMPDEST PUSH1 0x40 MLOAD PUSH2 0x385 SWAP2 SWAP1 PUSH2 0x1B20 JUMP JUMPDEST PUSH1 0x40 MLOAD DUP1 SWAP2 SUB SWAP1 RETURN JUMPDEST CALLVALUE DUP1 ISZERO PUSH2 0x39A JUMPI PUSH1 0x0 DUP1 REVERT JUMPDEST POP PUSH2 0x3A3 PUSH2 0xF88 JUMP JUMPDEST PUSH1 0x40 MLOAD PUSH2 0x3B0 SWAP2 SWAP1 PUSH2 0x1CD9 JUMP JUMPDEST PUSH1 0x40 MLOAD DUP1 SWAP2 SUB SWAP1 RETURN JUMPDEST PUSH1 0x8 SLOAD DUP2 JUMP JUMPDEST PUSH1 0x4 PUSH1 0x0 SWAP1 SLOAD SWAP1 PUSH2 0x100 EXP SWAP1 DIV PUSH20 0xFFFFFFFFFFFFFFFFFFFFFFFFFFFFFFFFFFFFFFFF AND DUP2 JUMP JUMPDEST PUSH1 0x0 DUP1 PUSH1 0x5 PUSH1 0x0 CALLER PUSH20 0xFFFFFFFFFFFFFFFFFFFFFFFFFFFFFFFFFFFFFFFF AND PUSH20 0xFFFFFFFFFFFFFFFFFFFFFFFFFFFFFFFFFFFFFFFF AND DUP2 MSTORE PUSH1 0x20 ADD SWAP1 DUP2 MSTORE PUSH1 0x20 ADD PUSH1 0x0 KECCAK256 SLOAD SWAP1 POP PUSH1 0x0 DUP2 GT PUSH2 0x46D JUMPI PUSH1 0x40 MLOAD PUSH32 0x8C379A000000000000000000000000000000000000000000000000000000000 DUP2 MSTORE PUSH1 0x4 ADD PUSH2 0x464 SWAP1 PUSH2 0x1C1D JUMP JUMPDEST PUSH1 0x40 MLOAD DUP1 SWAP2 SUB SWAP1 REVERT JUMPDEST PUSH1 0x0 PUSH2 0x498 PUSH1 0x7 SLOAD PUSH2 0x48A PUSH1 0x6 SLOAD DUP6 PUSH2 0xF8E SWAP1 SWAP2 SWAP1 PUSH4 0xFFFFFFFF AND JUMP JUMPDEST PUSH2 0xFA4 SWAP1 SWAP2 SWAP1 PUSH4 0xFFFFFFFF AND JUMP JUMPDEST SWAP1 POP PUSH1 0x0 PUSH2 0x4A4 PUSH2 0xFBA JUMP JUMPDEST SWAP1 POP PUSH2 0x4D1 CALLER DUP4 DUP4 PUSH20 0xFFFFFFFFFFFFFFFFFFFFFFFFFFFFFFFFFFFFFFFF AND PUSH2 0x1114 SWAP1 SWAP3 SWAP2 SWAP1 PUSH4 0xFFFFFFFF AND JUMP JUMPDEST CALLER PUSH20 0xFFFFFFFFFFFFFFFFFFFFFFFFFFFFFFFFFFFFFFFF AND PUSH32 0x884EDAD9CE6FA2440D8A54CC123490EB96D2768479D49FF9C7366125A9424364 DUP4 PUSH1 0x40 MLOAD PUSH2 0x517 SWAP2 SWAP1 PUSH2 0x1CD9 JUMP JUMPDEST PUSH1 0x40 MLOAD DUP1 SWAP2 SUB SWAP1 LOG2 DUP2 SWAP4 POP POP POP POP SWAP1 JUMP JUMPDEST PUSH1 0x6 SLOAD DUP2 JUMP JUMPDEST PUSH1 0x0 DUP1 DUP4 GT PUSH2 0x572 JUMPI PUSH1 0x40 MLOAD PUSH32 0x8C379A000000000000000000000000000000000000000000000000000000000 DUP2 MSTORE PUSH1 0x4 ADD PUSH2 0x569 SWAP1 PUSH2 0x1C3D JUMP JUMPDEST PUSH1 0x40 MLOAD DUP1 SWAP2 SUB SWAP1 REVERT JUMPDEST PUSH1 0x0 PUSH2 0x57C PUSH2 0xFBA JUMP JUMPDEST SWAP1 POP PUSH1 0x0 PUSH2 0x588 PUSH2 0xFBA JUMP JUMPDEST SWAP1 POP PUSH1 0x0 PUSH1 0x4 PUSH1 0x0 SWAP1 SLOAD SWAP1 PUSH2 0x100 EXP SWAP1 DIV PUSH20 0xFFFFFFFFFFFFFFFFFFFFFFFFFFFFFFFFFFFFFFFF AND PUSH20 0xFFFFFFFFFFFFFFFFFFFFFFFFFFFFFFFFFFFFFFFF AND PUSH4 0xDDCA3F43 PUSH1 0x40 MLOAD DUP2 PUSH4 0xFFFFFFFF AND PUSH1 0xE0 SHL DUP2 MSTORE PUSH1 0x4 ADD PUSH1 0x20 PUSH1 0x40 MLOAD DUP1 DUP4 SUB DUP2 DUP7 DUP1 EXTCODESIZE ISZERO DUP1 ISZERO PUSH2 0x5F4 JUMPI PUSH1 0x0 DUP1 REVERT JUMPDEST POP GAS STATICCALL ISZERO DUP1 ISZERO PUSH2 0x608 JUMPI RETURNDATASIZE PUSH1 0x0 DUP1 RETURNDATACOPY RETURNDATASIZE PUSH1 0x0 REVERT JUMPDEST POP POP POP POP PUSH1 0x40 MLOAD RETURNDATASIZE PUSH1 0x1F NOT PUSH1 0x1F DUP3 ADD AND DUP3 ADD DUP1 PUSH1 0x40 MSTORE POP DUP2 ADD SWAP1 PUSH2 0x62C SWAP2 SWAP1 PUSH2 0x167A JUMP JUMPDEST SWAP1 POP PUSH1 0x3 PUSH1 0x0 SWAP1 SLOAD SWAP1 PUSH2 0x100 EXP SWAP1 DIV PUSH20 0xFFFFFFFFFFFFFFFFFFFFFFFFFFFFFFFFFFFFFFFF AND PUSH20 0xFFFFFFFFFFFFFFFFFFFFFFFFFFFFFFFFFFFFFFFF AND PUSH4 0x414BF389 PUSH1 0x40 MLOAD DUP1 PUSH2 0x100 ADD PUSH1 0x40 MSTORE DUP1 DUP7 PUSH20 0xFFFFFFFFFFFFFFFFFFFFFFFFFFFFFFFFFFFFFFFF AND DUP2 MSTORE PUSH1 0x20 ADD DUP6 PUSH20 0xFFFFFFFFFFFFFFFFFFFFFFFFFFFFFFFFFFFFFFFF AND DUP2 MSTORE PUSH1 0x20 ADD DUP5 PUSH3 0xFFFFFF AND DUP2 MSTORE PUSH1 0x20 ADD ADDRESS PUSH20 0xFFFFFFFFFFFFFFFFFFFFFFFFFFFFFFFFFFFFFFFF AND DUP2 MSTORE PUSH1 0x20 ADD TIMESTAMP DUP2 MSTORE PUSH1 0x20 ADD PUSH1 0x7 SLOAD DUP2 MSTORE PUSH1 0x20 ADD DUP10 DUP2 MSTORE PUSH1 0x20 ADD DUP9 PUSH20 0xFFFFFFFFFFFFFFFFFFFFFFFFFFFFFFFFFFFFFFFF AND DUP2 MSTORE POP PUSH1 0x40 MLOAD DUP3 PUSH4 0xFFFFFFFF AND PUSH1 0xE0 SHL DUP2 MSTORE PUSH1 0x4 ADD PUSH2 0x721 SWAP2 SWAP1 PUSH2 0x1CBD JUMP JUMPDEST PUSH1 0x20 PUSH1 0x40 MLOAD DUP1 DUP4 SUB DUP2 PUSH1 0x0 DUP8 DUP1 EXTCODESIZE ISZERO DUP1 ISZERO PUSH2 0x73B JUMPI PUSH1 0x0 DUP1 REVERT JUMPDEST POP GAS CALL ISZERO DUP1 ISZERO PUSH2 0x74F JUMPI RETURNDATASIZE PUSH1 0x0 DUP1 RETURNDATACOPY RETURNDATASIZE PUSH1 0x0 REVERT JUMPDEST POP POP POP POP PUSH1 0x40 MLOAD RETURNDATASIZE PUSH1 0x1F NOT PUSH1 0x1F DUP3 ADD AND DUP3 ADD DUP1 PUSH1 0x40 MSTORE POP DUP2 ADD SWAP1 PUSH2 0x773 SWAP2 SWAP1 PUSH2 0x16CC JUMP JUMPDEST POP POP POP POP SWAP3 SWAP2 POP POP JUMP JUMPDEST PUSH1 0x0 PUSH1 0x2 PUSH1 0x0 SWAP1 SLOAD SWAP1 PUSH2 0x100 EXP SWAP1 DIV PUSH20 0xFFFFFFFFFFFFFFFFFFFFFFFFFFFFFFFFFFFFFFFF AND SWAP1 POP SWAP1 JUMP JUMPDEST PUSH1 0x1 PUSH1 0x0 SWAP1 SLOAD SWAP1 PUSH2 0x100 EXP SWAP1 DIV PUSH20 0xFFFFFFFFFFFFFFFFFFFFFFFFFFFFFFFFFFFFFFFF AND PUSH20 0xFFFFFFFFFFFFFFFFFFFFFFFFFFFFFFFFFFFFFFFF AND CALLER PUSH20 0xFFFFFFFFFFFFFFFFFFFFFFFFFFFFFFFFFFFFFFFF AND EQ PUSH2 0x837 JUMPI PUSH1 0x40 MLOAD PUSH32 0x8C379A000000000000000000000000000000000000000000000000000000000 DUP2 MSTORE PUSH1 0x4 ADD PUSH2 0x82E SWAP1 PUSH2 0x1BFD JUMP JUMPDEST PUSH1 0x40 MLOAD DUP1 SWAP2 SUB SWAP1 REVERT JUMPDEST PUSH2 0x862 PUSH1 0x1 PUSH1 0x0 SWAP1 SLOAD SWAP1 PUSH2 0x100 EXP SWAP1 DIV PUSH20 0xFFFFFFFFFFFFFFFFFFFFFFFFFFFFFFFFFFFFFFFF AND PUSH2 0x119A JUMP JUMPDEST PUSH1 0x0 PUSH1 0x1 PUSH1 0x0 PUSH2 0x100 EXP DUP2 SLOAD DUP2 PUSH20 0xFFFFFFFFFFFFFFFFFFFFFFFFFFFFFFFFFFFFFFFF MUL NOT AND SWAP1 DUP4 PUSH20 0xFFFFFFFFFFFFFFFFFFFFFFFFFFFFFFFFFFFFFFFF AND MUL OR SWAP1 SSTORE POP JUMP JUMPDEST CALLER PUSH20 0xFFFFFFFFFFFFFFFFFFFFFFFFFFFFFFFFFFFFFFFF AND PUSH2 0x8C5 PUSH2 0xBFC JUMP JUMPDEST PUSH20 0xFFFFFFFFFFFFFFFFFFFFFFFFFFFFFFFFFFFFFFFF AND EQ PUSH2 0x91B JUMPI PUSH1 0x40 MLOAD PUSH32 0x8C379A000000000000000000000000000000000000000000000000000000000 DUP2 MSTORE PUSH1 0x4 ADD PUSH2 0x912 SWAP1 PUSH2 0x1BDD JUMP JUMPDEST PUSH1 0x40 MLOAD DUP1 SWAP2 SUB SWAP1 REVERT JUMPDEST PUSH2 0x925 PUSH1 0x0 PUSH2 0x119A JUMP JUMPDEST JUMP JUMPDEST PUSH1 0x0 DUP1 DUP4 GT PUSH2 0x96B JUMPI PUSH1 0x40 MLOAD PUSH32 0x8C379A000000000000000000000000000000000000000000000000000000000 DUP2 MSTORE PUSH1 0x4 ADD PUSH2 0x962 SWAP1 PUSH2 0x1C3D JUMP JUMPDEST PUSH1 0x40 MLOAD DUP1 SWAP2 SUB SWAP1 REVERT JUMPDEST PUSH1 0x0 PUSH2 0x975 PUSH2 0xFBA JUMP JUMPDEST SWAP1 POP PUSH1 0x0 PUSH2 0x981 PUSH2 0xFBA JUMP JUMPDEST SWAP1 POP PUSH1 0x0 PUSH1 0x4 PUSH1 0x0 SWAP1 SLOAD SWAP1 PUSH2 0x100 EXP SWAP1 DIV PUSH20 0xFFFFFFFFFFFFFFFFFFFFFFFFFFFFFFFFFFFFFFFF AND PUSH20 0xFFFFFFFFFFFFFFFFFFFFFFFFFFFFFFFFFFFFFFFF AND PUSH4 0xDDCA3F43 PUSH1 0x40 MLOAD DUP2 PUSH4 0xFFFFFFFF AND PUSH1 0xE0 SHL DUP2 MSTORE PUSH1 0x4 ADD PUSH1 0x20 PUSH1 0x40 MLOAD DUP1 DUP4 SUB DUP2 DUP7 DUP1 EXTCODESIZE ISZERO DUP1 ISZERO PUSH2 0x9ED JUMPI PUSH1 0x0 DUP1 REVERT JUMPDEST POP GAS STATICCALL ISZERO DUP1 ISZERO PUSH2 0xA01 JUMPI RETURNDATASIZE PUSH1 0x0 DUP1 RETURNDATACOPY RETURNDATASIZE PUSH1 0x0 REVERT JUMPDEST POP POP POP POP PUSH1 0x40 MLOAD RETURNDATASIZE PUSH1 0x1F NOT PUSH1 0x1F DUP3 ADD AND DUP3 ADD DUP1 PUSH1 0x40 MSTORE POP DUP2 ADD SWAP1 PUSH2 0xA25 SWAP2 SWAP1 PUSH2 0x167A JUMP JUMPDEST SWAP1 POP PUSH1 0x3 PUSH1 0x0 SWAP1 SLOAD SWAP1 PUSH2 0x100 EXP SWAP1 DIV PUSH20 0xFFFFFFFFFFFFFFFFFFFFFFFFFFFFFFFFFFFFFFFF AND PUSH20 0xFFFFFFFFFFFFFFFFFFFFFFFFFFFFFFFFFFFFFFFF AND PUSH4 0x414BF389 PUSH1 0x40 MLOAD DUP1 PUSH2 0x100 ADD PUSH1 0x40 MSTORE DUP1 DUP6 PUSH20 0xFFFFFFFFFFFFFFFFFFFFFFFFFFFFFFFFFFFFFFFF AND DUP2 MSTORE PUSH1 0x20 ADD DUP7 PUSH20 0xFFFFFFFFFFFFFFFFFFFFFFFFFFFFFFFFFFFFFFFF AND DUP2 MSTORE PUSH1 0x20 ADD DUP5 PUSH3 0xFFFFFF AND DUP2 MSTORE PUSH1 0x20 ADD ADDRESS PUSH20 0xFFFFFFFFFFFFFFFFFFFFFFFFFFFFFFFFFFFFFFFF AND DUP2 MSTORE PUSH1 0x20 ADD TIMESTAMP DUP2 MSTORE PUSH1 0x20 ADD DUP6 PUSH20 0xFFFFFFFFFFFFFFFFFFFFFFFFFFFFFFFFFFFFFFFF AND PUSH4 0x70A08231 ADDRESS PUSH1 0x40 MLOAD DUP3 PUSH4 0xFFFFFFFF AND PUSH1 0xE0 SHL DUP2 MSTORE PUSH1 0x4 ADD PUSH2 0xB0F SWAP2 SWAP1 PUSH2 0x1B20 JUMP JUMPDEST PUSH1 0x20 PUSH1 0x40 MLOAD DUP1 DUP4 SUB DUP2 DUP7 DUP1 EXTCODESIZE ISZERO DUP1 ISZERO PUSH2 0xB27 JUMPI PUSH1 0x0 DUP1 REVERT JUMPDEST POP GAS STATICCALL ISZERO DUP1 ISZERO PUSH2 0xB3B JUMPI RETURNDATASIZE PUSH1 0x0 DUP1 RETURNDATACOPY RETURNDATASIZE PUSH1 0x0 REVERT JUMPDEST POP POP POP POP PUSH1 0x40 MLOAD RETURNDATASIZE PUSH1 0x1F NOT PUSH1 0x1F DUP3 ADD AND DUP3 ADD DUP1 PUSH1 0x40 MSTORE POP DUP2 ADD SWAP1 PUSH2 0xB5F SWAP2 SWAP1 PUSH2 0x16CC JUMP JUMPDEST DUP2 MSTORE PUSH1 0x20 ADD DUP10 DUP2 MSTORE PUSH1 0x20 ADD DUP9 PUSH20 0xFFFFFFFFFFFFFFFFFFFFFFFFFFFFFFFFFFFFFFFF AND DUP2 MSTORE POP PUSH1 0x40 MLOAD DUP3 PUSH4 0xFFFFFFFF AND PUSH1 0xE0 SHL DUP2 MSTORE PUSH1 0x4 ADD PUSH2 0xBA0 SWAP2 SWAP1 PUSH2 0x1CBD JUMP JUMPDEST PUSH1 0x20 PUSH1 0x40 MLOAD DUP1 DUP4 SUB DUP2 PUSH1 0x0 DUP8 DUP1 EXTCODESIZE ISZERO DUP1 ISZERO PUSH2 0xBBA JUMPI PUSH1 0x0 DUP1 REVERT JUMPDEST POP GAS CALL ISZERO DUP1 ISZERO PUSH2 0xBCE JUMPI RETURNDATASIZE PUSH1 0x0 DUP1 RETURNDATACOPY RETURNDATASIZE PUSH1 0x0 REVERT JUMPDEST POP POP POP POP PUSH1 0x40 MLOAD RETURNDATASIZE PUSH1 0x1F NOT PUSH1 0x1F DUP3 ADD AND DUP3 ADD DUP1 PUSH1 0x40 MSTORE POP DUP2 ADD SWAP1 PUSH2 0xBF2 SWAP2 SWAP1 PUSH2 0x16CC JUMP JUMPDEST POP POP POP POP SWAP3 SWAP2 POP POP JUMP JUMPDEST PUSH1 0x0 DUP1 PUSH1 0x0 SWAP1 SLOAD SWAP1 PUSH2 0x100 EXP SWAP1 DIV PUSH20 0xFFFFFFFFFFFFFFFFFFFFFFFFFFFFFFFFFFFFFFFF AND SWAP1 POP SWAP1 JUMP JUMPDEST PUSH1 0x0 DUP2 PUSH1 0x5 PUSH1 0x0 CALLER PUSH20 0xFFFFFFFFFFFFFFFFFFFFFFFFFFFFFFFFFFFFFFFF AND PUSH20 0xFFFFFFFFFFFFFFFFFFFFFFFFFFFFFFFFFFFFFFFF AND DUP2 MSTORE PUSH1 0x20 ADD SWAP1 DUP2 MSTORE PUSH1 0x20 ADD PUSH1 0x0 KECCAK256 PUSH1 0x0 DUP3 DUP3 SLOAD PUSH2 0xC76 SWAP2 SWAP1 PUSH2 0x1D26 JUMP JUMPDEST SWAP3 POP POP DUP2 SWAP1 SSTORE POP CALLVALUE PUSH1 0x7 PUSH1 0x0 DUP3 DUP3 SLOAD PUSH2 0xC8F SWAP2 SWAP1 PUSH2 0x1D26 JUMP JUMPDEST SWAP3 POP POP DUP2 SWAP1 SSTORE POP PUSH1 0x0 PUSH2 0xCA0 PUSH2 0xFBA JUMP JUMPDEST SWAP1 POP DUP1 PUSH20 0xFFFFFFFFFFFFFFFFFFFFFFFFFFFFFFFFFFFFFFFF AND PUSH4 0x95EA7B3 ADDRESS DUP6 PUSH1 0x40 MLOAD DUP4 PUSH4 0xFFFFFFFF AND PUSH1 0xE0 SHL DUP2 MSTORE PUSH1 0x4 ADD PUSH2 0xCDD SWAP3 SWAP2 SWAP1 PUSH2 0x1B72 JUMP JUMPDEST PUSH1 0x20 PUSH1 0x40 MLOAD DUP1 DUP4 SUB DUP2 PUSH1 0x0 DUP8 DUP1 EXTCODESIZE ISZERO DUP1 ISZERO PUSH2 0xCF7 JUMPI PUSH1 0x0 DUP1 REVERT JUMPDEST POP GAS CALL ISZERO DUP1 ISZERO PUSH2 0xD0B JUMPI RETURNDATASIZE PUSH1 0x0 DUP1 RETURNDATACOPY RETURNDATASIZE PUSH1 0x0 REVERT JUMPDEST POP POP POP POP PUSH1 0x40 MLOAD RETURNDATASIZE PUSH1 0x1F NOT PUSH1 0x1F DUP3 ADD AND DUP3 ADD DUP1 PUSH1 0x40 MSTORE POP DUP2 ADD SWAP1 PUSH2 0xD2F SWAP2 SWAP1 PUSH2 0x1651 JUMP JUMPDEST POP PUSH2 0xD5D CALLER ADDRESS DUP6 DUP5 PUSH20 0xFFFFFFFFFFFFFFFFFFFFFFFFFFFFFFFFFFFFFFFF AND PUSH2 0x125E SWAP1 SWAP4 SWAP3 SWAP2 SWAP1 PUSH4 0xFFFFFFFF AND JUMP JUMPDEST CALLER PUSH20 0xFFFFFFFFFFFFFFFFFFFFFFFFFFFFFFFFFFFFFFFF AND PUSH32 0xE1FFFCC4923D04B559F4D29A8BFC6CDA04EB5B0D3C460751C2402C5C5CC9109C DUP5 PUSH1 0x40 MLOAD PUSH2 0xDA3 SWAP2 SWAP1 PUSH2 0x1CD9 JUMP JUMPDEST PUSH1 0x40 MLOAD DUP1 SWAP2 SUB SWAP1 LOG2 DUP3 SWAP2 POP POP SWAP2 SWAP1 POP JUMP JUMPDEST PUSH1 0x5 PUSH1 0x20 MSTORE DUP1 PUSH1 0x0 MSTORE PUSH1 0x40 PUSH1 0x0 KECCAK256 PUSH1 0x0 SWAP2 POP SWAP1 POP SLOAD DUP2 JUMP JUMPDEST PUSH1 0x0 PUSH1 0x1 PUSH1 0x0 SWAP1 SLOAD SWAP1 PUSH2 0x100 EXP SWAP1 DIV PUSH20 0xFFFFFFFFFFFFFFFFFFFFFFFFFFFFFFFFFFFFFFFF AND SWAP1 POP SWAP1 JUMP JUMPDEST CALLER PUSH20 0xFFFFFFFFFFFFFFFFFFFFFFFFFFFFFFFFFFFFFFFF AND PUSH2 0xE15 PUSH2 0xBFC JUMP JUMPDEST PUSH20 0xFFFFFFFFFFFFFFFFFFFFFFFFFFFFFFFFFFFFFFFF AND EQ PUSH2 0xE6B JUMPI PUSH1 0x40 MLOAD PUSH32 0x8C379A000000000000000000000000000000000000000000000000000000000 DUP2 MSTORE PUSH1 0x4 ADD PUSH2 0xE62 SWAP1 PUSH2 0x1BDD JUMP JUMPDEST PUSH1 0x40 MLOAD DUP1 SWAP2 SUB SWAP1 REVERT JUMPDEST PUSH1 0x0 PUSH20 0xFFFFFFFFFFFFFFFFFFFFFFFFFFFFFFFFFFFFFFFF AND DUP2 PUSH20 0xFFFFFFFFFFFFFFFFFFFFFFFFFFFFFFFFFFFFFFFF AND EQ ISZERO PUSH2 0xEDB JUMPI PUSH1 0x40 MLOAD PUSH32 0x8C379A000000000000000000000000000000000000000000000000000000000 DUP2 MSTORE PUSH1 0x4 ADD PUSH2 0xED2 SWAP1 PUSH2 0x1C7D JUMP JUMPDEST PUSH1 0x40 MLOAD DUP1 SWAP2 SUB SWAP1 REVERT JUMPDEST DUP1 PUSH1 0x1 PUSH1 0x0 PUSH2 0x100 EXP DUP2 SLOAD DUP2 PUSH20 0xFFFFFFFFFFFFFFFFFFFFFFFFFFFFFFFFFFFFFFFF MUL NOT AND SWAP1 DUP4 PUSH20 0xFFFFFFFFFFFFFFFFFFFFFFFFFFFFFFFFFFFFFFFF AND MUL OR SWAP1 SSTORE POP DUP1 PUSH20 0xFFFFFFFFFFFFFFFFFFFFFFFFFFFFFFFFFFFFFFFF AND PUSH32 0x239A2DDDED15777FA246AED5F7E1A9BC69A39D4EB4A397034D1D85766CCA7D4C PUSH1 0x40 MLOAD PUSH1 0x40 MLOAD DUP1 SWAP2 SUB SWAP1 LOG2 POP JUMP JUMPDEST PUSH1 0x3 PUSH1 0x0 SWAP1 SLOAD SWAP1 PUSH2 0x100 EXP SWAP1 DIV PUSH20 0xFFFFFFFFFFFFFFFFFFFFFFFFFFFFFFFFFFFFFFFF AND DUP2 JUMP JUMPDEST PUSH1 0x7 SLOAD DUP2 JUMP JUMPDEST PUSH1 0x0 DUP2 DUP4 PUSH2 0xF9C SWAP2 SWAP1 PUSH2 0x1DAD JUMP JUMPDEST SWAP1 POP SWAP3 SWAP2 POP POP JUMP JUMPDEST PUSH1 0x0 DUP2 DUP4 PUSH2 0xFB2 SWAP2 SWAP1 PUSH2 0x1D7C JUMP JUMPDEST SWAP1 POP SWAP3 SWAP2 POP POP JUMP JUMPDEST PUSH1 0x0 DUP1 PUSH1 0x4 PUSH1 0x0 SWAP1 SLOAD SWAP1 PUSH2 0x100 EXP SWAP1 DIV PUSH20 0xFFFFFFFFFFFFFFFFFFFFFFFFFFFFFFFFFFFFFFFF AND PUSH20 0xFFFFFFFFFFFFFFFFFFFFFFFFFFFFFFFFFFFFFFFF AND PUSH4 0xDFE1681 PUSH1 0x40 MLOAD DUP2 PUSH4 0xFFFFFFFF AND PUSH1 0xE0 SHL DUP2 MSTORE PUSH1 0x4 ADD PUSH1 0x20 PUSH1 0x40 MLOAD DUP1 DUP4 SUB DUP2 DUP7 DUP1 EXTCODESIZE ISZERO DUP1 ISZERO PUSH2 0x1025 JUMPI PUSH1 0x0 DUP1 REVERT JUMPDEST POP GAS STATICCALL ISZERO DUP1 ISZERO PUSH2 0x1039 JUMPI RETURNDATASIZE PUSH1 0x0 DUP1 RETURNDATACOPY RETURNDATASIZE PUSH1 0x0 REVERT JUMPDEST POP POP POP POP PUSH1 0x40 MLOAD RETURNDATASIZE PUSH1 0x1F NOT PUSH1 0x1F DUP3 ADD AND DUP3 ADD DUP1 PUSH1 0x40 MSTORE POP DUP2 ADD SWAP1 PUSH2 0x105D SWAP2 SWAP1 PUSH2 0x1628 JUMP JUMPDEST SWAP1 POP PUSH1 0x1 PUSH1 0x8 SLOAD EQ ISZERO PUSH2 0x110D JUMPI PUSH1 0x4 PUSH1 0x0 SWAP1 SLOAD SWAP1 PUSH2 0x100 EXP SWAP1 DIV PUSH20 0xFFFFFFFFFFFFFFFFFFFFFFFFFFFFFFFFFFFFFFFF AND PUSH20 0xFFFFFFFFFFFFFFFFFFFFFFFFFFFFFFFFFFFFFFFF AND PUSH4 0xD21220A7 PUSH1 0x40 MLOAD DUP2 PUSH4 0xFFFFFFFF AND PUSH1 0xE0 SHL DUP2 MSTORE PUSH1 0x4 ADD PUSH1 0x20 PUSH1 0x40 MLOAD DUP1 DUP4 SUB DUP2 DUP7 DUP1 EXTCODESIZE ISZERO DUP1 ISZERO PUSH2 0x10D2 JUMPI PUSH1 0x0 DUP1 REVERT JUMPDEST POP GAS STATICCALL ISZERO DUP1 ISZERO PUSH2 0x10E6 JUMPI RETURNDATASIZE PUSH1 0x0 DUP1 RETURNDATACOPY RETURNDATASIZE PUSH1 0x0 REVERT JUMPDEST POP POP POP POP PUSH1 0x40 MLOAD RETURNDATASIZE PUSH1 0x1F NOT PUSH1 0x1F DUP3 ADD AND DUP3 ADD DUP1 PUSH1 0x40 MSTORE POP DUP2 ADD SWAP1 PUSH2 0x110A SWAP2 SWAP1 PUSH2 0x1628 JUMP JUMPDEST SWAP1 POP JUMPDEST DUP1 SWAP2 POP POP SWAP1 JUMP JUMPDEST PUSH2 0x1195 DUP4 PUSH4 0xA9059CBB PUSH1 0xE0 SHL DUP5 DUP5 PUSH1 0x40 MLOAD PUSH1 0x24 ADD PUSH2 0x1133 SWAP3 SWAP2 SWAP1 PUSH2 0x1B72 JUMP JUMPDEST PUSH1 0x40 MLOAD PUSH1 0x20 DUP2 DUP4 SUB SUB DUP2 MSTORE SWAP1 PUSH1 0x40 MSTORE SWAP1 PUSH28 0xFFFFFFFFFFFFFFFFFFFFFFFFFFFFFFFFFFFFFFFFFFFFFFFFFFFFFFFF NOT AND PUSH1 0x20 DUP3 ADD DUP1 MLOAD PUSH28 0xFFFFFFFFFFFFFFFFFFFFFFFFFFFFFFFFFFFFFFFFFFFFFFFFFFFFFFFF DUP4 DUP2 DUP4 AND OR DUP4 MSTORE POP POP POP POP PUSH2 0x12E7 JUMP JUMPDEST POP POP POP JUMP JUMPDEST PUSH1 0x0 DUP1 PUSH1 0x0 SWAP1 SLOAD SWAP1 PUSH2 0x100 EXP SWAP1 DIV PUSH20 0xFFFFFFFFFFFFFFFFFFFFFFFFFFFFFFFFFFFFFFFF AND SWAP1 POP DUP2 PUSH1 0x0 DUP1 PUSH2 0x100 EXP DUP2 SLOAD DUP2 PUSH20 0xFFFFFFFFFFFFFFFFFFFFFFFFFFFFFFFFFFFFFFFF MUL NOT AND SWAP1 DUP4 PUSH20 0xFFFFFFFFFFFFFFFFFFFFFFFFFFFFFFFFFFFFFFFF AND MUL OR SWAP1 SSTORE POP DUP2 PUSH20 0xFFFFFFFFFFFFFFFFFFFFFFFFFFFFFFFFFFFFFFFF AND DUP2 PUSH20 0xFFFFFFFFFFFFFFFFFFFFFFFFFFFFFFFFFFFFFFFF AND PUSH32 0x8BE0079C531659141344CD1FD0A4F28419497F9722A3DAAFE3B4186F6B6457E0 PUSH1 0x40 MLOAD PUSH1 0x40 MLOAD DUP1 SWAP2 SUB SWAP1 LOG3 POP POP JUMP JUMPDEST PUSH2 0x12E1 DUP5 PUSH4 0x23B872DD PUSH1 0xE0 SHL DUP6 DUP6 DUP6 PUSH1 0x40 MLOAD PUSH1 0x24 ADD PUSH2 0x127F SWAP4 SWAP3 SWAP2 SWAP1 PUSH2 0x1B3B JUMP JUMPDEST PUSH1 0x40 MLOAD PUSH1 0x20 DUP2 DUP4 SUB SUB DUP2 MSTORE SWAP1 PUSH1 0x40 MSTORE SWAP1 PUSH28 0xFFFFFFFFFFFFFFFFFFFFFFFFFFFFFFFFFFFFFFFFFFFFFFFFFFFFFFFF NOT AND PUSH1 0x20 DUP3 ADD DUP1 MLOAD PUSH28 0xFFFFFFFFFFFFFFFFFFFFFFFFFFFFFFFFFFFFFFFFFFFFFFFFFFFFFFFF DUP4 DUP2 DUP4 AND OR DUP4 MSTORE POP POP POP POP PUSH2 0x12E7 JUMP JUMPDEST POP POP POP POP JUMP JUMPDEST PUSH1 0x0 PUSH2 0x1349 DUP3 PUSH1 0x40 MLOAD DUP1 PUSH1 0x40 ADD PUSH1 0x40 MSTORE DUP1 PUSH1 0x20 DUP2 MSTORE PUSH1 0x20 ADD PUSH32 0x5361666545524332303A206C6F772D6C6576656C2063616C6C206661696C6564 DUP2 MSTORE POP DUP6 PUSH20 0xFFFFFFFFFFFFFFFFFFFFFFFFFFFFFFFFFFFFFFFF AND PUSH2 0x13AE SWAP1 SWAP3 SWAP2 SWAP1 PUSH4 0xFFFFFFFF AND JUMP JUMPDEST SWAP1 POP PUSH1 0x0 DUP2 MLOAD GT ISZERO PUSH2 0x13A9 JUMPI DUP1 DUP1 PUSH1 0x20 ADD SWAP1 MLOAD DUP2 ADD SWAP1 PUSH2 0x1369 SWAP2 SWAP1 PUSH2 0x1651 JUMP JUMPDEST PUSH2 0x13A8 JUMPI PUSH1 0x40 MLOAD PUSH32 0x8C379A000000000000000000000000000000000000000000000000000000000 DUP2 MSTORE PUSH1 0x4 ADD PUSH2 0x139F SWAP1 PUSH2 0x1C9D JUMP JUMPDEST PUSH1 0x40 MLOAD DUP1 SWAP2 SUB SWAP1 REVERT JUMPDEST JUMPDEST POP POP POP JUMP JUMPDEST PUSH1 0x60 PUSH2 0x13BD DUP5 DUP5 PUSH1 0x0 DUP6 PUSH2 0x13C6 JUMP JUMPDEST SWAP1 POP SWAP4 SWAP3 POP POP POP JUMP JUMPDEST PUSH1 0x60 DUP3 SELFBALANCE LT ISZERO PUSH2 0x140B JUMPI PUSH1 0x40 MLOAD PUSH32 0x8C379A000000000000000000000000000000000000000000000000000000000 DUP2 MSTORE PUSH1 0x4 ADD PUSH2 0x1402 SWAP1 PUSH2 0x1BBD JUMP JUMPDEST PUSH1 0x40 MLOAD DUP1 SWAP2 SUB SWAP1 REVERT JUMPDEST PUSH1 0x0 DUP1 DUP7 PUSH20 0xFFFFFFFFFFFFFFFFFFFFFFFFFFFFFFFFFFFFFFFF AND DUP6 DUP8 PUSH1 0x40 MLOAD PUSH2 0x1434 SWAP2 SWAP1 PUSH2 0x1B09 JUMP JUMPDEST PUSH1 0x0 PUSH1 0x40 MLOAD DUP1 DUP4 SUB DUP2 DUP6 DUP8 GAS CALL SWAP3 POP POP POP RETURNDATASIZE DUP1 PUSH1 0x0 DUP2 EQ PUSH2 0x1471 JUMPI PUSH1 0x40 MLOAD SWAP2 POP PUSH1 0x1F NOT PUSH1 0x3F RETURNDATASIZE ADD AND DUP3 ADD PUSH1 0x40 MSTORE RETURNDATASIZE DUP3 MSTORE RETURNDATASIZE PUSH1 0x0 PUSH1 0x20 DUP5 ADD RETURNDATACOPY PUSH2 0x1476 JUMP JUMPDEST PUSH1 0x60 SWAP2 POP JUMPDEST POP SWAP2 POP SWAP2 POP PUSH2 0x1487 DUP8 DUP4 DUP4 DUP8 PUSH2 0x1493 JUMP JUMPDEST SWAP3 POP POP POP SWAP5 SWAP4 POP POP POP POP JUMP JUMPDEST PUSH1 0x60 DUP4 ISZERO PUSH2 0x14F6 JUMPI PUSH1 0x0 DUP4 MLOAD EQ ISZERO PUSH2 0x14EE JUMPI PUSH2 0x14AE DUP6 PUSH2 0x1509 JUMP JUMPDEST PUSH2 0x14ED JUMPI PUSH1 0x40 MLOAD PUSH32 0x8C379A000000000000000000000000000000000000000000000000000000000 DUP2 MSTORE PUSH1 0x4 ADD PUSH2 0x14E4 SWAP1 PUSH2 0x1C5D JUMP JUMPDEST PUSH1 0x40 MLOAD DUP1 SWAP2 SUB SWAP1 REVERT JUMPDEST JUMPDEST DUP3 SWAP1 POP PUSH2 0x1501 JUMP JUMPDEST PUSH2 0x1500 DUP4 DUP4 PUSH2 0x151C JUMP JUMPDEST JUMPDEST SWAP5 SWAP4 POP POP POP POP JUMP JUMPDEST PUSH1 0x0 DUP1 DUP3 EXTCODESIZE SWAP1 POP PUSH1 0x0 DUP2 GT SWAP2 POP POP SWAP2 SWAP1 POP JUMP JUMPDEST PUSH1 0x0 DUP3 MLOAD GT ISZERO PUSH2 0x152F JUMPI DUP2 MLOAD DUP1 DUP4 PUSH1 0x20 ADD REVERT JUMPDEST DUP1 PUSH1 0x40 MLOAD PUSH32 0x8C379A000000000000000000000000000000000000000000000000000000000 DUP2 MSTORE PUSH1 0x4 ADD PUSH2 0x1563 SWAP2 SWAP1 PUSH2 0x1B9B JUMP JUMPDEST PUSH1 0x40 MLOAD DUP1 SWAP2 SUB SWAP1 REVERT JUMPDEST PUSH1 0x0 DUP2 CALLDATALOAD SWAP1 POP PUSH2 0x157B DUP2 PUSH2 0x1F00 JUMP JUMPDEST SWAP3 SWAP2 POP POP JUMP JUMPDEST PUSH1 0x0 DUP2 MLOAD SWAP1 POP PUSH2 0x1590 DUP2 PUSH2 0x1F00 JUMP JUMPDEST SWAP3 SWAP2 POP POP JUMP JUMPDEST PUSH1 0x0 DUP2 MLOAD SWAP1 POP PUSH2 0x15A5 DUP2 PUSH2 0x1F17 JUMP JUMPDEST SWAP3 SWAP2 POP POP JUMP JUMPDEST PUSH1 0x0 DUP2 CALLDATALOAD SWAP1 POP PUSH2 0x15BA DUP2 PUSH2 0x1F2E JUMP JUMPDEST SWAP3 SWAP2 POP POP JUMP JUMPDEST PUSH1 0x0 DUP2 MLOAD SWAP1 POP PUSH2 0x15CF DUP2 PUSH2 0x1F45 JUMP JUMPDEST SWAP3 SWAP2 POP POP JUMP JUMPDEST PUSH1 0x0 DUP2 CALLDATALOAD SWAP1 POP PUSH2 0x15E4 DUP2 PUSH2 0x1F5C JUMP JUMPDEST SWAP3 SWAP2 POP POP JUMP JUMPDEST PUSH1 0x0 DUP2 MLOAD SWAP1 POP PUSH2 0x15F9 DUP2 PUSH2 0x1F5C JUMP JUMPDEST SWAP3 SWAP2 POP POP JUMP JUMPDEST PUSH1 0x0 PUSH1 0x20 DUP3 DUP5 SUB SLT ISZERO PUSH2 0x1611 JUMPI PUSH1 0x0 DUP1 REVERT JUMPDEST PUSH1 0x0 PUSH2 0x161F DUP5 DUP3 DUP6 ADD PUSH2 0x156C JUMP JUMPDEST SWAP2 POP POP SWAP3 SWAP2 POP POP JUMP JUMPDEST PUSH1 0x0 PUSH1 0x20 DUP3 DUP5 SUB SLT ISZERO PUSH2 0x163A JUMPI PUSH1 0x0 DUP1 REVERT JUMPDEST PUSH1 0x0 PUSH2 0x1648 DUP5 DUP3 DUP6 ADD PUSH2 0x1581 JUMP JUMPDEST SWAP2 POP POP SWAP3 SWAP2 POP POP JUMP JUMPDEST PUSH1 0x0 PUSH1 0x20 DUP3 DUP5 SUB SLT ISZERO PUSH2 0x1663 JUMPI PUSH1 0x0 DUP1 REVERT JUMPDEST PUSH1 0x0 PUSH2 0x1671 DUP5 DUP3 DUP6 ADD PUSH2 0x1596 JUMP JUMPDEST SWAP2 POP POP SWAP3 SWAP2 POP POP JUMP JUMPDEST PUSH1 0x0 PUSH1 0x20 DUP3 DUP5 SUB SLT ISZERO PUSH2 0x168C JUMPI PUSH1 0x0 DUP1 REVERT JUMPDEST PUSH1 0x0 PUSH2 0x169A DUP5 DUP3 DUP6 ADD PUSH2 0x15C0 JUMP JUMPDEST SWAP2 POP POP SWAP3 SWAP2 POP POP JUMP JUMPDEST PUSH1 0x0 PUSH1 0x20 DUP3 DUP5 SUB SLT ISZERO PUSH2 0x16B5 JUMPI PUSH1 0x0 DUP1 REVERT JUMPDEST PUSH1 0x0 PUSH2 0x16C3 DUP5 DUP3 DUP6 ADD PUSH2 0x15D5 JUMP JUMPDEST SWAP2 POP POP SWAP3 SWAP2 POP POP JUMP JUMPDEST PUSH1 0x0 PUSH1 0x20 DUP3 DUP5 SUB SLT ISZERO PUSH2 0x16DE JUMPI PUSH1 0x0 DUP1 REVERT JUMPDEST PUSH1 0x0 PUSH2 0x16EC DUP5 DUP3 DUP6 ADD PUSH2 0x15EA JUMP JUMPDEST SWAP2 POP POP SWAP3 SWAP2 POP POP JUMP JUMPDEST PUSH1 0x0 DUP1 PUSH1 0x40 DUP4 DUP6 SUB SLT ISZERO PUSH2 0x1708 JUMPI PUSH1 0x0 DUP1 REVERT JUMPDEST PUSH1 0x0 PUSH2 0x1716 DUP6 DUP3 DUP7 ADD PUSH2 0x15D5 JUMP JUMPDEST SWAP3 POP POP PUSH1 0x20 PUSH2 0x1727 DUP6 DUP3 DUP7 ADD PUSH2 0x15AB JUMP JUMPDEST SWAP2 POP POP SWAP3 POP SWAP3 SWAP1 POP JUMP JUMPDEST PUSH2 0x173A DUP2 PUSH2 0x1E07 JUMP JUMPDEST DUP3 MSTORE POP POP JUMP JUMPDEST PUSH2 0x1749 DUP2 PUSH2 0x1E07 JUMP JUMPDEST DUP3 MSTORE POP POP JUMP JUMPDEST PUSH1 0x0 PUSH2 0x175A DUP3 PUSH2 0x1CF4 JUMP JUMPDEST PUSH2 0x1764 DUP2 DUP6 PUSH2 0x1D0A JUMP JUMPDEST SWAP4 POP PUSH2 0x1774 DUP2 DUP6 PUSH1 0x20 DUP7 ADD PUSH2 0x1E5E JUMP JUMPDEST DUP1 DUP5 ADD SWAP2 POP POP SWAP3 SWAP2 POP POP JUMP JUMPDEST PUSH1 0x0 PUSH2 0x178B DUP3 PUSH2 0x1CFF JUMP JUMPDEST PUSH2 0x1795 DUP2 DUP6 PUSH2 0x1D15 JUMP JUMPDEST SWAP4 POP PUSH2 0x17A5 DUP2 DUP6 PUSH1 0x20 DUP7 ADD PUSH2 0x1E5E JUMP JUMPDEST PUSH2 0x17AE DUP2 PUSH2 0x1EEF JUMP JUMPDEST DUP5 ADD SWAP2 POP POP SWAP3 SWAP2 POP POP JUMP JUMPDEST PUSH1 0x0 PUSH2 0x17C6 PUSH1 0x26 DUP4 PUSH2 0x1D15 JUMP JUMPDEST SWAP2 POP PUSH32 0x416464726573733A20696E73756666696369656E742062616C616E636520666F PUSH1 0x0 DUP4 ADD MSTORE PUSH32 0x722063616C6C0000000000000000000000000000000000000000000000000000 PUSH1 0x20 DUP4 ADD MSTORE PUSH1 0x40 DUP3 ADD SWAP1 POP SWAP2 SWAP1 POP JUMP JUMPDEST PUSH1 0x0 PUSH2 0x182C PUSH1 0x18 DUP4 PUSH2 0x1D15 JUMP JUMPDEST SWAP2 POP PUSH32 0x4F776E61626C652F63616C6C65722D6E6F742D6F776E65720000000000000000 PUSH1 0x0 DUP4 ADD MSTORE PUSH1 0x20 DUP3 ADD SWAP1 POP SWAP2 SWAP1 POP JUMP JUMPDEST PUSH1 0x0 PUSH2 0x186C PUSH1 0x1F DUP4 PUSH2 0x1D15 JUMP JUMPDEST SWAP2 POP PUSH32 0x4F776E61626C652F63616C6C65722D6E6F742D70656E64696E674F776E657200 PUSH1 0x0 DUP4 ADD MSTORE PUSH1 0x20 DUP3 ADD SWAP1 POP SWAP2 SWAP1 POP JUMP JUMPDEST PUSH1 0x0 PUSH2 0x18AC PUSH1 0x1F DUP4 PUSH2 0x1D15 JUMP JUMPDEST SWAP2 POP PUSH32 0x4172626974726167653A20696E73756666696369656E742062616C616E636500 PUSH1 0x0 DUP4 ADD MSTORE PUSH1 0x20 DUP3 ADD SWAP1 POP SWAP2 SWAP1 POP JUMP JUMPDEST PUSH1 0x0 PUSH2 0x18EC PUSH1 0x1D DUP4 PUSH2 0x1D15 JUMP JUMPDEST SWAP2 POP PUSH32 0x496E76616C6964206D696E696D756D206F757470757420616D6F756E74000000 PUSH1 0x0 DUP4 ADD MSTORE PUSH1 0x20 DUP3 ADD SWAP1 POP SWAP2 SWAP1 POP JUMP JUMPDEST PUSH1 0x0 PUSH2 0x192C PUSH1 0x1D DUP4 PUSH2 0x1D15 JUMP JUMPDEST SWAP2 POP PUSH32 0x416464726573733A2063616C6C20746F206E6F6E2D636F6E7472616374000000 PUSH1 0x0 DUP4 ADD MSTORE PUSH1 0x20 DUP3 ADD SWAP1 POP SWAP2 SWAP1 POP JUMP JUMPDEST PUSH1 0x0 PUSH2 0x196C PUSH1 0x25 DUP4 PUSH2 0x1D15 JUMP JUMPDEST SWAP2 POP PUSH32 0x4F776E61626C652F70656E64696E674F776E65722D6E6F742D7A65726F2D6164 PUSH1 0x0 DUP4 ADD MSTORE PUSH32 0x6472657373000000000000000000000000000000000000000000000000000000 PUSH1 0x20 DUP4 ADD MSTORE PUSH1 0x40 DUP3 ADD SWAP1 POP SWAP2 SWAP1 POP JUMP JUMPDEST PUSH1 0x0 PUSH2 0x19D2 PUSH1 0x2A DUP4 PUSH2 0x1D15 JUMP JUMPDEST SWAP2 POP PUSH32 0x5361666545524332303A204552433230206F7065726174696F6E20646964206E PUSH1 0x0 DUP4 ADD MSTORE PUSH32 0x6F74207375636365656400000000000000000000000000000000000000000000 PUSH1 0x20 DUP4 ADD MSTORE PUSH1 0x40 DUP3 ADD SWAP1 POP SWAP2 SWAP1 POP JUMP JUMPDEST PUSH2 0x100 DUP3 ADD PUSH1 0x0 DUP3 ADD MLOAD PUSH2 0x1A42 PUSH1 0x0 DUP6 ADD DUP3 PUSH2 0x1731 JUMP JUMPDEST POP PUSH1 0x20 DUP3 ADD MLOAD PUSH2 0x1A55 PUSH1 0x20 DUP6 ADD DUP3 PUSH2 0x1731 JUMP JUMPDEST POP PUSH1 0x40 DUP3 ADD MLOAD PUSH2 0x1A68 PUSH1 0x40 DUP6 ADD DUP3 PUSH2 0x1ADC JUMP JUMPDEST POP PUSH1 0x60 DUP3 ADD MLOAD PUSH2 0x1A7B PUSH1 0x60 DUP6 ADD DUP3 PUSH2 0x1731 JUMP JUMPDEST POP PUSH1 0x80 DUP3 ADD MLOAD PUSH2 0x1A8E PUSH1 0x80 DUP6 ADD DUP3 PUSH2 0x1AEB JUMP JUMPDEST POP PUSH1 0xA0 DUP3 ADD MLOAD PUSH2 0x1AA1 PUSH1 0xA0 DUP6 ADD DUP3 PUSH2 0x1AEB JUMP JUMPDEST POP PUSH1 0xC0 DUP3 ADD MLOAD PUSH2 0x1AB4 PUSH1 0xC0 DUP6 ADD DUP3 PUSH2 0x1AEB JUMP JUMPDEST POP PUSH1 0xE0 DUP3 ADD MLOAD PUSH2 0x1AC7 PUSH1 0xE0 DUP6 ADD DUP3 PUSH2 0x1ACD JUMP JUMPDEST POP POP POP POP JUMP JUMPDEST PUSH2 0x1AD6 DUP2 PUSH2 0x1E25 JUMP JUMPDEST DUP3 MSTORE POP POP JUMP JUMPDEST PUSH2 0x1AE5 DUP2 PUSH2 0x1E45 JUMP JUMPDEST DUP3 MSTORE POP POP JUMP JUMPDEST PUSH2 0x1AF4 DUP2 PUSH2 0x1E54 JUMP JUMPDEST DUP3 MSTORE POP POP JUMP JUMPDEST PUSH2 0x1B03 DUP2 PUSH2 0x1E54 JUMP JUMPDEST DUP3 MSTORE POP POP JUMP JUMPDEST PUSH1 0x0 PUSH2 0x1B15 DUP3 DUP5 PUSH2 0x174F JUMP JUMPDEST SWAP2 POP DUP2 SWAP1 POP SWAP3 SWAP2 POP POP JUMP JUMPDEST PUSH1 0x0 PUSH1 0x20 DUP3 ADD SWAP1 POP PUSH2 0x1B35 PUSH1 0x0 DUP4 ADD DUP5 PUSH2 0x1740 JUMP JUMPDEST SWAP3 SWAP2 POP POP JUMP JUMPDEST PUSH1 0x0 PUSH1 0x60 DUP3 ADD SWAP1 POP PUSH2 0x1B50 PUSH1 0x0 DUP4 ADD DUP7 PUSH2 0x1740 JUMP JUMPDEST PUSH2 0x1B5D PUSH1 0x20 DUP4 ADD DUP6 PUSH2 0x1740 JUMP JUMPDEST PUSH2 0x1B6A PUSH1 0x40 DUP4 ADD DUP5 PUSH2 0x1AFA JUMP JUMPDEST SWAP5 SWAP4 POP POP POP POP JUMP JUMPDEST PUSH1 0x0 PUSH1 0x40 DUP3 ADD SWAP1 POP PUSH2 0x1B87 PUSH1 0x0 DUP4 ADD DUP6 PUSH2 0x1740 JUMP JUMPDEST PUSH2 0x1B94 PUSH1 0x20 DUP4 ADD DUP5 PUSH2 0x1AFA JUMP JUMPDEST SWAP4 SWAP3 POP POP POP JUMP JUMPDEST PUSH1 0x0 PUSH1 0x20 DUP3 ADD SWAP1 POP DUP2 DUP2 SUB PUSH1 0x0 DUP4 ADD MSTORE PUSH2 0x1BB5 DUP2 DUP5 PUSH2 0x1780 JUMP JUMPDEST SWAP1 POP SWAP3 SWAP2 POP POP JUMP JUMPDEST PUSH1 0x0 PUSH1 0x20 DUP3 ADD SWAP1 POP DUP2 DUP2 SUB PUSH1 0x0 DUP4 ADD MSTORE PUSH2 0x1BD6 DUP2 PUSH2 0x17B9 JUMP JUMPDEST SWAP1 POP SWAP2 SWAP1 POP JUMP JUMPDEST PUSH1 0x0 PUSH1 0x20 DUP3 ADD SWAP1 POP DUP2 DUP2 SUB PUSH1 0x0 DUP4 ADD MSTORE PUSH2 0x1BF6 DUP2 PUSH2 0x181F JUMP JUMPDEST SWAP1 POP SWAP2 SWAP1 POP JUMP JUMPDEST PUSH1 0x0 PUSH1 0x20 DUP3 ADD SWAP1 POP DUP2 DUP2 SUB PUSH1 0x0 DUP4 ADD MSTORE PUSH2 0x1C16 DUP2 PUSH2 0x185F JUMP JUMPDEST SWAP1 POP SWAP2 SWAP1 POP JUMP JUMPDEST PUSH1 0x0 PUSH1 0x20 DUP3 ADD SWAP1 POP DUP2 DUP2 SUB PUSH1 0x0 DUP4 ADD MSTORE PUSH2 0x1C36 DUP2 PUSH2 0x189F JUMP JUMPDEST SWAP1 POP SWAP2 SWAP1 POP JUMP JUMPDEST PUSH1 0x0 PUSH1 0x20 DUP3 ADD SWAP1 POP DUP2 DUP2 SUB PUSH1 0x0 DUP4 ADD MSTORE PUSH2 0x1C56 DUP2 PUSH2 0x18DF JUMP JUMPDEST SWAP1 POP SWAP2 SWAP1 POP JUMP JUMPDEST PUSH1 0x0 PUSH1 0x20 DUP3 ADD SWAP1 POP DUP2 DUP2 SUB PUSH1 0x0 DUP4 ADD MSTORE PUSH2 0x1C76 DUP2 PUSH2 0x191F JUMP JUMPDEST SWAP1 POP SWAP2 SWAP1 POP JUMP JUMPDEST PUSH1 0x0 PUSH1 0x20 DUP3 ADD SWAP1 POP DUP2 DUP2 SUB PUSH1 0x0 DUP4 ADD MSTORE PUSH2 0x1C96 DUP2 PUSH2 0x195F JUMP JUMPDEST SWAP1 POP SWAP2 SWAP1 POP JUMP JUMPDEST PUSH1 0x0 PUSH1 0x20 DUP3 ADD SWAP1 POP DUP2 DUP2 SUB PUSH1 0x0 DUP4 ADD MSTORE PUSH2 0x1CB6 DUP2 PUSH2 0x19C5 JUMP JUMPDEST SWAP1 POP SWAP2 SWAP1 POP JUMP JUMPDEST PUSH1 0x0 PUSH2 0x100 DUP3 ADD SWAP1 POP PUSH2 0x1CD3 PUSH1 0x0 DUP4 ADD DUP5 PUSH2 0x1A2B JUMP JUMPDEST SWAP3 SWAP2 POP POP JUMP JUMPDEST PUSH1 0x0 PUSH1 0x20 DUP3 ADD SWAP1 POP PUSH2 0x1CEE PUSH1 0x0 DUP4 ADD DUP5 PUSH2 0x1AFA JUMP JUMPDEST SWAP3 SWAP2 POP POP JUMP JUMPDEST PUSH1 0x0 DUP2 MLOAD SWAP1 POP SWAP2 SWAP1 POP JUMP JUMPDEST PUSH1 0x0 DUP2 MLOAD SWAP1 POP SWAP2 SWAP1 POP JUMP JUMPDEST PUSH1 0x0 DUP2 SWAP1 POP SWAP3 SWAP2 POP POP JUMP JUMPDEST PUSH1 0x0 DUP3 DUP3 MSTORE PUSH1 0x20 DUP3 ADD SWAP1 POP SWAP3 SWAP2 POP POP JUMP JUMPDEST PUSH1 0x0 PUSH2 0x1D31 DUP3 PUSH2 0x1E54 JUMP JUMPDEST SWAP2 POP PUSH2 0x1D3C DUP4 PUSH2 0x1E54 JUMP JUMPDEST SWAP3 POP DUP3 PUSH32 0xFFFFFFFFFFFFFFFFFFFFFFFFFFFFFFFFFFFFFFFFFFFFFFFFFFFFFFFFFFFFFFFF SUB DUP3 GT ISZERO PUSH2 0x1D71 JUMPI PUSH2 0x1D70 PUSH2 0x1E91 JUMP JUMPDEST JUMPDEST DUP3 DUP3 ADD SWAP1 POP SWAP3 SWAP2 POP POP JUMP JUMPDEST PUSH1 0x0 PUSH2 0x1D87 DUP3 PUSH2 0x1E54 JUMP JUMPDEST SWAP2 POP PUSH2 0x1D92 DUP4 PUSH2 0x1E54 JUMP JUMPDEST SWAP3 POP DUP3 PUSH2 0x1DA2 JUMPI PUSH2 0x1DA1 PUSH2 0x1EC0 JUMP JUMPDEST JUMPDEST DUP3 DUP3 DIV SWAP1 POP SWAP3 SWAP2 POP POP JUMP JUMPDEST PUSH1 0x0 PUSH2 0x1DB8 DUP3 PUSH2 0x1E54 JUMP JUMPDEST SWAP2 POP PUSH2 0x1DC3 DUP4 PUSH2 0x1E54 JUMP JUMPDEST SWAP3 POP DUP2 PUSH32 0xFFFFFFFFFFFFFFFFFFFFFFFFFFFFFFFFFFFFFFFFFFFFFFFFFFFFFFFFFFFFFFFF DIV DUP4 GT DUP3 ISZERO ISZERO AND ISZERO PUSH2 0x1DFC JUMPI PUSH2 0x1DFB PUSH2 0x1E91 JUMP JUMPDEST JUMPDEST DUP3 DUP3 MUL SWAP1 POP SWAP3 SWAP2 POP POP JUMP JUMPDEST PUSH1 0x0 PUSH2 0x1E12 DUP3 PUSH2 0x1E25 JUMP JUMPDEST SWAP1 POP SWAP2 SWAP1 POP JUMP JUMPDEST PUSH1 0x0 DUP2 ISZERO ISZERO SWAP1 POP SWAP2 SWAP1 POP JUMP JUMPDEST PUSH1 0x0 PUSH20 0xFFFFFFFFFFFFFFFFFFFFFFFFFFFFFFFFFFFFFFFF DUP3 AND SWAP1 POP SWAP2 SWAP1 POP JUMP JUMPDEST PUSH1 0x0 PUSH3 0xFFFFFF DUP3 AND SWAP1 POP SWAP2 SWAP1 POP JUMP JUMPDEST PUSH1 0x0 DUP2 SWAP1 POP SWAP2 SWAP1 POP JUMP JUMPDEST PUSH1 0x0 JUMPDEST DUP4 DUP2 LT ISZERO PUSH2 0x1E7C JUMPI DUP1 DUP3 ADD MLOAD DUP2 DUP5 ADD MSTORE PUSH1 0x20 DUP2 ADD SWAP1 POP PUSH2 0x1E61 JUMP JUMPDEST DUP4 DUP2 GT ISZERO PUSH2 0x1E8B JUMPI PUSH1 0x0 DUP5 DUP5 ADD MSTORE JUMPDEST POP POP POP POP JUMP JUMPDEST PUSH32 0x4E487B7100000000000000000000000000000000000000000000000000000000 PUSH1 0x0 MSTORE PUSH1 0x11 PUSH1 0x4 MSTORE PUSH1 0x24 PUSH1 0x0 REVERT JUMPDEST PUSH32 0x4E487B7100000000000000000000000000000000000000000000000000000000 PUSH1 0x0 MSTORE PUSH1 0x12 PUSH1 0x4 MSTORE PUSH1 0x24 PUSH1 0x0 REVERT JUMPDEST PUSH1 0x0 PUSH1 0x1F NOT PUSH1 0x1F DUP4 ADD AND SWAP1 POP SWAP2 SWAP1 POP JUMP JUMPDEST PUSH2 0x1F09 DUP2 PUSH2 0x1E07 JUMP JUMPDEST DUP2 EQ PUSH2 0x1F14 JUMPI PUSH1 0x0 DUP1 REVERT JUMPDEST POP JUMP JUMPDEST PUSH2 0x1F20 DUP2 PUSH2 0x1E19 JUMP JUMPDEST DUP2 EQ PUSH2 0x1F2B JUMPI PUSH1 0x0 DUP1 REVERT JUMPDEST POP JUMP JUMPDEST PUSH2 0x1F37 DUP2 PUSH2 0x1E25 JUMP JUMPDEST DUP2 EQ PUSH2 0x1F42 JUMPI PUSH1 0x0 DUP1 REVERT JUMPDEST POP JUMP JUMPDEST PUSH2 0x1F4E DUP2 PUSH2 0x1E45 JUMP JUMPDEST DUP2 EQ PUSH2 0x1F59 JUMPI PUSH1 0x0 DUP1 REVERT JUMPDEST POP JUMP JUMPDEST PUSH2 0x1F65 DUP2 PUSH2 0x1E54 JUMP JUMPDEST DUP2 EQ PUSH2 0x1F70 JUMPI PUSH1 0x0 DUP1 REVERT JUMPDEST POP JUMP INVALID LOG2 PUSH5 0x6970667358 0x22 SLT KECCAK256 0xB6 CALLDATALOAD CALLDATASIZE SLOAD ADD DUP2 0xBB 0xE4 SHL 0xBB SIGNEXTEND MOD EXP 0xE8 PUSH8 0xB2928EA2E2F87944 0x25 0x4D 0xF9 DUP7 0xB1 0x5D SAR 0xC0 PUSH31 0x64736F6C634300080000330000000000000000000000000000000000000000 "
				},
				"gasEstimates": {
					"creation": {
						"codeDepositCost": "1621000",
						"executionCost": "infinite",
						"totalCost": "infinite"
					},
					"external": {
						"claimOwnership()": "46074",
						"closePostion(uint256,uint160)": "infinite",
						"close_stock()": "1219",
						"deposit(uint256)": "infinite",
						"manager()": "1267",
						"openPostion(uint256,uint160)": "infinite",
						"org_stock()": "1217",
						"owner()": "1267",
						"pendingOwner()": "1244",
						"pool()": "1260",
						"renounceOwnership()": "24428",
						"router()": "1280",
						"shares(address)": "1603",
						"stock_index()": "1153",
						"transferOwnership(address)": "23470",
						"withdraw()": "infinite"
					},
					"internal": {
						"getMoney()": "infinite",
						"getStock()": "infinite"
					}
				},
				"methodIdentifiers": {
					"claimOwnership()": "4e71e0c8",
					"closePostion(uint256,uint160)": "7ef45fde",
					"close_stock()": "4230adc9",
					"deposit(uint256)": "b6b55f25",
					"manager()": "481c6a75",
					"openPostion(uint256,uint160)": "44c2b6d0",
					"org_stock()": "f92966e1",
					"owner()": "8da5cb5b",
					"pendingOwner()": "e30c3978",
					"pool()": "16f0115b",
					"renounceOwnership()": "715018a6",
					"router()": "f887ea40",
					"shares(address)": "ce7c2ac2",
					"stock_index()": "02c1b274",
					"transferOwnership(address)": "f2fde38b",
					"withdraw()": "3ccfd60b"
				}
			},
			"storageLayout": {
				"storage": [
					{
						"astId": 1379,
						"contract": "ArbitrageDao-Contract/contracts/ArbitrageUniV3.sol:ArbitrageUniV3",
						"label": "_owner",
						"offset": 0,
						"slot": "0",
						"type": "t_address"
					},
					{
						"astId": 1381,
						"contract": "ArbitrageDao-Contract/contracts/ArbitrageUniV3.sol:ArbitrageUniV3",
						"label": "_pendingOwner",
						"offset": 0,
						"slot": "1",
						"type": "t_address"
					},
					{
						"astId": 1533,
						"contract": "ArbitrageDao-Contract/contracts/ArbitrageUniV3.sol:ArbitrageUniV3",
						"label": "_manager",
						"offset": 0,
						"slot": "2",
						"type": "t_address"
					},
					{
						"astId": 660,
						"contract": "ArbitrageDao-Contract/contracts/ArbitrageUniV3.sol:ArbitrageUniV3",
						"label": "router",
						"offset": 0,
						"slot": "3",
						"type": "t_address"
					},
					{
						"astId": 662,
						"contract": "ArbitrageDao-Contract/contracts/ArbitrageUniV3.sol:ArbitrageUniV3",
						"label": "pool",
						"offset": 0,
						"slot": "4",
						"type": "t_address"
					},
					{
						"astId": 666,
						"contract": "ArbitrageDao-Contract/contracts/ArbitrageUniV3.sol:ArbitrageUniV3",
						"label": "shares",
						"offset": 0,
						"slot": "5",
						"type": "t_mapping(t_address,t_uint256)"
					},
					{
						"astId": 668,
						"contract": "ArbitrageDao-Contract/contracts/ArbitrageUniV3.sol:ArbitrageUniV3",
						"label": "close_stock",
						"offset": 0,
						"slot": "6",
						"type": "t_uint256"
					},
					{
						"astId": 670,
						"contract": "ArbitrageDao-Contract/contracts/ArbitrageUniV3.sol:ArbitrageUniV3",
						"label": "org_stock",
						"offset": 0,
						"slot": "7",
						"type": "t_uint256"
					},
					{
						"astId": 672,
						"contract": "ArbitrageDao-Contract/contracts/ArbitrageUniV3.sol:ArbitrageUniV3",
						"label": "stock_index",
						"offset": 0,
						"slot": "8",
						"type": "t_uint256"
					}
				],
				"types": {
					"t_address": {
						"encoding": "inplace",
						"label": "address",
						"numberOfBytes": "20"
					},
					"t_mapping(t_address,t_uint256)": {
						"encoding": "mapping",
						"key": "t_address",
						"label": "mapping(address => uint256)",
						"numberOfBytes": "32",
						"value": "t_uint256"
					},
					"t_uint256": {
						"encoding": "inplace",
						"label": "uint256",
						"numberOfBytes": "32"
					}
				}
			},
			"userdoc": {
				"kind": "user",
				"methods": {
					"claimOwnership()": {
						"notice": "Allows the `_pendingOwner` address to finalize the transfer."
					},
					"manager()": {
						"notice": "Gets current `_manager`."
					},
					"owner()": {
						"notice": "Returns the address of the current owner."
					},
					"pendingOwner()": {
						"notice": "Gets current `_pendingOwner`."
					},
					"renounceOwnership()": {
						"notice": "Renounce ownership of the contract."
					},
					"transferOwnership(address)": {
						"notice": "Allows current owner to set the `_pendingOwner` address."
					}
				},
				"version": 1
			}
		}
	}
}