{
	"data": {
		"bytecode": {
			"linkReferences": {
				"ArbitrageDao-Contract/contracts/extern/UintConverter.sol": {
					"UintConverter": [
						{
							"length": 20,
							"start": 603
						},
						{
							"length": 20,
							"start": 894
						}
					]
				}
			},
			"object": "608060405234801561001057600080fd5b5061120c806100206000396000f3fe608060405234801561001057600080fd5b506004361061004c5760003560e01c80631f3124041461005157806327e50822146100825780634cb5960e1461009e578063ac41865a146100ba575b600080fd5b61006b600480360381019061006691906109c9565b6100eb565b604051610079929190610e7b565b60405180910390f35b61009c60048036038101906100979190610a05565b61011c565b005b6100b860048036038101906100b39190610a05565b61049c565b005b6100d460048036038101906100cf91906109c9565b6105e4565b6040516100e2929190610e7b565b60405180910390f35b6000602052816000526040600020602052806000526040600020600091509150508060000154908060010154905082565b60008173ffffffffffffffffffffffffffffffffffffffff16631698ee828585610bb86040518463ffffffff1660e01b815260040161015d93929190610dc5565b60206040518083038186803b15801561017557600080fd5b505afa158015610189573d6000803e3d6000fd5b505050506040513d601f19601f820116820180604052508101906101ad91906109a0565b905060008173ffffffffffffffffffffffffffffffffffffffff16633850c7bd6040518163ffffffff1660e01b815260040160e06040518083038186803b1580156101f757600080fd5b505afa15801561020b573d6000803e3d6000fd5b505050506040513d601f19601f8201168201806040525081019061022f9190610b01565b5050505050509050600073__$7b10a09efd8de7d837f1068c6d0d87760d$__6395fc4af5836040518263ffffffff1660e01b81526004016102709190610e60565b60006040518083038186803b15801561028857600080fd5b505af415801561029c573d6000803e3d6000fd5b505050506040513d6000823e3d601f19601f820116820180604052508101906102c59190610ac0565b905060008373ffffffffffffffffffffffffffffffffffffffff1663883bdbfd836040518263ffffffff1660e01b81526004016103029190610e1e565b60006040518083038186803b15801561031a57600080fd5b505afa15801561032e573d6000803e3d6000fd5b505050506040513d6000823e3d601f19601f820116820180604052508101906103579190610a54565b509050600073__$7b10a09efd8de7d837f1068c6d0d87760d$__636022bb7b836040518263ffffffff1660e01b81526004016103939190610dfc565b60206040518083038186803b1580156103ab57600080fd5b505af41580156103bf573d6000803e3d6000fd5b505050506040513d601f19601f820116820180604052508101906103e39190610b9f565b905060004290506040518060400160405280838152602001828152506000808b73ffffffffffffffffffffffffffffffffffffffff1673ffffffffffffffffffffffffffffffffffffffff16815260200190815260200160002060008a73ffffffffffffffffffffffffffffffffffffffff1673ffffffffffffffffffffffffffffffffffffffff1681526020019081526020016000206000820151816000015560208201518160010155905050505050505050505050565b60008190506000808273ffffffffffffffffffffffffffffffffffffffff1663feaf968c6040518163ffffffff1660e01b815260040160a06040518083038186803b1580156104ea57600080fd5b505afa1580156104fe573d6000803e3d6000fd5b505050506040513d601f19601f820116820180604052508101906105229190610bc8565b505050915069ffffffffffffffffffff1691506040518060400160405280838152602001828152506000808873ffffffffffffffffffffffffffffffffffffffff1673ffffffffffffffffffffffffffffffffffffffff16815260200190815260200160002060008773ffffffffffffffffffffffffffffffffffffffff1673ffffffffffffffffffffffffffffffffffffffff1681526020019081526020016000206000820151816000015560208201518160010155905050505050505050565b60008060008060008673ffffffffffffffffffffffffffffffffffffffff1673ffffffffffffffffffffffffffffffffffffffff16815260200190815260200160002060008573ffffffffffffffffffffffffffffffffffffffff1673ffffffffffffffffffffffffffffffffffffffff16815260200190815260200160002060405180604001604052908160008201548152602001600182015481525050905060008160200151116106cc576040517f08c379a00000000000000000000000000000000000000000000000000000000081526004016106c390610e40565b60405180910390fd5b8060000151816020015192509250509250929050565b60006106f56106f084610ed5565b610ea4565b9050808382526020820190508285602086028201111561071457600080fd5b60005b85811015610744578161072a888261090d565b845260208401935060208301925050600181019050610717565b5050509392505050565b600061076161075c84610f01565b610ea4565b9050808382526020820190508285602086028201111561078057600080fd5b60005b858110156107b057816107968882610922565b845260208401935060208301925050600181019050610783565b5050509392505050565b60006107cd6107c884610f2d565b610ea4565b905080838252602082019050828560208602820111156107ec57600080fd5b60005b8581101561081c57816108028882610961565b8452602084019350602083019250506001810190506107ef565b5050509392505050565b600081359050610835816110d9565b92915050565b60008151905061084a816110d9565b92915050565b600082601f83011261086157600080fd5b81516108718482602086016106e2565b91505092915050565b600082601f83011261088b57600080fd5b815161089b84826020860161074e565b91505092915050565b600082601f8301126108b557600080fd5b81516108c58482602086016107ba565b91505092915050565b6000815190506108dd816110f0565b92915050565b6000815190506108f281611107565b92915050565b6000815190506109078161111e565b92915050565b60008151905061091c81611135565b92915050565b60008151905061093181611163565b92915050565b6000815190506109468161114c565b92915050565b60008151905061095b8161117a565b92915050565b60008151905061097081611191565b92915050565b600081519050610985816111bf565b92915050565b60008151905061099a816111a8565b92915050565b6000602082840312156109b257600080fd5b60006109c08482850161083b565b91505092915050565b600080604083850312156109dc57600080fd5b60006109ea85828601610826565b92505060206109fb85828601610826565b9150509250929050565b600080600060608486031215610a1a57600080fd5b6000610a2886828701610826565b9350506020610a3986828701610826565b9250506040610a4a86828701610826565b9150509250925092565b60008060408385031215610a6757600080fd5b600083015167ffffffffffffffff811115610a8157600080fd5b610a8d85828601610850565b925050602083015167ffffffffffffffff811115610aaa57600080fd5b610ab68582860161087a565b9150509250929050565b600060208284031215610ad257600080fd5b600082015167ffffffffffffffff811115610aec57600080fd5b610af8848285016108a4565b91505092915050565b600080600080600080600060e0888a031215610b1c57600080fd5b6000610b2a8a828b01610922565b9750506020610b3b8a828b016108e3565b9650506040610b4c8a828b01610937565b9550506060610b5d8a828b01610937565b9450506080610b6e8a828b01610937565b93505060a0610b7f8a828b0161098b565b92505060c0610b908a828b016108ce565b91505092959891949750929550565b600060208284031215610bb157600080fd5b6000610bbf8482850161094c565b91505092915050565b600080600080600060a08688031215610be057600080fd5b6000610bee88828901610976565b9550506020610bff888289016108f8565b9450506040610c108882890161094c565b9350506060610c218882890161094c565b9250506080610c3288828901610976565b9150509295509295909350565b6000610c4b8383610d3a565b60208301905092915050565b6000610c638383610db6565b60208301905092915050565b610c7881610fdc565b82525050565b6000610c8982610f79565b610c938185610fa9565b9350610c9e83610f59565b8060005b83811015610ccf578151610cb68882610c3f565b9750610cc183610f8f565b925050600181019050610ca2565b5085935050505092915050565b6000610ce782610f84565b610cf18185610fba565b9350610cfc83610f69565b8060005b83811015610d2d578151610d148882610c57565b9750610d1f83610f9c565b925050600181019050610d00565b5085935050505092915050565b610d4381611011565b82525050565b610d5281611098565b82525050565b6000610d65600f83610fcb565b91507f5072696365206e6f7420666f756e6400000000000000000000000000000000006000830152602082019050919050565b610da18161102c565b82525050565b610db08161105b565b82525050565b610dbf81611065565b82525050565b6000606082019050610dda6000830186610c6f565b610de76020830185610c6f565b610df46040830184610d49565b949350505050565b60006020820190508181036000830152610e168184610c7e565b905092915050565b60006020820190508181036000830152610e388184610cdc565b905092915050565b60006020820190508181036000830152610e5981610d58565b9050919050565b6000602082019050610e756000830184610d98565b92915050565b6000604082019050610e906000830185610da7565b610e9d6020830184610da7565b9392505050565b6000604051905081810181811067ffffffffffffffff82111715610ecb57610eca6110aa565b5b8060405250919050565b600067ffffffffffffffff821115610ef057610eef6110aa565b5b602082029050602081019050919050565b600067ffffffffffffffff821115610f1c57610f1b6110aa565b5b602082029050602081019050919050565b600067ffffffffffffffff821115610f4857610f476110aa565b5b602082029050602081019050919050565b6000819050602082019050919050565b6000819050602082019050919050565b600081519050919050565b600081519050919050565b6000602082019050919050565b6000602082019050919050565b600082825260208201905092915050565b600082825260208201905092915050565b600082825260208201905092915050565b6000610fe78261102c565b9050919050565b60008115159050919050565b60008160020b9050919050565b6000819050919050565b60008160060b9050919050565b600061ffff82169050919050565b600073ffffffffffffffffffffffffffffffffffffffff82169050919050565b600062ffffff82169050919050565b6000819050919050565b600063ffffffff82169050919050565b600060ff82169050919050565b600069ffffffffffffffffffff82169050919050565b60006110a38261104c565b9050919050565b7f4e487b7100000000000000000000000000000000000000000000000000000000600052604160045260246000fd5b6110e281610fdc565b81146110ed57600080fd5b50565b6110f981610fee565b811461110457600080fd5b50565b61111081610ffa565b811461111b57600080fd5b50565b61112781611007565b811461113257600080fd5b50565b61113e81611011565b811461114957600080fd5b50565b6111558161101e565b811461116057600080fd5b50565b61116c8161102c565b811461117757600080fd5b50565b6111838161105b565b811461118e57600080fd5b50565b61119a81611065565b81146111a557600080fd5b50565b6111b181611075565b81146111bc57600080fd5b50565b6111c881611082565b81146111d357600080fd5b5056fea264697066735822122033554bcc4c47e08374edec48eaf22808942e355c08b7a8246d2b963a7531217c64736f6c63430008000033",
			"opcodes": "PUSH1 0x80 PUSH1 0x40 MSTORE CALLVALUE DUP1 ISZERO PUSH2 0x10 JUMPI PUSH1 0x0 DUP1 REVERT JUMPDEST POP PUSH2 0x120C DUP1 PUSH2 0x20 PUSH1 0x0 CODECOPY PUSH1 0x0 RETURN INVALID PUSH1 0x80 PUSH1 0x40 MSTORE CALLVALUE DUP1 ISZERO PUSH2 0x10 JUMPI PUSH1 0x0 DUP1 REVERT JUMPDEST POP PUSH1 0x4 CALLDATASIZE LT PUSH2 0x4C JUMPI PUSH1 0x0 CALLDATALOAD PUSH1 0xE0 SHR DUP1 PUSH4 0x1F312404 EQ PUSH2 0x51 JUMPI DUP1 PUSH4 0x27E50822 EQ PUSH2 0x82 JUMPI DUP1 PUSH4 0x4CB5960E EQ PUSH2 0x9E JUMPI DUP1 PUSH4 0xAC41865A EQ PUSH2 0xBA JUMPI JUMPDEST PUSH1 0x0 DUP1 REVERT JUMPDEST PUSH2 0x6B PUSH1 0x4 DUP1 CALLDATASIZE SUB DUP2 ADD SWAP1 PUSH2 0x66 SWAP2 SWAP1 PUSH2 0x9C9 JUMP JUMPDEST PUSH2 0xEB JUMP JUMPDEST PUSH1 0x40 MLOAD PUSH2 0x79 SWAP3 SWAP2 SWAP1 PUSH2 0xE7B JUMP JUMPDEST PUSH1 0x40 MLOAD DUP1 SWAP2 SUB SWAP1 RETURN JUMPDEST PUSH2 0x9C PUSH1 0x4 DUP1 CALLDATASIZE SUB DUP2 ADD SWAP1 PUSH2 0x97 SWAP2 SWAP1 PUSH2 0xA05 JUMP JUMPDEST PUSH2 0x11C JUMP JUMPDEST STOP JUMPDEST PUSH2 0xB8 PUSH1 0x4 DUP1 CALLDATASIZE SUB DUP2 ADD SWAP1 PUSH2 0xB3 SWAP2 SWAP1 PUSH2 0xA05 JUMP JUMPDEST PUSH2 0x49C JUMP JUMPDEST STOP JUMPDEST PUSH2 0xD4 PUSH1 0x4 DUP1 CALLDATASIZE SUB DUP2 ADD SWAP1 PUSH2 0xCF SWAP2 SWAP1 PUSH2 0x9C9 JUMP JUMPDEST PUSH2 0x5E4 JUMP JUMPDEST PUSH1 0x40 MLOAD PUSH2 0xE2 SWAP3 SWAP2 SWAP1 PUSH2 0xE7B JUMP JUMPDEST PUSH1 0x40 MLOAD DUP1 SWAP2 SUB SWAP1 RETURN JUMPDEST PUSH1 0x0 PUSH1 0x20 MSTORE DUP2 PUSH1 0x0 MSTORE PUSH1 0x40 PUSH1 0x0 KECCAK256 PUSH1 0x20 MSTORE DUP1 PUSH1 0x0 MSTORE PUSH1 0x40 PUSH1 0x0 KECCAK256 PUSH1 0x0 SWAP2 POP SWAP2 POP POP DUP1 PUSH1 0x0 ADD SLOAD SWAP1 DUP1 PUSH1 0x1 ADD SLOAD SWAP1 POP DUP3 JUMP JUMPDEST PUSH1 0x0 DUP2 PUSH20 0xFFFFFFFFFFFFFFFFFFFFFFFFFFFFFFFFFFFFFFFF AND PUSH4 0x1698EE82 DUP6 DUP6 PUSH2 0xBB8 PUSH1 0x40 MLOAD DUP5 PUSH4 0xFFFFFFFF AND PUSH1 0xE0 SHL DUP2 MSTORE PUSH1 0x4 ADD PUSH2 0x15D SWAP4 SWAP3 SWAP2 SWAP1 PUSH2 0xDC5 JUMP JUMPDEST PUSH1 0x20 PUSH1 0x40 MLOAD DUP1 DUP4 SUB DUP2 DUP7 DUP1 EXTCODESIZE ISZERO DUP1 ISZERO PUSH2 0x175 JUMPI PUSH1 0x0 DUP1 REVERT JUMPDEST POP GAS STATICCALL ISZERO DUP1 ISZERO PUSH2 0x189 JUMPI RETURNDATASIZE PUSH1 0x0 DUP1 RETURNDATACOPY RETURNDATASIZE PUSH1 0x0 REVERT JUMPDEST POP POP POP POP PUSH1 0x40 MLOAD RETURNDATASIZE PUSH1 0x1F NOT PUSH1 0x1F DUP3 ADD AND DUP3 ADD DUP1 PUSH1 0x40 MSTORE POP DUP2 ADD SWAP1 PUSH2 0x1AD SWAP2 SWAP1 PUSH2 0x9A0 JUMP JUMPDEST SWAP1 POP PUSH1 0x0 DUP2 PUSH20 0xFFFFFFFFFFFFFFFFFFFFFFFFFFFFFFFFFFFFFFFF AND PUSH4 0x3850C7BD PUSH1 0x40 MLOAD DUP2 PUSH4 0xFFFFFFFF AND PUSH1 0xE0 SHL DUP2 MSTORE PUSH1 0x4 ADD PUSH1 0xE0 PUSH1 0x40 MLOAD DUP1 DUP4 SUB DUP2 DUP7 DUP1 EXTCODESIZE ISZERO DUP1 ISZERO PUSH2 0x1F7 JUMPI PUSH1 0x0 DUP1 REVERT JUMPDEST POP GAS STATICCALL ISZERO DUP1 ISZERO PUSH2 0x20B JUMPI RETURNDATASIZE PUSH1 0x0 DUP1 RETURNDATACOPY RETURNDATASIZE PUSH1 0x0 REVERT JUMPDEST POP POP POP POP PUSH1 0x40 MLOAD RETURNDATASIZE PUSH1 0x1F NOT PUSH1 0x1F DUP3 ADD AND DUP3 ADD DUP1 PUSH1 0x40 MSTORE POP DUP2 ADD SWAP1 PUSH2 0x22F SWAP2 SWAP1 PUSH2 0xB01 JUMP JUMPDEST POP POP POP POP POP POP SWAP1 POP PUSH1 0x0 PUSH20 0x0 PUSH4 0x95FC4AF5 DUP4 PUSH1 0x40 MLOAD DUP3 PUSH4 0xFFFFFFFF AND PUSH1 0xE0 SHL DUP2 MSTORE PUSH1 0x4 ADD PUSH2 0x270 SWAP2 SWAP1 PUSH2 0xE60 JUMP JUMPDEST PUSH1 0x0 PUSH1 0x40 MLOAD DUP1 DUP4 SUB DUP2 DUP7 DUP1 EXTCODESIZE ISZERO DUP1 ISZERO PUSH2 0x288 JUMPI PUSH1 0x0 DUP1 REVERT JUMPDEST POP GAS DELEGATECALL ISZERO DUP1 ISZERO PUSH2 0x29C JUMPI RETURNDATASIZE PUSH1 0x0 DUP1 RETURNDATACOPY RETURNDATASIZE PUSH1 0x0 REVERT JUMPDEST POP POP POP POP PUSH1 0x40 MLOAD RETURNDATASIZE PUSH1 0x0 DUP3 RETURNDATACOPY RETURNDATASIZE PUSH1 0x1F NOT PUSH1 0x1F DUP3 ADD AND DUP3 ADD DUP1 PUSH1 0x40 MSTORE POP DUP2 ADD SWAP1 PUSH2 0x2C5 SWAP2 SWAP1 PUSH2 0xAC0 JUMP JUMPDEST SWAP1 POP PUSH1 0x0 DUP4 PUSH20 0xFFFFFFFFFFFFFFFFFFFFFFFFFFFFFFFFFFFFFFFF AND PUSH4 0x883BDBFD DUP4 PUSH1 0x40 MLOAD DUP3 PUSH4 0xFFFFFFFF AND PUSH1 0xE0 SHL DUP2 MSTORE PUSH1 0x4 ADD PUSH2 0x302 SWAP2 SWAP1 PUSH2 0xE1E JUMP JUMPDEST PUSH1 0x0 PUSH1 0x40 MLOAD DUP1 DUP4 SUB DUP2 DUP7 DUP1 EXTCODESIZE ISZERO DUP1 ISZERO PUSH2 0x31A JUMPI PUSH1 0x0 DUP1 REVERT JUMPDEST POP GAS STATICCALL ISZERO DUP1 ISZERO PUSH2 0x32E JUMPI RETURNDATASIZE PUSH1 0x0 DUP1 RETURNDATACOPY RETURNDATASIZE PUSH1 0x0 REVERT JUMPDEST POP POP POP POP PUSH1 0x40 MLOAD RETURNDATASIZE PUSH1 0x0 DUP3 RETURNDATACOPY RETURNDATASIZE PUSH1 0x1F NOT PUSH1 0x1F DUP3 ADD AND DUP3 ADD DUP1 PUSH1 0x40 MSTORE POP DUP2 ADD SWAP1 PUSH2 0x357 SWAP2 SWAP1 PUSH2 0xA54 JUMP JUMPDEST POP SWAP1 POP PUSH1 0x0 PUSH20 0x0 PUSH4 0x6022BB7B DUP4 PUSH1 0x40 MLOAD DUP3 PUSH4 0xFFFFFFFF AND PUSH1 0xE0 SHL DUP2 MSTORE PUSH1 0x4 ADD PUSH2 0x393 SWAP2 SWAP1 PUSH2 0xDFC JUMP JUMPDEST PUSH1 0x20 PUSH1 0x40 MLOAD DUP1 DUP4 SUB DUP2 DUP7 DUP1 EXTCODESIZE ISZERO DUP1 ISZERO PUSH2 0x3AB JUMPI PUSH1 0x0 DUP1 REVERT JUMPDEST POP GAS DELEGATECALL ISZERO DUP1 ISZERO PUSH2 0x3BF JUMPI RETURNDATASIZE PUSH1 0x0 DUP1 RETURNDATACOPY RETURNDATASIZE PUSH1 0x0 REVERT JUMPDEST POP POP POP POP PUSH1 0x40 MLOAD RETURNDATASIZE PUSH1 0x1F NOT PUSH1 0x1F DUP3 ADD AND DUP3 ADD DUP1 PUSH1 0x40 MSTORE POP DUP2 ADD SWAP1 PUSH2 0x3E3 SWAP2 SWAP1 PUSH2 0xB9F JUMP JUMPDEST SWAP1 POP PUSH1 0x0 TIMESTAMP SWAP1 POP PUSH1 0x40 MLOAD DUP1 PUSH1 0x40 ADD PUSH1 0x40 MSTORE DUP1 DUP4 DUP2 MSTORE PUSH1 0x20 ADD DUP3 DUP2 MSTORE POP PUSH1 0x0 DUP1 DUP12 PUSH20 0xFFFFFFFFFFFFFFFFFFFFFFFFFFFFFFFFFFFFFFFF AND PUSH20 0xFFFFFFFFFFFFFFFFFFFFFFFFFFFFFFFFFFFFFFFF AND DUP2 MSTORE PUSH1 0x20 ADD SWAP1 DUP2 MSTORE PUSH1 0x20 ADD PUSH1 0x0 KECCAK256 PUSH1 0x0 DUP11 PUSH20 0xFFFFFFFFFFFFFFFFFFFFFFFFFFFFFFFFFFFFFFFF AND PUSH20 0xFFFFFFFFFFFFFFFFFFFFFFFFFFFFFFFFFFFFFFFF AND DUP2 MSTORE PUSH1 0x20 ADD SWAP1 DUP2 MSTORE PUSH1 0x20 ADD PUSH1 0x0 KECCAK256 PUSH1 0x0 DUP3 ADD MLOAD DUP2 PUSH1 0x0 ADD SSTORE PUSH1 0x20 DUP3 ADD MLOAD DUP2 PUSH1 0x1 ADD SSTORE SWAP1 POP POP POP POP POP POP POP POP POP POP POP JUMP JUMPDEST PUSH1 0x0 DUP2 SWAP1 POP PUSH1 0x0 DUP1 DUP3 PUSH20 0xFFFFFFFFFFFFFFFFFFFFFFFFFFFFFFFFFFFFFFFF AND PUSH4 0xFEAF968C PUSH1 0x40 MLOAD DUP2 PUSH4 0xFFFFFFFF AND PUSH1 0xE0 SHL DUP2 MSTORE PUSH1 0x4 ADD PUSH1 0xA0 PUSH1 0x40 MLOAD DUP1 DUP4 SUB DUP2 DUP7 DUP1 EXTCODESIZE ISZERO DUP1 ISZERO PUSH2 0x4EA JUMPI PUSH1 0x0 DUP1 REVERT JUMPDEST POP GAS STATICCALL ISZERO DUP1 ISZERO PUSH2 0x4FE JUMPI RETURNDATASIZE PUSH1 0x0 DUP1 RETURNDATACOPY RETURNDATASIZE PUSH1 0x0 REVERT JUMPDEST POP POP POP POP PUSH1 0x40 MLOAD RETURNDATASIZE PUSH1 0x1F NOT PUSH1 0x1F DUP3 ADD AND DUP3 ADD DUP1 PUSH1 0x40 MSTORE POP DUP2 ADD SWAP1 PUSH2 0x522 SWAP2 SWAP1 PUSH2 0xBC8 JUMP JUMPDEST POP POP POP SWAP2 POP PUSH10 0xFFFFFFFFFFFFFFFFFFFF AND SWAP2 POP PUSH1 0x40 MLOAD DUP1 PUSH1 0x40 ADD PUSH1 0x40 MSTORE DUP1 DUP4 DUP2 MSTORE PUSH1 0x20 ADD DUP3 DUP2 MSTORE POP PUSH1 0x0 DUP1 DUP9 PUSH20 0xFFFFFFFFFFFFFFFFFFFFFFFFFFFFFFFFFFFFFFFF AND PUSH20 0xFFFFFFFFFFFFFFFFFFFFFFFFFFFFFFFFFFFFFFFF AND DUP2 MSTORE PUSH1 0x20 ADD SWAP1 DUP2 MSTORE PUSH1 0x20 ADD PUSH1 0x0 KECCAK256 PUSH1 0x0 DUP8 PUSH20 0xFFFFFFFFFFFFFFFFFFFFFFFFFFFFFFFFFFFFFFFF AND PUSH20 0xFFFFFFFFFFFFFFFFFFFFFFFFFFFFFFFFFFFFFFFF AND DUP2 MSTORE PUSH1 0x20 ADD SWAP1 DUP2 MSTORE PUSH1 0x20 ADD PUSH1 0x0 KECCAK256 PUSH1 0x0 DUP3 ADD MLOAD DUP2 PUSH1 0x0 ADD SSTORE PUSH1 0x20 DUP3 ADD MLOAD DUP2 PUSH1 0x1 ADD SSTORE SWAP1 POP POP POP POP POP POP POP POP JUMP JUMPDEST PUSH1 0x0 DUP1 PUSH1 0x0 DUP1 PUSH1 0x0 DUP7 PUSH20 0xFFFFFFFFFFFFFFFFFFFFFFFFFFFFFFFFFFFFFFFF AND PUSH20 0xFFFFFFFFFFFFFFFFFFFFFFFFFFFFFFFFFFFFFFFF AND DUP2 MSTORE PUSH1 0x20 ADD SWAP1 DUP2 MSTORE PUSH1 0x20 ADD PUSH1 0x0 KECCAK256 PUSH1 0x0 DUP6 PUSH20 0xFFFFFFFFFFFFFFFFFFFFFFFFFFFFFFFFFFFFFFFF AND PUSH20 0xFFFFFFFFFFFFFFFFFFFFFFFFFFFFFFFFFFFFFFFF AND DUP2 MSTORE PUSH1 0x20 ADD SWAP1 DUP2 MSTORE PUSH1 0x20 ADD PUSH1 0x0 KECCAK256 PUSH1 0x40 MLOAD DUP1 PUSH1 0x40 ADD PUSH1 0x40 MSTORE SWAP1 DUP2 PUSH1 0x0 DUP3 ADD SLOAD DUP2 MSTORE PUSH1 0x20 ADD PUSH1 0x1 DUP3 ADD SLOAD DUP2 MSTORE POP POP SWAP1 POP PUSH1 0x0 DUP2 PUSH1 0x20 ADD MLOAD GT PUSH2 0x6CC JUMPI PUSH1 0x40 MLOAD PUSH32 0x8C379A000000000000000000000000000000000000000000000000000000000 DUP2 MSTORE PUSH1 0x4 ADD PUSH2 0x6C3 SWAP1 PUSH2 0xE40 JUMP JUMPDEST PUSH1 0x40 MLOAD DUP1 SWAP2 SUB SWAP1 REVERT JUMPDEST DUP1 PUSH1 0x0 ADD MLOAD DUP2 PUSH1 0x20 ADD MLOAD SWAP3 POP SWAP3 POP POP SWAP3 POP SWAP3 SWAP1 POP JUMP JUMPDEST PUSH1 0x0 PUSH2 0x6F5 PUSH2 0x6F0 DUP5 PUSH2 0xED5 JUMP JUMPDEST PUSH2 0xEA4 JUMP JUMPDEST SWAP1 POP DUP1 DUP4 DUP3 MSTORE PUSH1 0x20 DUP3 ADD SWAP1 POP DUP3 DUP6 PUSH1 0x20 DUP7 MUL DUP3 ADD GT ISZERO PUSH2 0x714 JUMPI PUSH1 0x0 DUP1 REVERT JUMPDEST PUSH1 0x0 JUMPDEST DUP6 DUP2 LT ISZERO PUSH2 0x744 JUMPI DUP2 PUSH2 0x72A DUP9 DUP3 PUSH2 0x90D JUMP JUMPDEST DUP5 MSTORE PUSH1 0x20 DUP5 ADD SWAP4 POP PUSH1 0x20 DUP4 ADD SWAP3 POP POP PUSH1 0x1 DUP2 ADD SWAP1 POP PUSH2 0x717 JUMP JUMPDEST POP POP POP SWAP4 SWAP3 POP POP POP JUMP JUMPDEST PUSH1 0x0 PUSH2 0x761 PUSH2 0x75C DUP5 PUSH2 0xF01 JUMP JUMPDEST PUSH2 0xEA4 JUMP JUMPDEST SWAP1 POP DUP1 DUP4 DUP3 MSTORE PUSH1 0x20 DUP3 ADD SWAP1 POP DUP3 DUP6 PUSH1 0x20 DUP7 MUL DUP3 ADD GT ISZERO PUSH2 0x780 JUMPI PUSH1 0x0 DUP1 REVERT JUMPDEST PUSH1 0x0 JUMPDEST DUP6 DUP2 LT ISZERO PUSH2 0x7B0 JUMPI DUP2 PUSH2 0x796 DUP9 DUP3 PUSH2 0x922 JUMP JUMPDEST DUP5 MSTORE PUSH1 0x20 DUP5 ADD SWAP4 POP PUSH1 0x20 DUP4 ADD SWAP3 POP POP PUSH1 0x1 DUP2 ADD SWAP1 POP PUSH2 0x783 JUMP JUMPDEST POP POP POP SWAP4 SWAP3 POP POP POP JUMP JUMPDEST PUSH1 0x0 PUSH2 0x7CD PUSH2 0x7C8 DUP5 PUSH2 0xF2D JUMP JUMPDEST PUSH2 0xEA4 JUMP JUMPDEST SWAP1 POP DUP1 DUP4 DUP3 MSTORE PUSH1 0x20 DUP3 ADD SWAP1 POP DUP3 DUP6 PUSH1 0x20 DUP7 MUL DUP3 ADD GT ISZERO PUSH2 0x7EC JUMPI PUSH1 0x0 DUP1 REVERT JUMPDEST PUSH1 0x0 JUMPDEST DUP6 DUP2 LT ISZERO PUSH2 0x81C JUMPI DUP2 PUSH2 0x802 DUP9 DUP3 PUSH2 0x961 JUMP JUMPDEST DUP5 MSTORE PUSH1 0x20 DUP5 ADD SWAP4 POP PUSH1 0x20 DUP4 ADD SWAP3 POP POP PUSH1 0x1 DUP2 ADD SWAP1 POP PUSH2 0x7EF JUMP JUMPDEST POP POP POP SWAP4 SWAP3 POP POP POP JUMP JUMPDEST PUSH1 0x0 DUP2 CALLDATALOAD SWAP1 POP PUSH2 0x835 DUP2 PUSH2 0x10D9 JUMP JUMPDEST SWAP3 SWAP2 POP POP JUMP JUMPDEST PUSH1 0x0 DUP2 MLOAD SWAP1 POP PUSH2 0x84A DUP2 PUSH2 0x10D9 JUMP JUMPDEST SWAP3 SWAP2 POP POP JUMP JUMPDEST PUSH1 0x0 DUP3 PUSH1 0x1F DUP4 ADD SLT PUSH2 0x861 JUMPI PUSH1 0x0 DUP1 REVERT JUMPDEST DUP2 MLOAD PUSH2 0x871 DUP5 DUP3 PUSH1 0x20 DUP7 ADD PUSH2 0x6E2 JUMP JUMPDEST SWAP2 POP POP SWAP3 SWAP2 POP POP JUMP JUMPDEST PUSH1 0x0 DUP3 PUSH1 0x1F DUP4 ADD SLT PUSH2 0x88B JUMPI PUSH1 0x0 DUP1 REVERT JUMPDEST DUP2 MLOAD PUSH2 0x89B DUP5 DUP3 PUSH1 0x20 DUP7 ADD PUSH2 0x74E JUMP JUMPDEST SWAP2 POP POP SWAP3 SWAP2 POP POP JUMP JUMPDEST PUSH1 0x0 DUP3 PUSH1 0x1F DUP4 ADD SLT PUSH2 0x8B5 JUMPI PUSH1 0x0 DUP1 REVERT JUMPDEST DUP2 MLOAD PUSH2 0x8C5 DUP5 DUP3 PUSH1 0x20 DUP7 ADD PUSH2 0x7BA JUMP JUMPDEST SWAP2 POP POP SWAP3 SWAP2 POP POP JUMP JUMPDEST PUSH1 0x0 DUP2 MLOAD SWAP1 POP PUSH2 0x8DD DUP2 PUSH2 0x10F0 JUMP JUMPDEST SWAP3 SWAP2 POP POP JUMP JUMPDEST PUSH1 0x0 DUP2 MLOAD SWAP1 POP PUSH2 0x8F2 DUP2 PUSH2 0x1107 JUMP JUMPDEST SWAP3 SWAP2 POP POP JUMP JUMPDEST PUSH1 0x0 DUP2 MLOAD SWAP1 POP PUSH2 0x907 DUP2 PUSH2 0x111E JUMP JUMPDEST SWAP3 SWAP2 POP POP JUMP JUMPDEST PUSH1 0x0 DUP2 MLOAD SWAP1 POP PUSH2 0x91C DUP2 PUSH2 0x1135 JUMP JUMPDEST SWAP3 SWAP2 POP POP JUMP JUMPDEST PUSH1 0x0 DUP2 MLOAD SWAP1 POP PUSH2 0x931 DUP2 PUSH2 0x1163 JUMP JUMPDEST SWAP3 SWAP2 POP POP JUMP JUMPDEST PUSH1 0x0 DUP2 MLOAD SWAP1 POP PUSH2 0x946 DUP2 PUSH2 0x114C JUMP JUMPDEST SWAP3 SWAP2 POP POP JUMP JUMPDEST PUSH1 0x0 DUP2 MLOAD SWAP1 POP PUSH2 0x95B DUP2 PUSH2 0x117A JUMP JUMPDEST SWAP3 SWAP2 POP POP JUMP JUMPDEST PUSH1 0x0 DUP2 MLOAD SWAP1 POP PUSH2 0x970 DUP2 PUSH2 0x1191 JUMP JUMPDEST SWAP3 SWAP2 POP POP JUMP JUMPDEST PUSH1 0x0 DUP2 MLOAD SWAP1 POP PUSH2 0x985 DUP2 PUSH2 0x11BF JUMP JUMPDEST SWAP3 SWAP2 POP POP JUMP JUMPDEST PUSH1 0x0 DUP2 MLOAD SWAP1 POP PUSH2 0x99A DUP2 PUSH2 0x11A8 JUMP JUMPDEST SWAP3 SWAP2 POP POP JUMP JUMPDEST PUSH1 0x0 PUSH1 0x20 DUP3 DUP5 SUB SLT ISZERO PUSH2 0x9B2 JUMPI PUSH1 0x0 DUP1 REVERT JUMPDEST PUSH1 0x0 PUSH2 0x9C0 DUP5 DUP3 DUP6 ADD PUSH2 0x83B JUMP JUMPDEST SWAP2 POP POP SWAP3 SWAP2 POP POP JUMP JUMPDEST PUSH1 0x0 DUP1 PUSH1 0x40 DUP4 DUP6 SUB SLT ISZERO PUSH2 0x9DC JUMPI PUSH1 0x0 DUP1 REVERT JUMPDEST PUSH1 0x0 PUSH2 0x9EA DUP6 DUP3 DUP7 ADD PUSH2 0x826 JUMP JUMPDEST SWAP3 POP POP PUSH1 0x20 PUSH2 0x9FB DUP6 DUP3 DUP7 ADD PUSH2 0x826 JUMP JUMPDEST SWAP2 POP POP SWAP3 POP SWAP3 SWAP1 POP JUMP JUMPDEST PUSH1 0x0 DUP1 PUSH1 0x0 PUSH1 0x60 DUP5 DUP7 SUB SLT ISZERO PUSH2 0xA1A JUMPI PUSH1 0x0 DUP1 REVERT JUMPDEST PUSH1 0x0 PUSH2 0xA28 DUP7 DUP3 DUP8 ADD PUSH2 0x826 JUMP JUMPDEST SWAP4 POP POP PUSH1 0x20 PUSH2 0xA39 DUP7 DUP3 DUP8 ADD PUSH2 0x826 JUMP JUMPDEST SWAP3 POP POP PUSH1 0x40 PUSH2 0xA4A DUP7 DUP3 DUP8 ADD PUSH2 0x826 JUMP JUMPDEST SWAP2 POP POP SWAP3 POP SWAP3 POP SWAP3 JUMP JUMPDEST PUSH1 0x0 DUP1 PUSH1 0x40 DUP4 DUP6 SUB SLT ISZERO PUSH2 0xA67 JUMPI PUSH1 0x0 DUP1 REVERT JUMPDEST PUSH1 0x0 DUP4 ADD MLOAD PUSH8 0xFFFFFFFFFFFFFFFF DUP2 GT ISZERO PUSH2 0xA81 JUMPI PUSH1 0x0 DUP1 REVERT JUMPDEST PUSH2 0xA8D DUP6 DUP3 DUP7 ADD PUSH2 0x850 JUMP JUMPDEST SWAP3 POP POP PUSH1 0x20 DUP4 ADD MLOAD PUSH8 0xFFFFFFFFFFFFFFFF DUP2 GT ISZERO PUSH2 0xAAA JUMPI PUSH1 0x0 DUP1 REVERT JUMPDEST PUSH2 0xAB6 DUP6 DUP3 DUP7 ADD PUSH2 0x87A JUMP JUMPDEST SWAP2 POP POP SWAP3 POP SWAP3 SWAP1 POP JUMP JUMPDEST PUSH1 0x0 PUSH1 0x20 DUP3 DUP5 SUB SLT ISZERO PUSH2 0xAD2 JUMPI PUSH1 0x0 DUP1 REVERT JUMPDEST PUSH1 0x0 DUP3 ADD MLOAD PUSH8 0xFFFFFFFFFFFFFFFF DUP2 GT ISZERO PUSH2 0xAEC JUMPI PUSH1 0x0 DUP1 REVERT JUMPDEST PUSH2 0xAF8 DUP5 DUP3 DUP6 ADD PUSH2 0x8A4 JUMP JUMPDEST SWAP2 POP POP SWAP3 SWAP2 POP POP JUMP JUMPDEST PUSH1 0x0 DUP1 PUSH1 0x0 DUP1 PUSH1 0x0 DUP1 PUSH1 0x0 PUSH1 0xE0 DUP9 DUP11 SUB SLT ISZERO PUSH2 0xB1C JUMPI PUSH1 0x0 DUP1 REVERT JUMPDEST PUSH1 0x0 PUSH2 0xB2A DUP11 DUP3 DUP12 ADD PUSH2 0x922 JUMP JUMPDEST SWAP8 POP POP PUSH1 0x20 PUSH2 0xB3B DUP11 DUP3 DUP12 ADD PUSH2 0x8E3 JUMP JUMPDEST SWAP7 POP POP PUSH1 0x40 PUSH2 0xB4C DUP11 DUP3 DUP12 ADD PUSH2 0x937 JUMP JUMPDEST SWAP6 POP POP PUSH1 0x60 PUSH2 0xB5D DUP11 DUP3 DUP12 ADD PUSH2 0x937 JUMP JUMPDEST SWAP5 POP POP PUSH1 0x80 PUSH2 0xB6E DUP11 DUP3 DUP12 ADD PUSH2 0x937 JUMP JUMPDEST SWAP4 POP POP PUSH1 0xA0 PUSH2 0xB7F DUP11 DUP3 DUP12 ADD PUSH2 0x98B JUMP JUMPDEST SWAP3 POP POP PUSH1 0xC0 PUSH2 0xB90 DUP11 DUP3 DUP12 ADD PUSH2 0x8CE JUMP JUMPDEST SWAP2 POP POP SWAP3 SWAP6 SWAP9 SWAP2 SWAP5 SWAP8 POP SWAP3 SWAP6 POP JUMP JUMPDEST PUSH1 0x0 PUSH1 0x20 DUP3 DUP5 SUB SLT ISZERO PUSH2 0xBB1 JUMPI PUSH1 0x0 DUP1 REVERT JUMPDEST PUSH1 0x0 PUSH2 0xBBF DUP5 DUP3 DUP6 ADD PUSH2 0x94C JUMP JUMPDEST SWAP2 POP POP SWAP3 SWAP2 POP POP JUMP JUMPDEST PUSH1 0x0 DUP1 PUSH1 0x0 DUP1 PUSH1 0x0 PUSH1 0xA0 DUP7 DUP9 SUB SLT ISZERO PUSH2 0xBE0 JUMPI PUSH1 0x0 DUP1 REVERT JUMPDEST PUSH1 0x0 PUSH2 0xBEE DUP9 DUP3 DUP10 ADD PUSH2 0x976 JUMP JUMPDEST SWAP6 POP POP PUSH1 0x20 PUSH2 0xBFF DUP9 DUP3 DUP10 ADD PUSH2 0x8F8 JUMP JUMPDEST SWAP5 POP POP PUSH1 0x40 PUSH2 0xC10 DUP9 DUP3 DUP10 ADD PUSH2 0x94C JUMP JUMPDEST SWAP4 POP POP PUSH1 0x60 PUSH2 0xC21 DUP9 DUP3 DUP10 ADD PUSH2 0x94C JUMP JUMPDEST SWAP3 POP POP PUSH1 0x80 PUSH2 0xC32 DUP9 DUP3 DUP10 ADD PUSH2 0x976 JUMP JUMPDEST SWAP2 POP POP SWAP3 SWAP6 POP SWAP3 SWAP6 SWAP1 SWAP4 POP JUMP JUMPDEST PUSH1 0x0 PUSH2 0xC4B DUP4 DUP4 PUSH2 0xD3A JUMP JUMPDEST PUSH1 0x20 DUP4 ADD SWAP1 POP SWAP3 SWAP2 POP POP JUMP JUMPDEST PUSH1 0x0 PUSH2 0xC63 DUP4 DUP4 PUSH2 0xDB6 JUMP JUMPDEST PUSH1 0x20 DUP4 ADD SWAP1 POP SWAP3 SWAP2 POP POP JUMP JUMPDEST PUSH2 0xC78 DUP2 PUSH2 0xFDC JUMP JUMPDEST DUP3 MSTORE POP POP JUMP JUMPDEST PUSH1 0x0 PUSH2 0xC89 DUP3 PUSH2 0xF79 JUMP JUMPDEST PUSH2 0xC93 DUP2 DUP6 PUSH2 0xFA9 JUMP JUMPDEST SWAP4 POP PUSH2 0xC9E DUP4 PUSH2 0xF59 JUMP JUMPDEST DUP1 PUSH1 0x0 JUMPDEST DUP4 DUP2 LT ISZERO PUSH2 0xCCF JUMPI DUP2 MLOAD PUSH2 0xCB6 DUP9 DUP3 PUSH2 0xC3F JUMP JUMPDEST SWAP8 POP PUSH2 0xCC1 DUP4 PUSH2 0xF8F JUMP JUMPDEST SWAP3 POP POP PUSH1 0x1 DUP2 ADD SWAP1 POP PUSH2 0xCA2 JUMP JUMPDEST POP DUP6 SWAP4 POP POP POP POP SWAP3 SWAP2 POP POP JUMP JUMPDEST PUSH1 0x0 PUSH2 0xCE7 DUP3 PUSH2 0xF84 JUMP JUMPDEST PUSH2 0xCF1 DUP2 DUP6 PUSH2 0xFBA JUMP JUMPDEST SWAP4 POP PUSH2 0xCFC DUP4 PUSH2 0xF69 JUMP JUMPDEST DUP1 PUSH1 0x0 JUMPDEST DUP4 DUP2 LT ISZERO PUSH2 0xD2D JUMPI DUP2 MLOAD PUSH2 0xD14 DUP9 DUP3 PUSH2 0xC57 JUMP JUMPDEST SWAP8 POP PUSH2 0xD1F DUP4 PUSH2 0xF9C JUMP JUMPDEST SWAP3 POP POP PUSH1 0x1 DUP2 ADD SWAP1 POP PUSH2 0xD00 JUMP JUMPDEST POP DUP6 SWAP4 POP POP POP POP SWAP3 SWAP2 POP POP JUMP JUMPDEST PUSH2 0xD43 DUP2 PUSH2 0x1011 JUMP JUMPDEST DUP3 MSTORE POP POP JUMP JUMPDEST PUSH2 0xD52 DUP2 PUSH2 0x1098 JUMP JUMPDEST DUP3 MSTORE POP POP JUMP JUMPDEST PUSH1 0x0 PUSH2 0xD65 PUSH1 0xF DUP4 PUSH2 0xFCB JUMP JUMPDEST SWAP2 POP PUSH32 0x5072696365206E6F7420666F756E640000000000000000000000000000000000 PUSH1 0x0 DUP4 ADD MSTORE PUSH1 0x20 DUP3 ADD SWAP1 POP SWAP2 SWAP1 POP JUMP JUMPDEST PUSH2 0xDA1 DUP2 PUSH2 0x102C JUMP JUMPDEST DUP3 MSTORE POP POP JUMP JUMPDEST PUSH2 0xDB0 DUP2 PUSH2 0x105B JUMP JUMPDEST DUP3 MSTORE POP POP JUMP JUMPDEST PUSH2 0xDBF DUP2 PUSH2 0x1065 JUMP JUMPDEST DUP3 MSTORE POP POP JUMP JUMPDEST PUSH1 0x0 PUSH1 0x60 DUP3 ADD SWAP1 POP PUSH2 0xDDA PUSH1 0x0 DUP4 ADD DUP7 PUSH2 0xC6F JUMP JUMPDEST PUSH2 0xDE7 PUSH1 0x20 DUP4 ADD DUP6 PUSH2 0xC6F JUMP JUMPDEST PUSH2 0xDF4 PUSH1 0x40 DUP4 ADD DUP5 PUSH2 0xD49 JUMP JUMPDEST SWAP5 SWAP4 POP POP POP POP JUMP JUMPDEST PUSH1 0x0 PUSH1 0x20 DUP3 ADD SWAP1 POP DUP2 DUP2 SUB PUSH1 0x0 DUP4 ADD MSTORE PUSH2 0xE16 DUP2 DUP5 PUSH2 0xC7E JUMP JUMPDEST SWAP1 POP SWAP3 SWAP2 POP POP JUMP JUMPDEST PUSH1 0x0 PUSH1 0x20 DUP3 ADD SWAP1 POP DUP2 DUP2 SUB PUSH1 0x0 DUP4 ADD MSTORE PUSH2 0xE38 DUP2 DUP5 PUSH2 0xCDC JUMP JUMPDEST SWAP1 POP SWAP3 SWAP2 POP POP JUMP JUMPDEST PUSH1 0x0 PUSH1 0x20 DUP3 ADD SWAP1 POP DUP2 DUP2 SUB PUSH1 0x0 DUP4 ADD MSTORE PUSH2 0xE59 DUP2 PUSH2 0xD58 JUMP JUMPDEST SWAP1 POP SWAP2 SWAP1 POP JUMP JUMPDEST PUSH1 0x0 PUSH1 0x20 DUP3 ADD SWAP1 POP PUSH2 0xE75 PUSH1 0x0 DUP4 ADD DUP5 PUSH2 0xD98 JUMP JUMPDEST SWAP3 SWAP2 POP POP JUMP JUMPDEST PUSH1 0x0 PUSH1 0x40 DUP3 ADD SWAP1 POP PUSH2 0xE90 PUSH1 0x0 DUP4 ADD DUP6 PUSH2 0xDA7 JUMP JUMPDEST PUSH2 0xE9D PUSH1 0x20 DUP4 ADD DUP5 PUSH2 0xDA7 JUMP JUMPDEST SWAP4 SWAP3 POP POP POP JUMP JUMPDEST PUSH1 0x0 PUSH1 0x40 MLOAD SWAP1 POP DUP2 DUP2 ADD DUP2 DUP2 LT PUSH8 0xFFFFFFFFFFFFFFFF DUP3 GT OR ISZERO PUSH2 0xECB JUMPI PUSH2 0xECA PUSH2 0x10AA JUMP JUMPDEST JUMPDEST DUP1 PUSH1 0x40 MSTORE POP SWAP2 SWAP1 POP JUMP JUMPDEST PUSH1 0x0 PUSH8 0xFFFFFFFFFFFFFFFF DUP3 GT ISZERO PUSH2 0xEF0 JUMPI PUSH2 0xEEF PUSH2 0x10AA JUMP JUMPDEST JUMPDEST PUSH1 0x20 DUP3 MUL SWAP1 POP PUSH1 0x20 DUP2 ADD SWAP1 POP SWAP2 SWAP1 POP JUMP JUMPDEST PUSH1 0x0 PUSH8 0xFFFFFFFFFFFFFFFF DUP3 GT ISZERO PUSH2 0xF1C JUMPI PUSH2 0xF1B PUSH2 0x10AA JUMP JUMPDEST JUMPDEST PUSH1 0x20 DUP3 MUL SWAP1 POP PUSH1 0x20 DUP2 ADD SWAP1 POP SWAP2 SWAP1 POP JUMP JUMPDEST PUSH1 0x0 PUSH8 0xFFFFFFFFFFFFFFFF DUP3 GT ISZERO PUSH2 0xF48 JUMPI PUSH2 0xF47 PUSH2 0x10AA JUMP JUMPDEST JUMPDEST PUSH1 0x20 DUP3 MUL SWAP1 POP PUSH1 0x20 DUP2 ADD SWAP1 POP SWAP2 SWAP1 POP JUMP JUMPDEST PUSH1 0x0 DUP2 SWAP1 POP PUSH1 0x20 DUP3 ADD SWAP1 POP SWAP2 SWAP1 POP JUMP JUMPDEST PUSH1 0x0 DUP2 SWAP1 POP PUSH1 0x20 DUP3 ADD SWAP1 POP SWAP2 SWAP1 POP JUMP JUMPDEST PUSH1 0x0 DUP2 MLOAD SWAP1 POP SWAP2 SWAP1 POP JUMP JUMPDEST PUSH1 0x0 DUP2 MLOAD SWAP1 POP SWAP2 SWAP1 POP JUMP JUMPDEST PUSH1 0x0 PUSH1 0x20 DUP3 ADD SWAP1 POP SWAP2 SWAP1 POP JUMP JUMPDEST PUSH1 0x0 PUSH1 0x20 DUP3 ADD SWAP1 POP SWAP2 SWAP1 POP JUMP JUMPDEST PUSH1 0x0 DUP3 DUP3 MSTORE PUSH1 0x20 DUP3 ADD SWAP1 POP SWAP3 SWAP2 POP POP JUMP JUMPDEST PUSH1 0x0 DUP3 DUP3 MSTORE PUSH1 0x20 DUP3 ADD SWAP1 POP SWAP3 SWAP2 POP POP JUMP JUMPDEST PUSH1 0x0 DUP3 DUP3 MSTORE PUSH1 0x20 DUP3 ADD SWAP1 POP SWAP3 SWAP2 POP POP JUMP JUMPDEST PUSH1 0x0 PUSH2 0xFE7 DUP3 PUSH2 0x102C JUMP JUMPDEST SWAP1 POP SWAP2 SWAP1 POP JUMP JUMPDEST PUSH1 0x0 DUP2 ISZERO ISZERO SWAP1 POP SWAP2 SWAP1 POP JUMP JUMPDEST PUSH1 0x0 DUP2 PUSH1 0x2 SIGNEXTEND SWAP1 POP SWAP2 SWAP1 POP JUMP JUMPDEST PUSH1 0x0 DUP2 SWAP1 POP SWAP2 SWAP1 POP JUMP JUMPDEST PUSH1 0x0 DUP2 PUSH1 0x6 SIGNEXTEND SWAP1 POP SWAP2 SWAP1 POP JUMP JUMPDEST PUSH1 0x0 PUSH2 0xFFFF DUP3 AND SWAP1 POP SWAP2 SWAP1 POP JUMP JUMPDEST PUSH1 0x0 PUSH20 0xFFFFFFFFFFFFFFFFFFFFFFFFFFFFFFFFFFFFFFFF DUP3 AND SWAP1 POP SWAP2 SWAP1 POP JUMP JUMPDEST PUSH1 0x0 PUSH3 0xFFFFFF DUP3 AND SWAP1 POP SWAP2 SWAP1 POP JUMP JUMPDEST PUSH1 0x0 DUP2 SWAP1 POP SWAP2 SWAP1 POP JUMP JUMPDEST PUSH1 0x0 PUSH4 0xFFFFFFFF DUP3 AND SWAP1 POP SWAP2 SWAP1 POP JUMP JUMPDEST PUSH1 0x0 PUSH1 0xFF DUP3 AND SWAP1 POP SWAP2 SWAP1 POP JUMP JUMPDEST PUSH1 0x0 PUSH10 0xFFFFFFFFFFFFFFFFFFFF DUP3 AND SWAP1 POP SWAP2 SWAP1 POP JUMP JUMPDEST PUSH1 0x0 PUSH2 0x10A3 DUP3 PUSH2 0x104C JUMP JUMPDEST SWAP1 POP SWAP2 SWAP1 POP JUMP JUMPDEST PUSH32 0x4E487B7100000000000000000000000000000000000000000000000000000000 PUSH1 0x0 MSTORE PUSH1 0x41 PUSH1 0x4 MSTORE PUSH1 0x24 PUSH1 0x0 REVERT JUMPDEST PUSH2 0x10E2 DUP2 PUSH2 0xFDC JUMP JUMPDEST DUP2 EQ PUSH2 0x10ED JUMPI PUSH1 0x0 DUP1 REVERT JUMPDEST POP JUMP JUMPDEST PUSH2 0x10F9 DUP2 PUSH2 0xFEE JUMP JUMPDEST DUP2 EQ PUSH2 0x1104 JUMPI PUSH1 0x0 DUP1 REVERT JUMPDEST POP JUMP JUMPDEST PUSH2 0x1110 DUP2 PUSH2 0xFFA JUMP JUMPDEST DUP2 EQ PUSH2 0x111B JUMPI PUSH1 0x0 DUP1 REVERT JUMPDEST POP JUMP JUMPDEST PUSH2 0x1127 DUP2 PUSH2 0x1007 JUMP JUMPDEST DUP2 EQ PUSH2 0x1132 JUMPI PUSH1 0x0 DUP1 REVERT JUMPDEST POP JUMP JUMPDEST PUSH2 0x113E DUP2 PUSH2 0x1011 JUMP JUMPDEST DUP2 EQ PUSH2 0x1149 JUMPI PUSH1 0x0 DUP1 REVERT JUMPDEST POP JUMP JUMPDEST PUSH2 0x1155 DUP2 PUSH2 0x101E JUMP JUMPDEST DUP2 EQ PUSH2 0x1160 JUMPI PUSH1 0x0 DUP1 REVERT JUMPDEST POP JUMP JUMPDEST PUSH2 0x116C DUP2 PUSH2 0x102C JUMP JUMPDEST DUP2 EQ PUSH2 0x1177 JUMPI PUSH1 0x0 DUP1 REVERT JUMPDEST POP JUMP JUMPDEST PUSH2 0x1183 DUP2 PUSH2 0x105B JUMP JUMPDEST DUP2 EQ PUSH2 0x118E JUMPI PUSH1 0x0 DUP1 REVERT JUMPDEST POP JUMP JUMPDEST PUSH2 0x119A DUP2 PUSH2 0x1065 JUMP JUMPDEST DUP2 EQ PUSH2 0x11A5 JUMPI PUSH1 0x0 DUP1 REVERT JUMPDEST POP JUMP JUMPDEST PUSH2 0x11B1 DUP2 PUSH2 0x1075 JUMP JUMPDEST DUP2 EQ PUSH2 0x11BC JUMPI PUSH1 0x0 DUP1 REVERT JUMPDEST POP JUMP JUMPDEST PUSH2 0x11C8 DUP2 PUSH2 0x1082 JUMP JUMPDEST DUP2 EQ PUSH2 0x11D3 JUMPI PUSH1 0x0 DUP1 REVERT JUMPDEST POP JUMP INVALID LOG2 PUSH5 0x6970667358 0x22 SLT KECCAK256 CALLER SSTORE 0x4B 0xCC 0x4C SELFBALANCE 0xE0 DUP4 PUSH21 0xEDEC48EAF22808942E355C08B7A8246D2B963A7531 0x21 PUSH29 0x64736F6C63430008000033000000000000000000000000000000000000 "
		},
		"gasEstimates": {
			"creation": {
				"codeDepositCost": "924000",
				"executionCost": "962",
				"totalCost": "924962"
			},
			"external": {
				"getPrice(address,address)": "infinite",
				"prices(address,address)": "infinite",
				"setChainlinkPrice(address,address,address)": "infinite",
				"setPrice(address,address,address)": "infinite"
			}
		},
		"methodIdentifiers": {
			"getPrice(address,address)": "ac41865a",
			"prices(address,address)": "1f312404",
			"setChainlinkPrice(address,address,address)": "4cb5960e",
			"setPrice(address,address,address)": "27e50822"
		}
	},
	"abi": [
		{
			"inputs": [
				{
					"internalType": "address",
					"name": "tokenA",
					"type": "address"
				},
				{
					"internalType": "address",
					"name": "tokenB",
					"type": "address"
				}
			],
			"name": "getPrice",
			"outputs": [
				{
					"internalType": "uint256",
					"name": "",
					"type": "uint256"
				},
				{
					"internalType": "uint256",
					"name": "",
					"type": "uint256"
				}
			],
			"stateMutability": "view",
			"type": "function"
		},
		{
			"inputs": [
				{
					"internalType": "address",
					"name": "",
					"type": "address"
				},
				{
					"internalType": "address",
					"name": "",
					"type": "address"
				}
			],
			"name": "prices",
			"outputs": [
				{
					"internalType": "uint256",
					"name": "price",
					"type": "uint256"
				},
				{
					"internalType": "uint256",
					"name": "timestamp",
					"type": "uint256"
				}
			],
			"stateMutability": "view",
			"type": "function"
		},
		{
			"inputs": [
				{
					"internalType": "address",
					"name": "tokenA",
					"type": "address"
				},
				{
					"internalType": "address",
					"name": "tokenB",
					"type": "address"
				},
				{
					"internalType": "address",
					"name": "aggregator",
					"type": "address"
				}
			],
			"name": "setChainlinkPrice",
			"outputs": [],
			"stateMutability": "nonpayable",
			"type": "function"
		},
		{
			"inputs": [
				{
					"internalType": "address",
					"name": "tokenA",
					"type": "address"
				},
				{
					"internalType": "address",
					"name": "tokenB",
					"type": "address"
				},
				{
					"internalType": "address",
					"name": "dexContractAddress",
					"type": "address"
				}
			],
			"name": "setPrice",
			"outputs": [],
			"stateMutability": "nonpayable",
			"type": "function"
		}
	]
}