{
	"ArbitrageDao-Contract/contracts/extern/UintConverter .sol": {
		"UintConverter": {
			"abi": [
				{
					"inputs": [
						{
							"internalType": "uint160",
							"name": "value",
							"type": "uint160"
						}
					],
					"name": "toUint32Array",
					"outputs": [
						{
							"internalType": "uint32[]",
							"name": "",
							"type": "uint32[]"
						}
					],
					"stateMutability": "pure",
					"type": "function"
				}
			],
			"devdoc": {
				"kind": "dev",
				"methods": {},
				"version": 1
			},
			"evm": {
				"assembly": "    /* \"ArbitrageDao-Contract/contracts/extern/UintConverter .sol\":27:932  contract UintConverter {\r... */\n  mstore(0x40, 0x80)\n  callvalue\n  dup1\n  iszero\n  tag_1\n  jumpi\n  0x00\n  dup1\n  revert\ntag_1:\n  pop\n  dataSize(sub_0)\n  dup1\n  dataOffset(sub_0)\n  0x00\n  codecopy\n  0x00\n  return\nstop\n\nsub_0: assembly {\n        /* \"ArbitrageDao-Contract/contracts/extern/UintConverter .sol\":27:932  contract UintConverter {\r... */\n      mstore(0x40, 0x80)\n      callvalue\n      dup1\n      iszero\n      tag_1\n      jumpi\n      0x00\n      dup1\n      revert\n    tag_1:\n      pop\n      jumpi(tag_2, lt(calldatasize, 0x04))\n      shr(0xe0, calldataload(0x00))\n      dup1\n      0x95fc4af5\n      eq\n      tag_3\n      jumpi\n    tag_2:\n      0x00\n      dup1\n      revert\n        /* \"ArbitrageDao-Contract/contracts/extern/UintConverter .sol\":97:929  function toUint32Array(uint160 value) public pure returns (uint32[] memory) {\r... */\n    tag_3:\n      tag_4\n      0x04\n      dup1\n      calldatasize\n      sub\n      dup2\n      add\n      swap1\n      tag_5\n      swap2\n      swap1\n      tag_6\n      jump\t// in\n    tag_5:\n      tag_7\n      jump\t// in\n    tag_4:\n      mload(0x40)\n      tag_8\n      swap2\n      swap1\n      tag_9\n      jump\t// in\n    tag_8:\n      mload(0x40)\n      dup1\n      swap2\n      sub\n      swap1\n      return\n    tag_7:\n        /* \"ArbitrageDao-Contract/contracts/extern/UintConverter .sol\":156:171  uint32[] memory */\n      0x60\n        /* \"ArbitrageDao-Contract/contracts/extern/UintConverter .sol\":184:206  uint32[] memory result */\n      0x00\n        /* \"ArbitrageDao-Contract/contracts/extern/UintConverter .sol\":222:223  5 */\n      0x05\n        /* \"ArbitrageDao-Contract/contracts/extern/UintConverter .sol\":209:224  new uint32[](5) */\n      0xffffffffffffffff\n      dup2\n      gt\n      iszero\n      tag_11\n      jumpi\n      mstore(0x00, 0x4e487b7100000000000000000000000000000000000000000000000000000000)\n      mstore(0x04, 0x41)\n      revert(0x00, 0x24)\n    tag_11:\n      mload(0x40)\n      swap1\n      dup1\n      dup3\n      mstore\n      dup1\n      0x20\n      mul\n      0x20\n      add\n      dup3\n      add\n      0x40\n      mstore\n      dup1\n      iszero\n      tag_12\n      jumpi\n      dup2\n      0x20\n      add\n      0x20\n      dup3\n      mul\n      dup1\n      calldatasize\n      dup4\n      calldatacopy\n      dup1\n      dup3\n      add\n      swap2\n      pop\n      pop\n      swap1\n      pop\n    tag_12:\n      pop\n        /* \"ArbitrageDao-Contract/contracts/extern/UintConverter .sol\":184:224  uint32[] memory result = new uint32[](5) */\n      swap1\n      pop\n        /* \"ArbitrageDao-Contract/contracts/extern/UintConverter .sol\":294:306  uint32 first */\n      0x00\n        /* \"ArbitrageDao-Contract/contracts/extern/UintConverter .sol\":325:328  128 */\n      0x80\n        /* \"ArbitrageDao-Contract/contracts/extern/UintConverter .sol\":316:321  value */\n      dup5\n        /* \"ArbitrageDao-Contract/contracts/extern/UintConverter .sol\":316:328  value >> 128 */\n      0xffffffffffffffffffffffffffffffffffffffff\n      and\n      swap1\n      shr\n        /* \"ArbitrageDao-Contract/contracts/extern/UintConverter .sol\":294:329  uint32 first = uint32(value >> 128) */\n      swap1\n      pop\n        /* \"ArbitrageDao-Contract/contracts/extern/UintConverter .sol\":352:357  first */\n      dup1\n        /* \"ArbitrageDao-Contract/contracts/extern/UintConverter .sol\":340:346  result */\n      dup3\n        /* \"ArbitrageDao-Contract/contracts/extern/UintConverter .sol\":347:348  0 */\n      0x00\n        /* \"ArbitrageDao-Contract/contracts/extern/UintConverter .sol\":340:349  result[0] */\n      dup2\n      mload\n      dup2\n      lt\n      tag_13\n      jumpi\n      mstore(0x00, 0x4e487b7100000000000000000000000000000000000000000000000000000000)\n      mstore(0x04, 0x32)\n      revert(0x00, 0x24)\n    tag_13:\n      0x20\n      mul\n      0x20\n      add\n      add\n        /* \"ArbitrageDao-Contract/contracts/extern/UintConverter .sol\":340:357  result[0] = first */\n      swap1\n      0xffffffff\n      and\n      swap1\n      dup2\n      0xffffffff\n      and\n      dup2\n      mstore\n      pop\n      pop\n        /* \"ArbitrageDao-Contract/contracts/extern/UintConverter .sol\":429:442  uint32 second */\n      0x00\n        /* \"ArbitrageDao-Contract/contracts/extern/UintConverter .sol\":461:463  96 */\n      0x60\n        /* \"ArbitrageDao-Contract/contracts/extern/UintConverter .sol\":452:457  value */\n      dup6\n        /* \"ArbitrageDao-Contract/contracts/extern/UintConverter .sol\":452:463  value >> 96 */\n      0xffffffffffffffffffffffffffffffffffffffff\n      and\n      swap1\n      shr\n        /* \"ArbitrageDao-Contract/contracts/extern/UintConverter .sol\":429:464  uint32 second = uint32(value >> 96) */\n      swap1\n      pop\n        /* \"ArbitrageDao-Contract/contracts/extern/UintConverter .sol\":487:493  second */\n      dup1\n        /* \"ArbitrageDao-Contract/contracts/extern/UintConverter .sol\":475:481  result */\n      dup4\n        /* \"ArbitrageDao-Contract/contracts/extern/UintConverter .sol\":482:483  1 */\n      0x01\n        /* \"ArbitrageDao-Contract/contracts/extern/UintConverter .sol\":475:484  result[1] */\n      dup2\n      mload\n      dup2\n      lt\n      tag_14\n      jumpi\n      mstore(0x00, 0x4e487b7100000000000000000000000000000000000000000000000000000000)\n      mstore(0x04, 0x32)\n      revert(0x00, 0x24)\n    tag_14:\n      0x20\n      mul\n      0x20\n      add\n      add\n        /* \"ArbitrageDao-Contract/contracts/extern/UintConverter .sol\":475:493  result[1] = second */\n      swap1\n      0xffffffff\n      and\n      swap1\n      dup2\n      0xffffffff\n      and\n      dup2\n      mstore\n      pop\n      pop\n        /* \"ArbitrageDao-Contract/contracts/extern/UintConverter .sol\":566:578  uint32 third */\n      0x00\n        /* \"ArbitrageDao-Contract/contracts/extern/UintConverter .sol\":597:599  64 */\n      0x40\n        /* \"ArbitrageDao-Contract/contracts/extern/UintConverter .sol\":588:593  value */\n      dup7\n        /* \"ArbitrageDao-Contract/contracts/extern/UintConverter .sol\":588:599  value >> 64 */\n      0xffffffffffffffffffffffffffffffffffffffff\n      and\n      swap1\n      shr\n        /* \"ArbitrageDao-Contract/contracts/extern/UintConverter .sol\":566:600  uint32 third = uint32(value >> 64) */\n      swap1\n      pop\n        /* \"ArbitrageDao-Contract/contracts/extern/UintConverter .sol\":623:628  third */\n      dup1\n        /* \"ArbitrageDao-Contract/contracts/extern/UintConverter .sol\":611:617  result */\n      dup5\n        /* \"ArbitrageDao-Contract/contracts/extern/UintConverter .sol\":618:619  2 */\n      0x02\n        /* \"ArbitrageDao-Contract/contracts/extern/UintConverter .sol\":611:620  result[2] */\n      dup2\n      mload\n      dup2\n      lt\n      tag_15\n      jumpi\n      mstore(0x00, 0x4e487b7100000000000000000000000000000000000000000000000000000000)\n      mstore(0x04, 0x32)\n      revert(0x00, 0x24)\n    tag_15:\n      0x20\n      mul\n      0x20\n      add\n      add\n        /* \"ArbitrageDao-Contract/contracts/extern/UintConverter .sol\":611:628  result[2] = third */\n      swap1\n      0xffffffff\n      and\n      swap1\n      dup2\n      0xffffffff\n      and\n      dup2\n      mstore\n      pop\n      pop\n        /* \"ArbitrageDao-Contract/contracts/extern/UintConverter .sol\":702:715  uint32 fourth */\n      0x00\n        /* \"ArbitrageDao-Contract/contracts/extern/UintConverter .sol\":734:736  32 */\n      0x20\n        /* \"ArbitrageDao-Contract/contracts/extern/UintConverter .sol\":725:730  value */\n      dup8\n        /* \"ArbitrageDao-Contract/contracts/extern/UintConverter .sol\":725:736  value >> 32 */\n      0xffffffffffffffffffffffffffffffffffffffff\n      and\n      swap1\n      shr\n        /* \"ArbitrageDao-Contract/contracts/extern/UintConverter .sol\":702:737  uint32 fourth = uint32(value >> 32) */\n      swap1\n      pop\n        /* \"ArbitrageDao-Contract/contracts/extern/UintConverter .sol\":760:766  fourth */\n      dup1\n        /* \"ArbitrageDao-Contract/contracts/extern/UintConverter .sol\":748:754  result */\n      dup6\n        /* \"ArbitrageDao-Contract/contracts/extern/UintConverter .sol\":755:756  3 */\n      0x03\n        /* \"ArbitrageDao-Contract/contracts/extern/UintConverter .sol\":748:757  result[3] */\n      dup2\n      mload\n      dup2\n      lt\n      tag_16\n      jumpi\n      mstore(0x00, 0x4e487b7100000000000000000000000000000000000000000000000000000000)\n      mstore(0x04, 0x32)\n      revert(0x00, 0x24)\n    tag_16:\n      0x20\n      mul\n      0x20\n      add\n      add\n        /* \"ArbitrageDao-Contract/contracts/extern/UintConverter .sol\":748:766  result[3] = fourth */\n      swap1\n      0xffffffff\n      and\n      swap1\n      dup2\n      0xffffffff\n      and\n      dup2\n      mstore\n      pop\n      pop\n        /* \"ArbitrageDao-Contract/contracts/extern/UintConverter .sol\":839:851  uint32 fifth */\n      0x00\n        /* \"ArbitrageDao-Contract/contracts/extern/UintConverter .sol\":861:866  value */\n      dup8\n        /* \"ArbitrageDao-Contract/contracts/extern/UintConverter .sol\":839:867  uint32 fifth = uint32(value) */\n      swap1\n      pop\n        /* \"ArbitrageDao-Contract/contracts/extern/UintConverter .sol\":890:895  fifth */\n      dup1\n        /* \"ArbitrageDao-Contract/contracts/extern/UintConverter .sol\":878:884  result */\n      dup7\n        /* \"ArbitrageDao-Contract/contracts/extern/UintConverter .sol\":885:886  4 */\n      0x04\n        /* \"ArbitrageDao-Contract/contracts/extern/UintConverter .sol\":878:887  result[4] */\n      dup2\n      mload\n      dup2\n      lt\n      tag_17\n      jumpi\n      mstore(0x00, 0x4e487b7100000000000000000000000000000000000000000000000000000000)\n      mstore(0x04, 0x32)\n      revert(0x00, 0x24)\n    tag_17:\n      0x20\n      mul\n      0x20\n      add\n      add\n        /* \"ArbitrageDao-Contract/contracts/extern/UintConverter .sol\":878:895  result[4] = fifth */\n      swap1\n      0xffffffff\n      and\n      swap1\n      dup2\n      0xffffffff\n      and\n      dup2\n      mstore\n      pop\n      pop\n        /* \"ArbitrageDao-Contract/contracts/extern/UintConverter .sol\":915:921  result */\n      dup6\n        /* \"ArbitrageDao-Contract/contracts/extern/UintConverter .sol\":908:921  return result */\n      swap7\n      pop\n      pop\n      pop\n      pop\n      pop\n      pop\n      pop\n        /* \"ArbitrageDao-Contract/contracts/extern/UintConverter .sol\":97:929  function toUint32Array(uint160 value) public pure returns (uint32[] memory) {\r... */\n      swap2\n      swap1\n      pop\n      jump\t// out\n        /* \"#utility.yul\":7:146   */\n    tag_19:\n      0x00\n        /* \"#utility.yul\":91:97   */\n      dup2\n        /* \"#utility.yul\":78:98   */\n      calldataload\n        /* \"#utility.yul\":69:98   */\n      swap1\n      pop\n        /* \"#utility.yul\":107:140   */\n      tag_21\n        /* \"#utility.yul\":134:139   */\n      dup2\n        /* \"#utility.yul\":107:140   */\n      tag_22\n      jump\t// in\n    tag_21:\n        /* \"#utility.yul\":59:146   */\n      swap3\n      swap2\n      pop\n      pop\n      jump\t// out\n        /* \"#utility.yul\":152:414   */\n    tag_6:\n      0x00\n        /* \"#utility.yul\":260:262   */\n      0x20\n        /* \"#utility.yul\":248:257   */\n      dup3\n        /* \"#utility.yul\":239:246   */\n      dup5\n        /* \"#utility.yul\":235:258   */\n      sub\n        /* \"#utility.yul\":231:263   */\n      slt\n        /* \"#utility.yul\":228:230   */\n      iszero\n      tag_24\n      jumpi\n        /* \"#utility.yul\":276:277   */\n      0x00\n        /* \"#utility.yul\":273:274   */\n      dup1\n        /* \"#utility.yul\":266:278   */\n      revert\n        /* \"#utility.yul\":228:230   */\n    tag_24:\n        /* \"#utility.yul\":319:320   */\n      0x00\n        /* \"#utility.yul\":344:397   */\n      tag_25\n        /* \"#utility.yul\":389:396   */\n      dup5\n        /* \"#utility.yul\":380:386   */\n      dup3\n        /* \"#utility.yul\":369:378   */\n      dup6\n        /* \"#utility.yul\":365:387   */\n      add\n        /* \"#utility.yul\":344:397   */\n      tag_19\n      jump\t// in\n    tag_25:\n        /* \"#utility.yul\":334:397   */\n      swap2\n      pop\n        /* \"#utility.yul\":290:407   */\n      pop\n        /* \"#utility.yul\":218:414   */\n      swap3\n      swap2\n      pop\n      pop\n      jump\t// out\n        /* \"#utility.yul\":420:595   */\n    tag_26:\n      0x00\n        /* \"#utility.yul\":508:552   */\n      tag_28\n        /* \"#utility.yul\":548:551   */\n      dup4\n        /* \"#utility.yul\":540:546   */\n      dup4\n        /* \"#utility.yul\":508:552   */\n      tag_29\n      jump\t// in\n    tag_28:\n        /* \"#utility.yul\":584:588   */\n      0x20\n        /* \"#utility.yul\":579:582   */\n      dup4\n        /* \"#utility.yul\":575:589   */\n      add\n        /* \"#utility.yul\":561:589   */\n      swap1\n      pop\n        /* \"#utility.yul\":498:595   */\n      swap3\n      swap2\n      pop\n      pop\n      jump\t// out\n        /* \"#utility.yul\":629:1353   */\n    tag_30:\n      0x00\n        /* \"#utility.yul\":775:828   */\n      tag_32\n        /* \"#utility.yul\":822:827   */\n      dup3\n        /* \"#utility.yul\":775:828   */\n      tag_33\n      jump\t// in\n    tag_32:\n        /* \"#utility.yul\":844:929   */\n      tag_34\n        /* \"#utility.yul\":922:928   */\n      dup2\n        /* \"#utility.yul\":917:920   */\n      dup6\n        /* \"#utility.yul\":844:929   */\n      tag_35\n      jump\t// in\n    tag_34:\n        /* \"#utility.yul\":837:929   */\n      swap4\n      pop\n        /* \"#utility.yul\":953:1008   */\n      tag_36\n        /* \"#utility.yul\":1002:1007   */\n      dup4\n        /* \"#utility.yul\":953:1008   */\n      tag_37\n      jump\t// in\n    tag_36:\n        /* \"#utility.yul\":1031:1038   */\n      dup1\n        /* \"#utility.yul\":1062:1063   */\n      0x00\n        /* \"#utility.yul\":1047:1328   */\n    tag_38:\n        /* \"#utility.yul\":1072:1078   */\n      dup4\n        /* \"#utility.yul\":1069:1070   */\n      dup2\n        /* \"#utility.yul\":1066:1079   */\n      lt\n        /* \"#utility.yul\":1047:1328   */\n      iszero\n      tag_40\n      jumpi\n        /* \"#utility.yul\":1148:1154   */\n      dup2\n        /* \"#utility.yul\":1142:1155   */\n      mload\n        /* \"#utility.yul\":1175:1236   */\n      tag_41\n        /* \"#utility.yul\":1232:1235   */\n      dup9\n        /* \"#utility.yul\":1217:1230   */\n      dup3\n        /* \"#utility.yul\":1175:1236   */\n      tag_26\n      jump\t// in\n    tag_41:\n        /* \"#utility.yul\":1168:1236   */\n      swap8\n      pop\n        /* \"#utility.yul\":1259:1318   */\n      tag_42\n        /* \"#utility.yul\":1311:1317   */\n      dup4\n        /* \"#utility.yul\":1259:1318   */\n      tag_43\n      jump\t// in\n    tag_42:\n        /* \"#utility.yul\":1249:1318   */\n      swap3\n      pop\n        /* \"#utility.yul\":1107:1328   */\n      pop\n        /* \"#utility.yul\":1094:1095   */\n      0x01\n        /* \"#utility.yul\":1091:1092   */\n      dup2\n        /* \"#utility.yul\":1087:1096   */\n      add\n        /* \"#utility.yul\":1082:1096   */\n      swap1\n      pop\n        /* \"#utility.yul\":1047:1328   */\n      jump(tag_38)\n    tag_40:\n        /* \"#utility.yul\":1051:1065   */\n      pop\n        /* \"#utility.yul\":1344:1347   */\n      dup6\n        /* \"#utility.yul\":1337:1347   */\n      swap4\n      pop\n        /* \"#utility.yul\":751:1353   */\n      pop\n      pop\n      pop\n      swap3\n      swap2\n      pop\n      pop\n      jump\t// out\n        /* \"#utility.yul\":1359:1464   */\n    tag_29:\n        /* \"#utility.yul\":1434:1457   */\n      tag_45\n        /* \"#utility.yul\":1451:1456   */\n      dup2\n        /* \"#utility.yul\":1434:1457   */\n      tag_46\n      jump\t// in\n    tag_45:\n        /* \"#utility.yul\":1429:1432   */\n      dup3\n        /* \"#utility.yul\":1422:1458   */\n      mstore\n        /* \"#utility.yul\":1412:1464   */\n      pop\n      pop\n      jump\t// out\n        /* \"#utility.yul\":1470:1839   */\n    tag_9:\n      0x00\n        /* \"#utility.yul\":1649:1651   */\n      0x20\n        /* \"#utility.yul\":1638:1647   */\n      dup3\n        /* \"#utility.yul\":1634:1652   */\n      add\n        /* \"#utility.yul\":1626:1652   */\n      swap1\n      pop\n        /* \"#utility.yul\":1698:1707   */\n      dup2\n        /* \"#utility.yul\":1692:1696   */\n      dup2\n        /* \"#utility.yul\":1688:1708   */\n      sub\n        /* \"#utility.yul\":1684:1685   */\n      0x00\n        /* \"#utility.yul\":1673:1682   */\n      dup4\n        /* \"#utility.yul\":1669:1686   */\n      add\n        /* \"#utility.yul\":1662:1709   */\n      mstore\n        /* \"#utility.yul\":1726:1832   */\n      tag_48\n        /* \"#utility.yul\":1827:1831   */\n      dup2\n        /* \"#utility.yul\":1818:1824   */\n      dup5\n        /* \"#utility.yul\":1726:1832   */\n      tag_30\n      jump\t// in\n    tag_48:\n        /* \"#utility.yul\":1718:1832   */\n      swap1\n      pop\n        /* \"#utility.yul\":1616:1839   */\n      swap3\n      swap2\n      pop\n      pop\n      jump\t// out\n        /* \"#utility.yul\":1845:1976   */\n    tag_37:\n      0x00\n        /* \"#utility.yul\":1934:1937   */\n      dup2\n        /* \"#utility.yul\":1926:1937   */\n      swap1\n      pop\n        /* \"#utility.yul\":1964:1968   */\n      0x20\n        /* \"#utility.yul\":1959:1962   */\n      dup3\n        /* \"#utility.yul\":1955:1969   */\n      add\n        /* \"#utility.yul\":1947:1969   */\n      swap1\n      pop\n        /* \"#utility.yul\":1916:1976   */\n      swap2\n      swap1\n      pop\n      jump\t// out\n        /* \"#utility.yul\":1982:2095   */\n    tag_33:\n      0x00\n        /* \"#utility.yul\":2082:2087   */\n      dup2\n        /* \"#utility.yul\":2076:2088   */\n      mload\n        /* \"#utility.yul\":2066:2088   */\n      swap1\n      pop\n        /* \"#utility.yul\":2055:2095   */\n      swap2\n      swap1\n      pop\n      jump\t// out\n        /* \"#utility.yul\":2101:2213   */\n    tag_43:\n      0x00\n        /* \"#utility.yul\":2202:2206   */\n      0x20\n        /* \"#utility.yul\":2197:2200   */\n      dup3\n        /* \"#utility.yul\":2193:2207   */\n      add\n        /* \"#utility.yul\":2185:2207   */\n      swap1\n      pop\n        /* \"#utility.yul\":2175:2213   */\n      swap2\n      swap1\n      pop\n      jump\t// out\n        /* \"#utility.yul\":2219:2402   */\n    tag_35:\n      0x00\n        /* \"#utility.yul\":2351:2357   */\n      dup3\n        /* \"#utility.yul\":2346:2349   */\n      dup3\n        /* \"#utility.yul\":2339:2358   */\n      mstore\n        /* \"#utility.yul\":2391:2395   */\n      0x20\n        /* \"#utility.yul\":2386:2389   */\n      dup3\n        /* \"#utility.yul\":2382:2396   */\n      add\n        /* \"#utility.yul\":2367:2396   */\n      swap1\n      pop\n        /* \"#utility.yul\":2329:2402   */\n      swap3\n      swap2\n      pop\n      pop\n      jump\t// out\n        /* \"#utility.yul\":2408:2534   */\n    tag_53:\n      0x00\n        /* \"#utility.yul\":2485:2527   */\n      0xffffffffffffffffffffffffffffffffffffffff\n        /* \"#utility.yul\":2478:2483   */\n      dup3\n        /* \"#utility.yul\":2474:2528   */\n      and\n        /* \"#utility.yul\":2463:2528   */\n      swap1\n      pop\n        /* \"#utility.yul\":2453:2534   */\n      swap2\n      swap1\n      pop\n      jump\t// out\n        /* \"#utility.yul\":2540:2633   */\n    tag_46:\n      0x00\n        /* \"#utility.yul\":2616:2626   */\n      0xffffffff\n        /* \"#utility.yul\":2609:2614   */\n      dup3\n        /* \"#utility.yul\":2605:2627   */\n      and\n        /* \"#utility.yul\":2594:2627   */\n      swap1\n      pop\n        /* \"#utility.yul\":2584:2633   */\n      swap2\n      swap1\n      pop\n      jump\t// out\n        /* \"#utility.yul\":2639:2761   */\n    tag_22:\n        /* \"#utility.yul\":2712:2736   */\n      tag_57\n        /* \"#utility.yul\":2730:2735   */\n      dup2\n        /* \"#utility.yul\":2712:2736   */\n      tag_53\n      jump\t// in\n    tag_57:\n        /* \"#utility.yul\":2705:2710   */\n      dup2\n        /* \"#utility.yul\":2702:2737   */\n      eq\n        /* \"#utility.yul\":2692:2694   */\n      tag_58\n      jumpi\n        /* \"#utility.yul\":2751:2752   */\n      0x00\n        /* \"#utility.yul\":2748:2749   */\n      dup1\n        /* \"#utility.yul\":2741:2753   */\n      revert\n        /* \"#utility.yul\":2692:2694   */\n    tag_58:\n        /* \"#utility.yul\":2682:2761   */\n      pop\n      jump\t// out\n\n    auxdata: 0xa26469706673582212201f5f9089916abc1cd95bbac9174ef08eab6aa83a1b2dc520e826b10e67f2bbad64736f6c63430008000033\n}\n",
				"bytecode": {
					"linkReferences": {},
					"object": "608060405234801561001057600080fd5b506104a9806100206000396000f3fe608060405234801561001057600080fd5b506004361061002b5760003560e01c806395fc4af514610030575b600080fd5b61004a60048036038101906100459190610323565b610060565b60405161005791906103d1565b60405180910390f35b60606000600567ffffffffffffffff8111156100a5577f4e487b7100000000000000000000000000000000000000000000000000000000600052604160045260246000fd5b6040519080825280602002602001820160405280156100d35781602001602082028036833780820191505090505b509050600060808473ffffffffffffffffffffffffffffffffffffffff16901c90508082600081518110610130577f4e487b7100000000000000000000000000000000000000000000000000000000600052603260045260246000fd5b602002602001019063ffffffff16908163ffffffff1681525050600060608573ffffffffffffffffffffffffffffffffffffffff16901c905080836001815181106101a4577f4e487b7100000000000000000000000000000000000000000000000000000000600052603260045260246000fd5b602002602001019063ffffffff16908163ffffffff1681525050600060408673ffffffffffffffffffffffffffffffffffffffff16901c90508084600281518110610218577f4e487b7100000000000000000000000000000000000000000000000000000000600052603260045260246000fd5b602002602001019063ffffffff16908163ffffffff1681525050600060208773ffffffffffffffffffffffffffffffffffffffff16901c9050808560038151811061028c577f4e487b7100000000000000000000000000000000000000000000000000000000600052603260045260246000fd5b602002602001019063ffffffff16908163ffffffff1681525050600087905080866004815181106102e6577f4e487b7100000000000000000000000000000000000000000000000000000000600052603260045260246000fd5b602002602001019063ffffffff16908163ffffffff1681525050859650505050505050919050565b60008135905061031d8161045c565b92915050565b60006020828403121561033557600080fd5b60006103438482850161030e565b91505092915050565b600061035883836103c2565b60208301905092915050565b600061036f82610403565b610379818561041b565b9350610384836103f3565b8060005b838110156103b557815161039c888261034c565b97506103a78361040e565b925050600181019050610388565b5085935050505092915050565b6103cb8161044c565b82525050565b600060208201905081810360008301526103eb8184610364565b905092915050565b6000819050602082019050919050565b600081519050919050565b6000602082019050919050565b600082825260208201905092915050565b600073ffffffffffffffffffffffffffffffffffffffff82169050919050565b600063ffffffff82169050919050565b6104658161042c565b811461047057600080fd5b5056fea26469706673582212201f5f9089916abc1cd95bbac9174ef08eab6aa83a1b2dc520e826b10e67f2bbad64736f6c63430008000033",
					"opcodes": "PUSH1 0x80 PUSH1 0x40 MSTORE CALLVALUE DUP1 ISZERO PUSH2 0x10 JUMPI PUSH1 0x0 DUP1 REVERT JUMPDEST POP PUSH2 0x4A9 DUP1 PUSH2 0x20 PUSH1 0x0 CODECOPY PUSH1 0x0 RETURN INVALID PUSH1 0x80 PUSH1 0x40 MSTORE CALLVALUE DUP1 ISZERO PUSH2 0x10 JUMPI PUSH1 0x0 DUP1 REVERT JUMPDEST POP PUSH1 0x4 CALLDATASIZE LT PUSH2 0x2B JUMPI PUSH1 0x0 CALLDATALOAD PUSH1 0xE0 SHR DUP1 PUSH4 0x95FC4AF5 EQ PUSH2 0x30 JUMPI JUMPDEST PUSH1 0x0 DUP1 REVERT JUMPDEST PUSH2 0x4A PUSH1 0x4 DUP1 CALLDATASIZE SUB DUP2 ADD SWAP1 PUSH2 0x45 SWAP2 SWAP1 PUSH2 0x323 JUMP JUMPDEST PUSH2 0x60 JUMP JUMPDEST PUSH1 0x40 MLOAD PUSH2 0x57 SWAP2 SWAP1 PUSH2 0x3D1 JUMP JUMPDEST PUSH1 0x40 MLOAD DUP1 SWAP2 SUB SWAP1 RETURN JUMPDEST PUSH1 0x60 PUSH1 0x0 PUSH1 0x5 PUSH8 0xFFFFFFFFFFFFFFFF DUP2 GT ISZERO PUSH2 0xA5 JUMPI PUSH32 0x4E487B7100000000000000000000000000000000000000000000000000000000 PUSH1 0x0 MSTORE PUSH1 0x41 PUSH1 0x4 MSTORE PUSH1 0x24 PUSH1 0x0 REVERT JUMPDEST PUSH1 0x40 MLOAD SWAP1 DUP1 DUP3 MSTORE DUP1 PUSH1 0x20 MUL PUSH1 0x20 ADD DUP3 ADD PUSH1 0x40 MSTORE DUP1 ISZERO PUSH2 0xD3 JUMPI DUP2 PUSH1 0x20 ADD PUSH1 0x20 DUP3 MUL DUP1 CALLDATASIZE DUP4 CALLDATACOPY DUP1 DUP3 ADD SWAP2 POP POP SWAP1 POP JUMPDEST POP SWAP1 POP PUSH1 0x0 PUSH1 0x80 DUP5 PUSH20 0xFFFFFFFFFFFFFFFFFFFFFFFFFFFFFFFFFFFFFFFF AND SWAP1 SHR SWAP1 POP DUP1 DUP3 PUSH1 0x0 DUP2 MLOAD DUP2 LT PUSH2 0x130 JUMPI PUSH32 0x4E487B7100000000000000000000000000000000000000000000000000000000 PUSH1 0x0 MSTORE PUSH1 0x32 PUSH1 0x4 MSTORE PUSH1 0x24 PUSH1 0x0 REVERT JUMPDEST PUSH1 0x20 MUL PUSH1 0x20 ADD ADD SWAP1 PUSH4 0xFFFFFFFF AND SWAP1 DUP2 PUSH4 0xFFFFFFFF AND DUP2 MSTORE POP POP PUSH1 0x0 PUSH1 0x60 DUP6 PUSH20 0xFFFFFFFFFFFFFFFFFFFFFFFFFFFFFFFFFFFFFFFF AND SWAP1 SHR SWAP1 POP DUP1 DUP4 PUSH1 0x1 DUP2 MLOAD DUP2 LT PUSH2 0x1A4 JUMPI PUSH32 0x4E487B7100000000000000000000000000000000000000000000000000000000 PUSH1 0x0 MSTORE PUSH1 0x32 PUSH1 0x4 MSTORE PUSH1 0x24 PUSH1 0x0 REVERT JUMPDEST PUSH1 0x20 MUL PUSH1 0x20 ADD ADD SWAP1 PUSH4 0xFFFFFFFF AND SWAP1 DUP2 PUSH4 0xFFFFFFFF AND DUP2 MSTORE POP POP PUSH1 0x0 PUSH1 0x40 DUP7 PUSH20 0xFFFFFFFFFFFFFFFFFFFFFFFFFFFFFFFFFFFFFFFF AND SWAP1 SHR SWAP1 POP DUP1 DUP5 PUSH1 0x2 DUP2 MLOAD DUP2 LT PUSH2 0x218 JUMPI PUSH32 0x4E487B7100000000000000000000000000000000000000000000000000000000 PUSH1 0x0 MSTORE PUSH1 0x32 PUSH1 0x4 MSTORE PUSH1 0x24 PUSH1 0x0 REVERT JUMPDEST PUSH1 0x20 MUL PUSH1 0x20 ADD ADD SWAP1 PUSH4 0xFFFFFFFF AND SWAP1 DUP2 PUSH4 0xFFFFFFFF AND DUP2 MSTORE POP POP PUSH1 0x0 PUSH1 0x20 DUP8 PUSH20 0xFFFFFFFFFFFFFFFFFFFFFFFFFFFFFFFFFFFFFFFF AND SWAP1 SHR SWAP1 POP DUP1 DUP6 PUSH1 0x3 DUP2 MLOAD DUP2 LT PUSH2 0x28C JUMPI PUSH32 0x4E487B7100000000000000000000000000000000000000000000000000000000 PUSH1 0x0 MSTORE PUSH1 0x32 PUSH1 0x4 MSTORE PUSH1 0x24 PUSH1 0x0 REVERT JUMPDEST PUSH1 0x20 MUL PUSH1 0x20 ADD ADD SWAP1 PUSH4 0xFFFFFFFF AND SWAP1 DUP2 PUSH4 0xFFFFFFFF AND DUP2 MSTORE POP POP PUSH1 0x0 DUP8 SWAP1 POP DUP1 DUP7 PUSH1 0x4 DUP2 MLOAD DUP2 LT PUSH2 0x2E6 JUMPI PUSH32 0x4E487B7100000000000000000000000000000000000000000000000000000000 PUSH1 0x0 MSTORE PUSH1 0x32 PUSH1 0x4 MSTORE PUSH1 0x24 PUSH1 0x0 REVERT JUMPDEST PUSH1 0x20 MUL PUSH1 0x20 ADD ADD SWAP1 PUSH4 0xFFFFFFFF AND SWAP1 DUP2 PUSH4 0xFFFFFFFF AND DUP2 MSTORE POP POP DUP6 SWAP7 POP POP POP POP POP POP POP SWAP2 SWAP1 POP JUMP JUMPDEST PUSH1 0x0 DUP2 CALLDATALOAD SWAP1 POP PUSH2 0x31D DUP2 PUSH2 0x45C JUMP JUMPDEST SWAP3 SWAP2 POP POP JUMP JUMPDEST PUSH1 0x0 PUSH1 0x20 DUP3 DUP5 SUB SLT ISZERO PUSH2 0x335 JUMPI PUSH1 0x0 DUP1 REVERT JUMPDEST PUSH1 0x0 PUSH2 0x343 DUP5 DUP3 DUP6 ADD PUSH2 0x30E JUMP JUMPDEST SWAP2 POP POP SWAP3 SWAP2 POP POP JUMP JUMPDEST PUSH1 0x0 PUSH2 0x358 DUP4 DUP4 PUSH2 0x3C2 JUMP JUMPDEST PUSH1 0x20 DUP4 ADD SWAP1 POP SWAP3 SWAP2 POP POP JUMP JUMPDEST PUSH1 0x0 PUSH2 0x36F DUP3 PUSH2 0x403 JUMP JUMPDEST PUSH2 0x379 DUP2 DUP6 PUSH2 0x41B JUMP JUMPDEST SWAP4 POP PUSH2 0x384 DUP4 PUSH2 0x3F3 JUMP JUMPDEST DUP1 PUSH1 0x0 JUMPDEST DUP4 DUP2 LT ISZERO PUSH2 0x3B5 JUMPI DUP2 MLOAD PUSH2 0x39C DUP9 DUP3 PUSH2 0x34C JUMP JUMPDEST SWAP8 POP PUSH2 0x3A7 DUP4 PUSH2 0x40E JUMP JUMPDEST SWAP3 POP POP PUSH1 0x1 DUP2 ADD SWAP1 POP PUSH2 0x388 JUMP JUMPDEST POP DUP6 SWAP4 POP POP POP POP SWAP3 SWAP2 POP POP JUMP JUMPDEST PUSH2 0x3CB DUP2 PUSH2 0x44C JUMP JUMPDEST DUP3 MSTORE POP POP JUMP JUMPDEST PUSH1 0x0 PUSH1 0x20 DUP3 ADD SWAP1 POP DUP2 DUP2 SUB PUSH1 0x0 DUP4 ADD MSTORE PUSH2 0x3EB DUP2 DUP5 PUSH2 0x364 JUMP JUMPDEST SWAP1 POP SWAP3 SWAP2 POP POP JUMP JUMPDEST PUSH1 0x0 DUP2 SWAP1 POP PUSH1 0x20 DUP3 ADD SWAP1 POP SWAP2 SWAP1 POP JUMP JUMPDEST PUSH1 0x0 DUP2 MLOAD SWAP1 POP SWAP2 SWAP1 POP JUMP JUMPDEST PUSH1 0x0 PUSH1 0x20 DUP3 ADD SWAP1 POP SWAP2 SWAP1 POP JUMP JUMPDEST PUSH1 0x0 DUP3 DUP3 MSTORE PUSH1 0x20 DUP3 ADD SWAP1 POP SWAP3 SWAP2 POP POP JUMP JUMPDEST PUSH1 0x0 PUSH20 0xFFFFFFFFFFFFFFFFFFFFFFFFFFFFFFFFFFFFFFFF DUP3 AND SWAP1 POP SWAP2 SWAP1 POP JUMP JUMPDEST PUSH1 0x0 PUSH4 0xFFFFFFFF DUP3 AND SWAP1 POP SWAP2 SWAP1 POP JUMP JUMPDEST PUSH2 0x465 DUP2 PUSH2 0x42C JUMP JUMPDEST DUP2 EQ PUSH2 0x470 JUMPI PUSH1 0x0 DUP1 REVERT JUMPDEST POP JUMP INVALID LOG2 PUSH5 0x6970667358 0x22 SLT KECCAK256 0x1F 0x5F SWAP1 DUP10 SWAP2 PUSH11 0xBC1CD95BBAC9174EF08EAB PUSH11 0xA83A1B2DC520E826B10E67 CALLCODE 0xBB 0xAD PUSH5 0x736F6C6343 STOP ADDMOD STOP STOP CALLER "
				},
				"gasEstimates": {
					"creation": {
						"codeDepositCost": "238600",
						"executionCost": "281",
						"totalCost": "238881"
					},
					"external": {
						"toUint32Array(uint160)": "infinite"
					}
				},
				"methodIdentifiers": {
					"toUint32Array(uint160)": "95fc4af5"
				}
			},
			"storageLayout": {
				"storage": [],
				"types": null
			},
			"userdoc": {
				"kind": "user",
				"methods": {},
				"version": 1
			}
		}
	}
}